00COTAHIST.2016BOVESPA 20160726                                                                                                                                                                                                                      
012016072602AAPL34      010APPLE       DRN          R$  000000000316300000000031630000000003150000000000316200000000031500000000003148000000000318200007000000000000250300000000000791695000000000000000009999123100000010000000000000BRAAPLBDR004117
012016072610ABCB2       010ABC BRASIL  DIR PRE N2   R$  000000000040900000000004270000000000386000000000039400000000003860000000000386000000000041500032000000000000010800000000000004263400000000000000009999123100000010000000000000BRABCBD09PR2125
012016072696ABCB2F      020ABC BRASIL  DIR PRE N2   R$  000000000040000000000004090000000000365000000000039600000000003910000000000391000000000040000035000000000000000578000000000000229272000000000000009999123100000010000000000000BRABCBD09PR2125
012016072602ABCB4       010ABC BRASIL  PN      N2   R$  000000000140000000000014140000000001370000000000139500000000013820000000001381000000000138201026000000000000166700000000000232567900000000000000009999123100000010000000000000BRABCBACNPR4126
012016072696ABCB4F      020ABC BRASIL  PN      N2   R$  000000000141000000000014100000000001380000000000138800000000013800000000001380000000000141400013000000000000000220000000000000305403000000000000009999123100000010000000000000BRABCBACNPR4126
012016072612ABCP11      010FII ABC IMOBCI           R$  000000000107600000000011700000000001071000000000115500000000010710000000001071000000000117000011000000000000001005000000000001161644000000000000009999123100000010000000000000BRABCPCTF000249
012016072602ABEV3       010AMBEV S/A   ON           R$  000000000194000000000019520000000001920000000000193800000000019350000000001934000000000193513692000000000007397400000000014337542500000000000000009999123100000010000000000000BRABEVACNOR1113
012016072696ABEV3F      020AMBEV S/A   ON           R$  000000000193700000000019500000000001925000000000193600000000019350000000001933000000000193500132000000000000003365000000000006515122000000000000009999123100000010000000000000BRABEVACNOR1113
012016072662ABEV3T      030AMBEV S/A   ON        030R$  000000000196100000000019680000000001961000000000196400000000019680000000000000000000000000000004000000000000003500000000000006877211000000000000009999123100000010000000000000BRABEVACNOR1113
012016072678ABEVH18     070ABEV  FM    ON        000R$  000000000006400000000000820000000000064000000000008100000000000650000000000059000000000007300008000000000000007200000000000000583700000000000188202016081500000010000000000000BRABEVACNOR1112
012016072678ABEVH19     070ABEV  FM    ON        000R$  000000000004000000000000440000000000032000000000003800000000000340000000000030000000000004300022000000000000052700000000000002022600000000000193202016081500000010000000000000BRABEVACNOR1112
012016072678ABEVH20     070ABEV        ON        000R$  000000000000800000000000080000000000005000000000000600000000000050000000000005000000000001000013000000000000051500000000000000328800000000000203202016081500000010000000000000BRABEVACNOR1112
012016072678ABEVH21     070ABEV  FM    ON        000R$  000000000000400000000000040000000000004000000000000400000000000040000000000003000000000000500003000000000000024000000000000000096000000000000208202016081500000010000000000000BRABEVACNOR1112
012016072678ABEVH3      070ABEVE       ON        000R$  000000000007200000000000720000000000072000000000007200000000000720000000000000000000000000000002000000000000003500000000000000252000000000000231202017082100000010000000000000BRABEVACNOR1113
012016072678ABEVH49     070ABEV  FM    ON        000R$  000000000001700000000000190000000000016000000000001600000000000190000000000000000000000001900003000000000000009800000000000000166300000000000198202016081500000010000000000000BRABEVACNOR1112
012016072678ABEVH64     070ABEVE       ON        000R$  000000000006000000000000600000000000053000000000005300000000000530000000000037000000000000000002000000000000001900000000000000102100000000000190702016081500000010000000000000BRABEVACNOR1109
012016072678ABEVH70     070ABEVE       ON        000R$  000000000001000000000000100000000000010000000000001000000000000100000000000000000000000000000001000000000000024200000000000000242000000000000205702016081500000010000000000000BRABEVACNOR1112
012016072678ABEVH79     070ABEVE       ON        000R$  000000000002900000000000290000000000029000000000002900000000000290000000000010000000000002900001000000000000001000000000000000029000000000000195702016081500000010000000000000BRABEVACNOR1111
012016072678ABEVH80     070ABEVE       ON        000R$  000000000001200000000000120000000000012000000000001200000000000120000000000000000000000003700001000000000000024600000000000000295200000000000200702016081500000010000000000000BRABEVACNOR1112
012016072678ABEVH82     070ABEVE       ON        000R$  000000000008200000000000820000000000075000000000007500000000000750000000000000000000000000000003000000000003027100000000000227085000000000000226202017082100000010000000000000BRABEVACNOR1112
012016072678ABEVI19     070ABEV  FM    ON        000R$  000000000006400000000000690000000000064000000000006800000000000690000000000000000000000000000003000000000000501700000000000034208800000000000193202016091900000010000000000000BRABEVACNOR1112
012016072678ABEVI49     070ABEV  FM    ON        000R$  000000000004300000000000430000000000043000000000004300000000000430000000000008000000000000000001000000000000007000000000000000301000000000000198202016091900000010000000000000BRABEVACNOR1112
012016072678ABEVI79     070ABEVE       ON        000R$  000000000005600000000000560000000000046000000000005100000000000460000000000000000000000000000002000000000000002000000000000000102000000000000195702016091900000010000000000000BRABEVACNOR1111
012016072678ABEVI80     070ABEVE       ON        000R$  000000000001800000000000180000000000018000000000001800000000000180000000000000000000000000000002000000000000000400000000000000007200000000000205702016091900000010000000000000BRABEVACNOR1112
012016072678ABEVI89     070ABEV  FM    ON        000R$  000000000010800000000001080000000000108000000000010800000000001080000000000004000000000000000001000000000000001500000000000000162000000000000188202016091900000010000000000000BRABEVACNOR1107
012016072678ABEVI92     070ABEVE       ON        000R$  000000000000400000000000040000000000004000000000000400000000000040000000000000000000000000000001000000000000000300000000000000001200000000000220702016091900000010000000000000BRABEVACNOR1108
012016072678ABEVJ20     070ABEV        ON        000R$  000000000005600000000000560000000000056000000000005600000000000560000000000006000000000000000003000000000000010000000000000000560000000000000199802016101700000010000000000000BRABEVACNOR1112
012016072678ABEVJ50     070ABEV        ON        000R$  000000000004400000000000440000000000035000000000003900000000000350000000000012000000000000000004000000000000000400000000000000015800000000000204802016101700000010000000000000BRABEVACNOR1113
012016072678ABEVJ82     070ABEVE       ON        000R$  000000000001000000000000100000000000010000000000001000000000000100000000000000000000000011000001000000000000004600000000000000046000000000000222302016101700000010000000000000BRABEVACNOR1109
012016072678ABEVK71     070ABEVE       ON        000R$  000000000003800000000000380000000000030000000000003000000000000300000000000000000000000000000002000000000000024200000000000000726800000000000207302016112100000010000000000000BRABEVACNOR1110
012016072682ABEVT18     080ABEVE FM    ON        000R$  000000000000700000000000080000000000007000000000000700000000000080000000000006000000000000000002000000000000010500000000000000074000000000000188202016081500000010000000000000BRABEVACNOR1112
012016072682ABEVT19     080ABEVE FM    ON        000R$  000000000002100000000000210000000000021000000000002100000000000210000000000000000000000002400003000000000000006000000000000000126000000000000193202016081500000010000000000000BRABEVACNOR1112
012016072682ABEVT29     080ABEVE       ON        000R$  000000000006200000000000620000000000062000000000006200000000000620000000000000000000000000000002000000000000003500000000000000217000000000000193702017082100000010000000000000BRABEVACNOR1113
012016072682ABEVT47     080ABEVE       ON        000R$  000000000000300000000000030000000000003000000000000300000000000030000000000000000000000000000001000000000000001000000000000000003000000000000173202016081500000010000000000000BRABEVACNOR1112
012016072682ABEVT49     080ABEVE FM    ON        000R$  000000000004400000000000540000000000040000000000004500000000000540000000000040000000000005500008000000000000022400000000000001027700000000000198202016081500000010000000000000BRABEVACNOR1112
012016072682ABEVT69     080ABEVE FM    ON        000R$  000000000000400000000000040000000000004000000000000400000000000040000000000000000000000000000001000000000000003000000000000000012000000000000183202016081500000010000000000000BRABEVACNOR1107
012016072682ABEVT78     080ABEVE       ON        000R$  000000000000300000000000030000000000003000000000000300000000000030000000000003000000000000000001000000000000001000000000000000003000000000000185702016081500000010000000000000BRABEVACNOR1112
012016072682ABEVT79     080ABEVE       ON        000R$  000000000002800000000000340000000000026000000000002600000000000340000000000000000000000003500003000000000000008300000000000000223200000000000195702016081500000010000000000000BRABEVACNOR1111
012016072682ABEVT9      080ABEVE       ON        000R$  000000000006400000000000640000000000064000000000006400000000000640000000000000000000000000000001000000000003000000000000000192000000000000000188702017082100000010000000000000BRABEVACNOR1112
012016072682ABEVV98     080ABEVE       ON        000R$  000000000002900000000000290000000000005000000000001900000000000050000000000000000000000000000006000000000000001000000000000000019200000000000182302016101700000010000000000000BRABEVACNOR1109
012016072682ABEVX79     080ABEVE       ON        000R$  000000000006000000000000600000000000060000000000006000000000000600000000000000000000000000000001000000000000000100000000000000006000000000000191202017121800000010000000000000BRABEVACNOR1113
012016072612AEFI11      010FII AESAPAR CI           R$  000000001300000000000131940000000013000000000001302900000000130000000000013001000000001318400024000000000000000710000000000009250711000000000000009999123100000010000000000000BRAEFICTF002155
012016072602AELP3       010AES ELPA    ON           R$  000000000140000000000014000000000001400000000000140000000000014000000000000822000000000138500003000000000000000500000000000000700000000000000000009999123100000010000000000000BRAELPACNOR2123
012016072612AGCX11      010FII AG CAIXACI           R$  000000011440000000001144000000000112901000000011324300000001135000000000112900000000011350000037000000000000000248000000000028084323000000000000009999123100000010000000000000BRAGCXCTF003144
012016072602AGRO3       010BRASILAGRO  ON      NM   R$  000000000130700000000013290000000001283000000000130900000000012880000000001288000000000129500510000000000000134600000000000176197700000000000000009999123100000010000000000000BRAGROACNOR7104
012016072696AGRO3F      020BRASILAGRO  ON      NM   R$  000000000130800000000014000000000001303000000000133100000000013030000000001300000000000140000014000000000000000329000000000000437963000000000000009999123100000010000000000000BRAGROACNOR7104
012016072612ALMI11B     010FII TORRE ALCI      MB   R$  000000018400000000001894500000000184000000000018414000000001852000000000184001000000018520000005000000000000000109000000000020071290000000000000009999123100000010000000000000BRALMICTF003239
012016072602ALPA4       010ALPARGATAS  PN      N1   R$  000000000114900000000011490000000001119000000000113100000000011190000000001119000000000112401181000000000000373400000000000422637900000000000000009999123100000010000000000000BRALPAACNPR7217
012016072696ALPA4F      020ALPARGATAS  PN      N1   R$  000000000115000000000011540000000001129000000000113700000000011300000000001113000000000115600032000000000000000689000000000000783888000000000000009999123100000010000000000000BRALPAACNPR7217
012016072602ALSC3       010ALIANSCE    ON      NM   R$  000000000150400000000015120000000001485000000000149400000000014900000000001485000000000149000633000000000000110900000000000165793000000000000000009999123100000010000000000000BRALSCACNOR0109
012016072696ALSC3F      020ALIANSCE    ON      NM   R$  000000000150000000000015000000000001493000000000149300000000014930000000001461000000000149800004000000000000000065000000000000097052000000000000009999123100000010000000000000BRALSCACNOR0109
012016072602ALUP11      010ALUPAR      UNT     N2   R$  000000000160000000000016190000000001595000000000160700000000016050000000001600000000000160601519000000000000408200000000000656026500000000000000009999123100000010000000000000BRALUPCDAM15105
012016072696ALUP11F     020ALUPAR      UNT     N2   R$  000000000159500000000016190000000001595000000000160600000000015950000000001595000000000161700037000000000000000664000000000001066748000000000000009999123100000010000000000000BRALUPCDAM15105
012016072610ALUP13      010ALUPAR      REC     N2   R$  000000000160500000000016050000000001600000000000160200000000016000000000001600000000000160400042000000000000026700000000000042796000000000000000009999123100000010000000000000BRALUPR01M14105
012016072696ALUP13F     020ALUPAR      REC     N2   R$  000000000160000000000016000000000001560000000000157500000000015600000000001560000000000160000008000000000000000215000000000000338720000000000000009999123100000010000000000000BRALUPR01M14105
012016072678ALUPK20     070ALUP        UNT     N2000R$  000000000004700000000000640000000000047000000000005500000000000640000000000000000000000000000004000000000000050000000000000002790000000000000200002016112100000010000000000000BRALUPCDAM15105
012016072682ALUPW73     080ALUPE       UNT     N2000R$  000000000004500000000000450000000000044000000000004400000000000440000000000000000000000000000003000000000000100000000000000004450000000000000137502016112100000010000000000000BRALUPCDAM15105
012016072602AMAR3       010LOJAS MARISAON      NM   R$  000000000081500000000008180000000000805000000000080900000000008050000000000805000000000081601700000000000000648300000000000525104900000000000000009999123100000010000000000000BRAMARACNOR4112
012016072696AMAR3F      020LOJAS MARISAON      NM   R$  000000000081000000000008100000000000810000000000081000000000008100000000000805000000000081800003000000000000000064000000000000051840000000000000009999123100000010000000000000BRAMARACNOR4112
012016072662AMAR3T      030LOJAS MARISAON      NM016R$  000000000081900000000008200000000000813000000000081900000000008140000000000000000000000000000006000000000000012500000000000010242589000000000000009999123100000010000000000000BRAMARACNOR4112
012016072602ANIM3       010ANIMA       ON      NM   R$  000000000156400000000015640000000001508000000000152800000000015290000000001529000000000153800642000000000000096900000000000148136700000000000000009999123100000010000000000000BRANIMACNOR6103
012016072696ANIM3F      020ANIMA       ON      NM   R$  000000000147600000000014760000000001476000000000147600000000014760000000001475000000000153900001000000000000000068000000000000100368000000000000009999123100000010000000000000BRANIMACNOR6103
012016072602ARZZ3       010AREZZO CO   ON      NM   R$  000000000278000000000028450000000002768000000000279900000000028000000000002787000000000280600256000000000000053000000000000148397800000000000000009999123100000010000000000000BRARZZACNOR3121
012016072696ARZZ3F      020AREZZO CO   ON      NM   R$  000000000279400000000028050000000002765000000000278500000000027710000000002603000000000281600006000000000000000161000000000000448465000000000000009999123100000010000000000000BRARZZACNOR3121
012016072678ARZZJ56     070ARZZ        ON      NM000R$  000000000029400000000002940000000000294000000000029400000000002940000000000000000000000000000001000000000000001300000000000000382200000000000265002016101700000010000000000000BRARZZACNOR3121
012016072608ATOM3       010ATOMPAR     ON  EG       R$  000000000020500000000002200000000000188000000000019900000000002040000000000204000000000022000234000000000000227100000000000045397300000000000000009999123100000010000000000000BRATOMACNOR1102
012016072696ATOM3F      020ATOMPAR     ON  EG       R$  000000000021600000000002160000000000188000000000019700000000002100000000000205000000000021000059000000000000001335000000000000263009000000000000009999123100000010000000000000BRATOMACNOR1102
012016072612ATSA11B     010FII CSHGATSACI      MB   R$  000000009000000000000900000000000090000000000009000000000000900000000000087000000000000000000001000000000000000020000000000001800000000000000000009999123100000010000000000000BRATSACTF000101
012016072602ATTB34      010ATT INC     DRN          R$  000000001380400000000138040000000013804000000001380400000000138040000000000000000000000000000001000000000000000100000000000001380400000000000000009999123100000010000000000000BRATTBBDR007116
012016072602AZEV4       010AZEVEDO     PN           R$  000000000021400000000002300000000000214000000000021800000000002220000000000170000000000021700012000000000000007300000000000001595200000000000000009999123100000010000000000000BRAZEVACNPR7116
012016072602BALM4       010BAUMER      PN           R$  000000000083000000000008300000000000830000000000083000000000008300000000000802000000000084900001000000000000000800000000000000664000000000000000009999123100000010000000000000BRBALMACNPR2047
012016072602BAZA3       010AMAZONIA    ON           R$  000000000003300000000000340000000000033000000000003300000000000330000000000033000000000003400009000000000000059000000000000001956000000000000000009999123100000010000000000000BRBAZAACNOR0168
012016072696BAZA3F      020AMAZONIA    ON           R$  000000000003400000000000340000000000034000000000003400000000000340000000000032000000000003300002000000000000000015000000000000000510000000000000009999123100000010000000000000BRBAZAACNOR0168
012016072602BBAS3       010BRASIL      ON      NM   R$  000000000213500000000021720000000002130000000000215500000000021440000000002144000000000214519767000000000009794900000000021115115500000000000000009999123100000010000000000000BRBBASACNOR3261
012016072696BBAS3F      020BRASIL      ON      NM   R$  000000000213200000000021770000000002128000000000215500000000021480000000002148000000000214900343000000000000010526000000000022677459000000000000009999123100000010000000000000BRBBASACNOR3261
012016072662BBAS3T      030BRASIL      ON      NM016R$  000000000214800000000021790000000002148000000000217400000000021790000000000000000000000000000012000000000000074000000000000160914989000000000000009999123100000010000000000000BRBBASACNOR3261
012016072662BBAS3T      030BRASIL      ON      NM030R$  000000000218800000000021890000000002173000000000218200000000021770000000000000000000000000000032000000000000010200000000000022265463000000000000009999123100000010000000000000BRBBASACNOR3261
012016072662BBAS3T      030BRASIL      ON      NM062R$  000000000218100000000021820000000002181000000000218100000000021820000000000000000000000000000002000000000000002300000000000005018040000000000000009999123100000010000000000000BRBBASACNOR3261
012016072678BBASG81     070BBAS        ON      NM000R$  000000000045500000000004550000000000455000000000045500000000004550000000000000000000000000000001000000000000000100000000000000045500000000000207702017071700000010000000000000BRBBASACNOR3259
012016072678BBASH16     070BBAS        ON      NM000R$  000000000058000000000005800000000000580000000000058000000000005800000000000537000000000000000003000000000000000700000000000000406000000000000158802016081500000010000000000000BRBBASACNOR3259
012016072678BBASH17     070BBAS        ON      NM000R$  000000000047000000000004790000000000470000000000047300000000004790000000000067000000000000000002000000000000001500000000000000709500000000000168802016081500000010000000000000BRBBASACNOR3259
012016072678BBASH18     070BBAS        ON      NM000R$  000000000038000000000003800000000000371000000000037900000000003710000000000370000000000038000013000000000000004500000000000001709100000000000178802016081500000010000000000000BRBBASACNOR3259
012016072678BBASH19     070BBAS        ON      NM000R$  000000000027900000000003000000000000278000000000028800000000002790000000000230000000000029000058000000000000062100000000000017929300000000000188802016081500000010000000000000BRBBASACNOR3259
012016072678BBASH20     070BBAS  FM    ON      NM000R$  000000000019800000000002140000000000189000000000020100000000001990000000000196000000000019900077000000000000143500000000000028966400000000000198802016081500000010000000000000BRBBASACNOR3259
012016072678BBASH21     070BBAS  FM    ON      NM000R$  000000000011700000000001390000000000117000000000012800000000001200000000000102000000000012200129000000000000162700000000000020881000000000000208802016081500000010000000000000BRBBASACNOR3259
012016072678BBASH22     070BBAS        ON      NM000R$  000000000005400000000000590000000000049000000000005500000000000500000000000050000000000005300276000000000000749900000000000041260700000000000223802016081500000010000000000000BRBBASACNOR3259
012016072678BBASH23     070BBASE       ON      NM000R$  000000000002900000000000290000000000024000000000002700000000000270000000000021000000000002700091000000000000146500000000000004038200000000000236302016081500000010000000000000BRBBASACNOR3259
012016072678BBASH24     070BBAS  FM    ON      NM000R$  000000000002500000000000270000000000021000000000002300000000000210000000000021000000000002200211000000000000488200000000000011274000000000000238802016081500000010000000000000BRBBASACNOR3259
012016072678BBASH25     070BBAS        ON      NM000R$  000000000001500000000000170000000000012000000000001400000000000120000000000012000000000001400112000000000000179800000000000002525900000000000248802016081500000010000000000000BRBBASACNOR3259
012016072678BBASH26     070BBAS        ON      NM000R$  000000000000800000000000090000000000006000000000000700000000000080000000000006000000000000800039000000000000053900000000000000412000000000000258802016081500000010000000000000BRBBASACNOR3259
012016072678BBASH27     070BBAS        ON      NM000R$  000000000000400000000000050000000000004000000000000400000000000050000000000004000000000000500004000000000000027300000000000000109300000000000268802016081500000010000000000000BRBBASACNOR3259
012016072678BBASH28     070BBAS        ON      NM000R$  000000000000300000000000030000000000002000000000000200000000000030000000000002000000000000300009000000000000088000000000000000263900000000000278802016081500000010000000000000BRBBASACNOR3259
012016072678BBASH29     070BBAS        ON      NM000R$  000000000000100000000000030000000000001000000000000200000000000020000000000001000000000000600011000000000000071200000000000000152300000000000288802016081500000010000000000000BRBBASACNOR3259
012016072678BBASH30     070BBAS        ON      NM000R$  000000000000100000000000010000000000001000000000000100000000000010000000000001000000000000300002000000000000000200000000000000000200000000000298802016081500000010000000000000BRBBASACNOR3259
012016072678BBASH45     070BBAS        ON      NM000R$  000000000063000000000006300000000000630000000000063000000000006300000000000000000000000000000002000000000000000200000000000000126000000000000153802016081500000010000000000000BRBBASACNOR3259
012016072678BBASH46     070BBAS        ON      NM000R$  000000000054500000000005450000000000545000000000054500000000005450000000000101000000000000000001000000000000000500000000000000272500000000000163802016081500000010000000000000BRBBASACNOR3259
012016072678BBASH48     070BBAS        ON      NM000R$  000000000032500000000003450000000000325000000000032500000000003450000000000150000000000035000006000000000000008300000000000002699500000000000183802016081500000010000000000000BRBBASACNOR3259
012016072678BBASH49     070BBAS        ON      NM000R$  000000000024500000000002550000000000225000000000023300000000002550000000000007000000000000000078000000000000055900000000000013054800000000000193802016081500000010000000000000BRBBASACNOR3259
012016072678BBASH50     070BBAS        ON      NM000R$  000000000016000000000001750000000000160000000000017000000000001750000000000145000000000017500003000000000000001800000000000000307500000000000203802016081500000010000000000000BRBBASACNOR3259
012016072678BBASH51     070BBASE       ON      NM000R$  000000000011700000000001200000000000113000000000011700000000001130000000000095000000000013000004000000000000003100000000000000364700000000000211302016081500000010000000000000BRBBASACNOR3259
012016072678BBASH55     070BBAS        ON      NM000R$  000000000000800000000000080000000000008000000000000800000000000080000000000008000000000000000002000000000000001900000000000000015200000000000253802016081500000010000000000000BRBBASACNOR3259
012016072678BBASH62     070BBASE       ON      NM000R$  000000000006600000000000660000000000057000000000006200000000000570000000000000000000000000000007000000000000017600000000000001105400000000000221302016081500000010000000000000BRBBASACNOR3259
012016072678BBASH64     070BBASE       ON      NM000R$  000000000001800000000000180000000000017000000000001700000000000170000000000001000000000001700014000000000000084900000000000001473300000000000241302016081500000010000000000000BRBBASACNOR3259
012016072678BBASH69     070BBASE       ON      NM000R$  000000000026700000000002670000000000265000000000026600000000002650000000000250000000000000000003000000000000002000000000000000532000000000000191302016081500000010000000000000BRBBASACNOR3259
012016072678BBASH79     070BBASE       ON      NM000R$  000000000029900000000003230000000000299000000000032100000000003230000000000287000000000000000008000000000000014500000000000004659500000000000186302016081500000010000000000000BRBBASACNOR3253
012016072678BBASH80     070BBASE       ON      NM000R$  000000000014800000000001480000000000142000000000014700000000001420000000000000000000000000000003000000000000016000000000000002353000000000000206302016081500000010000000000000BRBBASACNOR3259
012016072678BBASH91     070BBASE       ON      NM000R$  000000000007800000000000910000000000078000000000008900000000000810000000000000000000000000000050000000000000559300000000000049989900000000000216302016081500000010000000000000BRBBASACNOR3259
012016072678BBASH94     070BBAS        ON      NM000R$  000000000009900000000001040000000000092000000000009800000000000920000000000070000000000009500041000000000000073800000000000007258500000000000213802016081500000010000000000000BRBBASACNOR3253
012016072678BBASH95     070BBAS  FM    ON      NM000R$  000000000007000000000000790000000000069000000000007300000000000690000000000059000000000007200024000000000000044000000000000003243600000000000218802016081500000010000000000000BRBBASACNOR3253
012016072678BBASH97     070BBAS  FM    ON      NM000R$  000000000004100000000000430000000000036000000000004000000000000380000000000037000000000004300047000000000000058800000000000002353800000000000228802016081500000010000000000000BRBBASACNOR3253
012016072678BBASH98     070BBAS        ON      NM000R$  000000000003100000000000340000000000026000000000003000000000000260000000000025000000000003200041000000000000038500000000000001157200000000000233802016081500000010000000000000BRBBASACNOR3253
012016072678BBASI18     070BBAS        ON      NM000R$  000000000042000000000004200000000000420000000000042000000000004200000000000190000000000050000006000000000000002400000000000001008000000000000177702016091900000010000000000000BRBBASACNOR3259
012016072678BBASI19     070BBAS        ON      NM000R$  000000000028500000000002880000000000285000000000028500000000002880000000000000000000000035000003000000000000005400000000000001540500000000000192702016091900000010000000000000BRBBASACNOR3260
012016072678BBASI20     070BBAS  FM    ON      NM000R$  000000000025500000000002700000000000253000000000026100000000002610000000000225000000000027500024000000000000034100000000000008926400000000000197702016091900000010000000000000BRBBASACNOR3259
012016072678BBASI22     070BBAS  FM    ON      NM000R$  000000000014000000000001450000000000132000000000014000000000001350000000000132000000000015000022000000000000016800000000000002356300000000000217702016091900000010000000000000BRBBASACNOR3259
012016072678BBASI23     070BBAS        ON      NM000R$  000000000008500000000000950000000000079000000000008500000000000790000000000079000000000008000715000000000000894600000000000076531500000000000232702016091900000010000000000000BRBBASACNOR3260
012016072678BBASI24     070BBAS        ON      NM000R$  000000000006800000000000680000000000057000000000005700000000000570000000000048000000000006000019000000000000009800000000000000564900000000000242702016091900000010000000000000BRBBASACNOR3261
012016072678BBASI26     070BBAS        ON      NM000R$  000000000003200000000000320000000000030000000000003100000000000300000000000001000000000000000002000000000000002000000000000000062000000000000262702016091900000010000000000000BRBBASACNOR3261
012016072678BBASI27     070BBAS        ON      NM000R$  000000000003600000000000360000000000025000000000002700000000000250000000000005000000000003100013000000000000009300000000000000258800000000000267702016091900000010000000000000BRBBASACNOR3259
012016072678BBASI30     070BBAS        ON      NM000R$  000000000000500000000000050000000000005000000000000500000000000050000000000005000000000000900001000000000000000100000000000000000500000000000302702016091900000010000000000000BRBBASACNOR3261
012016072678BBASI48     070BBAS        ON      NM000R$  000000000035000000000003730000000000350000000000036100000000003730000000000250000000000000000002000000000000001000000000000000361500000000000182702016091900000010000000000000BRBBASACNOR3259
012016072678BBASI51     070BBAS        ON      NM000R$  000000000016700000000001670000000000167000000000016700000000001670000000000001000000000000000001000000000000000100000000000000016700000000000212702016091900000010000000000000BRBBASACNOR3259
012016072678BBASI52     070BBAS  FM    ON      NM000R$  000000000011200000000001120000000000094000000000010200000000000950000000000090000000000010300056000000000000102200000000000010459000000000000227702016091900000010000000000000BRBBASACNOR3260
012016072678BBASI53     070BBAS  FM    ON      NM000R$  000000000008200000000000830000000000065000000000007400000000000650000000000060000000000007900047000000000000118000000000000008805700000000000237702016091900000010000000000000BRBBASACNOR3260
012016072678BBASI55     070BBAS        ON      NM000R$  000000000004900000000000490000000000040000000000004200000000000400000000000038000000000004200014000000000000007400000000000000314800000000000252702016091900000010000000000000BRBBASACNOR3259
012016072678BBASI57     070BBAS        ON      NM000R$  000000000002200000000000220000000000022000000000002200000000000220000000000020000000000000000001000000000000000500000000000000011000000000000272702016091900000010000000000000BRBBASACNOR3261
012016072678BBASI72     070BBASE       ON      NM000R$  000000000011200000000001120000000000112000000000011200000000001120000000000000000000000000000001000000000000001000000000000000112000000000000225202016091900000010000000000000BRBBASACNOR3259
012016072678BBASI82     070BBAS        ON      NM000R$  000000000012700000000001270000000000123000000000012600000000001240000000000001000000000014000003000000000000005700000000000000721300000000000222702016091900000010000000000000BRBBASACNOR3260
012016072678BBASI90     070BBAS  FM    ON      NM000R$  000000000019700000000001970000000000197000000000019700000000001970000000000000000000000055000001000000000000000200000000000000039400000000000207702016091900000010000000000000BRBBASACNOR3260
012016072678BBASI92     070BBASE       ON      NM000R$  000000000013000000000001300000000000130000000000013000000000001300000000000005000000000000000002000000000000000600000000000000078000000000000220202016091900000010000000000000BRBBASACNOR3259
012016072678BBASI94     070BBASE       ON      NM000R$  000000000006000000000000600000000000059000000000005900000000000590000000000005000000000000000004000000000000304000000000000018160200000000000240202016091900000010000000000000BRBBASACNOR3259
012016072678BBASJ22     070BBAS        ON      NM000R$  000000000017000000000001700000000000160000000000016800000000001600000000000000000000000000000007000000000000006000000000000001013500000000000220002016101700000010000000000000BRBBASACNOR3261
012016072678BBASJ23     070BBAS        ON      NM000R$  000000000013600000000001360000000000126000000000012700000000001260000000000000000000000014000003000000000000000800000000000000102200000000000230002016101700000010000000000000BRBBASACNOR3259
012016072678BBASJ25     070BBAS        ON      NM000R$  000000000007200000000000720000000000070000000000007000000000000710000000000005000000000000000004000000000000002000000000000000141500000000000250002016101700000010000000000000BRBBASACNOR3261
012016072678BBASL16     070BBAS        ON      NM000R$  000000000060300000000006030000000000603000000000060300000000006030000000000000000000000000000003000000000000005000000000000003015000000000000163802016121900000010000000000000BRBBASACNOR3257
012016072678BBASL25     070BBAS        ON      NM000R$  000000000013200000000001320000000000132000000000013200000000001320000000000050000000000000000001000000000000004000000000000000528000000000000248802016121900000010000000000000BRBBASACNOR3258
012016072678BBASL27     070BBAS        ON      NM000R$  000000000007600000000000760000000000076000000000007600000000000760000000000000000000000000000001000000000000002000000000000000152000000000000268802016121900000010000000000000BRBBASACNOR3259
012016072678BBASL88     070BBAS        ON      NM000R$  000000000049800000000004980000000000498000000000049800000000004980000000000000000000000000000001000000000000002000000000000000996000000000000178802016121900000010000000000000BRBBASACNOR3256
012016072682BBAST16     080BBASE       ON      NM000R$  000000000000200000000000020000000000001000000000000100000000000010000000000001000000000000500002000000000000002100000000000000004100000000000158802016081500000010000000000000BRBBASACNOR3259
012016072682BBAST17     080BBASE       ON      NM000R$  000000000000500000000000050000000000001000000000000400000000000040000000000003000000000000400005000000000000032300000000000000157600000000000168802016081500000010000000000000BRBBASACNOR3259
012016072682BBAST18     080BBASE       ON      NM000R$  000000000000600000000000060000000000002000000000000400000000000020000000000003000000000000500008000000000000031500000000000000127500000000000178802016081500000010000000000000BRBBASACNOR3259
012016072682BBAST19     080BBASE       ON      NM000R$  000000000001500000000000160000000000011000000000001200000000000110000000000010000000000001200112000000000000599500000000000007627300000000000188802016081500000010000000000000BRBBASACNOR3259
012016072682BBAST20     080BBASE FM    ON      NM000R$  000000000003000000000000310000000000024000000000002700000000000240000000000024000000000002600077000000000000239000000000000006619300000000000198802016081500000010000000000000BRBBASACNOR3259
012016072682BBAST21     080BBASE FM    ON      NM000R$  000000000005500000000000590000000000047000000000005000000000000590000000000051000000000005900066000000000000215300000000000010862000000000000208802016081500000010000000000000BRBBASACNOR3259
012016072682BBAST22     080BBASE       ON      NM000R$  000000000012500000000001250000000000125000000000012500000000001250000000000000000000000025000001000000000000000100000000000000012500000000000223802016081500000010000000000000BRBBASACNOR3259
012016072682BBAST45     080BBASE       ON      NM000R$  000000000000200000000000020000000000002000000000000200000000000020000000000000000000000000600001000000000000002700000000000000005400000000000153802016081500000010000000000000BRBBASACNOR3259
012016072682BBAST48     080BBASE       ON      NM000R$  000000000001000000000000100000000000009000000000000900000000000090000000000000000000000001000004000000000000018400000000000000166600000000000183802016081500000010000000000000BRBBASACNOR3259
012016072682BBAST49     080BBASE FM    ON      NM000R$  000000000002100000000000210000000000018000000000001900000000000190000000000000000000000008000010000000000000008500000000000000166000000000000193802016081500000010000000000000BRBBASACNOR3259
012016072682BBAST50     080BBASE       ON      NM000R$  000000000003600000000000370000000000036000000000003600000000000370000000000035000000000000000003000000000000001300000000000000047100000000000203802016081500000010000000000000BRBBASACNOR3259
012016072682BBAST51     080BBASE       ON      NM000R$  000000000006900000000000690000000000056000000000006400000000000580000000000000000000000008400005000000000000017000000000000001103000000000000211302016081500000010000000000000BRBBASACNOR3259
012016072682BBAST60     080BBASE       ON      NM000R$  000000000003300000000000330000000000028000000000003000000000000320000000000000000000000011000014000000000000032100000000000000977300000000000201302016081500000010000000000000BRBBASACNOR3259
012016072682BBAST62     080BBASE       ON      NM000R$  000000000010700000000001140000000000107000000000011200000000001140000000000114000000000000000003000000000000007600000000000000853400000000000221302016081500000010000000000000BRBBASACNOR3259
012016072682BBAST80     080BBASE       ON      NM000R$  000000000004000000000000460000000000040000000000004300000000000440000000000000000000000000000010000000000000245100000000000010761000000000000206302016081500000010000000000000BRBBASACNOR3259
012016072682BBAST89     080BBASE       ON      NM000R$  000000000002100000000000230000000000017000000000002000000000000230000000000000000000000000000007000000000000038100000000000000795900000000000196302016081500000010000000000000BRBBASACNOR3259
012016072682BBAST91     080BBASE       ON      NM000R$  000000000008000000000000800000000000079000000000007900000000000790000000000000000000000000000002000000000000002000000000000000159000000000000216302016081500000010000000000000BRBBASACNOR3259
012016072682BBAST95     080BBASE FM    ON      NM000R$  000000000010400000000001040000000000104000000000010400000000001040000000000078000000000000000001000000000000001000000000000000104000000000000218802016081500000010000000000000BRBBASACNOR3253
012016072682BBASU18     080BBASE       ON      NM000R$  000000000002300000000000230000000000023000000000002300000000000230000000000000000000000000000002000000000000007000000000000000161000000000000177702016091900000010000000000000BRBBASACNOR3259
012016072682BBASU20     080BBASE FM    ON      NM000R$  000000000005500000000000550000000000052000000000005300000000000520000000000052000000000000000005000000000000011000000000000000584000000000000197702016091900000010000000000000BRBBASACNOR3259
012016072682BBASU22     080BBASE FM    ON      NM000R$  000000000013000000000001340000000000123000000000012500000000001310000000000000000000000014000007000000000000002300000000000000288900000000000217702016091900000010000000000000BRBBASACNOR3259
012016072682BBASU48     080BBASE       ON      NM000R$  000000000002500000000000260000000000025000000000002500000000000260000000000010000000000009000004000000000000022500000000000000565000000000000182702016091900000010000000000000BRBBASACNOR3259
012016072682BBASU69     080BBASE       ON      NM000R$  000000000004100000000000410000000000039000000000003900000000000390000000000020000000000000000007000000000000006000000000000000236000000000000190202016091900000010000000000000BRBBASACNOR3260
012016072682BBASU79     080BBASE       ON      NM000R$  000000000004900000000000500000000000049000000000004900000000000500000000000011000000000000000009000000000000007000000000000000344500000000000195202016091900000010000000000000BRBBASACNOR3259
012016072682BBASU82     080BBASE       ON      NM000R$  000000000015600000000001560000000000156000000000015600000000001560000000000000000000000000000001000000000000000100000000000000015600000000000222702016091900000010000000000000BRBBASACNOR3260
012016072682BBASV19     080BBASE       ON      NM000R$  000000000005100000000000510000000000051000000000005100000000000510000000000000000000000000000001000000000000007000000000000000357000000000000190002016101700000010000000000000BRBBASACNOR3259
012016072682BBASV21     080BBASE       ON      NM000R$  000000000011600000000001160000000000113000000000011400000000001130000000000000000000000000000002000000000000000300000000000000034200000000000210002016101700000010000000000000BRBBASACNOR3261
012016072682BBASV22     080BBASE       ON      NM000R$  000000000015800000000001580000000000156000000000015600000000001570000000000000000000000000000005000000000000000500000000000000078300000000000220002016101700000010000000000000BRBBASACNOR3261
012016072682BBASV76     080BBASE       ON      NM000R$  000000000002700000000000270000000000027000000000002700000000000270000000000000000000000000000001000000000000008000000000000000216000000000000167502016101700000010000000000000BRBBASACNOR3261
012016072602BBDC3       010BRADESCO    ON      N1   R$  000000000294100000000029700000000002934000000000295100000000029400000000002937000000000294003635000000000000853800000000002519919000000000000000009999123100000010000000000000BRBBDCACNOR1651
012016072696BBDC3F      020BRADESCO    ON      N1   R$  000000000294000000000029960000000002938000000000295100000000029400000000002929000000000295200029000000000000001023000000000003019262000000000000009999123100000010000000000000BRBBDCACNOR1651
012016072602BBDC4       010BRADESCO    PN      N1   R$  000000000289000000000029080000000002861000000000287900000000028680000000002868000000000287015505000000000006182500000000017799457100000000000000009999123100000010000000000000BRBBDCACNPR8651
012016072696BBDC4F      020BRADESCO    PN      N1   R$  000000000289000000000029080000000002860000000000288000000000028600000000002860000000000287400169000000000000004129000000000011892242000000000000009999123100000010000000000000BRBBDCACNPR8651
012016072662BBDC4T      030BRADESCO    PN      N1090R$  000000000296100000000029620000000002961000000000296100000000029620000000000000000000000000000002000000000000000500000000000001480920000000000000009999123100000010000000000000BRBBDCACNPR8651
012016072678BBDCC33     070BBDCE       PN      N1000R$  000000000095700000000009570000000000957000000000095700000000009570000000000000000000000000000001000000000000004000000000000003828000000000000213202017032000000010000000000000BRBBDCACNPR8644
012016072678BBDCC36     070BBDC        PN      N1000R$  000000000129200000000012920000000001292000000000129200000000012920000000000000000000000000000001000000000000002000000000000002584000000000000174502017032000000010000000000000BRBBDCACNPR8644
012016072678BBDCG85     070BBDCE       PN      N1000R$  000000000016800000000001680000000000135000000000013500000000001350000000000000000000000000000004000000000000050200000000000006822400000000000359402017071700000010000000000000BRBBDCACNPR8651
012016072678BBDCH10     070BBDC        PN      N1000R$  000000000024000000000002400000000000240000000000024000000000002400000000000190000000000000000001000000000000001000000000000000240000000000000269202016081500000010000000000000BRBBDCACNPR8631
012016072678BBDCH11     070BBDC        PN      N1000R$  000000000019800000000001980000000000174000000000019200000000001740000000000013000000000000000004000000000000001600000000000000308000000000000273702016081500000010000000000000BRBBDCACNPR8631
012016072678BBDCH17     070BBDC        PN      N1000R$  000000000030000000000003000000000000293000000000029600000000002930000000000285000000000000000008000000000000001100000000000000325700000000000260102016081500000010000000000000BRBBDCACNPR8620
012016072678BBDCH30     070BBDCE       PN      N1000R$  000000000020800000000002080000000000192000000000020600000000001920000000000192000000000019700002000000000000003300000000000000681600000000000271402016081500000010000000000000BRBBDCACNPR8646
012016072678BBDCH31     070BBDC  FM    PN      N1000R$  000000000001100000000000120000000000011000000000001100000000000110000000000008000000000001300010000000000000021500000000000000243000000000000315802016081500000010000000000000BRBBDCACNPR8648
012016072678BBDCH33     070BBDC  FM    PN      N1000R$  000000000014800000000001650000000000135000000000015700000000001350000000000050000000000015900008000000000000006800000000000001069700000000000278702016081500000010000000000000BRBBDCACNPR8649
012016072678BBDCH53     070BBDC        PN      N1000R$  000000000077500000000007750000000000775000000000077500000000007750000000000000000000000000000002000000000000000700000000000000542500000000000213102016081500000010000000000000BRBBDCACNPR8644
012016072678BBDCH6      070BBDCE       PN      N1000R$  000000000031500000000003150000000000315000000000031500000000003150000000000000000000000000000001000000000000001000000000000000315000000000000258202016081500000010000000000000BRBBDCACNPR8620
012016072678BBDCH73     070BBDCE       PN      N1000R$  000000000003000000000000360000000000025000000000002900000000000250000000000021000000000002500027000000000000041400000000000001239700000000000303302016081500000010000000000000BRBBDCACNPR8646
012016072678BBDCH79     070BBDCE       PN      N1000R$  000000000025000000000002500000000000230000000000023300000000002300000000000225000000000023700007000000000000000430000000000000100350000000000266902016081500000010000000000000BRBBDCACNPR8645
012016072678BBDCH83     070BBDCE       PN      N1000R$  000000000066500000000006650000000000665000000000066500000000006650000000000000000000000000000001000000000000000300000000000000199500000000000225602016081500000010000000000000BRBBDCACNPR8649
012016072678BBDCH88     070BBDCE       PN      N1000R$  000000000009600000000001070000000000088000000000009600000000000880000000000079000000000015000033000000000000080500000000000007802600000000000286202016081500000010000000000000BRBBDCACNPR8648
012016072678BBDCH89     070BBDC  FM    PN      N1000R$  000000000009100000000000970000000000071000000000008100000000000710000000000068000000000009900029000000000000041400000000000003386800000000000288702016081500000010000000000000BRBBDCACNPR8651
012016072678BBDCH90     070BBDC  FM    PN      N1000R$  000000000005000000000000520000000000035000000000003900000000000370000000000030000000000007500038000000000000103600000000000004085100000000000298702016081500000010000000000000BRBBDCACNPR8651
012016072678BBDCH91     070BBDCE       PN      N1000R$  000000000001400000000000160000000000012000000000001400000000000120000000000004000000000001800006000000000000009500000000000000133000000000000313302016081500000010000000000000BRBBDCACNPR8647
012016072678BBDCH97     070BBDC        PN      N1000R$  000000000006700000000000670000000000052000000000005900000000000520000000000002000000000008300008000000000000015100000000000000900100000000000293702016081500000010000000000000BRBBDCACNPR8651
012016072678BBDCI1      070BBDC  FM    PN      N1000R$  000000000023000000000002300000000000230000000000023000000000002300000000000000000000000023200001000000000000000100000000000000023000000000000277402016091900000010000000000000BRBBDCACNPR8637
012016072678BBDCI21     070BBDC        PN      N1000R$  000000000074500000000007450000000000745000000000074500000000007450000000000000000000000000000002000000000000000700000000000000521500000000000218302016091900000010000000000000BRBBDCACNPR8636
012016072678BBDCI32     070BBDC        PN      N1000R$  000000000014500000000001450000000000145000000000014500000000001450000000000130000000000000000001000000000000002700000000000000391500000000000291102016091900000010000000000000BRBBDCACNPR8646
012016072678BBDCI36     070BBDC        PN      N1000R$  000000000018800000000001880000000000188000000000018800000000001880000000000000000000000000000001000000000000000400000000000000075200000000000282002016091900000010000000000000BRBBDCACNPR8637
012016072678BBDCI46     070BBDC  FM    PN      N1000R$  000000000009300000000000950000000000093000000000009400000000000950000000000000000000000010800002000000000000000200000000000000018800000000000301102016091900000010000000000000BRBBDCACNPR8651
012016072678BBDCI52     070BBDC  FM    PN      N1000R$  000000000006100000000000630000000000058000000000006100000000000580000000000000000000000000000005000000000000002100000000000000128100000000000311102016091900000010000000000000BRBBDCACNPR8651
012016072678BBDCI67     070BBDCE       PN      N1000R$  000000000002700000000000300000000000027000000000002800000000000300000000000030000000000000000002000000000000000200000000000000005700000000000329702016091900000010000000000000BRBBDCACNPR8632
012016072678BBDCI80     070BBDCE       PN      N1000R$  000000000003700000000000370000000000037000000000003700000000000370000000000000000000000005000001000000000000001030000000000000038110000000000320602016091900000010000000000000BRBBDCACNPR8632
012016072678BBDCI85     070BBDCE       PN      N1000R$  000000000064000000000006400000000000640000000000064000000000006400000000000000000000000000000001000000000000000300000000000000192000000000000229702016091900000010000000000000BRBBDCACNPR8644
012016072678BBDCJ28     070BBDC        PN      N1000R$  000000000045100000000004510000000000451000000000045100000000004510000000000280000000000000000001000000000000015000000000000006765000000000000252602016101700000010000000000000BRBBDCACNPR8645
012016072678BBDCJ70     070BBDCE       PN      N1000R$  000000000030000000000003000000000000300000000000030000000000003000000000000002000000000000000001000000000000015000000000000004500000000000000273102016101700000010000000000000BRBBDCACNPR8645
012016072678BBDCJ78     070BBDC        PN      N1000R$  000000000039500000000003950000000000391000000000039200000000003910000000000000000000000000000002000000000000014400000000000005645200000000000257202016101700000010000000000000BRBBDCACNPR8638
012016072678BBDCK8      070BBDCE       PN      N1000R$  000000000019600000000001960000000000196000000000019600000000001960000000000000000000000000000002000000000000010800000000000002116800000000000377502017112100000010000000000000BRBBDCACNPR8651
012016072682BBDCS58     080BBDCE       PN      N1000R$  000000000018100000000002160000000000181000000000021500000000002160000000000000000000000000000002000000000000050100000000000010818100000000000288802017071700000010000000000000BRBBDCACNPR8651
012016072682BBDCS87     080BBDCE       PN      N1000R$  000000000008300000000000830000000000083000000000008300000000000830000000000000000000000000000001000000000000050000000000000004150000000000000245302017071700000010000000000000BRBBDCACNPR8645
012016072682BBDCT17     080BBDCE       PN      N1000R$  000000000000800000000000100000000000008000000000000900000000000090000000000009000000000001000017000000000000093197000000000000888170000000000260102016081500000010000000000000BRBBDCACNPR8620
012016072682BBDCT30     080BBDCE       PN      N1000R$  000000000001800000000000220000000000018000000000002000000000000220000000000000000000000004900006000000000000013000000000000000272000000000000271402016081500000010000000000000BRBBDCACNPR8646
012016072682BBDCT33     080BBDCE FM    PN      N1000R$  000000000003700000000000380000000000032000000000003500000000000380000000000036000000000003800018000000000000022500000000000000807700000000000278702016081500000010000000000000BRBBDCACNPR8649
012016072682BBDCT88     080BBDCE       PN      N1000R$  000000000005800000000000630000000000058000000000006000000000000630000000000000000000000008000002000000000000002000000000000000121000000000000286202016081500000010000000000000BRBBDCACNPR8648
012016072682BBDCT90     080BBDCE FM    PN      N1000R$  000000000014100000000001410000000000141000000000014100000000001410000000000000000000000000000002000000000000005000000000000000705000000000000298702016081500000010000000000000BRBBDCACNPR8651
012016072682BBDCU77     080BBDCE FM    PN      N1000R$  000000000005100000000000510000000000051000000000005100000000000510000000000000000000000000000001000000000000001000000000000000051000000000000272002016091900000010000000000000BRBBDCACNPR8649
012016072682BBDCW6      080BBDCE       PN      N1000R$  000000000005800000000000580000000000050000000000005500000000000500000000000000000000000000000002000000000000010800000000000000604000000000000227502017112100000010000000000000BRBBDCACNPR8651
012016072682BBDCW7      080BBDCE       PN      N1000R$  000000000024700000000002500000000000247000000000024900000000002500000000000000000000000000000002000000000000010800000000000002698500000000000287502017112100000010000000000000BRBBDCACNPR8651
012016072682BBDCX9      080BBDCE       PN      N1000R$  000000000019600000000001960000000000196000000000019600000000001960000000000000000000000000000001000000000000000100000000000000019600000000000290902017121800000010000000000000BRBBDCACNPR8651
012016072612BBFI11B     010FII BB PROGRCI      MB   R$  000000023880000000002400000000000238800000000023895700000002400000000000239000000000024000000007000000000000000014000000000003345400000000000000009999123100000010000000000000BRBBFICTF006232
012016072612BBPO11      010FII BB PRGIICI           R$  000000001170100000000117890000000011682000000001170400000000117100000000011710000000001178000367000000000000070531000000000825523267000000000000009999123100000010000000000000BRBBPOCTF003144
012016072612BBRC11      010FII BB CORP CI           R$  000000001059800000000106000000000010501000000001059400000000106000000000010582000000001069000019000000000000001379000000000014610366000000000000009999123100000010000000000000BRBBRCCTF004158
012016072602BBRK3       010BR BROKERS  ON      NM   R$  000000000020200000000002280000000000202000000000021400000000002150000000000212000000000021601470000000000000343000000000000073726700000000000000009999123100000010000000000000BRBBRKACNOR4110
012016072696BBRK3F      020BR BROKERS  ON      NM   R$  000000000021000000000002100000000000210000000000021000000000002100000000000202000000000021500001000000000000000040000000000000008400000000000000009999123100000010000000000000BRBBRKACNOR4110
012016072614BBSD11      010BB ETF SP DVCI           R$  000000000417200000000041720000000004168000000000416800000000041680000000000000000000000000000002000000000000000270000000000001125440000000000000009999123100000010000000000000BRBBSDCTF000100
012016072602BBSE3       010BBSEGURIDADEON      NM   R$  000000000293600000000029770000000002922000000000295000000000029420000000002932000000000294208850000000000002611700000000007705058900000000000000009999123100000010000000000000BRBBSEACNOR5106
012016072696BBSE3F      020BBSEGURIDADEON      NM   R$  000000000294700000000029720000000002930000000000295300000000029640000000002921000000000296400117000000000000003434000000000010140488000000000000009999123100000010000000000000BRBBSEACNOR5106
012016072662BBSE3T      030BBSEGURIDADEON      NM120R$  000000000306500000000030660000000003065000000000306500000000030660000000000000000000000000000002000000000000000400000000000001226086000000000000009999123100000010000000000000BRBBSEACNOR5106
012016072678BBSEH25     070BBSE        ON      NM000R$  000000000043200000000004320000000000432000000000043200000000004320000000000000000000000000000001000000000000000100000000000000043200000000000252902016081500000010000000000000BRBBSEACNOR5106
012016072678BBSEH30     070BBSE        ON      NM000R$  000000000004500000000000540000000000042000000000004900000000000420000000000003000000000005200014000000000000055000000000000002704000000000000302902016081500000010000000000000BRBBSEACNOR5106
012016072678BBSEH32     070BBSE        ON      NM000R$  000000000001300000000000130000000000013000000000001300000000000130000000000000000000000000000001000000000000004000000000000000052000000000000322902016081500000010000000000000BRBBSEACNOR5106
012016072678BBSEH58     070BBSE  FM    ON      NM000R$  000000000012500000000001250000000000125000000000012500000000001250000000000000000000000013500001000000000000000100000000000000012500000000000287902016081500000010000000000000BRBBSEACNOR5106
012016072678BBSEH59     070BBSE  FM    ON      NM000R$  000000000006600000000000660000000000066000000000006600000000000660000000000000000000000000000001000000000000000100000000000000006600000000000297902016081500000010000000000000BRBBSEACNOR5106
012016072678BBSEI80     070BBSE  FM    ON      NM000R$  000000000008500000000000850000000000085000000000008500000000000850000000000005000000000000000001000000000000000100000000000000008500000000000307902016091900000010000000000000BRBBSEACNOR5106
012016072678BBSEJ77     070BBSEE       ON      NM000R$  000000000029700000000002970000000000297000000000029700000000002970000000000000000000000000000001000000000000004400000000000001306800000000000277502016101700000010000000000000BRBBSEACNOR5106
012016072682BBSET26     080BBSEE       ON      NM000R$  000000000000600000000000060000000000006000000000000600000000000060000000000000000000000000000001000000000000003000000000000000018000000000000262902016081500000010000000000000BRBBSEACNOR5106
012016072682BBSET27     080BBSEE       ON      NM000R$  000000000001300000000000130000000000013000000000001300000000000130000000000000000000000000000001000000000000002000000000000000026000000000000272902016081500000010000000000000BRBBSEACNOR5106
012016072682BBSEU29     080BBSEE       ON      NM000R$  000000000008900000000000890000000000089000000000008900000000000890000000000000000000000000000001000000000000000200000000000000017800000000000292902016091900000010000000000000BRBBSEACNOR5106
012016072682BBSEV58     080BBSEE       ON      NM000R$  000000000007400000000000740000000000074000000000007400000000000740000000000000000000000000000001000000000000002000000000000000148000000000000285002016101700000010000000000000BRBBSEACNOR5106
012016072602BBTG11      010BTG PACTUAL UNT          R$  000000000171300000000017390000000001710000000000172800000000017300000000001730000000000173800693000000000000131700000000000227668100000000000000009999123100000010000000000000BRBBTGUNT007114
012016072696BBTG11F     020BTG PACTUAL UNT          R$  000000000173800000000017380000000001623000000000162800000000016230000000001623000000000178900006000000000000000059000000000000096093000000000000009999123100000010000000000000BRBBTGUNT007114
012016072612BBVJ11      010FII C JARDIMCI           R$  000000000540000000000054500000000005300000000000532800000000054480000000005402000000000544800042000000000000003579000000000019072048000000000000009999123100000010000000000000BRBBVJCTF001167
012016072612BCFF11B     010FII BC FFII CI      MB   R$  000000000701900000000071000000000007000000000000701500000000070770000000007020000000000707700044000000000000009064000000000063585518000000000000009999123100000010000000000000BRBCFFCTF000176
012016072612BCIA11      010FII BCIA    CI           R$  000000001020000000000102000000000010200000000001020000000000102000000000010000000000001020000001000000000000000002000000000000020400000000000000009999123100000010000000000000BRBCIACTF005113
012016072612BCRI11      010FII BEES CRICI           R$  000000001028000000000102890000000010280000000001028600000000102890000000010280000000001028900012000000000000001185000000000012188919000000000000009999123100000010000000000000BRBCRICTF009112
012016072602BDLL4       010BARDELLA    PN           R$  000000000300000000000030000000000002904000000000297800000000029040000000002903000000000320000009000000000000000900000000000002680800000000000000009999123100000010000000000000BRBDLLACNPR8151
012016072696BDLL4F      020BARDELLA    PN           R$  000000000300000000000030000000000003000000000000300000000000030000000000003000000000000000000001000000000000000020000000000000060000000000000000009999123100000010000000000000BRBDLLACNPR8151
012016072602BEEF3       010MINERVA     ON      NM   R$  000000000093600000000009580000000000928000000000094300000000009560000000000945000000000095604304000000000001783800000000001683571900000000000000009999123100000010000000000000BRBEEFACNOR6106
012016072696BEEF3F      020MINERVA     ON      NM   R$  000000000094000000000009550000000000931000000000094200000000009540000000000941000000000096000025000000000000000580000000000000546627000000000000009999123100000010000000000000BRBEEFACNOR6106
012016072602BEES3       010BANESTES    ON  EJ       R$  000000000024200000000002430000000000240000000000024100000000002400000000000238000000000024000010000000000000010700000000000002582800000000000000009999123100000010000000000000BRBEESACNOR9284
012016072602BEES4       010BANESTES    PN  EJ       R$  000000000025900000000002600000000000250000000000025500000000002500000000000250000000000031000005000000000000001800000000000000460700000000000000009999123100000010000000000000BRBEESACNPR6209
012016072602BGIP4       010BANESE      PN           R$  000000000130000000000013100000000001298000000000130000000000013000000000001269000000000135500008000000000000001300000000000001691100000000000000009999123100000010000000000000BRBGIPACNPR8186
012016072602BMEB4       010MERC BRASIL PN           R$  000000000051700000000005500000000000517000000000054100000000005300000000000517000000000053000015000000000000012100000000000006550100000000000000009999123100000010000000000000BRBMEBACNPR5195
012016072696BMIN3F      020MERC INVEST ON           R$  000000000009800000000000980000000000098000000000009800000000000980000000000000000000000009800001000000000000000200000000000000019600000000000000009999123100000010000000000000BRBMINACNOR4164
012016072602BMIN4       010MERC INVEST PN           R$  000000000003000000000000300000000000029000000000002900000000000300000000000029000000000003000005000000000000008000000000000000239000000000000000009999123100000010000000000000BRBMINACNPR1165
012016072602BMKS3       010BIC MONARK  ON           R$  000000002866500000000286650000000028500000000002863600000000285000000000026650000000002866500008000000000000000008000000000000229090000000000000009999123100000010000000000000BRBMKSACNOR9158
012016072612BMLC11B     010FII BMBRC LCCI      MB   R$  000000000875000000000087500000000008600000000000861500000000086000000000008600000000000870000018000000000000000614000000000005290151000000000000009999123100000010000000000000BRBMLCCTF004153
012016072602BMTO3       010BRASMOTOR   ON           R$  000000000070000000000007000000000000700000000000070000000000007000000000000700000000000072000001000000000000000100000000000000070000000000000000009999123100000010000000000000BRBMTOACNOR9186
012016072602BMTO4       010BRASMOTOR   PN           R$  000000000071100000000007160000000000711000000000071200000000007130000000000712000000000072000012000000000000008300000000000005909600000000000000009999123100000010000000000000BRBMTOACNPR6071
012016072696BMTO4F      020BRASMOTOR   PN           R$  000000000070700000000007130000000000707000000000070900000000007130000000000707000000000071100003000000000000000134000000000000095122000000000000009999123100000010000000000000BRBMTOACNPR6071
012016072696BNBR3F      020NORD BRASIL ON           R$  000000000230500000000023050000000002305000000000230500000000023050000000002184000000000230500001000000000000000002000000000000004610000000000000009999123100000010000000000000BRBNBRACNOR8192
012016072602BOAC34      010BANK AMERICADRN          R$  000000000470400000000047040000000004704000000000470400000000047040000000004694000000000479100001000000000000000200000000000000940800000000000000009999123100000010000000000000BRBOACBDR004123
012016072602BOBR4       010BOMBRIL     PN           R$  000000000015600000000001600000000000156000000000015800000000001600000000000156000000000016000002000000000000001200000000000000189600000000000000009999123100000010000000000000BRBOBRACNPR3128
012016072614BOVA11      010ISHARES BOVACI           R$  000000000549500000000055560000000005495000000000552500000000055050000000005505000000000551704004000000000001452200000000008024251500000000000000009999123100000010000000000000BRBOVACTF003102
012016072696BOVA11F     020ISHARES BOVACI           R$  000000000552300000000055530000000005510000000000553200000000055190000000005507000000000554400011000000000000000032000000000000177043000000000000009999123100000010000000000000BRBOVACTF003102
012016072678BOVAH53     070BOVA        CI        000R$  000000000027000000000002850000000000270000000000027700000000002740000000000271000000000000000010000000000000003100000000000000861600000000000530002016081500000010000000000000BRBOVACTF003102
012016072678BOVAH54     070BOVA  FM    CI        000R$  000000000021400000000002140000000000214000000000021400000000002140000000000000000000000025000001000000000000002500000000000000535000000000000540002016081500000010000000000000BRBOVACTF003102
012016072678BOVAH55     070BOVA  FM    CI        000R$  000000000015200000000001520000000000128000000000013900000000001280000000000000000000000000000003000000000000003350000000000000467200000000000550002016081500000010000000000000BRBOVACTF003102
012016072678BOVAH56     070BOVA  FM    CI        000R$  000000000008800000000000880000000000083000000000008500000000000850000000000000000000000008800004000000000000009000000000000000767500000000000560002016081500000010000000000000BRBOVACTF003102
012016072678BOVAH57     070BOVA  FM    CI        000R$  000000000003600000000000450000000000036000000000004000000000000450000000000000000000000005000002000000000000005000000000000000202500000000000570002016081500000010000000000000BRBOVACTF003102
012016072678BOVAH58     070BOVA  FM    CI        000R$  000000000001800000000000230000000000018000000000002000000000000230000000000000000000000002400002000000000000005000000000000000102500000000000580002016081500000010000000000000BRBOVACTF003102
012016072678BOVAI55     070BOVA  FM    CI        000R$  000000000025500000000002550000000000255000000000025500000000002550000000000000000000000000000001000000000000000500000000000000127500000000000550002016091900000010000000000000BRBOVACTF003102
012016072678BOVAI56     070BOVA  FM    CI        000R$  000000000017400000000001980000000000174000000000018000000000001780000000000000000000000000000012000000000000003430000000000000618040000000000560002016091900000010000000000000BRBOVACTF003102
012016072678BOVAI57     070BOVA  FM    CI        000R$  000000000013600000000001360000000000136000000000013600000000001360000000000000000000000013500001000000000000002500000000000000340000000000000570002016091900000010000000000000BRBOVACTF003102
012016072678BOVAI58     070BOVA  FM    CI        000R$  000000000009000000000001030000000000090000000000009600000000000900000000000000000000000009400006000000000000005400000000000000519600000000000580002016091900000010000000000000BRBOVACTF003102
012016072682BOVAT52     080BOVAE       CI        000R$  000000000001200000000000120000000000012000000000001200000000000120000000000000000000000000000001000000000000000270000000000000003240000000000520002016081500000010000000000000BRBOVACTF003102
012016072682BOVAT53     080BOVAE FM    CI        000R$  000000000002100000000000220000000000021000000000002100000000000210000000000000000000000000000003000000000000005100000000000000109600000000000530002016081500000010000000000000BRBOVACTF003102
012016072682BOVAT54     080BOVAE FM    CI        000R$  000000000003700000000000370000000000037000000000003700000000000370000000000000000000000009900001000000000000002500000000000000092500000000000540002016081500000010000000000000BRBOVACTF003102
012016072682BOVAT55     080BOVAE FM    CI        000R$  000000000007100000000000790000000000057000000000006900000000000720000000000000000000000007200015000000000000009000000000000000629300000000000550002016081500000010000000000000BRBOVACTF003102
012016072682BOVAT56     080BOVAE FM    CI        000R$  000000000011000000000001150000000000106000000000011000000000001150000000000000000000000012600005000000000000015000000000000001655000000000000560002016081500000010000000000000BRBOVACTF003102
012016072682BOVAU53     080BOVAE FM    CI        000R$  000000000007000000000000700000000000070000000000007000000000000700000000000000000000000000000001000000000000002500000000000000175000000000000530002016091900000010000000000000BRBOVACTF003102
012016072682BOVAU54     080BOVAE FM    CI        000R$  000000000008500000000000900000000000085000000000008500000000000900000000000000000000000009300003000000000000600100000000000051309000000000000540002016091900000010000000000000BRBOVACTF003102
012016072682BOVAU55     080BOVAE FM    CI        000R$  000000000013000000000001300000000000117000000000011700000000001170000000000000000000000000000002000000000000001080000000000000127400000000000550002016091900000010000000000000BRBOVACTF003102
012016072602BPAN4       010BANCO PAN   PN      N1   R$  000000000015300000000001530000000000148000000000015000000000001530000000000151000000000015400021000000000000031100000000000004694500000000000000009999123100000010000000000000BRBPANACNPR1104
012016072612BPFF11      010FII ABSOLUTOCI           R$  000000000830000000000083890000000008161000000000823700000000082300000000008231000000000830000028000000000000000806000000000006639144000000000000009999123100000010000000000000BRBPFFCTF002139
012016072602BPHA3       010BR PHARMA   ON      NM   R$  000000000058400000000005840000000000562000000000057000000000005650000000000565000000000057500077000000000000042900000000000024493200000000000000009999123100000010000000000000BRBPHAACNOR6104
012016072696BPHA3F      020BR PHARMA   ON      NM   R$  000000000057000000000005700000000000563000000000056700000000005630000000000563000000000057000003000000000000000088000000000000049922000000000000009999123100000010000000000000BRBPHAACNOR6104
012016072602BRAP3       010BRADESPAR   ON      N1   R$  000000000087600000000009140000000000876000000000088800000000009090000000000883000000000091000091000000000000062300000000000055326100000000000000009999123100000010000000000000BRBRAPACNOR5129
012016072696BRAP3F      020BRADESPAR   ON      N1   R$  000000000085400000000009000000000000854000000000089100000000008830000000000885000000000090000013000000000000000324000000000000288836000000000000009999123100000010000000000000BRBRAPACNOR5129
012016072602BRAP4       010BRADESPAR   PN      N1   R$  000000000103500000000010850000000001030000000000105900000000010740000000001074000000000107506715000000000002680800000000002840386500000000000000009999123100000010000000000000BRBRAPACNPR2129
012016072696BRAP4F      020BRADESPAR   PN      N1   R$  000000000104000000000010830000000001033000000000105700000000010820000000001047000000000108200065000000000000001597000000000001688645000000000000009999123100000010000000000000BRBRAPACNPR2129
012016072678BRAPH11     070BRAP        PN      N1000R$  000000000002300000000000230000000000023000000000002300000000000230000000000000000000000000000002000000000000006900000000000000158700000000000110502016081500000010000000000000BRBRAPACNPR2129
012016072612BRCR11      010FII BC FUND CI           R$  000000000966400000000096740000000009625000000000965100000000096600000000009660000000000967001196000000000000060077000000000579852445000000000000009999123100000010000000000000BRBRCRCTF000167
012016072602BRFS3       010BRF SA      ON      NM   R$  000000000515700000000051800000000005112000000000514600000000051230000000005123000000000513606765000000000001203000000000006189621800000000000000009999123100000010000000000000BRBRFSACNOR8117
012016072696BRFS3F      020BRF SA      ON      NM   R$  000000000517900000000051800000000005100000000000514700000000051000000000005075000000000510000094000000000000002350000000000012094846000000000000009999123100000010000000000000BRBRFSACNOR8117
012016072662BRFS3T      030BRF SA      ON      NM045R$  000000000520400000000052150000000005204000000000520700000000052150000000000000000000000000000006000000000000001000000000000005207870000000000000009999123100000010000000000000BRBRFSACNOR8117
012016072662BRFS3T      030BRF SA      ON      NM181R$  000000000551900000000055200000000005519000000000551900000000055200000000000000000000000000000002000000000000000300000000000001655706000000000000009999123100000010000000000000BRBRFSACNOR8117
012016072678BRFSH18     070BRFS        ON      NM000R$  000000000040000000000004050000000000390000000000040100000000003900000000000390000000000000000008000000000000004900000000000001968000000000000479702016081500000010000000000000BRBRFSACNOR8116
012016072678BRFSH22     070BRFSE       ON      NM000R$  000000000012900000000001350000000000124000000000012700000000001290000000000000000000000000000005000000000000006300000000000000803800000000000522202016081500000010000000000000BRBRFSACNOR8116
012016072678BRFSH34     070BRFSE       ON      NM000R$  000000000029000000000002900000000000290000000000029000000000002900000000000000000000000000000001000000000000218300000000000063307000000000000649502017082100000010000000000000BRBRFSACNOR8117
012016072678BRFSH4      070BRFS  FM    ON      NM000R$  000000000007000000000000700000000000070000000000007000000000000700000000000000000000000015000001000000000000000100000000000000007000000000000537202016081500000010000000000000BRBRFSACNOR8116
012016072678BRFSH50     070BRFS  FM    ON      NM000R$  000000000027600000000002760000000000276000000000027600000000002760000000000041000000000000000001000000000000000100000000000000027600000000000497202016081500000010000000000000BRBRFSACNOR8116
012016072678BRFSH51     070BRFS  FM    ON      NM000R$  000000000021000000000002140000000000210000000000021000000000002140000000000000000000000021600007000000000000007200000000000001518800000000000507202016081500000010000000000000BRBRFSACNOR8116
012016072678BRFSH52     070BRFS  FM    ON      NM000R$  000000000015300000000001550000000000147000000000015200000000001500000000000000000000000015700007000000000000006500000000000000989800000000000517202016081500000010000000000000BRBRFSACNOR8115
012016072678BRFSH53     070BRFS  FM    ON      NM000R$  000000000009800000000001110000000000098000000000009900000000001110000000000000000000000011300002000000000000001300000000000000128700000000000527202016081500000010000000000000BRBRFSACNOR8116
012016072678BRFSH54     070BRFSE       ON      NM000R$  000000000009100000000000960000000000091000000000009100000000000960000000000000000000000009500004000000000000004700000000000000428200000000000532202016081500000010000000000000BRBRFSACNOR8116
012016072678BRFSI50     070BRFS  FM    ON      NM000R$  000000000036000000000003600000000000360000000000036000000000003600000000000000000000000000000005000000000000005000000000000001800000000000000502902016091900000010000000000000BRBRFSACNOR8116
012016072678BRFSI51     070BRFS  FM    ON      NM000R$  000000000029900000000002990000000000299000000000029900000000002990000000000000000000000030100001000000000000001200000000000000358800000000000512902016091900000010000000000000BRBRFSACNOR8116
012016072678BRFSI54     070BRFS  FM    ON      NM000R$  000000000015400000000001540000000000154000000000015400000000001540000000000000000000000000000001000000000000000100000000000000015400000000000542902016091900000010000000000000BRBRFSACNOR8116
012016072682BRFST18     080BRFSE       ON      NM000R$  000000000004100000000000420000000000041000000000004100000000000420000000000000000000000014000002000000000000000500000000000000020700000000000479702016081500000010000000000000BRBRFSACNOR8116
012016072682BRFST21     080BRFSE       ON      NM000R$  000000000041000000000004500000000000410000000000044900000000004500000000000000000000000000000002000000000000218300000000000098231000000000000514502017082100000010000000000000BRBRFSACNOR8117
012016072682BRFST25     080BRFSE       ON      NM000R$  000000000016000000000001600000000000160000000000016000000000001600000000000000000000000000000001000000000000218300000000000034928000000000000459502017082100000010000000000000BRBRFSACNOR8117
012016072682BRFST46     080BRFSE       ON      NM000R$  000000000001700000000000230000000000017000000000001800000000000230000000000023000000000005600006000000000000008100000000000000152100000000000454702016081500000010000000000000BRBRFSACNOR8116
012016072682BRFST49     080BRFSE       ON      NM000R$  000000000005100000000000510000000000051000000000005100000000000510000000000000000000000000000001000000000000000100000000000000005100000000000484702016081500000010000000000000BRBRFSACNOR8116
012016072682BRFST50     080BRFSE FM    ON      NM000R$  000000000006700000000000870000000000067000000000007800000000000870000000000000000000000010000034000000000000052000000000000004069200000000000497202016081500000010000000000000BRBRFSACNOR8116
012016072682BRFSU15     080BRFSE       ON      NM000R$  000000000006500000000000650000000000065000000000006500000000000650000000000000000000000000000001000000000000002000000000000000130000000000000452902016091900000010000000000000BRBRFSACNOR8116
012016072682BRFSU49     080BRFSE FM    ON      NM000R$  000000000011100000000001110000000000111000000000011100000000001110000000000000000000000000000001000000000000000100000000000000011100000000000487902016091900000010000000000000BRBRFSACNOR8116
012016072602BRGE3       010ALFA CONSORCON           R$  000000000032800000000003280000000000328000000000032800000000003280000000000211000000000035000001000000000000000300000000000000098400000000000000009999123100000010000000000000BRBRGEACNOR6199
012016072602BRIN3       010BR INSURANCEON      NM   R$  000000000204300000000020430000000001996000000000201100000000020190000000001993000000000201900074000000000000017500000000000035204100000000000000009999123100000010000000000000BRBRINACNOR3111
012016072696BRIN3F      020BR INSURANCEON      NM   R$  000000000204000000000020400000000001990000000000200400000000019900000000001992000000000200600005000000000000000075000000000000150340000000000000009999123100000010000000000000BRBRINACNOR3111
012016072602BRIV3       010ALFA INVEST ON           R$  000000000053000000000005300000000000530000000000053000000000005300000000000486000000000052900001000000000000000100000000000000053000000000000000009999123100000010000000000000BRBRIVACNOR6202
012016072602BRIV4       010ALFA INVEST PN           R$  000000000066800000000006700000000000668000000000066900000000006690000000000669000000000067000013000000000000010400000000000006962400000000000000009999123100000010000000000000BRBRIVACNPR3202
012016072602BRKM3       010BRASKEM     ON      N1   R$  000000000143000000000014300000000001430000000000143000000000014300000000001425000000000143000009000000000000005800000000000008294000000000000000009999123100000010000000000000BRBRKMACNOR1113
012016072696BRKM3F      020BRASKEM     ON      N1   R$  000000000140100000000014010000000001401000000000140100000000014010000000001420000000000163100002000000000000000010000000000000014010000000000000009999123100000010000000000000BRBRKMACNOR1113
012016072602BRKM5       010BRASKEM     PNA     N1   R$  000000000193700000000019390000000001910000000000192600000000019160000000001916000000000192404028000000000000658300000000001267875900000000000000009999123100000010000000000000BRBRKMACNPA4113
012016072696BRKM5F      020BRASKEM     PNA     N1   R$  000000000192000000000019510000000001915000000000192900000000019240000000001901000000000192400015000000000000000401000000000000773620000000000000009999123100000010000000000000BRBRKMACNPA4113
012016072662BRKM5T      030BRASKEM     PNA     N1030R$  000000000193700000000019380000000001937000000000193700000000019380000000000000000000000000000002000000000000001000000000000001937268000000000000009999123100000010000000000000BRBRKMACNPA4113
012016072662BRKM5T      030BRASKEM     PNA     N1062R$  000000000197200000000019730000000001972000000000197200000000019730000000000000000000000000000002000000000000000900000000000001775040000000000000009999123100000010000000000000BRBRKMACNPA4113
012016072602BRML3       010BR MALLS PARON      NM   R$  000000000139000000000014080000000001365000000000138300000000013770000000001377000000000137806556000000000001741000000000002408757300000000000000009999123100000010000000000000BRBRMLACNOR9109
012016072696BRML3F      020BR MALLS PARON      NM   R$  000000000139100000000014030000000001358000000000138000000000013580000000001358000000000137200037000000000000001077000000000001486609000000000000009999123100000010000000000000BRBRMLACNOR9109
012016072678BRMLK18     070BRML        ON      NM000R$  000000000012800000000001280000000000128000000000012800000000001280000000000000000000000000000001000000000000015000000000000001920000000000000138502016112100000010000000000000BRBRMLACNOR9108
012016072678BRMLK66     070BRMLE       ON      NM000R$  000000000003600000000000360000000000036000000000003600000000000360000000000000000000000000000001000000000000020000000000000000720000000000000161002016112100000010000000000000BRBRMLACNOR9109
012016072602BRPR3       010BR PROPERT  ON      NM   R$  000000000090400000000009090000000000867000000000088900000000008850000000000882000000000088502730000000000000700400000000000622840800000000000000009999123100000010000000000000BRBRPRACNOR9116
012016072696BRPR3F      020BR PROPERT  ON      NM   R$  000000000089300000000008990000000000874000000000088500000000008810000000000737000000000089000010000000000000000334000000000000295893000000000000009999123100000010000000000000BRBRPRACNOR9116
012016072602BRSR3       010BANRISUL    ON      N1   R$  000000000141000000000015970000000001410000000000150300000000015970000000001200000000000160000003000000000000000400000000000000601400000000000000009999123100000010000000000000BRBRSRACNOR3144
012016072602BRSR6       010BANRISUL    PNB     N1   R$  000000000108100000000011010000000001063000000000108700000000010660000000001066000000000107004053000000000001456100000000001583866200000000000000009999123100000010000000000000BRBRSRACNPB4147
012016072696BRSR6F      020BANRISUL    PNB     N1   R$  000000000108000000000011000000000001043000000000108600000000010430000000001043000000000109800028000000000000000551000000000000598246000000000000009999123100000010000000000000BRBRSRACNPB4147
012016072602BSAN33      010BANSANTANDERDR3          R$  000000000128900000000012890000000001289000000000128900000000012890000000001152000000000128900002000000000000000200000000000000257800000000000000009999123100000010000000000000BRBSANBDR002106
012016072602BSEV3       010BIOSEV      ON      NM   R$  000000000121000000000012130000000001198000000000120800000000011980000000001190000000000121000016000000000000006300000000000007611200000000000000009999123100000010000000000000BRBSEVACNOR3101
012016072696BSEV3F      020BIOSEV      ON      NM   R$  000000000120000000000012000000000001200000000000120000000000012000000000001192000000000121000001000000000000000010000000000000012000000000000000009999123100000010000000000000BRBSEVACNOR3101
012016072662BSEV3T      030BIOSEV      ON      NM030R$  000000000122300000000012240000000001223000000000122300000000012240000000000000000000000000000002000000000000001000000000000001223310000000000000009999123100000010000000000000BRBSEVACNOR3101
012016072602BTOW3       010B2W DIGITAL ON      NM   R$  000000000129600000000013040000000001220000000000125000000000012500000000001244000000000125002148000000000001426100000000001783571400000000000000009999123100000010000000000000BRBTOWACNOR8108
012016072696BTOW3F      020B2W DIGITAL ON      NM   R$  000000000128300000000012980000000001232000000000125500000000012400000000001201000000000125800021000000000000000851000000000001068772000000000000009999123100000010000000000000BRBTOWACNOR8108
012016072602BTTL4       010BATTISTELLA PN           R$  000000000125000000000012500000000001210000000000123100000000012490000000001155000000000125000005000000000000000500000000000000615900000000000000009999123100000010000000000000BRBTTLACNPR7106
012016072602BVMF3       010BMFBOVESPA  ON      NM   R$  000000000191200000000019200000000001907000000000191400000000019080000000001908000000000190916062000000000017510600000000033523698400000000000000009999123100000010000000000000BRBVMFACNOR3137
012016072696BVMF3F      020BMFBOVESPA  ON      NM   R$  000000000192000000000019200000000001821000000000190700000000018720000000001872000000000191100099000000000000002537000000000004839092000000000000009999123100000010000000000000BRBVMFACNOR3137
012016072662BVMF3T      030BMFBOVESPA  ON      NM030R$  000000000193300000000019370000000001933000000000193600000000019370000000000000000000000000000010000000000000175300000000000339387647000000000000009999123100000010000000000000BRBVMFACNOR3137
012016072662BVMF3T      030BMFBOVESPA  ON      NM059R$  000000000195300000000019540000000001953000000000195300000000019540000000000000000000000000000002000000000000001500000000000002929949000000000000009999123100000010000000000000BRBVMFACNOR3137
012016072678BVMFH16     070BVMF        ON      NM000R$  000000000033200000000003320000000000332000000000033200000000003320000000000000000000000000000001000000000000000100000000000000033200000000000159202016081500000010000000000000BRBVMFACNOR3136
012016072678BVMFH17     070BVMF        ON      NM000R$  000000000023500000000002350000000000235000000000023500000000002350000000000001000000000000000001000000000000001500000000000000352500000000000169202016081500000010000000000000BRBVMFACNOR3136
012016072678BVMFH19     070BVMF  FM    ON      NM000R$  000000000007300000000000730000000000070000000000007100000000000700000000000060000000000007400017000000000000025100000000000001802200000000000189202016081500000010000000000000BRBVMFACNOR3136
012016072678BVMFH20     070BVMF  FM    ON      NM000R$  000000000002900000000000300000000000027000000000002800000000000290000000000028000000000003000073000000000000086500000000000002485800000000000199202016081500000010000000000000BRBVMFACNOR3136
012016072678BVMFH21     070BVMF  FM    ON      NM000R$  000000000001100000000000120000000000010000000000001100000000000110000000000011000000000001400046000000000000118800000000000001363600000000000209202016081500000010000000000000BRBVMFACNOR3136
012016072678BVMFH22     070BVMF  FM    ON      NM000R$  000000000000500000000000060000000000005000000000000500000000000050000000000005000000000001000007000000000000008000000000000000045000000000000219202016081500000010000000000000BRBVMFACNOR3136
012016072678BVMFH23     070BVMF        ON      NM000R$  000000000000200000000000020000000000002000000000000200000000000020000000000002000000000000600002000000000000002100000000000000004200000000000229202016081500000010000000000000BRBVMFACNOR3136
012016072678BVMFH24     070BVMF        ON      NM000R$  000000000000200000000000030000000000002000000000000200000000000020000000000002000000000000300005000000000000006400000000000000017800000000000239202016081500000010000000000000BRBVMFACNOR3136
012016072678BVMFH49     070BVMF  FM    ON      NM000R$  000000000004500000000000460000000000043000000000004500000000000460000000000039000000000004900011000000000000015500000000000000706200000000000194202016081500000010000000000000BRBVMFACNOR3136
012016072678BVMFH50     070BVMF        ON      NM000R$  000000000001600000000000170000000000016000000000001600000000000170000000000015000000000002000029000000000000022100000000000000356200000000000204202016081500000010000000000000BRBVMFACNOR3136
012016072678BVMFH51     070BVMF        ON      NM000R$  000000000000600000000000100000000000006000000000000900000000000100000000000008000000000002500006000000000000007200000000000000067200000000000214202016081500000010000000000000BRBVMFACNOR3136
012016072678BVMFH52     070BVMF        ON      NM000R$  000000000000300000000000040000000000003000000000000300000000000040000000000004000000000000800003000000000000001200000000000000004700000000000224202016081500000010000000000000BRBVMFACNOR3136
012016072678BVMFH53     070BVMF        ON      NM000R$  000000000000200000000000020000000000002000000000000200000000000020000000000002000000000001000001000000000000001000000000000000002000000000000234202016081500000010000000000000BRBVMFACNOR3136
012016072678BVMFI20     070BVMF        ON      NM000R$  000000000005400000000000540000000000051000000000005200000000000510000000000048000000000005000004000000000000002000000000000000105700000000000204202016091900000010000000000000BRBVMFACNOR3137
012016072678BVMFI22     070BVMF        ON      NM000R$  000000000001700000000000180000000000017000000000001700000000000180000000000000000000000000000003000000000000023000000000000000394000000000000224202016091900000010000000000000BRBVMFACNOR3137
012016072678BVMFK17     070BVMF        ON      NM000R$  000000000028200000000002820000000000282000000000028200000000002820000000000000000000000000000001000000000000013300000000000003750600000000000171902016112100000010000000000000BRBVMFACNOR3137
012016072682BVMFT19     080BVMFE FM    ON      NM000R$  000000000003500000000000370000000000034000000000003500000000000370000000000001000000000004000009000000000000015700000000000000558400000000000189202016081500000010000000000000BRBVMFACNOR3136
012016072682BVMFT20     080BVMFE FM    ON      NM000R$  000000000008700000000000910000000000087000000000009000000000000910000000000001000000000010200003000000000000005500000000000000498500000000000199202016081500000010000000000000BRBVMFACNOR3136
012016072682BVMFT48     080BVMFE FM    ON      NM000R$  000000000002000000000000200000000000020000000000002000000000000200000000000001000000000002700001000000000000000400000000000000008000000000000184202016081500000010000000000000BRBVMFACNOR3136
012016072682BVMFT49     080BVMFE FM    ON      NM000R$  000000000006000000000000600000000000060000000000006000000000000600000000000001000000000000000001000000000000004000000000000000240000000000000194202016081500000010000000000000BRBVMFACNOR3136
012016072682BVMFT79     080BVMFE       ON      NM000R$  000000000007600000000000760000000000076000000000007600000000000760000000000000000000000000000001000000000000001000000000000000076000000000000196702016081500000010000000000000BRBVMFACNOR3137
012016072682BVMFU18     080BVMFE FM    ON      NM000R$  000000000004400000000000440000000000043000000000004300000000000440000000000006000000000000000003000000000000009000000000000000395000000000000184202016091900000010000000000000BRBVMFACNOR3137
012016072682BVMFU19     080BVMFE FM    ON      NM000R$  000000000008100000000000810000000000081000000000008100000000000810000000000010000000000000000001000000000000000900000000000000072900000000000194202016091900000010000000000000BRBVMFACNOR3137
012016072682BVMFU46     080BVMFE       ON      NM000R$  000000000001800000000000180000000000018000000000001800000000000180000000000000000000000000000001000000000000004000000000000000072000000000000169202016091900000010000000000000BRBVMFACNOR3137
012016072682BVMFU48     080BVMFE FM    ON      NM000R$  000000000006100000000000610000000000060000000000006000000000000600000000000000000000000000000002000000000000004000000000000000243000000000000189202016091900000010000000000000BRBVMFACNOR3137
012016072602CAMB4       010CAMBUCI     PN           R$  000000000047500000000004900000000000475000000000047800000000004800000000000480000000000052000009000000000000002100000000000001005000000000000000009999123100000010000000000000BRCAMBACNPR1118
012016072696CAMB4F      020CAMBUCI     PN           R$  000000000052000000000005200000000000520000000000052000000000005200000000000500000000000051500001000000000000000001000000000000000520000000000000009999123100000010000000000000BRCAMBACNPR1118
012016072602CARD3       010CSU CARDSYSTON      NM   R$  000000000051000000000005170000000000472000000000050000000000004960000000000496000000000049800216000000000000126600000000000063357600000000000000009999123100000010000000000000BRCARDACNOR9108
012016072696CARD3F      020CSU CARDSYSTON      NM   R$  000000000051900000000005190000000000480000000000050000000000004910000000000491000000000049800010000000000000000263000000000000131651000000000000009999123100000010000000000000BRCARDACNOR9108
012016072612CARE11      010FII DEA CARECI           R$  000000000016300000000001650000000000163000000000016300000000001650000000000155000000000016500002000000000000100001000000000016300165000000000000009999123100000010000000000000BRCARECTF000100
012016072612CBOP11      010FII C BRANCOCI           R$  000000006400100000000649490000000062701000000006352500000000630010000000063001000000006449900015000000000000000124000000000007877123000000000000009999123100000010000000000000BRCBOPCTF001134
012016072602CCPR3       010CYRE COM-CCPON      NM   R$  000000000089000000000010000000000000890000000000094500000000010000000000000871000000000102000002000000000000000200000000000000189000000000000000009999123100000010000000000000BRCCPRACNOR9111
012016072696CCPR3F      020CYRE COM-CCPON      NM   R$  000000000088000000000008800000000000880000000000088000000000008800000000000880000000000095000001000000000000000021000000000000018480000000000000009999123100000010000000000000BRCCPRACNOR9111
012016072602CCRO3       010CCR SA      ON      NM   R$  000000000177200000000018060000000001771000000000179000000000017800000000001779000000000178212477000000000004937400000000008840359200000000000000009999123100000010000000000000BRCCROACNOR2129
012016072696CCRO3F      020CCR SA      ON      NM   R$  000000000180500000000018250000000001775000000000179200000000017800000000001780000000000178600064000000000000001557000000000002791056000000000000009999123100000010000000000000BRCCROACNOR2129
012016072662CCRO3T      030CCR SA      ON      NM058R$  000000000183100000000018320000000001831000000000183100000000018320000000000000000000000000000002000000000000002000000000000003662131000000000000009999123100000010000000000000BRCCROACNOR2129
012016072662CCRO3T      030CCR SA      ON      NM062R$  000000000182200000000018230000000001822000000000182200000000018230000000000000000000000000000002000000000000002200000000000004010532000000000000009999123100000010000000000000BRCCROACNOR2129
012016072678CCROH47     070CCRO  FM    ON      NM000R$  000000000008600000000000860000000000086000000000008600000000000860000000000000000000000000000001000000000000001000000000000000086000000000000175002016081500000010000000000000BRCCROACNOR2129
012016072678CCROH48     070CCRO  FM    ON      NM000R$  000000000002500000000000250000000000025000000000002500000000000250000000000000000000000000000002000000000000002000000000000000050000000000000185002016081500000010000000000000BRCCROACNOR2129
012016072602CCXC3       010CCX CARVAO  ON      NM   R$  000000000026100000000002610000000000259000000000025900000000002590000000000259000000000027400007000000000000002100000000000000545500000000000000009999123100000010000000000000BRCCXCACNOR5102
012016072602CEBR6       010CEB         PNB          R$  000000000220000000000022000000000002200000000000220000000000022000000000002200000000000224900002000000000000000200000000000000440000000000000000009999123100000010000000000000BRCEBRACNPB6114
012016072602CELP5       010CELPA       PNA          R$  000000000022500000000002360000000000225000000000023500000000002360000000000225000000000200000002000000000000004200000000000000989000000000000000009999123100000010000000000000BRCELPACNPA1116
012016072612CEOC11B     010FII CEO CCP CI      MB   R$  000000000619200000000061920000000006192000000000619200000000061920000000006152000000000619200001000000000000000005000000000000030960000000000000009999123100000010000000000000BRCEOCCTF003133
012016072602CEPE5       010CELPE       PNA          R$  000000000200000000000020500000000001999000000000200800000000019990000000001951000000000200000004000000000000000600000000000001204900000000000000009999123100000010000000000000BRCEPEACNPA6155
012016072602CESP3       010CESP        ON      N1   R$  000000000126500000000012800000000001265000000000126600000000012650000000000982000000000129500017000000000000004900000000000006207000000000000000009999123100000010000000000000BRCESPACNOR3164
012016072602CESP6       010CESP        PNB     N1   R$  000000000149900000000015230000000001467000000000149800000000014950000000001492000000000149503883000000000001082700000000001622518100000000000000009999123100000010000000000000BRCESPACNPB4123
012016072696CESP6F      020CESP        PNB     N1   R$  000000000150000000000015210000000001479000000000150200000000014950000000001490000000000149500024000000000000000672000000000001009643000000000000009999123100000010000000000000BRCESPACNPB4123
012016072602CGAS3       010COMGAS      ON           R$  000000000474900000000047500000000004622000000000471700000000047490000000004626000000000475000004000000000000000400000000000001887000000000000000009999123100000010000000000000BRCGASACNOR0139
012016072602CGAS5       010COMGAS      PNA          R$  000000000514600000000052310000000005146000000000519100000000052000000000005184000000000520000053000000000000007900000000000041008900000000000000009999123100000010000000000000BRCGASACNPA3136
012016072696CGAS5F      020COMGAS      PNA          R$  000000000517800000000052270000000005146000000000519200000000052270000000005191000000000522700020000000000000000416000000000002160196000000000000009999123100000010000000000000BRCGASACNPA3136
012016072602CGRA4       010GRAZZIOTIN  PN           R$  000000000136500000000013940000000001365000000000137000000000013940000000001377000000000139500007000000000000003800000000000005206500000000000000009999123100000010000000000000BRCGRAACNPR9066
012016072696CGRA4F      020GRAZZIOTIN  PN           R$  000000000136500000000014000000000001365000000000137300000000013940000000001377000000000139400003000000000000000135000000000000185465000000000000009999123100000010000000000000BRCGRAACNPR9066
012016072602CHVX34      010CHEVRON     DRN          R$  000000001674000000000167400000000016740000000001674000000000167400000000016625000000001687800001000000000000000100000000000001674000000000000000009999123100000010000000000000BRCHVXBDR008121
012016072602CIEL3       010CIELO       ON      NM   R$  000000000364400000000036580000000003593000000000362600000000036090000000003609000000000361010727000000000002703700000000009805782000000000000000009999123100000010000000000000BRCIELACNOR3120
012016072696CIEL3F      020CIELO       ON      NM   R$  000000000362800000000036500000000003599000000000362300000000036080000000003608000000000361600117000000000000002594000000000009398476000000000000009999123100000010000000000000BRCIELACNOR3120
012016072662CIEL3T      030CIELO       ON      NM059R$  000000000372200000000037230000000003722000000000372200000000037230000000000000000000000000000002000000000000001300000000000004839524000000000000009999123100000010000000000000BRCIELACNOR3120
012016072662CIEL3T      030CIELO       ON      NM120R$  000000000376900000000037700000000003769000000000376900000000037700000000000000000000000000000002000000000000000100000000000000376944000000000000009999123100000010000000000000BRCIELACNOR3120
012016072678CIELH34     070CIEL        ON      NM000R$  000000000026700000000002670000000000267000000000026700000000002670000000000022000000000000000001000000000000002400000000000000640800000000000341602016081500000010000000000000BRCIELACNOR3120
012016072678CIELH36     070CIEL        ON      NM000R$  000000000012000000000001200000000000120000000000012000000000001200000000000000000000000000000001000000000000000300000000000000036000000000000361602016081500000010000000000000BRCIELACNOR3120
