00COTAHIST.2016BOVESPA 20160718                                                                                                                                                                                                                      
012016071802AAPL34      010APPLE       DRN          R$  000000000324400000000032440000000003223000000000323600000000032230000000003215000000000326500074000000000000019700000000000063753500000000000000009999123100000010000000000000BRAAPLBDR004117
012016071896AAPL34F     020APPLE       DRN          R$  000000000325000000000032500000000003200000000000322100000000032230000000000000000000000000000004000000000000000114000000000000367289000000000000009999123100000010000000000000BRAAPLBDR004117
012016071810ABCB2       010ABC BRASIL  DIR PRE N2   R$  000000000047400000000004950000000000473000000000048100000000004790000000000479000000000048900026000000000000010200000000000004914800000000000000009999123100000010000000000000BRABCBD09PR2125
012016071896ABCB2F      020ABC BRASIL  DIR PRE N2   R$  000000000040100000000004850000000000379000000000045900000000004530000000000453000000000048100025000000000000000668000000000000307137000000000000009999123100000010000000000000BRABCBD09PR2125
012016071802ABCB4       010ABC BRASIL  PN      N2   R$  000000000142600000000014980000000001425000000000146600000000014800000000001473000000000148001080000000000000186800000000000273984100000000000000009999123100000010000000000000BRABCBACNPR4126
012016071896ABCB4F      020ABC BRASIL  PN      N2   R$  000000000147000000000015090000000001438000000000148600000000014900000000001473000000000153000016000000000000000298000000000000442888000000000000009999123100000010000000000000BRABCBACNPR4126
012016071812ABCP11      010FII ABC IMOBCI           R$  000000000115900000000011590000000001100000000000111600000000011100000000001075000000000115100024000000000000000138000000000000154011000000000000009999123100000010000000000000BRABCPCTF000249
012016071802ABEV3       010AMBEV S/A   ON  ED       R$  000000000189500000000019100000000001891000000000190100000000019060000000001900000000000190616796000000000011617600000000022089163200000000000000009999123100000010000000000000BRABEVACNOR1113
012016071896ABEV3F      020AMBEV S/A   ON  ED       R$  000000000189100000000019390000000001891000000000190200000000019030000000001903000000000192900199000000000000004806000000000009141896000000000000009999123100000010000000000000BRABEVACNOR1113
012016071862ABEV3T      030AMBEV S/A   ON  ED    060R$  000000000194100000000019420000000001941000000000194100000000019420000000000000000000000000000002000000000000001000000000000001941420000000000000009999123100000010000000000000BRABEVACNOR1113
012016071862ABEV3T      030AMBEV S/A   ON  ED    066R$  000000000194800000000019490000000001948000000000194800000000019490000000000000000000000000000002000000000000001000000000000001948184000000000000009999123100000010000000000000BRABEVACNOR1113
012016071862ABEV3T      030AMBEV S/A   ON  ED    121R$  000000000198100000000019820000000001981000000000198100000000019820000000000000000000000000000002000000000000000100000000000000198199000000000000009999123100000010000000000000BRABEVACNOR1113
012016071838ABEVG18E    012ABEV    /ED ON        000R$  000000000173200000000017320000000001732000000000173200000000017320000000000000000000000000000014000000000000380200000000000658506400000000000173202016071800000010000000000000BRABEVACNOR1113
012016071838ABEVG38E    012ABEV    /ED ON        000R$  000000000188200000000018820000000001882000000000188200000000018820000000000000000000000000000040000000000000624700000000001175685400000000000188202016071800000010000000000000BRABEVACNOR1113
012016071838ABEVG48E    012ABEV    /ED ON        000R$  000000000178200000000017820000000001782000000000178200000000017820000000000000000000000000000012000000000000114200000000000203504400000000000178202016071800000010000000000000BRABEVACNOR1113
012016071838ABEVG58E    012ABEVE   /ED ON        000R$  000000000180700000000018070000000001807000000000180700000000018070000000000000000000000000000003000000000000040100000000000072460700000000000180702016071800000010000000000000BRABEVACNOR1113
012016071838ABEVG66E    012ABEVE   /ED ON        000R$  000000000160700000000016070000000001607000000000160700000000016070000000000000000000000000000001000000000000000700000000000001124900000000000160702016071800000010000000000000BRABEVACNOR1113
012016071838ABEVG68E    012ABEV    /ED ON        000R$  000000000183200000000018320000000001832000000000183200000000018320000000000000000000000000000017000000000000051200000000000093798400000000000183202016071800000010000000000000BRABEVACNOR1113
012016071838ABEVG78E    012ABEVE   /ED ON        000R$  000000000185700000000018570000000001857000000000185700000000018570000000000000000000000000000032000000000000589300000000001094330100000000000185702016071800000010000000000000BRABEVACNOR1113
012016071838ABEVG92E    012ABEVE   /ED ON        000R$  000000000190700000000019070000000001907000000000190700000000019070000000000000000000000000000001000000000000003000000000000005721000000000000190702016071800000010000000000000BRABEVACNOR1113
012016071878ABEVH18     070ABEV  FM/ED ON        000R$  000000000005100000000000540000000000051000000000005100000000000510000000000050000000000005300005000000000000012500000000000000649000000000000188202016081500000010000000000000BRABEVACNOR1112
012016071878ABEVH19     070ABEV  FM/ED ON        000R$  000000000002400000000000270000000000023000000000002500000000000240000000000023000000000002700014000000000000037700000000000000945700000000000193202016081500000010000000000000BRABEVACNOR1112
012016071878ABEVH20     070ABEV    /ED ON        000R$  000000000000400000000000050000000000004000000000000400000000000050000000000004000000000001900002000000000000030000000000000000140000000000000203202016081500000010000000000000BRABEVACNOR1112
012016071878ABEVH21     070ABEV  FM/ED ON        000R$  000000000000200000000000040000000000002000000000000300000000000040000000000003000000000000400029000000000000691700000000000002445100000000000208202016081500000010000000000000BRABEVACNOR1112
012016071878ABEVH63     070ABEV    /ED ON        000R$  000000000028400000000002840000000000283000000000028300000000002830000000000000000000000000000004000000000000000400000000000000113300000000000163202016081500000010000000000000BRABEVACNOR1109
012016071878ABEVH64     070ABEVE   /ED ON        000R$  000000000003600000000000410000000000032000000000003700000000000340000000000034000000000003800047000000000000295000000000000011007600000000000190702016081500000010000000000000BRABEVACNOR1109
012016071878ABEVH69     070ABEV  FM/ED ON        000R$  000000000008900000000000960000000000089000000000009200000000000960000000000000000000000000000002000000000000000200000000000000018500000000000183202016081500000010000000000000BRABEVACNOR1107
012016071878ABEVH78     070ABEVE   /ED ON        000R$  000000000007300000000000730000000000073000000000007300000000000730000000000000000000000000000001000000000000000600000000000000043800000000000185702016081500000010000000000000BRABEVACNOR1112
012016071878ABEVH79     070ABEVE   /ED ON        000R$  000000000001500000000000150000000000015000000000001500000000000150000000000010000000000002100002000000000000001300000000000000019500000000000195702016081500000010000000000000BRABEVACNOR1111
012016071878ABEVI19     070ABEV  FM/ED ON        000R$  000000000005300000000000530000000000053000000000005300000000000530000000000000000000000000000001000000000000001000000000000000053000000000000193202016091900000010000000000000BRABEVACNOR1112
012016071878ABEVI49     070ABEV  FM/ED ON        000R$  000000000002600000000000260000000000026000000000002600000000000260000000000008000000000000000002000000000000000800000000000000020800000000000198202016091900000010000000000000BRABEVACNOR1112
012016071878ABEVI89     070ABEV  FM/ED ON        000R$  000000000008000000000000800000000000077000000000007800000000000770000000000075000000000000000002000000000000002800000000000000219800000000000188202016091900000010000000000000BRABEVACNOR1107
012016071878ABEVJ22     070ABEV    /ED ON        000R$  000000000000600000000000060000000000006000000000000600000000000060000000000005000000000000000006000000000000026800000000000000160800000000000219802016101700000010000000000000BRABEVACNOR1112
012016071842ABEVS10E    013ABEVE   /ED ON        000R$  000000000203200000000020320000000002032000000000203200000000020320000000000000000000000000000001000000000000015000000000000030480000000000000203202016071800000010000000000000BRABEVACNOR1113
012016071842ABEVS20E    013ABEVE   /ED ON        000R$  000000000193200000000019320000000001932000000000193200000000019320000000000000000000000000000004000000000000192000000000000370944000000000000193202016071800000010000000000000BRABEVACNOR1113
012016071842ABEVS50E    013ABEVE   /ED ON        000R$  000000000198200000000019820000000001982000000000198200000000019820000000000000000000000000000002000000000000185700000000000368057400000000000198202016071800000010000000000000BRABEVACNOR1113
012016071842ABEVS92E    013ABEVE   /ED ON        000R$  000000000190700000000019070000000001907000000000190700000000019070000000000000000000000000000001000000000000000800000000000001525600000000000190702016071800000010000000000000BRABEVACNOR1113
012016071842ABEVS99E    013ABEVE   /ED ON        000R$  000000000195700000000019570000000001957000000000195700000000019570000000000000000000000000000002000000000000200000000000000391400000000000000195702016071800000010000000000000BRABEVACNOR1113
012016071882ABEVT18     080ABEVE FM/ED ON        000R$  000000000002100000000000210000000000021000000000002100000000000210000000000001000000000000000001000000000000002300000000000000048300000000000188202016081500000010000000000000BRABEVACNOR1112
012016071882ABEVT19     080ABEVE FM/ED ON        000R$  000000000004100000000000410000000000039000000000004000000000000390000000000000000000000000000002000000000000000200000000000000008000000000000193202016081500000010000000000000BRABEVACNOR1112
012016071882ABEVT64     080ABEVE   /ED ON        000R$  000000000002600000000000260000000000026000000000002600000000000260000000000000000000000000000001000000000000000200000000000000005200000000000190702016081500000010000000000000BRABEVACNOR1109
012016071882ABEVU82     080ABEVE   /ED ON        000R$  000000000021000000000002100000000000210000000000021000000000002100000000000000000000000000000001000000000000001000000000000000210000000000000215702016091900000010000000000000BRABEVACNOR1108
012016071882ABEVX9      080ABEVE   /ED ON        000R$  000000000008500000000000850000000000085000000000008500000000000850000000000000000000000000000001000000000000000100000000000000008500000000000188702017121800000010000000000000BRABEVACNOR1112
012016071812AEFI11      010FII AESAPAR CI           R$  000000001290100000000130190000000012870000000001290400000000129000000000012900000000001300000027000000000000001675000000000021614610000000000000009999123100000010000000000000BRAEFICTF002155
012016071802AELP3       010AES ELPA    ON           R$  000000000093000000000010270000000000930000000000093700000000010260000000000912000000000102700008000000000000005000000000000004687300000000000000009999123100000010000000000000BRAELPACNOR2123
012016071896AELP3F      020AES ELPA    ON           R$  000000000090000000000009000000000000900000000000090000000000009000000000000900000000000000000001000000000000000007000000000000006300000000000000009999123100000010000000000000BRAELPACNOR2123
012016071812AGCX11      010FII AG CAIXACI           R$  000000010749900000001094990000000107499000000010827600000001085000000000108500000000010860000119000000000000001271000000000137619394000000000000009999123100000010000000000000BRAGCXCTF003144
012016071802AGRO3       010BRASILAGRO  ON      NM   R$  000000000125200000000012590000000001240000000000124800000000012440000000001244000000000124500318000000000000056300000000000070312800000000000000009999123100000010000000000000BRAGROACNOR7104
012016071896AGRO3F      020BRASILAGRO  ON      NM   R$  000000000120100000000012830000000001201000000000126100000000012540000000001250000000000125400008000000000000000099000000000000124895000000000000009999123100000010000000000000BRAGROACNOR7104
012016071812ALMI11B     010FII TORRE ALCI      MB   R$  000000017999900000001805000000000179999000000018011900000001805000000000180000000000018050000010000000000000000025000000000004502998000000000000009999123100000010000000000000BRALMICTF003239
012016071802ALPA3       010ALPARGATAS  ON      N1   R$  000000000101700000000010400000000001017000000000103700000000010400000000001034000000000107000010000000000000004200000000000004355800000000000000009999123100000010000000000000BRALPAACNOR0217
012016071896ALPA3F      020ALPARGATAS  ON      N1   R$  000000000108000000000010800000000001080000000000108000000000010800000000001013000000000109800002000000000000000025000000000000027000000000000000009999123100000010000000000000BRALPAACNOR0217
012016071802ALPA4       010ALPARGATAS  PN      N1   R$  000000000109000000000010940000000001053000000000106600000000010620000000001062000000000106301283000000000000336700000000000359234500000000000000009999123100000010000000000000BRALPAACNPR7217
012016071896ALPA4F      020ALPARGATAS  PN      N1   R$  000000000108300000000010830000000001059000000000107200000000010680000000001060000000000106800019000000000000000614000000000000658623000000000000009999123100000010000000000000BRALPAACNPR7217
012016071802ALSC3       010ALIANSCE    ON      NM   R$  000000000148200000000015330000000001482000000000150900000000015010000000001501000000000151202099000000000000462200000000000697552300000000000000009999123100000010000000000000BRALSCACNOR0109
012016071896ALSC3F      020ALIANSCE    ON      NM   R$  000000000148200000000015530000000001482000000000149700000000015030000000001500000000000151300012000000000000000375000000000000561502000000000000009999123100000010000000000000BRALSCACNOR0109
012016071838ALSCG73E    012ALSCE       ON      NM000R$  000000000136400000000013640000000001364000000000136400000000013640000000000000000000000000000001000000000000120000000000000163680000000000000136402016071800000010000000000000BRALSCACNOR0109
012016071802ALUP11      010ALUPAR      UNT     N2   R$  000000000151000000000015900000000001490000000000155500000000015900000000001580000000000159102518000000000000901600000000001402670800000000000000009999123100000010000000000000BRALUPCDAM15105
012016071896ALUP11F     020ALUPAR      UNT     N2   R$  000000000151000000000016000000000001493000000000154500000000016000000000001549000000000160000099000000000000002483000000000003836666000000000000009999123100000010000000000000BRALUPCDAM15105
012016071802AMAR3       010LOJAS MARISAON      NM   R$  000000000080600000000008090000000000800000000000080400000000008040000000000802000000000080600131000000000000039200000000000031535000000000000000009999123100000010000000000000BRAMARACNOR4112
012016071896AMAR3F      020LOJAS MARISAON      NM   R$  000000000079500000000007950000000000795000000000079500000000007950000000000796000000000086900001000000000000000020000000000000015900000000000000009999123100000010000000000000BRAMARACNOR4112
012016071896AMGN34F     020AMGEN       DRN          R$  000000005271800000000527180000000052718000000005271800000000527180000000000000000000000000000001000000000000000074000000000003901132000000000000009999123100000010000000000000BRAMGNBDR004118
012016071896AMZO34F     020AMAZON      DRN          R$  000000011943400000001194340000000119434000000011943400000001194340000000000000000000000000000001000000000000000059000000000007046606000000000000009999123100000010000000000000BRAMZOBDR002101
012016071802ANIM3       010ANIMA       ON      NM   R$  000000000152000000000015390000000001498000000000151700000000015050000000001500000000000150500334000000000000082400000000000125089000000000000000009999123100000010000000000000BRANIMACNOR6103
012016071896ANIM3F      020ANIMA       ON      NM   R$  000000000153000000000015510000000001525000000000154300000000015280000000001540000000000155100005000000000000000083000000000000128069000000000000009999123100000010000000000000BRANIMACNOR6103
012016071802ARZZ3       010AREZZO CO   ON      NM   R$  000000000275000000000027880000000002697000000000274900000000027550000000002753000000000277001148000000000000361600000000000994288500000000000000009999123100000010000000000000BRARZZACNOR3121
012016071896ARZZ3F      020AREZZO CO   ON      NM   R$  000000000280000000000028000000000002705000000000273900000000027400000000002750000000000289900009000000000000000116000000000000317785000000000000009999123100000010000000000000BRARZZACNOR3121
012016071878ARZZJ56     070ARZZ        ON      NM000R$  000000000027100000000002710000000000271000000000027100000000002710000000000000000000000000000001000000000000005200000000000001409200000000000265002016101700000010000000000000BRARZZACNOR3121
012016071808ATOM3       010ATOMPAR     ON           R$  000000000008000000000000800000000000075000000000007700000000000770000000000076000000000007700223000000000000624400000000000048140700000000000000009999123100000010000000000000BRATOMACNOR1101
012016071802AVON34      010AVON        DRN          R$  000000000065700000000006570000000000650000000000065100000000006500000000000640000000000066900046000000000000005500000000000003581700000000000000009999123100000010000000000000BRAVONBDR009121
012016071896AVON34F     020AVON        DRN          R$  000000000065000000000006500000000000650000000000065000000000006500000000000000000000000000000001000000000000000098000000000000063700000000000000009999123100000010000000000000BRAVONBDR009121
012016071802AXPB34      010AMERICAN EXPDRN          R$  000000002070100000000207010000000020701000000002070100000000207010000000000000000000000000000001000000000000000100000000000002070100000000000000009999123100000010000000000000BRAXPBBDR007117
012016071896AXPB34F     020AMERICAN EXPDRN          R$  000000002070100000000207010000000020701000000002070100000000207010000000000000000000000000000001000000000000000047000000000000972947000000000000009999123100000010000000000000BRAXPBBDR007117
012016071802AZEV4       010AZEVEDO     PN           R$  000000000013500000000001350000000000135000000000013500000000001350000000000125000000000014000001000000000000000200000000000000027000000000000000009999123100000010000000000000BRAZEVACNPR7116
012016071802BALM4       010BAUMER      PN           R$  000000000080000000000008490000000000800000000000080500000000008200000000000801000000000084900006000000000000001300000000000001047400000000000000009999123100000010000000000000BRBALMACNPR2047
012016071896BALM4F      020BAUMER      PN           R$  000000000084800000000008480000000000848000000000084800000000008480000000000848000000000084900001000000000000000088000000000000074624000000000000009999123100000010000000000000BRBALMACNPR2047
012016071802BAUH4       010EXCELSIOR   PN           R$  000000000066000000000006700000000000660000000000066500000000006700000000000620000000000067000003000000000000000300000000000000199500000000000000009999123100000010000000000000BRBAUHACNPR3111
012016071802BAZA3       010AMAZONIA    ON           R$  000000000003400000000000350000000000033000000000003300000000000350000000000033000000000003500063000000000000414000000000000014048000000000000000009999123100000010000000000000BRBAZAACNOR0168
012016071896BAZA3F      020AMAZONIA    ON           R$  000000000003400000000000340000000000033000000000003300000000000340000000000034000000000003500005000000000000000845000000000000028280000000000000009999123100000010000000000000BRBAZAACNOR0168
012016071802BBAS3       010BRASIL      ON      NM   R$  000000000193000000000019960000000001926000000000196900000000019960000000001995000000000199621963000000000010240100000000020164863500000000000000009999123100000010000000000000BRBBASACNOR3261
012016071896BBAS3F      020BRASIL      ON      NM   R$  000000000195000000000019950000000001926000000000196800000000019950000000001983000000000199500389000000000000009894000000000019488853000000000000009999123100000010000000000000BRBBASACNOR3261
012016071862BBAS3T      030BRASIL      ON      NM016R$  000000000196600000000019670000000001966000000000196600000000019670000000000000000000000000000004000000000000027600000000000054277330000000000000009999123100000010000000000000BRBBASACNOR3261
012016071862BBAS3T      030BRASIL      ON      NM030R$  000000000197400000000020070000000001974000000000198300000000020070000000000000000000000000000012000000000000029000000000000057535302000000000000009999123100000010000000000000BRBBASACNOR3261
012016071862BBAS3T      030BRASIL      ON      NM031R$  000000000196700000000019820000000001967000000000198000000000019820000000000000000000000000000004000000000000022300000000000044156116000000000000009999123100000010000000000000BRBBASACNOR3261
012016071862BBAS3T      030BRASIL      ON      NM060R$  000000000201400000000020400000000002014000000000201700000000020400000000000000000000000000000004000000000000000900000000000001815943000000000000009999123100000010000000000000BRBBASACNOR3261
012016071862BBAS3T      030BRASIL      ON      NM091R$  000000000199600000000020360000000001996000000000202700000000020360000000000000000000000000000006000000000000190700000000000386551621000000000000009999123100000010000000000000BRBBASACNOR3261
012016071862BBAS3T      030BRASIL      ON      NM094R$  000000000202100000000020220000000001999000000000202000000000020000000000000000000000000000000004000000000000007400000000000014952809000000000000009999123100000010000000000000BRBBASACNOR3261
012016071862BBAS3T      030BRASIL      ON      NM182R$  000000000209900000000021000000000002099000000000209900000000021000000000000000000000000000000002000000000000005000000000000010495272000000000000009999123100000010000000000000BRBBASACNOR3261
012016071838BBASG13E    012BBAS        ON      NM000R$  000000000125500000000012550000000001255000000000125500000000012550000000000000000000000000000002000000000000004000000000000005020000000000000125502016071800000010000000000000BRBBASACNOR3261
012016071838BBASG14E    012BBAS        ON      NM000R$  000000000135500000000013550000000001355000000000135500000000013550000000000000000000000000000007000000000000015800000000000021409000000000000135502016071800000010000000000000BRBBASACNOR3261
012016071838BBASG15E    012BBAS        ON      NM000R$  000000000150500000000015050000000001505000000000150500000000015050000000000000000000000000000005000000000000008000000000000012040000000000000150502016071800000010000000000000BRBBASACNOR3261
012016071838BBASG16E    012BBAS        ON      NM000R$  000000000160500000000016050000000001605000000000160500000000016050000000000000000000000000000048000000000000225800000000000362409000000000000160502016071800000010000000000000BRBBASACNOR3261
012016071838BBASG17E    012BBAS        ON      NM000R$  000000000170500000000017050000000001705000000000170500000000017050000000000000000000000000000186000000000001256400000000002142162000000000000170502016071800000010000000000000BRBBASACNOR3261
012016071838BBASG18E    012BBAS        ON      NM000R$  000000000180500000000018050000000001805000000000180500000000018050000000000000000000000000000261000000000001231600000000002223038000000000000180502016071800000010000000000000BRBBASACNOR3261
012016071838BBASG19E    012BBAS        ON      NM000R$  000000000190500000000019050000000001905000000000190500000000019050000000000000000000000000000136000000000001025900000000001954339500000000000190502016071800000010000000000000BRBBASACNOR3261
012016071838BBASG42E    012BBAS        ON      NM000R$  000000000140500000000014050000000001405000000000140500000000014050000000000000000000000000000005000000000000013100000000000018405500000000000140502016071800000010000000000000BRBBASACNOR3261
012016071838BBASG43E    012BBAS        ON      NM000R$  000000000130500000000013050000000001305000000000130500000000013050000000000000000000000000000003000000000000001700000000000002218500000000000130502016071800000010000000000000BRBBASACNOR3261
012016071838BBASG44E    012BBAS        ON      NM000R$  000000000145500000000014550000000001455000000000145500000000014550000000000000000000000000000006000000000000007300000000000010621500000000000145502016071800000010000000000000BRBBASACNOR3261
012016071838BBASG45E    012BBAS        ON      NM000R$  000000000155500000000015550000000001555000000000155500000000015550000000000000000000000000000016000000000000128900000000000200439500000000000155502016071800000010000000000000BRBBASACNOR3261
012016071838BBASG46E    012BBAS        ON      NM000R$  000000000165500000000016550000000001655000000000165500000000016550000000000000000000000000000035000000000000304500000000000503947500000000000165502016071800000010000000000000BRBBASACNOR3261
012016071838BBASG47E    012BBAS        ON      NM000R$  000000000175500000000017550000000001755000000000175500000000017550000000000000000000000000000119000000000001129900000000001982974500000000000175502016071800000010000000000000BRBBASACNOR3261
012016071838BBASG48E    012BBAS        ON      NM000R$  000000000185500000000018550000000001855000000000185500000000018550000000000000000000000000000043000000000000512100000000000949945500000000000185502016071800000010000000000000BRBBASACNOR3261
012016071838BBASG49E    012BBAS        ON      NM000R$  000000000195500000000019550000000001955000000000195500000000019550000000000000000000000000000016000000000000029100000000000056890500000000000195502016071800000010000000000000BRBBASACNOR3261
012016071878BBASG83     070BBAS        ON      NM000R$  000000000024000000000002400000000000240000000000024000000000002400000000000008000000000000000002000000000000005000000000000001200000000000000227702017071700000010000000000000BRBBASACNOR3259
012016071878BBASH16     070BBAS        ON      NM000R$  000000000038000000000003980000000000380000000000038400000000003980000000000313000000000043000009000000000000003500000000000001346600000000000158802016081500000010000000000000BRBBASACNOR3259
012016071878BBASH17     070BBAS        ON      NM000R$  000000000028100000000003090000000000253000000000028300000000002950000000000210000000000044600009000000000000005800000000000001646600000000000168802016081500000010000000000000BRBBASACNOR3259
012016071878BBASH18     070BBAS        ON      NM000R$  000000000018400000000002340000000000184000000000021100000000002340000000000229000000000025500050000000000000048700000000000010311800000000000178802016081500000010000000000000BRBBASACNOR3259
012016071878BBASH19     070BBAS  FM    ON      NM000R$  000000000011300000000001590000000000109000000000013800000000001580000000000150000000000015800287000000000000703500000000000097309000000000000188802016081500000010000000000000BRBBASACNOR3259
012016071838BBASH19E    012BBAS  FM    ON      NM000R$  000000000188800000000018880000000001888000000000188800000000018880000000000000000000000000000001000000000000001000000000000001888000000000000188802016081500000010000000000000BRBBASACNOR3261
012016071878BBASH20     070BBAS  FM    ON      NM000R$  000000000006200000000000980000000000062000000000008300000000000980000000000097000000000009800372000000000001261900000000000104844200000000000198802016081500000010000000000000BRBBASACNOR3259
012016071878BBASH21     070BBAS  FM    ON      NM000R$  000000000003900000000000540000000000035000000000004500000000000520000000000052000000000005300628000000000000840000000000000038460200000000000208802016081500000010000000000000BRBBASACNOR3259
012016071878BBASH22     070BBAS        ON      NM000R$  000000000001700000000000230000000000016000000000001900000000000210000000000019000000000002100379000000000000820200000000000016223400000000000223802016081500000010000000000000BRBBASACNOR3259
012016071878BBASH23     070BBASE       ON      NM000R$  000000000001200000000000130000000000009000000000001000000000000110000000000010000000000006000083000000000000074400000000000000751400000000000236302016081500000010000000000000BRBBASACNOR3259
012016071878BBASH24     070BBAS        ON      NM000R$  000000000000800000000000120000000000008000000000000900000000000090000000000009000000000001000328000000000000370000000000000003430100000000000238802016081500000010000000000000BRBBASACNOR3259
012016071878BBASH25     070BBAS        ON      NM000R$  000000000000600000000000080000000000005000000000000600000000000070000000000005000000000000700031000000000000073800000000000000486600000000000248802016081500000010000000000000BRBBASACNOR3259
012016071878BBASH26     070BBAS        ON      NM000R$  000000000000500000000000050000000000004000000000000400000000000050000000000003000000000000500014000000000000070100000000000000300400000000000258802016081500000010000000000000BRBBASACNOR3259
012016071878BBASH46     070BBAS        ON      NM000R$  000000000034400000000003440000000000344000000000034400000000003440000000000101000000000000000002000000000000000500000000000000172000000000000163802016081500000010000000000000BRBBASACNOR3259
012016071878BBASH47     070BBAS        ON      NM000R$  000000000023000000000002300000000000230000000000023000000000002300000000000240000000000000000002000000000000002400000000000000552000000000000173802016081500000010000000000000BRBBASACNOR3259
012016071878BBASH48     070BBAS  FM    ON      NM000R$  000000000015400000000001850000000000153000000000016300000000001850000000000191000000000022500047000000000000046600000000000007617600000000000183802016081500000010000000000000BRBBASACNOR3259
012016071838BBASH48E    012BBAS  FM    ON      NM000R$  000000000183800000000018380000000001838000000000183800000000018380000000000000000000000000000001000000000000001500000000000002757000000000000183802016081500000010000000000000BRBBASACNOR3261
012016071878BBASH49     070BBAS  FM    ON      NM000R$  000000000008300000000001190000000000083000000000010000000000001180000000000100000000000012400051000000000000088100000000000008863300000000000193802016081500000010000000000000BRBBASACNOR3259
012016071878BBASH50     070BBAS        ON      NM000R$  000000000005200000000000710000000000052000000000006200000000000710000000000071000000000012200056000000000000153500000000000009523600000000000203802016081500000010000000000000BRBBASACNOR3259
012016071878BBASH51     070BBASE       ON      NM000R$  000000000003900000000000400000000000038000000000003800000000000400000000000001000000000000000005000000000000005400000000000000208200000000000211302016081500000010000000000000BRBBASACNOR3259
012016071878BBASH60     070BBASE       ON      NM000R$  000000000005800000000000860000000000058000000000007300000000000790000000000071000000000000000078000000000000078600000000000005763300000000000201302016081500000010000000000000BRBBASACNOR3259
012016071878BBASH66     070BBASE       ON      NM000R$  000000000034000000000003700000000000340000000000035400000000003700000000000286000000000000000002000000000000006300000000000002232000000000000161302016081500000010000000000000BRBBASACNOR3259
012016071878BBASH69     070BBASE       ON      NM000R$  000000000012100000000001400000000000121000000000012700000000001340000000000115000000000000000008000000000000035500000000000004519900000000000191302016081500000010000000000000BRBBASACNOR3259
012016071878BBASH79     070BBASE       ON      NM000R$  000000000015200000000001680000000000152000000000015900000000001680000000000100000000000000000009000000000000010200000000000001625200000000000186302016081500000010000000000000BRBBASACNOR3253
012016071878BBASH80     070BBASE       ON      NM000R$  000000000004600000000000630000000000046000000000005500000000000630000000000025000000000000000028000000000000121500000000000006712500000000000206302016081500000010000000000000BRBBASACNOR3259
012016071878BBASH89     070BBASE       ON      NM000R$  000000000009300000000001060000000000089000000000009400000000001060000000000000000000000000000014000000000000030300000000000002865400000000000196302016081500000010000000000000BRBBASACNOR3259
012016071878BBASH91     070BBASE       ON      NM000R$  000000000003600000000000360000000000036000000000003600000000000360000000000000000000000000000001000000000000000800000000000000028800000000000216302016081500000010000000000000BRBBASACNOR3259
012016071878BBASH94     070BBAS        ON      NM000R$  000000000003200000000000380000000000032000000000003500000000000370000000000037000000000003900056000000000000159400000000000005614600000000000213802016081500000010000000000000BRBBASACNOR3253
012016071878BBASH95     070BBAS        ON      NM000R$  000000000002200000000000290000000000020000000000002700000000000290000000000018000000000003300061000000000000094200000000000002600400000000000218802016081500000010000000000000BRBBASACNOR3253
012016071878BBASH97     070BBAS        ON      NM000R$  000000000001500000000000180000000000015000000000001500000000000180000000000010000000000010000039000000000000065300000000000001023000000000000228802016081500000010000000000000BRBBASACNOR3253
012016071878BBASI19     070BBAS  FM    ON      NM000R$  000000000015800000000001710000000000158000000000016800000000001700000000000158000000000025000003000000000000000600000000000000101000000000000192702016091900000010000000000000BRBBASACNOR3260
012016071878BBASI20     070BBAS  FM    ON      NM000R$  000000000012300000000001470000000000122000000000013500000000001440000000000134000000000000000030000000000000068800000000000009320400000000000197702016091900000010000000000000BRBBASACNOR3259
012016071878BBASI22     070BBAS        ON      NM000R$  000000000005900000000000670000000000059000000000006500000000000670000000000056000000000039900018000000000000079400000000000005166800000000000217702016091900000010000000000000BRBBASACNOR3259
012016071878BBASI46     070BBAS        ON      NM000R$  000000000033500000000003370000000000335000000000033600000000003370000000000000000000000000000006000000000000020000000000000006729000000000000167702016091900000010000000000000BRBBASACNOR3260
012016071878BBASI48     070BBAS  FM    ON      NM000R$  000000000021900000000002240000000000219000000000022200000000002240000000000015000000000000000003000000000000003500000000000000777500000000000182702016091900000010000000000000BRBBASACNOR3259
012016071878BBASI50     070BBAS        ON      NM000R$  000000000010500000000001200000000000105000000000010800000000001200000000000102000000000013600005000000000000017400000000000001894500000000000202702016091900000010000000000000BRBBASACNOR3259
012016071878BBASI51     070BBAS        ON      NM000R$  000000000007700000000000770000000000077000000000007700000000000770000000000005000000000000000001000000000000000900000000000000069300000000000212702016091900000010000000000000BRBBASACNOR3259
012016071878BBASI52     070BBAS        ON      NM000R$  000000000004100000000000410000000000041000000000004100000000000410000000000000000000000000000001000000000000000200000000000000008200000000000227702016091900000010000000000000BRBBASACNOR3260
012016071878BBASI53     070BBAS        ON      NM000R$  000000000002500000000000300000000000025000000000002900000000000300000000000030000000000003100005000000000000020900000000000000622500000000000237702016091900000010000000000000BRBBASACNOR3260
012016071878BBASI68     070BBAS  FM    ON      NM000R$  000000000018700000000001880000000000187000000000018700000000001880000000000000000000000000000002000000000000003000000000000000562000000000000187702016091900000010000000000000BRBBASACNOR3260
012016071878BBASI79     070BBASE       ON      NM000R$  000000000015100000000001510000000000151000000000015100000000001510000000000000000000000000000001000000000000001000000000000000151000000000000195202016091900000010000000000000BRBBASACNOR3259
012016071878BBASI80     070BBASE       ON      NM000R$  000000000012700000000001270000000000125000000000012500000000001250000000000125000000000000000004000000000000028000000000000003516000000000000200202016091900000010000000000000BRBBASACNOR3259
012016071878BBASI82     070BBAS        ON      NM000R$  000000000004600000000000500000000000045000000000004600000000000500000000000001000000000000000011000000000000004800000000000000224400000000000222702016091900000010000000000000BRBBASACNOR3260
012016071878BBASI90     070BBAS  FM    ON      NM000R$  000000000009400000000000970000000000093000000000009300000000000960000000000000000000000000000037000000000000265300000000000024922800000000000207702016091900000010000000000000BRBBASACNOR3260
012016071878BBASI92     070BBASE       ON      NM000R$  000000000005300000000000560000000000053000000000005300000000000540000000000000000000000000000018000000000000006700000000000000361400000000000220202016091900000010000000000000BRBBASACNOR3259
012016071878BBASJ20     070BBAS        ON      NM000R$  000000000014900000000001490000000000149000000000014900000000001490000000000000000000000017000001000000000000000500000000000000074500000000000200002016101700000010000000000000BRBBASACNOR3261
012016071878BBASJ23     070BBAS        ON      NM000R$  000000000007000000000000800000000000070000000000007100000000000700000000000001000000000008000004000000000000001000000000000000071000000000000230002016101700000010000000000000BRBBASACNOR3259
012016071878BBASJ49     070BBAS        ON      NM000R$  000000000017300000000001730000000000172000000000017200000000001720000000000000000000000000000002000000000000004000000000000000689000000000000195002016101700000010000000000000BRBBASACNOR3261
012016071878BBASJ77     070BBASE       ON      NM000R$  000000000031400000000003140000000000314000000000031400000000003140000000000000000000000000000001000000000000001000000000000000314000000000000172502016101700000010000000000000BRBBASACNOR3261
012016071878BBASK85     070BBASE       ON      NM000R$  000000000020900000000002090000000000209000000000020900000000002090000000000000000000000000000001000000000000001900000000000000397100000000000257502017112100000010000000000000BRBBASACNOR3261
012016071842BBASS20E    013BBASE       ON      NM000R$  000000000200500000000020050000000002005000000000200500000000020050000000000000000000000000000002000000000000015000000000000030075000000000000200502016071800000010000000000000BRBBASACNOR3261
012016071842BBASS21E    013BBASE       ON      NM000R$  000000000210500000000021050000000002105000000000210500000000021050000000000000000000000000000009000000000000023300000000000049046500000000000210502016071800000010000000000000BRBBASACNOR3261
012016071842BBASS50E    013BBASE       ON      NM000R$  000000000205500000000020550000000002055000000000205500000000020550000000000000000000000000000001000000000000004600000000000009453000000000000205502016071800000010000000000000BRBBASACNOR3261
012016071842BBASS51E    013BBASE       ON      NM000R$  000000000215500000000021550000000002155000000000215500000000021550000000000000000000000000000001000000000000002000000000000004310000000000000215502016071800000010000000000000BRBBASACNOR3261
012016071842BBASS60E    013BBASE       ON      NM000R$  000000000198000000000019800000000001980000000000198000000000019800000000000000000000000000000004000000000000003700000000000007326000000000000198002016071800000010000000000000BRBBASACNOR3261
012016071882BBAST15     080BBASE       ON      NM000R$  000000000000300000000000030000000000002000000000000200000000000020000000000001000000000000200006000000000000021000000000000000056000000000000151302016081500000010000000000000BRBBASACNOR3259
012016071882BBAST16     080BBASE       ON      NM000R$  000000000000800000000000080000000000003000000000000400000000000040000000000003000000000000400017000000000000101500000000000000428100000000000158802016081500000010000000000000BRBBASACNOR3259
012016071882BBAST17     080BBASE       ON      NM000R$  000000000001100000000000120000000000010000000000001000000000000100000000000009000000000002000036000000000000080000000000000000875000000000000168802016081500000010000000000000BRBBASACNOR3259
012016071882BBAST18     080BBASE FM    ON      NM000R$  000000000002600000000000300000000000019000000000002400000000000200000000000017000000000002000089000000000000133600000000000003208400000000000178802016081500000010000000000000BRBBASACNOR3259
012016071882BBAST19     080BBASE FM    ON      NM000R$  000000000006000000000000600000000000040000000000005200000000000410000000000037000000000005500074000000000000283100000000000014798600000000000188802016081500000010000000000000BRBBASACNOR3259
012016071882BBAST20     080BBASE       ON      NM000R$  000000000009900000000001000000000000080000000000009400000000000800000000000000000000000008900008000000000000008800000000000000828600000000000198802016081500000010000000000000BRBBASACNOR3259
012016071882BBAST43     080BBASE       ON      NM000R$  000000000000100000000000010000000000001000000000000100000000000010000000000001000000000000200001000000000000000100000000000000000100000000000133802016081500000010000000000000BRBBASACNOR3257
012016071882BBAST45     080BBASE       ON      NM000R$  000000000000200000000000050000000000002000000000000200000000000050000000000003000000000000700008000000000000101000000000000000205000000000000153802016081500000010000000000000BRBBASACNOR3259
012016071882BBAST46     080BBASE       ON      NM000R$  000000000000600000000000060000000000006000000000000600000000000060000000000004000000000000000001000000000000004000000000000000024000000000000163802016081500000010000000000000BRBBASACNOR3259
012016071882BBAST47     080BBASE       ON      NM000R$  000000000002000000000000200000000000012000000000001300000000000120000000000010000000000000000009000000000000040100000000000000525100000000000173802016081500000010000000000000BRBBASACNOR3259
012016071882BBAST48     080BBASE FM    ON      NM000R$  000000000002700000000000280000000000026000000000002600000000000270000000000007000000000000000005000000000000007000000000000000184200000000000183802016081500000010000000000000BRBBASACNOR3259
012016071882BBAST49     080BBASE FM    ON      NM000R$  000000000007200000000000720000000000070000000000007100000000000700000000000000000000000019800002000000000000002200000000000000158000000000000193802016081500000010000000000000BRBBASACNOR3259
012016071882BBAST66     080BBASE       ON      NM000R$  000000000000600000000000060000000000006000000000000600000000000060000000000000000000000000000001000000000000002000000000000000012000000000000161302016081500000010000000000000BRBBASACNOR3259
012016071882BBAST69     080BBASE       ON      NM000R$  000000000006100000000000650000000000054000000000006000000000000540000000000027000000000000000017000000000000053100000000000003226400000000000191302016081500000010000000000000BRBBASACNOR3259
012016071882BBAST77     080BBASE       ON      NM000R$  000000000002200000000000220000000000016000000000001700000000000180000000000000000000000002800003000000000000012500000000000000222000000000000176302016081500000010000000000000BRBBASACNOR3259
012016071882BBAST79     080BBASE       ON      NM000R$  000000000004900000000000490000000000035000000000003700000000000360000000000030000000000004300007000000000000009400000000000000352800000000000186302016081500000010000000000000BRBBASACNOR3253
012016071882BBAST80     080BBASE       ON      NM000R$  000000000014900000000001490000000000120000000000014300000000001200000000000000000000000000000018000000000000016400000000000002358700000000000206302016081500000010000000000000BRBBASACNOR3259
012016071882BBAST89     080BBASE       ON      NM000R$  000000000008200000000000860000000000068000000000008000000000000680000000000000000000000000000009000000000000008900000000000000719800000000000196302016081500000010000000000000BRBBASACNOR3259
012016071882BBASU18     080BBASE FM    ON      NM000R$  000000000005000000000000500000000000042000000000004500000000000420000000000000000000000000000003000000000000007000000000000000318000000000000177702016091900000010000000000000BRBBASACNOR3259
012016071882BBASU19     080BBASE FM    ON      NM000R$  000000000009500000000000950000000000095000000000009500000000000950000000000000000000000000000001000000000000002000000000000000190000000000000192702016091900000010000000000000BRBBASACNOR3260
012016071882BBASU48     080BBASE FM    ON      NM000R$  000000000005000000000000500000000000050000000000005000000000000500000000000000000000000000000001000000000000002000000000000000100000000000000182702016091900000010000000000000BRBBASACNOR3259
012016071882BBASU79     080BBASE       ON      NM000R$  000000000010800000000001080000000000104000000000010500000000001040000000000000000000000000000002000000000000004500000000000000474000000000000195202016091900000010000000000000BRBBASACNOR3259
012016071882BBASU80     080BBASE       ON      NM000R$  000000000012600000000001260000000000119000000000012100000000001200000000000000000000000000000014000000000000004100000000000000499200000000000200202016091900000010000000000000BRBBASACNOR3259
012016071882BBASV78     080BBASE       ON      NM000R$  000000000008000000000000800000000000080000000000008000000000000800000000000000000000000000000001000000000000001500000000000000120000000000000182502016101700000010000000000000BRBBASACNOR3259
012016071802BBDC3       010BRADESCO    ON      N1   R$  000000000290000000000029740000000002893000000000294300000000029610000000002951000000000296105096000000000003874400000000011403348800000000000000009999123100000010000000000000BRBBDCACNOR1651
012016071896BBDC3F      020BRADESCO    ON      N1   R$  000000000293900000000029710000000002913000000000294900000000029710000000002901000000000297100065000000000000001809000000000005335633000000000000009999123100000010000000000000BRBBDCACNOR1651
012016071802BBDC4       010BRADESCO    PN      N1   R$  000000000282600000000029000000000002822000000000287300000000028890000000002888000000000288921994000000000012728900000000036579066800000000000000009999123100000010000000000000BRBBDCACNPR8651
012016071896BBDC4F      020BRADESCO    PN      N1   R$  000000000283000000000028990000000002820000000000287000000000028700000000002870000000000288700319000000000000009194000000000026393481000000000000009999123100000010000000000000BRBBDCACNPR8651
012016071862BBDC4T      030BRADESCO    PN      N1030R$  000000000288300000000028840000000002883000000000288300000000028840000000000000000000000000000002000000000000000500000000000001441971000000000000009999123100000010000000000000BRBBDCACNPR8651
012016071862BBDC4T      030BRADESCO    PN      N1091R$  000000000295400000000029550000000002954000000000295400000000029550000000000000000000000000000002000000000000005000000000000014772199000000000000009999123100000010000000000000BRBBDCACNPR8651
012016071878BBDCF63     070BBDCE       PN      N1000R$  000000000040700000000004130000000000407000000000040900000000004130000000000414000000000000000006000000000000016700000000000006844900000000000299902017061900000010000000000000BRBBDCACNPR8645
012016071838BBDCG17E    012BBDC        PN      N1000R$  000000000246800000000024680000000002468000000000246800000000024680000000000000000000000000000062000000000000293810000000000725123080000000000246802016071800000010000000000000BRBBDCACNPR8651
012016071838BBDCG19E    012BBDCE       ON      N1000R$  000000000218100000000021810000000002181000000000218100000000021810000000000000000000000000000003000000000000004300000000000009378300000000000218102016071800000010000000000000BRBBDCACNOR1651
012016071838BBDCG1E     012BBDCE       PN      N1000R$  000000000183200000000018320000000001832000000000183200000000018320000000000000000000000000000003000000000000055000000000000100760000000000000183202016071800000010000000000000BRBBDCACNPR8651
012016071838BBDCG20E    012BBDCE       ON      N1000R$  000000000245400000000024540000000002454000000000245400000000024540000000000000000000000000000004000000000000001800000000000004417200000000000245402016071800000010000000000000BRBBDCACNOR1651
012016071838BBDCG21E    012BBDCE       PN      N1000R$  000000000187700000000018770000000001877000000000187700000000018770000000000000000000000000000004000000000000014230000000000026709710000000000187702016071800000010000000000000BRBBDCACNPR8651
012016071838BBDCG24E    012BBDCE       PN      N1000R$  000000000208200000000020820000000002082000000000208200000000020820000000000000000000000000000003000000000000002650000000000005517300000000000208202016071800000010000000000000BRBBDCACNPR8651
012016071838BBDCG2E     012BBDC        PN      N1000R$  000000000283200000000028320000000002832000000000283200000000028320000000000000000000000000000023000000000000392350000000001111135200000000000283202016071800000010000000000000BRBBDCACNPR8651
012016071838BBDCG33E    012BBDC        PN      N1000R$  000000000256100000000025610000000002561000000000256100000000025610000000000000000000000000000078000000000001017100000000002604793100000000000256102016071800000010000000000000BRBBDCACNPR8651
012016071838BBDCG35E    012BBDC        PN      N1000R$  000000000237700000000023770000000002377000000000237700000000023770000000000000000000000000000030000000000000222120000000000527979240000000000237702016071800000010000000000000BRBBDCACNPR8651
012016071838BBDCG36E    012BBDC        PN      N1000R$  000000000275000000000027500000000002750000000000275000000000027500000000000000000000000000000036000000000000446200000000001227050000000000000275002016071800000010000000000000BRBBDCACNPR8651
012016071838BBDCG38E    012BBDCE       PN      N1000R$  000000000226600000000022660000000002266000000000226600000000022660000000000000000000000000000017000000000000394700000000000894390200000000000226602016071800000010000000000000BRBBDCACNPR8651
012016071838BBDCG3E     012BBDC        PN      N1000R$  000000000203600000000020360000000002036000000000203600000000020360000000000000000000000000000005000000000000022060000000000044914160000000000203602016071800000010000000000000BRBBDCACNPR8651
012016071838BBDCG43E    012BBDCE       PN      N1000R$  000000000252100000000025210000000002521000000000252100000000025210000000000000000000000000000029000000000000099650000000000251217650000000000252102016071800000010000000000000BRBBDCACNPR8651
012016071838BBDCG46E    012BBDC        PN      N1000R$  000000000146800000000014680000000001468000000000146800000000014680000000000000000000000000000002000000000000035200000000000051673600000000000146802016071800000010000000000000BRBBDCACNPR8651
012016071838BBDCG49E    012BBDC        PN      N1000R$  000000000169500000000016950000000001695000000000169500000000016950000000000000000000000000000002000000000000011000000000000018645000000000000169502016071800000010000000000000BRBBDCACNPR8651
012016071838BBDCG50E    012BBDC        PN      N1000R$  000000000219500000000021950000000002195000000000219500000000021950000000000000000000000000000006000000000000130250000000000285898750000000000219502016071800000010000000000000BRBBDCACNPR8651
012016071838BBDCG55E    012BBDCE       PN      N1000R$  000000000253600000000025360000000002536000000000253600000000025360000000000000000000000000000025000000000000276590000000000701432240000000000253602016071800000010000000000000BRBBDCACNPR8651
012016071838BBDCG56E    012BBDCE       PN      N1000R$  000000000230900000000023090000000002309000000000230900000000023090000000000000000000000000000016000000000001074090000000002480073810000000000230902016071800000010000000000000BRBBDCACNPR8651
012016071838BBDCG57E    012BBDCE       PN      N1000R$  000000000153600000000015360000000001536000000000153600000000015360000000000000000000000000000001000000000000012650000000000019430400000000000153602016071800000010000000000000BRBBDCACNPR8651
012016071838BBDCG5E     012BBDC        PN      N1000R$  000000000224100000000022410000000002241000000000224100000000022410000000000000000000000000000006000000000000111700000000000250319700000000000224102016071800000010000000000000BRBBDCACNPR8651
012016071838BBDCG60E    012BBDCE       PN      N1000R$  000000000176300000000017630000000001763000000000176300000000017630000000000000000000000000000002000000000000051920000000000091534960000000000176302016071800000010000000000000BRBBDCACNPR8651
012016071838BBDCG64E    012BBDC        PN      N1000R$  000000000242300000000024230000000002423000000000242300000000024230000000000000000000000000000040000000000000527411000000001277916853000000000242302016071800000010000000000000BRBBDCACNPR8651
012016071838BBDCG65E    012BBDC        PN      N1000R$  000000000249800000000024980000000002498000000000249800000000024980000000000000000000000000000026000000000000330910000000000826613180000000000249802016071800000010000000000000BRBBDCACNPR8651
012016071838BBDCG67E    012BBDC        PN      N1000R$  000000000265000000000026500000000002650000000000265000000000026500000000000000000000000000000078000000000001510300000000004002295000000000000265002016071800000010000000000000BRBBDCACNPR8651
012016071838BBDCG69E    012BBDCE       PN      N1000R$  000000000149100000000014910000000001491000000000149100000000014910000000000000000000000000000001000000000000022000000000000032802000000000000149102016071800000010000000000000BRBBDCACNPR8651
012016071838BBDCG71E    012BBDCE       PN      N1000R$  000000000171800000000017180000000001718000000000171800000000017180000000000000000000000000000003000000000000069300000000000119057400000000000171802016071800000010000000000000BRBBDCACNPR8651
012016071838BBDCG77E    012BBDC        PN      N1000R$  000000000155900000000015590000000001559000000000155900000000015590000000000000000000000000000001000000000000017710000000000027609890000000000155902016071800000010000000000000BRBBDCACNPR8651
012016071838BBDCG79E    012BBDCE       PN      N1000R$  000000000167300000000016730000000001673000000000167300000000016730000000000000000000000000000002000000000000070400000000000117779200000000000167302016071800000010000000000000BRBBDCACNPR8651
012016071838BBDCG81E    012BBDCE       PN      N1000R$  000000000192300000000019230000000001923000000000192300000000019230000000000000000000000000000004000000000000246830000000000474654090000000000192302016071800000010000000000000BRBBDCACNPR8651
012016071838BBDCG82E    012BBDCE       ON      N1000R$  000000000204500000000020450000000002045000000000204500000000020450000000000000000000000000000001000000000000011660000000000023844700000000000204502016071800000010000000000000BRBBDCACNOR1651
012016071838BBDCG85E    012BBDCE       ON      N1000R$  000000000227200000000022720000000002272000000000227200000000022720000000000000000000000000000002000000000000435600000000000989683200000000000227202016071800000010000000000000BRBBDCACNOR1651
012016071838BBDCG91E    012BBDCE       ON      N1000R$  000000000195400000000019540000000001954000000000195400000000019540000000000000000000000000000002000000000000106040000000000207202160000000000195402016071800000010000000000000BRBBDCACNOR1651
012016071878BBDCG98     070BBDCE       PN      N1000R$  000000000021600000000002180000000000213000000000021600000000002180000000000000000000000000000003000000000000067100000000000014530100000000000345302017071700000010000000000000BRBBDCACNPR8645
012016071878BBDCH10     070BBDC  FM    PN      N1000R$  000000000020400000000002500000000000204000000000022300000000002310000000000231000000000000000015000000000000013940000000000003115480000000000269202016081500000010000000000000BRBBDCACNPR8631
012016071878BBDCH11     070BBDC        PN      N1000R$  000000000018500000000001850000000000155000000000015600000000001550000000000120000000000000000002000000000000002100000000000000328500000000000273702016081500000010000000000000BRBBDCACNPR8631
012016071878BBDCH30     070BBDCE       PN      N1000R$  000000000017000000000002060000000000170000000000020100000000002000000000000134000000000000000007000000000000000550000000000000110800000000000271402016081500000010000000000000BRBBDCACNPR8646
012016071878BBDCH31     070BBDC        PN      N1000R$  000000000001400000000000140000000000014000000000001400000000000140000000000001000000000023000001000000000000001200000000000000016800000000000315802016081500000010000000000000BRBBDCACNPR8648
012016071878BBDCH33     070BBDC  FM    PN      N1000R$  000000000015600000000001740000000000137000000000015800000000001610000000000096000000000018100040000000000000043300000000000006852300000000000278702016081500000010000000000000BRBBDCACNPR8649
012016071878BBDCH59     070BBDC        PN      N1000R$  000000000053500000000005350000000000535000000000053500000000005350000000000000000000000000000001000000000000500000000000000267500000000000000236002016081500000010000000000000BRBBDCACNPR8649
012016071878BBDCH73     070BBDCE       PN      N1000R$  000000000004000000000000470000000000036000000000004200000000000420000000000028000000000004500053000000000000096020000000000004037300000000000303302016081500000010000000000000BRBBDCACNPR8646
012016071878BBDCH79     070BBDCE       PN      N1000R$  000000000018500000000002000000000000185000000000019200000000002000000000000087000000000000000004000000000000000040000000000000007700000000000266902016081500000010000000000000BRBBDCACNPR8645
012016071878BBDCH84     070BBDC        PN      N1000R$  000000000000300000000000030000000000003000000000000300000000000030000000000000000000000000500001000000000000002000000000000000006000000000000373702016081500000010000000000000BRBBDCACNPR8620
012016071878BBDCH88     070BBDCE       PN      N1000R$  000000000009700000000001220000000000097000000000010800000000001220000000000082000000000015000016000000000000014100000000000001532000000000000286202016081500000010000000000000BRBBDCACNPR8648
012016071878BBDCH89     070BBDC  FM    PN      N1000R$  000000000009800000000001100000000000085000000000010300000000000970000000000069000000000000000024000000000000057800000000000005995000000000000288702016081500000010000000000000BRBBDCACNPR8651
012016071878BBDCH90     070BBDC  FM    PN      N1000R$  000000000004600000000000650000000000046000000000005600000000000650000000000055000000000006600063000000000000155400000000000008771600000000000298702016081500000010000000000000BRBBDCACNPR8651
012016071878BBDCH91     070BBDCE       PN      N1000R$  000000000002100000000000260000000000020000000000002200000000000200000000000017000000000003000019000000000000078200000000000001727300000000000313302016081500000010000000000000BRBBDCACNPR8647
012016071878BBDCH95     070BBDCE       PN      N1000R$  000000000018300000000002080000000000183000000000018300000000002080000000000000000000000000000003000000000000015000000000000002751400000000000350302017082100000010000000000000BRBBDCACNPR8647
012016071878BBDCH97     070BBDC        PN      N1000R$  000000000007100000000000820000000000071000000000007300000000000820000000000000000000000000000002000000000000010200000000000000746200000000000293702016081500000010000000000000BRBBDCACNPR8651
012016071878BBDCI1      070BBDC  FM    PN      N1000R$  000000000022200000000002220000000000222000000000022200000000002220000000000000000000000000000001000000000000002000000000000000444000000000000277402016091900000010000000000000BRBBDCACNPR8637
012016071878BBDCI32     070BBDC        PN      N1000R$  000000000013600000000001580000000000134000000000014500000000001580000000000000000000000000000006000000000000004700000000000000681700000000000291102016091900000010000000000000BRBBDCACNPR8646
012016071878BBDCI46     070BBDC  FM    PN      N1000R$  000000000007700000000001140000000000077000000000009800000000001140000000000000000000000000000005000000000000004100000000000000404100000000000301102016091900000010000000000000BRBBDCACNPR8651
012016071878BBDCI67     070BBDCE       PN      N1000R$  000000000003000000000000360000000000030000000000003200000000000360000000000000000000000000000009000000000000052000000000000001678000000000000329702016091900000010000000000000BRBBDCACNPR8632
012016071878BBDCI68     070BBDC  FM    PN      N1000R$  000000000015900000000001630000000000150000000000015800000000001630000000000000000000000000000021000000000000004000000000000000633100000000000287002016091900000010000000000000BRBBDCACNPR8651
012016071878BBDCI80     070BBDCE       PN      N1000R$  000000000003900000000000430000000000039000000000004200000000000420000000000000000000000000000011000000000000050100000000000002120200000000000320602016091900000010000000000000BRBBDCACNPR8632
012016071878BBDCJ3      070BBDC        PN      N1000R$  000000000013000000000001400000000000130000000000013900000000001400000000000000000000000014300002000000000000000110000000000000015300000000000302602016101700000010000000000000BRBBDCACNPR8645
012016071878BBDCJ78     070BBDC        PN      N1000R$  000000000041400000000004140000000000414000000000041400000000004140000000000000000000000000000001000000000000026900000000000011136600000000000257202016101700000010000000000000BRBBDCACNPR8638
012016071878BBDCK78     070BBDCE       ON      N1000R$  000000000022000000000002200000000000176000000000017600000000001760000000000000000000000021900003000000000000170100000000000029942100000000000387502017112100000010000000000000BRBBDCACNOR1651
012016071878BBDCL92     070BBDCE       PN      N1000R$  000000000025000000000002730000000000250000000000027000000000002730000000000268000000000000000032000000000000580800000000000157002100000000000293502016121900000010000000000000BRBBDCACNPR8645
012016071882BBDCS29     080BBDCE       PN      N1000R$  000000000019800000000001980000000000198000000000019800000000001980000000000000000000000000000003000000000000067100000000000013285800000000000275602017071700000010000000000000BRBBDCACNPR8647
012016071882BBDCT10     080BBDCE FM    PN      N1000R$  000000000003200000000000320000000000029000000000003000000000000290000000000000000000000005000003000000000000004200000000000000129300000000000269202016081500000010000000000000BRBBDCACNPR8631
012016071882BBDCT11     080BBDCE       PN      N1000R$  000000000004800000000000480000000000031000000000004200000000000310000000000000000000000005700010000000000000027000000000000001139500000000000273702016081500000010000000000000BRBBDCACNPR8631
012016071882BBDCT17     080BBDCE       PN      N1000R$  000000000001700000000000200000000000014000000000001600000000000150000000000012000000000003000005000000000000036400000000000000607800000000000260102016081500000010000000000000BRBBDCACNPR8620
012016071882BBDCT22     080BBDCE       PN      N1000R$  000000000000400000000000040000000000004000000000000400000000000040000000000000000000000000000001000000000000000200000000000000000800000000000231302016081500000010000000000000BRBBDCACNPR8634
012016071882BBDCT30     080BBDCE       PN      N1000R$  000000000003600000000000360000000000028000000000003200000000000320000000000001000000000004200007000000000000018000000000000000586000000000000271402016081500000010000000000000BRBBDCACNPR8646
012016071882BBDCT33     080BBDCE FM    PN      N1000R$  000000000004800000000000490000000000048000000000004800000000000490000000000000000000000015000002000000000000250000000000000012200000000000000278702016081500000010000000000000BRBBDCACNPR8649
012016071882BBDCT59     080BBDCE       PN      N1000R$  000000000000200000000000020000000000002000000000000200000000000020000000000000000000000000000001000000000000500000000000000001000000000000000236002016081500000010000000000000BRBBDCACNPR8649
012016071882BBDCT75     080BBDCE       PN      N1000R$  000000000009800000000000980000000000098000000000009800000000000980000000000000000000000000000001000000000000014600000000000001430800000000000250302017082100000010000000000000BRBBDCACNPR8648
012016071882BBDCT78     080BBDCE       PN      N1000R$  000000000017900000000001790000000000179000000000017900000000001790000000000000000000000000000001000000000000014600000000000002613400000000000280302017082100000010000000000000BRBBDCACNPR8647
012016071882BBDCT79     080BBDCE       PN      N1000R$  000000000002200000000000230000000000022000000000002200000000000230000000000000000000000011900002000000000000012000000000000000274000000000000266902016081500000010000000000000BRBBDCACNPR8645
012016071882BBDCT83     080BBDCE       PN      N1000R$  000000000000300000000000030000000000003000000000000300000000000030000000000000000000000000000001000000000000002000000000000000006000000000000225602016081500000010000000000000BRBBDCACNPR8649
012016071882BBDCT87     080BBDCE       PN      N1000R$  000000000000200000000000020000000000002000000000000200000000000020000000000000000000000000000001000000000000000200000000000000000400000000000215602016081500000010000000000000BRBBDCACNPR8649
012016071882BBDCT88     080BBDCE       PN      N1000R$  000000000009400000000000940000000000077000000000007800000000000770000000000000000000000000000003000000000000003700000000000000289300000000000286202016081500000010000000000000BRBBDCACNPR8648
012016071882BBDCT89     080BBDCE FM    PN      N1000R$  000000000008800000000000900000000000082000000000008900000000000820000000000000000000000011900018000000000000060100000000000005385200000000000288702016081500000010000000000000BRBBDCACNPR8651
012016071882BBDCT97     080BBDCE       PN      N1000R$  000000000010200000000001020000000000102000000000010200000000001020000000000000000000000000000001000000000000000300000000000000030600000000000293702016081500000010000000000000BRBBDCACNPR8651
012016071882BBDCU68     080BBDCE FM    PN      N1000R$  000000000011400000000001220000000000114000000000011800000000001220000000000000000000000000000020000000000000002000000000000000236400000000000287002016091900000010000000000000BRBBDCACNPR8651
012016071882BBDCV68     080BBDCE       ON      N1000R$  000000000020100000000002010000000000201000000000020100000000002010000000000000000000000000000001000000000000000100000000000000020100000000000292502017101600000010000000000000BRBBDCACNOR1651
012016071882BBDCW83     080BBDCE       ON      N1000R$  000000000004100000000000410000000000033000000000003300000000000330000000000000000000000000000002000000000000170100000000000005614100000000000235002017112100000010000000000000BRBBDCACNOR1651
012016071882BBDCW99     080BBDCE       ON      N1000R$  000000000020000000000002080000000000200000000000020700000000002080000000000000000000000022900004000000000000170200000000000035296900000000000295002017112100000010000000000000BRBBDCACNOR1651
012016071812BBFI11B     010FII BB PROGRCI      MB   R$  000000024010000000002415000000000240000000000024044900000002410000000000240000000000024100000008000000000000000052000000000012503398000000000000009999123100000010000000000000BRBBFICTF006232
012016071812BBPO11      010FII BB PRGIICI           R$  000000001147900000000115400000000011401000000001147800000000115380000000011490000000001153800274000000000000030929000000000355030235000000000000009999123100000010000000000000BRBBPOCTF003144
012016071812BBRC11      010FII BB CORP CI           R$  000000001049800000000110920000000010494000000001081100000000107980000000010550000000001079900051000000000000002728000000000029494412000000000000009999123100000010000000000000BRBBRCCTF004158
012016071802BBRK3       010BR BROKERS  ON      NM   R$  000000000018000000000001800000000000164000000000017000000000001690000000000169000000000017200189000000000000107800000000000018422800000000000000009999123100000010000000000000BRBBRKACNOR4110
012016071896BBRK3F      020BR BROKERS  ON      NM   R$  000000000014400000000001440000000000144000000000014400000000001440000000000140000000000017200001000000000000000024000000000000003456000000000000009999123100000010000000000000BRBBRKACNOR4110
012016071814BBSD11      010BB ETF SP DVCI           R$  000000000395900000000039830000000003959000000000398100000000039830000000000000000000000000000004000000000000001090000000000004340070000000000000009999123100000010000000000000BRBBSDCTF000100
012016071802BBSE3       010BBSEGURIDADEON      NM   R$  000000000291500000000029990000000002910000000000296700000000029850000000002980000000000298513180000000000004808700000000014268844800000000000000009999123100000010000000000000BRBBSEACNOR5106
012016071896BBSE3F      020BBSEGURIDADEON      NM   R$  000000000293800000000030000000000002914000000000296800000000029790000000002954000000000297900224000000000000004903000000000014554880000000000000009999123100000010000000000000BRBBSEACNOR5106
012016071862BBSE3T      030BBSEGURIDADEON      NM016R$  000000000298700000000029900000000002987000000000298900000000029900000000000000000000000000000004000000000000003000000000000008967484000000000000009999123100000010000000000000BRBBSEACNOR5106
012016071862BBSE3T      030BBSEGURIDADEON      NM030R$  000000000296400000000029650000000002964000000000296400000000029650000000000000000000000000000004000000000000020000000000000059290904000000000000009999123100000010000000000000BRBBSEACNOR5106
012016071862BBSE3T      030BBSEGURIDADEON      NM121R$  000000000310900000000031100000000003109000000000310900000000031100000000000000000000000000000002000000000000000100000000000000310918000000000000009999123100000010000000000000BRBBSEACNOR5106
012016071838BBSEG24E    012BBSE        ON      NM000R$  000000000231700000000023170000000002317000000000231700000000023170000000000000000000000000000001000000000000002000000000000004634000000000000231702016071800000010000000000000BRBBSEACNOR5106
012016071838BBSEG26E    012BBSE        ON      NM000R$  000000000251700000000025170000000002517000000000251700000000025170000000000000000000000000000003000000000000055700000000000140196900000000000251702016071800000010000000000000BRBBSEACNOR5106
012016071838BBSEG27E    012BBSE        ON      NM000R$  000000000261700000000026170000000002617000000000261700000000026170000000000000000000000000000018000000000000075800000000000198368600000000000261702016071800000010000000000000BRBBSEACNOR5106
012016071838BBSEG28E    012BBSE        ON      NM000R$  000000000281700000000028170000000002817000000000281700000000028170000000000000000000000000000020000000000000050700000000000142821900000000000281702016071800000010000000000000BRBBSEACNOR5106
012016071838BBSEG29E    012BBSEE       ON      NM000R$  000000000289200000000028920000000002892000000000289200000000028920000000000000000000000000000012000000000000018400000000000053212800000000000289202016071800000010000000000000BRBBSEACNOR5106
012016071838BBSEG54E    012BBSE        ON      NM000R$  000000000241700000000024170000000002417000000000241700000000024170000000000000000000000000000001000000000000000300000000000000725100000000000241702016071800000010000000000000BRBBSEACNOR5106
012016071838BBSEG57E    012BBSE        ON      NM000R$  000000000271700000000027170000000002717000000000271700000000027170000000000000000000000000000017000000000000060100000000000163291700000000000271702016071800000010000000000000BRBBSEACNOR5106
012016071838BBSEG59E    012BBSE        ON      NM000R$  000000000291700000000029170000000002917000000000291700000000029170000000000000000000000000000012000000000000048000000000000140016000000000000291702016071800000010000000000000BRBBSEACNOR5106
012016071838BBSEG64E    012BBSEE       ON      NM000R$  000000000234200000000023420000000002342000000000234200000000023420000000000000000000000000000001000000000000000100000000000000234200000000000234202016071800000010000000000000BRBBSEACNOR5106
012016071838BBSEG67E    012BBSEE       ON      NM000R$  000000000264200000000026420000000002642000000000264200000000026420000000000000000000000000000004000000000000210300000000000555612600000000000264202016071800000010000000000000BRBBSEACNOR5106
012016071838BBSEG74E    012BBSEE       ON      NM000R$  000000000239200000000023920000000002392000000000239200000000023920000000000000000000000000000003000000000000026600000000000063627200000000000239202016071800000010000000000000BRBBSEACNOR5106
012016071838BBSEG75E    012BBSEE       ON      NM000R$  000000000249200000000024920000000002492000000000249200000000024920000000000000000000000000000002000000000000020000000000000049840000000000000249202016071800000010000000000000BRBBSEACNOR5106
012016071838BBSEG7E     012BBSEE       ON      NM000R$  000000000279200000000027920000000002792000000000279200000000027920000000000000000000000000000008000000000000022500000000000062820000000000000279202016071800000010000000000000BRBBSEACNOR5106
012016071838BBSEG86E    012BBSE        ON      NM000R$  000000000266700000000026670000000002667000000000266700000000026670000000000000000000000000000006000000000000078600000000000209626200000000000266702016071800000010000000000000BRBBSEACNOR5106
012016071838BBSEG87E    012BBSE        ON      NM000R$  000000000276700000000027670000000002767000000000276700000000027670000000000000000000000000000016000000000000105500000000000291918500000000000276702016071800000010000000000000BRBBSEACNOR5106
012016071838BBSEG88E    012BBSE        ON      NM000R$  000000000286700000000028670000000002867000000000286700000000028670000000000000000000000000000016000000000000135000000000000387045000000000000286702016071800000010000000000000BRBBSEACNOR5106
012016071838BBSEG89E    012BBSEE       ON      NM000R$  000000000294200000000029420000000002942000000000294200000000029420000000000000000000000000000007000000000000026000000000000076492000000000000294202016071800000010000000000000BRBBSEACNOR5106
012016071838BBSEG97E    012BBSEE       ON      NM000R$  000000000274200000000027420000000002742000000000274200000000027420000000000000000000000000000006000000000000029800000000000081711600000000000274202016071800000010000000000000BRBBSEACNOR5106
012016071878BBSEH29     070BBSE        ON      NM000R$  000000000010000000000001420000000000100000000000012400000000001230000000000054000000000013500050000000000000038300000000000004776800000000000292902016081500000010000000000000BRBBSEACNOR5106
012016071878BBSEH30     070BBSE        ON      NM000R$  000000000007000000000000840000000000070000000000007600000000000780000000000077000000000009000016000000000000042400000000000003235200000000000302902016081500000010000000000000BRBBSEACNOR5106
012016071878BBSEH31     070BBSE        ON      NM000R$  000000000003000000000000490000000000030000000000004100000000000490000000000000000000000000000008000000000000012600000000000000521900000000000312902016081500000010000000000000BRBBSEACNOR5106
012016071878BBSEH57     070BBSE  FM    ON      NM000R$  000000000023800000000002380000000000238000000000023800000000002380000000000000000000000000000001000000000000001000000000000000238000000000000277902016081500000010000000000000BRBBSEACNOR5106
012016071878BBSEH59     070BBSE  FM    ON      NM000R$  000000000010000000000001000000000000099000000000009900000000000990000000000000000000000000000002000000000000002700000000000000269300000000000297902016081500000010000000000000BRBBSEACNOR5106
012016071878BBSEH60     070BBSE  FM    ON      NM000R$  000000000005200000000000560000000000046000000000004900000000000520000000000000000000000000000009000000000000031200000000000001547200000000000307902016081500000010000000000000BRBBSEACNOR5106
012016071878BBSEH70     070BBSEE       ON      NM000R$  000000000006300000000000630000000000062000000000006200000000000620000000000000000000000000000002000000000000008300000000000000519900000000000305402016081500000010000000000000BRBBSEACNOR5106
012016071878BBSEH79     070BBSEE       ON      NM000R$  000000000011600000000001160000000000116000000000011600000000001160000000000116000000000000000002000000000000000500000000000000058000000000000295402016081500000010000000000000BRBBSEACNOR5106
012016071878BBSEH89     070BBSEE       ON      NM000R$  000000000013400000000001340000000000134000000000013400000000001340000000000000000000000000000002000000000000010000000000000001340000000000000290402016081500000010000000000000BRBBSEACNOR5106
012016071878BBSEI80     070BBSE  FM    ON      NM000R$  000000000010700000000001070000000000107000000000010700000000001070000000000005000000000000000001000000000000000400000000000000042800000000000307902016091900000010000000000000BRBBSEACNOR5106
012016071878BBSEJ77     070BBSEE       ON      NM000R$  000000000034500000000003450000000000345000000000034500000000003450000000000100000000000000000001000000000000023200000000000008004000000000000277502016101700000010000000000000BRBBSEACNOR5106
012016071878BBSEJ89     070BBSEE       ON      NM000R$  000000000025500000000002550000000000255000000000025500000000002550000000000000000000000000000002000000000000208000000000000053040000000000000292502016101700000010000000000000BRBBSEACNOR5106
012016071878BBSEJ99     070BBSEE       ON      NM000R$  000000000000700000000000070000000000007000000000000700000000000070000000000000000000000000000002000000000000208000000000000001456000000000000392502016101700000010000000000000BRBBSEACNOR5106
012016071842BBSES60E    013BBSEE       ON      NM000R$  000000000306700000000030670000000003067000000000306700000000030670000000000000000000000000000002000000000000225000000000000690075000000000000306702016071800000010000000000000BRBBSEACNOR5106
012016071842BBSES66E    013BBSEE       ON      NM000R$  000000000364200000000036420000000003642000000000364200000000036420000000000000000000000000000001000000000000209000000000000761178000000000000364202016071800000010000000000000BRBBSEACNOR5106
012016071882BBSET56     080BBSEE FM    ON      NM000R$  000000000001600000000000160000000000016000000000001600000000000160000000000000000000000005500001000000000000000700000000000000011200000000000267902016081500000010000000000000BRBBSEACNOR5106
012016071882BBSET57     080BBSEE FM    ON      NM000R$  000000000003300000000000330000000000033000000000003300000000000330000000000000000000000000000001000000000000001000000000000000033000000000000277902016081500000010000000000000BRBBSEACNOR5106
012016071882BBSET7      080BBSEE       ON      NM000R$  000000000001500000000000150000000000015000000000001500000000000150000000000000000000000000000001000000000000020000000000000000300000000000000275402016081500000010000000000000BRBBSEACNOR5106
012016071882BBSET89     080BBSEE       ON      NM000R$  000000000005600000000000560000000000056000000000005600000000000560000000000000000000000000000001000000000000020000000000000001120000000000000290402016081500000010000000000000BRBBSEACNOR5106
012016071882BBSEU1      080BBSEE       ON      NM000R$  000000000000500000000000050000000000005000000000000500000000000050000000000000000000000000000001000000000000000100000000000000000500000000000235402016091900000010000000000000BRBBSEACNOR5104
012016071882BBSEU58     080BBSEE FM    ON      NM000R$  000000000007400000000000740000000000074000000000007400000000000740000000000000000000000000000001000000000000000200000000000000014800000000000287902016091900000010000000000000BRBBSEACNOR5106
012016071882BBSEU74     080BBSEE       ON      NM000R$  000000000000800000000000080000000000008000000000000800000000000080000000000000000000000000000001000000000000000100000000000000000800000000000227902016091900000010000000000000BRBBSEACNOR5104
012016071882BBSEV89     080BBSEE       ON      NM000R$  000000000009900000000000990000000000099000000000009900000000000990000000000000000000000000000002000000000000208000000000000020592000000000000292502016101700000010000000000000BRBBSEACNOR5106
012016071882BBSEV99     080BBSEE       ON      NM000R$  000000000081600000000008160000000000816000000000081600000000008160000000000000000000000000000002000000000000208000000000000169728000000000000392502016101700000010000000000000BRBBSEACNOR5106
012016071802BBTG11      010BTG PACTUAL UNT          R$  000000000174000000000017400000000001716000000000172400000000017250000000001724000000000172501134000000000000451300000000000778051600000000000000009999123100000010000000000000BRBBTGUNT007114
012016071896BBTG11F     020BTG PACTUAL UNT          R$  000000000174600000000017460000000001721000000000172300000000017220000000001718000000000172500006000000000000000204000000000000351688000000000000009999123100000010000000000000BRBBTGUNT007114
012016071812BBVJ11      010FII C JARDIMCI           R$  000000000535400000000053690000000005305000000000535800000000053690000000005300000000000536900014000000000000000368000000000001971833000000000000009999123100000010000000000000BRBBVJCTF001167
012016071812BCFF11B     010FII BC FFII CI  ER  MB   R$  000000000697500000000070090000000006965000000000699300000000069710000000006972000000000700900067000000000000003475000000000024300898000000000000009999123100000010000000000000BRBCFFCTF000176
012016071812BCIA11      010FII BCIA    CI           R$  000000001020000000000102000000000010200000000001020000000000102000000000010000000000001020000003000000000000000200000000000002040000000000000000009999123100000010000000000000BRBCIACTF005113
012016071812BCRI11      010FII BEES CRICI           R$  000000001020000000000102850000000010200000000001025600000000102300000000010230000000001028400027000000000000001149000000000011784671000000000000009999123100000010000000000000BRBCRICTF009112
012016071802BDLL4       010BARDELLA    PN           R$  000000000315000000000031500000000002850000000000301400000000028500000000002850000000000337500005000000000000000700000000000002110100000000000000009999123100000010000000000000BRBDLLACNPR8151
012016071802BEEF3       010MINERVA     ON      NM   R$  000000000089800000000009010000000000889000000000089400000000008950000000000894000000000089501533000000000000557900000000000498922900000000000000009999123100000010000000000000BRBEEFACNOR6106
012016071896BEEF3F      020MINERVA     ON      NM   R$  000000000095000000000009500000000000890000000000089800000000008950000000000891000000000090100021000000000000000535000000000000480951000000000000009999123100000010000000000000BRBEEFACNOR6106
012016071862BEEF3T      030MINERVA     ON      NM030R$  000000000090400000000009050000000000904000000000090400000000009050000000000000000000000000000002000000000000000700000000000000633454000000000000009999123100000010000000000000BRBEEFACNOR6106
012016071802BEES3       010BANESTES    ON           R$  000000000025000000000002550000000000241000000000025000000000002550000000000250000000000025500035000000000000061600000000000015455900000000000000009999123100000010000000000000BRBEESACNOR9283
012016071896BEES3F      020BANESTES    ON           R$  000000000024800000000002480000000000248000000000024800000000002480000000000231000000000025500001000000000000000080000000000000019840000000000000009999123100000010000000000000BRBEESACNOR9283
012016071802BEES4       010BANESTES    PN           R$  000000000026700000000002850000000000267000000000027600000000002850000000000285000000000030000005000000000000001900000000000000525800000000000000009999123100000010000000000000BRBEESACNPR6208
012016071896BEES4F      020BANESTES    PN           R$  000000000024400000000002500000000000244000000000024600000000002500000000000245000000000000000003000000000000000075000000000000018450000000000000009999123100000010000000000000BRBEESACNPR6208
012016071802BERK34      010BERKSHIRE   DRN          R$  000000004767000000000478920000000047420000000004783200000000476880000000042750000000005200000005000000000000003800000000000181761700000000000000009999123100000010000000000000BRBERKBDR002100
012016071896BERK34F     020BERKSHIRE   DRN          R$  000000004742700000000474270000000047427000000004742700000000474270000000000100000000000000000001000000000000000073000000000003462171000000000000009999123100000010000000000000BRBERKBDR002100
012016071802BGIP4       010BANESE      PN           R$  000000000124100000000012970000000001241000000000125800000000012970000000001260000000000134900004000000000000002200000000000002769400000000000000009999123100000010000000000000BRBGIPACNPR8186
012016071896BGIP4F      020BANESE      PN           R$  000000000127000000000012700000000001270000000000127000000000012700000000001270000000000139800001000000000000000005000000000000006350000000000000009999123100000010000000000000BRBGIPACNPR8186
012016071802BIIB34      010BIOGEN      DRN          R$  000000001414900000000141490000000014149000000001414900000000141490000000000000000000000000000003000000000000000800000000000011319200000000000000009999123100000010000000000000BRBIIBBDR001100
012016071896BIIB34F     020BIOGEN      DRN          R$  000000001414900000000141490000000014149000000001414900000000141490000000000000000000000000000001000000000000000047000000000000665003000000000000009999123100000010000000000000BRBIIBBDR001100
012016071802BMEB3       010MERC BRASIL ON           R$  000000000061000000000006100000000000610000000000061000000000006100000000000610000000000082000001000000000000000100000000000000061000000000000000009999123100000010000000000000BRBMEBACNOR8192
012016071802BMEB4       010MERC BRASIL PN           R$  000000000053000000000005300000000000530000000000053000000000005300000000000520000000000053000005000000000000002500000000000001325000000000000000009999123100000010000000000000BRBMEBACNPR5195
012016071896BMEB4F      020MERC BRASIL PN           R$  000000000051700000000005170000000000517000000000051700000000005170000000000517000000000054500001000000000000000021000000000000010857000000000000009999123100000010000000000000BRBMEBACNPR5195
012016071802BMIN4       010MERC INVEST PN           R$  000000000002900000000000320000000000029000000000003000000000000290000000000029000000000003000019000000000000053000000000000001626000000000000000009999123100000010000000000000BRBMINACNPR1165
012016071812BMLC11B     010FII BMBRC LCCI  ER  MB   R$  000000000856600000000087190000000008566000000000862400000000086000000000008600000000000872000019000000000000001705000000000014704465000000000000009999123100000010000000000000BRBMLCCTF004153
012016071802BMTO3       010BRASMOTOR   ON           R$  000000000070500000000007050000000000705000000000070500000000007050000000000700000000000072000001000000000000000100000000000000070500000000000000009999123100000010000000000000BRBMTOACNOR9186
012016071802BMTO4       010BRASMOTOR   PN           R$  000000000072700000000007270000000000707000000000071200000000007120000000000708000000000072900006000000000000000600000000000000427200000000000000009999123100000010000000000000BRBMTOACNPR6071
012016071896BMTO4F      020BRASMOTOR   PN           R$  000000000070200000000007020000000000702000000000070200000000007020000000000705000000000072900002000000000000000063000000000000044226000000000000009999123100000010000000000000BRBMTOACNPR6071
012016071812BNFS11      010FII BANRISULCI           R$  000000001050000000000105000000000010500000000001050000000000105000000000010500000000001060000002000000000000000002000000000000021000000000000000009999123100000010000000000000BRBNFSCTF000146
012016071802BOAC34      010BANK AMERICADRN          R$  000000000458400000000045840000000004581000000000458200000000045810000000004558000000000463000004000000000000002400000000000010997400000000000000009999123100000010000000000000BRBOACBDR004123
012016071896BOAC34F     020BANK AMERICADRN          R$  000000000458100000000045810000000004581000000000458100000000045810000000004400000000000000000001000000000000000075000000000000343575000000000000009999123100000010000000000000BRBOACBDR004123
012016071802BOBR4       010BOMBRIL     PN           R$  000000000015800000000001580000000000158000000000015800000000001580000000000152000000000016000001000000000000000700000000000000110600000000000000009999123100000010000000000000BRBOBRACNPR3128
012016071896BOBR4F      020BOMBRIL     PN           R$  000000000016000000000001600000000000160000000000016000000000001600000000000152000000000018000001000000000000000030000000000000004800000000000000009999123100000010000000000000BRBOBRACNPR3128
012016071814BOVA11      010ISHARES BOVACI           R$  000000000537300000000054880000000005360000000000545800000000054880000000005476000000000548808528000000000003356530000000018320477760000000000000009999123100000010000000000000BRBOVACTF003102
012016071896BOVA11F     020ISHARES BOVACI           R$  000000000550000000000055000000000005395000000000544500000000054350000000005435000000000565400023000000000000000110000000000000599024000000000000009999123100000010000000000000BRBOVACTF003102
012016071838BOVAG47E    012BOVA        CI        000R$  000000000470000000000047000000000004700000000000470000000000047000000000000000000000000000000002000000000000016100000000000075670000000000000470002016071800000010000000000000BRBOVACTF003102
012016071838BOVAG48E    012BOVA        CI        000R$  000000000480000000000048000000000004800000000000480000000000048000000000000000000000000000000004000000000000056630000000000271824000000000000480002016071800000010000000000000BRBOVACTF003102
012016071838BOVAG49E    012BOVA        CI        000R$  000000000490000000000049000000000004900000000000490000000000049000000000000000000000000000000006000000000000027710000000000135779000000000000490002016071800000010000000000000BRBOVACTF003102
012016071838BOVAG50E    012BOVA        CI        000R$  000000000500000000000050000000000005000000000000500000000000050000000000000000000000000000000016000000000000061430000000000307150000000000000500002016071800000010000000000000BRBOVACTF003102
012016071838BOVAG51E    012BOVA        CI        000R$  000000000510000000000051000000000005100000000000510000000000051000000000000000000000000000000024000000000000139260000000000710226000000000000510002016071800000010000000000000BRBOVACTF003102
012016071838BOVAG52E    012BOVA        CI        000R$  000000000520000000000052000000000005200000000000520000000000052000000000000000000000000000000012000000000000019770000000000102804000000000000520002016071800000010000000000000BRBOVACTF003102
012016071838BOVAG53E    012BOVA        CI        000R$  000000000530000000000053000000000005300000000000530000000000053000000000000000000000000000000007000000000000080000000000000424000000000000000530002016071800000010000000000000BRBOVACTF003102
012016071838BOVAG54E    012BOVA        CI        000R$  000000000540000000000054000000000005400000000000540000000000054000000000000000000000000000000005000000000000030010000000000162054000000000000540002016071800000010000000000000BRBOVACTF003102
012016071878BOVAH50     070BOVA        CI        000R$  000000000048500000000004850000000000485000000000048500000000004850000000000000000000000000000001000000000000000120000000000000058200000000000500002016081500000010000000000000BRBOVACTF003102
012016071878BOVAH52     070BOVA  FM    CI        000R$  000000000030700000000003500000000000307000000000033200000000003500000000000000000000000000000003000000000000003000000000000000996000000000000520002016081500000010000000000000BRBOVACTF003102
012016071878BOVAH53     070BOVA  FM    CI        000R$  000000000020200000000002830000000000202000000000021600000000002830000000000000000000000000000003000000000000003200000000000000691300000000000530002016081500000010000000000000BRBOVACTF003102
012016071878BOVAH54     070BOVA  FM    CI        000R$  000000000015500000000002100000000000155000000000018300000000002100000000000180000000000000000007000000000000008100000000000001484500000000000540002016081500000010000000000000BRBOVACTF003102
012016071878BOVAH55     070BOVA  FM    CI        000R$  000000000010100000000001480000000000101000000000012100000000001480000000000000000000000000000005000000000000007800000000000000947300000000000550002016081500000010000000000000BRBOVACTF003102
012016071878BOVAH56     070BOVA  FM    CI        000R$  000000000009700000000000970000000000090000000000009200000000000900000000000069000000000000000002000000000000006000000000000000554000000000000560002016081500000010000000000000BRBOVACTF003102
012016071878BOVAI52     070BOVA  FM    CI        000R$  000000000045100000000004510000000000451000000000045100000000004510000000000000000000000000000001000000000000002500000000000001127500000000000520002016091900000010000000000000BRBOVACTF003102
012016071878BOVAI54     070BOVA  FM    CI        000R$  000000000024000000000002400000000000240000000000024000000000002400000000000000000000000000000001000000000000002500000000000000600000000000000540002016091900000010000000000000BRBOVACTF003102
012016071878BOVAI55     070BOVA  FM    CI        000R$  000000000018700000000001870000000000187000000000018700000000001870000000000000000000000000000001000000000000002500000000000000467500000000000550002016091900000010000000000000BRBOVACTF003102
012016071878BOVAI56     070BOVA  FM    CI        000R$  000000000014100000000001410000000000141000000000014100000000001410000000000000000000000000000001000000000000002500000000000000352500000000000560002016091900000010000000000000BRBOVACTF003102
012016071882BOVAT50     080BOVAE       CI        000R$  000000000001300000000000150000000000013000000000001400000000000150000000000000000000000000000002000000000000002700000000000000038100000000000500002016081500000010000000000000BRBOVACTF003102
012016071882BOVAT53     080BOVAE FM    CI        000R$  000000000008200000000000820000000000048000000000006000000000000480000000000000000000000000000013000000000000007090000000000000426750000000000530002016081500000010000000000000BRBOVACTF003102
012016071882BOVAT54     080BOVAE FM    CI        000R$  000000000010100000000001010000000000101000000000010100000000001010000000000000000000000000000001000000000000000070000000000000007070000000000540002016081500000010000000000000BRBOVACTF003102
012016071882BOVAU51     080BOVAE FM    CI        000R$  000000000007400000000000740000000000071000000000007200000000000710000000000000000000000000000002000000000000005000000000000000362500000000000510002016091900000010000000000000BRBOVACTF003102
012016071882BOVAU52     080BOVAE FM    CI        000R$  000000000009500000000000950000000000095000000000009500000000000950000000000000000000000000000001000000000000002500000000000000237500000000000520002016091900000010000000000000BRBOVACTF003102
012016071802BOXP34      010BOSTON PROP DRN          R$  000000000439000000000043900000000004390000000000439000000000043900000000004390000000000446200001000000000000000600000000000002634000000000000000009999123100000010000000000000BRBOXPBDR008104
012016071896BOXP34F     020BOSTON PROP DRN          R$  000000000439000000000043900000000004390000000000439000000000043900000000000000000000000000000001000000000000000003000000000000013170000000000000009999123100000010000000000000BRBOXPBDR008104
012016071802BPAN4       010BANCO PAN   PN      N1   R$  000000000014800000000001480000000000145000000000014700000000001460000000000145000000000014800007000000000000012300000000000001809400000000000000009999123100000010000000000000BRBPANACNPR1104
012016071896BPAN4F      020BANCO PAN   PN      N1   R$  000000000014600000000001460000000000145000000000014500000000001450000000000145000000000014800002000000000000000070000000000000010168000000000000009999123100000010000000000000BRBPANACNPR1104
012016071862BPAN4T      030BANCO PAN   PN      N1182R$  000000000015800000000001590000000000158000000000015800000000001590000000000000000000000000000002000000000000005000000000000000792096000000000000009999123100000010000000000000BRBPANACNPR1104
012016071812BPFF11      010FII ABSOLUTOCI           R$  000000000799000000000080000000000007910000000000798700000000079540000000007954000000000800000030000000000000001986000000000015863241000000000000009999123100000010000000000000BRBPFFCTF002139
012016071802BPHA3       010BR PHARMA   ON      NM   R$  000000000055500000000006060000000000542000000000058000000000006060000000000603000000000060600393000000000000196600000000000114032000000000000000009999123100000010000000000000BRBPHAACNOR6104
012016071896BPHA3F      020BR PHARMA   ON      NM   R$  000000000055500000000006980000000000555000000000059600000000005960000000000559000000000059800014000000000000000262000000000000156211000000000000009999123100000010000000000000BRBPHAACNOR6104
012016071862BPHA3T      030BR PHARMA   ON      NM016R$  000000000059800000000005990000000000598000000000059800000000005990000000000000000000000000000002000000000000002000000000000001196164000000000000009999123100000010000000000000BRBPHAACNOR6104
012016071862BPHA3T      030BR PHARMA   ON      NM030R$  000000000059600000000005970000000000596000000000059600000000005970000000000000000000000000000002000000000000001000000000000000596431000000000000009999123100000010000000000000BRBPHAACNOR6104
012016071802BRAP3       010BRADESPAR   ON      N1   R$  000000000085000000000008710000000000848000000000085800000000008710000000000860000000000088000011000000000000002700000000000002318600000000000000009999123100000010000000000000BRBRAPACNOR5129
012016071896BRAP3F      020BRADESPAR   ON      N1   R$  000000000084000000000008570000000000840000000000084500000000008570000000000857000000000088000002000000000000000046000000000000038912000000000000009999123100000010000000000000BRBRAPACNOR5129
012016071802BRAP4       010BRADESPAR   PN      N1   R$  000000000100300000000010410000000000993000000000101200000000010360000000001035000000000103605436000000000001759800000000001782615500000000000000009999123100000010000000000000BRBRAPACNPR2129
012016071896BRAP4F      020BRADESPAR   PN      N1   R$  000000000100000000000010390000000000996000000000101800000000010280000000001028000000000104000042000000000000000968000000000000985875000000000000009999123100000010000000000000BRBRAPACNPR2129
012016071838BRAPG38E    012BRAP        PN      N1000R$  000000000038000000000003800000000000380000000000038000000000003800000000000000000000000000000004000000000000035100000000000013338000000000000038002016071800000010000000000000BRBRAPACNPR2129
012016071814BRAX11      010ISHARES BRAXCI           R$  000000000458500000000046050000000004585000000000460100000000046050000000000000000000000000000003000000000000000180000000000000828300000000000000009999123100000010000000000000BRBRAXCTF002100
012016071812BRCR11      010FII BC FUND CI  ER       R$  000000000903900000000092500000000009005000000000911300000000092500000000009209000000000925000846000000000000050113000000000456727843000000000000009999123100000010000000000000BRBRCRCTF000167
012016071802BRFS3       010BRF SA      ON  EJ  NM   R$  000000000502000000000050970000000004983000000000505300000000050970000000005065000000000509808301000000000001648300000000008330368900000000000000009999123100000010000000000000BRBRFSACNOR8117
012016071896BRFS3F      020BRF SA      ON  EJ  NM   R$  000000000503900000000051000000000004994000000000505400000000051000000000005080000000000510000113000000000000002824000000000014278092000000000000009999123100000010000000000000BRBRFSACNOR8117
012016071862BRFS3T      030BRF SA      ON  EJ  NM060R$  000000000515400000000051550000000005154000000000515400000000051550000000000000000000000000000002000000000000000400000000000002061785000000000000009999123100000010000000000000BRBRFSACNOR8117
012016071838BRFSG13E    012BRFS    /EJ ON      NM000R$  000000000432900000000043290000000004329000000000432900000000043290000000000000000000000000000005000000000000073000000000000316017000000000000432902016071800000010000000000000BRBRFSACNOR8117
012016071838BRFSG14E    012BRFS    /EJ ON      NM000R$  000000000487900000000048790000000004879000000000487900000000048790000000000000000000000000000121000000000000166200000000000810889800000000000487902016071800000010000000000000BRBRFSACNOR8117
012016071838BRFSG15E    012BRFS    /EJ ON      NM000R$  000000000452900000000045290000000004529000000000452900000000045290000000000000000000000000000023000000000000032000000000000144928000000000000452902016071800000010000000000000BRBRFSACNOR8117
012016071838BRFSG16E    012BRFS    /EJ ON      NM000R$  000000000462900000000046290000000004629000000000462900000000046290000000000000000000000000000005000000000000016500000000000076378500000000000462902016071800000010000000000000BRBRFSACNOR8117
012016071838BRFSG17E    012BRFS    /EJ ON      NM000R$  000000000472900000000047290000000004729000000000472900000000047290000000000000000000000000000013000000000000039800000000000188214200000000000472902016071800000010000000000000BRBRFSACNOR8117
