00COTAHIST.2016BOVESPA 20160713                                                                                                                                                                                                                      
012016071302AAPL34      010APPLE       DRN          R$  000000000319900000000031990000000003161000000000318600000000031610000000003141000000000319900002000000000000000300000000000000955900000000000000009999123100000010000000000000BRAAPLBDR004117
012016071310ABCB2       010ABC BRASIL  DIR PRE N2   R$  000000000038500000000004280000000000385000000000040600000000004180000000000405000000000042600117000000000000026700000000000010857700000000000000009999123100000010000000000000BRABCBD09PR2125
012016071396ABCB2F      020ABC BRASIL  DIR PRE N2   R$  000000000038000000000004280000000000380000000000040000000000004050000000000405000000000041900042000000000000001188000000000000475201000000000000009999123100000010000000000000BRABCBD09PR2125
012016071302ABCB4       010ABC BRASIL  PN      N2   R$  000000000137900000000014000000000001351000000000138500000000013910000000001391000000000139500907000000000000161000000000000222987700000000000000009999123100000010000000000000BRABCBACNPR4126
012016071396ABCB4F      020ABC BRASIL  PN      N2   R$  000000000136300000000013990000000001363000000000138600000000013990000000001387000000000139900022000000000000000411000000000000569935000000000000009999123100000010000000000000BRABCBACNPR4126
012016071312ABCP11      010FII ABC IMOBCI           R$  000000000105600000000011680000000001024000000000106800000000010240000000001025000000000112600016000000000000000356000000000000380274000000000000009999123100000010000000000000BRABCPCTF000249
012016071302ABEV3       010AMBEV S/A   ON  ED       R$  000000000191500000000019220000000001902000000000190900000000019100000000001910000000000191123700000000000011305800000000021586690700000000000000009999123100000010000000000000BRABEVACNOR1113
012016071396ABEV3F      020AMBEV S/A   ON  ED       R$  000000000191700000000019200000000001902000000000190900000000019100000000001907000000000191000132000000000000003178000000000006068974000000000000009999123100000010000000000000BRABEVACNOR1113
012016071378ABEVA50     070ABEV    /ED ON        000R$  000000000006800000000000680000000000068000000000006800000000000680000000000000000000000000000009000000000000017600000000000001196800000000000207602017011600000010000000000000BRABEVACNOR1112
012016071378ABEVB2      070ABEVE   /ED ON        000R$  000000000006700000000000740000000000063000000000006500000000000740000000000000000000000000000168000000000000450600000000000029390900000000000210102017022000000010000000000000BRABEVACNOR1111
012016071378ABEVB61     070ABEV    /ED ON        000R$  000000000006400000000000640000000000064000000000006400000000000640000000000000000000000000000013000000000000019500000000000001248000000000000212602017022000000010000000000000BRABEVACNOR1112
012016071378ABEVB93     070ABEVE   /ED ON        000R$  000000000012400000000001240000000000124000000000012400000000001240000000000000000000000000000011000000000000013000000000000001612000000000000200102017022000000010000000000000BRABEVACNOR1111
012016071378ABEVG20     070ABEV    /ED ON        000R$  000000000000900000000000090000000000005000000000000700000000000050000000000004000000000000600035000000000000021700000000000000158700000000000193202016071800000010000000000000BRABEVACNOR1107
012016071378ABEVG38     070ABEV    /ED ON        000R$  000000000004100000000000420000000000031000000000003600000000000340000000000025000000000003600015000000000000011700000000000000426000000000000188202016071800000010000000000000BRABEVACNOR1112
012016071378ABEVG50     070ABEV    /ED ON        000R$  000000000000100000000000010000000000001000000000000100000000000010000000000000000000000005000004000000000000272400000000000000272400000000000198202016071800000010000000000000BRABEVACNOR1107
012016071378ABEVG68     070ABEV    /ED ON        000R$  000000000009000000000000900000000000090000000000009000000000000900000000000021000000000012700001000000000000000200000000000000018000000000000183202016071800000010000000000000BRABEVACNOR1109
012016071378ABEVG78     070ABEVE   /ED ON        000R$  000000000006000000000000600000000000055000000000005800000000000580000000000049000000000000000005000000000000000600000000000000035000000000000185702016071800000010000000000000BRABEVACNOR1112
012016071378ABEVG92     070ABEVE   /ED ON        000R$  000000000001500000000000200000000000013000000000001600000000000160000000000015000000000006800007000000000000006100000000000000100800000000000190702016071800000010000000000000BRABEVACNOR1112
012016071378ABEVG99     070ABEVE   /ED ON        000R$  000000000000300000000000030000000000003000000000000300000000000030000000000001000000000001300002000000000000030000000000000000090000000000000195702016071800000010000000000000BRABEVACNOR1112
012016071378ABEVH18     070ABEV  FM/ED ON        000R$  000000000006900000000000690000000000061000000000006700000000000610000000000000000000000007000002000000000000004500000000000000304100000000000188202016081500000010000000000000BRABEVACNOR1112
012016071378ABEVH19     070ABEV  FM/ED ON        000R$  000000000004200000000000420000000000030000000000003300000000000300000000000025000000000003500032000000000000052400000000000001781300000000000193202016081500000010000000000000BRABEVACNOR1112
012016071378ABEVH20     070ABEV    /ED ON        000R$  000000000000800000000000080000000000007000000000000700000000000070000000000000000000000000000002000000000000007000000000000000053700000000000203202016081500000010000000000000BRABEVACNOR1112
012016071378ABEVH21     070ABEV  FM/ED ON        000R$  000000000000300000000000030000000000003000000000000300000000000030000000000002000000000000000002000000000000004000000000000000012000000000000208202016081500000010000000000000BRABEVACNOR1112
012016071378ABEVH49     070ABEV  FM/ED ON        000R$  000000000001900000000000190000000000012000000000001200000000000120000000000009000000000002800003000000000000884300000000000010637700000000000198202016081500000010000000000000BRABEVACNOR1112
012016071378ABEVH63     070ABEV    /ED ON        000R$  000000000029700000000002970000000000295000000000029600000000002950000000000000000000000000000002000000000000000200000000000000059200000000000163202016081500000010000000000000BRABEVACNOR1109
012016071378ABEVH64     070ABEVE   /ED ON        000R$  000000000004700000000000500000000000045000000000004700000000000450000000000010000000000004500004000000000000022200000000000001053400000000000190702016081500000010000000000000BRABEVACNOR1109
012016071378ABEVH70     070ABEVE   /ED ON        000R$  000000000000400000000000040000000000004000000000000400000000000040000000000001000000000000000001000000000000005000000000000000020000000000000205702016081500000010000000000000BRABEVACNOR1112
012016071378ABEVI19     070ABEV  FM/ED ON        000R$  000000000006000000000000600000000000060000000000006000000000000600000000000000000000000000000001000000000000150000000000000009000000000000000193202016091900000010000000000000BRABEVACNOR1112
012016071378ABEVJ20     070ABEV    /ED ON        000R$  000000000005300000000000530000000000043000000000004400000000000440000000000000000000000000000004000000000000399000000000000017793000000000000199802016101700000010000000000000BRABEVACNOR1112
012016071378ABEVJ22     070ABEV    /ED ON        000R$  000000000000600000000000060000000000006000000000000600000000000060000000000000000000000000000001000000000000072000000000000000432000000000000219802016101700000010000000000000BRABEVACNOR1112
012016071378ABEVJ49     070ABEV    /ED ON        000R$  000000000008500000000000850000000000085000000000008500000000000850000000000000000000000000000001000000000000027000000000000002295000000000000194802016101700000010000000000000BRABEVACNOR1112
012016071378ABEVJ57     070ABEV    /ED ON        000R$  000000000026000000000002600000000000260000000000026000000000002600000000000000000000000000000001000000000000027000000000000007020000000000000174802016101700000010000000000000BRABEVACNOR1112
012016071378ABEVJ59     070ABEVE   /ED ON        000R$  000000000005700000000000570000000000057000000000005700000000000570000000000000000000000000000001000000000000072000000000000004104000000000000197302016101700000010000000000000BRABEVACNOR1112
012016071378ABEVJ60     070ABEVE   /ED ON        000R$  000000000004200000000000420000000000042000000000004200000000000420000000000000000000000000000001000000000000027000000000000001134000000000000202302016101700000010000000000000BRABEVACNOR1112
012016071378ABEVJ67     070ABEVE   /ED ON        000R$  000000000027200000000002720000000000272000000000027200000000002720000000000000000000000000000001000000000000072000000000000019584000000000000172302016101700000010000000000000BRABEVACNOR1112
012016071378ABEVJ68     070ABEV    /ED ON        000R$  000000000018800000000001880000000000188000000000018800000000001880000000000000000000000000000001000000000000027000000000000005076000000000000179802016101700000010000000000000BRABEVACNOR1109
012016071378ABEVJ77     070ABEVE   /ED ON        000R$  000000000020000000000002000000000000200000000000020000000000002000000000000000000000000000000001000000000000072000000000000014400000000000000177302016101700000010000000000000BRABEVACNOR1112
012016071378ABEVJ82     070ABEVE   /ED ON        000R$  000000000000500000000000060000000000005000000000000500000000000060000000000000000000000000000002000000000000035000000000000000183000000000000222302016101700000010000000000000BRABEVACNOR1109
012016071378ABEVJ99     070ABEVE   /ED ON        000R$  000000000009000000000000900000000000090000000000009000000000000900000000000000000000000000000001000000000000072000000000000006480000000000000192302016101700000010000000000000BRABEVACNOR1110
012016071378ABEVL21     070ABEV    /ED ON        000R$  000000000004900000000000510000000000049000000000005000000000000510000000000000000000000000000011000000000000020000000000000001003400000000000209802016121900000010000000000000BRABEVACNOR1112
012016071378ABEVL3      070ABEVE       ON        000R$  000000000010100000000001010000000000081000000000008100000000001010000000000000000000000000000006000000000000051300000000000004165100000000000236202017121800000010000000000000BRABEVACNOR1113
012016071378ABEVL63     070ABEVE   /ED ON        000R$  000000000012000000000001210000000000118000000000011900000000001180000000000000000000000000000003000000000000125200000000000014953000000000000231202017121800000010000000000000BRABEVACNOR1112
012016071378ABEVL80     070ABEVE   /ED ON        000R$  000000000009800000000000980000000000098000000000009800000000000980000000000000000000000000000001000000000000020000000000000001960000000000000197302016121900000010000000000000BRABEVACNOR1110
012016071378ABEVL81     070ABEVE   /ED ON        000R$  000000000019600000000001960000000000196000000000019600000000001960000000000000000000000000000001000000000000010000000000000001960000000000000187302016121900000010000000000000BRABEVACNOR1110
012016071378ABEVL91     070ABEVE   /ED ON        000R$  000000000005600000000000590000000000056000000000005700000000000590000000000000000000000000000002000000000000000200000000000000011500000000000207302016121900000010000000000000BRABEVACNOR1110
012016071382ABEVS20     080ABEVE   /ED ON        000R$  000000000002500000000000290000000000024000000000002500000000000260000000000000000000000000000036000000000000027000000000000000693600000000000193202016071800000010000000000000BRABEVACNOR1107
012016071382ABEVS38     080ABEVE   /ED ON        000R$  000000000000400000000000060000000000004000000000000400000000000060000000000002000000000000400013000000000000051000000000000000206000000000000188202016071800000010000000000000BRABEVACNOR1112
012016071382ABEVS68     080ABEVE   /ED ON        000R$  000000000000100000000000010000000000001000000000000100000000000010000000000000000000000002500004000000000000218000000000000000218000000000000183202016071800000010000000000000BRABEVACNOR1109
012016071382ABEVS92     080ABEVE   /ED ON        000R$  000000000001500000000000160000000000015000000000001500000000000160000000000000000000000001500008000000000000133400000000000002101600000000000190702016071800000010000000000000BRABEVACNOR1112
012016071382ABEVS99     080ABEVE   /ED ON        000R$  000000000004500000000000450000000000045000000000004500000000000450000000000000000000000000000001000000000000002500000000000000112500000000000195702016071800000010000000000000BRABEVACNOR1112
012016071382ABEVT18     080ABEVE FM/ED ON        000R$  000000000002000000000000200000000000016000000000001600000000000170000000000000000000000002100003000000000000880500000000000014738400000000000188202016081500000010000000000000BRABEVACNOR1112
012016071382ABEVT19     080ABEVE FM/ED ON        000R$  000000000003600000000000390000000000036000000000003800000000000370000000000000000000000000000004000000000000002500000000000000097000000000000193202016081500000010000000000000BRABEVACNOR1112
012016071382ABEVT47     080ABEVE   /ED ON        000R$  000000000000300000000000030000000000003000000000000300000000000030000000000000000000000001000001000000000000001500000000000000004500000000000173202016081500000010000000000000BRABEVACNOR1112
012016071382ABEVT48     080ABEVE   /ED ON        000R$  000000000000400000000000050000000000004000000000000400000000000050000000000000000000000000000002000000000000880000000000000003938000000000000180702016081500000010000000000000BRABEVACNOR1111
012016071382ABEVT69     080ABEVE FM/ED ON        000R$  000000000001000000000000100000000000010000000000001000000000000100000000000000000000000000000001000000000000001000000000000000010000000000000183202016081500000010000000000000BRABEVACNOR1107
012016071382ABEVT78     080ABEVE   /ED ON        000R$  000000000001000000000000100000000000010000000000001000000000000100000000000000000000000002400001000000000000001000000000000000010000000000000185702016081500000010000000000000BRABEVACNOR1112
012016071382ABEVT79     080ABEVE   /ED ON        000R$  000000000005400000000000570000000000054000000000005400000000000570000000000050000000000000000003000000000000006200000000000000337800000000000195702016081500000010000000000000BRABEVACNOR1111
012016071382ABEVV15     080ABEVE   /ED ON        000R$  000000000000100000000000010000000000001000000000000100000000000010000000000000000000000000000001000000000000072000000000000000072000000000000149802016101700000010000000000000BRABEVACNOR1112
012016071382ABEVV67     080ABEVE   /ED ON        000R$  000000000000800000000000080000000000008000000000000800000000000080000000000000000000000000000001000000000000027000000000000000216000000000000172302016101700000010000000000000BRABEVACNOR1112
012016071382ABEVV75     080ABEVE   /ED ON        000R$  000000000000100000000000010000000000001000000000000100000000000010000000000000000000000000000001000000000000027000000000000000027000000000000152302016101700000010000000000000BRABEVACNOR1112
012016071382ABEVV87     080ABEVE   /ED ON        000R$  000000000000500000000000050000000000005000000000000500000000000050000000000000000000000000000001000000000000072000000000000000360000000000000169802016101700000010000000000000BRABEVACNOR1110
012016071382ABEVX79     080ABEVE       ON        000R$  000000000010000000000001190000000000100000000000011800000000001190000000000000000000000000000002000000000000070300000000000008363800000000000191202017121800000010000000000000BRABEVACNOR1113
012016071382ABEVX9      080ABEVE   /ED ON        000R$  000000000008700000000001170000000000079000000000009800000000001170000000000000000000000000000006000000000000106000000000000010484600000000000188702017121800000010000000000000BRABEVACNOR1112
012016071302ACNB34      010ACCENTURE   DRN          R$  000000003833000000000383300000000038330000000003833000000000383300000000000000000000000000000001000000000000000200000000000007666000000000000000009999123100000010000000000000BRACNBBDR006102
012016071312AEFI11      010FII AESAPAR CI           R$  000000001246100000000127000000000012460000000001256700000000127000000000012601000000001269900055000000000000002292000000000028804609000000000000009999123100000010000000000000BRAEFICTF002155
012016071302AELP3       010AES ELPA    ON           R$  000000000092900000000009300000000000906000000000092900000000009060000000000822000000000090600012000000000000007800000000000007250500000000000000009999123100000010000000000000BRAELPACNOR2123
012016071312AGCX11      010FII AG CAIXACI           R$  000000010380000000001038000000000103400000000010364300000001036010000000103700000000010380000045000000000000000277000000000028709293000000000000009999123100000010000000000000BRAGCXCTF003144
012016071302AGRO3       010BRASILAGRO  ON      NM   R$  000000000126100000000012700000000001221000000000124500000000012210000000001221000000000124100258000000000000065100000000000081079300000000000000009999123100000010000000000000BRAGROACNOR7104
012016071396AGRO3F      020BRASILAGRO  ON      NM   R$  000000000125300000000012610000000001245000000000125300000000012450000000001245000000000134900010000000000000000313000000000000392389000000000000009999123100000010000000000000BRAGROACNOR7104
012016071312ALMI11B     010FII TORRE ALCI      MB   R$  000000018060000000001816000000000180600000000018135600000001816000000000180600000000018160000011000000000000000037000000000006710200000000000000009999123100000010000000000000BRALMICTF003239
012016071302ALPA3       010ALPARGATAS  ON      N1   R$  000000000103400000000010360000000001034000000000103500000000010360000000001020000000000103600008000000000000005800000000000006003000000000000000009999123100000010000000000000BRALPAACNOR0217
012016071302ALPA4       010ALPARGATAS  PN      N1   R$  000000000100100000000010750000000000994000000000106000000000010720000000001072000000000107504485000000000001118600000000001186517800000000000000009999123100000010000000000000BRALPAACNPR7217
012016071396ALPA4F      020ALPARGATAS  PN      N1   R$  000000000103300000000010750000000001005000000000104200000000010750000000001072000000000107500033000000000000000604000000000000629761000000000000009999123100000010000000000000BRALPAACNPR7217
012016071362ALPA4T      030ALPARGATAS  PN      N1030R$  000000000108400000000010850000000001084000000000108400000000010850000000000000000000000000000002000000000000002000000000000002168898000000000000009999123100000010000000000000BRALPAACNPR7217
012016071302ALSC3       010ALIANSCE    ON      NM   R$  000000000143200000000014440000000001406000000000143200000000014440000000001430000000000144400835000000000000159900000000000229034600000000000000009999123100000010000000000000BRALSCACNOR0109
012016071396ALSC3F      020ALIANSCE    ON      NM   R$  000000000148200000000014820000000001415000000000143400000000014320000000001400000000000144100017000000000000000494000000000000708742000000000000009999123100000010000000000000BRALSCACNOR0109
012016071302ALUP11      010ALUPAR      UNT     N2   R$  000000000149100000000015010000000001473000000000148500000000014930000000001482000000000149301264000000000000287000000000000426456600000000000000009999123100000010000000000000BRALUPCDAM15105
012016071396ALUP11F     020ALUPAR      UNT     N2   R$  000000000148800000000015000000000001475000000000148400000000014810000000001475000000000150000032000000000000000895000000000001328879000000000000009999123100000010000000000000BRALUPCDAM15105
012016071310ALUP12      010ALUPAR      DIR UNT N2   R$  000000000024800000000002500000000000230000000000024000000000002490000000000236000000000024500046000000000000018600000000000004480900000000000000009999123100000010000000000000BRALUPD01M10104
012016071396ALUP12F     020ALUPAR      DIR UNT N2   R$  000000000025000000000002500000000000223000000000023500000000002300000000000220000000000025000042000000000000001063000000000000250501000000000000009999123100000010000000000000BRALUPD01M10104
012016071378ALUPI74     070ALUPE       UNT     N2000R$  000000000007600000000000760000000000076000000000007600000000000760000000000000000000000000000002000000000000050000000000000003800000000000000146502016091900000010000000000000BRALUPCDAM15105
012016071382ALUPU74     080ALUPE       UNT     N2000R$  000000000004500000000000450000000000045000000000004500000000000450000000000000000000000000000001000000000000050000000000000002250000000000000146502016091900000010000000000000BRALUPCDAM15105
012016071302AMAR3       010LOJAS MARISAON      NM   R$  000000000080000000000008080000000000794000000000080000000000007990000000000797000000000079900624000000000000176400000000000141138300000000000000009999123100000010000000000000BRAMARACNOR4112
012016071396AMAR3F      020LOJAS MARISAON      NM   R$  000000000080100000000008010000000000801000000000080100000000008010000000000669000000000083000001000000000000000025000000000000020025000000000000009999123100000010000000000000BRAMARACNOR4112
012016071362AMAR3T      030LOJAS MARISAON      NM016R$  000000000080900000000008100000000000809000000000080900000000008100000000000000000000000000000004000000000000011500000000000009313045000000000000009999123100000010000000000000BRAMARACNOR4112
012016071302AMGN34      010AMGEN       DRN          R$  000000005265800000000526580000000052658000000005265800000000526580000000052030000000005285100001000000000000000200000000000010531600000000000000009999123100000010000000000000BRAMGNBDR004118
012016071302AMZO34      010AMAZON      DRN          R$  000000012244600000001224460000000122446000000012244600000001224460000000120331000000012219400001000000000000000100000000000012244600000000000000009999123100000010000000000000BRAMZOBDR002101
012016071396AMZO34F     020AMAZON      DRN          R$  000000012166000000001216600000000121660000000012166000000001216600000000000000000000012200000001000000000000000040000000000004866400000000000000009999123100000010000000000000BRAMZOBDR002101
012016071302ANIM3       010ANIMA       ON      NM   R$  000000000133000000000013970000000001303000000000133900000000013940000000001373000000000139400176000000000000147800000000000198570700000000000000009999123100000010000000000000BRANIMACNOR6103
012016071396ANIM3F      020ANIMA       ON      NM   R$  000000000140000000000014000000000001315000000000135500000000013330000000001368000000000145000004000000000000000077000000000000104345000000000000009999123100000010000000000000BRANIMACNOR6103
012016071312ARFI11B     010FII AQUIL RDCI      MB   R$  000000012099000000001209900000000120990000000012099000000001209900000000000000000000000000000001000000000000000001000000000000120990000000000000009999123100000010000000000000BRARFICTF004100
012016071302ARZZ3       010AREZZO CO   ON      NM   R$  000000000278800000000028300000000002720000000000274200000000027200000000002720000000000273700749000000000000118600000000000325267200000000000000009999123100000010000000000000BRARZZACNOR3121
012016071396ARZZ3F      020AREZZO CO   ON      NM   R$  000000000290400000000029040000000002738000000000289000000000027380000000002639000000000273700005000000000000000018000000000000052029000000000000009999123100000010000000000000BRARZZACNOR3121
012016071378ARZZJ56     070ARZZ        ON      NM000R$  000000000029200000000002920000000000292000000000029200000000002920000000000000000000000000000001000000000000001700000000000000496400000000000265002016101700000010000000000000BRARZZACNOR3121
012016071308ATOM3       010ATOMPAR     ON           R$  000000000007600000000001010000000000076000000000008800000000000810000000000081000000000008300855000000000002380100000000000211625200000000000000009999123100000010000000000000BRATOMACNOR1101
012016071396ATOM3F      020ATOMPAR     ON           R$  000000000009700000000001000000000000082000000000009000000000000860000000000085000000000008900017000000000000000281000000000000025449000000000000009999123100000010000000000000BRATOMACNOR1101
012016071302AXPB34      010AMERICAN EXPDRN          R$  000000002069400000000208670000000020680000000002070900000000206970000000000000000000000000000004000000000000000900000000000018638900000000000000009999123100000010000000000000BRAXPBBDR007117
012016071396AXPB34F     020AMERICAN EXPDRN          R$  000000002068000000000206800000000020680000000002068000000000206800000000000000000000000000000001000000000000000088000000000001819840000000000000009999123100000010000000000000BRAXPBBDR007117
012016071302BAHI3       010BAHEMA      ON           R$  000000000026400000000002650000000000264000000000026400000000002650000000000265000000000028000003000000000000001900000000000000502500000000000000009999123100000010000000000000BRBAHIACNOR1068
012016071302BALM4       010BAUMER      PN           R$  000000000085000000000008500000000000850000000000085000000000008500000000000760000000000000000001000000000000000500000000000000425000000000000000009999123100000010000000000000BRBALMACNPR2047
012016071302BAZA3       010AMAZONIA    ON           R$  000000000003300000000000340000000000032000000000003300000000000330000000000033000000000003400059000000000000455000000000000015233000000000000000009999123100000010000000000000BRBAZAACNOR0168
012016071396BAZA3F      020AMAZONIA    ON           R$  000000000003500000000000350000000000031000000000003300000000000310000000000031000000000003500002000000000000000199000000000000006569000000000000009999123100000010000000000000BRBAZAACNOR0168
012016071362BAZA3T      030AMAZONIA    ON        180R$  000000000003500000000000360000000000035000000000003500000000000360000000000000000000000000000002000000000000012000000000000000423482000000000000009999123100000010000000000000BRBAZAACNOR0168
012016071302BBAS3       010BRASIL      ON      NM   R$  000000000177900000000018200000000001755000000000178600000000018050000000001805000000000180619658000000000011060500000000019765566300000000000000009999123100000010000000000000BRBBASACNOR3261
012016071396BBAS3F      020BRASIL      ON      NM   R$  000000000178000000000018180000000001754000000000178700000000018000000000001799000000000180000303000000000000007697000000000013762536000000000000009999123100000010000000000000BRBBASACNOR3261
012016071362BBAS3T      030BRASIL      ON      NM016R$  000000000182100000000018220000000001821000000000182100000000018220000000000000000000000000000002000000000000008000000000000014574928000000000000009999123100000010000000000000BRBBASACNOR3261
012016071362BBAS3T      030BRASIL      ON      NM030R$  000000000178900000000017900000000001789000000000178900000000017900000000000000000000000000000002000000000000000800000000000001431576000000000000009999123100000010000000000000BRBBASACNOR3261
012016071362BBAS3T      030BRASIL      ON      NM061R$  000000000179800000000018460000000001798000000000182300000000018440000000000000000000000000000008000000000000005400000000000009847375000000000000009999123100000010000000000000BRBBASACNOR3261
012016071362BBAS3T      030BRASIL      ON      NM180R$  000000000190900000000019100000000001909000000000190900000000019100000000000000000000000000000002000000000000001000000000000001909236000000000000009999123100000010000000000000BRBBASACNOR3261
012016071378BBASG13     070BBAS        ON      NM000R$  000000000054500000000005450000000000545000000000054500000000005450000000000000000000000000000001000000000000001000000000000000545000000000000125502016071800000010000000000000BRBBASACNOR3257
012016071378BBASG14     070BBAS        ON      NM000R$  000000000045600000000004560000000000456000000000045600000000004560000000000000000000000000000001000000000000004000000000000001824000000000000135502016071800000010000000000000BRBBASACNOR3257
012016071378BBASG16     070BBAS        ON      NM000R$  000000000016800000000002100000000000163000000000018400000000002050000000000145000000000020500027000000000000032800000000000006036600000000000160502016071800000010000000000000BRBBASACNOR3259
012016071378BBASG17     070BBAS        ON      NM000R$  000000000006800000000001160000000000060000000000008100000000001080000000000085000000000011500402000000000000247200000000000020256000000000000170502016071800000010000000000000BRBBASACNOR3259
012016071378BBASG18     070BBAS        ON      NM000R$  000000000001800000000000340000000000011000000000002100000000000310000000000031000000000003400622000000000002077200000000000043800400000000000180502016071800000010000000000000BRBBASACNOR3259
012016071378BBASG19     070BBAS        ON      NM000R$  000000000000400000000000060000000000002000000000000300000000000060000000000005000000000000600156000000000001071400000000000003843800000000000190502016071800000010000000000000BRBBASACNOR3259
012016071378BBASG20     070BBAS        ON      NM000R$  000000000000100000000000020000000000001000000000000100000000000010000000000001000000000000200021000000000000158900000000000000160100000000000200502016071800000010000000000000BRBBASACNOR3259
012016071378BBASG21     070BBAS        ON      NM000R$  000000000000100000000000010000000000001000000000000100000000000010000000000000000000000000100003000000000000070000000000000000070000000000000210502016071800000010000000000000BRBBASACNOR3259
012016071378BBASG45     070BBAS        ON      NM000R$  000000000023100000000002540000000000231000000000023400000000002540000000000004000000000000000007000000000000012000000000000002818000000000000155502016071800000010000000000000BRBBASACNOR3259
012016071378BBASG46     070BBAS        ON      NM000R$  000000000012500000000001610000000000120000000000012500000000001610000000000000000000000000000004000000000000006700000000000000843500000000000165502016071800000010000000000000BRBBASACNOR3259
012016071378BBASG47     070BBAS        ON      NM000R$  000000000003600000000000700000000000030000000000004600000000000660000000000056000000000000000026000000000000025700000000000001205800000000000175502016071800000010000000000000BRBBASACNOR3259
012016071378BBASG48     070BBAS        ON      NM000R$  000000000001000000000000150000000000004000000000000800000000000150000000000012000000000002000064000000000000294900000000000002639100000000000185502016071800000010000000000000BRBBASACNOR3259
012016071378BBASG49     070BBAS        ON      NM000R$  000000000000300000000000030000000000001000000000000100000000000010000000000001000000000001000004000000000000028200000000000000028400000000000195502016071800000010000000000000BRBBASACNOR3259
012016071378BBASG60     070BBASE       ON      NM000R$  000000000000100000000000010000000000001000000000000100000000000010000000000001000000000001500001000000000000003900000000000000003900000000000198002016071800000010000000000000BRBBASACNOR3259
012016071378BBASH17     070BBAS        ON      NM000R$  000000000013700000000001600000000000130000000000013300000000001600000000000132000000000018500006000000000000008200000000000001095600000000000168802016081500000010000000000000BRBBASACNOR3259
012016071378BBASH18     070BBAS  FM    ON      NM000R$  000000000009000000000001060000000000075000000000009100000000001000000000000090000000000010400111000000000000182200000000000016682100000000000178802016081500000010000000000000BRBBASACNOR3259
012016071378BBASH19     070BBAS  FM    ON      NM000R$  000000000004800000000000620000000000043000000000005200000000000600000000000057000000000006000508000000000001140000000000000059389000000000000188802016081500000010000000000000BRBBASACNOR3259
012016071378BBASH20     070BBAS        ON      NM000R$  000000000002800000000000350000000000024000000000002900000000000350000000000024000000000003500092000000000000163900000000000004883000000000000198802016081500000010000000000000BRBBASACNOR3259
012016071378BBASH21     070BBAS        ON      NM000R$  000000000001500000000000200000000000015000000000001600000000000200000000000018000000000002100024000000000000077300000000000001242400000000000208802016081500000010000000000000BRBBASACNOR3259
012016071378BBASH22     070BBAS        ON      NM000R$  000000000000600000000000110000000000006000000000000800000000000090000000000006000000000001200018000000000000034500000000000000302500000000000223802016081500000010000000000000BRBBASACNOR3259
012016071378BBASH43     070BBAS        ON      NM000R$  000000000045800000000004600000000000453000000000045600000000004530000000000000000000000054500006000000000000007800000000000003560500000000000133802016081500000010000000000000BRBBASACNOR3257
012016071378BBASH46     070BBAS        ON      NM000R$  000000000018500000000002000000000000180000000000018900000000002000000000000101000000000000000006000000000000008900000000000001688000000000000163802016081500000010000000000000BRBBASACNOR3259
012016071378BBASH47     070BBAS  FM    ON      NM000R$  000000000010400000000001360000000000104000000000011800000000001310000000000120000000000020200021000000000000030900000000000003656500000000000173802016081500000010000000000000BRBBASACNOR3259
012016071378BBASH48     070BBAS  FM    ON      NM000R$  000000000007000000000000810000000000057000000000007300000000000790000000000079000000000008100250000000000000229600000000000016782700000000000183802016081500000010000000000000BRBBASACNOR3259
012016071378BBASH49     070BBAS  FM    ON      NM000R$  000000000003200000000000470000000000032000000000004100000000000430000000000010000000000005900028000000000000118600000000000004966400000000000193802016081500000010000000000000BRBBASACNOR3259
012016071378BBASH50     070BBAS        ON      NM000R$  000000000002200000000000260000000000021000000000002200000000000260000000000024000000000002900006000000000000045500000000000001014000000000000203802016081500000010000000000000BRBBASACNOR3259
012016071378BBASH60     070BBASE       ON      NM000R$  000000000002100000000000290000000000021000000000002400000000000290000000000018000000000000000006000000000000005100000000000000127000000000000201302016081500000010000000000000BRBBASACNOR3259
012016071378BBASH66     070BBASE       ON      NM000R$  000000000019700000000002000000000000197000000000019900000000002000000000000200000000000000000003000000000000004700000000000000939700000000000161302016081500000010000000000000BRBBASACNOR3259
012016071378BBASH69     070BBASE       ON      NM000R$  000000000004100000000000520000000000041000000000004400000000000520000000000005000000000000000010000000000000030500000000000001356000000000000191302016081500000010000000000000BRBBASACNOR3259
012016071378BBASH77     070BBASE       ON      NM000R$  000000000010600000000001060000000000100000000000010000000000001000000000000005000000000020500005000000000000006500000000000000653000000000000176302016081500000010000000000000BRBBASACNOR3259
012016071378BBASH79     070BBASE       ON      NM000R$  000000000005200000000000600000000000052000000000005800000000000600000000000000000000000010500006000000000000001700000000000000098800000000000186302016081500000010000000000000BRBBASACNOR3253
012016071378BBASH80     070BBASE       ON      NM000R$  000000000001800000000000180000000000018000000000001800000000000180000000000000000000000000000006000000000000012000000000000000216000000000000206302016081500000010000000000000BRBBASACNOR3259
012016071378BBASH89     070BBASE       ON      NM000R$  000000000003100000000000400000000000031000000000003600000000000400000000000000000000000000000003000000000000014000000000000000508000000000000196302016081500000010000000000000BRBBASACNOR3259
012016071378BBASI18     070BBAS  FM    ON      NM000R$  000000000013500000000001370000000000135000000000013600000000001370000000000136000000000000000003000000000000004200000000000000572600000000000177702016091900000010000000000000BRBBASACNOR3259
012016071378BBASI19     070BBAS  FM    ON      NM000R$  000000000007900000000000920000000000079000000000008300000000000920000000000000000000000000000002000000000000000300000000000000025000000000000192702016091900000010000000000000BRBBASACNOR3260
012016071378BBASI20     070BBAS        ON      NM000R$  000000000006500000000000670000000000061000000000006400000000000640000000000065000000000008500013000000000000009500000000000000609100000000000197702016091900000010000000000000BRBBASACNOR3259
012016071378BBASI46     070BBAS        ON      NM000R$  000000000020000000000002000000000000200000000000020000000000002000000000000000000000000000000001000000000000007000000000000001400000000000000167702016091900000010000000000000BRBBASACNOR3260
012016071378BBASI48     070BBAS  FM    ON      NM000R$  000000000012500000000001350000000000125000000000013200000000001300000000000015000000000000000004000000000000007000000000000000924000000000000182702016091900000010000000000000BRBBASACNOR3259
012016071378BBASI50     070BBAS        ON      NM000R$  000000000005700000000000570000000000057000000000005700000000000570000000000050000000000000000001000000000000003000000000000000171000000000000202702016091900000010000000000000BRBBASACNOR3259
012016071378BBASI68     070BBAS  FM    ON      NM000R$  000000000010300000000001030000000000095000000000009500000000000950000000000000000000000030000002000000000000011000000000000001053000000000000187702016091900000010000000000000BRBBASACNOR3260
012016071378BBASI69     070BBASE       ON      NM000R$  000000000008800000000000880000000000088000000000008800000000000880000000000007000000000000000001000000000000000100000000000000008800000000000190202016091900000010000000000000BRBBASACNOR3260
012016071378BBASI90     070BBAS        ON      NM000R$  000000000004600000000000530000000000046000000000004700000000000530000000000046000000000000000002000000000000002300000000000000110000000000000207702016091900000010000000000000BRBBASACNOR3260
012016071378BBASJ77     070BBASE       ON      NM000R$  000000000019000000000001900000000000190000000000019000000000001900000000000000000000000000000001000000000000000400000000000000076000000000000172502016101700000010000000000000BRBBASACNOR3261
012016071378BBASK18     070BBAS        ON      NM000R$  000000000019700000000001970000000000197000000000019700000000001970000000000196000000000000000001000000000000000800000000000000157600000000000182302016112100000010000000000000BRBBASACNOR3259
012016071378BBASK85     070BBASE       ON      NM000R$  000000000016100000000001660000000000161000000000016100000000001660000000000000000000000000000004000000000000011800000000000001900700000000000257502017112100000010000000000000BRBBASACNOR3261
012016071378BBASL80     070BBASE       ON      NM000R$  000000000011500000000001150000000000115000000000011500000000001150000000000000000000000000000001000000000000000500000000000000057500000000000206302016121900000010000000000000BRBBASACNOR3258
012016071382BBASS16     080BBASE       ON      NM000R$  000000000000100000000000010000000000001000000000000100000000000010000000000000000000000000100009000000000000081600000000000000081600000000000160502016071800000010000000000000BRBBASACNOR3259
012016071382BBASS17     080BBASE       ON      NM000R$  000000000000800000000000100000000000003000000000000500000000000030000000000001000000000000300031000000000000099000000000000000518600000000000170502016071800000010000000000000BRBBASACNOR3259
012016071382BBASS18     080BBASE       ON      NM000R$  000000000005100000000000530000000000023000000000004000000000000230000000000014000000000003300054000000000000066400000000000002678700000000000180502016071800000010000000000000BRBBASACNOR3259
012016071382BBASS19     080BBASE       ON      NM000R$  000000000010000000000001000000000000100000000000010000000000001000000000000093000000000000000005000000000000018000000000000001800000000000000190502016071800000010000000000000BRBBASACNOR3259
012016071382BBASS45     080BBASE       ON      NM000R$  000000000000100000000000020000000000001000000000000100000000000010000000000000000000000000100040000000000001977600000000000002421900000000000155502016071800000010000000000000BRBBASACNOR3259
012016071382BBASS46     080BBASE       ON      NM000R$  000000000000200000000000030000000000002000000000000200000000000030000000000001000000000000200002000000000000000600000000000000001700000000000165502016071800000010000000000000BRBBASACNOR3259
012016071382BBASS47     080BBASE       ON      NM000R$  000000000002600000000000260000000000007000000000001500000000000070000000000007000000000000000010000000000000029700000000000000461000000000000175502016071800000010000000000000BRBBASACNOR3259
012016071382BBASS48     080BBASE       ON      NM000R$  000000000007000000000000790000000000055000000000007700000000000550000000000001000000000000000010000000000000012200000000000000942500000000000185502016071800000010000000000000BRBBASACNOR3259
012016071382BBASS50     080BBASE       ON      NM000R$  000000000030400000000003040000000000250000000000027700000000002500000000000000000000000034100010000000000000003400000000000000944700000000000205502016071800000010000000000000BRBBASACNOR3259
012016071382BBAST15     080BBASE       ON      NM000R$  000000000001200000000000120000000000007000000000000900000000000070000000000006000000000003300030000000000000076000000000000000732500000000000151302016081500000010000000000000BRBBASACNOR3259
012016071382BBAST16     080BBASE       ON      NM000R$  000000000002100000000000210000000000011000000000001200000000000110000000000010000000000003300030000000000000088100000000000001114500000000000158802016081500000010000000000000BRBBASACNOR3259
012016071382BBAST17     080BBASE FM    ON      NM000R$  000000000004400000000000490000000000029000000000003600000000000290000000000028000000000003500022000000000000110100000000000003999600000000000168802016081500000010000000000000BRBBASACNOR3259
012016071382BBAST18     080BBASE FM    ON      NM000R$  000000000008800000000000950000000000061000000000007500000000000620000000000000000000000009600061000000000000072400000000000005480700000000000178802016081500000010000000000000BRBBASACNOR3259
012016071382BBAST19     080BBASE       ON      NM000R$  000000000011500000000001200000000000115000000000011500000000001200000000000000000000000000000011000000000000022600000000000002608000000000000188802016081500000010000000000000BRBBASACNOR3259
012016071382BBAST43     080BBASE       ON      NM000R$  000000000000200000000000020000000000002000000000000200000000000020000000000001000000000000500001000000000000010000000000000000020000000000000133802016081500000010000000000000BRBBASACNOR3257
012016071382BBAST44     080BBASE       ON      NM000R$  000000000000600000000000060000000000005000000000000500000000000050000000000001000000000000800003000000000000003800000000000000020000000000000143802016081500000010000000000000BRBBASACNOR3261
012016071382BBAST45     080BBASE       ON      NM000R$  000000000001100000000000110000000000007000000000000900000000000070000000000004000000000006900027000000000000502000000000000004620900000000000153802016081500000010000000000000BRBBASACNOR3259
012016071382BBAST46     080BBASE       ON      NM000R$  000000000002900000000000290000000000018000000000002000000000000180000000000000000000000003000026000000000000078100000000000001599600000000000163802016081500000010000000000000BRBBASACNOR3259
012016071382BBAST47     080BBASE FM    ON      NM000R$  000000000006500000000000660000000000045000000000006000000000000450000000000000000000000000000012000000000000022300000000000001350900000000000173802016081500000010000000000000BRBBASACNOR3259
012016071382BBAST48     080BBASE FM    ON      NM000R$  000000000011300000000001130000000000111000000000011200000000001110000000000064000000000000000011000000000000005000000000000000560600000000000183802016081500000010000000000000BRBBASACNOR3259
012016071382BBAST66     080BBASE       ON      NM000R$  000000000002000000000000200000000000020000000000002000000000000200000000000000000000000000000001000000000000000600000000000000012000000000000161302016081500000010000000000000BRBBASACNOR3259
012016071382BBAST75     080BBASE       ON      NM000R$  000000000000900000000000090000000000009000000000000900000000000090000000000000000000000000000001000000000000005500000000000000049500000000000156302016081500000010000000000000BRBBASACNOR3259
012016071382BBAST77     080BBASE       ON      NM000R$  000000000006200000000000620000000000062000000000006200000000000620000000000000000000000000000001000000000000001800000000000000111600000000000176302016081500000010000000000000BRBBASACNOR3259
012016071382BBAST79     080BBASE       ON      NM000R$  000000000012000000000001200000000000120000000000012000000000001200000000000000000000000000000004000000000000010100000000000001212000000000000186302016081500000010000000000000BRBBASACNOR3253
012016071382BBASU13     080BBASE       ON      NM000R$  000000000001000000000000100000000000010000000000001000000000000100000000000000000000000000000002000000000000014000000000000000140000000000000132702016091900000010000000000000BRBBASACNOR3260
012016071382BBASU15     080BBASE       ON      NM000R$  000000000002400000000000240000000000023000000000002300000000000230000000000019000000000000000005000000000000033000000000000000770000000000000147702016091900000010000000000000BRBBASACNOR3259
012016071382BBASU44     080BBASE       ON      NM000R$  000000000001700000000000170000000000017000000000001700000000000170000000000000000000000000000001000000000000010000000000000000170000000000000142702016091900000010000000000000BRBBASACNOR3260
012016071382BBASU46     080BBASE FM    ON      NM000R$  000000000007500000000000750000000000075000000000007500000000000750000000000000000000000000000001000000000000001500000000000000112500000000000167702016091900000010000000000000BRBBASACNOR3260
012016071382BBASU48     080BBASE FM    ON      NM000R$  000000000011500000000001200000000000115000000000011700000000001190000000000000000000000000000003000000000000002100000000000000246600000000000182702016091900000010000000000000BRBBASACNOR3259
012016071382BBASV76     080BBASE       ON      NM000R$  000000000007700000000000770000000000077000000000007700000000000770000000000000000000000000000001000000000000008000000000000000616000000000000167502016101700000010000000000000BRBBASACNOR3261
012016071382BBASW13     080BBASE       ON      NM000R$  000000000007000000000000700000000000066000000000006800000000000660000000000000000000000000000002000000000000011600000000000000790400000000000130002017112100000010000000000000BRBBASACNOR3261
012016071382BBASW68     080BBASE       ON      NM000R$  000000000022700000000002500000000000227000000000022700000000002290000000000000000000000000000004000000000000012700000000000002887200000000000182502017112100000010000000000000BRBBASACNOR3261
012016071382BBASX48     080BBASE       ON      NM000R$  000000000020500000000002050000000000205000000000020500000000002050000000000000000000000000000001000000000000000500000000000000102500000000000183802016121900000010000000000000BRBBASACNOR3260
012016071382BBASX72     080BBASE       ON      NM000R$  000000000009000000000000900000000000090000000000009000000000000900000000000000000000000000000001000000000000000500000000000000045000000000000161302016121900000010000000000000BRBBASACNOR3257
012016071302BBDC3       010BRADESCO    ON  EJ  N1   R$  000000000275000000000028150000000002745000000000279100000000028060000000002806000000000280905354000000000001023700000000002857338700000000000000009999123100000010000000000000BRBBDCACNOR1651
012016071396BBDC3F      020BRADESCO    ON  EJ  N1   R$  000000000274200000000028140000000002742000000000277800000000027730000000002773000000000281500056000000000000001223000000000003397834000000000000009999123100000010000000000000BRBBDCACNOR1651
012016071362BBDC3T      030BRADESCO    ON  EJ  N1090R$  000000000285300000000028540000000002853000000000285300000000028540000000000000000000000000000002000000000000000250000000000000713457000000000000009999123100000010000000000000BRBBDCACNOR1651
012016071302BBDC4       010BRADESCO    PN  EJ  N1   R$  000000000265200000000027180000000002638000000000268200000000027180000000002712000000000271825373000000000010011400000000026852190200000000000000009999123100000010000000000000BRBBDCACNPR8651
012016071396BBDC4F      020BRADESCO    PN  EJ  N1   R$  000000000265000000000027140000000002644000000000268000000000027140000000002690000000000271400264000000000000006854000000000018377475000000000000009999123100000010000000000000BRBBDCACNPR8651
012016071362BBDC4T      030BRADESCO    PN  EJ  N1061R$  000000000270800000000027090000000002708000000000270800000000027090000000000000000000000000000002000000000000000900000000000002437639000000000000009999123100000010000000000000BRBBDCACNPR8651
012016071378BBDCC33     070BBDCE   /EJ PN      N1000R$  000000000080500000000008050000000000805000000000080500000000008050000000000000000000000000000001000000000000002000000000000001610000000000000213202017032000000010000000000000BRBBDCACNPR8644
012016071378BBDCC36     070BBDC    /EJ PN      N1000R$  000000000112500000000011250000000001125000000000112500000000011250000000000000000000000000000001000000000000001000000000000001125000000000000174502017032000000010000000000000BRBBDCACNPR8644
012016071378BBDCG1      070BBDCE   /EJ PN      N1000R$  000000000087800000000008780000000000878000000000087800000000008780000000000000000000000000000001000000000000055000000000000048290000000000000183202016071800000010000000000000BRBBDCACNPR8643
012016071378BBDCG17     070BBDC    /EJ PN      N1000R$  000000000018000000000002300000000000149000000000021000000000002300000000000047000000000000000003000000000000000900000000000000189520000000000246802016071800000010000000000000BRBBDCACNPR8633
012016071378BBDCG2      070BBDC    /EJ PN      N1000R$  000000000000300000000000030000000000003000000000000300000000000030000000000000000000000000300001000000000000001970000000000000005910000000000283202016071800000010000000000000BRBBDCACNPR8635
012016071378BBDCG21     070BBDCE   /EJ PN      N1000R$  000000000070000000000007000000000000700000000000070000000000007000000000000000000000000000000001000000000000012300000000000008610000000000000187702016071800000010000000000000BRBBDCACNPR8645
012016071378BBDCG24     070BBDCE   /EJ PN      N1000R$  000000000058900000000005890000000000589000000000058900000000005890000000000485000000000000000001000000000000004000000000000002356000000000000208202016071800000010000000000000BRBBDCACNPR8633
012016071378BBDCG33     070BBDC    /EJ PN      N1000R$  000000000011200000000001530000000000112000000000011900000000001470000000000117000000000000000706000000000000074100000000000008839800000000000256102016071800000010000000000000BRBBDCACNPR8648
012016071378BBDCG34     070BBDCE   /EJ PN      N1000R$  000000000091200000000009120000000000912000000000091200000000009120000000000000000000000000000001000000000000055000000000000050160000000000000180902016071800000010000000000000BRBBDCACNPR8646
012016071378BBDCG35     070BBDC    /EJ PN      N1000R$  000000000030000000000003050000000000300000000000030200000000003020000000000000000000000000000003000000000000000300000000000000090700000000000237702016071800000010000000000000BRBBDCACNPR8636
012016071378BBDCG36     070BBDC    /EJ PN      N1000R$  000000000000900000000000190000000000008000000000001200000000000190000000000017000000000001900028000000000000144600000000000001799600000000000275002016071800000010000000000000BRBBDCACNPR8648
012016071378BBDCG38     070BBDCE   /EJ PN      N1000R$  000000000043800000000004400000000000438000000000043900000000004400000000000000000000000000000003000000000000005000000000000002199800000000000226602016071800000010000000000000BRBBDCACNPR8647
012016071378BBDCG43     070BBDCE   /EJ PN      N1000R$  000000000016000000000001900000000000156000000000017800000000001880000000000110000000000000000004000000000000007000000000000001248400000000000252102016071800000010000000000000BRBBDCACNPR8646
012016071378BBDCG50     070BBDC    /EJ PN      N1000R$  000000000048000000000004900000000000479000000000048300000000004900000000000000000000000000000007000000000000015000000000000007249450000000000219502016071800000010000000000000BRBBDCACNPR8635
012016071378BBDCG55     070BBDCE   /EJ PN      N1000R$  000000000012500000000001830000000000125000000000013600000000001830000000000085000000000000000261000000000000161480000000000022079200000000000253602016071800000010000000000000BRBBDCACNPR8636
012016071378BBDCG56     070BBDCE   /EJ PN      N1000R$  000000000038000000000004050000000000354000000000039800000000004050000000000000000000000000000012000000000000004500000000000001791260000000000230902016071800000010000000000000BRBBDCACNPR8636
012016071378BBDCG65     070BBDC    /EJ PN      N1000R$  000000000017000000000002090000000000170000000000018600000000002090000000000000000000000023000018000000000000224800000000000041822300000000000249802016071800000010000000000000BRBBDCACNPR8626
012016071378BBDCG67     070BBDC    /EJ PN      N1000R$  000000000004800000000000730000000000034000000000005300000000000730000000000052000000000000000060000000000000431710000000000022932260000000000265002016071800000010000000000000BRBBDCACNPR8626
012016071378BBDCG72     070BBDC    /EJ PN      N1000R$  000000000000300000000000030000000000003000000000000300000000000030000000000000000000000000900001000000000000000050000000000000000150000000000292302016071800000010000000000000BRBBDCACNPR8645
012016071378BBDCG91     070BBDCE   /EJ ON      N1000R$  000000000070000000000007000000000000700000000000070000000000007000000000000000000000000000000001000000000000106040000000000074228000000000000195402016071800000010000000000000BRBBDCACNOR1644
012016071378BBDCH10     070BBDC  FM/EJ PN      N1000R$  000000000010000000000001180000000000090000000000010700000000001180000000000095000000000015500009000000000000007050000000000000760100000000000269202016081500000010000000000000BRBBDCACNPR8631
012016071378BBDCH11     070BBDC    /EJ PN      N1000R$  000000000007700000000000950000000000074000000000008400000000000950000000000065000000000012000016000000000000037910000000000003194010000000000273702016081500000010000000000000BRBBDCACNPR8631
012016071378BBDCH16     070BBDC  FM/EJ PN      N1000R$  000000000020000000000002320000000000200000000000022700000000002310000000000150000000000000000012000000000000017500000000000003981000000000000252402016081500000010000000000000BRBBDCACNPR8620
012016071378BBDCH17     070BBDC  FM/EJ PN      N1000R$  000000000015100000000001760000000000146000000000014800000000001760000000000000000000000000000923000000000000101599000000000015098940000000000260102016081500000010000000000000BRBBDCACNPR8620
012016071378BBDCH18     070BBDC    /EJ PN      N1000R$  000000000052000000000005200000000000515000000000051700000000005150000000000000000000000000000006000000000000010000000000000005175000000000000218102016081500000010000000000000BRBBDCACNPR8649
012016071378BBDCH22     070BBDC    /EJ PN      N1000R$  000000000039300000000003930000000000393000000000039300000000003930000000000000000000000000000001000000000000001100000000000000432300000000000231302016081500000010000000000000BRBBDCACNPR8634
012016071378BBDCH23     070BBDC    /EJ PN      N1000R$  000000000058100000000006500000000000581000000000064900000000006500000000000000000000000000000002000000000000033100000000000021508100000000000208502016081500000010000000000000BRBBDCACNPR8644
012016071378BBDCH30     070BBDCE   /EJ PN      N1000R$  000000000008800000000001100000000000085000000000009500000000001100000000000070000000000012400007000000000000006400000000000000608100000000000271402016081500000010000000000000BRBBDCACNPR8646
012016071378BBDCH33     070BBDC  FM/EJ PN      N1000R$  000000000006100000000000740000000000054000000000006600000000000740000000000050000000000007500040000000000000035400000000000002339300000000000278702016081500000010000000000000BRBBDCACNPR8649
012016071378BBDCH4      070BBDCE   /EJ PN      N1000R$  000000000020300000000002030000000000203000000000020300000000002030000000000000000000000000000001000000000000005300000000000001075900000000000254302016081500000010000000000000BRBBDCACNPR8620
012016071378BBDCH53     070BBDC    /EJ PN      N1000R$  000000000055500000000005560000000000555000000000055500000000005560000000000000000000000065000002000000000000003600000000000001998100000000000213102016081500000010000000000000BRBBDCACNPR8644
012016071378BBDCH59     070BBDC    /EJ PN      N1000R$  000000000034000000000003500000000000340000000000034600000000003480000000000000000000000000000003000000000000000300000000000000103800000000000236002016081500000010000000000000BRBBDCACNPR8649
012016071378BBDCH6      070BBDCE   /EJ PN      N1000R$  000000000017000000000001950000000000148000000000016500000000001950000000000130000000000020000012000000000000005160000000000000853430000000000258202016081500000010000000000000BRBBDCACNPR8620
012016071378BBDCH73     070BBDCE   /EJ PN      N1000R$  000000000001500000000000150000000000015000000000001500000000000150000000000010000000000000000001000000000000001000000000000000015000000000000303302016081500000010000000000000BRBBDCACNPR8646
012016071378BBDCH79     070BBDCE   /EJ PN      N1000R$  000000000010900000000001130000000000109000000000011200000000001130000000000098000000000000000004000000000000020010000000000002261090000000000266902016081500000010000000000000BRBBDCACNPR8645
012016071378BBDCH83     070BBDCE   /EJ PN      N1000R$  000000000043500000000004350000000000435000000000043500000000004350000000000000000000000000000003000000000000005000000000000002175000000000000225602016081500000010000000000000BRBBDCACNPR8649
012016071378BBDCH85     070BBDCE   /EJ PN      N1000R$  000000000036900000000004050000000000369000000000039000000000004050000000000000000000000045000010000000000000000100000000000000039070000000000233502016081500000010000000000000BRBBDCACNPR8646
012016071378BBDCH88     070BBDCE   /EJ PN      N1000R$  000000000003800000000000490000000000038000000000004500000000000490000000000000000000000005000017000000000000047700000000000002172000000000000286202016081500000010000000000000BRBBDCACNPR8648
012016071378BBDCH89     070BBDC  FM/EJ PN      N1000R$  000000000003300000000000430000000000030000000000003800000000000430000000000043000000000006100017000000000000030600000000000001166200000000000288702016081500000010000000000000BRBBDCACNPR8651
012016071378BBDCH91     070BBDCE   /EJ PN      N1000R$  000000000000600000000000060000000000006000000000000600000000000060000000000006000000000001300003000000000000005000000000000000030000000000000313302016081500000010000000000000BRBBDCACNPR8647
012016071378BBDCI26     070BBDCE   /EJ PN      N1000R$  000000000024700000000002470000000000240000000000024200000000002430000000000000000000000000000003000000000000001100000000000000266600000000000318502017091800000010000000000000BRBBDCACNPR8650
012016071378BBDCI27     070BBDC  FM/EJ PN      N1000R$  000000000014300000000001430000000000143000000000014300000000001430000000000024000000000000000001000000000000000200000000000000028600000000000274502016091900000010000000000000BRBBDCACNPR8649
012016071378BBDCI32     070BBDC    /EJ PN      N1000R$  000000000006700000000000670000000000067000000000006700000000000670000000000000000000000000000001000000000000005000000000000000335000000000000291102016091900000010000000000000BRBBDCACNPR8646
012016071378BBDCI46     070BBDC        PN      N1000R$  000000000004600000000000460000000000031000000000003100000000000310000000000000000000000000000003000000000000022000000000000000683500000000000301102016091900000010000000000000BRBBDCACNPR8651
012016071378BBDCI70     070BBDCE   /EJ PN      N1000R$  000000000035500000000003600000000000355000000000035800000000003600000000000000000000000000000003000000000000003300000000000001181500000000000243302016091900000010000000000000BRBBDCACNPR8632
012016071378BBDCJ12     070BBDC    /EJ PN      N1000R$  000000000015400000000001540000000000143000000000014600000000001430000000000000000000000000000031000000000000138500000000000020274800000000000275302016101700000010000000000000BRBBDCACNPR8638
012016071378BBDCJ20     070BBDC    /EJ ON      N1000R$  000000000070000000000007000000000000700000000000070000000000007000000000000000000000000000000001000000000000106100000000000074270000000000000200402016101700000010000000000000BRBBDCACNOR1649
012016071378BBDCJ23     070BBDC    /EJ PN      N1000R$  000000000070000000000007000000000000700000000000070000000000007000000000000000000000000000000001000000000000123000000000000086100000000000000193502016101700000010000000000000BRBBDCACNPR8638
012016071378BBDCJ35     070BBDCE       PN      N1000R$  000000000067300000000006750000000000673000000000067400000000006750000000000000000000000000000002000000000000033100000000000022342300000000000209702016101700000010000000000000BRBBDCACNPR8651
012016071378BBDCJ56     070BBDC    /EJ PN      N1000R$  000000000088400000000008840000000000884000000000088400000000008840000000000000000000000000000001000000000000110000000000000097240000000000000189002016101700000010000000000000BRBBDCACNPR8637
012016071378BBDCJ74     070BBDCE   /EJ PN      N1000R$  000000000016300000000002030000000000162000000000017200000000001770000000000000000000000000000007000000000000357200000000000061781100000000000347902017101600000010000000000000BRBBDCACNPR8651
012016071378BBDCJ78     070BBDC    /EJ PN      N1000R$  000000000024600000000002640000000000246000000000025500000000002640000000000000000000000000000002000000000000017900000000000004567200000000000257202016101700000010000000000000BRBBDCACNPR8638
012016071378BBDCJ86     070BBDCE   /EJ ON      N1000R$  000000000018600000000001860000000000144000000000017800000000001440000000000000000000000000000004000000000000061100000000000010905500000000000362502017101600000010000000000000BRBBDCACNOR1651
012016071378BBDCK97     070BBDCE       PN      N1000R$  000000000018400000000001840000000000148000000000014800000000001480000000000000000000000000000003000000000000026400000000000003913400000000000372502017112100000010000000000000BRBBDCACNPR8651
012016071378BBDCL5      070BBDCE       PN      N1000R$  000000000010200000000001020000000000102000000000010200000000001020000000000000000000000000000002000000000000300000000000000030600000000000000307802016121900000010000000000000BRBBDCACNPR8651
012016071378BBDCL92     070BBDCE   /EJ PN      N1000R$  000000000014900000000001490000000000149000000000014900000000001490000000000000000000000000000001000000000000000500000000000000074500000000000293502016121900000010000000000000BRBBDCACNPR8645
012016071382BBDCS17     080BBDCE   /EJ PN      N1000R$  000000000000500000000000050000000000005000000000000500000000000050000000000000000000000001500001000000000000000700000000000000003500000000000246802016071800000010000000000000BRBBDCACNPR8633
012016071382BBDCS55     080BBDCE   /EJ PN      N1000R$  000000000000600000000000070000000000003000000000000500000000000040000000000000000000000000000053000000000000010640000000000000054860000000000253602016071800000010000000000000BRBBDCACNPR8626
012016071382BBDCS67     080BBDCE   /EJ PN      N1000R$  000000000002800000000000280000000000019000000000001900000000000190000000000000000000000000000004000000000000040500000000000000774000000000000265002016071800000010000000000000BRBBDCACNPR8626
012016071382BBDCT1      080BBDCE FM/EJ PN      N1000R$  000000000002000000000000200000000000020000000000002000000000000200000000000020000000000000000009000000000000027640000000000000552800000000000246802016081500000010000000000000BRBBDCACNPR8620
012016071382BBDCT10     080BBDCE FM/EJ PN      N1000R$  000000000008800000000000880000000000088000000000008800000000000880000000000000000000000000000001000000000000000900000000000000079200000000000269202016081500000010000000000000BRBBDCACNPR8631
012016071382BBDCT15     080BBDCE   /EJ PN      N1000R$  000000000002500000000000250000000000025000000000002500000000000250000000000000000000000000000001000000000000001900000000000000047500000000000244902016081500000010000000000000BRBBDCACNPR8620
012016071382BBDCT16     080BBDCE   /EJ PN      N1000R$  000000000002800000000000280000000000028000000000002800000000000280000000000000000000000000000003000000000000005500000000000000154000000000000252402016081500000010000000000000BRBBDCACNPR8620
012016071382BBDCT22     080BBDCE   /EJ PN      N1000R$  000000000001000000000000100000000000010000000000001000000000000100000000000000000000000000000001000000000000010000000000000000100000000000000231302016081500000010000000000000BRBBDCACNPR8634
012016071382BBDCT3      080BBDCE   /EJ PN      N1000R$  000000000002800000000000280000000000028000000000002800000000000280000000000000000000000000000001000000000000002500000000000000070000000000000250502016081500000010000000000000BRBBDCACNPR8620
012016071382BBDCT47     080BBDCE   /EJ PN      N1000R$  000000000000400000000000040000000000004000000000000400000000000040000000000000000000000000000001000000000000033000000000000000132000000000000158502016081500000010000000000000BRBBDCACNPR8644
012016071382BBDCT49     080BBDCE   /EJ PN      N1000R$  000000000000100000000000010000000000001000000000000100000000000010000000000000000000000000000001000000000000033000000000000000033000000000000176702016081500000010000000000000BRBBDCACNPR8644
012016071382BBDCT6      080BBDCE FM/EJ PN      N1000R$  000000000005300000000000530000000000048000000000005000000000000480000000000000000000000000000005000000000000006800000000000000343400000000000258202016081500000010000000000000BRBBDCACNPR8620
012016071382BBDCT79     080BBDCE   /EJ PN      N1000R$  000000000008800000000000880000000000088000000000008800000000000880000000000000000000000011900001000000000000001000000000000000088000000000000266902016081500000010000000000000BRBBDCACNPR8645
012016071382BBDCT85     080BBDCE   /EJ PN      N1000R$  000000000000900000000000090000000000009000000000000900000000000090000000000008000000000000000001000000000000000500000000000000004500000000000233502016081500000010000000000000BRBBDCACNPR8646
012016071382BBDCV15     080BBDCE   /EJ ON      N1000R$  000000000017500000000002060000000000162000000000019700000000001620000000000000000000000000000004000000000000061100000000000012097500000000000277502017101600000010000000000000BRBBDCACNOR1651
012016071382BBDCV31     080BBDCE   /EJ PN      N1000R$  000000000009400000000000940000000000089000000000009300000000000890000000000000000000000000000005000000000000357200000000000033323000000000000212902017101600000010000000000000BRBBDCACNPR8651
012016071382BBDCV46     080BBDCE   /EJ PN      N1000R$  000000000025400000000002940000000000254000000000026200000000002630000000000000000000000000000007000000000000357200000000000093919000000000000267902017101600000010000000000000BRBBDCACNPR8651
012016071382BBDCV82     080BBDCE   /EJ ON      N1000R$  000000000002200000000000220000000000020000000000002100000000000200000000000000000000000000000002000000000000061000000000000001320000000000000220002017101600000010000000000000BRBBDCACNOR1651
012016071382BBDCW63     080BBDCE       PN      N1000R$  000000000011000000000001100000000000090000000000009000000000000900000000000000000000000013000002000000000000026400000000000002378000000000000237502017112100000010000000000000BRBBDCACNPR8651
012016071382BBDCW96     080BBDCE       PN      N1000R$  000000000019800000000002350000000000198000000000023400000000002350000000000000000000000023400002000000000000026400000000000006200300000000000267502017112100000010000000000000BRBBDCACNPR8651
012016071382BBDCX54     080BBDCE   /EJ PN      N1000R$  000000000005000000000000500000000000050000000000005000000000000500000000000000000000000000000001000000000000300000000000000015000000000000000225302016121900000010000000000000BRBBDCACNPR8640
012016071382BBDCX84     080BBDCE   /EJ PN      N1000R$  000000000014700000000001470000000000147000000000014700000000001470000000000000000000000000000001000000000000300000000000000044100000000000000266302016121900000010000000000000BRBBDCACNPR8639
012016071312BBFI11B     010FII BB PROGRCI      MB   R$  000000024200000000002420000000000239999000000024020500000002400000000000239100000000024399900014000000000000000059000000000014172133000000000000009999123100000010000000000000BRBBFICTF006232
012016071312BBPO11      010FII BB PRGIICI           R$  000000001125500000000113270000000011255000000001127400000000112750000000011275000000001128004497000000000000008226000000000092741298000000000000009999123100000010000000000000BRBBPOCTF003144
012016071312BBRC11      010FII BB CORP CI           R$  000000000989800000000099000000000009762000000000980900000000099000000000009762000000000990000017000000000000001348000000000013223180000000000000009999123100000010000000000000BRBBRCCTF004158
012016071302BBRK3       010BR BROKERS  ON      NM   R$  000000000015900000000001640000000000156000000000015900000000001620000000000160000000000016200165000000000000936500000000000149073700000000000000009999123100000010000000000000BRBBRKACNOR4110
012016071396BBRK3F      020BR BROKERS  ON      NM   R$  000000000015900000000001590000000000145000000000015300000000001570000000000144000000000016200003000000000000000151000000000000023207000000000000009999123100000010000000000000BRBBRKACNOR4110
012016071314BBSD11      010BB ETF SP DVCI           R$  000000000384900000000038690000000003849000000000386700000000038690000000000000000000000000000003000000000000000670000000000002590920000000000000009999123100000010000000000000BRBBSDCTF000100
012016071302BBSE3       010BBSEGURIDADEON      NM   R$  000000000280500000000028270000000002761000000000280100000000028190000000002816000000000281911615000000000004815100000000013489164700000000000000009999123100000010000000000000BRBBSEACNOR5106
012016071396BBSE3F      020BBSEGURIDADEON      NM   R$  000000000280000000000028220000000002765000000000279600000000028080000000002808000000000281500162000000000000004264000000000011927486000000000000009999123100000010000000000000BRBBSEACNOR5106
012016071362BBSE3T      030BBSEGURIDADEON      NM030R$  000000000281200000000028500000000002812000000000282400000000028500000000000000000000000000000004000000000000001500000000000004237011000000000000009999123100000010000000000000BRBBSEACNOR5106
012016071362BBSE3T      030BBSEGURIDADEON      NM047R$  000000000282100000000028220000000002821000000000282100000000028220000000000000000000000000000002000000000000000200000000000000564269000000000000009999123100000010000000000000BRBBSEACNOR5106
012016071362BBSE3T      030BBSEGURIDADEON      NM090R$  000000000288700000000029020000000002873000000000289300000000028740000000000000000000000000000028000000000001400000000000004051325839000000000000009999123100000010000000000000BRBBSEACNOR5106
012016071378BBSEG28     070BBSE        ON      NM000R$  000000000003000000000000340000000000030000000000003000000000000330000000000003000000000004500004000000000000013700000000000000418700000000000281702016071800000010000000000000BRBBSEACNOR5106
012016071378BBSEG29     070BBSEE       ON      NM000R$  000000000000600000000000060000000000006000000000000600000000000060000000000000000000000001000001000000000000001000000000000000006000000000000289202016071800000010000000000000BRBBSEACNOR5106
012016071378BBSEG31     070BBSE        ON      NM000R$  000000000000100000000000010000000000001000000000000100000000000010000000000000000000000000000001000000000000006000000000000000006000000000000311702016071800000010000000000000BRBBSEACNOR5106
012016071378BBSEG4      070BBSE        ON      NM000R$  000000000000100000000000010000000000001000000000000100000000000010000000000000000000000000000001000000000000006000000000000000006000000000000346702016071800000010000000000000BRBBSEACNOR5106
012016071378BBSEG59     070BBSE        ON      NM000R$  000000000000400000000000040000000000004000000000000400000000000040000000000000000000000000000001000000000000010000000000000000040000000000000291702016071800000010000000000000BRBBSEACNOR5106
012016071378BBSEG67     070BBSEE       ON      NM000R$  000000000018100000000001810000000000181000000000018100000000001810000000000000000000000000000001000000000000001100000000000000199100000000000264202016071800000010000000000000BRBBSEACNOR5105
012016071378BBSEG7      070BBSEE       ON      NM000R$  000000000004000000000000400000000000025000000000003200000000000250000000000000000000000000000005000000000000003600000000000000116500000000000279202016071800000010000000000000BRBBSEACNOR5106
012016071378BBSEH27     070BBSE        ON      NM000R$  000000000016200000000001620000000000161000000000016100000000001610000000000161000000000000000002000000000000003000000000000000485000000000000272902016081500000010000000000000BRBBSEACNOR5106
012016071378BBSEH28     070BBSE        ON      NM000R$  000000000010200000000001120000000000102000000000011000000000001120000000000000000000000000000003000000000000011200000000000001236800000000000282902016081500000010000000000000BRBBSEACNOR5106
012016071378BBSEH29     070BBSE        ON      NM000R$  000000000005500000000000550000000000054000000000005400000000000540000000000051000000000006600003000000000000014000000000000000758000000000000292902016081500000010000000000000BRBBSEACNOR5106
012016071378BBSEH30     070BBSE        ON      NM000R$  000000000003300000000000380000000000033000000000003400000000000380000000000034000000000000000002000000000000010000000000000000340000000000000302902016081500000010000000000000BRBBSEACNOR5106
012016071378BBSEH58     070BBSE  FM    ON      NM000R$  000000000007800000000000780000000000064000000000007000000000000640000000000000000000000008500005000000000000003600000000000000252900000000000287902016081500000010000000000000BRBBSEACNOR5106
012016071378BBSEH59     070BBSE  FM    ON      NM000R$  000000000004000000000000400000000000040000000000004000000000000400000000000000000000000000000003000000000000002500000000000000100000000000000297902016081500000010000000000000BRBBSEACNOR5106
012016071378BBSEI29     070BBSE        ON      NM000R$  000000000011000000000001100000000000110000000000011000000000001100000000000000000000000000000001000000000000005000000000000000550000000000000292902016091900000010000000000000BRBBSEACNOR5106
012016071378BBSEI30     070BBSE        ON      NM000R$  000000000007000000000000720000000000070000000000007000000000000700000000000000000000000000000004000000000000010000000000000000709600000000000302902016091900000010000000000000BRBBSEACNOR5106
012016071378BBSEI32     070BBSE        ON      NM000R$  000000000003100000000000310000000000031000000000003100000000000310000000000000000000000000000001000000000000090000000000000002790000000000000322902016091900000010000000000000BRBBSEACNOR5106
012016071378BBSEI59     070BBSE  FM    ON      NM000R$  000000000009600000000000960000000000094000000000009400000000000940000000000000000000000000000002000000000000090400000000000008498400000000000297902016091900000010000000000000BRBBSEACNOR5106
012016071378BBSEJ77     070BBSEE       ON      NM000R$  000000000022100000000002210000000000221000000000022100000000002210000000000000000000000000000002000000000000013300000000000002939300000000000277502016101700000010000000000000BRBBSEACNOR5106
012016071378BBSEL67     070BBSE        ON      NM000R$  000000000029900000000002990000000000299000000000029900000000002990000000000000000000000000000001000000000000001500000000000000448500000000000277902016121900000010000000000000BRBBSEACNOR5106
012016071382BBSES27     080BBSEE       ON      NM000R$  000000000000300000000000030000000000003000000000000300000000000030000000000000000000000000000001000000000000001000000000000000003000000000000261702016071800000010000000000000BRBBSEACNOR5105
012016071382BBSES28     080BBSEE       ON      NM000R$  000000000004900000000000570000000000049000000000005200000000000570000000000000000000000000000005000000000000018600000000000000976600000000000281702016071800000010000000000000BRBBSEACNOR5106
012016071382BBSES30     080BBSEE       ON      NM000R$  000000000023600000000002360000000000236000000000023600000000002360000000000000000000000000000001000000000000006000000000000001416000000000000301702016071800000010000000000000BRBBSEACNOR5106
012016071382BBSET56     080BBSEE FM    ON      NM000R$  000000000004800000000000480000000000048000000000004800000000000480000000000012000000000005500001000000000000000300000000000000014400000000000267902016081500000010000000000000BRBBSEACNOR5106
012016071382BBSET65     080BBSEE       ON      NM000R$  000000000001700000000000170000000000017000000000001700000000000170000000000000000000000000000002000000000000012000000000000000204000000000000250402016081500000010000000000000BRBBSEACNOR5106
012016071382BBSET89     080BBSEE       ON      NM000R$  000000000013500000000001350000000000135000000000013500000000001350000000000000000000000000000001000000000000012000000000000001620000000000000290402016081500000010000000000000BRBBSEACNOR5106
012016071382BBSEU54     080BBSEE       ON      NM000R$  000000000003000000000000310000000000030000000000003000000000000310000000000000000000000000000002000000000000090000000000000002713500000000000247902016091900000010000000000000BRBBSEACNOR5106
012016071382BBSEU74     080BBSEE       ON      NM000R$  000000000001900000000000190000000000019000000000001900000000000190000000000000000000000000000002000000000000000200000000000000003800000000000227902016091900000010000000000000BRBBSEACNOR5104
012016071302BBTG11      010BTG PACTUAL UNT EJ       R$  000000000170200000000017160000000001696000000000170000000000016960000000001696000000000170900452000000000004297200000000007306391500000000000000009999123100000010000000000000BRBBTGUNT007114
012016071396BBTG11F     020BTG PACTUAL UNT EJ       R$  000000000170500000000017250000000001700000000000170400000000017250000000001700000000000172500006000000000000000163000000000000277825000000000000009999123100000010000000000000BRBBTGUNT007114
012016071362BBTG11T     030BTG PACTUAL UNT EJ    180R$  000000000182100000000018220000000001821000000000182100000000018220000000000000000000000000000002000000000000160000000000000291514080000000000000009999123100000010000000000000BRBBTGUNT007114
012016071312BBVJ11      010FII C JARDIMCI           R$  000000000530100000000053990000000005301000000000539800000000053990000000005300000000000539400006000000000000000215000000000001160687000000000000009999123100000010000000000000BRBBVJCTF001167
012016071312BCFF11B     010FII BC FFII CI  ER  MB   R$  000000000699900000000070000000000006959000000000699500000000070000000000007000000000000701500020000000000000001203000000000008415632000000000000009999123100000010000000000000BRBCFFCTF000176
012016071312BCRI11      010FII BEES CRICI           R$  000000001020000000000102000000000010160000000001019700000000102000000000010150000000001020000009000000000000000456000000000004650100000000000000009999123100000010000000000000BRBCRICTF009112
012016071302BEEF3       010MINERVA     ON      NM   R$  000000000090700000000009150000000000900000000000090200000000009000000000000900000000000090406431000000000001578000000000001424152400000000000000009999123100000010000000000000BRBEEFACNOR6106
012016071396BEEF3F      020MINERVA     ON      NM   R$  000000000091400000000009140000000000899000000000090400000000009020000000000902000000000091800023000000000000000668000000000000604326000000000000009999123100000010000000000000BRBEEFACNOR6106
012016071362BEEF3T      030MINERVA     ON      NM090R$  000000000093200000000009330000000000932000000000093200000000009330000000000000000000000000000002000000000000001000000000000000932348000000000000009999123100000010000000000000BRBEEFACNOR6106
012016071302BEES3       010BANESTES    ON           R$  000000000023000000000002370000000000228000000000023000000000002360000000000228000000000023600006000000000000005400000000000001243700000000000000009999123100000010000000000000BRBEESACNOR9283
012016071302BEES4       010BANESTES    PN           R$  000000000022200000000002490000000000222000000000023500000000002490000000000240000000000024900011000000000000004000000000000000941100000000000000009999123100000010000000000000BRBEESACNPR6208
012016071302BERK34      010BERKSHIRE   DRN          R$  000000004758400000000478890000000047584000000004766000000000478890000000044224000000005089700003000000000000000400000000000019064100000000000000009999123100000010000000000000BRBERKBDR002100
012016071302BGIP4       010BANESE      PN           R$  000000000113500000000011550000000001135000000000114200000000011500000000001131000000000115000007000000000000000700000000000000800000000000000000009999123100000010000000000000BRBGIPACNPR8186
012016071396BGIP4F      020BANESE      PN           R$  000000000127000000000012700000000001270000000000127000000000012700000000001135000000000127000001000000000000000002000000000000002540000000000000009999123100000010000000000000BRBGIPACNPR8186
012016071302BIIB34      010BIOGEN      DRN          R$  000000001372000000000138260000000013720000000001380300000000138260000000000000000000000000000002000000000000001900000000000026227000000000000000009999123100000010000000000000BRBIIBBDR001100
012016071396BIIB34F     020BIOGEN      DRN          R$  000000001372000000000137200000000013720000000001372000000000137200000000000000000000000000000001000000000000000046000000000000631120000000000000009999123100000010000000000000BRBIIBBDR001100
012016071302BLAK34      010BLACKROCK   DRN          R$  000000001945500000000196240000000019455000000001958700000000196240000000000000000000002339500002000000000000001400000000000027422900000000000000009999123100000010000000000000BRBLAKBDR003101
012016071302BMEB4       010MERC BRASIL PN           R$  000000000053000000000005300000000000530000000000053000000000005300000000000501000000000053000003000000000000001500000000000000795000000000000000009999123100000010000000000000BRBMEBACNPR5195
012016071302BMIN4       010MERC INVEST PN           R$  000000000002900000000000320000000000029000000000003000000000000320000000000029000000000003200016000000000000102000000000000003149000000000000000009999123100000010000000000000BRBMINACNPR1165
012016071396BMIN4F      020MERC INVEST PN           R$  000000000003300000000000330000000000033000000000003300000000000330000000000024000000000003300002000000000000000291000000000000009603000000000000009999123100000010000000000000BRBMINACNPR1165
012016071302BMTO3       010BRASMOTOR   ON           R$  000000000069500000000007050000000000695000000000070300000000007040000000000704000000000072800007000000000000001700000000000001196000000000000000009999123100000010000000000000BRBMTOACNOR9186
012016071302BMTO4       010BRASMOTOR   PN           R$  000000000070100000000007200000000000701000000000070300000000007050000000000705000000000072000031000000000000032200000000000022664300000000000000009999123100000010000000000000BRBMTOACNPR6071
012016071396BMTO4F      020BRASMOTOR   PN           R$  000000000070100000000007150000000000701000000000070500000000007060000000000701000000000074100004000000000000000126000000000000088861000000000000009999123100000010000000000000BRBMTOACNPR6071
012016071302BMYB34      010BRISTOLMYERSDRN          R$  000000002503300000000250330000000025033000000002503300000000250330000000000000000000000000000001000000000000000300000000000007509900000000000000009999123100000010000000000000BRBMYBBDR000111
012016071396BMYB34F     020BRISTOLMYERSDRN          R$  000000002503300000000250330000000025033000000002503300000000250330000000000000000000000000000001000000000000000063000000000001577079000000000000009999123100000010000000000000BRBMYBBDR000111
012016071312BNFS11      010FII BANRISULCI           R$  000000001050000000000105000000000010500000000001050000000000105000000000010401000000001050000002000000000000000056000000000000588000000000000000009999123100000010000000000000BRBNFSCTF000146
012016071302BOBR4       010BOMBRIL     PN           R$  000000000016000000000001600000000000160000000000016000000000001600000000000158000000000016000003000000000000001700000000000000272000000000000000009999123100000010000000000000BRBOBRACNPR3128
012016071302BOEI34      010BOEING      DRN          R$  000000004261900000000426190000000042619000000004261900000000426190000000000000000000000000000001000000000000000200000000000008523800000000000000009999123100000010000000000000BRBOEIBDR003117
012016071302BONY34      010BNY MELLON  DRN          R$  000000001287500000000128750000000012875000000001287500000000128750000000000000000000001616200001000000000000000300000000000003862500000000000000009999123100000010000000000000BRBONYBDR001103
012016071314BOVA11      010ISHARES BOVACI           R$  000000000525000000000053000000000005209000000000525700000000052910000000005291000000000529706067000000000001783830000000009378550990000000000000009999123100000010000000000000BRBOVACTF003102
012016071396BOVA11F     020ISHARES BOVACI           R$  000000000530000000000053000000000005211000000000526300000000052910000000005270000000000530000008000000000000000025000000000000131585000000000000009999123100000010000000000000BRBOVACTF003102
012016071378BOVAG48     070BOVA        CI        000R$  000000000044000000000005020000000000440000000000044300000000005020000000000000000000000000000002000000000000003510000000000001556800000000000480002016071800000010000000000000BRBOVACTF003102
012016071378BOVAG49     070BOVA        CI        000R$  000000000034400000000003440000000000344000000000034400000000003440000000000000000000000000000001000000000000001300000000000000447200000000000490002016071800000010000000000000BRBOVACTF003102
012016071378BOVAG50     070BOVA        CI        000R$  000000000024000000000002440000000000225000000000024200000000002440000000000232000000000000000004000000000000002700000000000000655600000000000500002016071800000010000000000000BRBOVACTF003102
012016071378BOVAG51     070BOVA        CI        000R$  000000000017700000000001770000000000146000000000017200000000001460000000000010000000000000000011000000000000001150000000000000198900000000000510002016071800000010000000000000BRBOVACTF003102
012016071378BOVAG52     070BOVA        CI        000R$  000000000009700000000000970000000000095000000000009600000000000950000000000000000000000000000006000000000000001530000000000000147050000000000520002016071800000010000000000000BRBOVACTF003102
012016071378BOVAG53     070BOVA        CI        000R$  000000000003800000000000380000000000038000000000003800000000000380000000000000000000000005000001000000000000000200000000000000007600000000000530002016071800000010000000000000BRBOVACTF003102
012016071378BOVAH48     070BOVA        CI        000R$  000000000049100000000004910000000000491000000000049100000000004910000000000000000000000000000001000000000000002800000000000001374800000000000480002016081500000010000000000000BRBOVACTF003102
012016071378BOVAH49     070BOVA        CI        000R$  000000000040600000000004060000000000406000000000040600000000004060000000000000000000000000000001000000000000001300000000000000527800000000000490002016081500000010000000000000BRBOVACTF003102
012016071378BOVAH50     070BOVA        CI        000R$  000000000033600000000003360000000000336000000000033600000000003360000000000000000000000000000001000000000000002000000000000000672000000000000500002016081500000010000000000000BRBOVACTF003102
012016071378BOVAH51     070BOVA  FM    CI        000R$  000000000027800000000002780000000000262000000000027000000000002620000000000000000000000000000006000000000000011410000000000003083920000000000510002016081500000010000000000000BRBOVACTF003102
012016071378BOVAH52     070BOVA  FM    CI        000R$  000000000021500000000002150000000000188000000000019900000000001980000000000050000000000000000015000000000000016250000000000003244000000000000520002016081500000010000000000000BRBOVACTF003102
012016071378BOVAH53     070BOVA  FM    CI        000R$  000000000014200000000001700000000000142000000000015100000000001700000000000000000000000000000020000000000000005610000000000000847250000000000530002016081500000010000000000000BRBOVACTF003102
012016071378BOVAH54     070BOVA  FM    CI        000R$  000000000009500000000000980000000000095000000000009700000000000980000000000000000000000011600003000000000000003100000000000000302300000000000540002016081500000010000000000000BRBOVACTF003102
012016071378BOVAH55     070BOVA  FM    CI        000R$  000000000007000000000000700000000000064000000000006600000000000640000000000000000000000000000004000000000000009000000000000000600000000000000550002016081500000010000000000000BRBOVACTF003102
012016071378BOVAI51     070BOVA  FM    CI        000R$  000000000036600000000003690000000000366000000000036800000000003690000000000000000000000000000004000000000000010000000000000003680000000000000510002016091900000010000000000000BRBOVACTF003102
012016071378BOVAI52     070BOVA  FM    CI        000R$  000000000030000000000003000000000000285000000000029100000000002880000000000000000000000000000008000000000000006900000000000002012900000000000520002016091900000010000000000000BRBOVACTF003102
012016071382BOVAS51     080BOVAE       CI        000R$  000000000001300000000000130000000000010000000000001100000000000100000000000000000000000000000004000000000000001620000000000000018060000000000510002016071800000010000000000000BRBOVACTF003102
012016071382BOVAT50     080BOVAE FM    CI        000R$  000000000004500000000000500000000000036000000000004800000000000360000000000000000000000000000003000000000000002400000000000000116200000000000500002016081500000010000000000000BRBOVACTF003102
012016071382BOVAT51     080BOVAE FM    CI        000R$  000000000006400000000000640000000000064000000000006400000000000640000000000000000000000000000001000000000000002500000000000000160000000000000510002016081500000010000000000000BRBOVACTF003102
012016071382BOVAT52     080BOVAE FM    CI        000R$  000000000009500000000001100000000000078000000000009800000000000780000000000000000000000009800013000000000000004300000000000000423760000000000520002016081500000010000000000000BRBOVACTF003102
012016071382BOVAT53     080BOVAE FM    CI        000R$  000000000014900000000001490000000000119000000000014800000000001190000000000000000000000000000004000000000000006700000000000000992300000000000530002016081500000010000000000000BRBOVACTF003102
012016071382BOVAU50     080BOVAE FM    CI        000R$  000000000008400000000000840000000000084000000000008400000000000840000000000000000000000000000001000000000000002500000000000000210000000000000500002016091900000010000000000000BRBOVACTF003102
012016071382BOVAU51     080BOVAE FM    CI        000R$  000000000010500000000001110000000000096000000000010400000000000960000000000000000000000000000014000000000000033800000000000003534800000000000510002016091900000010000000000000BRBOVACTF003102
012016071382BOVAU53     080BOVAE FM    CI        000R$  000000000018500000000001850000000000185000000000018500000000001850000000000000000000000000000001000000000000002500000000000000462500000000000530002016091900000010000000000000BRBOVACTF003102
012016071302BPAN4       010BANCO PAN   PN      N1   R$  000000000014500000000001480000000000142000000000014400000000001450000000000142000000000014500034000000000000062300000000000009006200000000000000009999123100000010000000000000BRBPANACNPR1104
012016071396BPAN4F      020BANCO PAN   PN      N1   R$  000000000014500000000001450000000000145000000000014500000000001450000000000140000000000016700001000000000000000050000000000000007250000000000000009999123100000010000000000000BRBPANACNPR1104
012016071312BPFF11      010FII ABSOLUTOCI           R$  000000000794800000000079490000000007901000000000792500000000079490000000007900000000000794900019000000000000001107000000000008773267000000000000009999123100000010000000000000BRBPFFCTF002139
012016071302BPHA3       010BR PHARMA   ON      NM   R$  000000000051600000000006220000000000516000000000056800000000005470000000000547000000000055000515000000000000276900000000000157335900000000000000009999123100000010000000000000BRBPHAACNOR6104
012016071396BPHA3F      020BR PHARMA   ON      NM   R$  000000000050000000000006050000000000500000000000056400000000005580000000000451000000000055000010000000000000000262000000000000147850000000000000009999123100000010000000000000BRBPHAACNOR6104
012016071302BRAP3       010BRADESPAR   ON      N1   R$  000000000084500000000008650000000000824000000000084700000000008460000000000846000000000086500067000000000000063100000000000053476800000000000000009999123100000010000000000000BRBRAPACNOR5129
012016071396BRAP3F      020BRADESPAR   ON      N1   R$  000000000085900000000008600000000000859000000000085900000000008600000000000843000000000086000003000000000000000034000000000000029237000000000000009999123100000010000000000000BRBRAPACNOR5129
012016071302BRAP4       010BRADESPAR   PN      N1   R$  000000000101400000000010230000000000982000000000101100000000010190000000001017000000000101904047000000000001519800000000001538031300000000000000009999123100000010000000000000BRBRAPACNPR2129
012016071396BRAP4F      020BRADESPAR   PN      N1   R$  000000000101900000000010220000000000997000000000100800000000010140000000001014000000000102300018000000000000000469000000000000473032000000000000009999123100000010000000000000BRBRAPACNPR2129
012016071362BRAP4T      030BRADESPAR   PN      N1061R$  000000000103800000000010390000000001038000000000103800000000010390000000000000000000000000000002000000000000003000000000000003116291000000000000009999123100000010000000000000BRBRAPACNPR2129
012016071314BRAX11      010ISHARES BRAXCI           R$  000000000443500000000044350000000004435000000000443500000000044350000000004446000000000000000001000000000000000080000000000000354800000000000000009999123100000010000000000000BRBRAXCTF002100
012016071312BRCR11      010FII BC FUND CI  ER       R$  000000000880800000000088300000000008784000000000880500000000088090000000008790000000000880900350000000000000015590000000000137277203000000000000009999123100000010000000000000BRBRCRCTF000167
012016071302BRFS3       010BRF SA      ON  EJ  NM   R$  000000000505400000000050980000000004978000000000503700000000050510000000005051000000000506509413000000000001921300000000009678065900000000000000009999123100000010000000000000BRBRFSACNOR8117
012016071396BRFS3F      020BRF SA      ON  EJ  NM   R$  000000000506000000000050950000000004988000000000504000000000050090000000005009000000000502500111000000000000003049000000000015368686000000000000009999123100000010000000000000BRBRFSACNOR8117
012016071362BRFS3T      030BRF SA      ON  EJ  NM120R$  000000000528200000000052830000000005282000000000528200000000052830000000000000000000000000000002000000000000122000000000000644503536000000000000009999123100000010000000000000BRBRFSACNOR8117
012016071378BRFSA27     070BRFSE   /EJ ON      NM000R$  000000000006300000000000630000000000063000000000006300000000000630000000000000000000000000000002000000000000095700000000000006029100000000000672202017011600000010000000000000BRBRFSACNOR8115
012016071378BRFSG14     070BRFS    /EJ ON      NM000R$  000000000015000000000001800000000000150000000000017700000000001800000000000000000000000000000002000000000000001400000000000000249000000000000487902016071800000010000000000000BRBRFSACNOR8115
012016071378BRFSG22     070BRFS    /EJ ON      NM000R$  000000000001500000000000150000000000009000000000001100000000000090000000000000000000000000000007000000000000021400000000000000245900000000000522902016071800000010000000000000BRBRFSACNOR8116
012016071378BRFSG44     070BRFS    /EJ ON      NM000R$  000000000071100000000007120000000000711000000000071100000000007120000000000000000000000000000002000000000000132100000000000094002300000000000437902016071800000010000000000000BRBRFSACNOR8116
012016071378BRFSG48     070BRFS    /EJ ON      NM000R$  000000000023000000000002300000000000230000000000023000000000002300000000000230000000000000000001000000000000000500000000000000115000000000000477902016071800000010000000000000BRBRFSACNOR8116
012016071378BRFSG49     070BRFS    /EJ ON      NM000R$  000000000011200000000001650000000000112000000000012600000000001440000000000000000000000000000006000000000000001000000000000000126800000000000492902016071800000010000000000000BRBRFSACNOR8116
012016071378BRFSG52     070BRFS    /EJ ON      NM000R$  000000000003500000000000350000000000021000000000002700000000000210000000000000000000000000000019000000000000034900000000000000948700000000000512902016071800000010000000000000BRBRFSACNOR8115
012016071378BRFSG56     070BRFS    /EJ ON      NM000R$  000000000000300000000000030000000000003000000000000300000000000030000000000000000000000000000005000000000000021400000000000000064200000000000552902016071800000010000000000000BRBRFSACNOR8115
012016071378BRFSG90     070BRFS    /EJ ON      NM000R$  000000000040200000000004020000000000402000000000040200000000004020000000000000000000000000000001000000000000012900000000000005185800000000000594502017071700000010000000000000BRBRFSACNOR8116
012016071378BRFSH18     070BRFS    /EJ ON      NM000R$  000000000036100000000003610000000000302000000000034600000000003150000000000315000000000000000003000000000000000700000000000000242200000000000479702016081500000010000000000000BRBRFSACNOR8116
012016071378BRFSH22     070BRFSE   /EJ ON      NM000R$  000000000010000000000001010000000000100000000000010000000000001010000000000000000000000000000005000000000000008400000000000000844200000000000522202016081500000010000000000000BRBRFSACNOR8116
012016071378BRFSH4      070BRFS    /EJ ON      NM000R$  000000000006300000000000630000000000063000000000006300000000000630000000000000000000000000000003000000000000003000000000000000189000000000000537202016081500000010000000000000BRBRFSACNOR8116
012016071378BRFSH50     070BRFS  FM/EJ ON      NM000R$  000000000021300000000002260000000000207000000000021900000000002260000000000031000000000000000004000000000000002000000000000000439900000000000497202016081500000010000000000000BRBRFSACNOR8116
012016071378BRFSH51     070BRFS  FM/EJ ON      NM000R$  000000000018700000000001870000000000187000000000018700000000001870000000000000000000000000000001000000000000000100000000000000018700000000000507202016081500000010000000000000BRBRFSACNOR8116
012016071378BRFSH53     070BRFS  FM/EJ ON      NM000R$  000000000008500000000001000000000000084000000000009600000000001000000000000000000000000010500007000000000000009000000000000000869000000000000527202016081500000010000000000000BRBRFSACNOR8116
012016071378BRFSH56     070BRFS    /EJ ON      NM000R$  000000000003000000000000300000000000030000000000003000000000000300000000000000000000000003300006000000000000008900000000000000267000000000000557202016081500000010000000000000BRBRFSACNOR8116
012016071382BRFSS13     080BRFSE   /EJ ON      NM000R$  000000000000300000000000030000000000003000000000000300000000000030000000000000000000000000100001000000000000010000000000000000030000000000000432902016071800000010000000000000BRBRFSACNOR8116
012016071382BRFSS16     080BRFSE   /EJ ON      NM000R$  000000000000300000000000030000000000003000000000000300000000000030000000000000000000000000000001000000000000000500000000000000001500000000000462902016071800000010000000000000BRBRFSACNOR8116
012016071382BRFSS50     080BRFSE   /EJ ON      NM000R$  000000000003600000000000410000000000036000000000003700000000000410000000000000000000000000000002000000000000000800000000000000030300000000000502902016071800000010000000000000BRBRFSACNOR8116
012016071382BRFSS98     080BRFSE   /EJ ON      NM000R$  000000000039900000000003990000000000298000000000039800000000002980000000000000000000000029800003000000000000013000000000000005176900000000000482002017071700000010000000000000BRBRFSACNOR8116
012016071382BRFST18     080BRFSE FM/EJ ON      NM000R$  000000000006600000000000660000000000066000000000006600000000000660000000000000000000000009500002000000000000001300000000000000085800000000000479702016081500000010000000000000BRBRFSACNOR8116
012016071382BRFST46     080BRFSE   /EJ ON      NM000R$  000000000005200000000000520000000000045000000000005000000000000450000000000017000000000004400004000000000000007400000000000000371300000000000454702016081500000010000000000000BRBRFSACNOR8116
