00COTAHIST.2016BOVESPA 20160714                                                                                                                                                                                                                      
012016071402AAPL34      010APPLE       DRN          R$  000000000316100000000031920000000003161000000000318300000000031920000000003191000000000323500004000000000000006200000000000019737000000000000000009999123100000010000000000000BRAAPLBDR004117
012016071496AAPL34F     020APPLE       DRN          R$  000000000290000000000029000000000002800000000000280400000000028000000000002800000000000000000003000000000000000023000000000000064500000000000000009999123100000010000000000000BRAAPLBDR004117
012016071410ABCB2       010ABC BRASIL  DIR PRE N2   R$  000000000043100000000004500000000000423000000000043900000000004450000000000440000000000044900069000000000000019300000000000008476000000000000000009999123100000010000000000000BRABCBD09PR2125
012016071496ABCB2F      020ABC BRASIL  DIR PRE N2   R$  000000000040000000000004480000000000400000000000042300000000004480000000000421000000000044800046000000000000000998000000000000422232000000000000009999123100000010000000000000BRABCBD09PR2125
012016071402ABCB4       010ABC BRASIL  PN      N2   R$  000000000139400000000014510000000001394000000000143200000000014490000000001448000000000144900984000000000000194900000000000279208000000000000000009999123100000010000000000000BRABCBACNPR4126
012016071496ABCB4F      020ABC BRASIL  PN      N2   R$  000000000139900000000014500000000001392000000000142500000000014390000000001423000000000144900019000000000000000424000000000000604202000000000000009999123100000010000000000000BRABCBACNPR4126
012016071412ABCP11      010FII ABC IMOBCI           R$  000000000102600000000011430000000001026000000000104900000000010280000000001032000000000114200013000000000000000745000000000000782205000000000000009999123100000010000000000000BRABCPCTF000249
012016071402ABEV3       010AMBEV S/A   ON  ED       R$  000000000192000000000019200000000001901000000000190700000000019100000000001907000000000191131108000000000016513300000000031498402000000000000000009999123100000010000000000000BRABEVACNOR1113
012016071496ABEV3F      020AMBEV S/A   ON  ED       R$  000000000191500000000019170000000001901000000000190800000000019100000000001910000000000191900175000000000000004528000000000008642806000000000000009999123100000010000000000000BRABEVACNOR1113
012016071462ABEV3T      030AMBEV S/A   ON  ED    018R$  000000000191700000000019220000000001917000000000192000000000019220000000000000000000000000000004000000000000015000000000000028801780000000000000009999123100000010000000000000BRABEVACNOR1113
012016071462ABEV3T      030AMBEV S/A   ON  ED    060R$  000000000195200000000019530000000001952000000000195200000000019530000000000000000000000000000002000000000000000100000000000000195279000000000000009999123100000010000000000000BRABEVACNOR1113
012016071478ABEVB61     070ABEV    /ED ON        000R$  000000000005400000000000550000000000054000000000005400000000000550000000000000000000000000000004000000000000024800000000000001359000000000000212602017022000000010000000000000BRABEVACNOR1112
012016071478ABEVG18     070ABEV    /ED ON        000R$  000000000018000000000001800000000000180000000000018000000000001800000000000000000000000021500001000000000000000400000000000000072000000000000173202016071800000010000000000000BRABEVACNOR1107
012016071478ABEVG20     070ABEV    /ED ON        000R$  000000000000500000000000050000000000003000000000000400000000000050000000000003000000000000400011000000000000111200000000000000471200000000000193202016071800000010000000000000BRABEVACNOR1107
012016071478ABEVG38     070ABEV    /ED ON        000R$  000000000005000000000000500000000000027000000000003600000000000300000000000023000000000003200016000000000000011600000000000000426300000000000188202016071800000010000000000000BRABEVACNOR1112
012016071478ABEVG58     070ABEVE   /ED ON        000R$  000000000010600000000001060000000000106000000000010600000000001060000000000000000000000000000001000000000000040000000000000004240000000000000180702016071800000010000000000000BRABEVACNOR1109
012016071478ABEVG68     070ABEV    /ED ON        000R$  000000000008000000000000800000000000075000000000007700000000000750000000000041000000000009200004000000000000009300000000000000724500000000000183202016071800000010000000000000BRABEVACNOR1109
012016071478ABEVG78     070ABEVE   /ED ON        000R$  000000000005500000000000600000000000055000000000005800000000000570000000000046000000000000000003000000000000001800000000000000105800000000000185702016071800000010000000000000BRABEVACNOR1112
012016071478ABEVG92     070ABEVE   /ED ON        000R$  000000000001000000000000100000000000010000000000001000000000000100000000000000000000000006800001000000000000002000000000000000020000000000000190702016071800000010000000000000BRABEVACNOR1112
012016071478ABEVG93     070ABEVE   /ED ON        000R$  000000000005700000000000570000000000057000000000005700000000000570000000000000000000000000000001000000000000100000000000000005700000000000000231202017071700000010000000000000BRABEVACNOR1112
012016071478ABEVH18     070ABEV  FM/ED ON        000R$  000000000006200000000000620000000000058000000000005800000000000580000000000000000000000000000003000000000000000600000000000000035200000000000188202016081500000010000000000000BRABEVACNOR1112
012016071478ABEVH19     070ABEV  FM/ED ON        000R$  000000000003100000000000320000000000026000000000003000000000000320000000000029000000000003500022000000000000059100000000000001773700000000000193202016081500000010000000000000BRABEVACNOR1112
012016071478ABEVH21     070ABEV  FM/ED ON        000R$  000000000000300000000000030000000000003000000000000300000000000030000000000002000000000000000003000000000000005000000000000000015000000000000208202016081500000010000000000000BRABEVACNOR1112
012016071478ABEVH48     070ABEVE   /ED ON        000R$  000000000010700000000001190000000000107000000000011100000000001190000000000000000000000000000011000000000000005700000000000000634200000000000180702016081500000010000000000000BRABEVACNOR1111
012016071478ABEVH63     070ABEV    /ED ON        000R$  000000000029100000000002910000000000291000000000029100000000002910000000000000000000000000000001000000000000000100000000000000029100000000000163202016081500000010000000000000BRABEVACNOR1109
012016071478ABEVH64     070ABEVE   /ED ON        000R$  000000000004500000000000450000000000041000000000004300000000000430000000000010000000000004500008000000000000003200000000000000138300000000000190702016081500000010000000000000BRABEVACNOR1109
012016071478ABEVH69     070ABEV  FM/ED ON        000R$  000000000009700000000000970000000000097000000000009700000000000970000000000000000000000000000001000000000000003900000000000000378300000000000183202016081500000010000000000000BRABEVACNOR1107
012016071478ABEVH79     070ABEVE   /ED ON        000R$  000000000002000000000000200000000000018000000000001900000000000180000000000016000000000000000002000000000000008600000000000000164800000000000195702016081500000010000000000000BRABEVACNOR1111
012016071478ABEVH85     070ABEV    /ED ON        000R$  000000000044000000000004400000000000440000000000044000000000004400000000000000000000000000000001000000000000000100000000000000044000000000000148202016081500000010000000000000BRABEVACNOR1109
012016071478ABEVJ20     070ABEV    /ED ON        000R$  000000000004000000000000400000000000040000000000004000000000000400000000000000000000000000000001000000000000012000000000000000480000000000000199802016101700000010000000000000BRABEVACNOR1112
012016071478ABEVJ22     070ABEV    /ED ON        000R$  000000000000500000000000050000000000005000000000000500000000000050000000000001000000000000000001000000000000012000000000000000060000000000000219802016101700000010000000000000BRABEVACNOR1112
012016071478ABEVJ59     070ABEVE   /ED ON        000R$  000000000005500000000000550000000000055000000000005500000000000550000000000000000000000000000001000000000000012000000000000000660000000000000197302016101700000010000000000000BRABEVACNOR1112
012016071478ABEVJ60     070ABEVE   /ED ON        000R$  000000000002000000000000200000000000020000000000002000000000000200000000000000000000000000000002000000000000100100000000000002002000000000000202302016101700000010000000000000BRABEVACNOR1112
012016071478ABEVJ67     070ABEVE   /ED ON        000R$  000000000025500000000002550000000000255000000000025500000000002550000000000000000000000000000001000000000000012000000000000003060000000000000172302016101700000010000000000000BRABEVACNOR1112
012016071478ABEVJ77     070ABEVE   /ED ON        000R$  000000000020000000000002000000000000200000000000020000000000002000000000000000000000000000000001000000000000012000000000000002400000000000000177302016101700000010000000000000BRABEVACNOR1112
012016071478ABEVJ99     070ABEVE   /ED ON        000R$  000000000008000000000000800000000000080000000000008000000000000800000000000000000000000000000001000000000000012000000000000000960000000000000192302016101700000010000000000000BRABEVACNOR1110
012016071478ABEVK78     070ABEVE       ON        000R$  000000000014100000000001410000000000113000000000011300000000001200000000000000000000000000000003000000000000040200000000000004546100000000000187302016112100000010000000000000BRABEVACNOR1113
012016071478ABEVL63     070ABEVE   /ED ON        000R$  000000000012000000000001200000000000120000000000012000000000001200000000000000000000000000000002000000000000000200000000000000024000000000000231202017121800000010000000000000BRABEVACNOR1112
012016071482ABEVS20     080ABEVE   /ED ON        000R$  000000000002600000000000260000000000026000000000002600000000000260000000000000000000000000000003000000000000002500000000000000065000000000000193202016071800000010000000000000BRABEVACNOR1107
012016071482ABEVS38     080ABEVE   /ED ON        000R$  000000000000300000000000030000000000003000000000000300000000000030000000000000000000000000500003000000000000004000000000000000012000000000000188202016071800000010000000000000BRABEVACNOR1112
012016071482ABEVS92     080ABEVE   /ED ON        000R$  000000000000900000000000090000000000009000000000000900000000000090000000000001000000000002000001000000000000010000000000000000090000000000000190702016071800000010000000000000BRABEVACNOR1112
012016071482ABEVS98     080ABEVE   /ED ON        000R$  000000000005500000000000550000000000055000000000005500000000000550000000000000000000000000000001000000000000100000000000000005500000000000000183702017071700000010000000000000BRABEVACNOR1112
012016071482ABEVT19     080ABEVE FM/ED ON        000R$  000000000003500000000000380000000000035000000000003700000000000380000000000035000000000000000002000000000000008100000000000000307500000000000193202016081500000010000000000000BRABEVACNOR1112
012016071482ABEVT69     080ABEVE FM/ED ON        000R$  000000000000900000000000090000000000009000000000000900000000000090000000000000000000000000000002000000000000030000000000000000270000000000000183202016081500000010000000000000BRABEVACNOR1107
012016071482ABEVT78     080ABEVE   /ED ON        000R$  000000000001200000000000120000000000012000000000001200000000000120000000000000000000000000000001000000000000016000000000000000192000000000000185702016081500000010000000000000BRABEVACNOR1112
012016071482ABEVT79     080ABEVE   /ED ON        000R$  000000000005500000000000550000000000055000000000005500000000000550000000000000000000000000000001000000000000001000000000000000055000000000000195702016081500000010000000000000BRABEVACNOR1111
012016071482ABEVV15     080ABEVE   /ED ON        000R$  000000000000500000000000050000000000005000000000000500000000000050000000000000000000000000000001000000000000012000000000000000060000000000000149802016101700000010000000000000BRABEVACNOR1112
012016071482ABEVV87     080ABEVE   /ED ON        000R$  000000000000500000000000050000000000005000000000000500000000000050000000000000000000000000000001000000000000012000000000000000060000000000000169802016101700000010000000000000BRABEVACNOR1110
012016071412AEFI11      010FII AESAPAR CI           R$  000000001260200000000128400000000012601000000001274500000000128400000000012602000000001284000019000000000000000468000000000005965024000000000000009999123100000010000000000000BRAEFICTF002155
012016071402AELP3       010AES ELPA    ON           R$  000000000093000000000009300000000000926000000000092800000000009300000000000822000000000093000007000000000000004200000000000003901700000000000000009999123100000010000000000000BRAELPACNOR2123
012016071412AGCX11      010FII AG CAIXACI           R$  000000010379900000001050000000000103502000000010415200000001049990000000104200000000010500000087000000000000000981000000000102173403000000000000009999123100000010000000000000BRAGCXCTF003144
012016071402AGRO3       010BRASILAGRO  ON      NM   R$  000000000124000000000012610000000001239000000000125400000000012600000000001258000000000126000268000000000000078400000000000098341400000000000000009999123100000010000000000000BRAGROACNOR7104
012016071496AGRO3F      020BRASILAGRO  ON      NM   R$  000000000122000000000013000000000001220000000000126100000000012580000000001260000000000135000010000000000000000268000000000000337972000000000000009999123100000010000000000000BRAGROACNOR7104
012016071402AHEB5       010SPTURIS     PNA          R$  000000000300000000000030000000000003000000000000300000000000030000000000002000000000000000000001000000000000000100000000000000300000000000000000009999123100000010000000000000BRAHEBACNPA3103
012016071402AHEB6       010SPTURIS     PNB          R$  000000000300000000000030000000000003000000000000300000000000030000000000002000000000000000000001000000000000000100000000000000300000000000000000009999123100000010000000000000BRAHEBACNPB1103
012016071412ALMI11B     010FII TORRE ALCI      MB   R$  000000018159900000001839990000000178003000000018112800000001780030000000178100000000018245000024000000000000000097000000000017569474000000000000009999123100000010000000000000BRALMICTF003239
012016071402ALPA3       010ALPARGATAS  ON      N1   R$  000000000102500000000010400000000001025000000000103200000000010400000000001027000000000104000002000000000000000200000000000000206500000000000000009999123100000010000000000000BRALPAACNOR0217
012016071496ALPA3F      020ALPARGATAS  ON      N1   R$  000000000103600000000010390000000001036000000000103700000000010390000000001039000000000109000002000000000000000010000000000000010375000000000000009999123100000010000000000000BRALPAACNOR0217
012016071402ALPA4       010ALPARGATAS  PN      N1   R$  000000000107400000000010900000000001058000000000108200000000010850000000001082000000000108504488000000000001199500000000001298094800000000000000009999123100000010000000000000BRALPAACNPR7217
012016071496ALPA4F      020ALPARGATAS  PN      N1   R$  000000000107200000000010870000000001053000000000108100000000010840000000001019000000000108700037000000000000001094000000000001183642000000000000009999123100000010000000000000BRALPAACNPR7217
012016071478ALPAG98     070ALPA        PN      N1000R$  000000000010000000000001000000000000100000000000010000000000001000000000000000000000000030000001000000000000023500000000000002350000000000000097702016071800000010000000000000BRALPAACNPR7216
012016071478ALPAJ40     070ALPA        PN      N1000R$  000000000010800000000001080000000000108000000000010800000000001080000000000000000000000000000001000000000000023500000000000002538000000000000105002016101700000010000000000000BRALPAACNPR7217
012016071402ALSC3       010ALIANSCE    ON      NM   R$  000000000146700000000014800000000001445000000000146000000000014550000000001454000000000147601635000000000000238200000000000347905000000000000000009999123100000010000000000000BRALSCACNOR0109
012016071496ALSC3F      020ALIANSCE    ON      NM   R$  000000000145800000000014650000000001455000000000145900000000014650000000001251000000000148200004000000000000000112000000000000163435000000000000009999123100000010000000000000BRALSCACNOR0109
012016071462ALSC3T      030ALIANSCE    ON      NM091R$  000000000150700000000015080000000001507000000000150700000000015080000000000000000000000000000002000000000000008000000000000012060625000000000000009999123100000010000000000000BRALSCACNOR0109
012016071402ALUP11      010ALUPAR      UNT     N2   R$  000000000149500000000015050000000001453000000000148300000000014750000000001473000000000147502639000000000001017000000000001508380800000000000000009999123100000010000000000000BRALUPCDAM15105
012016071496ALUP11F     020ALUPAR      UNT     N2   R$  000000000147700000000015010000000001452000000000148800000000014750000000001470000000000147500061000000000000001311000000000001950997000000000000009999123100000010000000000000BRALUPCDAM15105
012016071462ALUP11T     030ALUPAR      UNT     N2032R$  000000000151800000000015190000000001518000000000151800000000015190000000000000000000000000000002000000000000005000000000000007590750000000000000009999123100000010000000000000BRALUPCDAM15105
012016071410ALUP12      010ALUPAR      DIR UNT N2   R$  000000000025000000000002700000000000231000000000025100000000002410000000000241000000000026800499000000000000120000000000000030123400000000000000009999123100000010000000000000BRALUPD01M10104
012016071496ALUP12F     020ALUPAR      DIR UNT N2   R$  000000000022100000000002550000000000220000000000023800000000002380000000000238000000000025000109000000000000002849000000000000680277000000000000009999123100000010000000000000BRALUPD01M10104
012016071402AMAR3       010LOJAS MARISAON      NM   R$  000000000080000000000008080000000000783000000000079800000000007930000000000793000000000080500312000000000000085300000000000068109700000000000000009999123100000010000000000000BRAMARACNOR4112
012016071496AMAR3F      020LOJAS MARISAON      NM   R$  000000000079300000000007970000000000790000000000079200000000007970000000000710000000000083000004000000000000000086000000000000068127000000000000009999123100000010000000000000BRAMARACNOR4112
012016071496AMZO34F     020AMAZON      DRN          R$  000000011000000000001100000000000110000000000011000000000001100000000000000000000000000000000001000000000000000001000000000000110000000000000000009999123100000010000000000000BRAMZOBDR002101
012016071402ANIM3       010ANIMA       ON      NM   R$  000000000139600000000015000000000001396000000000145700000000014900000000001484000000000149000371000000000000070000000000000101994100000000000000009999123100000010000000000000BRANIMACNOR6103
012016071496ANIM3F      020ANIMA       ON      NM   R$  000000000139700000000014820000000001397000000000142000000000014820000000001427000000000149500008000000000000000218000000000000309608000000000000009999123100000010000000000000BRANIMACNOR6103
012016071402ARZZ3       010AREZZO CO   ON      NM   R$  000000000270100000000027600000000002701000000000274000000000027450000000002734000000000274501105000000000000383400000000001050566300000000000000009999123100000010000000000000BRARZZACNOR3121
012016071496ARZZ3F      020AREZZO CO   ON      NM   R$  000000000271200000000027440000000002712000000000274000000000027290000000002730000000000290000006000000000000000234000000000000641208000000000000009999123100000010000000000000BRARZZACNOR3121
012016071478ARZZG84     070ARZZE       ON      NM000R$  000000000038600000000003860000000000386000000000038600000000003860000000000000000000000000000001000000000000012500000000000004825000000000000238302016071800000010000000000000BRARZZACNOR3120
012016071478ARZZJ56     070ARZZ        ON      NM000R$  000000000031100000000003110000000000296000000000030800000000002960000000000000000000000000000002000000000000014500000000000004479500000000000265002016101700000010000000000000BRARZZACNOR3121
012016071408ATOM3       010ATOMPAR     ON           R$  000000000008600000000000870000000000078000000000008100000000000800000000000080000000000008100291000000000000885300000000000072538800000000000000009999123100000010000000000000BRATOMACNOR1101
012016071496ATOM3F      020ATOMPAR     ON           R$  000000000007300000000000840000000000073000000000007800000000000800000000000080000000000008200006000000000000000157000000000000012287000000000000009999123100000010000000000000BRATOMACNOR1101
012016071402BAHI3       010BAHEMA      ON           R$  000000000026100000000002620000000000261000000000026100000000002620000000000262000000000027500002000000000000000600000000000000156700000000000000009999123100000010000000000000BRBAHIACNOR1068
012016071496BAHI3F      020BAHEMA      ON           R$  000000000025500000000002550000000000255000000000025500000000002550000000000255000000000029000001000000000000000039000000000000009945000000000000009999123100000010000000000000BRBAHIACNOR1068
012016071402BAUH4       010EXCELSIOR   PN           R$  000000000063000000000006300000000000630000000000063000000000006300000000000620000000000066700004000000000000003700000000000002331000000000000000009999123100000010000000000000BRBAUHACNPR3111
012016071402BAZA3       010AMAZONIA    ON           R$  000000000003300000000000350000000000033000000000003300000000000330000000000033000000000003400066000000000000352000000000000011818000000000000000009999123100000010000000000000BRBAZAACNOR0168
012016071402BBAS3       010BRASIL      ON      NM   R$  000000000184000000000019130000000001827000000000187900000000019010000000001901000000000190235990000000000018401700000000034579097600000000000000009999123100000010000000000000BRBBASACNOR3261
012016071496BBAS3F      020BRASIL      ON      NM   R$  000000000181500000000019140000000001815000000000187800000000019040000000001900000000000190400469000000000000011515000000000021632779000000000000009999123100000010000000000000BRBBASACNOR3261
012016071462BBAS3T      030BRASIL      ON      NM032R$  000000000186400000000019210000000001864000000000191900000000019210000000000000000000000000000012000000000000047200000000000090583956000000000000009999123100000010000000000000BRBBASACNOR3261
012016071462BBAS3T      030BRASIL      ON      NM060R$  000000000188200000000018860000000001880000000000188200000000018860000000000000000000000000000006000000000000001400000000000002635502000000000000009999123100000010000000000000BRBBASACNOR3261
012016071478BBASG13     070BBAS        ON      NM000R$  000000000058500000000005850000000000585000000000058500000000005850000000000000000000000000000002000000000000003000000000000001755000000000000125502016071800000010000000000000BRBBASACNOR3257
012016071478BBASG15     070BBAS        ON      NM000R$  000000000033000000000003850000000000330000000000036300000000003850000000000056000000000000000002000000000000000500000000000000181500000000000150502016071800000010000000000000BRBBASACNOR3259
012016071438BBASG15E    012BBAS        ON      NM000R$  000000000150500000000015050000000001505000000000150500000000015050000000000000000000000000000015000000000000057100000000000085935500000000000150502016071800000010000000000000BRBBASACNOR3261
012016071478BBASG16     070BBAS        ON      NM000R$  000000000024000000000003040000000000230000000000028200000000003040000000000145000000000000000021000000000000024300000000000006873000000000000160502016071800000010000000000000BRBBASACNOR3259
012016071438BBASG16E    012BBAS        ON      NM000R$  000000000160500000000016050000000001605000000000160500000000016050000000000000000000000000000080000000000000398100000000000638950500000000000160502016071800000010000000000000BRBBASACNOR3261
012016071478BBASG17     070BBAS        ON      NM000R$  000000000012000000000002070000000000120000000000016500000000002030000000000185000000000021400172000000000000332500000000000055070000000000000170502016071800000010000000000000BRBBASACNOR3259
012016071478BBASG18     070BBAS        ON      NM000R$  000000000004200000000001060000000000035000000000006600000000001000000000000094000000000010000749000000000001969100000000000130933300000000000180502016071800000010000000000000BRBBASACNOR3259
012016071478BBASG19     070BBAS        ON      NM000R$  000000000000900000000000280000000000005000000000001400000000000240000000000023000000000002400584000000000002637300000000000038356300000000000190502016071800000010000000000000BRBBASACNOR3259
012016071478BBASG20     070BBAS        ON      NM000R$  000000000000200000000000040000000000001000000000000200000000000030000000000002000000000000300124000000000001063300000000000002804600000000000200502016071800000010000000000000BRBBASACNOR3259
012016071478BBASG21     070BBAS        ON      NM000R$  000000000000100000000000010000000000001000000000000100000000000010000000000000000000000000100001000000000000000300000000000000000300000000000210502016071800000010000000000000BRBBASACNOR3259
012016071478BBASG22     070BBAS        ON      NM000R$  000000000000100000000000010000000000001000000000000100000000000010000000000000000000000000200001000000000000002000000000000000002000000000000220502016071800000010000000000000BRBBASACNOR3259
012016071478BBASG42     070BBAS        ON      NM000R$  000000000050000000000005000000000000500000000000050000000000005000000000000000000000000000000002000000000000000400000000000000200000000000000140502016071800000010000000000000BRBBASACNOR3259
012016071438BBASG43E    012BBAS        ON      NM000R$  000000000130500000000013050000000001305000000000130500000000013050000000000000000000000000000002000000000000000300000000000000391500000000000130502016071800000010000000000000BRBBASACNOR3261
012016071478BBASG45     070BBAS        ON      NM000R$  000000000029500000000003650000000000295000000000033000000000003650000000000004000000000000000005000000000000020100000000000006647500000000000155502016071800000010000000000000BRBBASACNOR3259
012016071438BBASG45E    012BBAS        ON      NM000R$  000000000155500000000015550000000001555000000000155500000000015550000000000000000000000000000023000000000000093500000000000145392500000000000155502016071800000010000000000000BRBBASACNOR3261
012016071478BBASG46     070BBAS        ON      NM000R$  000000000018800000000002560000000000188000000000023600000000002490000000000000000000000032000021000000000000099000000000000023367400000000000165502016071800000010000000000000BRBBASACNOR3259
012016071438BBASG46E    012BBAS        ON      NM000R$  000000000165500000000016550000000001655000000000165500000000016550000000000000000000000000000071000000000000560000000000000926800000000000000165502016071800000010000000000000BRBBASACNOR3261
012016071478BBASG47     070BBAS        ON      NM000R$  000000000008200000000001560000000000078000000000012500000000001540000000000100000000000000000054000000000000162200000000000020341400000000000175502016071800000010000000000000BRBBASACNOR3259
012016071478BBASG48     070BBAS        ON      NM000R$  000000000001900000000000610000000000016000000000003800000000000570000000000045000000000000000094000000000000406000000000000015604700000000000185502016071800000010000000000000BRBBASACNOR3259
012016071478BBASG49     070BBAS        ON      NM000R$  000000000000500000000000090000000000004000000000000600000000000090000000000004000000000001000023000000000000028600000000000000172300000000000195502016071800000010000000000000BRBBASACNOR3259
012016071478BBASG50     070BBAS        ON      NM000R$  000000000000100000000000010000000000001000000000000100000000000010000000000000000000000000200006000000000000006000000000000000006000000000000205502016071800000010000000000000BRBBASACNOR3259
012016071478BBASG60     070BBASE       ON      NM000R$  000000000000200000000000040000000000002000000000000200000000000040000000000003000000000000500008000000000000252700000000000000507400000000000198002016071800000010000000000000BRBBASACNOR3259
012016071478BBASG80     070BBASE       ON      NM000R$  000000000033100000000003310000000000331000000000033100000000003310000000000000000000000000000001000000000000000400000000000000132400000000000200202017071700000010000000000000BRBBASACNOR3261
012016071478BBASG81     070BBAS        ON      NM000R$  000000000027500000000002760000000000275000000000027500000000002760000000000000000000000000000002000000000000000900000000000000247800000000000207702017071700000010000000000000BRBBASACNOR3259
012016071478BBASG92     070BBASE       ON      NM000R$  000000000026500000000002650000000000200000000000025200000000002000000000000000000000000000000003000000000000114000000000000028800500000000000225202017071700000010000000000000BRBBASACNOR3261
012016071478BBASG98     070BBASE       ON      NM000R$  000000000038400000000004000000000000384000000000039900000000004000000000000000000000000000000002000000000000007100000000000002838400000000000185202017071700000010000000000000BRBBASACNOR3261
012016071478BBASH16     070BBAS        ON      NM000R$  000000000026500000000003670000000000265000000000028200000000003670000000000265000000000036800018000000000000015300000000000004316000000000000158802016081500000010000000000000BRBBASACNOR3259
012016071478BBASH17     070BBAS        ON      NM000R$  000000000020000000000002400000000000196000000000020600000000002400000000000215000000000030900013000000000000006700000000000001380200000000000168802016081500000010000000000000BRBBASACNOR3259
012016071478BBASH18     070BBAS  FM    ON      NM000R$  000000000011900000000001590000000000112000000000013600000000001540000000000122000000000015400154000000000000267600000000000036404300000000000178802016081500000010000000000000BRBBASACNOR3259
012016071478BBASH19     070BBAS  FM    ON      NM000R$  000000000006600000000000980000000000064000000000008100000000000950000000000090000000000009500880000000000002307800000000000188269500000000000188802016081500000010000000000000BRBBASACNOR3259
012016071478BBASH20     070BBAS        ON      NM000R$  000000000004200000000000550000000000037000000000004200000000000530000000000046000000000005200300000000000002340800000000000098696800000000000198802016081500000010000000000000BRBBASACNOR3259
012016071478BBASH21     070BBAS        ON      NM000R$  000000000002500000000000300000000000020000000000002400000000000300000000000029000000000003000166000000000000407300000000000010032400000000000208802016081500000010000000000000BRBBASACNOR3259
012016071478BBASH22     070BBAS        ON      NM000R$  000000000001400000000000150000000000010000000000001200000000000130000000000013000000000001400056000000000000209800000000000002689400000000000223802016081500000010000000000000BRBBASACNOR3259
012016071478BBASH24     070BBAS        ON      NM000R$  000000000000500000000000080000000000005000000000000600000000000070000000000005000000000000800020000000000000050900000000000000319100000000000238802016081500000010000000000000BRBBASACNOR3259
012016071478BBASH43     070BBAS        ON      NM000R$  000000000050000000000005500000000000500000000000050800000000005500000000000000000000000000000002000000000000006000000000000003050000000000000133802016081500000010000000000000BRBBASACNOR3257
012016071478BBASH44     070BBAS        ON      NM000R$  000000000047500000000004750000000000475000000000047500000000004750000000000010000000000000000001000000000000000200000000000000095000000000000143802016081500000010000000000000BRBBASACNOR3261
012016071478BBASH45     070BBAS        ON      NM000R$  000000000038600000000003860000000000386000000000038600000000003860000000000000000000000000000001000000000000007900000000000003049400000000000153802016081500000010000000000000BRBBASACNOR3259
012016071478BBASH47     070BBAS  FM    ON      NM000R$  000000000014500000000001960000000000145000000000017000000000001960000000000165000000000020200017000000000000035700000000000006075400000000000173802016081500000010000000000000BRBBASACNOR3259
012016071478BBASH48     070BBAS  FM    ON      NM000R$  000000000009000000000001250000000000086000000000010400000000001210000000000100000000000012600195000000000000389300000000000040772300000000000183802016081500000010000000000000BRBBASACNOR3259
012016071478BBASH49     070BBAS  FM    ON      NM000R$  000000000005000000000000740000000000049000000000006200000000000690000000000007000000000006900072000000000000209800000000000013031200000000000193802016081500000010000000000000BRBBASACNOR3259
012016071478BBASH50     070BBAS        ON      NM000R$  000000000003000000000000410000000000027000000000003100000000000410000000000035000000000004200042000000000000237000000000000007437700000000000203802016081500000010000000000000BRBBASACNOR3259
012016071478BBASH60     070BBASE       ON      NM000R$  000000000003600000000000450000000000034000000000003500000000000440000000000018000000000004700027000000000000537400000000000018847000000000000201302016081500000010000000000000BRBBASACNOR3259
012016071478BBASH69     070BBASE       ON      NM000R$  000000000005400000000000780000000000054000000000006900000000000770000000000061000000000000000023000000000000144400000000000010074800000000000191302016081500000010000000000000BRBBASACNOR3259
012016071478BBASH75     070BBASE       ON      NM000R$  000000000028800000000002950000000000285000000000028800000000002950000000000335000000000000000008000000000000007100000000000002048800000000000156302016081500000010000000000000BRBBASACNOR3259
012016071478BBASH77     070BBASE       ON      NM000R$  000000000013300000000001810000000000133000000000016800000000001730000000000005000000000018100006000000000000019700000000000003314300000000000176302016081500000010000000000000BRBBASACNOR3259
012016071478BBASH79     070BBASE       ON      NM000R$  000000000007800000000001050000000000078000000000009600000000001050000000000000000000000000000008000000000000504700000000000048949900000000000186302016081500000010000000000000BRBBASACNOR3253
012016071478BBASH80     070BBASE       ON      NM000R$  000000000002700000000000320000000000026000000000002700000000000270000000000000000000000003400013000000000000039600000000000001087900000000000206302016081500000010000000000000BRBBASACNOR3259
012016071478BBASH89     070BBASE       ON      NM000R$  000000000004000000000000660000000000040000000000005300000000000660000000000000000000000000000004000000000000022000000000000001187000000000000196302016081500000010000000000000BRBBASACNOR3259
012016071478BBASH94     070BBAS        ON      NM000R$  000000000002000000000000200000000000019000000000001900000000000200000000000011000000000002700013000000000000005700000000000000113000000000000213802016081500000010000000000000BRBBASACNOR3253
012016071478BBASH95     070BBAS        ON      NM000R$  000000000001400000000000150000000000013000000000001400000000000130000000000010000000000006400041000000000000047500000000000000691900000000000218802016081500000010000000000000BRBBASACNOR3253
012016071478BBASH97     070BBAS        ON      NM000R$  000000000001000000000000100000000000010000000000001000000000000100000000000003000000000001700001000000000000001200000000000000012000000000000228802016081500000010000000000000BRBBASACNOR3253
012016071478BBASI18     070BBAS  FM    ON      NM000R$  000000000017400000000001990000000000170000000000018400000000001930000000000000000000000000000008000000000000009700000000000001790700000000000177702016091900000010000000000000BRBBASACNOR3259
012016071478BBASI19     070BBAS  FM    ON      NM000R$  000000000010400000000001120000000000100000000000010300000000001070000000000090000000000000000010000000000000018100000000000001875200000000000192702016091900000010000000000000BRBBASACNOR3260
012016071478BBASI20     070BBAS        ON      NM000R$  000000000008500000000000970000000000080000000000008400000000000970000000000070000000000011000023000000000000071000000000000006034300000000000197702016091900000010000000000000BRBBASACNOR3259
012016071478BBASI22     070BBAS        ON      NM000R$  000000000004500000000000450000000000040000000000004100000000000400000000000010000000000006000002000000000000001300000000000000053500000000000217702016091900000010000000000000BRBBASACNOR3259
012016071478BBASI47     070BBAS  FM    ON      NM000R$  000000000022000000000002200000000000220000000000022000000000002200000000000200000000000000000001000000000000000500000000000000110000000000000172702016091900000010000000000000BRBBASACNOR3259
012016071478BBASI48     070BBAS  FM    ON      NM000R$  000000000014700000000001650000000000147000000000015400000000001650000000000015000000000000000003000000000000003300000000000000508500000000000182702016091900000010000000000000BRBBASACNOR3259
012016071478BBASI50     070BBAS        ON      NM000R$  000000000006800000000000800000000000068000000000007100000000000800000000000050000000000000000006000000000000013300000000000000955300000000000202702016091900000010000000000000BRBBASACNOR3259
012016071478BBASI68     070BBAS  FM    ON      NM000R$  000000000012300000000001370000000000123000000000013000000000001370000000000000000000000000000003000000000000003000000000000000392000000000000187702016091900000010000000000000BRBBASACNOR3260
012016071478BBASI77     070BBASE       ON      NM000R$  000000000023200000000002320000000000232000000000023200000000002320000000000000000000000000000001000000000000010000000000000002320000000000000170202016091900000010000000000000BRBBASACNOR3260
012016071478BBASI79     070BBASE       ON      NM000R$  000000000009800000000001000000000000098000000000009900000000001000000000000008000000000000000002000000000000002100000000000000209800000000000195202016091900000010000000000000BRBBASACNOR3259
012016071478BBASI80     070BBASE       ON      NM000R$  000000000007700000000000920000000000077000000000008400000000000920000000000000000000000000000007000000000000003600000000000000302700000000000200202016091900000010000000000000BRBBASACNOR3259
012016071478BBASI90     070BBAS        ON      NM000R$  000000000005400000000000600000000000054000000000005700000000000550000000000000000000000000000007000000000000203600000000000011747300000000000207702016091900000010000000000000BRBBASACNOR3260
012016071478BBASJ21     070BBAS        ON      NM000R$  000000000008600000000000860000000000086000000000008600000000000860000000000000000000000000000001000000000000002000000000000000172000000000000210002016101700000010000000000000BRBBASACNOR3261
012016071478BBASJ23     070BBAS        ON      NM000R$  000000000005000000000000500000000000050000000000005000000000000500000000000013000000000000000001000000000000000100000000000000005000000000000230002016101700000010000000000000BRBBASACNOR3259
012016071478BBASK77     070BBASE       ON      NM000R$  000000000024000000000002750000000000240000000000025300000000002750000000000000000000000000000002000000000000008000000000000002025000000000000179802016112100000010000000000000BRBBASACNOR3261
012016071478BBASK91     070BBASE       ON      NM000R$  000000000009000000000001160000000000090000000000009900000000001160000000000000000000000000000002000000000000008000000000000000798000000000000214802016112100000010000000000000BRBBASACNOR3261
012016071482BBASS14     080BBASE       ON      NM000R$  000000000000100000000000010000000000001000000000000100000000000010000000000000000000000000100001000000000000001000000000000000001000000000000135502016071800000010000000000000BRBBASACNOR3257
012016071482BBASS16     080BBASE       ON      NM000R$  000000000000100000000000010000000000001000000000000100000000000010000000000000000000000000100001000000000000000100000000000000000100000000000160502016071800000010000000000000BRBBASACNOR3259
012016071482BBASS18     080BBASE       ON      NM000R$  000000000001300000000000170000000000002000000000000900000000000020000000000002000000000001000065000000000000233100000000000002253600000000000180502016071800000010000000000000BRBBASACNOR3259
012016071482BBASS19     080BBASE       ON      NM000R$  000000000006800000000000840000000000026000000000004300000000000350000000000020000000000004500035000000000000120500000000000005246400000000000190502016071800000010000000000000BRBBASACNOR3259
012016071482BBASS20     080BBASE       ON      NM000R$  000000000016500000000001650000000000115000000000012200000000001280000000000000000000000000000016000000000000016900000000000002073600000000000200502016071800000010000000000000BRBBASACNOR3259
012016071482BBASS45     080BBASE       ON      NM000R$  000000000000100000000000010000000000001000000000000100000000000010000000000000000000000000100004000000000000011300000000000000011300000000000155502016071800000010000000000000BRBBASACNOR3259
012016071482BBASS46     080BBASE       ON      NM000R$  000000000000100000000000010000000000001000000000000100000000000010000000000000000000000000100002000000000000020000000000000000020000000000000165502016071800000010000000000000BRBBASACNOR3259
012016071482BBASS47     080BBASE       ON      NM000R$  000000000000300000000000030000000000001000000000000200000000000020000000000001000000000000200013000000000000108800000000000000222200000000000175502016071800000010000000000000BRBBASACNOR3259
012016071482BBASS48     080BBASE       ON      NM000R$  000000000003600000000000360000000000007000000000001800000000000100000000000006000000000000000014000000000000097200000000000001787400000000000185502016071800000010000000000000BRBBASACNOR3259
012016071482BBASS49     080BBASE       ON      NM000R$  000000000007800000000000780000000000078000000000007800000000000780000000000000000000000000000001000000000000000200000000000000015600000000000195502016071800000010000000000000BRBBASACNOR3259
012016071482BBASS60     080BBASE       ON      NM000R$  000000000012100000000001210000000000121000000000012100000000001210000000000000000000000000000001000000000000002200000000000000266200000000000198002016071800000010000000000000BRBBASACNOR3259
012016071482BBASS98     080BBASE       ON      NM000R$  000000000025000000000002500000000000245000000000024500000000002450000000000000000000000025000002000000000000100000000000000024500500000000000185202017071700000010000000000000BRBBASACNOR3261
012016071482BBAST15     080BBASE       ON      NM000R$  000000000000500000000000050000000000002000000000000300000000000030000000000004000000000003300062000000000000046000000000000000161500000000000151302016081500000010000000000000BRBBASACNOR3259
012016071482BBAST16     080BBASE       ON      NM000R$  000000000001000000000000100000000000007000000000000700000000000080000000000007000000000007000031000000000000178900000000000001384800000000000158802016081500000010000000000000BRBBASACNOR3259
012016071482BBAST17     080BBASE FM    ON      NM000R$  000000000002200000000000240000000000015000000000001700000000000180000000000016000000000006000115000000000000231500000000000004155600000000000168802016081500000010000000000000BRBBASACNOR3259
012016071482BBAST18     080BBASE FM    ON      NM000R$  000000000005100000000000510000000000033000000000003600000000000350000000000033000000000000000060000000000000204800000000000007473200000000000178802016081500000010000000000000BRBBASACNOR3259
012016071482BBAST19     080BBASE       ON      NM000R$  000000000010600000000001060000000000070000000000007300000000000700000000000072000000000010000029000000000000022700000000000001672300000000000188802016081500000010000000000000BRBBASACNOR3259
012016071482BBAST43     080BBASE       ON      NM000R$  000000000000100000000000020000000000001000000000000100000000000020000000000001000000000000200004000000000000059500000000000000094000000000000133802016081500000010000000000000BRBBASACNOR3257
012016071482BBAST44     080BBASE       ON      NM000R$  000000000000200000000000020000000000002000000000000200000000000020000000000003000000000000500001000000000000000100000000000000000200000000000143802016081500000010000000000000BRBBASACNOR3261
012016071482BBAST45     080BBASE       ON      NM000R$  000000000000400000000000060000000000004000000000000400000000000060000000000005000000000004900011000000000000223200000000000000938900000000000153802016081500000010000000000000BRBBASACNOR3259
012016071482BBAST46     080BBASE       ON      NM000R$  000000000001400000000000140000000000011000000000001100000000000110000000000000000000000002500003000000000000000700000000000000008300000000000163802016081500000010000000000000BRBBASACNOR3259
012016071482BBAST47     080BBASE FM    ON      NM000R$  000000000003700000000000370000000000024000000000002600000000000260000000000007000000000000000004000000000000004600000000000000120200000000000173802016081500000010000000000000BRBBASACNOR3259
012016071482BBAST48     080BBASE FM    ON      NM000R$  000000000007500000000000750000000000048000000000006000000000000500000000000050000000000000000031000000000000046100000000000002780500000000000183802016081500000010000000000000BRBBASACNOR3259
012016071482BBAST49     080BBASE       ON      NM000R$  000000000009800000000000980000000000098000000000009800000000000980000000000099000000000000000001000000000000008800000000000000862400000000000193802016081500000010000000000000BRBBASACNOR3259
012016071482BBAST66     080BBASE       ON      NM000R$  000000000001000000000000100000000000008000000000000800000000000100000000000000000000000000000006000000000000021000000000000000180000000000000161302016081500000010000000000000BRBBASACNOR3259
012016071482BBAST69     080BBASE       ON      NM000R$  000000000011300000000001130000000000080000000000008500000000000810000000000000000000000000000024000000000000039700000000000003375400000000000191302016081500000010000000000000BRBBASACNOR3259
012016071482BBAST77     080BBASE       ON      NM000R$  000000000003300000000000330000000000028000000000002900000000000310000000000020000000000003400012000000000000038600000000000001151800000000000176302016081500000010000000000000BRBBASACNOR3259
012016071482BBAST79     080BBASE       ON      NM000R$  000000000006500000000000650000000000065000000000006500000000000650000000000049000000000000000001000000000000001300000000000000084500000000000186302016081500000010000000000000BRBBASACNOR3253
012016071482BBASU15     080BBASE       ON      NM000R$  000000000001900000000000190000000000019000000000001900000000000190000000000000000000000000000001000000000000001500000000000000028500000000000147702016091900000010000000000000BRBBASACNOR3259
012016071482BBASU18     080BBASE FM    ON      NM000R$  000000000008500000000000850000000000061000000000007800000000000610000000000000000000000000000003000000000000011000000000000000863000000000000177702016091900000010000000000000BRBBASACNOR3259
012016071482BBASU19     080BBASE       ON      NM000R$  000000000015900000000001590000000000159000000000015900000000001590000000000000000000000000000001000000000000000200000000000000031800000000000192702016091900000010000000000000BRBBASACNOR3260
012016071482BBASU46     080BBASE FM    ON      NM000R$  000000000005000000000000550000000000050000000000005400000000000520000000000000000000000000000004000000000000012200000000000000661000000000000167702016091900000010000000000000BRBBASACNOR3260
012016071482BBASU48     080BBASE FM    ON      NM000R$  000000000008300000000000830000000000083000000000008300000000000830000000000000000000000000000001000000000000200000000000000016600000000000000182702016091900000010000000000000BRBBASACNOR3259
012016071482BBASU86     080BBASE       ON      NM000R$  000000000002800000000000300000000000028000000000002800000000000300000000000020000000000000000002000000000000200300000000000005609000000000000162702016091900000010000000000000BRBBASACNOR3260
012016071482BBASV97     080BBASE       ON      NM000R$  000000000007300000000000730000000000070000000000007200000000000700000000000000000000000000000002000000000000003000000000000000216000000000000177502016101700000010000000000000BRBBASACNOR3261
012016071402BBDC3       010BRADESCO    ON      N1   R$  000000000284900000000029180000000002849000000000289600000000029000000000002900000000000290107812000000000001824800000000005285031400000000000000009999123100000010000000000000BRBBDCACNOR1651
012016071496BBDC3F      020BRADESCO    ON      N1   R$  000000000280200000000029150000000002802000000000289400000000029030000000002865000000000290300063000000000000001986000000000005749095000000000000009999123100000010000000000000BRBBDCACNOR1651
012016071402BBDC4       010BRADESCO    PN      N1   R$  000000000275000000000028310000000002750000000000280500000000028300000000002828000000000283035996000000000020407600000000057251128800000000000000009999123100000010000000000000BRBBDCACNPR8651
012016071496BBDC4F      020BRADESCO    PN      N1   R$  000000000272400000000028350000000002724000000000280200000000028350000000002800000000000283500521000000000000014828000000000041563129000000000000009999123100000010000000000000BRBBDCACNPR8651
012016071462BBDC4T      030BRADESCO    PN      N1060R$  000000000286800000000028690000000002868000000000286800000000028690000000000000000000000000000002000000000000000500000000000001434084000000000000009999123100000010000000000000BRBBDCACNPR8651
012016071478BBDCE1      070BBDCE       PN      N1000R$  000000000034700000000003470000000000347000000000034700000000003470000000000000000000000000000001000000000000006160000000000002137520000000000295302017051500000010000000000000BRBBDCACNPR8645
012016071478BBDCF57     070BBDCE       PN      N1000R$  000000000021800000000002180000000000175000000000017600000000001750000000000000000000000000000002000000000000003600000000000000634300000000000372502018061800000010000000000000BRBBDCACNPR8651
012016071478BBDCG17     070BBDC        PN      N1000R$  000000000035000000000003700000000000340000000000036000000000003630000000000047000000000000000011000000000000008400000000000003027200000000000246802016071800000010000000000000BRBBDCACNPR8633
012016071478BBDCG2      070BBDC        PN      N1000R$  000000000000900000000000280000000000009000000000002000000000000240000000000021000000000002700099000000000000321510000000000006525040000000000283202016071800000010000000000000BRBBDCACNPR8635
012016071478BBDCG21     070BBDCE       PN      N1000R$  000000000093200000000009490000000000932000000000094000000000009490000000000000000000000000000004000000000000000050000000000000047040000000000187702016071800000010000000000000BRBBDCACNPR8645
012016071478BBDCG3      070BBDC        PN      N1000R$  000000000077500000000007940000000000775000000000077600000000007940000000000000000000000000000005000000000000008700000000000006752380000000000203602016071800000010000000000000BRBBDCACNPR8643
012016071478BBDCG30     070BBDC        PN      N1000R$  000000000044700000000004470000000000447000000000044700000000004470000000000000000000000000000001000000000000011400000000000005095800000000000279402017071700000010000000000000BRBBDCACNPR8646
012016071478BBDCG33     070BBDC        PN      N1000R$  000000000025200000000002680000000000248000000000025200000000002680000000000148000000000000000005000000000000007700000000000001947000000000000256102016071800000010000000000000BRBBDCACNPR8648
012016071478BBDCG35     070BBDC        PN      N1000R$  000000000040500000000004370000000000398000000000043200000000004350000000000000000000000000000012000000000000019100000000000008253700000000000237702016071800000010000000000000BRBBDCACNPR8636
012016071478BBDCG36     070BBDC        PN      N1000R$  000000000002300000000000830000000000023000000000006800000000000830000000000080000000000000000075000000000000197100000000000013552900000000000275002016071800000010000000000000BRBBDCACNPR8648
012016071478BBDCG38     070BBDCE       PN      N1000R$  000000000054000000000005660000000000540000000000055100000000005660000000000000000000000000000005000000000000015000000000000008273300000000000226602016071800000010000000000000BRBBDCACNPR8647
012016071478BBDCG43     070BBDCE       PN      N1000R$  000000000029500000000003120000000000295000000000029500000000003120000000000040000000000000000003000000000000002700000000000000798200000000000252102016071800000010000000000000BRBBDCACNPR8646
012016071478BBDCG50     070BBDC        PN      N1000R$  000000000061000000000006300000000000610000000000061300000000006300000000000000000000000000000017000000000000034000000000000020874530000000000219502016071800000010000000000000BRBBDCACNPR8635
012016071478BBDCG55     070BBDCE       PN      N1000R$  000000000024100000000002800000000000239000000000027700000000002760000000000258000000000000000006000000000000003820000000000001061300000000000253602016071800000010000000000000BRBBDCACNPR8636
012016071478BBDCG56     070BBDCE       PN      N1000R$  000000000047700000000005060000000000460000000000050200000000005060000000000000000000000000000006000000000000000760000000000000381710000000000230902016071800000010000000000000BRBBDCACNPR8636
012016071478BBDCG65     070BBDC        PN      N1000R$  000000000030400000000003200000000000304000000000031300000000003150000000000223000000000000000009000000000000000190000000000000059550000000000249802016071800000010000000000000BRBBDCACNPR8626
012016071478BBDCG67     070BBDC        PN      N1000R$  000000000016000000000001810000000000152000000000016800000000001750000000000136000000000000000019000000000000032700000000000005494200000000000265002016071800000010000000000000BRBBDCACNPR8626
012016071478BBDCG72     070BBDC        PN      N1000R$  000000000000200000000000040000000000002000000000000200000000000040000000000000000000000000400016000000000000057300000000000000124600000000000292302016071800000010000000000000BRBBDCACNPR8645
012016071478BBDCG81     070BBDCE       PN      N1000R$  000000000089300000000009000000000000889000000000088900000000009000000000000000000000000000000004000000000000003600000000000003202330000000000192302016071800000010000000000000BRBBDCACNPR8645
012016071478BBDCG97     070BBDCE       PN      N1000R$  000000000022000000000002200000000000220000000000022000000000002200000000000000000000000000000001000000000000004000000000000000880000000000000336302017071700000010000000000000BRBBDCACNPR8645
012016071478BBDCH1      070BBDCE       PN      N1000R$  000000000037900000000003830000000000376000000000038100000000003830000000000000000000000000000003000000000000002000000000000000763700000000000246802016081500000010000000000000BRBBDCACNPR8620
012016071478BBDCH10     070BBDC  FM    PN      N1000R$  000000000015500000000001920000000000155000000000018100000000001920000000000178000000000025000014000000000000017460000000000003161800000000000269202016081500000010000000000000BRBBDCACNPR8631
012016071478BBDCH11     070BBDC        PN      N1000R$  000000000012000000000001700000000000120000000000014700000000001700000000000100000000000000000010000000000000009080000000000001343240000000000273702016081500000010000000000000BRBBDCACNPR8631
012016071478BBDCH15     070BBDC        PN      N1000R$  000000000038000000000003850000000000380000000000038400000000003850000000000000000000000000000003000000000000002400000000000000923000000000000244902016081500000010000000000000BRBBDCACNPR8620
012016071478BBDCH16     070BBDC        PN      N1000R$  000000000032000000000003360000000000320000000000032700000000003360000000000150000000000000000010000000000000019400000000000006362300000000000252402016081500000010000000000000BRBBDCACNPR8620
012016071478BBDCH17     070BBDC  FM    PN      N1000R$  000000000024300000000002720000000000227000000000025700000000002700000000000240000000000027100019000000000000029325000000000007540330000000000260102016081500000010000000000000BRBBDCACNPR8620
012016071478BBDCH18     070BBDC        PN      N1000R$  000000000064000000000006510000000000640000000000064200000000006430000000000000000000000000000015000000000000042400000000000027249600000000000218102016081500000010000000000000BRBBDCACNPR8649
012016071478BBDCH30     070BBDCE       PN      N1000R$  000000000012400000000001790000000000124000000000016700000000001790000000000134000000000000000011000000000000020660000000000003459760000000000271402016081500000010000000000000BRBBDCACNPR8646
012016071478BBDCH33     070BBDC  FM    PN      N1000R$  000000000007400000000001300000000000074000000000011300000000001220000000000102000000000013500049000000000000085800000000000009772900000000000278702016081500000010000000000000BRBBDCACNPR8649
012016071478BBDCH4      070BBDCE       PN      N1000R$  000000000030000000000003000000000000300000000000030000000000003000000000000000000000000000000002000000000000002600000000000000780000000000000254302016081500000010000000000000BRBBDCACNPR8620
012016071478BBDCH53     070BBDC        PN      N1000R$  000000000070300000000007030000000000703000000000070300000000007030000000000000000000000000000001000000000000004000000000000002812000000000000213102016081500000010000000000000BRBBDCACNPR8644
012016071478BBDCH59     070BBDC        PN      N1000R$  000000000044200000000004730000000000442000000000046900000000004700000000000000000000000000000010000000000000016300000000000007648600000000000236002016081500000010000000000000BRBBDCACNPR8649
012016071478BBDCH6      070BBDCE       PN      N1000R$  000000000020000000000002660000000000200000000000025300000000002550000000000210000000000000000008000000000000000330000000000000083780000000000258202016081500000010000000000000BRBBDCACNPR8620
012016071478BBDCH63     070BBDCE       PN      N1000R$  000000000080300000000008200000000000803000000000080400000000008200000000000000000000000000000002000000000000003800000000000003056500000000000201702016081500000010000000000000BRBBDCACNPR8639
012016071478BBDCH73     070BBDCE       PN      N1000R$  000000000003200000000000360000000000028000000000003200000000000360000000000010000000000003800018000000000000045940000000000001473420000000000303302016081500000010000000000000BRBBDCACNPR8646
012016071478BBDCH79     070BBDCE       PN      N1000R$  000000000019800000000002000000000000198000000000019900000000002000000000000185000000000000000002000000000000002000000000000000398000000000000266902016081500000010000000000000BRBBDCACNPR8645
012016071478BBDCH83     070BBDCE       PN      N1000R$  000000000056000000000005800000000000560000000000056100000000005800000000000000000000000000000002000000000000004300000000000002414000000000000225602016081500000010000000000000BRBBDCACNPR8649
012016071478BBDCH85     070BBDCE       PN      N1000R$  000000000050000000000005000000000000472000000000049800000000004940000000000000000000000000000005000000000000000470000000000000234100000000000233502016081500000010000000000000BRBBDCACNPR8646
012016071478BBDCH87     070BBDCE       PN      N1000R$  000000000066000000000006600000000000660000000000066000000000006600000000000000000000000000000001000000000000004400000000000002904000000000000215602016081500000010000000000000BRBBDCACNPR8649
012016071478BBDCH88     070BBDCE       PN      N1000R$  000000000008700000000000940000000000079000000000008300000000000900000000000000000000000000000240000000000000260200000000000021754600000000000286202016081500000010000000000000BRBBDCACNPR8648
012016071478BBDCH89     070BBDC  FM    PN      N1000R$  000000000006500000000000840000000000059000000000007300000000000840000000000062000000000008400045000000000000076000000000000005600500000000000288702016081500000010000000000000BRBBDCACNPR8651
012016071478BBDCH90     070BBDC  FM    PN      N1000R$  000000000004200000000000500000000000038000000000004200000000000500000000000030000000000005000045000000000000159600000000000006709500000000000298702016081500000010000000000000BRBBDCACNPR8651
012016071478BBDCH91     070BBDCE       PN      N1000R$  000000000001300000000000150000000000013000000000001400000000000150000000000013000000000003000002000000000000014500000000000000212500000000000313302016081500000010000000000000BRBBDCACNPR8647
012016071478BBDCH97     070BBDC        PN      N1000R$  000000000005200000000000620000000000043000000000005200000000000620000000000000000000000000000006000000000000030300000000000001590900000000000293702016081500000010000000000000BRBBDCACNPR8651
012016071478BBDCI32     070BBDC        PN      N1000R$  000000000011500000000001170000000000109000000000011300000000001130000000000000000000000000000126000000000000163300000000000018556300000000000291102016091900000010000000000000BRBBDCACNPR8646
012016071478BBDCI45     070BBDC  FM    PN      N1000R$  000000000029600000000003110000000000296000000000029800000000003110000000000000000000000000000002000000000000000600000000000000179100000000000259502016091900000010000000000000BRBBDCACNPR8651
012016071478BBDCI46     070BBDC        PN      N1000R$  000000000008000000000000800000000000073000000000007900000000000800000000000000000000000000000011000000000000052300000000000004169700000000000301102016091900000010000000000000BRBBDCACNPR8651
012016071478BBDCI68     070BBDC  FM    PN      N1000R$  000000000013200000000001320000000000132000000000013200000000001320000000000000000000000000000001000000000000000100000000000000013200000000000287002016091900000010000000000000BRBBDCACNPR8651
012016071478BBDCI80     070BBDCE       PN      N1000R$  000000000003500000000000350000000000035000000000003500000000000350000000000000000000000000000001000000000000002400000000000000084000000000000320602016091900000010000000000000BRBBDCACNPR8632
012016071478BBDCJ47     070BBDCE       PN      N1000R$  000000000022300000000002230000000000206000000000021800000000002070000000000000000000000000000009000000000000449200000000000098123100000000000362902017101600000010000000000000BRBBDCACNPR8651
012016071478BBDCJ52     070BBDCE       ON      N1000R$  000000000018500000000002690000000000148000000000016500000000001990000000000000000000000000000007000000000000061700000000000010197400000000000372502017101600000010000000000000BRBBDCACNOR1651
012016071478BBDCJ62     070BBDCE       PN      N1000R$  000000000021600000000002160000000000173000000000017300000000001730000000000000000000000000000003000000000000120200000000000020798900000000000367902017101600000010000000000000BRBBDCACNPR8651
012016071478BBDCJ7      070BBDC        PN      N1000R$  000000000041800000000004180000000000418000000000041800000000004180000000000000000000000000000001000000000000006200000000000002591600000000000248102016101700000010000000000000BRBBDCACNPR8645
012016071478BBDCK98     070BBDCE       PN      N1000R$  000000000020100000000002010000000000197000000000020000000000001970000000000000000000000000000003000000000000168800000000000033928400000000000382502017112100000010000000000000BRBBDCACNPR8651
012016071478BBDCL95     070BBDCE       PN      N1000R$  000000000069400000000006940000000000694000000000069400000000006940000000000000000000000000000001000000000000004620000000000003206280000000000220802016121900000010000000000000BRBBDCACNPR8638
012016071482BBDCQ12     080BBDCE       PN      N1000R$  000000000003400000000000610000000000034000000000003400000000000610000000000000000000000000000004000000000000006460000000000000222340000000000236302017051500000010000000000000BRBBDCACNPR8645
012016071482BBDCR8      080BBDCE       PN      N1000R$  000000000017400000000001740000000000172000000000017200000000001720000000000000000000000000000002000000000000003600000000000000619400000000000280002018061800000010000000000000BRBBDCACNPR8651
012016071482BBDCS2      080BBDCE       PN      N1000R$  000000000004500000000000670000000000030000000000004900000000000300000000000000000000000006500007000000000000008500000000000000424500000000000283202016071800000010000000000000BRBBDCACNPR8635
012016071482BBDCS23     080BBDCE       PN      N1000R$  000000000020000000000002000000000000200000000000020000000000002000000000000000000000000000000001000000000000004000000000000000800000000000000273102017071700000010000000000000BRBBDCACNPR8647
012016071482BBDCS36     080BBDCE       PN      N1000R$  000000000001300000000000240000000000006000000000000900000000000060000000000005000000000001200062000000000000243700000000000002396900000000000275002016071800000010000000000000BRBBDCACNPR8648
012016071482BBDCS67     080BBDCE       PN      N1000R$  000000000000200000000000030000000000001000000000000100000000000010000000000000000000000000100022000000000000120000000000000000234870000000000265002016071800000010000000000000BRBBDCACNPR8626
012016071482BBDCT1      080BBDCE FM    PN      N1000R$  000000000002000000000000200000000000011000000000001200000000000110000000000000000000000000000025000000000000066860000000000000852300000000000246802016081500000010000000000000BRBBDCACNPR8620
012016071482BBDCT10     080BBDCE FM    PN      N1000R$  000000000004900000000000490000000000044000000000004800000000000440000000000000000000000000000030000000000000129000000000000006201380000000000269202016081500000010000000000000BRBBDCACNPR8631
012016071482BBDCT11     080BBDCE       PN      N1000R$  000000000006300000000000630000000000056000000000005900000000000560000000000000000000000000000012000000000000043020000000000002556830000000000273702016081500000010000000000000BRBBDCACNPR8631
012016071482BBDCT17     080BBDCE       PN      N1000R$  000000000002900000000000290000000000025000000000002600000000000260000000000023000000000006400007000000000000026600000000000000697400000000000260102016081500000010000000000000BRBBDCACNPR8620
012016071482BBDCT3      080BBDCE       PN      N1000R$  000000000001600000000000160000000000015000000000001500000000000150000000000000000000000000000013000000000000100000000000000001550000000000000250502016081500000010000000000000BRBBDCACNPR8620
012016071482BBDCT30     080BBDCE       PN      N1000R$  000000000005600000000000560000000000050000000000005100000000000500000000000000000000000005000007000000000000010430000000000000540500000000000271402016081500000010000000000000BRBBDCACNPR8646
012016071482BBDCT33     080BBDCE FM    PN      N1000R$  000000000008500000000000850000000000073000000000007800000000000740000000000068000000000020000141000000000000144400000000000011320100000000000278702016081500000010000000000000BRBBDCACNPR8649
012016071482BBDCT4      080BBDCE       PN      N1000R$  000000000002100000000000220000000000017000000000001800000000000170000000000000000000000000000063000000000000251000000000000004742760000000000254302016081500000010000000000000BRBBDCACNPR8620
012016071482BBDCT6      080BBDCE FM    PN      N1000R$  000000000002400000000000240000000000024000000000002400000000000240000000000000000000000000000001000000000000000200000000000000004800000000000258202016081500000010000000000000BRBBDCACNPR8620
012016071482BBDCT79     080BBDCE       PN      N1000R$  000000000003700000000000380000000000036000000000003600000000000380000000000000000000000011900008000000000000006500000000000000236000000000000266902016081500000010000000000000BRBBDCACNPR8645
012016071482BBDCT88     080BBDCE       PN      N1000R$  000000000011700000000001170000000000117000000000011700000000001170000000000000000000000000000001000000000000002300000000000000269100000000000286202016081500000010000000000000BRBBDCACNPR8648
012016071482BBDCT89     080BBDCE       PN      N1000R$  000000000013000000000001300000000000130000000000013000000000001300000000000000000000000000000001000000000000003400000000000000442000000000000288702016081500000010000000000000BRBBDCACNPR8651
012016071482BBDCU1      080BBDCE       PN      N1000R$  000000000010300000000001030000000000103000000000010300000000001030000000000000000000000000000001000000000000001000000000000000103000000000000277402016091900000010000000000000BRBBDCACNPR8637
012016071482BBDCV33     080BBDCE       PN      N1000R$  000000000009000000000000910000000000090000000000009000000000000910000000000000000000000000000002000000000002000000000000000180200000000000000268502016101700000010000000000000BRBBDCACNPR8637
012016071482BBDCV36     080BBDCE       PN      N1000R$  000000000009600000000000960000000000077000000000008400000000000770000000000000000000000009600007000000000000569200000000000048321300000000000222902017101600000010000000000000BRBBDCACNPR8651
012016071482BBDCV42     080BBDCE       PN      N1000R$  000000000025500000000003060000000000250000000000030100000000002900000000000000000000000029000016000000000000451700000000000136209000000000000280402017101600000010000000000000BRBBDCACNPR8651
012016071482BBDCV48     080BBDCE       ON      N1000R$  000000000003200000000000650000000000023000000000003300000000000650000000000000000000000000000003000000000000061400000000000002038900000000000230002017101600000010000000000000BRBBDCACNOR1651
012016071482BBDCV49     080BBDCE       ON      N1000R$  000000000014100000000002780000000000141000000000019500000000002780000000000000000000000000000003000000000000061400000000000011997900000000000287502017101600000010000000000000BRBBDCACNOR1651
012016071482BBDCV58     080BBDCE       PN      N1000R$  000000000023200000000002470000000000232000000000024600000000002470000000000000000000000025500004000000000000120200000000000029665500000000000282902017101600000010000000000000BRBBDCACNPR8651
012016071482BBDCW2      080BBDCE       PN      N1000R$  000000000010600000000001060000000000106000000000010600000000001060000000000000000000000000000002000000000000000200000000000000021200000000000222502017112100000010000000000000BRBBDCACNPR8651
012016071482BBDCW28     080BBDCE       PN      N1000R$  000000000027700000000002770000000000228000000000025200000000002280000000000000000000000027800002000000000000000200000000000000050500000000000280002017112100000010000000000000BRBBDCACNPR8651
012016071482BBDCW72     080BBDCE       PN      N1000R$  000000000010100000000001010000000000100000000000010000000000001000000000000000000000000010100003000000000000168800000000000016880100000000000225002017112100000010000000000000BRBBDCACNPR8651
012016071482BBDCW88     080BBDCE       PN      N1000R$  000000000029700000000002980000000000297000000000029700000000002980000000000000000000000000000002000000000000168600000000000050106300000000000282502017112100000010000000000000BRBBDCACNPR8651
012016071482BBDCX82     080BBDCE       PN      N1000R$  000000000000600000000000060000000000006000000000000600000000000060000000000000000000000000000001000000000000004620000000000000027720000000000182202016121900000010000000000000BRBBDCACNPR8638
012016071412BBFI11B     010FII BB PROGRCI      MB   R$  000000024000000000002400000000000240000000000024000000000002400000000000239200000000024399000019000000000000000064000000000015360000000000000000009999123100000010000000000000BRBBFICTF006232
012016071412BBPO11      010FII BB PRGIICI           R$  000000001127500000000113970000000011275000000001132200000000113450000000011345000000001138602244000000000000018546000000000209982793000000000000009999123100000010000000000000BRBBPOCTF003144
012016071412BBRC11      010FII BB CORP CI           R$  000000000985000000000100000000000009805000000000989500000000100000000000009900000000001000000028000000000000002766000000000027370531000000000000009999123100000010000000000000BRBBRCCTF004158
012016071402BBRK3       010BR BROKERS  ON      NM   R$  000000000016300000000001760000000000159000000000016800000000001720000000000168000000000017200223000000000000119300000000000020112600000000000000009999123100000010000000000000BRBBRKACNOR4110
012016071496BBRK3F      020BR BROKERS  ON      NM   R$  000000000014900000000001720000000000149000000000016000000000001650000000000164000000000017400005000000000000000092000000000000014729000000000000009999123100000010000000000000BRBBRKACNOR4110
012016071414BBSD11      010BB ETF SP DVCI           R$  000000000391700000000039170000000003917000000000391700000000039170000000000000000000000000000001000000000000000300000000000001175100000000000000009999123100000010000000000000BRBBSDCTF000100
012016071402BBSE3       010BBSEGURIDADEON      NM   R$  000000000284000000000029250000000002840000000000290400000000029040000000002902000000000290417594000000000009323800000000027078031400000000000000009999123100000010000000000000BRBBSEACNOR5106
012016071496BBSE3F      020BBSEGURIDADEON      NM   R$  000000000283000000000029220000000002830000000000289300000000029070000000002907000000000291000254000000000000006469000000000018720663000000000000009999123100000010000000000000BRBBSEACNOR5106
012016071462BBSE3T      030BBSEGURIDADEON      NM018R$  000000000290000000000029300000000002900000000000291600000000029300000000000000000000000000000006000000000000002800000000000008165624000000000000009999123100000010000000000000BRBBSEACNOR5106
012016071462BBSE3T      030BBSEGURIDADEON      NM032R$  000000000294300000000029440000000002943000000000294300000000029440000000000000000000000000000002000000000000000200000000000000588604000000000000009999123100000010000000000000BRBBSEACNOR5106
012016071462BBSE3T      030BBSEGURIDADEON      NM046R$  000000000294300000000029440000000002943000000000294300000000029440000000000000000000000000000002000000000000000700000000000002060239000000000000009999123100000010000000000000BRBBSEACNOR5106
012016071462BBSE3T      030BBSEGURIDADEON      NM060R$  000000000296900000000029700000000002969000000000296900000000029700000000000000000000000000000002000000000000003500000000000010393377000000000000009999123100000010000000000000BRBBSEACNOR5106
012016071462BBSE3T      030BBSEGURIDADEON      NM091R$  000000000300100000000030020000000003001000000000300100000000030020000000000000000000000000000006000000000000050000000000000150050151000000000000009999123100000010000000000000BRBBSEACNOR5106
012016071478BBSEG28     070BBSE        ON      NM000R$  000000000004500000000001030000000000045000000000009300000000001030000000000050000000000000000004000000000000002300000000000000214600000000000281702016071800000010000000000000BRBBSEACNOR5106
012016071478BBSEG29     070BBSEE       ON      NM000R$  000000000003300000000000430000000000029000000000003300000000000430000000000000000000000004100004000000000000005500000000000000185100000000000289202016071800000010000000000000BRBBSEACNOR5106
012016071478BBSEG59     070BBSE        ON      NM000R$  000000000002800000000000280000000000028000000000002800000000000280000000000000000000000000000001000000000000000600000000000000016800000000000291702016071800000010000000000000BRBBSEACNOR5106
012016071478BBSEG87     070BBSE        ON      NM000R$  000000000011000000000001540000000000110000000000014500000000001510000000000000000000000000000006000000000000016000000000000002320000000000000276702016071800000010000000000000BRBBSEACNOR5106
012016071478BBSEG88     070BBSE        ON      NM000R$  000000000005200000000000520000000000047000000000004700000000000470000000000000000000000000000002000000000000044900000000000002115300000000000286702016071800000010000000000000BRBBSEACNOR5106
012016071478BBSEH28     070BBSE        ON      NM000R$  000000000015000000000001600000000000150000000000015200000000001580000000000000000000000000000003000000000000001300000000000000197800000000000282902016081500000010000000000000BRBBSEACNOR5106
012016071478BBSEH29     070BBSE        ON      NM000R$  000000000008000000000001080000000000080000000000009400000000001050000000000054000000000017800015000000000000022100000000000002078000000000000292902016081500000010000000000000BRBBSEACNOR5106
012016071478BBSEH30     070BBSE        ON      NM000R$  000000000005300000000000640000000000053000000000005800000000000640000000000000000000000007000005000000000000011000000000000000643000000000000302902016081500000010000000000000BRBBSEACNOR5106
012016071478BBSEH31     070BBSE        ON      NM000R$  000000000003500000000000380000000000035000000000003500000000000380000000000000000000000004000003000000000000002800000000000000099500000000000312902016081500000010000000000000BRBBSEACNOR5106
012016071478BBSEH57     070BBSE  FM    ON      NM000R$  000000000018600000000001860000000000186000000000018600000000001860000000000000000000000000000001000000000000000200000000000000037200000000000277902016081500000010000000000000BRBBSEACNOR5106
012016071478BBSEH58     070BBSE  FM    ON      NM000R$  000000000008500000000001260000000000085000000000012400000000001240000000000000000000000000000006000000000000010100000000000001258500000000000287902016081500000010000000000000BRBBSEACNOR5106
012016071478BBSEH60     070BBSE  FM    ON      NM000R$  000000000005300000000000530000000000053000000000005300000000000530000000000000000000000000000001000000000000150000000000000007950000000000000307902016081500000010000000000000BRBBSEACNOR5106
012016071478BBSEH7      070BBSEE       ON      NM000R$  000000000022400000000002240000000000224000000000022400000000002240000000000000000000000000000002000000000000006000000000000001344000000000000275402016081500000010000000000000BRBBSEACNOR5106
012016071478BBSEI29     070BBSE        ON      NM000R$  000000000015500000000001550000000000155000000000015500000000001550000000000000000000000000000001000000000000000400000000000000062000000000000292902016091900000010000000000000BRBBSEACNOR5106
012016071478BBSEI31     070BBSE        ON      NM000R$  000000000007600000000000760000000000076000000000007600000000000760000000000000000000000000000001000000000000000300000000000000022800000000000312902016091900000010000000000000BRBBSEACNOR5106
012016071478BBSEI59     070BBSE  FM    ON      NM000R$  000000000011800000000001180000000000118000000000011800000000001180000000000000000000000000000001000000000000000800000000000000094400000000000297902016091900000010000000000000BRBBSEACNOR5106
012016071478BBSEJ77     070BBSEE       ON      NM000R$  000000000027100000000002850000000000271000000000027200000000002850000000000000000000000000000002000000000000050100000000000013663900000000000277502016101700000010000000000000BRBBSEACNOR5106
012016071482BBSES29     080BBSEE       ON      NM000R$  000000000003200000000000320000000000022000000000002700000000000220000000000000000000000000000002000000000000000200000000000000005400000000000289202016071800000010000000000000BRBBSEACNOR5106
012016071482BBSES88     080BBSEE       ON      NM000R$  000000000002000000000000200000000000020000000000002000000000000200000000000000000000000000000001000000000000001000000000000000020000000000000286702016071800000010000000000000BRBBSEACNOR5106
012016071482BBSET50     080BBSEE       ON      NM000R$  000000000008500000000000850000000000085000000000008500000000000850000000000000000000000000000001000000000000000400000000000000034000000000000285402016081500000010000000000000BRBBSEACNOR5104
012016071482BBSET57     080BBSEE FM    ON      NM000R$  000000000004400000000000440000000000044000000000004400000000000440000000000000000000000000000001000000000000150000000000000006600000000000000277902016081500000010000000000000BRBBSEACNOR5106
012016071482BBSET86     080BBSEE       ON      NM000R$  000000000001500000000000150000000000015000000000001500000000000150000000000013000000000000000001000000000000002000000000000000030000000000000260402016081500000010000000000000BRBBSEACNOR5106
012016071482BBSET89     080BBSEE       ON      NM000R$  000000000008300000000000880000000000083000000000008700000000000880000000000000000000000000000003000000000000151500000000000013324500000000000290402016081500000010000000000000BRBBSEACNOR5106
012016071482BBSEU58     080BBSEE FM    ON      NM000R$  000000000012400000000001240000000000124000000000012400000000001240000000000000000000000000000001000000000000003000000000000000372000000000000287902016091900000010000000000000BRBBSEACNOR5106
012016071482BBSEU59     080BBSEE       ON      NM000R$  000000000016600000000001660000000000166000000000016600000000001660000000000000000000000000000001000000000000002500000000000000415000000000000297902016091900000010000000000000BRBBSEACNOR5106
012016071402BBTG11      010BTG PACTUAL UNT EJ       R$  000000000171400000000017700000000001700000000000173700000000017580000000001758000000000175901598000000000000691000000000001200401800000000000000009999123100000010000000000000BRBBTGUNT007114
012016071496BBTG11F     020BTG PACTUAL UNT EJ       R$  000000000170700000000017590000000001707000000000173800000000017460000000001743000000000180900017000000000000000553000000000000961462000000000000009999123100000010000000000000BRBBTGUNT007114
012016071412BBVJ11      010FII C JARDIMCI           R$  000000000530000000000054500000000005300000000000539900000000054490000000005401000000000544900022000000000000001258000000000006792783000000000000009999123100000010000000000000BRBBVJCTF001167
012016071412BCFF11B     010FII BC FFII CI  ER  MB   R$  000000000696700000000071050000000006967000000000706700000000070150000000007015000000000709800038000000000000004145000000000029293193000000000000009999123100000010000000000000BRBCFFCTF000176
012016071412BCIA11      010FII BCIA    CI           R$  000000001100000000000110000000000010199000000001024300000000102000000000010010000000001020000006000000000000000074000000000000757999000000000000009999123100000010000000000000BRBCIACTF005113
012016071412BCRI11      010FII BEES CRICI           R$  000000001020000000000102000000000010130000000001018300000000101300000000010130000000001020000039000000000000000493000000000005020636000000000000009999123100000010000000000000BRBCRICTF009112
012016071402BDLL4       010BARDELLA    PN           R$  000000000314900000000031490000000003149000000000314900000000031490000000003149000000000317500002000000000000000400000000000001259600000000000000009999123100000010000000000000BRBDLLACNPR8151
012016071402BEEF3       010MINERVA     ON      NM   R$  000000000091000000000009140000000000895000000000090400000000009020000000000902000000000090801417000000000000649700000000000587714300000000000000009999123100000010000000000000BRBEEFACNOR6106
012016071496BEEF3F      020MINERVA     ON      NM   R$  000000000090700000000009100000000000892000000000090400000000009060000000000900000000000091400026000000000000000662000000000000598718000000000000009999123100000010000000000000BRBEEFACNOR6106
012016071402BEES3       010BANESTES    ON           R$  000000000023200000000002350000000000231000000000023200000000002320000000000232000000000023600009000000000000006600000000000001536600000000000000009999123100000010000000000000BRBEESACNOR9283
012016071496BEES3F      020BANESTES    ON           R$  000000000023600000000002360000000000236000000000023600000000002360000000000230000000000023600003000000000000000086000000000000020296000000000000009999123100000010000000000000BRBEESACNOR9283
012016071402BEES4       010BANESTES    PN           R$  000000000024000000000002400000000000240000000000024000000000002400000000000230000000000024800001000000000000000500000000000000120000000000000000009999123100000010000000000000BRBEESACNPR6208
012016071496BEES4F      020BANESTES    PN           R$  000000000023000000000002300000000000230000000000023000000000002300000000000207000000000024400001000000000000000040000000000000009200000000000000009999123100000010000000000000BRBEESACNPR6208
012016071402BGIP4       010BANESE      PN           R$  000000000115000000000011800000000001150000000000115300000000011530000000001131000000000116000018000000000000005800000000000006691000000000000000009999123100000010000000000000BRBGIPACNPR8186
012016071496BIOM3F      020BIOMM       ON      MA   R$  000000000070000000000007000000000000700000000000070000000000007000000000000650000000000070000002000000000000000077000000000000053900000000000000009999123100000010000000000000BRBIOMACNOR2104
012016071402BMEB4       010MERC BRASIL PN           R$  000000000053000000000005300000000000530000000000053000000000005300000000000515000000000053000002000000000000000500000000000000265000000000000000009999123100000010000000000000BRBMEBACNPR5195
012016071402BMIN4       010MERC INVEST PN           R$  000000000003300000000000330000000000030000000000003000000000000300000000000029000000000003000011000000000000036000000000000001086000000000000000009999123100000010000000000000BRBMINACNPR1165
012016071496BMIN4F      020MERC INVEST PN           R$  000000000003100000000000310000000000031000000000003100000000000310000000000030000000000003100001000000000000000030000000000000000930000000000000009999123100000010000000000000BRBMINACNPR1165
012016071402BMKS3       010BIC MONARK  ON           R$  000000002840000000000287000000000028200000000002853700000000285370000000028000000000002853700008000000000000000041000000000001170032000000000000009999123100000010000000000000BRBMKSACNOR9158
012016071402BMTO4       010BRASMOTOR   PN           R$  000000000070600000000007060000000000704000000000070500000000007060000000000705000000000071900008000000000000003000000000000002116500000000000000009999123100000010000000000000BRBMTOACNPR6071
012016071412BNFS11      010FII BANRISULCI           R$  000000001020100000000103000000000010201000000001024000000000103000000000010300000000001049900003000000000000000050000000000000512030000000000000009999123100000010000000000000BRBNFSCTF000146
012016071402BOAC34      010BANK AMERICADRN          R$  000000000445100000000044510000000004428000000000445000000000044280000000004392000000000448300003000000000000008100000000000036050800000000000000009999123100000010000000000000BRBOACBDR004123
012016071402BOEI34      010BOEING      DRN          R$  000000004255200000000425520000000042552000000004255200000000425520000000000000000000000000000001000000000000000100000000000004255200000000000000009999123100000010000000000000BRBOEIBDR003117
012016071414BOVA11      010ISHARES BOVACI           R$  000000000533500000000053950000000005330000000000536000000000053610000000005361000000000537109981000000000001544390000000008278741410000000000000009999123100000010000000000000BRBOVACTF003102
012016071496BOVA11F     020ISHARES BOVACI           R$  000000000520000000000053900000000005200000000000532400000000053900000000004810000000000545000012000000000000000045000000000000239599000000000000009999123100000010000000000000BRBOVACTF003102
012016071478BOVAG48     070BOVA        CI        000R$  000000000055900000000005590000000000559000000000055900000000005590000000000000000000000000000001000000000000000300000000000000167700000000000480002016071800000010000000000000BRBOVACTF003102
012016071478BOVAG50     070BOVA        CI        000R$  000000000037000000000003730000000000370000000000037000000000003720000000000000000000000000000005000000000000006000000000000002222500000000000500002016071800000010000000000000BRBOVACTF003102
012016071478BOVAG52     070BOVA        CI        000R$  000000000016900000000001800000000000155000000000017400000000001550000000000140000000000000000029000000000000043860000000000007654470000000000520002016071800000010000000000000BRBOVACTF003102
012016071478BOVAG53     070BOVA        CI        000R$  000000000008100000000000810000000000080000000000008000000000000800000000000000000000000000000002000000000000000500000000000000040300000000000530002016071800000010000000000000BRBOVACTF003102
012016071478BOVAG54     070BOVA        CI        000R$  000000000002000000000000200000000000020000000000002000000000000200000000000000000000000000000001000000000000000350000000000000007000000000000540002016071800000010000000000000BRBOVACTF003102
012016071478BOVAG91     070BOVA        CI        000R$  000000000031100000000003110000000000311000000000031100000000003110000000000000000000000000000002000000000000015500000000000004820500000000000610002017071700000010000000000000BRBOVACTF003102
012016071478BOVAH51     070BOVA  FM    CI        000R$  000000000035800000000003740000000000354000000000036300000000003580000000000000000000000000000018000000000000040000000000000014545000000000000510002016081500000010000000000000BRBOVACTF003102
012016071478BOVAH52     070BOVA  FM    CI        000R$  000000000027900000000002890000000000274000000000027700000000002750000000000000000000000032000010000000000000019270000000000005348780000000000520002016081500000010000000000000BRBOVACTF003102
012016071478BOVAH53     070BOVA  FM    CI        000R$  000000000021000000000002180000000000195000000000020600000000002180000000000000000000000000000025000000000000046430000000000009588980000000000530002016081500000010000000000000BRBOVACTF003102
012016071478BOVAH54     070BOVA  FM    CI        000R$  000000000015000000000001560000000000138000000000015000000000001560000000000000000000000000000016000000000000012000000000000001801900000000000540002016081500000010000000000000BRBOVACTF003102
012016071478BOVAH55     070BOVA  FM    CI        000R$  000000000009500000000001100000000000094000000000009600000000001050000000000000000000000000000168000000000000026150000000000002517400000000000550002016081500000010000000000000BRBOVACTF003102
012016071478BOVAI51     070BOVA  FM    CI        000R$  000000000044900000000004490000000000434000000000044100000000004420000000000000000000000000000005000000000000012500000000000005515000000000000510002016091900000010000000000000BRBOVACTF003102
012016071478BOVAI52     070BOVA  FM    CI        000R$  000000000037200000000003910000000000372000000000038500000000003900000000000000000000000000000004000000000000010000000000000003857500000000000520002016091900000010000000000000BRBOVACTF003102
012016071478BOVAI53     070BOVA  FM    CI        000R$  000000000032200000000003220000000000322000000000032200000000003220000000000000000000000000000001000000000000002500000000000000805000000000000530002016091900000010000000000000BRBOVACTF003102
012016071478BOVAI55     070BOVA  FM    CI        000R$  000000000020000000000002000000000000200000000000020000000000002000000000000000000000000000000001000000000000002500000000000000500000000000000550002016091900000010000000000000BRBOVACTF003102
012016071482BOVAS23     080BOVAE       CI        000R$  000000000030000000000003000000000000300000000000030000000000003000000000000000000000000000000002000000000000015500000000000004650000000000000535002017071700000010000000000000BRBOVACTF003102
012016071482BOVAT47     080BOVAE       CI        000R$  000000000000800000000000080000000000007000000000000700000000000070000000000005000000000000000002000000000000000200000000000000001500000000000470002016081500000010000000000000BRBOVACTF003102
012016071482BOVAT48     080BOVAE       CI        000R$  000000000001200000000000120000000000010000000000001100000000000100000000000000000000000000000004000000000000000380000000000000004260000000000480002016081500000010000000000000BRBOVACTF003102
012016071482BOVAT49     080BOVAE       CI        000R$  000000000001700000000000170000000000014000000000001500000000000140000000000012000000000000000004000000000000000400000000000000006200000000000490002016081500000010000000000000BRBOVACTF003102
012016071482BOVAT50     080BOVAE FM    CI        000R$  000000000003000000000000300000000000022000000000002400000000000240000000000000000000000000000006000000000000009700000000000000240900000000000500002016081500000010000000000000BRBOVACTF003102
012016071482BOVAT51     080BOVAE FM    CI        000R$  000000000004000000000000400000000000035000000000003700000000000360000000000034000000000000000006000000000000010600000000000000393600000000000510002016081500000010000000000000BRBOVACTF003102
012016071482BOVAT52     080BOVAE FM    CI        000R$  000000000006000000000000650000000000051000000000005500000000000510000000000000000000000006300211000000000000033100000000000001853400000000000520002016081500000010000000000000BRBOVACTF003102
012016071482BOVAT53     080BOVAE FM    CI        000R$  000000000009100000000000950000000000079000000000008500000000000830000000000000000000000000000214000000000000033190000000000002824370000000000530002016081500000010000000000000BRBOVACTF003102
012016071482BOVAU50     080BOVAE FM    CI        000R$  000000000005700000000000570000000000057000000000005700000000000570000000000000000000000000000001000000000000002500000000000000142500000000000500002016091900000010000000000000BRBOVACTF003102
012016071482BOVAU52     080BOVAE FM    CI        000R$  000000000010300000000001030000000000095000000000009700000000000950000000000000000000000000000003000000000000007500000000000000732500000000000520002016091900000010000000000000BRBOVACTF003102
012016071482BOVAU53     080BOVAE FM    CI        000R$  000000000012400000000001240000000000124000000000012400000000001240000000000000000000000000000001000000000000002500000000000000310000000000000530002016091900000010000000000000BRBOVACTF003102
012016071402BPAN4       010BANCO PAN   PN      N1   R$  000000000014800000000001500000000000144000000000014700000000001500000000000144000000000015000008000000000000018200000000000002693200000000000000009999123100000010000000000000BRBPANACNPR1104
012016071496BPAN4F      020BANCO PAN   PN      N1   R$  000000000014500000000001450000000000145000000000014500000000001450000000000145000000000016000001000000000000000006000000000000000870000000000000009999123100000010000000000000BRBPANACNPR1104
012016071412BPFF11      010FII ABSOLUTOCI           R$  000000000794900000000079650000000007921000000000794700000000079650000000007948000000000796500026000000000000001616000000000012842457000000000000009999123100000010000000000000BRBPFFCTF002139
012016071402BPHA3       010BR PHARMA   ON      NM   R$  000000000056900000000005690000000000513000000000053600000000005130000000000513000000000053200265000000000000145600000000000078161600000000000000009999123100000010000000000000BRBPHAACNOR6104
012016071496BPHA3F      020BR PHARMA   ON      NM   R$  000000000056000000000005600000000000501000000000053100000000005320000000000501000000000053200008000000000000000303000000000000161075000000000000009999123100000010000000000000BRBPHAACNOR6104
012016071462BPHA3T      030BR PHARMA   ON      NM180R$  000000000057200000000005730000000000572000000000057200000000005730000000000000000000000000000002000000000000008000000000000004576176000000000000009999123100000010000000000000BRBPHAACNOR6104
012016071402BRAP3       010BRADESPAR   ON      N1   R$  000000000085800000000008650000000000821000000000084700000000008210000000000821000000000084300044000000000000019400000000000016439600000000000000009999123100000010000000000000BRBRAPACNOR5129
012016071496BRAP3F      020BRADESPAR   ON      N1   R$  000000000083100000000008380000000000831000000000083500000000008380000000000830000000000086000002000000000000000023000000000000019218000000000000009999123100000010000000000000BRBRAPACNOR5129
012016071402BRAP4       010BRADESPAR   PN      N1   R$  000000000102500000000010370000000000985000000000100400000000010010000000000995000000000100105834000000000002159000000000002169014900000000000000009999123100000010000000000000BRBRAPACNPR2129
012016071496BRAP4F      020BRADESPAR   PN      N1   R$  000000000103000000000010310000000000982000000000100400000000009820000000000982000000000100500052000000000000000966000000000000970490000000000000009999123100000010000000000000BRBRAPACNPR2129
012016071414BRAX11      010ISHARES BRAXCI           R$  000000000452600000000045260000000004526000000000452600000000045260000000000000000000000000000001000000000000000060000000000000271560000000000000009999123100000010000000000000BRBRAXCTF002100
012016071412BRCR11      010FII BC FUND CI  ER       R$  000000000880000000000089150000000008800000000000885800000000089000000000008870000000000890002722000000000000039425000000000349254124000000000000009999123100000010000000000000BRBRCRCTF000167
012016071402BRFS3       010BRF SA      ON  EJ  NM   R$  000000000511500000000051280000000005010000000000508400000000050920000000005089000000000509309385000000000001587400000000008071180900000000000000009999123100000010000000000000BRBRFSACNOR8117
012016071496BRFS3F      020BRF SA      ON  EJ  NM   R$  000000000508300000000051310000000005015000000000508000000000050780000000005078000000000512800106000000000000002546000000000012933682000000000000009999123100000010000000000000BRBRFSACNOR8117
012016071462BRFS3T      030BRF SA      ON  EJ  NM091R$  000000000521300000000052140000000005213000000000521300000000052140000000000000000000000000000002000000000000000100000000000000521362000000000000009999123100000010000000000000BRBRFSACNOR8117
012016071462BRFS3T      030BRF SA      ON  EJ  NM119R$  000000000525100000000052520000000005251000000000525100000000052520000000000000000000000000000002000000000000033800000000000177485913000000000000009999123100000010000000000000BRBRFSACNOR8117
012016071478BRFSA27     070BRFSE   /EJ ON      NM000R$  000000000019400000000001940000000000194000000000019400000000001940000000000000000000000000000001000000000000001800000000000000349200000000000672202017011600000010000000000000BRBRFSACNOR8115
012016071478BRFSG14     070BRFS    /EJ ON      NM000R$  000000000018500000000001850000000000185000000000018500000000001850000000000000000000000000000001000000000000000700000000000000129500000000000487902016071800000010000000000000BRBRFSACNOR8115
012016071478BRFSG16     070BRFS    /EJ ON      NM000R$  000000000047000000000004760000000000470000000000047300000000004760000000000030000000000000000002000000000000000800000000000000379000000000000462902016071800000010000000000000BRBRFSACNOR8116
012016071478BRFSG47     070BRFS    /EJ ON      NM000R$  000000000042800000000004520000000000428000000000043700000000004520000000000000000000000000000003000000000000000400000000000000174800000000000467902016071800000010000000000000BRBRFSACNOR8116
012016071478BRFSG48     070BRFS    /EJ ON      NM000R$  000000000030000000000003100000000000300000000000030400000000003100000000000300000000000000000003000000000000000700000000000000213000000000000477902016071800000010000000000000BRBRFSACNOR8116
012016071478BRFSG49     070BRFS    /EJ ON      NM000R$  000000000015500000000001990000000000155000000000017300000000001990000000000000000000000000000006000000000000000800000000000000138800000000000492902016071800000010000000000000BRBRFSACNOR8116
012016071478BRFSG50     070BRFS    /EJ ON      NM000R$  000000000010000000000001000000000000100000000000010000000000001000000000000000000000000014600003000000000000002300000000000000230000000000000502902016071800000010000000000000BRBRFSACNOR8116
012016071478BRFSG52     070BRFS    /EJ ON      NM000R$  000000000002200000000000390000000000021000000000003300000000000350000000000000000000000005000015000000000000018200000000000000603600000000000512902016071800000010000000000000BRBRFSACNOR8115
012016071478BRFSG53     070BRFS    /EJ ON      NM000R$  000000000002000000000000200000000000005000000000001200000000000050000000000000000000000000000007000000000000006000000000000000077500000000000532902016071800000010000000000000BRBRFSACNOR8116
012016071478BRFSG56     070BRFS    /EJ ON      NM000R$  000000000000300000000000030000000000003000000000000300000000000030000000000000000000000000000001000000000000040000000000000000120000000000000552902016071800000010000000000000BRBRFSACNOR8115
012016071478BRFSH18     070BRFS    /EJ ON      NM000R$  000000000032200000000004000000000000322000000000038100000000003830000000000380000000000000000008000000000000007500000000000002862800000000000479702016081500000010000000000000BRBRFSACNOR8116
012016071478BRFSH19     070BRFS  FM/EJ ON      NM000R$  000000000028500000000003270000000000285000000000029000000000003270000000000000000000000000000003000000000000001200000000000000349000000000000489702016081500000010000000000000BRBRFSACNOR8116
012016071478BRFSH22     070BRFSE   /EJ ON      NM000R$  000000000011100000000001290000000000111000000000011900000000001290000000000000000000000000000011000000000000020000000000000002387000000000000522202016081500000010000000000000BRBRFSACNOR8116
012016071478BRFSH4      070BRFS    /EJ ON      NM000R$  000000000008200000000000820000000000082000000000008200000000000820000000000000000000000013300001000000000000000300000000000000024600000000000537202016081500000010000000000000BRBRFSACNOR8116
012016071478BRFSH51     070BRFS  FM/EJ ON      NM000R$  000000000019000000000002060000000000190000000000020200000000001980000000000000000000000000000003000000000000001300000000000000263800000000000507202016081500000010000000000000BRBRFSACNOR8116
012016071478BRFSH52     070BRFS  FM/EJ ON      NM000R$  000000000011500000000001440000000000115000000000012900000000001440000000000000000000000016700003000000000000002300000000000000298000000000000517202016081500000010000000000000BRBRFSACNOR8115
012016071478BRFSH53     070BRFS  FM/EJ ON      NM000R$  000000000011000000000001100000000000104000000000010500000000001050000000000000000000000010500017000000000000020600000000000002174600000000000527202016081500000010000000000000BRBRFSACNOR8116
