00COTAHIST.2016BOVESPA 20160719                                                                                                                                                                                                                      
012016071902AAPL34      010APPLE       DRN          R$  000000000325500000000032550000000003237000000000324900000000032370000000003220000000000327000003000000000000005100000000000016572300000000000000009999123100000010000000000000BRAAPLBDR004117
012016071910ABCB2       010ABC BRASIL  DIR PRE N2   R$  000000000047500000000004810000000000421000000000045800000000004210000000000421000000000047900034000000000000011900000000000005457600000000000000009999123100000010000000000000BRABCBD09PR2125
012016071996ABCB2F      020ABC BRASIL  DIR PRE N2   R$  000000000048100000000005490000000000439000000000047700000000004390000000000439000000000047000028000000000000000580000000000000276980000000000000009999123100000010000000000000BRABCBD09PR2125
012016071902ABCB4       010ABC BRASIL  PN      N2   R$  000000000148000000000014900000000001432000000000145200000000014450000000001442000000000144501268000000000000232900000000000338208400000000000000009999123100000010000000000000BRABCBACNPR4126
012016071996ABCB4F      020ABC BRASIL  PN      N2   R$  000000000150000000000015100000000001440000000000147700000000014400000000001440000000000145900035000000000000000786000000000001161325000000000000009999123100000010000000000000BRABCBACNPR4126
012016071912ABCP11      010FII ABC IMOBCI           R$  000000000112000000000011200000000001082000000000109800000000010820000000001081000000000114700012000000000000000666000000000000731716000000000000009999123100000010000000000000BRABCPCTF000249
012016071902ABEV3       010AMBEV S/A   ON  ED       R$  000000000190500000000019190000000001897000000000191100000000019170000000001915000000000191723942000000000008953000000000017110610000000000000000009999123100000010000000000000BRABEVACNOR1113
012016071996ABEV3F      020AMBEV S/A   ON  ED       R$  000000000191800000000019270000000001900000000000191100000000019140000000001914000000000191700159000000000000004038000000000007717353000000000000009999123100000010000000000000BRABEVACNOR1113
012016071962ABEV3T      030AMBEV S/A   ON  ED    016R$  000000000191900000000019200000000001919000000000191900000000019200000000000000000000000000000002000000000000050000000000000095972400000000000000009999123100000010000000000000BRABEVACNOR1113
012016071962ABEV3T      030AMBEV S/A   ON  ED    062R$  000000000195300000000019540000000001951000000000195200000000019520000000000000000000000000000004000000000000000285000000000000556391000000000000009999123100000010000000000000BRABEVACNOR1113
012016071978ABEVA3      070ABEVE   /ED ON        000R$  000000000004300000000000430000000000043000000000004300000000000430000000000000000000000000000001000000000000010000000000000000430000000000000210102017011600000010000000000000BRABEVACNOR1111
012016071978ABEVH18     070ABEV  FM/ED ON        000R$  000000000006000000000000600000000000054000000000005400000000000550000000000000000000000000000006000000000000011200000000000000608600000000000188202016081500000010000000000000BRABEVACNOR1112
012016071978ABEVH19     070ABEV  FM/ED ON        000R$  000000000002700000000000310000000000026000000000002800000000000310000000000025000000000003200025000000000000070300000000000001976400000000000193202016081500000010000000000000BRABEVACNOR1112
012016071978ABEVH20     070ABEV    /ED ON        000R$  000000000000500000000000060000000000005000000000000500000000000050000000000004000000000001200008000000000000020200000000000000106000000000000203202016081500000010000000000000BRABEVACNOR1112
012016071978ABEVH49     070ABEV  FM/ED ON        000R$  000000000001100000000000120000000000011000000000001100000000000110000000000000000000000001900003000000000000004400000000000000048500000000000198202016081500000010000000000000BRABEVACNOR1112
012016071978ABEVH64     070ABEVE   /ED ON        000R$  000000000003700000000000390000000000037000000000003700000000000390000000000033000000000004500003000000000000019100000000000000706900000000000190702016081500000010000000000000BRABEVACNOR1109
012016071978ABEVH79     070ABEVE   /ED ON        000R$  000000000001800000000000180000000000018000000000001800000000000180000000000010000000000002000001000000000000010000000000000000180000000000000195702016081500000010000000000000BRABEVACNOR1111
012016071978ABEVH80     070ABEVE   /ED ON        000R$  000000000000600000000000060000000000006000000000000600000000000060000000000000000000000003700001000000000000001200000000000000007200000000000200702016081500000010000000000000BRABEVACNOR1112
012016071978ABEVI19     070ABEV  FM/ED ON        000R$  000000000005100000000000580000000000051000000000005600000000000510000000000000000000000000000004000000000000006700000000000000381200000000000193202016091900000010000000000000BRABEVACNOR1112
012016071978ABEVI79     070ABEVE   /ED ON        000R$  000000000004100000000000410000000000041000000000004100000000000410000000000000000000000000000001000000000000002000000000000000082000000000000195702016091900000010000000000000BRABEVACNOR1111
012016071978ABEVJ20     070ABEV    /ED ON        000R$  000000000004500000000000450000000000045000000000004500000000000450000000000000000000000000000002000000000000020000000000000000900000000000000199802016101700000010000000000000BRABEVACNOR1112
012016071978ABEVK73     070ABEVE       ON        000R$  000000000008500000000000850000000000073000000000007300000000000730000000000000000000000000000009000000000000040100000000000002944100000000000237502017112100000010000000000000BRABEVACNOR1113
012016071982ABEVM48     080ABEVE       ON        000R$  000000000003800000000000430000000000038000000000004200000000000430000000000000000000000000000002000000000000010100000000000000433800000000000187602017011600000010000000000000BRABEVACNOR1113
012016071982ABEVT18     080ABEVE FM/ED ON        000R$  000000000001400000000000140000000000014000000000001400000000000140000000000001000000000000000001000000000000002500000000000000035000000000000188202016081500000010000000000000BRABEVACNOR1112
012016071982ABEVT19     080ABEVE FM/ED ON        000R$  000000000003500000000000350000000000033000000000003400000000000330000000000000000000000000000003000000000000000700000000000000023900000000000193202016081500000010000000000000BRABEVACNOR1112
012016071982ABEVT64     080ABEVE   /ED ON        000R$  000000000002400000000000240000000000022000000000002300000000000220000000000000000000000000000002000000000000014000000000000000334000000000000190702016081500000010000000000000BRABEVACNOR1109
012016071982ABEVT78     080ABEVE   /ED ON        000R$  000000000000900000000000090000000000009000000000000900000000000090000000000000000000000000000001000000000000000900000000000000008100000000000185702016081500000010000000000000BRABEVACNOR1112
012016071982ABEVW17     080ABEVE       ON        000R$  000000000002500000000000250000000000017000000000001700000000000170000000000000000000000000000005000000000000040100000000000000682500000000000170002017112100000010000000000000BRABEVACNOR1113
012016071982ABEVW69     080ABEVE       ON        000R$  000000000007500000000000890000000000075000000000008800000000000890000000000000000000000000000005000000000000040100000000000003567500000000000192502017112100000010000000000000BRABEVACNOR1113
012016071902ABTT34      010ABBOTT      DRN ED       R$  000000000341100000000034110000000003411000000000341100000000034110000000000000000000000000000002000000000000002700000000000009209700000000000000009999123100000010000000000000BRABTTBDR007119
012016071912AEFI11      010FII AESAPAR CI           R$  000000001279900000000130180000000012799000000001289200000000129000000000012900000000001298900029000000000000000878000000000011319603000000000000009999123100000010000000000000BRAEFICTF002155
012016071902AELP3       010AES ELPA    ON           R$  000000000102400000000010240000000001024000000000102400000000010240000000000940000000000102500001000000000000000100000000000000102400000000000000009999123100000010000000000000BRAELPACNOR2123
012016071912AGCX11      010FII AG CAIXACI           R$  000000010899700000001089980000000108000000000010838400000001083000000000108201000000010830000095000000000000000863000000000093536019000000000000009999123100000010000000000000BRAGCXCTF003144
012016071902AGRO3       010BRASILAGRO  ON      NM   R$  000000000124400000000012700000000001202000000000124400000000012700000000001268000000000127000915000000000000231900000000000288711700000000000000009999123100000010000000000000BRAGROACNOR7104
012016071996AGRO3F      020BRASILAGRO  ON      NM   R$  000000000123000000000013500000000001215000000000125700000000012370000000001267000000000135000023000000000000000524000000000000658980000000000000009999123100000010000000000000BRAGROACNOR7104
012016071962AGRO3T      030BRASILAGRO  ON      NM030R$  000000000125400000000012550000000001254000000000125400000000012550000000000000000000000000000002000000000000000300000000000000376315000000000000009999123100000010000000000000BRAGROACNOR7104
012016071996AHEB6F      020SPTURIS     PNB          R$  000000000200000000000020000000000002000000000000200000000000020000000000002000000000000000000004000000000000000075000000000000150000000000000000009999123100000010000000000000BRAHEBACNPB1103
012016071912ALMI11B     010FII TORRE ALCI      MB   R$  000000018040000000001810000000000179999000000018009300000001800000000000178100000000018150000009000000000000000015000000000002701395000000000000009999123100000010000000000000BRALMICTF003239
012016071902ALPA3       010ALPARGATAS  ON      N1   R$  000000000106800000000010680000000001068000000000106800000000010680000000001040000000000106900001000000000000000100000000000000106800000000000000009999123100000010000000000000BRALPAACNOR0217
012016071996ALPA3F      020ALPARGATAS  ON      N1   R$  000000000105400000000010900000000001054000000000107700000000010900000000001054000000000109400003000000000000000078000000000000084012000000000000009999123100000010000000000000BRALPAACNOR0217
012016071902ALPA4       010ALPARGATAS  PN      N1   R$  000000000106700000000010830000000001054000000000107400000000010800000000001077000000000108001798000000000000674400000000000724506100000000000000009999123100000010000000000000BRALPAACNPR7217
012016071996ALPA4F      020ALPARGATAS  PN      N1   R$  000000000109800000000011000000000001056000000000107800000000011000000000001070000000000110000022000000000000000590000000000000636397000000000000009999123100000010000000000000BRALPAACNPR7217
012016071902ALSC3       010ALIANSCE    ON      NM   R$  000000000150000000000015180000000001480000000000149100000000014950000000001481000000000149601195000000000000286000000000000426608100000000000000009999123100000010000000000000BRALSCACNOR0109
012016071996ALSC3F      020ALIANSCE    ON      NM   R$  000000000150000000000015000000000001354000000000146100000000013540000000001354000000000156000014000000000000000409000000000000597941000000000000009999123100000010000000000000BRALSCACNOR0109
012016071902ALUP11      010ALUPAR      UNT     N2   R$  000000000159700000000015970000000001567000000000158300000000015900000000001580000000000159002446000000000000451100000000000714399300000000000000009999123100000010000000000000BRALUPCDAM15105
012016071996ALUP11F     020ALUPAR      UNT     N2   R$  000000000160000000000016000000000001575000000000158500000000015810000000001581000000000158700046000000000000001121000000000001777088000000000000009999123100000010000000000000BRALUPCDAM15105
012016071902AMAR3       010LOJAS MARISAON      NM   R$  000000000080400000000008100000000000800000000000080700000000008080000000000802000000000081200224000000000000038100000000000030760300000000000000009999123100000010000000000000BRAMARACNOR4112
012016071996AMAR3F      020LOJAS MARISAON      NM   R$  000000000079500000000008110000000000795000000000080200000000008080000000000669000000000087000007000000000000000149000000000000119630000000000000009999123100000010000000000000BRAMARACNOR4112
012016071962AMAR3T      030LOJAS MARISAON      NM030R$  000000000081200000000008130000000000812000000000081200000000008130000000000000000000000000000002000000000000002000000000000001625688000000000000009999123100000010000000000000BRAMARACNOR4112
012016071902AMGN34      010AMGEN       DRN          R$  000000005296600000000529660000000052966000000005296600000000529660000000052389000000005322500001000000000000000200000000000010593200000000000000009999123100000010000000000000BRAMGNBDR004118
012016071902AMZO34      010AMAZON      DRN          R$  000000012031100000001203110000000120311000000012031100000001203110000000119217000000012105100001000000000000000100000000000012031100000000000000009999123100000010000000000000BRAMZOBDR002101
012016071902ANIM3       010ANIMA       ON      NM   R$  000000000150500000000015050000000001482000000000149200000000014820000000001482000000000149900252000000000000037300000000000055640000000000000000009999123100000010000000000000BRANIMACNOR6103
012016071996ANIM3F      020ANIMA       ON      NM   R$  000000000150000000000015000000000001483000000000149000000000014830000000001277000000000149900003000000000000000146000000000000217618000000000000009999123100000010000000000000BRANIMACNOR6103
012016071912ARFI11B     010FII AQUIL RDCI      MB   R$  000000013610000000001361000000000136100000000013610000000001361000000000000000000000000000000001000000000000000001000000000000136100000000000000009999123100000010000000000000BRARFICTF004100
012016071902ARZZ3       010AREZZO CO   ON      NM   R$  000000000276400000000027760000000002718000000000274600000000027450000000002739000000000274500817000000000000114000000000000313119200000000000000009999123100000010000000000000BRARZZACNOR3121
012016071996ARZZ3F      020AREZZO CO   ON      NM   R$  000000000289900000000028990000000002745000000000277500000000027500000000002601000000000290100005000000000000000139000000000000385756000000000000009999123100000010000000000000BRARZZACNOR3121
012016071978ARZZJ56     070ARZZ        ON      NM000R$  000000000028100000000002810000000000281000000000028100000000002810000000000000000000000000000001000000000000006100000000000001714100000000000265002016101700000010000000000000BRARZZACNOR3121
012016071908ATOM3       010ATOMPAR     ON           R$  000000000007700000000000770000000000072000000000007300000000000730000000000073000000000007400195000000000000612200000000000045123700000000000000009999123100000010000000000000BRATOMACNOR1101
012016071996ATOM3F      020ATOMPAR     ON           R$  000000000007400000000000740000000000074000000000007400000000000740000000000074000000000008300002000000000000000116000000000000008584000000000000009999123100000010000000000000BRATOMACNOR1101
012016071912ATSA11B     010FII CSHGATSACI      MB   R$  000000008875000000000887500000000088750000000008875000000000887500000000088750000000000000000001000000000000000038000000000003372500000000000000009999123100000010000000000000BRATSACTF000101
012016071902ATTB34      010ATT INC     DRN          R$  000000001388300000000138830000000013883000000001388300000000138830000000000000000000000000000001000000000000000100000000000001388300000000000000009999123100000010000000000000BRATTBBDR007116
012016071902AZEV4       010AZEVEDO     PN           R$  000000000013600000000001450000000000136000000000014200000000001450000000000134000000000040000004000000000000003400000000000000484000000000000000009999123100000010000000000000BRAZEVACNPR7116
012016071902BAHI3       010BAHEMA      ON           R$  000000000026200000000002620000000000262000000000026200000000002620000000000260000000000027500001000000000000000500000000000000131000000000000000009999123100000010000000000000BRBAHIACNOR1068
012016071902BAZA3       010AMAZONIA    ON           R$  000000000003400000000000350000000000033000000000003300000000000330000000000033000000000003400039000000000000422000000000000014326000000000000000009999123100000010000000000000BRBAZAACNOR0168
012016071996BAZA3F      020AMAZONIA    ON           R$  000000000003500000000000350000000000034000000000003400000000000340000000000034000000000003500009000000000000002519000000000000086641000000000000009999123100000010000000000000BRBAZAACNOR0168
012016071902BBAS3       010BRASIL      ON      NM   R$  000000000198900000000020930000000001980000000000204700000000020930000000002092000000000209330791000000000018070500000000037006552900000000000000009999123100000010000000000000BRBBASACNOR3261
012016071996BBAS3F      020BRASIL      ON      NM   R$  000000000199500000000020900000000001981000000000204200000000020900000000002090000000000209300541000000000000014408000000000029450225000000000000009999123100000010000000000000BRBBASACNOR3261
012016071962BBAS3T      030BRASIL      ON      NM030R$  000000000201000000000020670000000002010000000000204100000000020670000000000000000000000000000008000000000000026300000000000053701893000000000000009999123100000010000000000000BRBBASACNOR3261
012016071962BBAS3T      030BRASIL      ON      NM062R$  000000000203500000000020990000000002035000000000204000000000020990000000000000000000000000000006000000000000013200000000000026938909000000000000009999123100000010000000000000BRBBASACNOR3261
012016071978BBASA3      070BBASE       ON      NM000R$  000000000024000000000002400000000000240000000000024000000000002400000000000000000000000000000001000000000000002000000000000000480000000000000203602017011600000010000000000000BRBBASACNOR3257
012016071978BBASG80     070BBASE       ON      NM000R$  000000000044100000000004410000000000441000000000044100000000004410000000000000000000000000000001000000000000000500000000000000220500000000000200202017071700000010000000000000BRBBASACNOR3261
012016071978BBASG81     070BBAS        ON      NM000R$  000000000039000000000003900000000000390000000000039000000000003900000000000000000000000000000001000000000000000100000000000000039000000000000207702017071700000010000000000000BRBBASACNOR3259
012016071978BBASG83     070BBAS        ON      NM000R$  000000000029300000000002930000000000276000000000028700000000002760000000000008000000000000000013000000000000035000000000000010079600000000000227702017071700000010000000000000BRBBASACNOR3259
012016071978BBASH16     070BBAS        ON      NM000R$  000000000043000000000004890000000000430000000000046700000000004890000000000000000000000000000007000000000000005500000000000002569800000000000158802016081500000010000000000000BRBBASACNOR3259
012016071978BBASH17     070BBAS        ON      NM000R$  000000000039000000000004000000000000390000000000039600000000004000000000000290000000000044000004000000000000004300000000000001707000000000000168802016081500000010000000000000BRBBASACNOR3259
012016071978BBASH18     070BBAS        ON      NM000R$  000000000023600000000003100000000000230000000000028400000000003100000000000281000000000033500025000000000000022200000000000006314600000000000178802016081500000010000000000000BRBBASACNOR3259
012016071978BBASH19     070BBAS        ON      NM000R$  000000000015000000000002290000000000140000000000018200000000002210000000000221000000000023500363000000000000669100000000000121856700000000000188802016081500000010000000000000BRBBASACNOR3259
012016071978BBASH20     070BBAS  FM    ON      NM000R$  000000000009000000000001500000000000088000000000011900000000001500000000000150000000000016000333000000000000922700000000000110135800000000000198802016081500000010000000000000BRBBASACNOR3259
012016071978BBASH21     070BBAS  FM    ON      NM000R$  000000000005200000000000880000000000050000000000007000000000000880000000000074000000000008800441000000000000905700000000000064056500000000000208802016081500000010000000000000BRBBASACNOR3259
012016071978BBASH22     070BBAS        ON      NM000R$  000000000002000000000000350000000000020000000000003000000000000350000000000034000000000003500378000000000001203600000000000036389000000000000223802016081500000010000000000000BRBBASACNOR3259
012016071978BBASH23     070BBASE       ON      NM000R$  000000000001400000000000180000000000012000000000001500000000000160000000000014000000000001600041000000000000098000000000000001567200000000000236302016081500000010000000000000BRBBASACNOR3259
012016071978BBASH24     070BBAS        ON      NM000R$  000000000000800000000000170000000000008000000000001300000000000160000000000014000000000001600211000000000000562700000000000007752300000000000238802016081500000010000000000000BRBBASACNOR3259
012016071978BBASH25     070BBAS        ON      NM000R$  000000000000700000000000100000000000007000000000000800000000000090000000000009000000000001000058000000000000170800000000000001532700000000000248802016081500000010000000000000BRBBASACNOR3259
012016071978BBASH26     070BBAS        ON      NM000R$  000000000000300000000000080000000000003000000000000500000000000080000000000005000000000000800016000000000000092000000000000000487000000000000258802016081500000010000000000000BRBBASACNOR3259
012016071978BBASH43     070BBAS        ON      NM000R$  000000000072200000000007220000000000722000000000072200000000007220000000000000000000000000000001000000000000002500000000000001805000000000000133802016081500000010000000000000BRBBASACNOR3257
012016071978BBASH48     070BBAS        ON      NM000R$  000000000020000000000002550000000000191000000000022400000000002440000000000240000000000027500030000000000000033800000000000007580700000000000183802016081500000010000000000000BRBBASACNOR3259
012016071978BBASH49     070BBAS  FM    ON      NM000R$  000000000011800000000001820000000000118000000000014300000000001820000000000080000000000020000066000000000000150600000000000021633300000000000193802016081500000010000000000000BRBBASACNOR3259
012016071978BBASH50     070BBAS        ON      NM000R$  000000000007000000000001140000000000066000000000008200000000001140000000000106000000000011900077000000000000519800000000000042784500000000000203802016081500000010000000000000BRBBASACNOR3259
012016071978BBASH51     070BBASE       ON      NM000R$  000000000004600000000000720000000000045000000000006100000000000720000000000069000000000000000085000000000000074300000000000004573500000000000211302016081500000010000000000000BRBBASACNOR3259
012016071978BBASH60     070BBASE       ON      NM000R$  000000000009100000000001220000000000080000000000011900000000001120000000000120000000000000000022000000000000551600000000000065921300000000000201302016081500000010000000000000BRBBASACNOR3259
012016071978BBASH62     070BBASE       ON      NM000R$  000000000003400000000000370000000000033000000000003500000000000370000000000000000000000000000008000000000000005200000000000000182000000000000221302016081500000010000000000000BRBBASACNOR3259
012016071978BBASH77     070BBASE       ON      NM000R$  000000000030000000000003000000000000300000000000030000000000003000000000000005000000000000000001000000000000000500000000000000150000000000000176302016081500000010000000000000BRBBASACNOR3259
012016071978BBASH79     070BBASE       ON      NM000R$  000000000020100000000002010000000000201000000000020100000000002010000000000198000000000000000001000000000000000100000000000000020100000000000186302016081500000010000000000000BRBBASACNOR3253
012016071978BBASH80     070BBASE       ON      NM000R$  000000000005800000000000940000000000057000000000008700000000000940000000000000000000000000000018000000000000119500000000000010410500000000000206302016081500000010000000000000BRBBASACNOR3259
012016071978BBASH89     070BBASE       ON      NM000R$  000000000015500000000001930000000000153000000000015500000000001930000000000000000000000019300011000000000000010300000000000001598600000000000196302016081500000010000000000000BRBBASACNOR3259
012016071978BBASH91     070BBASE       ON      NM000R$  000000000004800000000000540000000000045000000000005300000000000450000000000000000000000000000007000000000000512600000000000027432300000000000216302016081500000010000000000000BRBBASACNOR3259
012016071978BBASH94     070BBAS        ON      NM000R$  000000000003900000000000640000000000039000000000005700000000000640000000000064000000000006500067000000000000076800000000000004380500000000000213802016081500000010000000000000BRBBASACNOR3253
012016071978BBASH95     070BBAS  FM    ON      NM000R$  000000000003000000000000470000000000030000000000004200000000000470000000000042000000000004700072000000000000114300000000000004811600000000000218802016081500000010000000000000BRBBASACNOR3253
012016071978BBASH97     070BBAS  FM    ON      NM000R$  000000000001600000000000260000000000016000000000002400000000000250000000000025000000000003000049000000000000130800000000000003208800000000000228802016081500000010000000000000BRBBASACNOR3253
012016071978BBASH98     070BBAS        ON      NM000R$  000000000001700000000000200000000000016000000000001800000000000200000000000000000000000010000017000000000000041100000000000000772800000000000233802016081500000010000000000000BRBBASACNOR3253
012016071978BBASI18     070BBAS        ON      NM000R$  000000000031500000000003260000000000315000000000031900000000003260000000000301000000000000000015000000000000003800000000000001213000000000000177702016091900000010000000000000BRBBASACNOR3259
012016071978BBASI19     070BBAS  FM    ON      NM000R$  000000000020700000000002170000000000207000000000021000000000002170000000000000000000000024000004000000000000005800000000000001220400000000000192702016091900000010000000000000BRBBASACNOR3260
012016071978BBASI20     070BBAS  FM    ON      NM000R$  000000000014500000000001850000000000145000000000016900000000001850000000000150000000000000000038000000000000066000000000000011173100000000000197702016091900000010000000000000BRBBASACNOR3259
012016071978BBASI22     070BBAS  FM    ON      NM000R$  000000000006700000000000940000000000059000000000008100000000000860000000000080000000000035500055000000000000105600000000000008605700000000000217702016091900000010000000000000BRBBASACNOR3259
012016071978BBASI23     070BBAS        ON      NM000R$  000000000003800000000000510000000000035000000000004300000000000430000000000031000000000004800038000000000000128000000000000005598600000000000232702016091900000010000000000000BRBBASACNOR3260
012016071978BBASI47     070BBAS        ON      NM000R$  000000000036500000000003900000000000365000000000038100000000003900000000000181000000000000000007000000000000015000000000000005724500000000000172702016091900000010000000000000BRBBASACNOR3259
012016071978BBASI50     070BBAS        ON      NM000R$  000000000012000000000001560000000000120000000000014400000000001500000000000003000000000000000013000000000000022600000000000003275600000000000202702016091900000010000000000000BRBBASACNOR3259
012016071978BBASI51     070BBAS        ON      NM000R$  000000000010000000000001000000000000100000000000010000000000001000000000000006000000000030000001000000000000002000000000000000200000000000000212702016091900000010000000000000BRBBASACNOR3259
012016071978BBASI52     070BBAS  FM    ON      NM000R$  000000000004300000000000600000000000043000000000005500000000000550000000000000000000000000000006000000000000002100000000000000116000000000000227702016091900000010000000000000BRBBASACNOR3260
012016071978BBASI53     070BBAS        ON      NM000R$  000000000003000000000000400000000000030000000000003600000000000360000000000030000000000004100024000000000000021200000000000000763800000000000237702016091900000010000000000000BRBBASACNOR3260
012016071978BBASI77     070BBASE       ON      NM000R$  000000000041000000000004100000000000410000000000041000000000004100000000000000000000000000000006000000000000009400000000000003854000000000000170202016091900000010000000000000BRBBASACNOR3260
012016071978BBASI79     070BBASE       ON      NM000R$  000000000015900000000001590000000000159000000000015900000000001590000000000000000000000000000001000000000000000100000000000000015900000000000195202016091900000010000000000000BRBBASACNOR3259
012016071978BBASI80     070BBASE       ON      NM000R$  000000000012400000000001720000000000124000000000016400000000001620000000000000000000000000000006000000000000009300000000000001528200000000000200202016091900000010000000000000BRBBASACNOR3259
012016071978BBASI82     070BBAS        ON      NM000R$  000000000007000000000000750000000000065000000000006900000000000650000000000001000000000000000006000000000000006200000000000000430300000000000222702016091900000010000000000000BRBBASACNOR3260
012016071978BBASI90     070BBAS  FM    ON      NM000R$  000000000010300000000001300000000000098000000000011200000000001260000000000000000000000055000021000000000000042200000000000004735400000000000207702016091900000010000000000000BRBBASACNOR3260
012016071978BBASI92     070BBASE       ON      NM000R$  000000000005400000000000800000000000054000000000006800000000000800000000000000000000000000000025000000000000009700000000000000661900000000000220202016091900000010000000000000BRBBASACNOR3259
012016071978BBASJ20     070BBAS        ON      NM000R$  000000000020600000000002060000000000192000000000019900000000001920000000000000000000000000000002000000000000006000000000000001194000000000000200002016101700000010000000000000BRBBASACNOR3261
012016071978BBASJ21     070BBAS        ON      NM000R$  000000000015000000000001500000000000150000000000015000000000001500000000000080000000000000000002000000000000002500000000000000375000000000000210002016101700000010000000000000BRBBASACNOR3261
012016071978BBASJ22     070BBAS        ON      NM000R$  000000000008400000000001050000000000084000000000009200000000001050000000000000000000000000000004000000000000008200000000000000760200000000000220002016101700000010000000000000BRBBASACNOR3261
012016071978BBASJ23     070BBAS        ON      NM000R$  000000000007100000000000850000000000070000000000007500000000000750000000000000000000000008500007000000000000012200000000000000918200000000000230002016101700000010000000000000BRBBASACNOR3259
012016071978BBASJ50     070BBAS        ON      NM000R$  000000000014400000000001440000000000144000000000014400000000001440000000000000000000000000000001000000000000005000000000000000720000000000000205002016101700000010000000000000BRBBASACNOR3261
012016071978BBASJ51     070BBAS        ON      NM000R$  000000000014000000000001550000000000140000000000014700000000001550000000000000000000000000000002000000000000010000000000000001475000000000000215002016101700000010000000000000BRBBASACNOR3261
012016071978BBASK77     070BBASE       ON      NM000R$  000000000032000000000003350000000000320000000000032700000000003350000000000000000000000000000006000000000000030000000000000009825000000000000179802016112100000010000000000000BRBBASACNOR3261
012016071978BBASK91     070BBASE       ON      NM000R$  000000000013000000000001350000000000130000000000013300000000001350000000000000000000000000000005000000000000030000000000000004000000000000000214802016112100000010000000000000BRBBASACNOR3261
012016071978BBASL27     070BBAS        ON      NM000R$  000000000005000000000000500000000000050000000000005000000000000500000000000000000000000008000006000000000000014100000000000000705000000000000268802016121900000010000000000000BRBBASACNOR3259
012016071978BBASL30     070BBAS        ON      NM000R$  000000000028800000000002900000000000278000000000028600000000002780000000000001000000000000000014000000000000035000000000000010022500000000000198802016121900000010000000000000BRBBASACNOR3256
012016071978BBASL32     070BBAS        ON      NM000R$  000000000003000000000000300000000000030000000000003000000000000300000000000000000000000005000001000000000000010000000000000000300000000000000318802016121900000010000000000000BRBBASACNOR3259
012016071978BBASL62     070BBAS        ON      NM000R$  000000000013900000000001390000000000139000000000013900000000001390000000000001000000000000000001000000000000000100000000000000013900000000000228802016121900000010000000000000BRBBASACNOR3261
012016071982BBASS80     080BBASE       ON      NM000R$  000000000019000000000001900000000000190000000000019000000000001900000000000000000000000000000001000000000002400000000000000456000000000000000200202017071700000010000000000000BRBBASACNOR3261
012016071982BBAST15     080BBASE       ON      NM000R$  000000000000200000000000020000000000002000000000000200000000000020000000000002000000000000300001000000000000000100000000000000000200000000000151302016081500000010000000000000BRBBASACNOR3259
012016071982BBAST16     080BBASE       ON      NM000R$  000000000000400000000000040000000000004000000000000400000000000040000000000002000000000000900001000000000000001000000000000000004000000000000158802016081500000010000000000000BRBBASACNOR3259
012016071982BBAST17     080BBASE       ON      NM000R$  000000000000900000000000100000000000006000000000000800000000000060000000000006000000000001000014000000000000063500000000000000531900000000000168802016081500000010000000000000BRBBASACNOR3259
012016071982BBAST18     080BBASE       ON      NM000R$  000000000001700000000000190000000000010000000000001300000000000120000000000012000000000001300090000000000000152500000000000001985000000000000178802016081500000010000000000000BRBBASACNOR3259
012016071982BBAST19     080BBASE FM    ON      NM000R$  000000000004200000000000420000000000018000000000002600000000000200000000000018000000000003000141000000000000568100000000000015209100000000000188802016081500000010000000000000BRBBASACNOR3259
012016071982BBAST20     080BBASE FM    ON      NM000R$  000000000007100000000000790000000000037000000000005100000000000370000000000028000000000010000026000000000000053200000000000002723200000000000198802016081500000010000000000000BRBBASACNOR3259
012016071982BBAST21     080BBASE FM    ON      NM000R$  000000000009600000000001050000000000075000000000009500000000000750000000000000000000000010000025000000000000044200000000000004238500000000000208802016081500000010000000000000BRBBASACNOR3259
012016071982BBAST22     080BBASE       ON      NM000R$  000000000020000000000002000000000000200000000000020000000000002000000000000000000000000000000001000000000000001300000000000000260000000000000223802016081500000010000000000000BRBBASACNOR3259
012016071982BBAST44     080BBASE       ON      NM000R$  000000000000200000000000020000000000002000000000000200000000000020000000000001000000000005000002000000000000008600000000000000017200000000000143802016081500000010000000000000BRBBASACNOR3261
012016071982BBAST45     080BBASE       ON      NM000R$  000000000000300000000000040000000000002000000000000300000000000020000000000002000000000000800003000000000000005100000000000000017200000000000153802016081500000010000000000000BRBBASACNOR3259
012016071982BBAST46     080BBASE       ON      NM000R$  000000000000400000000000050000000000004000000000000400000000000040000000000004000000000000000004000000000000033000000000000000132200000000000163802016081500000010000000000000BRBBASACNOR3259
012016071982BBAST47     080BBASE       ON      NM000R$  000000000001000000000000100000000000010000000000001000000000000100000000000002000000000000000001000000000000027000000000000000270000000000000173802016081500000010000000000000BRBBASACNOR3259
012016071982BBAST48     080BBASE       ON      NM000R$  000000000002800000000000280000000000015000000000001800000000000160000000000013000000000002500010000000000000008100000000000000150400000000000183802016081500000010000000000000BRBBASACNOR3259
012016071982BBAST49     080BBASE FM    ON      NM000R$  000000000003400000000000370000000000029000000000003200000000000290000000000023000000000004000005000000000000008500000000000000278500000000000193802016081500000010000000000000BRBBASACNOR3259
012016071982BBAST50     080BBASE       ON      NM000R$  000000000006800000000000710000000000062000000000006700000000000620000000000000000000000000000014000000000000105000000000000007138000000000000203802016081500000010000000000000BRBBASACNOR3259
012016071982BBAST51     080BBASE       ON      NM000R$  000000000012600000000001260000000000087000000000009800000000000970000000000000000000000000000005000000000000003300000000000000325900000000000211302016081500000010000000000000BRBBASACNOR3259
012016071982BBAST60     080BBASE       ON      NM000R$  000000000006500000000000650000000000060000000000006000000000000600000000000000000000000000000003000000000000003700000000000000223500000000000201302016081500000010000000000000BRBBASACNOR3259
012016071982BBAST69     080BBASE       ON      NM000R$  000000000002700000000000270000000000027000000000002700000000000270000000000000000000000000000006000000000000025200000000000000680400000000000191302016081500000010000000000000BRBBASACNOR3259
012016071982BBAST75     080BBASE       ON      NM000R$  000000000000400000000000040000000000004000000000000400000000000040000000000000000000000000000001000000000000001000000000000000004000000000000156302016081500000010000000000000BRBBASACNOR3259
012016071982BBAST79     080BBASE       ON      NM000R$  000000000003100000000000310000000000023000000000002600000000000230000000000015000000000015000003000000000000003300000000000000087800000000000186302016081500000010000000000000BRBBASACNOR3253
012016071982BBAST80     080BBASE       ON      NM000R$  000000000008300000000000830000000000072000000000007700000000000720000000000000000000000000000013000000000000082300000000000006395700000000000206302016081500000010000000000000BRBBASACNOR3259
012016071982BBAST89     080BBASE       ON      NM000R$  000000000004000000000000470000000000040000000000004000000000000410000000000000000000000000000010000000000000074000000000000003024000000000000196302016081500000010000000000000BRBBASACNOR3259
012016071982BBAST91     080BBASE       ON      NM000R$  000000000012900000000001290000000000129000000000012900000000001290000000000000000000000000000001000000000000000200000000000000025800000000000216302016081500000010000000000000BRBBASACNOR3259
012016071982BBASU16     080BBASE       ON      NM000R$  000000000001500000000000150000000000015000000000001500000000000150000000000000000000000006500002000000000000002200000000000000033000000000000157702016091900000010000000000000BRBBASACNOR3259
012016071982BBASU18     080BBASE       ON      NM000R$  000000000003100000000000310000000000027000000000003000000000000270000000000008000000000000000006000000000000006000000000000000182000000000000177702016091900000010000000000000BRBBASACNOR3259
012016071982BBASU19     080BBASE FM    ON      NM000R$  000000000006000000000000600000000000059000000000005900000000000590000000000000000000000000000006000000000000004600000000000000271600000000000192702016091900000010000000000000BRBBASACNOR3260
012016071982BBASU20     080BBASE FM    ON      NM000R$  000000000008900000000000890000000000087000000000008800000000000870000000000000000000000000000002000000000000001500000000000000133300000000000197702016091900000010000000000000BRBBASACNOR3259
012016071982BBASU44     080BBASE       ON      NM000R$  000000000000600000000000060000000000006000000000000600000000000060000000000000000000000000700001000000000000010000000000000000060000000000000142702016091900000010000000000000BRBBASACNOR3260
012016071982BBASU48     080BBASE       ON      NM000R$  000000000003700000000000370000000000037000000000003700000000000370000000000000000000000000000001000000000000001000000000000000037000000000000182702016091900000010000000000000BRBBASACNOR3259
012016071982BBASU51     080BBASE       ON      NM000R$  000000000014000000000001400000000000135000000000013700000000001350000000000000000000000000000019000000000000055000000000000007575000000000000212702016091900000010000000000000BRBBASACNOR3259
012016071982BBASU68     080BBASE FM    ON      NM000R$  000000000006000000000000600000000000046000000000004600000000000460000000000000000000000000000006000000000000005200000000000000242000000000000187702016091900000010000000000000BRBBASACNOR3260
012016071982BBASU77     080BBASE       ON      NM000R$  000000000002200000000000220000000000020000000000002000000000000200000000000000000000000000000009000000000000005500000000000000111000000000000170202016091900000010000000000000BRBBASACNOR3260
012016071982BBASU79     080BBASE       ON      NM000R$  000000000006600000000000660000000000060000000000006000000000000600000000000000000000000000000004000000000000026500000000000001599000000000000195202016091900000010000000000000BRBBASACNOR3259
012016071982BBASU80     080BBASE       ON      NM000R$  000000000011900000000001190000000000076000000000008000000000000760000000000000000000000000000016000000000000028800000000000002321300000000000200202016091900000010000000000000BRBBASACNOR3259
012016071982BBASU90     080BBASE FM    ON      NM000R$  000000000012300000000001230000000000120000000000012200000000001210000000000000000000000000000004000000000000004200000000000000513200000000000207702016091900000010000000000000BRBBASACNOR3260
012016071982BBASV19     080BBASE       ON      NM000R$  000000000006400000000000640000000000064000000000006400000000000640000000000000000000000000000001000000000000005000000000000000320000000000000190002016101700000010000000000000BRBBASACNOR3259
012016071982BBASV20     080BBASE       ON      NM000R$  000000000008900000000000890000000000089000000000008900000000000890000000000000000000000000000001000000000000005000000000000000445000000000000200002016101700000010000000000000BRBBASACNOR3261
012016071982BBASV43     080BBASE       ON      NM000R$  000000000000500000000000060000000000005000000000000500000000000060000000000000000000000000000002000000000000100000000000000000550000000000000135002016101700000010000000000000BRBBASACNOR3259
012016071982BBASV50     080BBASE       ON      NM000R$  000000000012200000000001220000000000118000000000011800000000001180000000000000000000000000000002000000000000101000000000000011922000000000000205002016101700000010000000000000BRBBASACNOR3261
012016071982BBASV64     080BBASE       ON      NM000R$  000000000001000000000000100000000000010000000000001000000000000100000000000000000000000000000001000000000000100000000000000001000000000000000142502016101700000010000000000000BRBBASACNOR3261
012016071982BBASW85     080BBASE       ON      NM000R$  000000000044500000000004450000000000445000000000044500000000004450000000000000000000000000000001000000000000550000000000000244750000000000000257502017112100000010000000000000BRBBASACNOR3261
012016071902BBDC3       010BRADESCO    ON      N1   R$  000000000296900000000029690000000002928000000000294600000000029550000000002954000000000295905666000000000001566900000000004617694500000000000000009999123100000010000000000000BRBBDCACNOR1651
012016071996BBDC3F      020BRADESCO    ON      N1   R$  000000000290100000000029600000000002901000000000294700000000029600000000002938000000000296000059000000000000001503000000000004429801000000000000009999123100000010000000000000BRBBDCACNOR1651
012016071902BBDC4       010BRADESCO    PN      N1   R$  000000000288100000000028910000000002853000000000287100000000028780000000002871000000000287819689000000000007368200000000021155901900000000000000009999123100000010000000000000BRBBDCACNPR8651
012016071996BBDC4F      020BRADESCO    PN      N1   R$  000000000288000000000028870000000002856000000000287000000000028760000000002873000000000287600253000000000000006595000000000018934431000000000000009999123100000010000000000000BRBBDCACNPR8651
012016071962BBDC4T      030BRADESCO    PN      N1030R$  000000000289800000000028990000000002898000000000289800000000028990000000000000000000000000000004000000000000000400000000000001159590000000000000009999123100000010000000000000BRBBDCACNPR8651
012016071978BBDCH10     070BBDC        PN      N1000R$  000000000022500000000002250000000000225000000000022500000000002250000000000202000000000000000003000000000000008000000000000001800000000000000269202016081500000010000000000000BRBBDCACNPR8631
012016071978BBDCH11     070BBDC        PN      N1000R$  000000000018400000000001850000000000184000000000018400000000001850000000000160000000000000000002000000000000000400000000000000073700000000000273702016081500000010000000000000BRBBDCACNPR8631
012016071978BBDCH17     070BBDC        PN      N1000R$  000000000030000000000003000000000000272000000000029000000000002720000000000272000000000000000002000000000000000300000000000000087200000000000260102016081500000010000000000000BRBBDCACNPR8620
012016071978BBDCH30     070BBDCE       PN      N1000R$  000000000019800000000002070000000000198000000000020200000000002050000000000121000000000000000006000000000000010100000000000002043700000000000271402016081500000010000000000000BRBBDCACNPR8646
012016071978BBDCH31     070BBDC  FM    PN      N1000R$  000000000001500000000000180000000000014000000000001500000000000140000000000013000000000006300006000000000000134100000000000002015400000000000315802016081500000010000000000000BRBBDCACNPR8648
012016071978BBDCH33     070BBDC  FM    PN      N1000R$  000000000016700000000001670000000000143000000000014800000000001470000000000145000000000015300028000000000000032400000000000004809700000000000278702016081500000010000000000000BRBBDCACNPR8649
012016071978BBDCH46     070BBDCE       PN      N1000R$  000000000015400000000001540000000000152000000000015300000000001520000000000000000000000000000003000000000000118600000000000018229200000000000365302017082100000010000000000000BRBBDCACNPR8648
012016071978BBDCH63     070BBDCE       PN      N1000R$  000000000089400000000008940000000000894000000000089400000000008940000000000000000000000000000001000000000000133100000000000118991400000000000201702016081500000010000000000000BRBBDCACNPR8639
012016071978BBDCH72     070BBDC        PN      N1000R$  000000000089400000000008940000000000894000000000089400000000008940000000000000000000000000000001000000000000059400000000000053103600000000000199402016081500000010000000000000BRBBDCACNPR8646
012016071978BBDCH73     070BBDCE       PN      N1000R$  000000000004100000000000450000000000035000000000003700000000000350000000000030000000000004000009000000000000013600000000000000511800000000000303302016081500000010000000000000BRBBDCACNPR8646
012016071978BBDCH84     070BBDC        PN      N1000R$  000000000000200000000000020000000000001000000000000100000000000020000000000000000000000000500012000000000000023200000000000000034600000000000373702016081500000010000000000000BRBBDCACNPR8620
012016071978BBDCH88     070BBDCE       PN      N1000R$  000000000011700000000001170000000000098000000000009900000000001050000000000098000000000011000006000000000000005200000000000000515700000000000286202016081500000010000000000000BRBBDCACNPR8648
012016071978BBDCH89     070BBDC  FM    PN      N1000R$  000000000010200000000001060000000000085000000000009100000000000890000000000085000000000011000014000000000000024600000000000002240000000000000288702016081500000010000000000000BRBBDCACNPR8651
012016071978BBDCH90     070BBDC  FM    PN      N1000R$  000000000005800000000000580000000000044000000000005000000000000570000000000050000000000005700034000000000000050100000000000002554300000000000298702016081500000010000000000000BRBBDCACNPR8651
012016071978BBDCH91     070BBDCE       PN      N1000R$  000000000001800000000000180000000000016000000000001600000000000160000000000011000000000000000002000000000000004900000000000000083200000000000313302016081500000010000000000000BRBBDCACNPR8647
012016071978BBDCH97     070BBDC        PN      N1000R$  000000000006300000000000650000000000063000000000006400000000000650000000000000000000000000000002000000000000000200000000000000012800000000000293702016081500000010000000000000BRBBDCACNPR8651
012016071978BBDCH98     070BBDCE       ON      N1000R$  000000000018200000000001820000000000182000000000018200000000001820000000000000000000000000000001000000000000014600000000000002657200000000000380802017082100000010000000000000BRBBDCACNOR1648
012016071978BBDCI32     070BBDC        PN      N1000R$  000000000013600000000001420000000000136000000000013600000000001420000000000000000000000000000010000000000000022520000000000003075320000000000291102016091900000010000000000000BRBBDCACNPR8646
012016071978BBDCI36     070BBDC        PN      N1000R$  000000000018400000000001840000000000184000000000018400000000001840000000000103000000000000000002000000000000000300000000000000055200000000000282002016091900000010000000000000BRBBDCACNPR8637
012016071978BBDCI46     070BBDC  FM    PN      N1000R$  000000000009300000000000980000000000092000000000009400000000000970000000000000000000000000000067000000000000076600000000000007202100000000000301102016091900000010000000000000BRBBDCACNPR8651
012016071978BBDCI67     070BBDCE       PN      N1000R$  000000000003100000000000310000000000031000000000003100000000000310000000000000000000000000000003000000000000014000000000000000434000000000000329702016091900000010000000000000BRBBDCACNPR8632
012016071978BBDCI68     070BBDC  FM    PN      N1000R$  000000000015400000000001580000000000154000000000015700000000001570000000000000000000000000000014000000000000013500000000000002121000000000000287002016091900000010000000000000BRBBDCACNPR8651
012016071978BBDCJ78     070BBDC        PN      N1000R$  000000000039200000000003920000000000392000000000039200000000003920000000000000000000000000000001000000000000037700000000000014778400000000000257202016101700000010000000000000BRBBDCACNPR8638
012016071978BBDCK10     070BBDCE       PN      N1000R$  000000000090800000000009110000000000908000000000090900000000009110000000000000000000000000000004000000000000192600000000000175192100000000000206402016112100000010000000000000BRBBDCACNPR8651
012016071978BBDCK18     070BBDCE       ON      N1000R$  000000000020000000000002000000000000161000000000016100000000001610000000000000000000000000000007000000000000044100000000000007107900000000000382502017112100000010000000000000BRBBDCACNOR1651
012016071978BBDCK8      070BBDCE       PN      N1000R$  000000000021000000000002100000000000153000000000015900000000001820000000000000000000000000000007000000000000680500000000000108616500000000000377502017112100000010000000000000BRBBDCACNPR8651
012016071978BBDCL8      070BBDCE       PN      N1000R$  000000000030900000000003090000000000249000000000024900000000002590000000000000000000000031000003000000000000040200000000000010016800000000000355902017121800000010000000000000BRBBDCACNPR8651
012016071982BBDCT10     080BBDCE FM    PN      N1000R$  000000000002400000000000240000000000024000000000002400000000000240000000000020000000000005000001000000000000002500000000000000060000000000000269202016081500000010000000000000BRBBDCACNPR8631
012016071982BBDCT11     080BBDCE       PN      N1000R$  000000000003800000000000380000000000031000000000003400000000000350000000000000000000000005700248000000000000068850000000000002352030000000000273702016081500000010000000000000BRBBDCACNPR8631
012016071982BBDCT17     080BBDCE       PN      N1000R$  000000000001400000000000140000000000014000000000001400000000000140000000000012000000000004000001000000000000120000000000000001680000000000000260102016081500000010000000000000BRBBDCACNPR8620
012016071982BBDCT3      080BBDCE       PN      N1000R$  000000000001000000000000100000000000010000000000001000000000000100000000000000000000000000000001000000000000010000000000000000100000000000000250502016081500000010000000000000BRBBDCACNPR8620
012016071982BBDCT33     080BBDCE FM    PN      N1000R$  000000000004800000000000520000000000043000000000004800000000000430000000000000000000000005000008000000000000013600000000000000661600000000000278702016081500000010000000000000BRBBDCACNPR8649
012016071982BBDCT38     080BBDCE       ON      N1000R$  000000000006000000000000600000000000060000000000006000000000000600000000000000000000000000000001000000000000014600000000000000876000000000000255802017082100000010000000000000BRBBDCACNOR1649
012016071982BBDCT4      080BBDCE       PN      N1000R$  000000000001000000000000100000000000010000000000001000000000000100000000000000000000000000000001000000000000002200000000000000022000000000000254302016081500000010000000000000BRBBDCACNPR8620
012016071982BBDCT5      080BBDCE       ON      N1000R$  000000000016000000000002410000000000160000000000023900000000002410000000000000000000000000000004000000000000014600000000000003503800000000000285802017082100000010000000000000BRBBDCACNOR1648
012016071982BBDCT75     080BBDCE       PN      N1000R$  000000000011300000000001140000000000113000000000011300000000001140000000000000000000000000000003000000000000118600000000000013419400000000000250302017082100000010000000000000BRBBDCACNPR8648
012016071982BBDCT78     080BBDCE       PN      N1000R$  000000000024100000000002640000000000240000000000026300000000002640000000000000000000000026400004000000000000118600000000000031305700000000000280302017082100000010000000000000BRBBDCACNPR8647
012016071982BBDCT79     080BBDCE       PN      N1000R$  000000000002100000000000220000000000021000000000002100000000000220000000000000000000000011900012000000000000042000000000000000884000000000000266902016081500000010000000000000BRBBDCACNPR8645
012016071982BBDCT85     080BBDCE       PN      N1000R$  000000000000300000000000030000000000003000000000000300000000000030000000000000000000000000000001000000000000000500000000000000001500000000000233502016081500000010000000000000BRBBDCACNPR8646
012016071982BBDCT88     080BBDCE       PN      N1000R$  000000000007800000000000780000000000078000000000007800000000000780000000000000000000000000000001000000000000002400000000000000187200000000000286202016081500000010000000000000BRBBDCACNPR8648
012016071982BBDCT89     080BBDCE FM    PN      N1000R$  000000000008700000000000870000000000085000000000008500000000000850000000000000000000000011900002000000000000001500000000000000128500000000000288702016081500000010000000000000BRBBDCACNPR8651
012016071982BBDCU1      080BBDCE FM    PN      N1000R$  000000000007200000000000720000000000072000000000007200000000000720000000000000000000000000000002000000000000000200000000000000014400000000000277402016091900000010000000000000BRBBDCACNPR8637
012016071982BBDCU32     080BBDCE       PN      N1000R$  000000000012500000000001250000000000125000000000012500000000001250000000000000000000000000000002000000000000003560000000000000445000000000000291102016091900000010000000000000BRBBDCACNPR8646
012016071982BBDCU46     080BBDCE FM    PN      N1000R$  000000000017900000000001790000000000179000000000017900000000001790000000000000000000000000000001000000000000002500000000000000447500000000000301102016091900000010000000000000BRBBDCACNPR8651
012016071982BBDCU68     080BBDCE FM    PN      N1000R$  000000000011100000000001110000000000106000000000010700000000001060000000000000000000000000000003000000000000005800000000000000625800000000000287002016091900000010000000000000BRBBDCACNPR8651
012016071982BBDCU77     080BBDCE FM    PN      N1000R$  000000000006100000000000610000000000061000000000006100000000000610000000000000000000000000000001000000000000002300000000000000140300000000000272002016091900000010000000000000BRBBDCACNPR8649
012016071982BBDCW3      080BBDCE       ON      N1000R$  000000000003100000000000310000000000030000000000003000000000000300000000000000000000000000000008000000000000040000000000000001226800000000000232502017112100000010000000000000BRBBDCACNOR1651
012016071982BBDCW6      080BBDCE       PN      N1000R$  000000000012600000000001260000000000055000000000005600000000000570000000000000000000000012500006000000000000686400000000000038825400000000000227502017112100000010000000000000BRBBDCACNPR8651
012016071982BBDCW7      080BBDCE       PN      N1000R$  000000000024500000000002450000000000207000000000021300000000002080000000000000000000000025900004000000000000680100000000000145289500000000000287502017112100000010000000000000BRBBDCACNPR8651
012016071982BBDCW83     080BBDCE       ON      N1000R$  000000000003700000000000370000000000037000000000003700000000000370000000000000000000000000000001000000000000003900000000000000144300000000000235002017112100000010000000000000BRBBDCACNOR1651
012016071982BBDCW9      080BBDCE       ON      N1000R$  000000000018900000000001890000000000189000000000018900000000001890000000000000000000000000000004000000000000040000000000000007560000000000000292502017112100000010000000000000BRBBDCACNOR1651
012016071982BBDCW99     080BBDCE       ON      N1000R$  000000000019400000000001950000000000194000000000019400000000001950000000000000000000000000000002000000000000003900000000000000759900000000000295002017112100000010000000000000BRBBDCACNOR1651
012016071982BBDCX6      080BBDCE       PN      N1000R$  000000000024400000000002460000000000244000000000024500000000002450000000000000000000000025900003000000000000040100000000000009856300000000000285902017121800000010000000000000BRBBDCACNPR8651
012016071912BBFI11B     010FII BB PROGRCI      MB   R$  000000024000000000002435000000000239200000000024144200000002392000000000239101000000024000000015000000000000000084000000000020281201000000000000009999123100000010000000000000BRBBFICTF006232
012016071912BBPO11      010FII BB PRGIICI           R$  000000001149000000000115370000000011380000000001146400000000114650000000011465000000001153001097000000000000022616000000000259277565000000000000009999123100000010000000000000BRBBPOCTF003144
012016071912BBRC11      010FII BB CORP CI           R$  000000001060000000000107500000000010365000000001053200000000103760000000010376000000001069000083000000000000005514000000000058076821000000000000009999123100000010000000000000BRBBRCCTF004158
012016071902BBRK3       010BR BROKERS  ON      NM   R$  000000000017300000000001730000000000162000000000016600000000001630000000000163000000000016600421000000000000110100000000000018344100000000000000009999123100000010000000000000BRBBRKACNOR4110
012016071996BBRK3F      020BR BROKERS  ON      NM   R$  000000000016500000000001650000000000143000000000015700000000001430000000000141000000000016600002000000000000000046000000000000007238000000000000009999123100000010000000000000BRBBRKACNOR4110
012016071914BBSD11      010BB ETF SP DVCI           R$  000000000402900000000040290000000004026000000000402800000000040260000000000000000000000000000002000000000000000110000000000000443160000000000000009999123100000010000000000000BRBBSDCTF000100
012016071902BBSE3       010BBSEGURIDADEON      NM   R$  000000000298000000000029890000000002919000000000296100000000029690000000002968000000000296913062000000000003196700000000009466703900000000000000009999123100000010000000000000BRBBSEACNOR5106
012016071996BBSE3F      020BBSEGURIDADEON      NM   R$  000000000298900000000029990000000002930000000000296200000000029800000000002959000000000298000205000000000000005012000000000014850980000000000000009999123100000010000000000000BRBBSEACNOR5106
012016071978BBSEH30     070BBSE        ON      NM000R$  000000000007800000000000800000000000067000000000007200000000000770000000000061000000000009000014000000000000027600000000000001998400000000000302902016081500000010000000000000BRBBSEACNOR5106
012016071978BBSEH31     070BBSE        ON      NM000R$  000000000004000000000000400000000000034000000000003400000000000340000000000000000000000004900003000000000000004500000000000000157200000000000312902016081500000010000000000000BRBBSEACNOR5106
012016071978BBSEH32     070BBSE        ON      NM000R$  000000000002000000000000200000000000020000000000002000000000000200000000000000000000000000000001000000000000001100000000000000022000000000000322902016081500000010000000000000BRBBSEACNOR5106
012016071978BBSEH58     070BBSE  FM    ON      NM000R$  000000000016200000000001620000000000162000000000016200000000001620000000000000000000000000000002000000000000003600000000000000583200000000000287902016081500000010000000000000BRBBSEACNOR5106
012016071978BBSEH59     070BBSE  FM    ON      NM000R$  000000000010300000000001030000000000084000000000008600000000000870000000000000000000000000000005000000000000004300000000000000372200000000000297902016081500000010000000000000BRBBSEACNOR5106
012016071978BBSEH60     070BBSE  FM    ON      NM000R$  000000000005200000000000540000000000047000000000004900000000000490000000000000000000000005100038000000000000019900000000000000980200000000000307902016081500000010000000000000BRBBSEACNOR5106
012016071978BBSEH79     070BBSEE       ON      NM000R$  000000000011800000000001180000000000106000000000010600000000001060000000000000000000000000000002000000000000005200000000000000554800000000000295402016081500000010000000000000BRBBSEACNOR5106
012016071978BBSEI12     070BBSEE       ON      NM000R$  000000000015000000000001500000000000150000000000015000000000001500000000000000000000000000000001000000000000030000000000000004500000000000000320402016091900000010000000000000BRBBSEACNOR5106
012016071978BBSEI29     070BBSE        ON      NM000R$  000000000018100000000001810000000000175000000000017500000000001750000000000000000000000000000002000000000000030900000000000005429100000000000292902016091900000010000000000000BRBBSEACNOR5106
012016071978BBSEI31     070BBSE        ON      NM000R$  000000000009500000000000950000000000089000000000009400000000000890000000000000000000000000000002000000000000000600000000000000056400000000000312902016091900000010000000000000BRBBSEACNOR5106
012016071978BBSEI33     070BBSE        ON      NM000R$  000000000004000000000000400000000000040000000000004000000000000400000000000032000000000000000001000000000000003000000000000000120000000000000332902016091900000010000000000000BRBBSEACNOR5106
012016071978BBSEI61     070BBSE  FM    ON      NM000R$  000000000006900000000000690000000000069000000000006900000000000690000000000000000000000000000001000000000000005000000000000000345000000000000317902016091900000010000000000000BRBBSEACNOR5106
012016071978BBSEJ77     070BBSEE       ON      NM000R$  000000000031000000000003100000000000310000000000031000000000003100000000000000000000000000000001000000000000030900000000000009579000000000000277502016101700000010000000000000BRBBSEACNOR5106
012016071982BBSET57     080BBSEE FM    ON      NM000R$  000000000002700000000000270000000000027000000000002700000000000270000000000000000000000000000001000000000000002000000000000000054000000000000277902016081500000010000000000000BRBBSEACNOR5106
012016071982BBSET79     080BBSEE       ON      NM000R$  000000000007900000000000790000000000079000000000007900000000000790000000000000000000000000000001000000000000002300000000000000181700000000000295402016081500000010000000000000BRBBSEACNOR5106
012016071982BBSET89     080BBSEE       ON      NM000R$  000000000005500000000000550000000000055000000000005500000000000550000000000000000000000000000001000000000000001000000000000000055000000000000290402016081500000010000000000000BRBBSEACNOR5106
012016071982BBSEU29     080BBSEE       ON      NM000R$  000000000011200000000001120000000000112000000000011200000000001120000000000000000000000000000001000000000000005000000000000000560000000000000292902016091900000010000000000000BRBBSEACNOR5106
012016071982BBSEU31     080BBSEE       ON      NM000R$  000000000018500000000001850000000000185000000000018500000000001850000000000000000000000000000001000000000000002000000000000000370000000000000312902016091900000010000000000000BRBBSEACNOR5106
012016071982BBSEU57     080BBSEE FM    ON      NM000R$  000000000005100000000000510000000000051000000000005100000000000510000000000000000000000000000001000000000000000200000000000000010200000000000277902016091900000010000000000000BRBBSEACNOR5106
012016071982BBSEU58     080BBSEE FM    ON      NM000R$  000000000007800000000000780000000000078000000000007800000000000780000000000000000000000000000001000000000000000300000000000000023400000000000287902016091900000010000000000000BRBBSEACNOR5106
012016071982BBSEU59     080BBSEE FM    ON      NM000R$  000000000011400000000001140000000000114000000000011400000000001140000000000000000000000000000001000000000000002500000000000000285000000000000297902016091900000010000000000000BRBBSEACNOR5106
012016071982BBSEU77     080BBSEE       ON      NM000R$  000000000004000000000000430000000000040000000000004000000000000430000000000000000000000000000002000000000000035000000000000001415000000000000275402016091900000010000000000000BRBBSEACNOR5106
012016071982BBSEU9      080BBSEE       ON      NM000R$  000000000018900000000001890000000000189000000000018900000000001890000000000000000000000000000001000000000000030000000000000005670000000000000295402016091900000010000000000000BRBBSEACNOR5106
012016071982BBSEV58     080BBSEE       ON      NM000R$  000000000008000000000000800000000000078000000000007900000000000780000000000000000000000000000002000000000000005000000000000000396000000000000285002016101700000010000000000000BRBBSEACNOR5106
012016071902BBTG11      010BTG PACTUAL UNT          R$  000000000172800000000017280000000001698000000000170500000000017000000000001699000000000170000611000000000000236600000000000403496400000000000000009999123100000010000000000000BRBBTGUNT007114
012016071996BBTG11F     020BTG PACTUAL UNT          R$  000000000177900000000017790000000001705000000000171600000000017050000000001651000000000180900009000000000000000235000000000000403373000000000000009999123100000010000000000000BRBBTGUNT007114
012016071962BBTG11T     030BTG PACTUAL UNT       150R$  000000000180900000000018100000000001809000000000180900000000018100000000000000000000000000000002000000000000003000000000000005428354000000000000009999123100000010000000000000BRBBTGUNT007114
012016071912BBVJ11      010FII C JARDIMCI           R$  000000000530600000000054440000000005305000000000537400000000053450000000005305000000000534500006000000000000000182000000000000978070000000000000009999123100000010000000000000BRBBVJCTF001167
012016071912BCFF11B     010FII BC FFII CI  ER  MB   R$  000000000700000000000070000000000006901000000000694200000000069160000000006916000000000696500043000000000000004059000000000028177627000000000000009999123100000010000000000000BRBCFFCTF000176
012016071912BCIA11      010FII BCIA    CI           R$  000000001020000000000102000000000010200000000001020000000000102000000000010000000000001020000002000000000000000031000000000000316200000000000000009999123100000010000000000000BRBCIACTF005113
012016071912BCRI11      010FII BEES CRICI           R$  000000001028400000000102890000000010284000000001028600000000102890000000010154000000001028900007000000000000001039000000000010687226000000000000009999123100000010000000000000BRBCRICTF009112
012016071902BEEF3       010MINERVA     ON      NM   R$  000000000089600000000009040000000000880000000000088900000000008830000000000882000000000088303297000000000001228900000000001092763700000000000000009999123100000010000000000000BRBEEFACNOR6106
012016071996BEEF3F      020MINERVA     ON      NM   R$  000000000090000000000009000000000000870000000000089000000000008700000000000870000000000100000025000000000000000614000000000000546655000000000000009999123100000010000000000000BRBEEFACNOR6106
012016071962BEEF3T      030MINERVA     ON      NM030R$  000000000090900000000009100000000000909000000000090900000000009100000000000000000000000000000006000000000000060000000000000054593697000000000000009999123100000010000000000000BRBEEFACNOR6106
012016071902BEES3       010BANESTES    ON           R$  000000000025000000000002550000000000236000000000024300000000002360000000000236000000000024900035000000000000031700000000000007718900000000000000009999123100000010000000000000BRBEESACNOR9283
012016071902BEES4       010BANESTES    PN           R$  000000000026000000000002600000000000260000000000026000000000002600000000000241000000000027500002000000000000000400000000000000104000000000000000009999123100000010000000000000BRBEESACNPR6208
012016071902BERK34      010BERKSHIRE   DRN          R$  000000004785000000000478500000000047850000000004785000000000478500000000044627000000005134600001000000000000000200000000000009570000000000000000009999123100000010000000000000BRBERKBDR002100
012016071902BGIP4       010BANESE      PN           R$  000000000129700000000012970000000001280000000000128800000000012800000000001260000000000136800002000000000000000200000000000000257700000000000000009999123100000010000000000000BRBGIPACNPR8186
012016071902BMEB4       010MERC BRASIL PN           R$  000000000053000000000005300000000000515000000000051800000000005300000000000511000000000053000007000000000000009000000000000004667000000000000000009999123100000010000000000000BRBMEBACNPR5195
012016071902BMIN4       010MERC INVEST PN           R$  000000000003000000000000310000000000030000000000003000000000000310000000000029000000000003100005000000000000017000000000000000511000000000000000009999123100000010000000000000BRBMINACNPR1165
012016071996BMIN4F      020MERC INVEST PN           R$  000000000003100000000000310000000000031000000000003100000000000310000000000031000000000003300001000000000000000100000000000000003100000000000000009999123100000010000000000000BRBMINACNPR1165
012016071912BMLC11B     010FII BMBRC LCCI  ER  MB   R$  000000000860100000000087400000000008600000000000860100000000086210000000008621000000000874000007000000000000001857000000000015972931000000000000009999123100000010000000000000BRBMLCCTF004153
012016071902BMTO4       010BRASMOTOR   PN           R$  000000000071100000000007150000000000708000000000071000000000007150000000000705000000000072400037000000000000035700000000000025373000000000000000009999123100000010000000000000BRBMTOACNPR6071
012016071996BMTO4F      020BRASMOTOR   PN           R$  000000000071300000000007130000000000713000000000071300000000007130000000000713000000000072400002000000000000000073000000000000052049000000000000009999123100000010000000000000BRBMTOACNPR6071
012016071902BNBR3       010NORD BRASIL ON           R$  000000000220300000000022030000000002203000000000220300000000022030000000002203000000000249000006000000000000000800000000000001762400000000000000009999123100000010000000000000BRBNBRACNOR8192
012016071996BNBR3F      020NORD BRASIL ON           R$  000000000215000000000021500000000002150000000000215000000000021500000000002155000000000250000001000000000000000005000000000000010750000000000000009999123100000010000000000000BRBNBRACNOR8192
012016071902BOAC34      010BANK AMERICADRN          R$  000000000463300000000046330000000004623000000000463200000000046230000000004603000000000466900002000000000000002100000000000009728300000000000000009999123100000010000000000000BRBOACBDR004123
012016071902BOBR4       010BOMBRIL     PN           R$  000000000015300000000001530000000000153000000000015300000000001530000000000153000000000016000001000000000000000700000000000000107100000000000000009999123100000010000000000000BRBOBRACNPR3128
012016071902BOEI34      010BOEING      DRN          R$  000000004385200000000438520000000043852000000004385200000000438520000000000000000000000000000001000000000000000200000000000008770400000000000000009999123100000010000000000000BRBOEIBDR003117
012016071914BOVA11      010ISHARES BOVACI           R$  000000000546000000000055050000000005448000000000548400000000055050000000005500000000000550504176000000000001313480000000007203724030000000000000009999123100000010000000000000BRBOVACTF003102
012016071996BOVA11F     020ISHARES BOVACI           R$  000000000559800000000055980000000005458000000000549100000000054800000000005440000000000549000017000000000000000077000000000000422823000000000000009999123100000010000000000000BRBOVACTF003102
012016071978BOVAH53     070BOVA  FM    CI        000R$  000000000027400000000002790000000000259000000000026800000000002750000000000000000000000000000006000000000000007750000000000002084350000000000530002016081500000010000000000000BRBOVACTF003102
012016071978BOVAH55     070BOVA  FM    CI        000R$  000000000013200000000001490000000000129000000000013700000000001290000000000000000000000014800008000000000000008800000000000001212070000000000550002016081500000010000000000000BRBOVACTF003102
012016071978BOVAH56     070BOVA  FM    CI        000R$  000000000008400000000000890000000000080000000000008500000000000850000000000000000000000010000009000000000000035500000000000003018000000000000560002016081500000010000000000000BRBOVACTF003102
012016071978BOVAH57     070BOVA  FM    CI        000R$  000000000005000000000000540000000000045000000000005100000000000520000000000000000000000000000013000000000000032950000000000001685800000000000570002016081500000010000000000000BRBOVACTF003102
012016071978BOVAI53     070BOVA  FM    CI        000R$  000000000037400000000003740000000000367000000000037100000000003710000000000000000000000000000005000000000000012500000000000004637500000000000530002016091900000010000000000000BRBOVACTF003102
012016071978BOVAI54     070BOVA  FM    CI        000R$  000000000030300000000003030000000000303000000000030300000000003030000000000000000000000000000001000000000000002500000000000000757500000000000540002016091900000010000000000000BRBOVACTF003102
012016071978BOVAI57     070BOVA  FM    CI        000R$  000000000013800000000001390000000000138000000000013800000000001390000000000000000000000000000002000000000000000350000000000000048550000000000570002016091900000010000000000000BRBOVACTF003102
012016071982BOVAT46     080BOVAE       CI        000R$  000000000000300000000000030000000000003000000000000300000000000030000000000000000000000000000001000000000000000100000000000000000300000000000460002016081500000010000000000000BRBOVACTF003102
012016071982BOVAT47     080BOVAE       CI        000R$  000000000000400000000000040000000000004000000000000400000000000040000000000000000000000000000001000000000000000100000000000000000400000000000470002016081500000010000000000000BRBOVACTF003102
012016071982BOVAT48     080BOVAE       CI        000R$  000000000000500000000000050000000000005000000000000500000000000050000000000000000000000000000001000000000000000110000000000000000550000000000480002016081500000010000000000000BRBOVACTF003102
012016071982BOVAT50     080BOVAE       CI        000R$  000000000001000000000000100000000000010000000000001000000000000100000000000000000000000000000001000000000000000150000000000000001500000000000500002016081500000010000000000000BRBOVACTF003102
012016071982BOVAT52     080BOVAE FM    CI        000R$  000000000003400000000000340000000000021000000000002800000000000210000000000000000000000000000011000000000000014700000000000000423700000000000520002016081500000010000000000000BRBOVACTF003102
012016071982BOVAT53     080BOVAE FM    CI        000R$  000000000004600000000000480000000000043000000000004600000000000430000000000000000000000000000005000000000000012500000000000000577500000000000530002016081500000010000000000000BRBOVACTF003102
012016071982BOVAT54     080BOVAE FM    CI        000R$  000000000007200000000000740000000000072000000000007200000000000730000000000000000000000007900008000000000000009000000000000000656900000000000540002016081500000010000000000000BRBOVACTF003102
012016071982BOVAT55     080BOVAE FM    CI        000R$  000000000010800000000001090000000000100000000000010700000000001000000000000000000000000000000006000000000000012600000000000001352500000000000550002016081500000010000000000000BRBOVACTF003102
012016071982BOVAU52     080BOVAE FM    CI        000R$  000000000006500000000000650000000000060000000000006400000000000650000000000000000000000000000007000000000000016600000000000001066500000000000520002016091900000010000000000000BRBOVACTF003102
012016071982BOVAU53     080BOVAE FM    CI        000R$  000000000008600000000000860000000000078000000000008200000000000780000000000000000000000000000005000000000000012500000000000001032500000000000530002016091900000010000000000000BRBOVACTF003102
012016071982BOVAU54     080BOVAE FM    CI        000R$  000000000011600000000001160000000000116000000000011600000000001160000000000000000000000000000001000000000000002500000000000000290000000000000540002016091900000010000000000000BRBOVACTF003102
012016071982BOVAU55     080BOVAE FM    CI        000R$  000000000015100000000001520000000000151000000000015100000000001520000000000135000000000000000002000000000000005000000000000000757500000000000550002016091900000010000000000000BRBOVACTF003102
012016071902BPAN4       010BANCO PAN   PN      N1   R$  000000000014800000000001480000000000142000000000014200000000001420000000000142000000000014600051000000000000429400000000000061061200000000000000009999123100000010000000000000BRBPANACNPR1104
012016071996BPAN4F      020BANCO PAN   PN      N1   R$  000000000014500000000001480000000000142000000000014500000000001420000000000142000000000016800005000000000000000199000000000000028867000000000000009999123100000010000000000000BRBPANACNPR1104
012016071996BPAT33F     020PATAGONIA   DR3          R$  000000000260000000000026000000000002600000000000260000000000026000000000002600000000000000000003000000000000000025000000000000065000000000000000009999123100000010000000000000BRBPATBDR005106
012016071912BPFF11      010FII ABSOLUTOCI           R$  000000000800000000000080880000000007954000000000801200000000080700000000007954000000000807000027000000000000002570000000000020592750000000000000009999123100000010000000000000BRBPFFCTF002139
012016071902BPHA3       010BR PHARMA   ON      NM   R$  000000000060900000000006240000000000575000000000059100000000005750000000000575000000000058700137000000000000094000000000000055643900000000000000009999123100000010000000000000BRBPHAACNOR6104
012016071996BPHA3F      020BR PHARMA   ON      NM   R$  000000000060400000000006040000000000600000000000060300000000006000000000000539000000000058300003000000000000000046000000000000027760000000000000009999123100000010000000000000BRBPHAACNOR6104
012016071902BRAP3       010BRADESPAR   ON      N1   R$  000000000087500000000008850000000000835000000000085900000000008580000000000857000000000087000090000000000000055200000000000047420400000000000000009999123100000010000000000000BRBRAPACNOR5129
012016071996BRAP3F      020BRADESPAR   ON      N1   R$  000000000084300000000008430000000000842000000000084200000000008420000000000847000000000086200002000000000000000040000000000000033683000000000000009999123100000010000000000000BRBRAPACNOR5129
012016071902BRAP4       010BRADESPAR   PN      N1   R$  000000000101900000000010290000000000992000000000100500000000010040000000001001000000000100406135000000000002188100000000002199669300000000000000009999123100000010000000000000BRBRAPACNPR2129
012016071996BRAP4F      020BRADESPAR   PN      N1   R$  000000000101400000000010140000000000996000000000100200000000010040000000000999000000000100400022000000000000000787000000000000788683000000000000009999123100000010000000000000BRBRAPACNPR2129
012016071962BRAP4T      030BRADESPAR   PN      N1016R$  000000000102500000000010260000000001025000000000102500000000010260000000000000000000000000000002000000000000027000000000000027686332000000000000009999123100000010000000000000BRBRAPACNPR2129
012016071912BRCR11      010FII BC FUND CI  ER       R$  000000000922800000000094610000000009150000000000937600000000094600000000009411000000000946002805000000000000049102000000000460385567000000000000009999123100000010000000000000BRBRCRCTF000167
012016071902BRFS3       010BRF SA      ON  EJ  NM   R$  000000000508500000000050960000000005036000000000507500000000050960000000005087000000000509606564000000000001395900000000007085654600000000000000009999123100000010000000000000BRBRFSACNOR8117
012016071996BRFS3F      020BRF SA      ON  EJ  NM   R$  000000000509700000000050970000000005041000000000507300000000050880000000005088000000000509000083000000000000001974000000000010018449000000000000009999123100000010000000000000BRBRFSACNOR8117
012016071978BRFSH18     070BRFS    /EJ ON      NM000R$  000000000034000000000003550000000000340000000000034900000000003550000000000360000000000000000003000000000000000500000000000000174500000000000479702016081500000010000000000000BRBRFSACNOR8116
012016071978BRFSH22     070BRFSE   /EJ ON      NM000R$  000000000010100000000001020000000000101000000000010100000000001020000000000000000000000000000002000000000000000200000000000000020300000000000522202016081500000010000000000000BRBRFSACNOR8116
012016071978BRFSH4      070BRFS  FM/EJ ON      NM000R$  000000000005400000000000540000000000054000000000005400000000000540000000000000000000000000000001000000000000001000000000000000054000000000000537202016081500000010000000000000BRBRFSACNOR8116
012016071978BRFSH48     070BRFSE   /EJ ON      NM000R$  000000000043000000000004300000000000430000000000043000000000004300000000000000000000000000000002000000000000002500000000000001075000000000000472202016081500000010000000000000BRBRFSACNOR8116
012016071978BRFSH51     070BRFS  FM/EJ ON      NM000R$  000000000016000000000001600000000000150000000000015000000000001500000000000000000000000000000002000000000000021100000000000003177000000000000507202016081500000010000000000000BRBRFSACNOR8116
012016071978BRFSH53     070BRFS  FM/EJ ON      NM000R$  000000000008900000000000890000000000089000000000008900000000000890000000000000000000000000000001000000000000001200000000000000106800000000000527202016081500000010000000000000BRBRFSACNOR8116
012016071978BRFSH55     070BRFS    /EJ ON      NM000R$  000000000003600000000000360000000000036000000000003600000000000360000000000000000000000010000001000000000000000400000000000000014400000000000547202016081500000010000000000000BRBRFSACNOR8116
012016071978BRFSI19     070BRFS  FM/EJ ON      NM000R$  000000000036600000000003660000000000366000000000036600000000003660000000000000000000000000000002000000000000002400000000000000878400000000000492902016091900000010000000000000BRBRFSACNOR8116
012016071978BRFSI51     070BRFS  FM/EJ ON      NM000R$  000000000025000000000002520000000000250000000000025000000000002500000000000000000000000000000015000000000000014100000000000003525800000000000512902016091900000010000000000000BRBRFSACNOR8116
012016071978BRFSI54     070BRFS  FM/EJ ON      NM000R$  000000000012700000000001270000000000127000000000012700000000001270000000000000000000000000000001000000000000000400000000000000050800000000000542902016091900000010000000000000BRBRFSACNOR8116
012016071978BRFSI57     070BRFS    /EJ ON      NM000R$  000000000005500000000000550000000000055000000000005500000000000550000000000000000000000000000001000000000000030000000000000001650000000000000572902016091900000010000000000000BRBRFSACNOR8116
012016071982BRFSO13     080BRFSE   /EJ ON      NM000R$  000000000031800000000003180000000000318000000000031800000000003180000000000000000000000000000001000000000000021000000000000006678000000000000524502018031900000010000000000000BRBRFSACNOR8116
012016071982BRFST48     080BRFSE   /EJ ON      NM000R$  000000000005200000000000520000000000045000000000005100000000000450000000000000000000000000000003000000000000004500000000000000230500000000000472202016081500000010000000000000BRBRFSACNOR8116
012016071982BRFST49     080BRFSE   /EJ ON      NM000R$  000000000006100000000000610000000000061000000000006100000000000610000000000000000000000000000001000000000000000400000000000000024400000000000484702016081500000010000000000000BRBRFSACNOR8116
012016071982BRFST50     080BRFSE FM/EJ ON      NM000R$  000000000010100000000001010000000000101000000000010100000000001010000000000000000000000013500003000000000000003000000000000000303000000000000497202016081500000010000000000000BRBRFSACNOR8116
012016071982BRFST51     080BRFSE FM/EJ ON      NM000R$  000000000013800000000001380000000000137000000000013700000000001380000000000000000000000000000003000000000000001600000000000000220600000000000507202016081500000010000000000000BRBRFSACNOR8116
012016071982BRFSU46     080BRFSE   /EJ ON      NM000R$  000000000006100000000000610000000000061000000000006100000000000610000000000000000000000000000001000000000000030000000000000001830000000000000457902016091900000010000000000000BRBRFSACNOR8116
012016071982BRFSU50     080BRFSE   /EJ ON      NM000R$  000000000018000000000001800000000000180000000000018000000000001800000000000000000000000000000001000000000000030000000000000005400000000000000502902016091900000010000000000000BRBRFSACNOR8116
012016071902BRIN3       010BR INSURANCEON      NM   R$  000000000203500000000021200000000002017000000000207600000000021200000000002050000000000212000069000000000000041300000000000085770100000000000000009999123100000010000000000000BRBRINACNOR3111
012016071996BRIN3F      020BR INSURANCEON      NM   R$  000000000201100000000020410000000002011000000000201600000000020410000000002040000000000206800003000000000000000070000000000000141140000000000000009999123100000010000000000000BRBRINACNOR3111
012016071962BRIN3T      030BR INSURANCEON      NM030R$  000000000209400000000020950000000002094000000000209400000000020950000000000000000000000000000004000000000000028000000000000058643928000000000000009999123100000010000000000000BRBRINACNOR3111
012016071978BRINJ61     070BRINE       ON      NM000R$  000000000014000000000001400000000000140000000000014000000000001400000000000000000000000000000001000000000000004000000000000000560000000000000212502016101700000010000000000000BRBRINACNOR3111
012016071982BRINV61     080BRINE       ON      NM000R$  000000000013000000000001300000000000130000000000013000000000001300000000000000000000000000000001000000000000004000000000000000520000000000000212502016101700000010000000000000BRBRINACNOR3111
012016071996BRIV3F      020ALFA INVEST ON           R$  000000000045000000000004500000000000450000000000045000000000004500000000000450000000000052500001000000000000000012000000000000005400000000000000009999123100000010000000000000BRBRIVACNOR6202
012016071902BRIV4       010ALFA INVEST PN           R$  000000000065500000000006680000000000635000000000064700000000006460000000000641000000000064600031000000000000031400000000000020330100000000000000009999123100000010000000000000BRBRIVACNPR3202
012016071902BRKM3       010BRASKEM     ON      N1   R$  000000000148100000000014810000000001450000000000146000000000014500000000001425000000000148000004000000000000000400000000000000584200000000000000009999123100000010000000000000BRBRKMACNOR1113
012016071902BRKM5       010BRASKEM     PNA     N1   R$  000000000187100000000019500000000001850000000000190000000000018970000000001882000000000189707345000000000001423200000000002704926400000000000000009999123100000010000000000000BRBRKMACNPA4113
012016071996BRKM5F      020BRASKEM     PNA     N1   R$  000000000185500000000019510000000001855000000000189800000000019100000000001831000000000191700047000000000000001079000000000002048872000000000000009999123100000010000000000000BRBRKMACNPA4113
012016071962BRKM5T      030BRASKEM     PNA     N1016R$  000000000190600000000019070000000001906000000000190600000000019070000000000000000000000000000002000000000000001000000000000001906370000000000000009999123100000010000000000000BRBRKMACNPA4113
012016071962BRKM5T      030BRASKEM     PNA     N1030R$  000000000193100000000019320000000001931000000000193100000000019320000000000000000000000000000002000000000000000500000000000000965707000000000000009999123100000010000000000000BRBRKMACNPA4113
012016071962BRKM5T      030BRASKEM     PNA     N1062R$  000000000198000000000019810000000001980000000000198000000000019810000000000000000000000000000002000000000000018000000000000035654035000000000000009999123100000010000000000000BRBRKMACNPA4113
012016071962BRKM5T      030BRASKEM     PNA     N1181R$  000000000205500000000020560000000002055000000000205500000000020560000000000000000000000000000002000000000000000800000000000001644222000000000000009999123100000010000000000000BRBRKMACNPA4113
012016071902BRML3       010BR MALLS PARON      NM   R$  000000000137600000000013790000000001353000000000136700000000013790000000001373000000000137913508000000000002855200000000003904001100000000000000009999123100000010000000000000BRBRMLACNOR9109
012016071996BRML3F      020BR MALLS PARON      NM   R$  000000000139700000000013970000000001320000000000136900000000013770000000001370000000000137700059000000000000001660000000000002273780000000000000009999123100000010000000000000BRBRMLACNOR9109
012016071978BRMLI54     070BRML  FM    ON      NM000R$  000000000005000000000000500000000000050000000000005000000000000500000000000050000000000000000003000000000000007700000000000000385000000000000142702016091900000010000000000000BRBRMLACNOR9109
012016071902BRPR3       010BR PROPERT  ON      NM   R$  000000000077300000000008160000000000767000000000079000000000007980000000000797000000000079801988000000000000611600000000000483766900000000000000009999123100000010000000000000BRBRPRACNOR9116
012016071996BRPR3F      020BR PROPERT  ON      NM   R$  000000000077400000000008080000000000767000000000078200000000008010000000000735000000000080600015000000000000000413000000000000323083000000000000009999123100000010000000000000BRBRPRACNOR9116
012016071978BRPRK83     070BRPRE       ON      NM000R$  000000000005000000000000510000000000050000000000005000000000000510000000000000000000000000000003000000000000058000000000000002911600000000000083002016112100000010000000000000BRBRPRACNOR9116
012016071902BRSR3       010BANRISUL    ON      N1   R$  000000000110800000000011080000000001108000000000110800000000011080000000001060000000000111000002000000000000000200000000000000221600000000000000009999123100000010000000000000BRBRSRACNOR3144
012016071996BRSR3F      020BANRISUL    ON      N1   R$  000000000098500000000011200000000000985000000000106600000000011200000000001030000000000124000007000000000000000205000000000000218578000000000000009999123100000010000000000000BRBRSRACNOR3144
012016071902BRSR5       010BANRISUL    PNA     N1   R$  000000000150000000000020000000000001500000000000183600000000020000000000001200000000000250000004000000000000000400000000000000734600000000000000009999123100000010000000000000BRBRSRACNPA6148
012016071902BRSR6       010BANRISUL    PNB     N1   R$  000000000099500000000010530000000000986000000000103000000000010530000000001041000000000105304786000000000001179900000000001215312600000000000000009999123100000010000000000000BRBRSRACNPB4147
012016071996BRSR6F      020BANRISUL    PNB     N1   R$  000000000099400000000010410000000000994000000000102300000000010410000000001042000000000104900044000000000000001137000000000001163717000000000000009999123100000010000000000000BRBRSRACNPB4147
012016071962BRSR6T      030BANRISUL    PNB     N1181R$  000000000110800000000011090000000001108000000000110800000000011090000000000000000000000000000002000000000000000100000000000000110873000000000000009999123100000010000000000000BRBRSRACNPB4147
012016071902BSEV3       010BIOSEV      ON      NM   R$  000000000121000000000012100000000001210000000000121000000000012100000000001000000000000121000001000000000000000100000000000000121000000000000000009999123100000010000000000000BRBSEVACNOR3101
012016071902BTOW3       010B2W DIGITAL ON      NM   R$  000000000134600000000013960000000001333000000000136900000000013900000000001383000000000139005251000000000001551700000000002124941200000000000000009999123100000010000000000000BRBTOWACNOR8108
012016071996BTOW3F      020B2W DIGITAL ON      NM   R$  000000000132700000000013980000000001327000000000136900000000013590000000001359000000000144000050000000000000001969000000000002695816000000000000009999123100000010000000000000BRBTOWACNOR8108
012016071996BTOW9F      020B2W DIGITAL ON  REC NM   R$  000000000094000000000010500000000000940000000000099500000000010500000000001050000000000000000002000000000000000092000000000000091540000000000000009999123100000010000000000000BRBTOWR03OR9107
012016071902BTTL4       010BATTISTELLA PN           R$  000000000109800000000010980000000001021000000000103300000000010210000000001021000000000109800003000000000000000600000000000000620300000000000000009999123100000010000000000000BRBTTLACNPR7106
012016071902BVMF3       010BMFBOVESPA  ON      NM   R$  000000000203000000000020760000000001980000000000201300000000020200000000002018000000000202020120000000000009233300000000018594048000000000000000009999123100000010000000000000BRBVMFACNOR3137
012016071996BVMF3F      020BMFBOVESPA  ON      NM   R$  000000000204000000000020500000000001989000000000201400000000020220000000002018000000000202200201000000000000004743000000000009559099000000000000009999123100000010000000000000BRBVMFACNOR3137
012016071962BVMF3T      030BMFBOVESPA  ON      NM030R$  000000000204000000000020410000000002040000000000204000000000020410000000000000000000000000000002000000000000001000000000000002040198000000000000009999123100000010000000000000BRBVMFACNOR3137
012016071978BVMFC22     070BVMF        ON      NM000R$  000000000019500000000001950000000000189000000000019300000000001890000000000000000000000000000002000000000000007000000000000001353000000000000219202017032000000010000000000000BRBVMFACNOR3136
012016071978BVMFH18     070BVMF        ON      NM000R$  000000000023700000000002400000000000237000000000023800000000002400000000000048000000000000000002000000000000010000000000000002385000000000000179202016081500000010000000000000BRBVMFACNOR3136
012016071978BVMFH19     070BVMF        ON      NM000R$  000000000015900000000001730000000000138000000000015200000000001570000000000140000000000020000030000000000000004300000000000000654300000000000189202016081500000010000000000000BRBVMFACNOR3136
012016071978BVMFH20     070BVMF  FM    ON      NM000R$  000000000011300000000001130000000000066000000000008700000000000810000000000068000000000009400062000000000000089800000000000007865800000000000199202016081500000010000000000000BRBVMFACNOR3136
012016071978BVMFH21     070BVMF  FM    ON      NM000R$  000000000005200000000000520000000000030000000000003700000000000360000000000032000000000004000047000000000000129500000000000004846100000000000209202016081500000010000000000000BRBVMFACNOR3136
012016071978BVMFH22     070BVMF  FM    ON      NM000R$  000000000002000000000000210000000000013000000000001700000000000150000000000015000000000001900024000000000000056000000000000000955000000000000219202016081500000010000000000000BRBVMFACNOR3136
012016071978BVMFH23     070BVMF  FM    ON      NM000R$  000000000000800000000000100000000000007000000000000800000000000080000000000007000000000000800035000000000000177000000000000001522000000000000229202016081500000010000000000000BRBVMFACNOR3136
012016071978BVMFH24     070BVMF        ON      NM000R$  000000000000600000000000090000000000004000000000000600000000000060000000000004000000000001000026000000000000156000000000000000960400000000000239202016081500000010000000000000BRBVMFACNOR3136
012016071978BVMFH25     070BVMF        ON      NM000R$  000000000000200000000000030000000000002000000000000200000000000030000000000002000000000000300003000000000000000300000000000000000700000000000249202016081500000010000000000000BRBVMFACNOR3136
012016071978BVMFH26     070BVMF        ON      NM000R$  000000000000300000000000030000000000002000000000000200000000000020000000000001000000000000000003000000000000000300000000000000000700000000000259202016081500000010000000000000BRBVMFACNOR3136
012016071978BVMFH49     070BVMF  FM    ON      NM000R$  000000000013200000000001320000000000102000000000011300000000001220000000000001000000000000000022000000000000048300000000000005475300000000000194202016081500000010000000000000BRBVMFACNOR3136
012016071978BVMFH50     070BVMF        ON      NM000R$  000000000008000000000000800000000000048000000000005300000000000570000000000040000000000000000038000000000000127800000000000006779600000000000204202016081500000010000000000000BRBVMFACNOR3136
012016071978BVMFH51     070BVMF        ON      NM000R$  000000000002500000000000250000000000022000000000002300000000000230000000000016000000000000000003000000000000002100000000000000050200000000000214202016081500000010000000000000BRBVMFACNOR3136
012016071978BVMFH52     070BVMF        ON      NM000R$  000000000001500000000000150000000000010000000000001100000000000120000000000009000000000000000013000000000000083700000000000000982800000000000224202016081500000010000000000000BRBVMFACNOR3136
012016071978BVMFH53     070BVMF        ON      NM000R$  000000000000900000000000100000000000005000000000000800000000000050000000000005000000000002700007000000000000020300000000000000174100000000000234202016081500000010000000000000BRBVMFACNOR3136
012016071978BVMFH54     070BVMF        ON      NM000R$  000000000000600000000000060000000000003000000000000400000000000030000000000001000000000000000002000000000000000200000000000000000900000000000244202016081500000010000000000000BRBVMFACNOR3136
012016071978BVMFH55     070BVMF        ON      NM000R$  000000000000300000000000030000000000002000000000000200000000000020000000000001000000000000000002000000000000000200000000000000000500000000000254202016081500000010000000000000BRBVMFACNOR3136
012016071978BVMFH63     070BVMFE       ON      NM000R$  000000000069100000000006910000000000691000000000069100000000006910000000000684000000000000000001000000000000000200000000000000138200000000000131702016081500000010000000000000BRBVMFACNOR3136
012016071978BVMFI17     070BVMF        ON      NM000R$  000000000033000000000003300000000000330000000000033000000000003300000000000047000000000034000001000000000000000300000000000000099000000000000174202016091900000010000000000000BRBVMFACNOR3137
012016071978BVMFI18     070BVMF        ON      NM000R$  000000000022200000000002250000000000222000000000022300000000002250000000000000000000000000000002000000000000010000000000000002235000000000000184202016091900000010000000000000BRBVMFACNOR3137
012016071978BVMFI19     070BVMF  FM    ON      NM000R$  000000000016000000000001600000000000145000000000015400000000001450000000000000000000000000000002000000000000006200000000000000959000000000000194202016091900000010000000000000BRBVMFACNOR3137
012016071978BVMFI21     070BVMF        ON      NM000R$  000000000005500000000000550000000000053000000000005300000000000530000000000000000000000000000002000000000000005300000000000000281500000000000214202016091900000010000000000000BRBVMFACNOR3137
012016071978BVMFI22     070BVMF        ON      NM000R$  000000000003500000000000350000000000030000000000003200000000000300000000000000000000000004000004000000000000004500000000000000146000000000000224202016091900000010000000000000BRBVMFACNOR3137
012016071978BVMFI23     070BVMF        ON      NM000R$  000000000002000000000000200000000000020000000000002000000000000200000000000015000000000000000001000000000000000500000000000000010000000000000234202016091900000010000000000000BRBVMFACNOR3137
012016071978BVMFI49     070BVMF  FM    ON      NM000R$  000000000012400000000001240000000000124000000000012400000000001240000000000020000000000000000001000000000000004000000000000000496000000000000199202016091900000010000000000000BRBVMFACNOR3137
012016071978BVMFI50     070BVMF  FM    ON      NM000R$  000000000007300000000000730000000000073000000000007300000000000730000000000000000000000000000001000000000000004000000000000000292000000000000209202016091900000010000000000000BRBVMFACNOR3137
012016071978BVMFJ18     070BVMF        ON      NM000R$  000000000027700000000002770000000000277000000000027700000000002770000000000000000000000000000001000000000000045700000000000012658900000000000180602016101700000010000000000000BRBVMFACNOR3137
012016071982BVMFT18     080BVMFE       ON      NM000R$  000000000001200000000000120000000000010000000000001100000000000100000000000001000000000001200002000000000000000200000000000000002200000000000179202016081500000010000000000000BRBVMFACNOR3136
012016071982BVMFT19     080BVMFE FM    ON      NM000R$  000000000001900000000000240000000000016000000000001900000000000160000000000016000000000002400034000000000000087100000000000001700300000000000189202016081500000010000000000000BRBVMFACNOR3136
012016071982BVMFT20     080BVMFE FM    ON      NM000R$  000000000003900000000000530000000000039000000000004700000000000420000000000025000000000004200018000000000000039200000000000001877600000000000199202016081500000010000000000000BRBVMFACNOR3136
012016071982BVMFT21     080BVMFE FM    ON      NM000R$  000000000011000000000001100000000000110000000000011000000000001100000000000001000000000000000001000000000000004000000000000000440000000000000209202016081500000010000000000000BRBVMFACNOR3136
