00COTAHIST.2016BOVESPA 20160715                                                                                                                                                                                                                      
012016071502AAPL34      010APPLE       DRN          R$  000000000320200000000032200000000003201000000000321100000000032010000000003186000000000323500013000000000000020900000000000067111100000000000000009999123100000010000000000000BRAAPLBDR004117
012016071596AAPL34F     020APPLE       DRN          R$  000000000270000000000032010000000002700000000000317000000000032010000000002700000000000340000003000000000000000082000000000000259977000000000000009999123100000010000000000000BRAAPLBDR004117
012016071510ABCB2       010ABC BRASIL  DIR PRE N2   R$  000000000044000000000004450000000000425000000000043500000000004260000000000425000000000044000015000000000000007000000000000003045500000000000000009999123100000010000000000000BRABCBD09PR2125
012016071596ABCB2F      020ABC BRASIL  DIR PRE N2   R$  000000000044100000000004440000000000415000000000042800000000004160000000000416000000000043000023000000000000000582000000000000249352000000000000009999123100000010000000000000BRABCBD09PR2125
012016071502ABCB4       010ABC BRASIL  PN      N2   R$  000000000145900000000014590000000001420000000000142900000000014260000000001426000000000142800572000000000000105400000000000150701200000000000000009999123100000010000000000000BRABCBACNPR4126
012016071596ABCB4F      020ABC BRASIL  PN      N2   R$  000000000144900000000014650000000001422000000000143800000000014260000000001426000000000145800019000000000000000280000000000000402735000000000000009999123100000010000000000000BRABCBACNPR4126
012016071512ABCP11      010FII ABC IMOBCI           R$  000000000108000000000011570000000001078000000000113400000000011570000000001063000000000113000012000000000000000133000000000000150910000000000000009999123100000010000000000000BRABCPCTF000249
012016071502ABEV3       010AMBEV S/A   ON  ED       R$  000000000190900000000019100000000001885000000000189400000000018950000000001893000000000189522307000000000009036700000000017123910600000000000000009999123100000010000000000000BRABEVACNOR1113
012016071596ABEV3F      020AMBEV S/A   ON  ED       R$  000000000191300000000019130000000001888000000000189700000000019000000000001895000000000190000248000000000000004283000000000008127078000000000000009999123100000010000000000000BRABEVACNOR1113
012016071562ABEV3T      030AMBEV S/A   ON  ED    017R$  000000000190000000000019010000000001900000000000190000000000019010000000000000000000000000000004000000000000050000000000000095019750000000000000009999123100000010000000000000BRABEVACNOR1113
012016071562ABEV3T      030AMBEV S/A   ON  ED    122R$  000000000197500000000019760000000001974000000000197500000000019750000000000000000000000000000004000000000000000400000000000000790185000000000000009999123100000010000000000000BRABEVACNOR1113
012016071578ABEVG18     070ABEV    /ED ON        000R$  000000000017600000000001760000000000176000000000017600000000001760000000000000000000000017000001000000000000001500000000000000264000000000000173202016071800000010000000000000BRABEVACNOR1107
012016071578ABEVG20     070ABEV    /ED ON        000R$  000000000000600000000000070000000000001000000000000300000000000020000000000000000000000000200014000000000000241600000000000000887700000000000193202016071800000010000000000000BRABEVACNOR1107
012016071578ABEVG38     070ABEV    /ED ON        000R$  000000000002700000000000270000000000010000000000001600000000000120000000000000000000000002000012000000000000008600000000000000144400000000000188202016071800000010000000000000BRABEVACNOR1112
012016071578ABEVG48     070ABEV    /ED ON        000R$  000000000012600000000001260000000000110000000000011000000000001100000000000000000000000000000005000000000000056600000000000006268700000000000178202016071800000010000000000000BRABEVACNOR1107
012016071578ABEVG68     070ABEV    /ED ON        000R$  000000000008500000000000850000000000051000000000006900000000000650000000000000000000000007500008000000000000002600000000000000181600000000000183202016071800000010000000000000BRABEVACNOR1109
012016071578ABEVG78     070ABEVE   /ED ON        000R$  000000000004200000000000420000000000035000000000003700000000000350000000000035000000000006000006000000000000011700000000000000436700000000000185702016071800000010000000000000BRABEVACNOR1112
012016071578ABEVG92     070ABEVE   /ED ON        000R$  000000000001000000000000100000000000002000000000000200000000000020000000000002000000000000800013000000000000149100000000000000346800000000000190702016071800000010000000000000BRABEVACNOR1112
012016071578ABEVG99     070ABEVE   /ED ON        000R$  000000000000100000000000010000000000001000000000000100000000000010000000000000000000000000200004000000000000155000000000000000155000000000000195702016071800000010000000000000BRABEVACNOR1112
012016071578ABEVH18     070ABEV  FM/ED ON        000R$  000000000005600000000000560000000000047000000000004800000000000490000000000000000000000000000006000000000000002900000000000000142000000000000188202016081500000010000000000000BRABEVACNOR1112
012016071578ABEVH19     070ABEV  FM/ED ON        000R$  000000000002800000000000290000000000019000000000002200000000000220000000000021000000000003000013000000000000012200000000000000280000000000000193202016081500000010000000000000BRABEVACNOR1112
012016071578ABEVH20     070ABEV    /ED ON        000R$  000000000000700000000000070000000000007000000000000700000000000070000000000002000000000000000001000000000001000000000000000007000000000000000203202016081500000010000000000000BRABEVACNOR1112
012016071578ABEVH21     070ABEV  FM/ED ON        000R$  000000000000300000000000030000000000002000000000000200000000000020000000000002000000000000000003000000000000018000000000000000036500000000000208202016081500000010000000000000BRABEVACNOR1112
012016071578ABEVH47     070ABEV    /ED ON        000R$  000000000018500000000001850000000000185000000000018500000000001850000000000000000000000000000001000000000000001500000000000000277500000000000173202016081500000010000000000000BRABEVACNOR1112
012016071578ABEVH48     070ABEVE   /ED ON        000R$  000000000011300000000001130000000000113000000000011300000000001130000000000000000000000011100001000000000000002000000000000000226000000000000180702016081500000010000000000000BRABEVACNOR1111
012016071578ABEVH49     070ABEV  FM/ED ON        000R$  000000000001000000000000100000000000009000000000000900000000000090000000000007000000000001900002000000000000002500000000000000024500000000000198202016081500000010000000000000BRABEVACNOR1112
012016071578ABEVH63     070ABEV    /ED ON        000R$  000000000028800000000002880000000000276000000000028300000000002760000000000000000000000000000005000000000000000500000000000000141800000000000163202016081500000010000000000000BRABEVACNOR1109
012016071578ABEVH64     070ABEVE   /ED ON        000R$  000000000004000000000000400000000000031000000000003400000000000310000000000030000000000003600012000000000000054600000000000001887800000000000190702016081500000010000000000000BRABEVACNOR1109
012016071578ABEVH69     070ABEV  FM/ED ON        000R$  000000000009600000000000960000000000086000000000009400000000000860000000000000000000000000000008000000000000001700000000000000160600000000000183202016081500000010000000000000BRABEVACNOR1107
012016071578ABEVH78     070ABEVE   /ED ON        000R$  000000000007200000000000720000000000072000000000007200000000000720000000000000000000000000000001000000000000001400000000000000100800000000000185702016081500000010000000000000BRABEVACNOR1112
012016071578ABEVH79     070ABEVE   /ED ON        000R$  000000000001600000000000160000000000016000000000001600000000000160000000000011000000000000000001000000000000000700000000000000011200000000000195702016081500000010000000000000BRABEVACNOR1111
012016071578ABEVH88     070ABEV    /ED ON        000R$  000000000011700000000001170000000000117000000000011700000000001170000000000000000000000000000001000000000000050000000000000005850000000000000178202016081500000010000000000000BRABEVACNOR1107
012016071578ABEVI49     070ABEV  FM/ED ON        000R$  000000000002800000000000280000000000027000000000002700000000000270000000000008000000000000000002000000000000000700000000000000019200000000000198202016091900000010000000000000BRABEVACNOR1112
012016071578ABEVI89     070ABEV  FM/ED ON        000R$  000000000008300000000000830000000000083000000000008300000000000830000000000000000000000000000001000000000000000600000000000000049800000000000188202016091900000010000000000000BRABEVACNOR1107
012016071578ABEVJ20     070ABEV    /ED ON        000R$  000000000004500000000000450000000000045000000000004500000000000450000000000000000000000000000001000000000000015000000000000000675000000000000199802016101700000010000000000000BRABEVACNOR1112
012016071578ABEVJ22     070ABEV    /ED ON        000R$  000000000000100000000000010000000000001000000000000100000000000010000000000001000000000000000001000000000000015000000000000000015000000000000219802016101700000010000000000000BRABEVACNOR1112
012016071578ABEVJ59     070ABEVE   /ED ON        000R$  000000000005000000000000500000000000050000000000005000000000000500000000000000000000000000000001000000000000015000000000000000750000000000000197302016101700000010000000000000BRABEVACNOR1112
012016071578ABEVJ60     070ABEVE   /ED ON        000R$  000000000002900000000000290000000000029000000000002900000000000290000000000000000000000000000001000000000001000000000000000029000000000000000202302016101700000010000000000000BRABEVACNOR1112
012016071578ABEVJ67     070ABEVE   /ED ON        000R$  000000000027000000000002700000000000270000000000027000000000002700000000000000000000000000000001000000000000015000000000000004050000000000000172302016101700000010000000000000BRABEVACNOR1112
012016071578ABEVJ77     070ABEVE   /ED ON        000R$  000000000019000000000001900000000000190000000000019000000000001900000000000000000000000000000001000000000000015000000000000002850000000000000177302016101700000010000000000000BRABEVACNOR1112
012016071578ABEVJ89     070ABEV    /ED ON        000R$  000000000012600000000001260000000000126000000000012600000000001260000000000000000000000000000001000000000000000800000000000000100800000000000184802016101700000010000000000000BRABEVACNOR1109
012016071578ABEVJ99     070ABEVE   /ED ON        000R$  000000000008400000000000840000000000084000000000008400000000000840000000000000000000000000000001000000000000015000000000000001260000000000000192302016101700000010000000000000BRABEVACNOR1110
012016071578ABEVL21     070ABEV    /ED ON        000R$  000000000003000000000000300000000000030000000000003000000000000300000000000000000000000000000001000000000000055000000000000001650000000000000209802016121900000010000000000000BRABEVACNOR1112
012016071578ABEVL3      070ABEVE   /ED ON        000R$  000000000010000000000001000000000000100000000000010000000000001000000000000000000000000000000001000000000000000100000000000000010000000000000236202017121800000010000000000000BRABEVACNOR1113
012016071582ABEVS10     080ABEVE   /ED ON        000R$  000000000012500000000001250000000000125000000000012500000000001250000000000000000000000000000001000000000000001100000000000000137500000000000203202016071800000010000000000000BRABEVACNOR1112
012016071582ABEVS20     080ABEVE   /ED ON        000R$  000000000003300000000000410000000000033000000000003700000000000410000000000000000000000000000008000000000000014200000000000000535100000000000193202016071800000010000000000000BRABEVACNOR1107
012016071582ABEVS38     080ABEVE   /ED ON        000R$  000000000000200000000000040000000000001000000000000300000000000010000000000001000000000000200048000000000000239100000000000000737000000000000188202016071800000010000000000000BRABEVACNOR1112
012016071582ABEVS92     080ABEVE   /ED ON        000R$  000000000001700000000000170000000000015000000000001500000000000150000000000000000000000000000018000000000000137800000000000002140900000000000190702016071800000010000000000000BRABEVACNOR1112
012016071582ABEVT18     080ABEVE FM/ED ON        000R$  000000000001800000000000230000000000018000000000002100000000000230000000000001000000000000000005000000000000010500000000000000221900000000000188202016081500000010000000000000BRABEVACNOR1112
012016071582ABEVT19     080ABEVE FM/ED ON        000R$  000000000004500000000000500000000000043000000000004900000000000430000000000000000000000000000003000000000000008500000000000000422300000000000193202016081500000010000000000000BRABEVACNOR1112
012016071582ABEVT64     080ABEVE   /ED ON        000R$  000000000002800000000000320000000000028000000000003000000000000320000000000019000000000000000002000000000000001500000000000000046000000000000190702016081500000010000000000000BRABEVACNOR1109
012016071582ABEVT69     080ABEVE FM/ED ON        000R$  000000000000800000000000100000000000008000000000000800000000000100000000000000000000000000000003000000000000035000000000000000290000000000000183202016081500000010000000000000BRABEVACNOR1107
012016071582ABEVT78     080ABEVE   /ED ON        000R$  000000000001300000000000160000000000013000000000001300000000000160000000000009000000000000000003000000000000019800000000000000261300000000000185702016081500000010000000000000BRABEVACNOR1112
012016071582ABEVT79     080ABEVE   /ED ON        000R$  000000000005200000000000520000000000052000000000005200000000000520000000000000000000000000000001000000000000005000000000000000260000000000000195702016081500000010000000000000BRABEVACNOR1111
012016071582ABEVV15     080ABEVE   /ED ON        000R$  000000000000100000000000010000000000001000000000000100000000000010000000000000000000000000000001000000000000015000000000000000015000000000000149802016101700000010000000000000BRABEVACNOR1112
012016071582ABEVV87     080ABEVE   /ED ON        000R$  000000000000500000000000050000000000005000000000000500000000000050000000000000000000000000000001000000000000015000000000000000075000000000000169802016101700000010000000000000BRABEVACNOR1110
012016071582ABEVX17     080ABEVE   /ED ON        000R$  000000000000100000000000010000000000001000000000000100000000000010000000000000000000000000000001000000000000055000000000000000055000000000000167302016121900000010000000000000BRABEVACNOR1111
012016071582ABEVX68     080ABEVE   /ED ON        000R$  000000000003000000000000300000000000030000000000003000000000000300000000000000000000000000000001000000000000055000000000000001650000000000000179802016121900000010000000000000BRABEVACNOR1110
012016071512AEFI11      010FII AESAPAR CI           R$  000000001280000000000130550000000012800000000001293100000000129000000000012900000000001301800022000000000000000704000000000009103877000000000000009999123100000010000000000000BRAEFICTF002155
012016071502AELP3       010AES ELPA    ON           R$  000000000093000000000009300000000000930000000000093000000000009300000000000822000000000092900003000000000000001000000000000000930000000000000000009999123100000010000000000000BRAELPACNOR2123
012016071596AELP3F      020AES ELPA    ON           R$  000000000075000000000007500000000000750000000000075000000000007500000000000750000000000000000001000000000000000007000000000000005250000000000000009999123100000010000000000000BRAELPACNOR2123
012016071512AGCX11      010FII AG CAIXACI           R$  000000010500000000001079990000000105000000000010605800000001074990000000106310000000010749900041000000000000000173000000000018348113000000000000009999123100000010000000000000BRAGCXCTF003144
012016071502AGRO3       010BRASILAGRO  ON      NM   R$  000000000126000000000012650000000001245000000000125100000000012450000000001241000000000124500243000000000000065000000000000081371600000000000000009999123100000010000000000000BRAGROACNOR7104
012016071596AGRO3F      020BRASILAGRO  ON      NM   R$  000000000126200000000012830000000001200000000000126000000000012480000000001248000000000128300010000000000000000237000000000000298841000000000000009999123100000010000000000000BRAGROACNOR7104
012016071512ALMI11B     010FII TORRE ALCI      MB   R$  000000018180000000001820000000000178003000000018145000000001800000000000178201000000018000000010000000000000000070000000000012701505000000000000009999123100000010000000000000BRALMICTF003239
012016071596ALPA3F      020ALPARGATAS  ON      N1   R$  000000000104000000000010400000000001040000000000104000000000010400000000001014000000000109000002000000000000000021000000000000021840000000000000009999123100000010000000000000BRALPAACNOR0217
012016071502ALPA4       010ALPARGATAS  PN      N1   R$  000000000107800000000011000000000001058000000000107600000000010900000000001090000000000109103653000000000000788700000000000848801400000000000000009999123100000010000000000000BRALPAACNPR7217
012016071596ALPA4F      020ALPARGATAS  PN      N1   R$  000000000109000000000011000000000001059000000000107500000000010750000000001019000000000108100017000000000000000595000000000000639765000000000000009999123100000010000000000000BRALPAACNPR7217
012016071502ALSC3       010ALIANSCE    ON      NM   R$  000000000145400000000014750000000001441000000000145400000000014690000000001469000000000147001379000000000000206100000000000299853500000000000000009999123100000010000000000000BRALSCACNOR0109
012016071596ALSC3F      020ALIANSCE    ON      NM   R$  000000000145200000000014560000000001451000000000145200000000014560000000001401000000000153200003000000000000000077000000000000111861000000000000009999123100000010000000000000BRALSCACNOR0109
012016071502ALUP11      010ALUPAR      UNT     N2   R$  000000000150000000000015030000000001475000000000149800000000014950000000001488000000000149502141000000000003527300000000005286212400000000000000009999123100000010000000000000BRALUPCDAM15105
012016071596ALUP11F     020ALUPAR      UNT     N2   R$  000000000145300000000015000000000001453000000000148700000000014970000000001454000000000149500050000000000000001131000000000001681908000000000000009999123100000010000000000000BRALUPCDAM15105
012016071578ALUPH74     070ALUPE       UNT     N2000R$  000000000007600000000000760000000000076000000000007600000000000760000000000000000000000000000001000000000000208200000000000015823200000000000146502016081500000010000000000000BRALUPCDAM15105
012016071578ALUPI74     070ALUPE       UNT     N2000R$  000000000010600000000001060000000000106000000000010600000000001060000000000000000000000000000001000000000000200000000000000021200000000000000146502016091900000010000000000000BRALUPCDAM15105
012016071578ALUPJ74     070ALUPE       UNT     N2000R$  000000000014500000000001450000000000145000000000014500000000001450000000000000000000000000000001000000000000105000000000000015225000000000000142502016101700000010000000000000BRALUPCDAM15105
012016071578ALUPJ84     070ALUPE       UNT     N2000R$  000000000011800000000001180000000000118000000000011800000000001180000000000000000000000000000001000000000000044900000000000005298200000000000147502016101700000010000000000000BRALUPCDAM15105
012016071582ALUPT74     080ALUPE       UNT     N2000R$  000000000002500000000000250000000000024000000000002400000000000240000000000000000000000000000002000000000000208200000000000005100900000000000146502016081500000010000000000000BRALUPCDAM15105
012016071582ALUPU74     080ALUPE       UNT     N2000R$  000000000003800000000000380000000000037000000000003700000000000370000000000000000000000000000002000000000000200000000000000007500000000000000146502016091900000010000000000000BRALUPCDAM15105
012016071582ALUPV74     080ALUPE       UNT     N2000R$  000000000002800000000000280000000000028000000000002800000000000280000000000000000000000000000001000000000000105000000000000002940000000000000142502016101700000010000000000000BRALUPCDAM15105
012016071582ALUPV84     080ALUPE       UNT     N2000R$  000000000004700000000000470000000000046000000000004600000000000460000000000000000000000000000002000000000000044900000000000002087900000000000147502016101700000010000000000000BRALUPCDAM15105
012016071502AMAR3       010LOJAS MARISAON      NM   R$  000000000080000000000008000000000000780000000000079700000000007950000000000795000000000080000124000000000000021400000000000017063800000000000000009999123100000010000000000000BRAMARACNOR4112
012016071596AMAR3F      020LOJAS MARISAON      NM   R$  000000000079400000000007940000000000794000000000079400000000007940000000000669000000000083000003000000000000000027000000000000021438000000000000009999123100000010000000000000BRAMARACNOR4112
012016071562AMAR3T      030LOJAS MARISAON      NM017R$  000000000080200000000008030000000000802000000000080200000000008030000000000000000000000000000002000000000000002000000000000001604778000000000000009999123100000010000000000000BRAMARACNOR4112
012016071502AMGN34      010AMGEN       DRN          R$  000000005302300000000530230000000053023000000005302300000000530230000000052631000000005346400001000000000000000100000000000005302300000000000000009999123100000010000000000000BRAMGNBDR004118
012016071596AMGN34F     020AMGEN       DRN          R$  000000005302300000000530230000000053023000000005302300000000530230000000000000000000000000000001000000000000000009000000000000477207000000000000009999123100000010000000000000BRAMGNBDR004118
012016071596AMZO34F     020AMAZON      DRN          R$  000000011957700000001195770000000119577000000011957700000001195770000000000000000000000000000001000000000000000071000000000008489967000000000000009999123100000010000000000000BRAMZOBDR002101
012016071502ANIM3       010ANIMA       ON      NM   R$  000000000147800000000015250000000001430000000000147100000000015250000000001510000000000152501344000000000000186800000000000274820100000000000000009999123100000010000000000000BRANIMACNOR6103
012016071596ANIM3F      020ANIMA       ON      NM   R$  000000000142600000000015140000000001426000000000149700000000015030000000001500000000000154900011000000000000000391000000000000585453000000000000009999123100000010000000000000BRANIMACNOR6103
012016071502ARZZ3       010AREZZO CO   ON      NM   R$  000000000273900000000027710000000002707000000000274100000000027350000000002735000000000274200825000000000000393800000000001079665900000000000000009999123100000010000000000000BRARZZACNOR3121
012016071596ARZZ3F      020AREZZO CO   ON      NM   R$  000000000270800000000027570000000002708000000000273700000000027430000000002728000000000290400024000000000000000665000000000001820661000000000000009999123100000010000000000000BRARZZACNOR3121
012016071578ARZZJ56     070ARZZ        ON      NM000R$  000000000028600000000002860000000000286000000000028600000000002860000000000000000000000000000001000000000000003700000000000001058200000000000265002016101700000010000000000000BRARZZACNOR3121
012016071508ATOM3       010ATOMPAR     ON           R$  000000000008100000000000840000000000078000000000008000000000000780000000000078000000000008200220000000000000622100000000000049930000000000000000009999123100000010000000000000BRATOMACNOR1101
012016071596ATOM3F      020ATOMPAR     ON           R$  000000000008000000000000800000000000080000000000008000000000000800000000000079000000000008300001000000000000000015000000000000001200000000000000009999123100000010000000000000BRATOMACNOR1101
012016071512ATSA11B     010FII CSHGATSACI      MB   R$  000000008800000000000887500000000088000000000008803700000000887500000000088000000000008875000002000000000000000120000000000010564500000000000000009999123100000010000000000000BRATSACTF000101
012016071502ATTB34      010ATT INC     DRN ED       R$  000000001393900000000139390000000013939000000001393900000000139390000000000000000000000000000001000000000000000200000000000002787800000000000000009999123100000010000000000000BRATTBBDR007116
012016071502AVON34      010AVON        DRN          R$  000000000065800000000006580000000000654000000000065400000000006540000000000000000000000068000003000000000000003800000000000002488600000000000000009999123100000010000000000000BRAVONBDR009121
012016071596AVON34F     020AVON        DRN          R$  000000000064500000000006540000000000645000000000064900000000006540000000000000000000000000000002000000000000000011000000000000007140000000000000009999123100000010000000000000BRAVONBDR009121
012016071502AXPB34      010AMERICAN EXPDRN          R$  000000002075000000000207500000000020731000000002074000000000207310000000000000000000000000000002000000000000000200000000000004148100000000000000009999123100000010000000000000BRAXPBBDR007117
012016071596AXPB34F     020AMERICAN EXPDRN          R$  000000002073100000000207310000000020731000000002073100000000207310000000000000000000000000000001000000000000000080000000000001658480000000000000009999123100000010000000000000BRAXPBBDR007117
012016071502AZEV4       010AZEVEDO     PN           R$  000000000013400000000001350000000000134000000000013400000000001350000000000120000000000013500003000000000000001500000000000000202100000000000000009999123100000010000000000000BRAZEVACNPR7116
012016071502BAHI3       010BAHEMA      ON           R$  000000000026200000000002620000000000262000000000026200000000002620000000000265000000000027500001000000000000000500000000000000131000000000000000009999123100000010000000000000BRBAHIACNOR1068
012016071502BAZA3       010AMAZONIA    ON           R$  000000000003400000000000340000000000033000000000003300000000000340000000000033000000000003400029000000000000174000000000000005755000000000000000009999123100000010000000000000BRBAZAACNOR0168
012016071596BAZA3F      020AMAZONIA    ON           R$  000000000003400000000000340000000000033000000000003300000000000330000000000033000000000003500004000000000000000700000000000000023200000000000000009999123100000010000000000000BRBAZAACNOR0168
012016071502BBAS3       010BRASIL      ON      NM   R$  000000000189400000000019400000000001894000000000192700000000019260000000001925000000000192737529000000000015369800000000029624344400000000000000009999123100000010000000000000BRBBASACNOR3261
012016071596BBAS3F      020BRASIL      ON      NM   R$  000000000189100000000019400000000001891000000000192400000000019300000000001930000000000193100359000000000000010019000000000019280609000000000000009999123100000010000000000000BRBBASACNOR3261
012016071562BBAS3T      030BRASIL      ON      NM017R$  000000000192200000000019310000000001922000000000192500000000019310000000000000000000000000000004000000000000080000000000000154042298000000000000009999123100000010000000000000BRBBASACNOR3261
012016071562BBAS3T      030BRASIL      ON      NM030R$  000000000194000000000019410000000001940000000000194000000000019410000000000000000000000000000002000000000000000300000000000000582048000000000000009999123100000010000000000000BRBBASACNOR3261
012016071562BBAS3T      030BRASIL      ON      NM031R$  000000000193500000000019360000000001935000000000193500000000019360000000000000000000000000000012000000000000005000000000000009677715000000000000009999123100000010000000000000BRBBASACNOR3261
012016071562BBAS3T      030BRASIL      ON      NM060R$  000000000195700000000019750000000001957000000000197200000000019750000000000000000000000000000004000000000000020000000000000039458146000000000000009999123100000010000000000000BRBBASACNOR3261
012016071562BBAS3T      030BRASIL      ON      NM090R$  000000000198800000000019890000000001988000000000198800000000019890000000000000000000000000000002000000000000005000000000000009944627000000000000009999123100000010000000000000BRBBASACNOR3261
012016071562BBAS3T      030BRASIL      ON      NM180R$  000000000205900000000020600000000002059000000000205900000000020600000000000000000000000000000002000000000000000200000000000000411971000000000000009999123100000010000000000000BRBBASACNOR3261
012016071578BBASG13     070BBAS        ON      NM000R$  000000000066800000000006680000000000668000000000066800000000006680000000000000000000000000000001000000000000002500000000000001670000000000000125502016071800000010000000000000BRBBASACNOR3257
012016071578BBASG14     070BBAS        ON      NM000R$  000000000058000000000005800000000000580000000000058000000000005800000000000000000000000000000001000000000000005000000000000002900000000000000135502016071800000010000000000000BRBBASACNOR3257
012016071578BBASG15     070BBAS        ON      NM000R$  000000000042500000000004250000000000425000000000042500000000004250000000000056000000000000000001000000000000001000000000000000425000000000000150502016071800000010000000000000BRBBASACNOR3259
012016071578BBASG16     070BBAS        ON      NM000R$  000000000033000000000003300000000000319000000000032500000000003200000000000001000000000000000028000000000000037100000000000012084900000000000160502016071800000010000000000000BRBBASACNOR3259
012016071538BBASG16E    012BBAS        ON      NM000R$  000000000160500000000016050000000001605000000000160500000000016050000000000000000000000000000001000000000000000300000000000000481500000000000160502016071800000010000000000000BRBBASACNOR3261
012016071578BBASG17     070BBAS        ON      NM000R$  000000000021500000000002370000000000205000000000022300000000002370000000000191000000000023700048000000000000069000000000000015423800000000000170502016071800000010000000000000BRBBASACNOR3259
012016071538BBASG17E    012BBAS        ON      NM000R$  000000000170500000000017050000000001705000000000170500000000017050000000000000000000000000000056000000000000156300000000000266491500000000000170502016071800000010000000000000BRBBASACNOR3261
012016071578BBASG18     070BBAS        ON      NM000R$  000000000009900000000001370000000000096000000000012200000000001350000000000130000000000013500382000000000001076000000000000131449100000000000180502016071800000010000000000000BRBBASACNOR3259
012016071538BBASG18E    012BBAS        ON      NM000R$  000000000180500000000018050000000001805000000000180500000000018050000000000000000000000000000044000000000000120300000000000217141500000000000180502016071800000010000000000000BRBBASACNOR3261
012016071578BBASG19     070BBAS        ON      NM000R$  000000000001800000000000400000000000018000000000003100000000000270000000000008000000000002700266000000000001206000000000000038543200000000000190502016071800000010000000000000BRBBASACNOR3259
012016071578BBASG20     070BBAS        ON      NM000R$  000000000000100000000000040000000000001000000000000200000000000020000000000001000000000000200130000000000001408000000000000002979000000000000200502016071800000010000000000000BRBBASACNOR3259
012016071578BBASG21     070BBAS        ON      NM000R$  000000000000100000000000010000000000001000000000000100000000000010000000000000000000000000100002000000000000004100000000000000004100000000000210502016071800000010000000000000BRBBASACNOR3259
012016071578BBASG42     070BBAS        ON      NM000R$  000000000052500000000005250000000000525000000000052500000000005250000000000000000000000000000001000000000000005400000000000002835000000000000140502016071800000010000000000000BRBBASACNOR3259
012016071578BBASG45     070BBAS        ON      NM000R$  000000000038500000000003850000000000385000000000038500000000003850000000000000000000000000000001000000000000005500000000000002117500000000000155502016071800000010000000000000BRBBASACNOR3259
012016071578BBASG46     070BBAS        ON      NM000R$  000000000025000000000002900000000000250000000000027900000000002900000000000200000000000000000004000000000000001700000000000000475000000000000165502016071800000010000000000000BRBBASACNOR3259
012016071538BBASG46E    012BBAS        ON      NM000R$  000000000165500000000016550000000001655000000000165500000000016550000000000000000000000000000001000000000000003000000000000004965000000000000165502016071800000010000000000000BRBBASACNOR3261
012016071578BBASG47     070BBAS        ON      NM000R$  000000000018200000000001820000000000170000000000017400000000001710000000000165000000000017100009000000000000028200000000000004932100000000000175502016071800000010000000000000BRBBASACNOR3259
012016071578BBASG48     070BBAS        ON      NM000R$  000000000005200000000000830000000000052000000000007700000000000760000000000045000000000000000034000000000000035000000000000002719900000000000185502016071800000010000000000000BRBBASACNOR3259
012016071578BBASG49     070BBAS        ON      NM000R$  000000000000900000000000150000000000004000000000000800000000000040000000000004000000000000800064000000000000425200000000000003496300000000000195502016071800000010000000000000BRBBASACNOR3259
012016071578BBASG50     070BBAS        ON      NM000R$  000000000000100000000000020000000000001000000000000100000000000020000000000000000000000000200004000000000000019000000000000000030000000000000205502016071800000010000000000000BRBBASACNOR3259
012016071578BBASG60     070BBASE       ON      NM000R$  000000000000500000000000060000000000002000000000000400000000000020000000000001000000000000300017000000000000180300000000000000847100000000000198002016071800000010000000000000BRBBASACNOR3259
012016071578BBASG81     070BBAS        ON      NM000R$  000000000029000000000003210000000000290000000000030400000000003210000000000000000000000000000003000000000000003000000000000000912000000000000207702017071700000010000000000000BRBBASACNOR3259
012016071578BBASH16     070BBAS        ON      NM000R$  000000000034500000000003680000000000345000000000035800000000003680000000000250000000000039800004000000000000002500000000000000895500000000000158802016081500000010000000000000BRBBASACNOR3259
012016071578BBASH17     070BBAS        ON      NM000R$  000000000023900000000002640000000000222000000000026300000000002220000000000192000000000030000013000000000000425100000000000111999600000000000168802016081500000010000000000000BRBBASACNOR3259
012016071578BBASH18     070BBAS        ON      NM000R$  000000000014100000000001850000000000141000000000017100000000001800000000000166000000000018000032000000000000045400000000000007804800000000000178802016081500000010000000000000BRBBASACNOR3259
012016071578BBASH19     070BBAS  FM    ON      NM000R$  000000000009400000000001170000000000087000000000010700000000001140000000000107000000000011500509000000000000779700000000000083911400000000000188802016081500000010000000000000BRBBASACNOR3259
012016071578BBASH20     070BBAS  FM    ON      NM000R$  000000000005100000000000660000000000050000000000006100000000000610000000000058000000000006100314000000000000996800000000000061279700000000000198802016081500000010000000000000BRBBASACNOR3259
012016071578BBASH21     070BBAS  FM    ON      NM000R$  000000000003000000000000380000000000029000000000003400000000000350000000000032000000000003600202000000000000484400000000000016793100000000000208802016081500000010000000000000BRBBASACNOR3259
012016071578BBASH22     070BBAS        ON      NM000R$  000000000001500000000000190000000000006000000000001500000000000160000000000015000000000001600142000000000000421500000000000006372400000000000223802016081500000010000000000000BRBBASACNOR3259
012016071578BBASH24     070BBAS        ON      NM000R$  000000000000700000000000100000000000006000000000000700000000000070000000000007000000000000900035000000000000151900000000000001180100000000000238802016081500000010000000000000BRBBASACNOR3259
012016071578BBASH25     070BBAS        ON      NM000R$  000000000000400000000000060000000000004000000000000400000000000050000000000002000000000000500014000000000000049000000000000000231000000000000248802016081500000010000000000000BRBBASACNOR3259
012016071578BBASH26     070BBAS        ON      NM000R$  000000000000400000000000040000000000004000000000000400000000000040000000000001000000000015000002000000000000003500000000000000014000000000000258802016081500000010000000000000BRBBASACNOR3259
012016071578BBASH43     070BBAS        ON      NM000R$  000000000058500000000005850000000000585000000000058500000000005850000000000000000000000000000001000000000000003000000000000001755000000000000133802016081500000010000000000000BRBBASACNOR3257
012016071578BBASH44     070BBAS        ON      NM000R$  000000000049000000000005020000000000480000000000049400000000005010000000000010000000000000000011000000000000014400000000000007124000000000000143802016081500000010000000000000BRBBASACNOR3261
012016071578BBASH47     070BBAS        ON      NM000R$  000000000020200000000002220000000000202000000000021900000000002100000000000100000000000023500006000000000000011800000000000002592400000000000173802016081500000010000000000000BRBBASACNOR3259
012016071578BBASH48     070BBAS  FM    ON      NM000R$  000000000013000000000001480000000000125000000000013600000000001480000000000119000000000015000322000000000000295300000000000040175900000000000183802016081500000010000000000000BRBBASACNOR3259
012016071578BBASH49     070BBAS  FM    ON      NM000R$  000000000006900000000000910000000000069000000000008400000000000820000000000040000000000010300118000000000000175800000000000014858800000000000193802016081500000010000000000000BRBBASACNOR3259
012016071578BBASH50     070BBAS        ON      NM000R$  000000000004200000000000490000000000042000000000004500000000000460000000000039000000000005000039000000000000132600000000000006073300000000000203802016081500000010000000000000BRBBASACNOR3259
012016071578BBASH51     070BBASE       ON      NM000R$  000000000003100000000000310000000000027000000000002800000000000300000000000000000000000000000011000000000000014900000000000000426600000000000211302016081500000010000000000000BRBBASACNOR3259
012016071578BBASH60     070BBASE       ON      NM000R$  000000000004700000000000570000000000046000000000005100000000000520000000000018000000000005600017000000000000022900000000000001183700000000000201302016081500000010000000000000BRBBASACNOR3259
012016071578BBASH66     070BBASE       ON      NM000R$  000000000032800000000003360000000000328000000000032800000000003360000000000285000000000000000014000000000000007400000000000002433100000000000161302016081500000010000000000000BRBBASACNOR3259
012016071578BBASH69     070BBASE       ON      NM000R$  000000000009200000000001000000000000092000000000009800000000001000000000000005000000000010000013000000000000041500000000000004081000000000000191302016081500000010000000000000BRBBASACNOR3259
012016071578BBASH77     070BBASE       ON      NM000R$  000000000018100000000002050000000000181000000000019400000000002050000000000005000000000000000009000000000000017800000000000003453800000000000176302016081500000010000000000000BRBBASACNOR3259
012016071578BBASH79     070BBASE       ON      NM000R$  000000000012300000000001280000000000122000000000012200000000001250000000000035000000000000000029000000000000041500000000000005088600000000000186302016081500000010000000000000BRBBASACNOR3253
012016071578BBASH80     070BBASE       ON      NM000R$  000000000003500000000000400000000000035000000000003900000000000390000000000025000000000004100014000000000000041100000000000001607500000000000206302016081500000010000000000000BRBBASACNOR3259
012016071578BBASH89     070BBASE       ON      NM000R$  000000000007200000000000760000000000069000000000007300000000000730000000000000000000000000000017000000000000052800000000000003864300000000000196302016081500000010000000000000BRBBASACNOR3259
012016071578BBASH91     070BBASE       ON      NM000R$  000000000001900000000000190000000000019000000000001900000000000190000000000000000000000000000001000000000000000100000000000000001900000000000216302016081500000010000000000000BRBBASACNOR3259
012016071578BBASH94     070BBAS        ON      NM000R$  000000000002200000000000270000000000022000000000002400000000000240000000000022000000000002800017000000000000031300000000000000779800000000000213802016081500000010000000000000BRBBASACNOR3253
012016071578BBASH95     070BBAS        ON      NM000R$  000000000002100000000000210000000000020000000000002000000000000200000000000017000000000002100004000000000000001200000000000000024100000000000218802016081500000010000000000000BRBBASACNOR3253
012016071578BBASH97     070BBAS        ON      NM000R$  000000000001200000000000120000000000010000000000001100000000000100000000000003000000000001300012000000000000020500000000000000225500000000000228802016081500000010000000000000BRBBASACNOR3253
012016071578BBASI19     070BBAS  FM    ON      NM000R$  000000000013700000000001390000000000135000000000013700000000001370000000000000000000000018000075000000000000021000000000000002897000000000000192702016091900000010000000000000BRBBASACNOR3260
012016071578BBASI20     070BBAS  FM    ON      NM000R$  000000000010200000000001150000000000102000000000011100000000001150000000000080000000000011500017000000000000020900000000000002333500000000000197702016091900000010000000000000BRBBASACNOR3259
012016071578BBASI22     070BBAS        ON      NM000R$  000000000005200000000000520000000000045000000000004700000000000450000000000043000000000005300002000000000000002500000000000000119500000000000217702016091900000010000000000000BRBBASACNOR3259
012016071578BBASI47     070BBAS        ON      NM000R$  000000000021700000000002450000000000217000000000023100000000002450000000000200000000000000000002000000000000000400000000000000092400000000000172702016091900000010000000000000BRBBASACNOR3259
012016071578BBASI48     070BBAS  FM    ON      NM000R$  000000000019000000000001990000000000186000000000019100000000001910000000000015000000000000000007000000000000007500000000000001435500000000000182702016091900000010000000000000BRBBASACNOR3259
012016071578BBASI50     070BBAS        ON      NM000R$  000000000008600000000000960000000000086000000000009100000000000960000000000005000000000000000002000000000000010100000000000000924600000000000202702016091900000010000000000000BRBBASACNOR3259
012016071578BBASI51     070BBAS        ON      NM000R$  000000000006100000000000640000000000056000000000006200000000000560000000000040000000000005000008000000000000197300000000000012256900000000000212702016091900000010000000000000BRBBASACNOR3259
012016071578BBASI53     070BBAS        ON      NM000R$  000000000001800000000000240000000000017000000000002000000000000240000000000000000000000002400004000000000000280000000000000005726000000000000237702016091900000010000000000000BRBBASACNOR3260
012016071578BBASI68     070BBAS  FM    ON      NM000R$  000000000016100000000001670000000000160000000000016200000000001650000000000000000000000000000005000000000000006000000000000000973600000000000187702016091900000010000000000000BRBBASACNOR3260
012016071578BBASI79     070BBASE       ON      NM000R$  000000000012700000000001270000000000127000000000012700000000001270000000000000000000000000000001000000000000001000000000000000127000000000000195202016091900000010000000000000BRBBASACNOR3259
012016071578BBASI90     070BBAS  FM    ON      NM000R$  000000000007300000000000780000000000073000000000007300000000000780000000000000000000000010800005000000000000003900000000000000287600000000000207702016091900000010000000000000BRBBASACNOR3260
012016071578BBASJ18     070BBAS        ON      NM000R$  000000000023200000000002320000000000232000000000023200000000002320000000000002000000000000000001000000000000000900000000000000208800000000000180002016101700000010000000000000BRBBASACNOR3261
012016071578BBASJ49     070BBAS        ON      NM000R$  000000000015400000000001540000000000154000000000015400000000001540000000000000000000000000000001000000000000001000000000000000154000000000000195002016101700000010000000000000BRBBASACNOR3261
012016071578BBASJ87     070BBAS        ON      NM000R$  000000000038200000000003820000000000382000000000038200000000003820000000000000000000000000000001000000000000003800000000000001451600000000000160002016101700000010000000000000BRBBASACNOR3254
012016071578BBASL22     070BBAS        ON      NM000R$  000000000013800000000001380000000000138000000000013800000000001380000000000000000000000000000001000000000000003400000000000000469200000000000218802016121900000010000000000000BRBBASACNOR3260
012016071578BBASL48     070BBAS        ON      NM000R$  000000000028100000000002810000000000281000000000028100000000002810000000000000000000000000000001000000000000003400000000000000955400000000000183802016121900000010000000000000BRBBASACNOR3260
012016071578BBASL63     070BBASE       ON      NM000R$  000000000035500000000003550000000000355000000000035500000000003550000000000000000000000000000001000000000000050000000000000017750000000000000171302016121900000010000000000000BRBBASACNOR3261
012016071578BBASL69     070BBASE       ON      NM000R$  000000000024000000000002400000000000240000000000024000000000002400000000000000000000000000000001000000000000050000000000000012000000000000000191302016121900000010000000000000BRBBASACNOR3260
012016071582BBASS14     080BBASE       ON      NM000R$  000000000000100000000000010000000000001000000000000100000000000010000000000000000000000000100001000000000000005000000000000000005000000000000135502016071800000010000000000000BRBBASACNOR3257
012016071582BBASS15     080BBASE       ON      NM000R$  000000000000100000000000010000000000001000000000000100000000000010000000000000000000000000100002000000000000000900000000000000000900000000000150502016071800000010000000000000BRBBASACNOR3259
012016071582BBASS16     080BBASE       ON      NM000R$  000000000000100000000000010000000000001000000000000100000000000010000000000000000000000000100002000000000000030000000000000000030000000000000160502016071800000010000000000000BRBBASACNOR3259
012016071582BBASS18     080BBASE       ON      NM000R$  000000000000100000000000010000000000001000000000000100000000000010000000000000000000000000100009000000000000015800000000000000015800000000000180502016071800000010000000000000BRBBASACNOR3259
012016071582BBASS19     080BBASE       ON      NM000R$  000000000002100000000000210000000000001000000000000600000000000010000000000001000000000002000037000000000000258000000000000001595100000000000190502016071800000010000000000000BRBBASACNOR3259
012016071582BBASS42     080BBASE       ON      NM000R$  000000000000100000000000010000000000001000000000000100000000000010000000000000000000000000100001000000000000008000000000000000008000000000000140502016071800000010000000000000BRBBASACNOR3259
012016071582BBASS47     080BBASE       ON      NM000R$  000000000000100000000000010000000000001000000000000100000000000010000000000000000000000000100001000000000000005500000000000000005500000000000175502016071800000010000000000000BRBBASACNOR3259
012016071582BBASS48     080BBASE       ON      NM000R$  000000000000100000000000020000000000001000000000000100000000000010000000000000000000000000200009000000000000012800000000000000014500000000000185502016071800000010000000000000BRBBASACNOR3259
012016071582BBASS49     080BBASE       ON      NM000R$  000000000003500000000000350000000000035000000000003500000000000350000000000000000000000000000001000000000000001000000000000000035000000000000195502016071800000010000000000000BRBBASACNOR3259
012016071582BBASS50     080BBASE       ON      NM000R$  000000000013500000000001350000000000130000000000013000000000001300000000000000000000000000000002000000000000006000000000000000785000000000000205502016071800000010000000000000BRBBASACNOR3259
012016071582BBASS60     080BBASE       ON      NM000R$  000000000004900000000000530000000000049000000000005000000000000530000000000000000000000000000002000000000000001900000000000000096700000000000198002016071800000010000000000000BRBBASACNOR3259
012016071582BBAST15     080BBASE       ON      NM000R$  000000000000400000000000050000000000004000000000000400000000000050000000000005000000000000600003000000000000020000000000000000090000000000000151302016081500000010000000000000BRBBASACNOR3259
012016071582BBAST16     080BBASE       ON      NM000R$  000000000000800000000000080000000000008000000000000800000000000080000000000006000000000001100001000000000000005000000000000000040000000000000158802016081500000010000000000000BRBBASACNOR3259
012016071582BBAST17     080BBASE       ON      NM000R$  000000000001400000000000150000000000011000000000001400000000000130000000000012000000000001300038000000000000497700000000000007380000000000000168802016081500000010000000000000BRBBASACNOR3259
012016071582BBAST18     080BBASE FM    ON      NM000R$  000000000003500000000000350000000000025000000000002900000000000260000000000025000000000003000051000000000000175300000000000005195400000000000178802016081500000010000000000000BRBBASACNOR3259
012016071582BBAST19     080BBASE FM    ON      NM000R$  000000000007500000000000750000000000054000000000006000000000000540000000000055000000000006400037000000000000049100000000000002956500000000000188802016081500000010000000000000BRBBASACNOR3259
012016071582BBAST20     080BBASE       ON      NM000R$  000000000011400000000001170000000000102000000000011400000000001020000000000102000000000011200008000000000000026000000000000002976400000000000198802016081500000010000000000000BRBBASACNOR3259
012016071582BBAST22     080BBASE       ON      NM000R$  000000000029200000000003140000000000292000000000030700000000003030000000000000000000000000000010000000000000006000000000000001842900000000000223802016081500000010000000000000BRBBASACNOR3259
012016071582BBAST43     080BBASE       ON      NM000R$  000000000000100000000000010000000000001000000000000100000000000010000000000001000000000000300001000000000000001000000000000000001000000000000133802016081500000010000000000000BRBBASACNOR3257
012016071582BBAST46     080BBASE       ON      NM000R$  000000000001500000000000160000000000015000000000001500000000000160000000000004000000000000000003000000000000020800000000000000322600000000000163802016081500000010000000000000BRBBASACNOR3259
012016071582BBAST47     080BBASE       ON      NM000R$  000000000001900000000000200000000000019000000000001900000000000190000000000008000000000000000004000000000000002900000000000000056100000000000173802016081500000010000000000000BRBBASACNOR3259
012016071582BBAST48     080BBASE FM    ON      NM000R$  000000000004100000000000410000000000038000000000003900000000000390000000000007000000000004300005000000000000008800000000000000343900000000000183802016081500000010000000000000BRBBASACNOR3259
012016071582BBAST49     080BBASE FM    ON      NM000R$  000000000008400000000000880000000000077000000000008400000000000770000000000000000000000018900006000000000000007500000000000000630100000000000193802016081500000010000000000000BRBBASACNOR3259
012016071582BBAST50     080BBASE       ON      NM000R$  000000000014000000000001400000000000140000000000014000000000001400000000000000000000000000000001000000000000001000000000000000140000000000000203802016081500000010000000000000BRBBASACNOR3259
012016071582BBAST60     080BBASE       ON      NM000R$  000000000012000000000001200000000000120000000000012000000000001200000000000000000000000000000001000000000000000200000000000000024000000000000201302016081500000010000000000000BRBBASACNOR3259
012016071582BBAST66     080BBASE       ON      NM000R$  000000000000600000000000060000000000006000000000000600000000000060000000000000000000000000000002000000000000015100000000000000090600000000000161302016081500000010000000000000BRBBASACNOR3259
012016071582BBAST69     080BBASE       ON      NM000R$  000000000008100000000000810000000000069000000000007400000000000690000000000000000000000009100007000000000000039300000000000002937700000000000191302016081500000010000000000000BRBBASACNOR3259
012016071582BBAST77     080BBASE       ON      NM000R$  000000000002500000000000250000000000024000000000002400000000000240000000000000000000000003600011000000000000051300000000000001280200000000000176302016081500000010000000000000BRBBASACNOR3259
012016071582BBAST79     080BBASE       ON      NM000R$  000000000004800000000000490000000000048000000000004800000000000480000000000042000000000015000003000000000000008000000000000000384100000000000186302016081500000010000000000000BRBBASACNOR3253
012016071582BBAST89     080BBASE       ON      NM000R$  000000000009700000000000980000000000089000000000009700000000000890000000000000000000000000000014000000000000031300000000000003040500000000000196302016081500000010000000000000BRBBASACNOR3259
012016071582BBASU16     080BBASE       ON      NM000R$  000000000001500000000000150000000000015000000000001500000000000150000000000000000000000000000001000000000000010000000000000000150000000000000157702016091900000010000000000000BRBBASACNOR3259
012016071582BBASU18     080BBASE FM    ON      NM000R$  000000000005500000000000560000000000055000000000005500000000000550000000000000000000000000000006000000000000015000000000000000834000000000000177702016091900000010000000000000BRBBASACNOR3259
012016071582BBASU19     080BBASE FM    ON      NM000R$  000000000010900000000001090000000000101000000000010500000000001030000000000100000000000000000072000000000000013000000000000001370900000000000192702016091900000010000000000000BRBBASACNOR3260
012016071582BBASU45     080BBASE       ON      NM000R$  000000000001400000000000140000000000014000000000001400000000000140000000000000000000000000000001000000000000003000000000000000042000000000000152702016091900000010000000000000BRBBASACNOR3260
012016071582BBASU77     080BBASE       ON      NM000R$  000000000003500000000000350000000000035000000000003500000000000350000000000000000000000000000001000000000000002000000000000000070000000000000170202016091900000010000000000000BRBBASACNOR3260
012016071582BBASV76     080BBASE       ON      NM000R$  000000000004800000000000480000000000048000000000004800000000000480000000000000000000000000000001000000000000008000000000000000384000000000000167502016101700000010000000000000BRBBASACNOR3261
012016071582BBASV78     080BBASE       ON      NM000R$  000000000008000000000000800000000000080000000000008000000000000800000000000000000000000000000001000000000000006000000000000000480000000000000182502016101700000010000000000000BRBBASACNOR3259
012016071582BBASX43     080BBASE       ON      NM000R$  000000000000500000000000050000000000005000000000000500000000000050000000000000000000000000000001000000000000003400000000000000017000000000000128802016121900000010000000000000BRBBASACNOR3260
012016071502BBDC3       010BRADESCO    ON      N1   R$  000000000290000000000029420000000002879000000000291300000000029140000000002903000000000291404998000000000001198000000000003490490700000000000000009999123100000010000000000000BRBBDCACNOR1651
012016071596BBDC3F      020BRADESCO    ON      N1   R$  000000000294700000000029470000000002896000000000291500000000029250000000002903000000000292500055000000000000001322000000000003853551000000000000009999123100000010000000000000BRBBDCACNOR1651
012016071502BBDC4       010BRADESCO    PN      N1   R$  000000000283000000000028600000000002806000000000283200000000028300000000002829000000000283023713000000000009828400000000027837724000000000000000009999123100000010000000000000BRBBDCACNPR8651
012016071596BBDC4F      020BRADESCO    PN      N1   R$  000000000283000000000028580000000002804000000000283400000000028350000000002835000000000284000293000000000000007099000000000020117620000000000000009999123100000010000000000000BRBBDCACNPR8651
012016071562BBDC4T      030BRADESCO    PN      N1031R$  000000000285600000000028670000000002856000000000285800000000028670000000000000000000000000000004000000000000002400000000000006859978000000000000009999123100000010000000000000BRBBDCACNPR8651
012016071562BBDC4T      030BRADESCO    PN      N1180R$  000000000301900000000030200000000003019000000000301900000000030200000000000000000000000000000002000000000000009000000000000027177329000000000000009999123100000010000000000000BRBBDCACNPR8651
012016071578BBDCB70     070BBDC        PN      N1000R$  000000000036800000000003740000000000368000000000037000000000003740000000000000000000000000000010000000000000028000000000000010376000000000000278902017022000000010000000000000BRBBDCACNPR8645
012016071578BBDCG1      070BBDCE       PN      N1000R$  000000000104500000000010450000000001045000000000104500000000010450000000000000000000000000000001000000000000012100000000000012644500000000000183202016071800000010000000000000BRBBDCACNPR8643
012016071578BBDCG17     070BBDC        PN      N1000R$  000000000036000000000003850000000000360000000000038400000000003850000000000300000000000000000003000000000000000870000000000000334600000000000246802016071800000010000000000000BRBBDCACNPR8633
012016071578BBDCG2      070BBDC        PN      N1000R$  000000000002600000000000270000000000015000000000002200000000000260000000000000000000000002700228000000000000135800000000000003037770000000000283202016071800000010000000000000BRBBDCACNPR8635
012016071578BBDCG3      070BBDC        PN      N1000R$  000000000077600000000008160000000000776000000000077700000000008110000000000000000000000000000008000000000000014560000000000011319060000000000203602016071800000010000000000000BRBBDCACNPR8643
012016071578BBDCG30     070BBDC        PN      N1000R$  000000000045000000000004500000000000450000000000045000000000004500000000000000000000000000000001000000000000001000000000000000450000000000000279402017071700000010000000000000BRBBDCACNPR8646
012016071578BBDCG33     070BBDC        PN      N1000R$  000000000030000000000003000000000000264000000000028200000000002900000000000207000000000000000019000000000000028600000000000008092100000000000256102016071800000010000000000000BRBBDCACNPR8648
012016071578BBDCG35     070BBDC        PN      N1000R$  000000000045000000000004810000000000448000000000045300000000004580000000000000000000000000000053000000000000149500000000000067781400000000000237702016071800000010000000000000BRBBDCACNPR8636
012016071578BBDCG36     070BBDC        PN      N1000R$  000000000009000000000001060000000000070000000000008700000000000990000000000050000000000000000076000000000000100700000000000008790400000000000275002016071800000010000000000000BRBBDCACNPR8648
012016071578BBDCG38     070BBDCE       PN      N1000R$  000000000056600000000005800000000000564000000000057400000000005790000000000000000000000000000006000000000000029600000000000017004800000000000226602016071800000010000000000000BRBBDCACNPR8647
012016071578BBDCG43     070BBDCE       PN      N1000R$  000000000033000000000003300000000000330000000000033000000000003300000000000001000000000000000001000000000000002000000000000000660000000000000252102016071800000010000000000000BRBBDCACNPR8646
012016071578BBDCG50     070BBDC        PN      N1000R$  000000000065600000000006560000000000656000000000065600000000006560000000000000000000000000000001000000000000000200000000000000131200000000000219502016071800000010000000000000BRBBDCACNPR8635
012016071578BBDCG55     070BBDCE       PN      N1000R$  000000000030300000000003150000000000296000000000031000000000003090000000000290000000000000000006000000000000008070000000000002505070000000000253602016071800000010000000000000BRBBDCACNPR8636
012016071578BBDCG56     070BBDCE       PN      N1000R$  000000000052000000000005390000000000508000000000053100000000005390000000000000000000000000000009000000000000004980000000000002646420000000000230902016071800000010000000000000BRBBDCACNPR8636
012016071578BBDCG64     070BBDC        PN      N1000R$  000000000040500000000004300000000000392000000000041000000000004200000000000000000000000000000007000000000000017010000000000006986420000000000242302016071800000010000000000000BRBBDCACNPR8626
012016071578BBDCG65     070BBDC        PN      N1000R$  000000000033600000000003500000000000336000000000033700000000003400000000000000000000000000000003000000000000003810000000000001284400000000000249802016071800000010000000000000BRBBDCACNPR8626
012016071578BBDCG67     070BBDC        PN      N1000R$  000000000018000000000002130000000000165000000000020000000000001940000000000176000000000000000130000000000000190600000000000038134600000000000265002016071800000010000000000000BRBBDCACNPR8626
012016071578BBDCG72     070BBDC        PN      N1000R$  000000000000400000000000040000000000003000000000000300000000000030000000000000000000000000700002000000000000001600000000000000005700000000000292302016071800000010000000000000BRBBDCACNPR8645
012016071578BBDCG81     070BBDCE       PN      N1000R$  000000000092200000000009220000000000922000000000092200000000009220000000000000000000000000000001000000000000002100000000000001936200000000000192302016071800000010000000000000BRBBDCACNPR8645
012016071578BBDCG97     070BBDCE       PN      N1000R$  000000000022100000000002350000000000207000000000022100000000002350000000000000000000000000000003000000000000078400000000000017326400000000000336302017071700000010000000000000BRBBDCACNPR8645
012016071578BBDCH1      070BBDCE       PN      N1000R$  000000000040000000000004000000000000400000000000040000000000004000000000000000000000000000000002000000000000001030000000000000412000000000000246802016081500000010000000000000BRBBDCACNPR8620
012016071578BBDCH10     070BBDC  FM    PN      N1000R$  000000000019200000000002090000000000189000000000020200000000001970000000000170000000000000000121000000000000155250000000000031377850000000000269202016081500000010000000000000BRBBDCACNPR8631
012016071578BBDCH11     070BBDC        PN      N1000R$  000000000016000000000001650000000000160000000000016200000000001650000000000120000000000000000004000000000000003220000000000000523700000000000273702016081500000010000000000000BRBBDCACNPR8631
012016071578BBDCH15     070BBDC        PN      N1000R$  000000000039700000000003970000000000390000000000039600000000003900000000000000000000000000000004000000000000011300000000000004479900000000000244902016081500000010000000000000BRBBDCACNPR8620
012016071578BBDCH16     070BBDC        PN      N1000R$  000000000032900000000003420000000000328000000000033800000000003420000000000150000000000000000016000000000000042800000000000014500130000000000252402016081500000010000000000000BRBBDCACNPR8620
012016071578BBDCH17     070BBDC        PN      N1000R$  000000000028000000000002800000000000276000000000027900000000002760000000000230000000000027600003000000000000022100000000000006179600000000000260102016081500000010000000000000BRBBDCACNPR8620
012016071578BBDCH23     070BBDC        PN      N1000R$  000000000074000000000007630000000000740000000000074000000000007630000000000000000000000000000007000000000000014160000000000010484380000000000208502016081500000010000000000000BRBBDCACNPR8644
012016071578BBDCH30     070BBDCE       PN      N1000R$  000000000017000000000001700000000000170000000000017000000000001700000000000135000000000000000002000000000000004000000000000000680000000000000271402016081500000010000000000000BRBBDCACNPR8646
012016071578BBDCH31     070BBDC        PN      N1000R$  000000000001700000000000170000000000014000000000001500000000000140000000000001000000000001600010000000000000034200000000000000522100000000000315802016081500000010000000000000BRBBDCACNPR8648
012016071578BBDCH33     070BBDC  FM    PN      N1000R$  000000000013200000000001420000000000120000000000013100000000001300000000000102000000000014500024000000000000047500000000000006236000000000000278702016081500000010000000000000BRBBDCACNPR8649
012016071578BBDCH4      070BBDCE       PN      N1000R$  000000000032000000000003200000000000320000000000032000000000003200000000000000000000000000000001000000000000010000000000000003200000000000000254302016081500000010000000000000BRBBDCACNPR8620
012016071578BBDCH53     070BBDC        PN      N1000R$  000000000071900000000007190000000000719000000000071900000000007190000000000000000000000000000001000000000000002100000000000001509900000000000213102016081500000010000000000000BRBBDCACNPR8644
012016071578BBDCH59     070BBDC        PN      N1000R$  000000000048200000000004910000000000482000000000048400000000004880000000000000000000000000000059000000000000144600000000000070076300000000000236002016081500000010000000000000BRBBDCACNPR8649
012016071578BBDCH6      070BBDCE       PN      N1000R$  000000000027500000000002780000000000275000000000027500000000002780000000000210000000000000000002000000000000000070000000000000019310000000000258202016081500000010000000000000BRBBDCACNPR8620
012016071578BBDCH73     070BBDCE       PN      N1000R$  000000000003300000000000360000000000032000000000003300000000000320000000000010000000000003800006000000000000022000000000000000739000000000000303302016081500000010000000000000BRBBDCACNPR8646
012016071578BBDCH83     070BBDCE       PN      N1000R$  000000000058000000000005800000000000580000000000058000000000005800000000000000000000000000000002000000000000004600000000000002668000000000000225602016081500000010000000000000BRBBDCACNPR8649
012016071578BBDCH85     070BBDCE       PN      N1000R$  000000000050900000000005270000000000509000000000052500000000005260000000000000000000000000000005000000000000003780000000000001984640000000000233502016081500000010000000000000BRBBDCACNPR8646
012016071578BBDCH88     070BBDCE       PN      N1000R$  000000000009000000000000970000000000080000000000008900000000000950000000000000000000000000000036000000000000085500000000000007623600000000000286202016081500000010000000000000BRBBDCACNPR8648
012016071578BBDCH89     070BBDC  FM    PN      N1000R$  000000000008400000000000870000000000071000000000008000000000000870000000000062000000000009800259000000000000103300000000000008292700000000000288702016081500000010000000000000BRBBDCACNPR8651
012016071578BBDCH90     070BBDC  FM    PN      N1000R$  000000000004900000000000490000000000043000000000004500000000000450000000000042000000000004700015000000000000033200000000000001525000000000000298702016081500000010000000000000BRBBDCACNPR8651
012016071578BBDCH91     070BBDCE       PN      N1000R$  000000000001700000000000200000000000015000000000001700000000000150000000000002000000000003000023000000000000086200000000000001550000000000000313302016081500000010000000000000BRBBDCACNPR8647
012016071578BBDCH95     070BBDCE       PN      N1000R$  000000000019600000000001960000000000196000000000019600000000001960000000000140000000000019700001000000000000014600000000000002861600000000000350302017082100000010000000000000BRBBDCACNPR8647
012016071578BBDCH97     070BBDC        PN      N1000R$  000000000006500000000000650000000000062000000000006300000000000620000000000000000000000000000007000000000000020300000000000001288000000000000293702016081500000010000000000000BRBBDCACNPR8651
012016071578BBDCI32     070BBDC        PN      N1000R$  000000000012200000000001270000000000118000000000012100000000001220000000000120000000000000000005000000000000005700000000000000691600000000000291102016091900000010000000000000BRBBDCACNPR8646
012016071578BBDCI46     070BBDC  FM    PN      N1000R$  000000000008200000000000820000000000079000000000008100000000000790000000000000000000000000000004000000000000006500000000000000529500000000000301102016091900000010000000000000BRBBDCACNPR8651
012016071578BBDCI60     070BBDCE       ON      N1000R$  000000000001600000000000160000000000016000000000001600000000000160000000000000000000000000000001000000000000200000000000000003200000000000000354502016091900000010000000000000BRBBDCACNOR1631
012016071578BBDCI68     070BBDC  FM    PN      N1000R$  000000000014700000000001480000000000147000000000014700000000001480000000000000000000000000000005000000000000001800000000000000266000000000000287002016091900000010000000000000BRBBDCACNPR8651
012016071578BBDCJ1      070BBDC        PN      N1000R$  000000000018000000000001940000000000180000000000019100000000001900000000000000000000000000000038000000000000081000000000000015543900000000000284402016101700000010000000000000BRBBDCACNPR8646
012016071578BBDCJ33     070BBDCE       PN      N1000R$  000000000028700000000002870000000000287000000000028700000000002870000000000000000000000000000001000000000000010000000000000002870000000000000268502016101700000010000000000000BRBBDCACNPR8637
012016071578BBDCJ47     070BBDCE       PN      N1000R$  000000000022700000000002270000000000204000000000020500000000002040000000000000000000000000000003000000000000233000000000000047775600000000000362902017101600000010000000000000BRBBDCACNPR8651
012016071578BBDCJ69     070BBDCE       ON      N1000R$  000000000026000000000002620000000000240000000000026100000000002400000000000000000000000000000003000000000000017200000000000004504000000000000377502017101600000010000000000000BRBBDCACNOR1651
012016071578BBDCJ78     070BBDC        PN      N1000R$  000000000036600000000003660000000000366000000000036600000000003660000000000000000000000000000001000000000000020800000000000007612800000000000257202016101700000010000000000000BRBBDCACNPR8638
012016071578BBDCK18     070BBDCE       ON      N1000R$  000000000030000000000003000000000000236000000000023600000000002360000000000000000000000000000005000000000000275300000000000065093800000000000382502017112100000010000000000000BRBBDCACNOR1651
012016071578BBDCK23     070BBDCE       PN      N1000R$  000000000034900000000003490000000000349000000000034900000000003490000000000000000000000000000002000000000000005500000000000001919500000000000332502017112100000010000000000000BRBBDCACNPR8651
012016071578BBDCK29     070BBDCE       PN      N1000R$  000000000017400000000001740000000000138000000000013800000000001380000000000000000000000000000004000000000000100200000000000013919700000000000392502017112100000010000000000000BRBBDCACNPR8651
012016071578BBDCK4      070BBDCE       PN      N1000R$  000000000023900000000002390000000000146000000000014600000000001480000000000000000000000017900004000000000000075300000000000011006600000000000387502017112100000010000000000000BRBBDCACNPR8651
012016071578BBDCK97     070BBDCE       PN      N1000R$  000000000026900000000002690000000000215000000000021600000000002170000000000000000000000000000005000000000000110100000000000023888000000000000372502017112100000010000000000000BRBBDCACNPR8651
012016071578BBDCK98     070BBDCE       PN      N1000R$  000000000021300000000002130000000000177000000000020200000000001770000000000000000000000000000003000000000000056000000000000011318500000000000382502017112100000010000000000000BRBBDCACNPR8651
012016071578BBDCL52     070BBDC        PN      N1000R$  000000000100000000000010000000000001000000000000100000000000010000000000000000000000000000000001000000000000012100000000000012100000000000000195802016121900000010000000000000BRBBDCACNPR8639
012016071578BBDCL61     070BBDCE       PN      N1000R$  000000000011500000000001150000000000115000000000011500000000001150000000000000000000000000000001000000000000001900000000000000218500000000000312802016121900000010000000000000BRBBDCACNPR8651
012016071582BBDCS23     080BBDCE       PN      N1000R$  000000000020000000000002000000000000200000000000020000000000002000000000000000000000000000000002000000000000054200000000000010840000000000000273102017071700000010000000000000BRBBDCACNPR8647
012016071582BBDCS95     080BBDCE       PN      N1000R$  000000000031300000000003200000000000300000000000030500000000003200000000000000000000000000000009000000000001000000000000000305160000000000000318102017071700000010000000000000BRBBDCACNPR8645
012016071582BBDCT10     080BBDCE FM    PN      N1000R$  000000000003800000000000380000000000032000000000003600000000000320000000000000000000000005000004000000000000014180000000000000524650000000000269202016081500000010000000000000BRBBDCACNPR8631
012016071582BBDCT11     080BBDCE       PN      N1000R$  000000000005100000000000560000000000043000000000004800000000000430000000000041000000000007300011000000000000016710000000000000807950000000000273702016081500000010000000000000BRBBDCACNPR8631
012016071582BBDCT17     080BBDCE       PN      N1000R$  000000000002500000000000250000000000023000000000002300000000000230000000000000000000000000000009000000000000022000000000000000514000000000000260102016081500000010000000000000BRBBDCACNPR8620
012016071582BBDCT30     080BBDCE       PN      N1000R$  000000000005200000000000520000000000039000000000004500000000000390000000000001000000000000000011000000000000020650000000000000949650000000000271402016081500000010000000000000BRBBDCACNPR8646
012016071582BBDCT33     080BBDCE FM    PN      N1000R$  000000000007200000000000770000000000056000000000006600000000000560000000000056000000000007200021000000000000040500000000000002708200000000000278702016081500000010000000000000BRBBDCACNPR8649
012016071582BBDCT6      080BBDCE FM    PN      N1000R$  000000000002100000000000210000000000021000000000002100000000000210000000000000000000000000000001000000000000000500000000000000010500000000000258202016081500000010000000000000BRBBDCACNPR8620
012016071582BBDCT75     080BBDCE       PN      N1000R$  000000000009600000000000960000000000096000000000009600000000000960000000000095000000000000000003000000000000014700000000000001411200000000000250302017082100000010000000000000BRBBDCACNPR8648
012016071582BBDCT78     080BBDCE       PN      N1000R$  000000000029000000000002900000000000221000000000022100000000002210000000000000000000000022200002000000000000014600000000000003233500000000000280302017082100000010000000000000BRBBDCACNPR8647
012016071582BBDCT79     080BBDCE       PN      N1000R$  000000000003600000000000360000000000028000000000003300000000000280000000000000000000000011900013000000000000022200000000000000746800000000000266902016081500000010000000000000BRBBDCACNPR8645
012016071582BBDCT89     080BBDCE FM    PN      N1000R$  000000000011300000000001130000000000098000000000010400000000001060000000000000000000000011600007000000000000014800000000000001540800000000000288702016081500000010000000000000BRBBDCACNPR8651
012016071582BBDCT97     080BBDCE       PN      N1000R$  000000000013300000000001330000000000133000000000013300000000001330000000000000000000000000000001000000000000002000000000000000266000000000000293702016081500000010000000000000BRBBDCACNPR8651
012016071582BBDCU1      080BBDCE FM    PN      N1000R$  000000000008400000000000840000000000084000000000008400000000000840000000000000000000000000000001000000000000000600000000000000050400000000000277402016091900000010000000000000BRBBDCACNPR8637
012016071582BBDCV14     080BBDCE       PN      N1000R$  000000000030800000000003080000000000307000000000030700000000003080000000000000000000000000000006000000000000600000000000000184680000000000000317902017101600000010000000000000BRBBDCACNPR8651
012016071582BBDCV36     080BBDCE       PN      N1000R$  000000000007600000000000910000000000076000000000009000000000000910000000000000000000000000000002000000000000233000000000000021083000000000000222902017101600000010000000000000BRBBDCACNPR8651
012016071582BBDCV42     080BBDCE       PN      N1000R$  000000000029800000000002980000000000293000000000029300000000002930000000000000000000000000000002000000000000233000000000000068309000000000000280402017101600000010000000000000BRBBDCACNPR8651
012016071582BBDCV64     080BBDCE       ON      N1000R$  000000000014100000000001410000000000113000000000011300000000001130000000000000000000000000000002000000000000017100000000000001935100000000000232502017101600000010000000000000BRBBDCACNOR1651
012016071582BBDCV68     080BBDCE       ON      N1000R$  000000000033300000000003700000000000320000000000036900000000003200000000000000000000000037000003000000000000017200000000000006355300000000000292502017101600000010000000000000BRBBDCACNOR1651
012016071582BBDCW1      080BBDCE       PN      N1000R$  000000000025900000000002590000000000210000000000021100000000002100000000000000000000000028900003000000000000075200000000000015871900000000000285002017112100000010000000000000BRBBDCACNPR8651
012016071582BBDCW19     080BBDCE       PN      N1000R$  000000000032000000000003450000000000320000000000034400000000003450000000000000000000000000000002000000000000005500000000000001895000000000000297502017112100000010000000000000BRBBDCACNPR8651
012016071582BBDCW2      080BBDCE       PN      N1000R$  000000000011300000000001130000000000113000000000011300000000001130000000000000000000000000000001000000000000040000000000000004520000000000000222502017112100000010000000000000BRBBDCACNPR8651
012016071582BBDCW28     080BBDCE       PN      N1000R$  000000000032100000000003210000000000321000000000032100000000003210000000000000000000000032000001000000000000040000000000000012840000000000000280002017112100000010000000000000BRBBDCACNPR8651
012016071582BBDCW3      080BBDCE       ON      N1000R$  000000000009100000000000910000000000074000000000007400000000000750000000000000000000000000000005000000000000275400000000000020381500000000000232502017112100000010000000000000BRBBDCACNOR1651
012016071582BBDCW5      080BBDCE       PN      N1000R$  000000000010500000000001050000000000085000000000008500000000000850000000000000000000000000000002000000000000100100000000000008510500000000000252502017112100000010000000000000BRBBDCACNPR8651
012016071582BBDCW72     080BBDCE       PN      N1000R$  000000000012800000000001280000000000056000000000009200000000000670000000000000000000000000000006000000000000201100000000000018581900000000000225002017112100000010000000000000BRBBDCACNPR8651
012016071582BBDCW88     080BBDCE       PN      N1000R$  000000000030100000000003180000000000221000000000027300000000002210000000000000000000000000000004000000000000226000000000000061856000000000000282502017112100000010000000000000BRBBDCACNPR8651
012016071582BBDCW9      080BBDCE       ON      N1000R$  000000000025900000000003080000000000259000000000030700000000003080000000000000000000000000000002000000000000275100000000000084725900000000000292502017112100000010000000000000BRBBDCACNOR1651
012016071582BBDCX53     080BBDCE       PN      N1000R$  000000000005500000000000550000000000055000000000005500000000000550000000000000000000000000000001000000000000001900000000000000104500000000000252602016121900000010000000000000BRBBDCACNPR8640
012016071582BBDCX68     080BBDCE       PN      N1000R$  000000000017000000000001700000000000170000000000017000000000001700000000000000000000000000000001000000000000001900000000000000323000000000000281302016121900000010000000000000BRBBDCACNPR8651
012016071512BBFI11B     010FII BB PROGRCI      MB   R$  000000023999900000002410000000000239101000000024017500000002410000000000239101000000024100000012000000000000000061000000000014650684000000000000009999123100000010000000000000BRBBFICTF006232
012016071512BBPO11      010FII BB PRGIICI           R$  000000001134900000000114800000000011300000000001136400000000114700000000011418000000001147000291000000000000034216000000000388833942000000000000009999123100000010000000000000BRBBPOCTF003144
012016071512BBRC11      010FII BB CORP CI           R$  000000001000000000000105000000000009901000000001008800000000104990000000010250000000001049900034000000000000001941000000000019581810000000000000009999123100000010000000000000BRBBRCCTF004158
012016071502BBRK3       010BR BROKERS  ON      NM   R$  000000000017300000000001810000000000170000000000017700000000001810000000000181000000000018200172000000000000051400000000000009141500000000000000009999123100000010000000000000BRBBRKACNOR4110
012016071596BBRK3F      020BR BROKERS  ON      NM   R$  000000000017500000000001770000000000175000000000017500000000001770000000000142000000000018000002000000000000000100000000000000017502000000000000009999123100000010000000000000BRBBRKACNOR4110
012016071514BBSD11      010BB ETF SP DVCI           R$  000000000392200000000039220000000003918000000000391800000000039180000000000000000000000000000003000000000000000440000000000001724220000000000000009999123100000010000000000000BRBBSDCTF000100
012016071502BBSE3       010BBSEGURIDADEON      NM   R$  000000000291000000000029430000000002903000000000291900000000029220000000002920000000000292219954000000000006455200000000018847153600000000000000009999123100000010000000000000BRBBSEACNOR5106
012016071596BBSE3F      020BBSEGURIDADEON      NM   R$  000000000291400000000029410000000002910000000000292100000000029170000000002910000000000291700183000000000000004165000000000012166715000000000000009999123100000010000000000000BRBBSEACNOR5106
012016071562BBSE3T      030BBSEGURIDADEON      NM017R$  000000000293500000000029360000000002935000000000293500000000029360000000000000000000000000000004000000000000000700000000000002054538000000000000009999123100000010000000000000BRBBSEACNOR5106
012016071562BBSE3T      030BBSEGURIDADEON      NM090R$  000000000299700000000029980000000002997000000000299700000000029980000000000000000000000000000002000000000000001000000000000002997669000000000000009999123100000010000000000000BRBBSEACNOR5106
012016071562BBSE3T      030BBSEGURIDADEON      NM122R$  000000000305000000000030510000000003050000000000305000000000030510000000000000000000000000000002000000000000000100000000000000305074000000000000009999123100000010000000000000BRBBSEACNOR5106
012016071578BBSEG28     070BBSE        ON      NM000R$  000000000009600000000001130000000000096000000000010400000000001130000000000096000000000000000003000000000000004500000000000000470500000000000281702016071800000010000000000000BRBBSEACNOR5106
012016071578BBSEG29     070BBSEE       ON      NM000R$  000000000003700000000000440000000000035000000000004100000000000440000000000000000000000000000019000000000000006900000000000000289300000000000289202016071800000010000000000000BRBBSEACNOR5106
012016071578BBSEG57     070BBSE        ON      NM000R$  000000000020500000000002150000000000205000000000020700000000002150000000000000000000000000000002000000000000005200000000000001078000000000000271702016071800000010000000000000BRBBSEACNOR5106
012016071578BBSEG59     070BBSE        ON      NM000R$  000000000002200000000000220000000000022000000000002200000000000220000000000004000000000000000002000000000000010000000000000000220000000000000291702016071800000010000000000000BRBBSEACNOR5106
012016071578BBSEG86     070BBSE        ON      NM000R$  000000000025600000000002560000000000256000000000025600000000002560000000000000000000000000000001000000000000001000000000000000256000000000000266702016071800000010000000000000BRBBSEACNOR5106
012016071578BBSEG88     070BBSE        ON      NM000R$  000000000005200000000000600000000000052000000000005800000000000590000000000051000000000000000003000000000000001200000000000000070200000000000286702016071800000010000000000000BRBBSEACNOR5106
012016071578BBSEG89     070BBSEE       ON      NM000R$  000000000001200000000000130000000000010000000000001100000000000100000000000000000000000000000021000000000000028500000000000000322900000000000294202016071800000010000000000000BRBBSEACNOR5106
012016071578BBSEH27     070BBSE        ON      NM000R$  000000000025000000000002500000000000250000000000025000000000002500000000000225000000000000000001000000000000002000000000000000500000000000000272902016081500000010000000000000BRBBSEACNOR5106
012016071578BBSEH28     070BBSE        ON      NM000R$  000000000017000000000001700000000000170000000000017000000000001700000000000000000000000000000002000000000000001200000000000000204000000000000282902016081500000010000000000000BRBBSEACNOR5106
012016071578BBSEH29     070BBSE        ON      NM000R$  000000000011400000000001140000000000100000000000010800000000001000000000000054000000000017800003000000000000001600000000000000174200000000000292902016081500000010000000000000BRBBSEACNOR5106
012016071578BBSEH30     070BBSE        ON      NM000R$  000000000006600000000000660000000000060000000000006300000000000620000000000000000000000006700009000000000000015800000000000000996300000000000302902016081500000010000000000000BRBBSEACNOR5106
012016071578BBSEH31     070BBSE        ON      NM000R$  000000000004200000000000420000000000042000000000004200000000000420000000000033000000000003500001000000000000000200000000000000008400000000000312902016081500000010000000000000BRBBSEACNOR5106
012016071578BBSEH59     070BBSE  FM    ON      NM000R$  000000000008500000000000850000000000085000000000008500000000000850000000000075000000000000000001000000000000005000000000000000425000000000000297902016081500000010000000000000BRBBSEACNOR5106
012016071578BBSEH60     070BBSE  FM    ON      NM000R$  000000000004500000000000450000000000045000000000004500000000000450000000000000000000000000000005000000000000021500000000000000967500000000000307902016081500000010000000000000BRBBSEACNOR5106
012016071578BBSEH70     070BBSEE       ON      NM000R$  000000000005200000000000520000000000052000000000005200000000000520000000000000000000000000000001000000000000000600000000000000031200000000000305402016081500000010000000000000BRBBSEACNOR5106
012016071578BBSEH89     070BBSEE       ON      NM000R$  000000000012700000000001270000000000127000000000012700000000001270000000000000000000000000000001000000000000000500000000000000063500000000000290402016081500000010000000000000BRBBSEACNOR5106
012016071578BBSEI80     070BBSE  FM    ON      NM000R$  000000000010000000000001000000000000100000000000010000000000001000000000000005000000000000000001000000000000000500000000000000050000000000000307902016091900000010000000000000BRBBSEACNOR5106
012016071578BBSEJ77     070BBSEE       ON      NM000R$  000000000028700000000002870000000000287000000000028700000000002870000000000000000000000000000001000000000000016700000000000004792900000000000277502016101700000010000000000000BRBBSEACNOR5106
012016071578BBSEL72     070BBSE        ON      NM000R$  000000000011400000000001140000000000114000000000011400000000001140000000000000000000000000000002000000000000027500000000000003135000000000000327902016121900000010000000000000BRBBSEACNOR5106
012016071582BBSES29     080BBSEE       ON      NM000R$  000000000001300000000000130000000000008000000000000800000000000080000000000004000000000000000003000000000000008800000000000000071400000000000289202016071800000010000000000000BRBBSEACNOR5106
012016071582BBSES57     080BBSEE       ON      NM000R$  000000000000100000000000010000000000001000000000000100000000000010000000000000000000000000000001000000000000027500000000000000027500000000000271702016071800000010000000000000BRBBSEACNOR5106
012016071582BBSET28     080BBSEE       ON      NM000R$  000000000005000000000000500000000000050000000000005000000000000500000000000000000000000000000001000000000000001000000000000000050000000000000282902016081500000010000000000000BRBBSEACNOR5106
012016071582BBSET89     080BBSEE       ON      NM000R$  000000000008000000000000800000000000080000000000008000000000000800000000000000000000000000000001000000000000000500000000000000040000000000000290402016081500000010000000000000BRBBSEACNOR5106
012016071582BBSEX54     080BBSEE       ON      NM000R$  000000000002400000000000240000000000024000000000002400000000000240000000000000000000000000000001000000000000027500000000000000660000000000000247902016121900000010000000000000BRBBSEACNOR5106
012016071582BBSEX58     080BBSEE       ON      NM000R$  000000000013800000000001380000000000138000000000013800000000001380000000000000000000000000000001000000000000027500000000000003795000000000000280402016121900000010000000000000BRBBSEACNOR5105
012016071502BBTG11      010BTG PACTUAL UNT EJ       R$  000000000177200000000017970000000001735000000000174500000000017360000000001736000000000174001425000000000000629000000000001097913800000000000000009999123100000010000000000000BRBBTGUNT007114
012016071596BBTG11F     020BTG PACTUAL UNT EJ       R$  000000000174200000000017530000000001739000000000174300000000017410000000001611000000000174100011000000000000000323000000000000563009000000000000009999123100000010000000000000BRBBTGUNT007114
012016071562BBTG11T     030BTG PACTUAL UNT EJ    090R$  000000000180000000000018010000000001800000000000180000000000018010000000000000000000000000000002000000000000010000000000000018006655000000000000009999123100000010000000000000BRBBTGUNT007114
012016071512BBVJ11      010FII C JARDIMCI           R$  000000000544800000000054480000000005353000000000536100000000053530000000005353000000000540000019000000000000000587000000000003147355000000000000009999123100000010000000000000BRBBVJCTF001167
012016071512BCFF11B     010FII BC FFII CI  ER  MB   R$  000000000701500000000070500000000006985000000000700200000000069850000000006986000000000699800023000000000000004381000000000030679883000000000000009999123100000010000000000000BRBCFFCTF000176
012016071512BCIA11      010FII BCIA    CI           R$  000000001020000000000102000000000010200000000001020000000000102000000000010000000000001020000004000000000000000092000000000000938400000000000000009999123100000010000000000000BRBCIACTF005113
012016071512BCRI11      010FII BEES CRICI           R$  000000001020000000000102000000000010170000000001018400000000102000000000010175000000001020000016000000000000000983000000000010011600000000000000009999123100000010000000000000BRBCRICTF009112
012016071502BEEF3       010MINERVA     ON      NM   R$  000000000090700000000009070000000000876000000000089500000000008930000000000893000000000089803737000000000000801800000000000717741800000000000000009999123100000010000000000000BRBEEFACNOR6106
012016071596BEEF3F      020MINERVA     ON      NM   R$  000000000090800000000009080000000000879000000000089300000000008890000000000889000000000090600022000000000000000724000000000000646605000000000000009999123100000010000000000000BRBEEFACNOR6106
012016071502BEES3       010BANESTES    ON           R$  000000000023300000000002560000000000230000000000023900000000002480000000000248000000000025500072000000000000128000000000000030696400000000000000009999123100000010000000000000BRBEESACNOR9283
012016071596BEES3F      020BANESTES    ON           R$  000000000023600000000002440000000000236000000000023800000000002440000000000230000000000025500005000000000000000160000000000000038128000000000000009999123100000010000000000000BRBEESACNOR9283
012016071502BEES4       010BANESTES    PN           R$  000000000023100000000002500000000000231000000000023600000000002500000000000235000000000024900003000000000000001000000000000000236500000000000000009999123100000010000000000000BRBEESACNPR6208
012016071502BERK34      010BERKSHIRE   DRN          R$  000000004742000000000477720000000047420000000004742900000000477720000000042750000000005200000003000000000000004800000000000227662600000000000000009999123100000010000000000000BRBERKBDR002100
012016071596BERK34F     020BERKSHIRE   DRN          R$  000000004753400000000475340000000047534000000004753400000000475340000000000100000000000000000001000000000000000046000000000002186564000000000000009999123100000010000000000000BRBERKBDR002100
012016071502BGIP4       010BANESE      PN           R$  000000000115800000000012560000000001158000000000117700000000012550000000001150000000000125400007000000000000004000000000000004708000000000000000009999123100000010000000000000BRBGIPACNPR8186
012016071502BIIB34      010BIOGEN      DRN          R$  000000001406800000000140680000000014068000000001406800000000140680000000000000000000000000000004000000000000001000000000000014068000000000000000009999123100000010000000000000BRBIIBBDR001100
012016071596BIIB34F     020BIOGEN      DRN          R$  000000001406800000000140680000000014068000000001406800000000140680000000000000000000000000000001000000000000000004000000000000056272000000000000009999123100000010000000000000BRBIIBBDR001100
012016071502BMEB4       010MERC BRASIL PN           R$  000000000051200000000005200000000000511000000000051800000000005200000000000520000000000053000004000000000000006200000000000003213300000000000000009999123100000010000000000000BRBMEBACNPR5195
012016071502BMIN4       010MERC INVEST PN           R$  000000000003000000000000300000000000028000000000002900000000000290000000000028000000000002900014000000000000039000000000000001131000000000000000009999123100000010000000000000BRBMINACNPR1165
012016071502BMKS3       010BIC MONARK  ON           R$  000000002720000000000272000000000027200000000002720000000000272000000000027200000000002869700002000000000000000007000000000000190400000000000000009999123100000010000000000000BRBMKSACNOR9158
012016071512BMLC11B     010FII BMBRC LCCI  ER  MB   R$  000000000860000000000086500000000008560000000000856700000000085600000000008560000000000865000005000000000000000148000000000001268040000000000000009999123100000010000000000000BRBMLCCTF004153
012016071502BMTO3       010BRASMOTOR   ON           R$  000000000070400000000007040000000000704000000000070400000000007040000000000704000000000072000005000000000000002000000000000001408000000000000000009999123100000010000000000000BRBMTOACNOR9186
012016071502BMTO4       010BRASMOTOR   PN           R$  000000000070500000000007060000000000704000000000070400000000007040000000000704000000000072000014000000000000020700000000000014587900000000000000009999123100000010000000000000BRBMTOACNPR6071
012016071596BMTO4F      020BRASMOTOR   PN           R$  000000000070500000000007050000000000705000000000070500000000007050000000000700000000000072000001000000000000000010000000000000007050000000000000009999123100000010000000000000BRBMTOACNPR6071
012016071512BNFS11      010FII BANRISULCI           R$  000000001049900000000105000000000010497000000001049800000000105000000000010500000000001069000007000000000000000658000000000006908124000000000000009999123100000010000000000000BRBNFSCTF000146
012016071502BOAC34      010BANK AMERICADRN          R$  000000000441400000000044140000000004414000000000441400000000044140000000004381000000000446900006000000000000004200000000000018538800000000000000009999123100000010000000000000BRBOACBDR004123
012016071596BOAC34F     020BANK AMERICADRN          R$  000000000441400000000044140000000004414000000000441400000000044140000000004400000000000000000001000000000000000009000000000000039726000000000000009999123100000010000000000000BRBOACBDR004123
012016071502BOBR4       010BOMBRIL     PN           R$  000000000015200000000001600000000000152000000000015900000000001600000000000153000000000016000005000000000000002900000000000000463200000000000000009999123100000010000000000000BRBOBRACNPR3128
012016071514BOVA11      010ISHARES BOVACI           R$  000000000536100000000053980000000005353000000000538000000000053950000000005390000000000539504768000000000001289390000000006938108360000000000000009999123100000010000000000000BRBOVACTF003102
012016071596BOVA11F     020ISHARES BOVACI           R$  000000000536000000000054680000000005360000000000539300000000054680000000005468000000000550000007000000000000000023000000000000124053000000000000009999123100000010000000000000BRBOVACTF003102
012016071578BOVAG48     070BOVA        CI        000R$  000000000058800000000005880000000000588000000000058800000000005880000000000000000000000000000001000000000000000150000000000000088200000000000480002016071800000010000000000000BRBOVACTF003102
012016071578BOVAG49     070BOVA        CI        000R$  000000000046700000000004900000000000464000000000048500000000004890000000000000000000000000000005000000000000002800000000000001360600000000000490002016071800000010000000000000BRBOVACTF003102
012016071578BOVAG50     070BOVA        CI        000R$  000000000036600000000003660000000000366000000000036600000000003660000000000000000000000000000001000000000000002600000000000000951600000000000500002016071800000010000000000000BRBOVACTF003102
012016071578BOVAG51     070BOVA        CI        000R$  000000000028400000000003000000000000269000000000028800000000003000000000000010000000000000000005000000000000005800000000000001674700000000000510002016071800000010000000000000BRBOVACTF003102
012016071578BOVAG52     070BOVA        CI        000R$  000000000018000000000001800000000000180000000000018000000000001800000000000000000000000000000001000000000000000100000000000000018000000000000520002016071800000010000000000000BRBOVACTF003102
012016071578BOVAG53     070BOVA        CI        000R$  000000000007400000000000740000000000074000000000007400000000000740000000000000000000000000000001000000000000000600000000000000044400000000000530002016071800000010000000000000BRBOVACTF003102
012016071578BOVAH50     070BOVA        CI        000R$  000000000043100000000004310000000000431000000000043100000000004310000000000000000000000000000001000000000000000200000000000000086200000000000500002016081500000010000000000000BRBOVACTF003102
012016071578BOVAH51     070BOVA        CI        000R$  000000000034400000000003440000000000344000000000034400000000003440000000000000000000000000000001000000000000000100000000000000034400000000000510002016081500000010000000000000BRBOVACTF003102
012016071578BOVAH52     070BOVA  FM    CI        000R$  000000000027000000000002930000000000270000000000029200000000002930000000000000000000000000000003000000000000002750000000000000804600000000000520002016081500000010000000000000BRBOVACTF003102
012016071578BOVAH53     070BOVA  FM    CI        000R$  000000000019800000000001980000000000198000000000019800000000001980000000000000000000000000000001000000000000002400000000000000475200000000000530002016081500000010000000000000BRBOVACTF003102
012016071578BOVAH54     070BOVA  FM    CI        000R$  000000000013900000000001580000000000139000000000013900000000001580000000000000000000000020000002000000000000002200000000000000307700000000000540002016081500000010000000000000BRBOVACTF003102
012016071578BOVAH55     070BOVA  FM    CI        000R$  000000000010700000000001070000000000105000000000010600000000001050000000000000000000000000000210000000000000020000000000000002122340000000000550002016081500000010000000000000BRBOVACTF003102
012016071578BOVAH56     070BOVA  FM    CI        000R$  000000000006300000000000710000000000057000000000006300000000000690000000000000000000000000000008000000000000004900000000000000313050000000000560002016081500000010000000000000BRBOVACTF003102
012016071578BOVAI52     070BOVA  FM    CI        000R$  000000000038200000000003820000000000382000000000038200000000003820000000000000000000000000000001000000000000002500000000000000955000000000000520002016091900000010000000000000BRBOVACTF003102
012016071578BOVAI54     070BOVA  FM    CI        000R$  000000000024600000000002460000000000246000000000024600000000002460000000000000000000000000000001000000000000000100000000000000024600000000000540002016091900000010000000000000BRBOVACTF003102
012016071578BOVAI55     070BOVA  FM    CI        000R$  000000000019800000000001980000000000198000000000019800000000001980000000000000000000000000000001000000000000002500000000000000495000000000000550002016091900000010000000000000BRBOVACTF003102
012016071578BOVAI56     070BOVA  FM    CI        000R$  000000000015000000000001500000000000150000000000015000000000001500000000000000000000000000000001000000000000002500000000000000375000000000000560002016091900000010000000000000BRBOVACTF003102
012016071582BOVAT47     080BOVAE       CI        000R$  000000000000800000000000080000000000008000000000000800000000000080000000000000000000000000000001000000000000000400000000000000003200000000000470002016081500000010000000000000BRBOVACTF003102
012016071582BOVAT49     080BOVAE       CI        000R$  000000000001200000000000120000000000012000000000001200000000000120000000000000000000000000000001000000000000000300000000000000003600000000000490002016081500000010000000000000BRBOVACTF003102
012016071582BOVAT51     080BOVAE FM    CI        000R$  000000000003400000000000340000000000032000000000003300000000000320000000000000000000000000000003000000000000005500000000000000182000000000000510002016081500000010000000000000BRBOVACTF003102
012016071582BOVAT53     080BOVAE FM    CI        000R$  000000000008100000000000840000000000074000000000007700000000000740000000000000000000000008800005000000000000001900000000000000146600000000000530002016081500000010000000000000BRBOVACTF003102
012016071582BOVAT54     080BOVAE FM    CI        000R$  000000000012000000000001200000000000116000000000011600000000001160000000000000000000000000000002000000000000001200000000000000140000000000000540002016081500000010000000000000BRBOVACTF003102
012016071582BOVAU50     080BOVAE       CI        000R$  000000000006000000000000600000000000060000000000006000000000000600000000000000000000000000000002000000000000002000000000000000120000000000000500002016091900000010000000000000BRBOVACTF003102
012016071502BOXP34      010BOSTON PROP DRN          R$  000000000438800000000043880000000004388000000000438800000000043880000000004388000000000445600001000000000000000600000000000002632800000000000000009999123100000010000000000000BRBOXPBDR008104
