00COTAHIST.2016BOVESPA 20160721                                                                                                                                                                                                                      
012016072102AAPL34      010APPLE       DRN          R$  000000000326500000000032650000000003242000000000326000000000032460000000003231000000000328500007000000000000075300000000000245536000000000000000009999123100000010000000000000BRAAPLBDR004117
012016072196AAPL34F     020APPLE       DRN          R$  000000000324600000000032460000000003246000000000324600000000032460000000000000000000000000000001000000000000000086000000000000279156000000000000009999123100000010000000000000BRAAPLBDR004117
012016072110ABCB2       010ABC BRASIL  DIR PRE N2   R$  000000000043500000000004350000000000385000000000040600000000003850000000000385000000000041900032000000000000012600000000000005127400000000000000009999123100000010000000000000BRABCBD09PR2125
012016072196ABCB2F      020ABC BRASIL  DIR PRE N2   R$  000000000040000000000004200000000000394000000000040600000000004150000000000390000000000040000018000000000000000339000000000000137871000000000000009999123100000010000000000000BRABCBD09PR2125
012016072102ABCB4       010ABC BRASIL  PN      N2   R$  000000000140000000000014120000000001360000000000138900000000013700000000001370000000000138400835000000000000235100000000000326670000000000000000009999123100000010000000000000BRABCBACNPR4126
012016072196ABCB4F      020ABC BRASIL  PN      N2   R$  000000000137300000000014140000000001371000000000139100000000013970000000001372000000000139600027000000000000000608000000000000845940000000000000009999123100000010000000000000BRABCBACNPR4126
012016072112ABCP11      010FII ABC IMOBCI           R$  000000000109700000000010970000000001087000000000108700000000010870000000001070000000000108700006000000000000000307000000000000333948000000000000009999123100000010000000000000BRABCPCTF000249
012016072102ABEV3       010AMBEV S/A   ON  ED       R$  000000000191200000000019250000000001895000000000191200000000019200000000001919000000000192014512000000000007734400000000014792859000000000000000009999123100000010000000000000BRABEVACNOR1113
012016072196ABEV3F      020AMBEV S/A   ON  ED       R$  000000000191200000000019220000000001898000000000191000000000019210000000001921000000000192500118000000000000002888000000000005517677000000000000009999123100000010000000000000BRABEVACNOR1113
012016072178ABEVA78     070ABEVE       ON        000R$  000000000018700000000001870000000000156000000000015600000000001560000000000000000000000000000002000000000000020100000000000003138700000000000185102017011600000010000000000000BRABEVACNOR1113
012016072178ABEVG98     070ABEV    /ED ON        000R$  000000000031000000000003110000000000310000000000031000000000003110000000000000000000000000000007000000000000150000000000000046614000000000000183702017071700000010000000000000BRABEVACNOR1112
012016072178ABEVH18     070ABEV  FM/ED ON        000R$  000000000005900000000000640000000000049000000000005800000000000640000000000000000000000000000013000000000000024400000000000001423100000000000188202016081500000010000000000000BRABEVACNOR1112
012016072178ABEVH19     070ABEV  FM/ED ON        000R$  000000000002600000000000350000000000022000000000002500000000000350000000000024000000000003500017000000000000041300000000000001056200000000000193202016081500000010000000000000BRABEVACNOR1112
012016072178ABEVH20     070ABEV    /ED ON        000R$  000000000000600000000000060000000000006000000000000600000000000060000000000003000000000001000001000000000000000400000000000000002400000000000203202016081500000010000000000000BRABEVACNOR1112
012016072178ABEVH21     070ABEV  FM/ED ON        000R$  000000000000500000000000050000000000005000000000000500000000000050000000000001000000000000500002000000000000006000000000000000030000000000000208202016081500000010000000000000BRABEVACNOR1112
012016072178ABEVH49     070ABEV  FM/ED ON        000R$  000000000000900000000000090000000000009000000000000900000000000090000000000007000000000001900002000000000000024300000000000000218700000000000198202016081500000010000000000000BRABEVACNOR1112
012016072178ABEVH64     070ABEVE   /ED ON        000R$  000000000003800000000000380000000000038000000000003800000000000380000000000032000000000004700001000000000000005000000000000000190000000000000190702016081500000010000000000000BRABEVACNOR1109
012016072178ABEVH69     070ABEV  FM/ED ON        000R$  000000000010100000000001010000000000101000000000010100000000001010000000000000000000000000000001000000000000001200000000000000121200000000000183202016081500000010000000000000BRABEVACNOR1107
012016072178ABEVH72     070ABEV        ON        000R$  000000000008000000000000800000000000078000000000007800000000000780000000000000000000000000000002000000000000135300000000000010553600000000000223702017082100000010000000000000BRABEVACNOR1113
012016072178ABEVH79     070ABEVE   /ED ON        000R$  000000000001800000000000180000000000017000000000001700000000000170000000000010000000000002000002000000000000013600000000000000234200000000000195702016081500000010000000000000BRABEVACNOR1111
012016072178ABEVI19     070ABEV  FM/ED ON        000R$  000000000005800000000000590000000000058000000000005800000000000590000000000000000000000000000002000000000000010000000000000000585000000000000193202016091900000010000000000000BRABEVACNOR1112
012016072178ABEVI20     070ABEV    /ED ON        000R$  000000000001700000000000190000000000017000000000001800000000000190000000000017000000000000000002000000000000021500000000000000407500000000000203202016091900000010000000000000BRABEVACNOR1112
012016072178ABEVI59     070ABEVE   /ED ON        000R$  000000000006200000000000620000000000062000000000006200000000000620000000000000000000000000000001000000000000008000000000000000496000000000000190702016091900000010000000000000BRABEVACNOR1112
012016072178ABEVI79     070ABEVE   /ED ON        000R$  000000000004500000000000530000000000045000000000005000000000000530000000000000000000000000000003000000000000410000000000000020650000000000000195702016091900000010000000000000BRABEVACNOR1111
012016072178ABEVI89     070ABEV  FM/ED ON        000R$  000000000008100000000000930000000000081000000000008300000000000930000000000004000000000000000007000000000000025000000000000002085000000000000188202016091900000010000000000000BRABEVACNOR1107
012016072178ABEVJ59     070ABEVE   /ED ON        000R$  000000000005600000000000560000000000056000000000005600000000000560000000000000000000000000000001000000000000200000000000000011200000000000000197302016101700000010000000000000BRABEVACNOR1112
012016072182ABEVP86     080ABEVE   /ED ON        000R$  000000000004900000000000500000000000049000000000004900000000000500000000000000000000000000000003000000000000500000000000000024750000000000000191202017041700000010000000000000BRABEVACNOR1112
012016072182ABEVT19     080ABEVE FM/ED ON        000R$  000000000003700000000000370000000000030000000000003300000000000300000000000025000000000000000005000000000000000800000000000000026400000000000193202016081500000010000000000000BRABEVACNOR1112
012016072182ABEVT67     080ABEVE       ON        000R$  000000000007800000000000780000000000078000000000007800000000000780000000000000000000000000000002000000000000135300000000000010553400000000000178702017082100000010000000000000BRABEVACNOR1113
012016072182ABEVT79     080ABEVE   /ED ON        000R$  000000000003900000000000390000000000039000000000003900000000000390000000000039000000000000000002000000000000002000000000000000078000000000000195702016081500000010000000000000BRABEVACNOR1111
012016072182ABEVX21     080ABEVE   /ED ON        000R$  000000000011800000000001190000000000118000000000011800000000001190000000000000000000000000000002000000000000150000000000000017795000000000000209802016121900000010000000000000BRABEVACNOR1112
012016072112AEFI11      010FII AESAPAR CI           R$  000000001289000000000129800000000012890000000001293200000000129100000000012910000000001298000025000000000000001012000000000013087974000000000000009999123100000010000000000000BRAEFICTF002155
012016072102AELP3       010AES ELPA    ON           R$  000000000131000000000013110000000001250000000000129700000000013110000000001310000000000136800011000000000000001300000000000001686500000000000000009999123100000010000000000000BRAELPACNOR2123
012016072112AGCX11      010FII AG CAIXACI           R$  000000010950000000001118500000000109000000000011082800000001116000000000110999000000011160000048000000000000000276000000000030588734000000000000009999123100000010000000000000BRAGCXCTF003144
012016072102AGRO3       010BRASILAGRO  ON      NM   R$  000000000127900000000012800000000001266000000000127500000000012700000000001269000000000127000436000000000000083300000000000106273400000000000000009999123100000010000000000000BRAGROACNOR7104
012016072196AGRO3F      020BRASILAGRO  ON      NM   R$  000000000128200000000013000000000001275000000000128600000000012750000000001275000000000134900008000000000000000171000000000000219988000000000000009999123100000010000000000000BRAGROACNOR7104
012016072112ALMI11B     010FII TORRE ALCI      MB   R$  000000018000000000001810000000000179100000000018019500000001810000000000179100000000018150000006000000000000000021000000000003784100000000000000009999123100000010000000000000BRALMICTF003239
012016072102ALPA3       010ALPARGATAS  ON      N1   R$  000000000106000000000010600000000001060000000000106000000000010600000000001055000000000106000005000000000000000500000000000000530000000000000000009999123100000010000000000000BRALPAACNOR0217
012016072196ALPA3F      020ALPARGATAS  ON      N1   R$  000000000112100000000011210000000001055000000000111700000000010550000000001055000000000113600002000000000000000033000000000000036861000000000000009999123100000010000000000000BRALPAACNOR0217
012016072102ALPA4       010ALPARGATAS  PN      N1   R$  000000000108700000000011000000000001073000000000108400000000011000000000001099000000000110002286000000000000998200000000001082887700000000000000009999123100000010000000000000BRALPAACNPR7217
012016072196ALPA4F      020ALPARGATAS  PN      N1   R$  000000000108000000000011000000000001078000000000108700000000011000000000001046000000000110000021000000000000000345000000000000375243000000000000009999123100000010000000000000BRALPAACNPR7217
012016072102ALSC3       010ALIANSCE    ON      NM   R$  000000000149700000000015200000000001487000000000151000000000015050000000001502000000000150601457000000000000251900000000000380554600000000000000009999123100000010000000000000BRALSCACNOR0109
012016072196ALSC3F      020ALIANSCE    ON      NM   R$  000000000149400000000015050000000001494000000000150100000000015020000000001400000000000156000008000000000000000290000000000000435373000000000000009999123100000010000000000000BRALSCACNOR0109
012016072102ALUP11      010ALUPAR      UNT     N2   R$  000000000158500000000016080000000001573000000000158700000000015990000000001598000000000159901020000000000000234500000000000372262800000000000000009999123100000010000000000000BRALUPCDAM15105
012016072196ALUP11F     020ALUPAR      UNT     N2   R$  000000000159700000000016030000000001451000000000158200000000016030000000001451000000000160500054000000000000001472000000000002329853000000000000009999123100000010000000000000BRALUPCDAM15105
012016072102AMAR3       010LOJAS MARISAON      NM   R$  000000000078900000000008050000000000776000000000079900000000008050000000000797000000000080600187000000000001802800000000001442012000000000000000009999123100000010000000000000BRAMARACNOR4112
012016072196AMAR3F      020LOJAS MARISAON      NM   R$  000000000080000000000008000000000000774000000000078500000000007740000000000797000000000087000004000000000000000131000000000000102904000000000000009999123100000010000000000000BRAMARACNOR4112
012016072196AMGN34F     020AMGEN       DRN          R$  000000005371600000000537160000000053716000000005371600000000537160000000000000000000000000000001000000000000000043000000000002309788000000000000009999123100000010000000000000BRAMGNBDR004118
012016072102AMZO34      010AMAZON      DRN          R$  000000012201200000001220120000000122012000000012201200000001220120000000120870000000012274700001000000000000001000000000000122012000000000000000009999123100000010000000000000BRAMZOBDR002101
012016072196AMZO34F     020AMAZON      DRN          R$  000000012178100000001217810000000121781000000012178100000001217810000000000000000000000000000001000000000000000028000000000003409868000000000000009999123100000010000000000000BRAMZOBDR002101
012016072102ANIM3       010ANIMA       ON      NM   R$  000000000148900000000015400000000001476000000000151900000000015400000000001513000000000154000411000000000000086200000000000130956100000000000000009999123100000010000000000000BRANIMACNOR6103
012016072196ANIM3F      020ANIMA       ON      NM   R$  000000000150000000000015050000000001500000000000150100000000015000000000001450000000000154500003000000000000000231000000000000346800000000000000009999123100000010000000000000BRANIMACNOR6103
012016072102ARZZ3       010AREZZO CO   ON      NM   R$  000000000278000000000028010000000002742000000000279000000000027880000000002782000000000278800531000000000000219400000000000612223900000000000000009999123100000010000000000000BRARZZACNOR3121
012016072196ARZZ3F      020AREZZO CO   ON      NM   R$  000000000277500000000028000000000002766000000000277700000000028000000000002770000000000280000013000000000000000291000000000000808123000000000000009999123100000010000000000000BRARZZACNOR3121
012016072178ARZZJ56     070ARZZ        ON      NM000R$  000000000029700000000002970000000000297000000000029700000000002970000000000000000000000000000001000000000000003800000000000001128600000000000265002016101700000010000000000000BRARZZACNOR3121
012016072108ATOM3       010ATOMPAR     ON           R$  000000000007000000000000740000000000068000000000007100000000000740000000000073000000000007400166000000000000412000000000000029467200000000000000009999123100000010000000000000BRATOMACNOR1101
012016072196ATOM3F      020ATOMPAR     ON           R$  000000000008000000000000850000000000070000000000007500000000000750000000000071000000000007500014000000000000000166000000000000012510000000000000009999123100000010000000000000BRATOMACNOR1101
012016072102AVON34      010AVON        DRN          R$  000000000063700000000006370000000000608000000000061000000000006080000000000603000000000063500006000000000000001500000000000000915800000000000000009999123100000010000000000000BRAVONBDR009121
012016072196AVON34F     020AVON        DRN          R$  000000000060900000000006090000000000609000000000060900000000006090000000000000000000000000000001000000000000000085000000000000051765000000000000009999123100000010000000000000BRAVONBDR009121
012016072102AXPB34      010AMERICAN EXPDRN          R$  000000002079000000000207900000000020790000000002079000000000207900000000000000000000000000000001000000000000003700000000000076923000000000000000009999123100000010000000000000BRAXPBBDR007117
012016072196AXPB34F     020AMERICAN EXPDRN          R$  000000002072700000000207270000000020727000000002072700000000207270000000000000000000000000000001000000000000000071000000000001471617000000000000009999123100000010000000000000BRAXPBBDR007117
012016072102AZEV4       010AZEVEDO     PN           R$  000000000014400000000001550000000000144000000000014500000000001550000000000145000000000020000003000000000000000800000000000000116300000000000000009999123100000010000000000000BRAZEVACNPR7116
012016072102BAHI3       010BAHEMA      ON           R$  000000000026000000000002600000000000255000000000025600000000002550000000000255000000000027000003000000000000001300000000000000333000000000000000009999123100000010000000000000BRBAHIACNOR1068
012016072196BAHI3F      020BAHEMA      ON           R$  000000000029000000000002900000000000290000000000029000000000002900000000000257000000000027000001000000000000000008000000000000002320000000000000009999123100000010000000000000BRBAHIACNOR1068
012016072102BAUH4       010EXCELSIOR   PN           R$  000000000061500000000006690000000000615000000000062900000000006690000000000631000000000066900008000000000000003400000000000002139800000000000000009999123100000010000000000000BRBAUHACNPR3111
012016072102BAZA3       010AMAZONIA    ON           R$  000000000003400000000000340000000000033000000000003300000000000340000000000033000000000003400027000000000000110000000000000003688000000000000000009999123100000010000000000000BRBAZAACNOR0168
012016072196BAZA3F      020AMAZONIA    ON           R$  000000000003300000000000330000000000031000000000003200000000000320000000000032000000000003300008000000000000002847000000000000091854000000000000009999123100000010000000000000BRBAZAACNOR0168
012016072102BBAS3       010BRASIL      ON      NM   R$  000000000213000000000021470000000002027000000000208900000000020950000000002094000000000209524701000000000014932500000000031204088100000000000000009999123100000010000000000000BRBBASACNOR3261
012016072196BBAS3F      020BRASIL      ON      NM   R$  000000000213100000000021400000000002037000000000209200000000020910000000002086000000000209100466000000000000010921000000000022847320000000000000009999123100000010000000000000BRBBASACNOR3261
012016072162BBAS3T      030BRASIL      ON      NM018R$  000000000210300000000021040000000002103000000000210300000000021040000000000000000000000000000002000000000000025000000000000052588650000000000000009999123100000010000000000000BRBBASACNOR3261
012016072162BBAS3T      030BRASIL      ON      NM032R$  000000000209200000000021190000000002092000000000210500000000021190000000000000000000000000000008000000000000005200000000000010947310000000000000009999123100000010000000000000BRBBASACNOR3261
012016072162BBAS3T      030BRASIL      ON      NM060R$  000000000215300000000021540000000002136000000000215300000000021370000000000000000000000000000004000000000000131000000000000282090219000000000000009999123100000010000000000000BRBBASACNOR3261
012016072162BBAS3T      030BRASIL      ON      NM063R$  000000000217800000000021790000000002178000000000217800000000021790000000000000000000000000000002000000000000000400000000000000871391000000000000009999123100000010000000000000BRBBASACNOR3261
012016072178BBASA84     070BBASE       ON      NM000R$  000000000037000000000003700000000000333000000000033300000000003330000000000000000000000000000002000000000000012100000000000004033000000000000247502018011500000010000000000000BRBBASACNOR3261
012016072178BBASD52     070BBAS        ON      NM000R$  000000000027400000000002740000000000274000000000027400000000002740000000000000000000000000000001000000000000001000000000000000274000000000000222702017041700000010000000000000BRBBASACNOR3259
012016072178BBASG83     070BBAS        ON      NM000R$  000000000031500000000003150000000000315000000000031500000000003150000000000008000000000000000001000000000000000400000000000000126000000000000227702017071700000010000000000000BRBBASACNOR3259
012016072178BBASH17     070BBAS        ON      NM000R$  000000000046800000000004680000000000403000000000044600000000004030000000000215000000000000000004000000000000001600000000000000714400000000000168802016081500000010000000000000BRBBASACNOR3259
012016072178BBASH18     070BBAS        ON      NM000R$  000000000035100000000003550000000000300000000000033400000000003230000000000306000000000034000052000000000000035700000000000011940700000000000178802016081500000010000000000000BRBBASACNOR3259
012016072178BBASH19     070BBAS        ON      NM000R$  000000000028700000000002990000000000160000000000023500000000002450000000000231000000000024500181000000000000165900000000000039072900000000000188802016081500000010000000000000BRBBASACNOR3259
012016072178BBASH20     070BBAS  FM    ON      NM000R$  000000000017000000000002020000000000127000000000015900000000001700000000000160000000000017000129000000000000283800000000000045358400000000000198802016081500000010000000000000BRBBASACNOR3259
012016072178BBASH21     070BBAS  FM    ON      NM000R$  000000000011400000000001310000000000080000000000010500000000001100000000000105000000000011000417000000000000696900000000000073197800000000000208802016081500000010000000000000BRBBASACNOR3259
012016072178BBASH22     070BBAS        ON      NM000R$  000000000005700000000000650000000000039000000000004900000000000510000000000051000000000005200497000000000001179500000000000058686100000000000223802016081500000010000000000000BRBBASACNOR3259
012016072178BBASH23     070BBASE       ON      NM000R$  000000000003500000000000350000000000022000000000002800000000000280000000000028000000000003000129000000000000351300000000000009850000000000000236302016081500000010000000000000BRBBASACNOR3259
012016072178BBASH24     070BBAS  FM    ON      NM000R$  000000000002800000000000290000000000019000000000002400000000000250000000000024000000000002500405000000000000883000000000000021306300000000000238802016081500000010000000000000BRBBASACNOR3259
012016072178BBASH25     070BBAS        ON      NM000R$  000000000001600000000000210000000000012000000000001500000000000150000000000015000000000001600190000000000000543500000000000008550600000000000248802016081500000010000000000000BRBBASACNOR3259
012016072178BBASH26     070BBAS        ON      NM000R$  000000000000900000000000110000000000007000000000001000000000000100000000000009000000000001100038000000000000160400000000000001670000000000000258802016081500000010000000000000BRBBASACNOR3259
012016072178BBASH28     070BBAS        ON      NM000R$  000000000000300000000000060000000000003000000000000500000000000060000000000004000000000000700012000000000000182400000000000001037400000000000278802016081500000010000000000000BRBBASACNOR3259
012016072178BBASH29     070BBAS        ON      NM000R$  000000000000200000000000040000000000002000000000000300000000000040000000000003000000000001300008000000000000045100000000000000178800000000000288802016081500000010000000000000BRBBASACNOR3259
012016072178BBASH44     070BBAS        ON      NM000R$  000000000066500000000006650000000000665000000000066500000000006650000000000000000000000000000001000000000000000100000000000000066500000000000143802016081500000010000000000000BRBBASACNOR3261
012016072178BBASH47     070BBAS        ON      NM000R$  000000000040000000000004000000000000319000000000034500000000003770000000000291000000000000000014000000000000005100000000000001760000000000000173802016081500000010000000000000BRBBASACNOR3259
012016072178BBASH48     070BBAS        ON      NM000R$  000000000028000000000003250000000000232000000000029400000000002600000000000265000000000031400036000000000000017200000000000005069400000000000183802016081500000010000000000000BRBBASACNOR3259
012016072178BBASH49     070BBAS        ON      NM000R$  000000000022000000000002200000000000170000000000017800000000001700000000000100000000000022000009000000000000007200000000000001282700000000000193802016081500000010000000000000BRBBASACNOR3259
012016072178BBASH50     070BBAS        ON      NM000R$  000000000015000000000001500000000000100000000000012000000000001210000000000121000000000016000051000000000000083200000000000010007200000000000203802016081500000010000000000000BRBBASACNOR3259
012016072178BBASH51     070BBASE       ON      NM000R$  000000000009000000000001010000000000069000000000008500000000001010000000000045000000000010500012000000000000016400000000000001396700000000000211302016081500000010000000000000BRBBASACNOR3259
012016072178BBASH55     070BBAS        ON      NM000R$  000000000001000000000000100000000000010000000000001000000000000100000000000000000000000000000007000000000000022000000000000000220000000000000253802016081500000010000000000000BRBBASACNOR3259
012016072178BBASH56     070BBAS        ON      NM000R$  000000000000500000000000050000000000005000000000000500000000000050000000000005000000000000000002000000000000038700000000000000193500000000000263802016081500000010000000000000BRBBASACNOR3259
012016072178BBASH60     070BBASE       ON      NM000R$  000000000013600000000001390000000000114000000000011900000000001180000000000135000000000000000011000000000000008900000000000001066800000000000201302016081500000010000000000000BRBBASACNOR3259
012016072178BBASH62     070BBASE       ON      NM000R$  000000000005000000000000630000000000050000000000005400000000000500000000000000000000000000000005000000000000005000000000000000272000000000000221302016081500000010000000000000BRBBASACNOR3259
012016072178BBASH69     070BBASE       ON      NM000R$  000000000022000000000002200000000000220000000000022000000000002200000000000050000000000000000003000000000000001000000000000000220000000000000191302016081500000010000000000000BRBBASACNOR3259
012016072178BBASH77     070BBASE       ON      NM000R$  000000000037500000000003750000000000300000000000031700000000003000000000000005000000000000000027000000000000010300000000000003267200000000000176302016081500000010000000000000BRBBASACNOR3259
012016072178BBASH79     070BBASE       ON      NM000R$  000000000026600000000002670000000000254000000000026100000000002540000000000201000000000034900003000000000000002600000000000000680000000000000186302016081500000010000000000000BRBBASACNOR3253
012016072178BBASH80     070BBASE       ON      NM000R$  000000000014700000000001470000000000110000000000013300000000001100000000000000000000000000000008000000000000050000000000000006679100000000000206302016081500000010000000000000BRBBASACNOR3259
012016072178BBASH89     070BBASE       ON      NM000R$  000000000018900000000001890000000000150000000000016100000000001500000000000130000000000000000005000000000000004200000000000000677800000000000196302016081500000010000000000000BRBBASACNOR3259
012016072178BBASH91     070BBASE       ON      NM000R$  000000000007000000000000860000000000064000000000006900000000000710000000000000000000000000000013000000000000016300000000000001138700000000000216302016081500000010000000000000BRBBASACNOR3259
012016072178BBASH94     070BBAS        ON      NM000R$  000000000009700000000001020000000000066000000000007600000000000850000000000070000000000009000028000000000000102300000000000007817400000000000213802016081500000010000000000000BRBBASACNOR3253
012016072178BBASH95     070BBAS  FM    ON      NM000R$  000000000007200000000000800000000000053000000000007000000000000680000000000000000000000008200050000000000000116200000000000008200000000000000218802016081500000010000000000000BRBBASACNOR3253
012016072178BBASH97     070BBAS  FM    ON      NM000R$  000000000004200000000000470000000000031000000000003800000000000420000000000039000000000004200117000000000000184100000000000007063700000000000228802016081500000010000000000000BRBBASACNOR3253
012016072178BBASH98     070BBAS        ON      NM000R$  000000000003500000000000350000000000025000000000003000000000000320000000000030000000000003500101000000000000089200000000000002760200000000000233802016081500000010000000000000BRBBASACNOR3253
012016072178BBASI19     070BBAS        ON      NM000R$  000000000025500000000003100000000000226000000000024800000000003100000000000000000000000031000044000000000000021600000000000005366900000000000192702016091900000010000000000000BRBBASACNOR3260
012016072178BBASI20     070BBAS  FM    ON      NM000R$  000000000024700000000002470000000000205000000000022200000000002270000000000008000000000000000067000000000000066500000000000014773900000000000197702016091900000010000000000000BRBBASACNOR3259
012016072178BBASI22     070BBAS  FM    ON      NM000R$  000000000012500000000001480000000000115000000000012700000000001370000000000120000000000039900051000000000000071000000000000009062400000000000217702016091900000010000000000000BRBBASACNOR3259
012016072178BBASI23     070BBAS        ON      NM000R$  000000000006800000000000960000000000068000000000008300000000000850000000000084000000000008501637000000000002525900000000000212028300000000000232702016091900000010000000000000BRBBASACNOR3260
012016072178BBASI47     070BBAS        ON      NM000R$  000000000040500000000004050000000000405000000000040500000000004050000000000181000000000000000001000000000000000100000000000000040500000000000172702016091900000010000000000000BRBBASACNOR3259
012016072178BBASI50     070BBAS        ON      NM000R$  000000000018500000000001990000000000173000000000018900000000001970000000000003000000000000000032000000000000028800000000000005455300000000000202702016091900000010000000000000BRBBASACNOR3259
012016072178BBASI51     070BBAS        ON      NM000R$  000000000015800000000001580000000000137000000000014300000000001490000000000006000000000030000003000000000000010600000000000001524800000000000212702016091900000010000000000000BRBBASACNOR3259
012016072178BBASI52     070BBAS  FM    ON      NM000R$  000000000011100000000001110000000000089000000000009400000000000980000000000093000000000010100163000000000000148300000000000014053300000000000227702016091900000010000000000000BRBBASACNOR3260
012016072178BBASI53     070BBAS  FM    ON      NM000R$  000000000005800000000000790000000000058000000000007100000000000730000000000067000000000007800093000000000000151600000000000010864200000000000237702016091900000010000000000000BRBBASACNOR3260
012016072178BBASI55     070BBAS        ON      NM000R$  000000000003500000000000510000000000035000000000004400000000000490000000000049000000000005000047000000000000047000000000000002110500000000000252702016091900000010000000000000BRBBASACNOR3259
012016072178BBASI66     070BBASE       ON      NM000R$  000000000003800000000000430000000000035000000000003800000000000430000000000035000000000000000015000000000000122500000000000004739000000000000260202016091900000010000000000000BRBBASACNOR3259
012016072178BBASI79     070BBASE       ON      NM000R$  000000000022500000000002300000000000225000000000022700000000002300000000000000000000000000000008000000000000007400000000000001683500000000000195202016091900000010000000000000BRBBASACNOR3259
012016072178BBASI82     070BBAS        ON      NM000R$  000000000010800000000001180000000000108000000000010900000000001180000000000001000000000000000008000000000000002800000000000000307600000000000222702016091900000010000000000000BRBBASACNOR3260
012016072178BBASI90     070BBAS  FM    ON      NM000R$  000000000017900000000001790000000000151000000000016200000000001510000000000000000000000055000008000000000000013700000000000002221100000000000207702016091900000010000000000000BRBBASACNOR3260
012016072178BBASI94     070BBASE       ON      NM000R$  000000000007200000000000720000000000062000000000006300000000000620000000000001000000000000000004000000000000014900000000000000949800000000000240202016091900000010000000000000BRBBASACNOR3259
012016072178BBASJ21     070BBAS        ON      NM000R$  000000000023000000000002300000000000230000000000023000000000002300000000000101000000000000000001000000000000000100000000000000023000000000000210002016101700000010000000000000BRBBASACNOR3261
012016072178BBASJ22     070BBAS        ON      NM000R$  000000000015700000000001570000000000157000000000015700000000001570000000000000000000000000000001000000000000001500000000000000235500000000000220002016101700000010000000000000BRBBASACNOR3261
012016072178BBASJ23     070BBAS        ON      NM000R$  000000000010700000000001270000000000107000000000010800000000001100000000000000000000000014000003000000000000001600000000000000173800000000000230002016101700000010000000000000BRBBASACNOR3259
012016072178BBASJ53     070BBAS        ON      NM000R$  000000000009700000000000990000000000097000000000009700000000000990000000000000000000000000000002000000000000004100000000000000398100000000000235002016101700000010000000000000BRBBASACNOR3261
012016072178BBASJ95     070BBAS        ON      NM000R$  000000000007200000000000930000000000072000000000008500000000000900000000000075000000000000000004000000000000000700000000000000059900000000000240002016101700000010000000000000BRBBASACNOR3254
012016072178BBASL27     070BBAS        ON      NM000R$  000000000008300000000000830000000000077000000000008200000000000770000000000000000000000000000003000000000000000600000000000000049200000000000268802016121900000010000000000000BRBBASACNOR3259
012016072178BBASL32     070BBAS        ON      NM000R$  000000000004500000000000450000000000045000000000004500000000000450000000000000000000000006000001000000000000000200000000000000009000000000000318802016121900000010000000000000BRBBASACNOR3259
012016072182BBASM82     080BBASE       ON      NM000R$  000000000030200000000003020000000000295000000000029500000000002950000000000000000000000000000002000000000000012100000000000003570200000000000222502018011500000010000000000000BRBBASACNOR3261
012016072182BBAST16     080BBASE       ON      NM000R$  000000000000400000000000040000000000003000000000000300000000000030000000000004000000000000500004000000000000011100000000000000039400000000000158802016081500000010000000000000BRBBASACNOR3259
012016072182BBAST17     080BBASE       ON      NM000R$  000000000000500000000000080000000000005000000000000600000000000070000000000006000000000000700009000000000000042200000000000000266200000000000168802016081500000010000000000000BRBBASACNOR3259
012016072182BBAST18     080BBASE       ON      NM000R$  000000000001000000000000140000000000010000000000001200000000000130000000000012000000000001400031000000000000039200000000000000490300000000000178802016081500000010000000000000BRBBASACNOR3259
012016072182BBAST19     080BBASE       ON      NM000R$  000000000002200000000000320000000000019000000000002600000000000250000000000024000000000002500248000000000000741400000000000019822000000000000188802016081500000010000000000000BRBBASACNOR3259
012016072182BBAST20     080BBASE FM    ON      NM000R$  000000000004000000000000650000000000035000000000004300000000000460000000000035000000000006900094000000000000196700000000000008477300000000000198802016081500000010000000000000BRBBASACNOR3259
012016072182BBAST21     080BBASE FM    ON      NM000R$  000000000007200000000001090000000000068000000000007900000000000930000000000077000000000010000094000000000000171600000000000013653000000000000208802016081500000010000000000000BRBBASACNOR3259
012016072182BBAST22     080BBASE       ON      NM000R$  000000000016200000000001660000000000161000000000016500000000001610000000000000000000000025000005000000000000004900000000000000809700000000000223802016081500000010000000000000BRBBASACNOR3259
012016072182BBAST23     080BBASE       ON      NM000R$  000000000027800000000002930000000000278000000000028200000000002930000000000000000000000000000008000000000000002600000000000000734700000000000236302016081500000010000000000000BRBBASACNOR3259
012016072182BBAST44     080BBASE       ON      NM000R$  000000000000100000000000010000000000001000000000000100000000000010000000000001000000000000200001000000000000000100000000000000000100000000000143802016081500000010000000000000BRBBASACNOR3261
012016072182BBAST45     080BBASE       ON      NM000R$  000000000000200000000000020000000000002000000000000200000000000020000000000002000000000000600001000000000000000800000000000000001600000000000153802016081500000010000000000000BRBBASACNOR3259
012016072182BBAST46     080BBASE       ON      NM000R$  000000000000400000000000050000000000003000000000000300000000000050000000000001000000000000000003000000000000013700000000000000046200000000000163802016081500000010000000000000BRBBASACNOR3259
012016072182BBAST47     080BBASE       ON      NM000R$  000000000000700000000000070000000000007000000000000700000000000070000000000004000000000000000002000000000000002000000000000000014000000000000173802016081500000010000000000000BRBBASACNOR3259
012016072182BBAST48     080BBASE       ON      NM000R$  000000000001500000000000200000000000015000000000001500000000000200000000000007000000000002400018000000000000044100000000000000673600000000000183802016081500000010000000000000BRBBASACNOR3259
012016072182BBAST49     080BBASE FM    ON      NM000R$  000000000002500000000000380000000000025000000000003200000000000350000000000000000000000008000012000000000000024300000000000000781600000000000193802016081500000010000000000000BRBBASACNOR3259
012016072182BBAST50     080BBASE       ON      NM000R$  000000000005700000000000840000000000050000000000006700000000000630000000000035000000000006900036000000000000059700000000000004023100000000000203802016081500000010000000000000BRBBASACNOR3259
012016072182BBAST51     080BBASE       ON      NM000R$  000000000008700000000001300000000000077000000000008800000000001000000000000076000000000000000029000000000000038500000000000003414100000000000211302016081500000010000000000000BRBBASACNOR3259
012016072182BBAST60     080BBASE       ON      NM000R$  000000000007500000000000750000000000062000000000006800000000000620000000000000000000000011000003000000000000003000000000000000205600000000000201302016081500000010000000000000BRBBASACNOR3259
012016072182BBAST66     080BBASE       ON      NM000R$  000000000000600000000000060000000000006000000000000600000000000060000000000000000000000000000001000000000000000100000000000000000600000000000161302016081500000010000000000000BRBBASACNOR3259
012016072182BBAST69     080BBASE       ON      NM000R$  000000000003300000000000350000000000029000000000003300000000000290000000000000000000000000000020000000000000120000000000000003964500000000000191302016081500000010000000000000BRBBASACNOR3259
012016072182BBAST79     080BBASE       ON      NM000R$  000000000002500000000000250000000000025000000000002500000000000250000000000000000000000015000002000000000000006000000000000000150000000000000186302016081500000010000000000000BRBBASACNOR3253
012016072182BBAST80     080BBASE       ON      NM000R$  000000000006100000000000870000000000060000000000007100000000000780000000000054000000000009000038000000000000055700000000000003972000000000000206302016081500000010000000000000BRBBASACNOR3259
012016072182BBAST89     080BBASE       ON      NM000R$  000000000003600000000000550000000000030000000000003900000000000390000000000038000000000004200046000000000000096500000000000003802800000000000196302016081500000010000000000000BRBBASACNOR3259
012016072182BBASU18     080BBASE       ON      NM000R$  000000000003500000000000400000000000035000000000003900000000000400000000000008000000000000000002000000000000009000000000000000355000000000000177702016091900000010000000000000BRBBASACNOR3259
012016072182BBASU19     080BBASE FM    ON      NM000R$  000000000004700000000000750000000000047000000000005700000000000680000000000000000000000000000013000000000000015300000000000000881700000000000192702016091900000010000000000000BRBBASACNOR3260
012016072182BBASU22     080BBASE FM    ON      NM000R$  000000000019200000000001920000000000192000000000019200000000001920000000000000000000000000000001000000000000002000000000000000384000000000000217702016091900000010000000000000BRBBASACNOR3259
012016072182BBASU48     080BBASE       ON      NM000R$  000000000003300000000000480000000000033000000000004700000000000470000000000015000000000009000004000000000000155100000000000007341000000000000182702016091900000010000000000000BRBBASACNOR3259
012016072182BBASU50     080BBASE       ON      NM000R$  000000000012500000000001250000000000110000000000012000000000001100000000000000000000000000000002000000000000003000000000000000360000000000000202702016091900000010000000000000BRBBASACNOR3259
012016072182BBASU51     080BBASE       ON      NM000R$  000000000012400000000001400000000000124000000000013900000000001400000000000000000000000000000003000000000000005100000000000000712400000000000212702016091900000010000000000000BRBBASACNOR3259
012016072182BBASU69     080BBASE       ON      NM000R$  000000000004700000000000600000000000047000000000005000000000000600000000000000000000000000000003000000000000001800000000000000090000000000000190202016091900000010000000000000BRBBASACNOR3260
012016072182BBASU79     080BBASE       ON      NM000R$  000000000006100000000000620000000000061000000000006100000000000610000000000000000000000000000004000000000000004500000000000000275500000000000195202016091900000010000000000000BRBBASACNOR3259
012016072182BBASU80     080BBASE       ON      NM000R$  000000000011100000000001110000000000111000000000011100000000001110000000000000000000000000000001000000000000000900000000000000099900000000000200202016091900000010000000000000BRBBASACNOR3259
012016072182BBASU82     080BBASE       ON      NM000R$  000000000022700000000002270000000000227000000000022700000000002270000000000000000000000000000001000000000000000100000000000000022700000000000222702016091900000010000000000000BRBBASACNOR3260
012016072182BBASU90     080BBASE FM    ON      NM000R$  000000000009400000000001550000000000094000000000014700000000001550000000000000000000000000000004000000000000002300000000000000338600000000000207702016091900000010000000000000BRBBASACNOR3260
012016072182BBASV78     080BBASE       ON      NM000R$  000000000005600000000000560000000000056000000000005600000000000560000000000000000000000000000001000000000000001000000000000000056000000000000182502016101700000010000000000000BRBBASACNOR3259
012016072102BBDC3       010BRADESCO    ON      N1   R$  000000000297000000000029900000000002918000000000296100000000029650000000002958000000000296704805000000000001294800000000003834419800000000000000009999123100000010000000000000BRBBDCACNOR1651
012016072196BBDC3F      020BRADESCO    ON      N1   R$  000000000295100000000029770000000002901000000000295200000000029770000000002900000000000297700049000000000000001388000000000004098107000000000000009999123100000010000000000000BRBBDCACNOR1651
012016072102BBDC4       010BRADESCO    PN      N1   R$  000000000290000000000029170000000002833000000000287900000000028810000000002881000000000288323082000000000011991800000000034525407400000000000000009999123100000010000000000000BRBBDCACNPR8651
012016072196BBDC4F      020BRADESCO    PN      N1   R$  000000000290000000000029120000000002838000000000288300000000028900000000002868000000000289000207000000000000006013000000000017337528000000000000009999123100000010000000000000BRBBDCACNPR8651
012016072162BBDC4T      030BRADESCO    PN      N1032R$  000000000289100000000028920000000002891000000000289100000000028920000000000000000000000000000004000000000000000400000000000001156584000000000000009999123100000010000000000000BRBBDCACNPR8651
012016072162BBDC4T      030BRADESCO    PN      N1060R$  000000000295700000000029580000000002940000000000294900000000029410000000000000000000000000000004000000000000000400000000000001179637000000000000009999123100000010000000000000BRBBDCACNPR8651
012016072178BBDCG18     070BBDCE       PN      N1000R$  000000000021300000000002130000000000213000000000021300000000002130000000000012000000000000000001000000000000020000000000000004260000000000000349902017071700000010000000000000BRBBDCACNPR8646
012016072178BBDCH1      070BBDCE       PN      N1000R$  000000000043500000000004350000000000435000000000043500000000004350000000000000000000000000000001000000000000000100000000000000043500000000000246802016081500000010000000000000BRBBDCACNPR8620
012016072178BBDCH10     070BBDC        PN      N1000R$  000000000025000000000002500000000000228000000000022800000000002280000000000220000000000000000007000000000000012500000000000002861000000000000269202016081500000010000000000000BRBBDCACNPR8631
012016072178BBDCH11     070BBDC        PN      N1000R$  000000000019800000000001980000000000195000000000019600000000001970000000000150000000000022000111000000000000012000000000000002353700000000000273702016081500000010000000000000BRBBDCACNPR8631
012016072178BBDCH15     070BBDC        PN      N1000R$  000000000045300000000004530000000000453000000000045300000000004530000000000000000000000000000001000000000000000100000000000000045300000000000244902016081500000010000000000000BRBBDCACNPR8620
012016072178BBDCH17     070BBDC        PN      N1000R$  000000000030000000000003000000000000288000000000029400000000002880000000000000000000000000000012000000000000001200000000000000353200000000000260102016081500000010000000000000BRBBDCACNPR8620
012016072178BBDCH3      070BBDCE       PN      N1000R$  000000000040000000000004000000000000383000000000039300000000003920000000000000000000000000000003000000000000001300000000000000510900000000000250502016081500000010000000000000BRBBDCACNPR8620
012016072178BBDCH30     070BBDCE       PN      N1000R$  000000000019200000000001920000000000185000000000018800000000001850000000000042000000000000000002000000000000004200000000000000791700000000000271402016081500000010000000000000BRBBDCACNPR8646
012016072178BBDCH31     070BBDC  FM    PN      N1000R$  000000000002300000000000250000000000018000000000002000000000000250000000000017000000000006300080000000000000139700000000000002921500000000000315802016081500000010000000000000BRBBDCACNPR8648
012016072178BBDCH33     070BBDC  FM    PN      N1000R$  000000000016100000000001840000000000138000000000015000000000001600000000000137000000000000000056000000000000103800000000000015616400000000000278702016081500000010000000000000BRBBDCACNPR8649
012016072178BBDCH73     070BBDCE       PN      N1000R$  000000000004600000000000510000000000038000000000004400000000000480000000000048000000000000000071000000000000071880000000000003202220000000000303302016081500000010000000000000BRBBDCACNPR8646
012016072178BBDCH79     070BBDCE       PN      N1000R$  000000000027000000000002700000000000227000000000023800000000002370000000000087000000000000000046000000000000032700000000000007798500000000000266902016081500000010000000000000BRBBDCACNPR8645
012016072178BBDCH84     070BBDC        PN      N1000R$  000000000000200000000000020000000000002000000000000200000000000020000000000001000000000000700001000000000000003000000000000000006000000000000373702016081500000010000000000000BRBBDCACNPR8620
012016072178BBDCH88     070BBDCE       PN      N1000R$  000000000011600000000001190000000000101000000000010900000000001170000000000108000000000000000024000000000000065900000000000007214800000000000286202016081500000010000000000000BRBBDCACNPR8648
012016072178BBDCH89     070BBDC  FM    PN      N1000R$  000000000010500000000001150000000000085000000000010600000000001150000000000077000000000000000017000000000000019200000000000002053100000000000288702016081500000010000000000000BRBBDCACNPR8651
012016072178BBDCH90     070BBDC  FM    PN      N1000R$  000000000005600000000000700000000000051000000000005700000000000650000000000051000000000000000056000000000000062300000000000003604500000000000298702016081500000010000000000000BRBBDCACNPR8651
012016072178BBDCH91     070BBDCE       PN      N1000R$  000000000003000000000000300000000000030000000000003000000000000300000000000023000000000003500001000000000000001000000000000000030000000000000313302016081500000010000000000000BRBBDCACNPR8647
012016072178BBDCH97     070BBDC        PN      N1000R$  000000000007400000000000840000000000069000000000007400000000000840000000000000000000000000000032000000000000029900000000000002238600000000000293702016081500000010000000000000BRBBDCACNPR8651
012016072178BBDCI1      070BBDC  FM    PN      N1000R$  000000000022800000000002330000000000228000000000023000000000002330000000000000000000000000000006000000000000001200000000000000276600000000000277402016091900000010000000000000BRBBDCACNPR8637
012016072178BBDCI32     070BBDC        PN      N1000R$  000000000015700000000001620000000000150000000000015200000000001530000000000150000000000000000007000000000000009000000000000001371750000000000291102016091900000010000000000000BRBBDCACNPR8646
012016072178BBDCI36     070BBDC        PN      N1000R$  000000000020000000000002000000000000200000000000020000000000002000000000000103000000000000000001000000000000000760000000000000152000000000000282002016091900000010000000000000BRBBDCACNPR8637
012016072178BBDCI46     070BBDC  FM    PN      N1000R$  000000000011600000000001180000000000107000000000011500000000001140000000000000000000000000000042000000000000042800000000000004943800000000000301102016091900000010000000000000BRBBDCACNPR8651
012016072178BBDCI52     070BBDC  FM    PN      N1000R$  000000000007800000000000820000000000078000000000007900000000000800000000000071000000000000000017000000000000015600000000000001241800000000000311102016091900000010000000000000BRBBDCACNPR8651
012016072178BBDCI55     070BBDC  FM    PN      N1000R$  000000000006300000000000690000000000063000000000006300000000000670000000000000000000000000000056000000000000183200000000000011691900000000000316102016091900000010000000000000BRBBDCACNPR8651
012016072178BBDCI67     070BBDCE       PN      N1000R$  000000000003900000000000470000000000037000000000004200000000000470000000000000000000000000000021000000000000023040000000000000985000000000000329702016091900000010000000000000BRBBDCACNPR8632
012016072178BBDCI68     070BBDC  FM    PN      N1000R$  000000000017700000000001850000000000162000000000017300000000001820000000000000000000000000000059000000000000037800000000000006548400000000000287002016091900000010000000000000BRBBDCACNPR8651
012016072178BBDCI80     070BBDCE       PN      N1000R$  000000000005400000000000580000000000054000000000005400000000000570000000000047000000000000000012000000000000029120000000000001599880000000000320602016091900000010000000000000BRBBDCACNPR8632
012016072178BBDCI99     070BBDCE       ON      N1000R$  000000000009900000000001170000000000099000000000010700000000001170000000000001000000000000000005000000000000000110000000000000011790000000000299902016091900000010000000000000BRBBDCACNOR1637
012016072178BBDCJ78     070BBDC        PN      N1000R$  000000000038500000000003850000000000385000000000038500000000003850000000000000000000000000000001000000000000026200000000000010087000000000000257202016101700000010000000000000BRBBDCACNPR8638
012016072178BBDCJ89     070BBDCE       PN      N1000R$  000000000019100000000001920000000000187000000000019100000000001920000000000000000000000000000004000000000000300100000000000057378700000000000291502016101700000010000000000000BRBBDCACNPR8651
012016072178BBDCK4      070BBDCE       PN      N1000R$  000000000020000000000002100000000000200000000000020900000000002100000000000000000000000000000002000000000000004100000000000000860000000000000387502017112100000010000000000000BRBBDCACNPR8651
012016072178BBDCK78     070BBDCE       ON      N1000R$  000000000019000000000001900000000000153000000000015300000000001530000000000000000000000000000002000000000000020100000000000003079000000000000387502017112100000010000000000000BRBBDCACNOR1651
012016072178BBDCK8      070BBDCE       PN      N1000R$  000000000019800000000001990000000000198000000000019800000000001990000000000000000000000000000002000000000000200000000000000039687900000000000377502017112100000010000000000000BRBBDCACNPR8651
012016072182BBDCS30     080BBDCE       PN      N1000R$  000000000020000000000002000000000000200000000000020000000000002000000000000000000000000000000001000000000000020000000000000004000000000000000279402017071700000010000000000000BRBBDCACNPR8646
012016072182BBDCT10     080BBDCE FM    PN      N1000R$  000000000002400000000000340000000000024000000000002600000000000300000000000000000000000005000034000000000000095450000000000002555050000000000269202016081500000010000000000000BRBBDCACNPR8631
012016072182BBDCT11     080BBDCE       PN      N1000R$  000000000004000000000000480000000000040000000000004500000000000400000000000000000000000000000012000000000000115000000000000005250200000000000273702016081500000010000000000000BRBBDCACNPR8631
012016072182BBDCT3      080BBDCE       PN      N1000R$  000000000001000000000000100000000000010000000000001000000000000100000000000000000000000000000001000000000000010000000000000000100000000000000250502016081500000010000000000000BRBBDCACNPR8620
012016072182BBDCT30     080BBDCE       PN      N1000R$  000000000003000000000000410000000000029000000000003200000000000330000000000001000000000004000026000000000000107390000000000003536130000000000271402016081500000010000000000000BRBBDCACNPR8646
012016072182BBDCT33     080BBDCE FM    PN      N1000R$  000000000004600000000000650000000000037000000000005100000000000520000000000000000000000020000047000000000000077900000000000004040200000000000278702016081500000010000000000000BRBBDCACNPR8649
012016072182BBDCT79     080BBDCE       PN      N1000R$  000000000002000000000000290000000000020000000000002300000000000230000000000000000000000011900029000000000000169560000000000003996560000000000266902016081500000010000000000000BRBBDCACNPR8645
012016072182BBDCT88     080BBDCE       PN      N1000R$  000000000007400000000000750000000000070000000000007300000000000750000000000046000000000009500003000000000000004000000000000000294000000000000286202016081500000010000000000000BRBBDCACNPR8648
012016072182BBDCT90     080BBDCE FM    PN      N1000R$  000000000016800000000001690000000000168000000000016800000000001690000000000000000000000000000002000000000000000200000000000000033700000000000298702016081500000010000000000000BRBBDCACNPR8651
012016072182BBDCT97     080BBDCE       PN      N1000R$  000000000012000000000001200000000000120000000000012000000000001200000000000000000000000000000001000000000000002000000000000000240000000000000293702016081500000010000000000000BRBBDCACNPR8651
012016072182BBDCU1      080BBDCE FM    PN      N1000R$  000000000007700000000000770000000000077000000000007700000000000770000000000000000000000014900002000000000000134800000000000010379600000000000277402016091900000010000000000000BRBBDCACNPR8637
012016072182BBDCU32     080BBDCE       PN      N1000R$  000000000012900000000001290000000000129000000000012900000000001290000000000000000000000000000001000000000000000400000000000000051600000000000291102016091900000010000000000000BRBBDCACNPR8646
012016072182BBDCU45     080BBDCE       PN      N1000R$  000000000002900000000000450000000000029000000000003000000000000400000000000000000000000004600016000000000000155800000000000004703700000000000259502016091900000010000000000000BRBBDCACNPR8651
012016072182BBDCU46     080BBDCE FM    PN      N1000R$  000000000021100000000002150000000000210000000000021100000000002150000000000000000000000000000006000000000000012000000000000002534000000000000301102016091900000010000000000000BRBBDCACNPR8651
012016072182BBDCU77     080BBDCE FM    PN      N1000R$  000000000006400000000000770000000000064000000000007300000000000770000000000000000000000007800005000000000000002500000000000000183500000000000272002016091900000010000000000000BRBBDCACNPR8649
012016072182BBDCW11     080BBDCE       PN      N1000R$  000000000005700000000000700000000000055000000000005500000000000700000000000000000000000000000003000000000000204100000000000011285700000000000230002017112100000010000000000000BRBBDCACNPR8651
012016072182BBDCW12     080BBDCE       PN      N1000R$  000000000023600000000002820000000000236000000000027700000000002750000000000000000000000000000003000000000000008100000000000002251600000000000290002017112100000010000000000000BRBBDCACNPR8651
012016072182BBDCW7      080BBDCE       PN      N1000R$  000000000021000000000002520000000000210000000000025000000000002520000000000000000000000000000003000000000000207100000000000051934200000000000287502017112100000010000000000000BRBBDCACNPR8651
012016072182BBDCW83     080BBDCE       ON      N1000R$  000000000003200000000000320000000000031000000000003100000000000310000000000000000000000000000002000000000000020000000000000000629000000000000235002017112100000010000000000000BRBBDCACNOR1651
012016072182BBDCW99     080BBDCE       ON      N1000R$  000000000018200000000001820000000000182000000000018200000000001820000000000000000000000000000001000000000000020000000000000003640000000000000295002017112100000010000000000000BRBBDCACNOR1651
012016072112BBFI11B     010FII BB PROGRCI      MB   R$  000000023900000000002400000000000238500000000023903300000002390000000000238600000000024100000011000000000000000065000000000015537200000000000000009999123100000010000000000000BRBBFICTF006232
012016072112BBPO11      010FII BB PRGIICI           R$  000000001153900000000119890000000011520000000001177800000000117980000000011790000000001179800554000000000000024965000000000294055668000000000000009999123100000010000000000000BRBBPOCTF003144
012016072112BBRC11      010FII BB CORP CI           R$  000000001049700000000105000000000010449000000001049100000000105000000000010500000000001060000020000000000000002368000000000024843201000000000000009999123100000010000000000000BRBBRCCTF004158
012016072102BBRK3       010BR BROKERS  ON      NM   R$  000000000017300000000001830000000000173000000000017800000000001780000000000178000000000017900160000000000000055700000000000009929000000000000000009999123100000010000000000000BRBBRKACNOR4110
012016072196BBRK3F      020BR BROKERS  ON      NM   R$  000000000017400000000001740000000000174000000000017400000000001740000000000176000000000018000001000000000000000025000000000000004350000000000000009999123100000010000000000000BRBBRKACNOR4110
012016072114BBSD11      010BB ETF SP DVCI           R$  000000000405800000000040580000000004058000000000405800000000040580000000000000000000000000000001000000000000000500000000000002029000000000000000009999123100000010000000000000BRBBSDCTF000100
012016072102BBSE3       010BBSEGURIDADEON      NM   R$  000000000300000000000030200000000002954000000000298100000000029670000000002961000000000296708269000000000002551400000000007606656800000000000000009999123100000010000000000000BRBBSEACNOR5106
012016072196BBSE3F      020BBSEGURIDADEON      NM   R$  000000000300600000000030300000000002953000000000297800000000029650000000002956000000000296500155000000000000004131000000000012304117000000000000009999123100000010000000000000BRBBSEACNOR5106
012016072162BBSE3T      030BBSEGURIDADEON      NM032R$  000000000303900000000030400000000003039000000000303900000000030400000000000000000000000000000002000000000000000600000000000001823642000000000000009999123100000010000000000000BRBBSEACNOR5106
012016072178BBSEA84     070BBSEE       ON      NM000R$  000000000015000000000001500000000000150000000000015000000000001500000000000000000000000000000001000000000000001000000000000000150000000000000334202017011600000010000000000000BRBBSEACNOR5105
012016072178BBSEH29     070BBSE        ON      NM000R$  000000000013900000000001390000000000139000000000013900000000001390000000000000000000000017700001000000000000002000000000000000278000000000000292902016081500000010000000000000BRBBSEACNOR5106
012016072178BBSEH30     070BBSE        ON      NM000R$  000000000006900000000000810000000000064000000000006700000000000810000000000000000000000008300013000000000000038800000000000002616400000000000302902016081500000010000000000000BRBBSEACNOR5106
012016072178BBSEH31     070BBSE        ON      NM000R$  000000000003800000000000380000000000037000000000003700000000000370000000000000000000000003700005000000000000015200000000000000562600000000000312902016081500000010000000000000BRBBSEACNOR5106
012016072178BBSEH32     070BBSE        ON      NM000R$  000000000001700000000000170000000000017000000000001700000000000170000000000000000000000000000001000000000000000700000000000000011900000000000322902016081500000010000000000000BRBBSEACNOR5106
012016072178BBSEH59     070BBSE  FM    ON      NM000R$  000000000009400000000000940000000000094000000000009400000000000940000000000000000000000000000001000000000000002900000000000000272600000000000297902016081500000010000000000000BRBBSEACNOR5106
012016072178BBSEH60     070BBSE  FM    ON      NM000R$  000000000006000000000000600000000000048000000000005000000000000480000000000000000000000000000007000000000000026800000000000001343300000000000307902016081500000010000000000000BRBBSEACNOR5106
012016072178BBSEI58     070BBSE  FM    ON      NM000R$  000000000020600000000002060000000000206000000000020600000000002060000000000000000000000000000003000000000000006000000000000001236000000000000287902016091900000010000000000000BRBBSEACNOR5106
012016072178BBSEJ32     070BBSE        ON      NM000R$  000000000010100000000001010000000000101000000000010100000000001010000000000100000000000000000001000000000000025000000000000002525000000000000320002016101700000010000000000000BRBBSEACNOR5106
012016072178BBSEJ33     070BBSE        ON      NM000R$  000000000006700000000000670000000000067000000000006700000000000670000000000066000000000000000001000000000000025000000000000001675000000000000330002016101700000010000000000000BRBBSEACNOR5106
012016072178BBSEJ77     070BBSEE       ON      NM000R$  000000000031400000000003140000000000314000000000031400000000003140000000000000000000000000000001000000000000021300000000000006688200000000000277502016101700000010000000000000BRBBSEACNOR5106
012016072182BBSEU58     080BBSEE FM    ON      NM000R$  000000000005700000000000570000000000057000000000005700000000000570000000000000000000000000000001000000000000000200000000000000011400000000000287902016091900000010000000000000BRBBSEACNOR5106
012016072182BBSEV30     080BBSEE       ON      NM000R$  000000000013000000000001300000000000130000000000013000000000001300000000000129000000000000000001000000000000025000000000000003250000000000000300002016101700000010000000000000BRBBSEACNOR5106
012016072182BBSEV59     080BBSEE       ON      NM000R$  000000000010900000000001090000000000109000000000010900000000001090000000000108000000000000000001000000000000025000000000000002725000000000000295002016101700000010000000000000BRBBSEACNOR5106
012016072182BBSEV77     080BBSEE       ON      NM000R$  000000000005700000000000570000000000057000000000005700000000000570000000000056000000000000000001000000000000025000000000000001425000000000000277502016101700000010000000000000BRBBSEACNOR5106
012016072102BBTG11      010BTG PACTUAL UNT          R$  000000000169900000000017030000000001658000000000167700000000016750000000001675000000000167801361000000000002507700000000004207100200000000000000009999123100000010000000000000BRBBTGUNT007114
012016072196BBTG11F     020BTG PACTUAL UNT          R$  000000000169300000000016930000000001664000000000167500000000016810000000001651000000000169900010000000000000000268000000000000449133000000000000009999123100000010000000000000BRBBTGUNT007114
012016072162BBTG11T     030BTG PACTUAL UNT       180R$  000000000179800000000017990000000001798000000000179800000000017990000000000000000000000000000004000000000001292000000000002323819753000000000000009999123100000010000000000000BRBBTGUNT007114
012016072112BBVJ11      010FII C JARDIMCI           R$  000000000548000000000055000000000005350000000000536800000000053500000000005350000000000544000015000000000000001650000000000008857793000000000000009999123100000010000000000000BRBBVJCTF001167
012016072112BCFF11B     010FII BC FFII CI      MB   R$  000000000700900000000070090000000006901000000000697000000000069940000000006910000000000699000048000000000000008414000000000058647280000000000000009999123100000010000000000000BRBCFFCTF000176
012016072112BCIA11      010FII BCIA    CI           R$  000000001020000000000102000000000010000000000001013400000000100000000000010000000000001020000004000000000000000236000000000002391800000000000000009999123100000010000000000000BRBCIACTF005113
012016072112BCRI11      010FII BEES CRICI           R$  000000001028000000000102800000000010265000000001027600000000102800000000010184000000001028000006000000000000000188000000000001931890000000000000009999123100000010000000000000BRBCRICTF009112
012016072102BEEF3       010MINERVA     ON      NM   R$  000000000089000000000009600000000000890000000000092600000000009500000000000949000000000095007386000000000002141000000000001984265000000000000000009999123100000010000000000000BRBEEFACNOR6106
012016072196BEEF3F      020MINERVA     ON      NM   R$  000000000091200000000011930000000000912000000000094300000000009510000000000920000000000097300050000000000000001183000000000001116739000000000000009999123100000010000000000000BRBEEFACNOR6106
012016072162BEEF3T      030MINERVA     ON      NM032R$  000000000093000000000009310000000000904000000000092500000000009050000000000000000000000000000008000000000000027600000000000025549754000000000000009999123100000010000000000000BRBEEFACNOR6106
012016072102BEES3       010BANESTES    ON  EJ       R$  000000000024800000000002490000000000238000000000024400000000002400000000000239000000000024000020000000000000015000000000000003669600000000000000009999123100000010000000000000BRBEESACNOR9284
012016072196BEES3F      020BANESTES    ON  EJ       R$  000000000024000000000002400000000000240000000000024000000000002400000000000242000000000024800001000000000000000007000000000000001680000000000000009999123100000010000000000000BRBEESACNOR9284
012016072102BEES4       010BANESTES    PN  EJ       R$  000000000025000000000002580000000000243000000000024900000000002430000000000243000000000025700005000000000000001200000000000000299300000000000000009999123100000010000000000000BRBEESACNPR6209
012016072196BERK34F     020BERKSHIRE   DRN          R$  000000004730600000000473060000000047306000000004730600000000473060000000000100000000000000000001000000000000000057000000000002696442000000000000009999123100000010000000000000BRBERKBDR002100
012016072102BGIP4       010BANESE      PN           R$  000000000130500000000013050000000001305000000000130500000000013050000000001260000000000137900001000000000000000100000000000000130500000000000000009999123100000010000000000000BRBGIPACNPR8186
012016072102BIIB34      010BIOGEN      DRN          R$  000000001507500000000153290000000015075000000001508800000000153290000000000000000000000000000002000000000000005500000000000082988700000000000000009999123100000010000000000000BRBIIBBDR001100
012016072196BIIB34F     020BIOGEN      DRN          R$  000000001534700000000153470000000015347000000001534700000000153470000000000000000000000000000001000000000000000096000000000001473312000000000000009999123100000010000000000000BRBIIBBDR001100
012016072102BLAK34      010BLACKROCK   DRN          R$  000000001962000000000196200000000019620000000001962000000000196200000000000000000000002285100002000000000000002700000000000052974000000000000000009999123100000010000000000000BRBLAKBDR003101
012016072102BMEB4       010MERC BRASIL PN           R$  000000000052500000000005250000000000525000000000052500000000005250000000000522000000000053000001000000000000001500000000000000787500000000000000009999123100000010000000000000BRBMEBACNPR5195
012016072102BMIN4       010MERC INVEST PN           R$  000000000003100000000000310000000000030000000000003000000000000300000000000029000000000003000009000000000000029000000000000000876000000000000000009999123100000010000000000000BRBMINACNPR1165
012016072112BMLC11B     010FII BMBRC LCCI      MB   R$  000000000864100000000088000000000008640000000000864100000000086400000000008640000000000880000008000000000000000263000000000002272600000000000000009999123100000010000000000000BRBMLCCTF004153
012016072102BMTO3       010BRASMOTOR   ON           R$  000000000071000000000007100000000000710000000000071000000000007100000000000702000000000072000001000000000000000600000000000000426000000000000000009999123100000010000000000000BRBMTOACNOR9186
012016072102BMTO4       010BRASMOTOR   PN           R$  000000000070700000000007120000000000706000000000070600000000007120000000000706000000000071200017000000000000018200000000000012860300000000000000009999123100000010000000000000BRBMTOACNPR6071
012016072102BMYB34      010BRISTOLMYERSDRN          R$  000000002469000000000246900000000024690000000002469000000000246900000000000000000000000000000001000000000000003600000000000088884000000000000000009999123100000010000000000000BRBMYBBDR000111
012016072102BNBR3       010NORD BRASIL ON           R$  000000000230000000000023000000000002300000000000230000000000023000000000002201000000000248000001000000000000000200000000000000460000000000000000009999123100000010000000000000BRBNBRACNOR8192
012016072102BOAC34      010BANK AMERICADRN          R$  000000000466500000000046650000000004665000000000466500000000046650000000004622000000000471900002000000000000001500000000000006997500000000000000009999123100000010000000000000BRBOACBDR004123
012016072196BOAC34F     020BANK AMERICADRN          R$  000000000466500000000046650000000004665000000000466500000000046650000000004400000000000000000001000000000000000051000000000000237915000000000000009999123100000010000000000000BRBOACBDR004123
012016072102BOBR4       010BOMBRIL     PN           R$  000000000016000000000001600000000000160000000000016000000000001600000000000156000000000016000001000000000000000100000000000000016000000000000000009999123100000010000000000000BRBOBRACNPR3128
012016072114BOVA11      010ISHARES BOVACI           R$  000000000549500000000055200000000005452000000000548500000000054930000000005493000000000549919169000000000001872030000000010269499640000000000000009999123100000010000000000000BRBOVACTF003102
012016072196BOVA11F     020ISHARES BOVACI           R$  000000000549000000000055040000000005400000000000548700000000054000000000005300000000000540000020000000000000000085000000000000466463000000000000009999123100000010000000000000BRBOVACTF003102
012016072178BOVAH49     070BOVA        CI        000R$  000000000065400000000006540000000000645000000000065000000000006450000000000000000000000000000003000000000000003000000000000001952000000000000490002016081500000010000000000000BRBOVACTF003102
012016072178BOVAH50     070BOVA        CI        000R$  000000000052900000000005290000000000515000000000051900000000005150000000000000000000000000000003000000000000003000000000000001559000000000000500002016081500000010000000000000BRBOVACTF003102
012016072178BOVAH52     070BOVA        CI        000R$  000000000034100000000003410000000000340000000000034000000000003400000000000000000000000000000004000000000000004000000000000001361000000000000520002016081500000010000000000000BRBOVACTF003102
012016072178BOVAH53     070BOVA        CI        000R$  000000000026000000000002600000000000246000000000025500000000002470000000000247000000000000000004000000000000001500000000000000382700000000000530002016081500000010000000000000BRBOVACTF003102
012016072178BOVAH54     070BOVA  FM    CI        000R$  000000000020000000000002000000000000171000000000018700000000001750000000000173000000000000000015000000000000001800000000000000336600000000000540002016081500000010000000000000BRBOVACTF003102
012016072178BOVAH55     070BOVA  FM    CI        000R$  000000000011200000000001280000000000112000000000011900000000001280000000000000000000000014900005000000000000000890000000000000106270000000000550002016081500000010000000000000BRBOVACTF003102
012016072178BOVAH56     070BOVA  FM    CI        000R$  000000000009000000000000900000000000073000000000007700000000000790000000000000000000000008400013000000000000010210000000000000793920000000000560002016081500000010000000000000BRBOVACTF003102
012016072178BOVAH57     070BOVA  FM    CI        000R$  000000000005000000000000500000000000039000000000004400000000000390000000000000000000000009000002000000000000005000000000000000222500000000000570002016081500000010000000000000BRBOVACTF003102
012016072178BOVAI51     070BOVA        CI        000R$  000000000054100000000005410000000000501000000000051900000000005020000000000000000000000000000006000000000000006000000000000003118000000000000510002016091900000010000000000000BRBOVACTF003102
012016072178BOVAI52     070BOVA        CI        000R$  000000000041800000000004240000000000418000000000042000000000004200000000000000000000000000000003000000000000003000000000000001262000000000000520002016091900000010000000000000BRBOVACTF003102
012016072178BOVAI53     070BOVA        CI        000R$  000000000034600000000003460000000000346000000000034600000000003460000000000000000000000000000002000000000000002000000000000000692000000000000530002016091900000010000000000000BRBOVACTF003102
012016072178BOVAI54     070BOVA  FM    CI        000R$  000000000027300000000002730000000000273000000000027300000000002730000000000000000000000000000001000000000000000300000000000000081900000000000540002016091900000010000000000000BRBOVACTF003102
012016072178BOVAI55     070BOVA  FM    CI        000R$  000000000023200000000002320000000000217000000000022900000000002320000000000000000000000000000004000000000000003400000000000000779300000000000550002016091900000010000000000000BRBOVACTF003102
012016072178BOVAI58     070BOVA  FM    CI        000R$  000000000009800000000000990000000000082000000000008900000000000920000000000000000000000009200009000000000000000900000000000000080500000000000580002016091900000010000000000000BRBOVACTF003102
012016072178BOVAL59     070BOVA        CI        000R$  000000000018000000000001800000000000180000000000018000000000001800000000000000000000000000000002000000000000008910000000000001603800000000000590002016121900000010000000000000BRBOVACTF003102
012016072182BOVAT51     080BOVAE       CI        000R$  000000000000900000000000090000000000009000000000000900000000000090000000000000000000000000000002000000000000002700000000000000024300000000000510002016081500000010000000000000BRBOVACTF003102
012016072182BOVAT52     080BOVAE       CI        000R$  000000000002700000000000270000000000027000000000002700000000000270000000000020000000000000000001000000000000000200000000000000005400000000000520002016081500000010000000000000BRBOVACTF003102
012016072182BOVAT53     080BOVAE FM    CI        000R$  000000000003300000000000420000000000033000000000003800000000000420000000000000000000000000000006000000000000010500000000000000402500000000000530002016081500000010000000000000BRBOVACTF003102
012016072182BOVAT54     080BOVAE FM    CI        000R$  000000000006400000000000730000000000055000000000006600000000000730000000000000000000000000000007000000000000012000000000000000800200000000000540002016081500000010000000000000BRBOVACTF003102
012016072182BOVAT55     080BOVAE FM    CI        000R$  000000000009900000000001080000000000088000000000009700000000000980000000000000000000000010000023000000000000014550000000000001413400000000000550002016081500000010000000000000BRBOVACTF003102
012016072182BOVAT56     080BOVAE FM    CI        000R$  000000000015000000000001500000000000150000000000015000000000001500000000000000000000000030000001000000000000001000000000000000150000000000000560002016081500000010000000000000BRBOVACTF003102
012016072182BOVAU51     080BOVAE       CI        000R$  000000000004100000000000410000000000041000000000004100000000000410000000000000000000000000000001000000000000002000000000000000082000000000000510002016091900000010000000000000BRBOVACTF003102
012016072182BOVAX53     080BOVAE       CI        000R$  000000000017000000000001700000000000170000000000017000000000001700000000000000000000000000000002000000000000000900000000000000153000000000000530002016121900000010000000000000BRBOVACTF003102
012016072102BOXP34      010BOSTON PROP DRN          R$  000000000445500000000044850000000004455000000000447000000000044850000000004470000000000453400002000000000000000400000000000001788000000000000000009999123100000010000000000000BRBOXPBDR008104
012016072196BOXP34F     020BOSTON PROP DRN          R$  000000000445500000000044850000000004455000000000447000000000044850000000000000000000000000000002000000000000000146000000000000652620000000000000009999123100000010000000000000BRBOXPBDR008104
012016072102BPAN4       010BANCO PAN   PN      N1   R$  000000000014300000000001480000000000142000000000014500000000001480000000000147000000000014800021000000000000042600000000000006203200000000000000009999123100000010000000000000BRBPANACNPR1104
012016072162BPAN4T      030BANCO PAN   PN      N1300R$  000000000016100000000001630000000000161000000000016200000000001630000000000000000000000000000004000000000000008000000000000001301195000000000000009999123100000010000000000000BRBPANACNPR1104
012016072112BPFF11      010FII ABSOLUTOCI           R$  000000000811100000000082990000000008099000000000813500000000081000000000008050000000000827000056000000000000001470000000000011958537000000000000009999123100000010000000000000BRBPFFCTF002139
012016072102BPHA3       010BR PHARMA   ON      NM   R$  000000000057000000000005780000000000556000000000056700000000005780000000000574000000000057800099000000000000042100000000000023897900000000000000009999123100000010000000000000BRBPHAACNOR6104
012016072196BPHA3F      020BR PHARMA   ON      NM   R$  000000000056600000000005750000000000539000000000056700000000005680000000000539000000000057500005000000000000000124000000000000070329000000000000009999123100000010000000000000BRBPHAACNOR6104
012016072102BRAP3       010BRADESPAR   ON      N1   R$  000000000085900000000008750000000000834000000000085800000000008650000000000862000000000087400048000000000000029000000000000024896600000000000000009999123100000010000000000000BRBRAPACNOR5129
012016072196BRAP3F      020BRADESPAR   ON      N1   R$  000000000083500000000008600000000000835000000000084900000000008600000000000861000000000088400005000000000000000040000000000000033976000000000000009999123100000010000000000000BRBRAPACNOR5129
012016072102BRAP4       010BRADESPAR   PN      N1   R$  000000000100000000000010370000000001000000000000102600000000010310000000001029000000000103103646000000000001921800000000001973086800000000000000009999123100000010000000000000BRBRAPACNPR2129
012016072196BRAP4F      020BRADESPAR   PN      N1   R$  000000000100800000000010350000000001008000000000102500000000010210000000001021000000000103000047000000000000001211000000000001242090000000000000009999123100000010000000000000BRBRAPACNPR2129
012016072151BRAS5L      017FIBRASA     PNA     MB   R$  000000000021200000000002120000000000212000000000021200000000002120000000000000000000000021200006000000000000021040000000000004460480000000000000009999123100000010000000000000BRBRASACNPA2100
012016072114BRAX11      010ISHARES BRAXCI           R$  000000000464200000000046420000000004642000000000464200000000046420000000004600000000000464200002000000000000000210000000000000974820000000000000009999123100000010000000000000BRBRAXCTF002100
012016072112BRCR11      010FII BC FUND CI           R$  000000000950000000000096490000000009401000000000954900000000096390000000009620000000000963900801000000000000024484000000000233806854000000000000009999123100000010000000000000BRBRCRCTF000167
012016072102BRFS3       010BRF SA      ON  EJ  NM   R$  000000000505100000000050830000000005015000000000503800000000050550000000005050000000000505510681000000000002193400000000011052652100000000000000009999123100000010000000000000BRBRFSACNOR8117
012016072196BRFS3F      020BRF SA      ON  EJ  NM   R$  000000000505900000000050990000000005018000000000504300000000050830000000005070000000000508300091000000000000002330000000000011751047000000000000009999123100000010000000000000BRBRFSACNOR8117
012016072162BRFS3T      030BRF SA      ON  EJ  NM060R$  000000000514800000000051490000000005148000000000514800000000051490000000000000000000000000000004000000000000001300000000000006693590000000000000009999123100000010000000000000BRBRFSACNOR8117
012016072178BRFSA6      070BRFSE       ON      NM000R$  000000000049300000000004930000000000406000000000040700000000004060000000000000000000000000000002000000000000005600000000000002282300000000000605002018011500000010000000000000BRBRFSACNOR8117
012016072178BRFSH18     070BRFS    /EJ ON      NM000R$  000000000035000000000003500000000000326000000000034200000000003280000000000328000000000000000008000000000000004200000000000001436600000000000479702016081500000010000000000000BRBRFSACNOR8116
012016072178BRFSH22     070BRFSE   /EJ ON      NM000R$  000000000010600000000001060000000000086000000000009100000000000900000000000000000000000000000015000000000000150800000000000013806000000000000522202016081500000010000000000000BRBRFSACNOR8116
012016072178BRFSH4      070BRFS  FM/EJ ON      NM000R$  000000000004600000000000460000000000046000000000004600000000000460000000000000000000000007000001000000000000001000000000000000046000000000000537202016081500000010000000000000BRBRFSACNOR8116
012016072178BRFSH49     070BRFS    /EJ ON      NM000R$  000000000030000000000003000000000000300000000000030000000000003000000000000000000000000000000001000000000000000100000000000000030000000000000484702016081500000010000000000000BRBRFSACNOR8116
012016072178BRFSH51     070BRFS  FM/EJ ON      NM000R$  000000000014700000000001510000000000146000000000014700000000001490000000000000000000000000000007000000000000004800000000000000709900000000000507202016081500000010000000000000BRBRFSACNOR8116
012016072178BRFSH52     070BRFS  FM/EJ ON      NM000R$  000000000010700000000001070000000000105000000000010500000000001050000000000050000000000000000002000000000000000300000000000000031700000000000517202016081500000010000000000000BRBRFSACNOR8115
012016072178BRFSH54     070BRFSE   /EJ ON      NM000R$  000000000006300000000000630000000000055000000000006200000000000550000000000000000000000006900002000000000000130300000000000008206500000000000532202016081500000010000000000000BRBRFSACNOR8116
012016072178BRFSH55     070BRFS    /EJ ON      NM000R$  000000000003000000000000300000000000030000000000003000000000000300000000000000000000000000000001000000000000001500000000000000045000000000000547202016081500000010000000000000BRBRFSACNOR8116
012016072178BRFSI23     070BRFSE   /EJ ON      NM000R$  000000000018400000000001840000000000175000000000018300000000001750000000000000000000000000000002000000000000241000000000000044335000000000000527902016091900000010000000000000BRBRFSACNOR8116
012016072178BRFSI34     070BRFSE   /EJ ON      NM000R$  000000000033600000000003360000000000336000000000033600000000003360000000000000000000000000000001000000000000002000000000000000672000000000000497902016091900000010000000000000BRBRFSACNOR8116
012016072178BRFSI50     070BRFS  FM/EJ ON      NM000R$  000000000030300000000003030000000000303000000000030300000000003030000000000000000000000000000001000000000000000100000000000000030300000000000502902016091900000010000000000000BRBRFSACNOR8116
012016072178BRFSI51     070BRFS  FM/EJ ON      NM000R$  000000000024700000000002470000000000247000000000024700000000002470000000000000000000000000000001000000000000000300000000000000074100000000000512902016091900000010000000000000BRBRFSACNOR8116
012016072178BRFSK22     070BRFSE       ON      NM000R$  000000000038000000000003800000000000315000000000031700000000003150000000000000000000000000000002000000000000003000000000000000951500000000000629502017112100000010000000000000BRBRFSACNOR8117
012016072178BRFSL10     070BRFSE   /EJ ON      NM000R$  000000000052600000000005260000000000526000000000052600000000005260000000000000000000000000000001000000000000035000000000000018410000000000000497902016121900000010000000000000BRBRFSACNOR8116
012016072182BRFSM54     080BRFSE       ON      NM000R$  000000000047400000000004740000000000474000000000047400000000004740000000000000000000000000000002000000000000005600000000000002654400000000000540002018011500000010000000000000BRBRFSACNOR8117
012016072182BRFSO13     080BRFSE   /EJ ON      NM000R$  000000000034000000000003400000000000300000000000032000000000003000000000000000000000000000000003000000000000021000000000000006720000000000000524502018031900000010000000000000BRBRFSACNOR8116
012016072182BRFSO51     080BRFSE   /EJ ON      NM000R$  000000000029100000000002910000000000241000000000026300000000002410000000000000000000000000000004000000000000010000000000000002631400000000000504502018031900000010000000000000BRBRFSACNOR8116
012016072182BRFST19     080BRFSE FM/EJ ON      NM000R$  000000000008600000000000870000000000084000000000008600000000000870000000000000000000000000000003000000000000200000000000000017272500000000000489702016081500000010000000000000BRBRFSACNOR8116
012016072182BRFST46     080BRFSE   /EJ ON      NM000R$  000000000002000000000000290000000000020000000000002300000000000290000000000000000000000003000004000000000000001500000000000000034500000000000454702016081500000010000000000000BRBRFSACNOR8116
012016072182BRFST48     080BRFSE   /EJ ON      NM000R$  000000000004800000000000480000000000033000000000004100000000000330000000000000000000000000000007000000000000012300000000000000515100000000000472202016081500000010000000000000BRBRFSACNOR8116
012016072182BRFST49     080BRFSE   /EJ ON      NM000R$  000000000007000000000000700000000000063000000000006900000000000630000000000055000000000014000053000000000000069900000000000004883700000000000484702016081500000010000000000000BRBRFSACNOR8116
012016072182BRFSU15     080BRFSE   /EJ ON      NM000R$  000000000007100000000000710000000000071000000000007100000000000710000000000000000000000000000002000000000000006000000000000000426000000000000452902016091900000010000000000000BRBRFSACNOR8116
012016072182BRFSU23     080BRFSE   /EJ ON      NM000R$  000000000032600000000003320000000000312000000000032900000000003120000000000000000000000000000006000000000000118000000000000038889000000000000527902016091900000010000000000000BRBRFSACNOR8116
012016072182BRFSW12     080BRFSE       ON      NM000R$  000000000010000000000001000000000000081000000000008100000000000810000000000000000000000000000002000000000000003000000000000000244900000000000429502017112100000010000000000000BRBRFSACNOR8117
012016072182BRFSW50     080BRFSE       ON      NM000R$  000000000032900000000003900000000000329000000000038700000000003900000000000000000000000000000002000000000000003000000000000001163900000000000504502017112100000010000000000000BRBRFSACNOR8117
012016072102BRIN3       010BR INSURANCEON      NM   R$  000000000220000000000022000000000002124000000000217400000000021640000000002146000000000216400105000000000000087900000000000191127200000000000000009999123100000010000000000000BRBRINACNOR3111
012016072196BRIN3F      020BR INSURANCEON      NM   R$  000000000218400000000021840000000002155000000000218300000000021550000000002111000000000214000004000000000000000034000000000000074227000000000000009999123100000010000000000000BRBRINACNOR3111
012016072162BRIN3T      030BR INSURANCEON      NM032R$  000000000220500000000022060000000002205000000000220500000000022060000000000000000000000000000002000000000000022500000000000049628790000000000000009999123100000010000000000000BRBRINACNOR3111
012016072162BRIN3T      030BR INSURANCEON      NM046R$  000000000221700000000022180000000002217000000000221700000000022180000000000000000000000000000002000000000000022500000000000049901017000000000000009999123100000010000000000000BRBRINACNOR3111
012016072162BRIN3T      030BR INSURANCEON      NM060R$  000000000222800000000022290000000002228000000000222800000000022290000000000000000000000000000002000000000000022500000000000050146268000000000000009999123100000010000000000000BRBRINACNOR3111
012016072102BRIV3       010ALFA INVEST ON           R$  000000000052900000000005290000000000529000000000052900000000005290000000000501000000000054400001000000000000000300000000000000158700000000000000009999123100000010000000000000BRBRIVACNOR6202
012016072196BRIV3F      020ALFA INVEST ON           R$  000000000052500000000005250000000000525000000000052500000000005250000000000450000000000052500001000000000000000012000000000000006300000000000000009999123100000010000000000000BRBRIVACNOR6202
012016072102BRIV4       010ALFA INVEST PN           R$  000000000064900000000006700000000000649000000000065900000000006690000000000640000000000067000009000000000000005900000000000003893200000000000000009999123100000010000000000000BRBRIVACNPR3202
012016072102BRKM3       010BRASKEM     ON      N1   R$  000000000142500000000014250000000001400000000000140200000000014000000000001403000000000145000007000000000000002500000000000003507000000000000000009999123100000010000000000000BRBRKMACNOR1113
012016072102BRKM5       010BRASKEM     PNA     N1   R$  000000000187900000000019170000000001846000000000187000000000018640000000001864000000000186806023000000000001253400000000002344287200000000000000009999123100000010000000000000BRBRKMACNPA4113
012016072196BRKM5F      020BRASKEM     PNA     N1   R$  000000000188800000000019140000000001848000000000187100000000018610000000001861000000000188000016000000000000000460000000000000860953000000000000009999123100000010000000000000BRBRKMACNPA4113
012016072162BRKM5T      030BRASKEM     PNA     N1060R$  000000000190600000000019070000000001906000000000190600000000019070000000000000000000000000000002000000000000002000000000000003812806000000000000009999123100000010000000000000BRBRKMACNPA4113
012016072178BRKMI50     070BRKM        PNA     N1000R$  000000000003700000000000370000000000035000000000003500000000000350000000000020000000000000000002000000000000400100000000000014003700000000000207402016091900000010000000000000BRBRKMACNPA4113
012016072102BRML3       010BR MALLS PARON      NM   R$  000000000140900000000014210000000001388000000000140900000000014060000000001406000000000140710223000000000003015100000000004250208300000000000000009999123100000010000000000000BRBRMLACNOR9109
012016072196BRML3F      020BR MALLS PARON      NM   R$  000000000137200000000014170000000001369000000000140600000000014110000000001400000000000141100039000000000000000988000000000001389201000000000000009999123100000010000000000000BRBRMLACNOR9109
012016072178BRMLH43     070BRML  FM    ON      NM000R$  000000000007100000000000710000000000071000000000007100000000000710000000000000000000000000000001000000000000002000000000000000142000000000000136902016081500000010000000000000BRBRMLACNOR9109
012016072102BRPR3       010BR PROPERT  ON      NM   R$  000000000084500000000008570000000000835000000000084700000000008550000000000855000000000085602474000000000000587800000000000498285600000000000000009999123100000010000000000000BRBRPRACNOR9116
012016072196BRPR3F      020BR PROPERT  ON      NM   R$  000000000084100000000008540000000000841000000000084900000000008540000000000841000000000087000005000000000000000109000000000000092630000000000000009999123100000010000000000000BRBRPRACNOR9116
012016072102BRSR3       010BANRISUL    ON      N1   R$  000000000140000000000014000000000001400000000000140000000000014000000000001120000000000199800002000000000000000200000000000000280000000000000000009999123100000010000000000000BRBRSRACNOR3144
012016072196BRSR3F      020BANRISUL    ON      N1   R$  000000000125000000000012500000000001250000000000125000000000012500000000001250000000000150000002000000000000000009000000000000011250000000000000009999123100000010000000000000BRBRSRACNOR3144
012016072102BRSR5       010BANRISUL    PNA     N1   R$  000000000248900000000024890000000002489000000000248900000000024890000000001500000000000248400001000000000000000100000000000000248900000000000000009999123100000010000000000000BRBRSRACNPA6148
012016072196BRSR5F      020BANRISUL    PNA     N1   R$  000000000214000000000021500000000002140000000000214800000000021500000000001350000000000215000003000000000000000101000000000000216950000000000000009999123100000010000000000000BRBRSRACNPA6148
012016072102BRSR6       010BANRISUL    PNB     N1   R$  000000000103600000000010770000000001010000000000105200000000010490000000001044000000000104903557000000000000940300000000000989816500000000000000009999123100000010000000000000BRBRSRACNPB4147
012016072196BRSR6F      020BANRISUL    PNB     N1   R$  000000000104000000000010790000000001023000000000105700000000010400000000001035000000000108000035000000000000001080000000000001142392000000000000009999123100000010000000000000BRBRSRACNPB4147
012016072102BTOW3       010B2W DIGITAL ON      NM   R$  000000000140200000000014300000000001354000000000138700000000013650000000001365000000000136801704000000000000692400000000000960851700000000000000009999123100000010000000000000BRBTOWACNOR8108
012016072196BTOW3F      020B2W DIGITAL ON      NM   R$  000000000130300000000014250000000001303000000000138700000000013570000000001356000000000140000020000000000000000589000000000000817107000000000000009999123100000010000000000000BRBTOWACNOR8108
012016072102BTTL4       010BATTISTELLA PN           R$  000000000110000000000011710000000001100000000000113900000000011710000000001170000000000124000005000000000000000600000000000000683600000000000000009999123100000010000000000000BRBTTLACNPR7106
012016072196BTTL4F      020BATTISTELLA PN           R$  000000000109000000000010900000000001090000000000109000000000010900000000000770000000000115500002000000000000000030000000000000032700000000000000009999123100000010000000000000BRBTTLACNPR7106
012016072102BVMF3       010BMFBOVESPA  ON      NM   R$  000000000194000000000019700000000001920000000000193800000000019350000000001934000000000193525855000000000010301000000000019965540400000000000000009999123100000010000000000000BRBVMFACNOR3137
012016072196BVMF3F      020BMFBOVESPA  ON      NM   R$  000000000193200000000019650000000001902000000000193600000000019360000000001921000000000193600198000000000000004253000000000008237465000000000000009999123100000010000000000000BRBVMFACNOR3137
012016072162BVMF3T      030BMFBOVESPA  ON      NM032R$  000000000195900000000019600000000001959000000000195900000000019600000000000000000000000000000002000000000000000200000000000000391906000000000000009999123100000010000000000000BRBVMFACNOR3137
012016072162BVMF3T      030BMFBOVESPA  ON      NM090R$  000000000199100000000019920000000001991000000000199100000000019920000000000000000000000000000002000000000000002000000000000003983134000000000000009999123100000010000000000000BRBVMFACNOR3137
012016072178BVMFH16     070BVMF        ON      NM000R$  000000000036200000000003620000000000345000000000035600000000003450000000000000000000000040800004000000000000000400000000000000142600000000000159202016081500000010000000000000BRBVMFACNOR3136
012016072178BVMFH17     070BVMF        ON      NM000R$  000000000026300000000002630000000000263000000000026300000000002630000000000001000000000000000001000000000000000500000000000000131500000000000169202016081500000010000000000000BRBVMFACNOR3136
012016072178BVMFH18     070BVMF        ON      NM000R$  000000000018600000000001860000000000166000000000017200000000001690000000000048000000000000000007000000000000042700000000000007371600000000000179202016081500000010000000000000BRBVMFACNOR3136
012016072178BVMFH19     070BVMF  FM    ON      NM000R$  000000000009200000000001100000000000091000000000009800000000000930000000000080000000000010300069000000000000216200000000000021378000000000000189202016081500000010000000000000BRBVMFACNOR3136
012016072178BVMFH20     070BVMF  FM    ON      NM000R$  000000000004600000000000560000000000042000000000004700000000000460000000000040000000000005100074000000000000165000000000000007904900000000000199202016081500000010000000000000BRBVMFACNOR3136
012016072178BVMFH21     070BVMF  FM    ON      NM000R$  000000000002500000000000250000000000019000000000002200000000000210000000000020000000000002300066000000000000178300000000000004068700000000000209202016081500000010000000000000BRBVMFACNOR3136
012016072178BVMFH22     070BVMF  FM    ON      NM000R$  000000000000900000000000130000000000009000000000001100000000000110000000000009000000000001700011000000000000036300000000000000415500000000000219202016081500000010000000000000BRBVMFACNOR3136
012016072178BVMFH23     070BVMF        ON      NM000R$  000000000000500000000000050000000000005000000000000500000000000050000000000005000000000000700001000000000000001500000000000000007500000000000229202016081500000010000000000000BRBVMFACNOR3136
012016072178BVMFH24     070BVMF        ON      NM000R$  000000000000200000000000040000000000002000000000000300000000000030000000000003000000000000900004000000000000003300000000000000012700000000000239202016081500000010000000000000BRBVMFACNOR3136
012016072178BVMFH25     070BVMF        ON      NM000R$  000000000000100000000000010000000000001000000000000100000000000010000000000001000000000000500001000000000000000100000000000000000100000000000249202016081500000010000000000000BRBVMFACNOR3136
012016072178BVMFH26     070BVMF        ON      NM000R$  000000000000200000000000020000000000002000000000000200000000000020000000000001000000000000300001000000000000005000000000000000010000000000000259202016081500000010000000000000BRBVMFACNOR3136
012016072178BVMFH47     070BVMF        ON      NM000R$  000000000021700000000002170000000000217000000000021700000000002170000000000001000000000000000001000000000000000500000000000000108500000000000174202016081500000010000000000000BRBVMFACNOR3136
012016072178BVMFH48     070BVMF        ON      NM000R$  000000000013500000000001350000000000125000000000013200000000001250000000000009000000000000000003000000000000003200000000000000423500000000000184202016081500000010000000000000BRBVMFACNOR3136
012016072178BVMFH49     070BVMF  FM    ON      NM000R$  000000000007200000000000800000000000057000000000006200000000000660000000000055000000000006800017000000000000065600000000000004087200000000000194202016081500000010000000000000BRBVMFACNOR3136
012016072178BVMFH50     070BVMF        ON      NM000R$  000000000003300000000000350000000000028000000000003100000000000310000000000029000000000004000015000000000000021500000000000000677200000000000204202016081500000010000000000000BRBVMFACNOR3136
012016072178BVMFH51     070BVMF        ON      NM000R$  000000000001200000000000160000000000012000000000001500000000000160000000000005000000000002500015000000000000011800000000000000186000000000000214202016081500000010000000000000BRBVMFACNOR3136
012016072178BVMFH52     070BVMF        ON      NM000R$  000000000000800000000000100000000000007000000000000800000000000080000000000004000000000000900031000000000000028900000000000000247600000000000224202016081500000010000000000000BRBVMFACNOR3136
012016072178BVMFH53     070BVMF        ON      NM000R$  000000000000500000000000050000000000004000000000000400000000000040000000000004000000000000500002000000000000000300000000000000001400000000000234202016081500000010000000000000BRBVMFACNOR3136
012016072178BVMFH63     070BVMFE       ON      NM000R$  000000000063200000000006320000000000615000000000062300000000006150000000000610000000000000000002000000000000000200000000000000124700000000000131702016081500000010000000000000BRBVMFACNOR3136
012016072178BVMFH79     070BVMFE       ON      NM000R$  000000000006200000000000620000000000052000000000005700000000000520000000000000000000000000000002000000000000000200000000000000011400000000000196702016081500000010000000000000BRBVMFACNOR3137
012016072178BVMFI17     070BVMF        ON      NM000R$  000000000024900000000002490000000000249000000000024900000000002490000000000047000000000032000002000000000000000500000000000000124500000000000174202016091900000010000000000000BRBVMFACNOR3137
012016072178BVMFI18     070BVMF        ON      NM000R$  000000000017300000000001730000000000172000000000017200000000001720000000000000000000000000000003000000000000006000000000000001037000000000000184202016091900000010000000000000BRBVMFACNOR3137
012016072178BVMFI19     070BVMF  FM    ON      NM000R$  000000000010400000000001140000000000100000000000010700000000001040000000000000000000000010600047000000000000159100000000000017044000000000000194202016091900000010000000000000BRBVMFACNOR3137
012016072178BVMFI20     070BVMF        ON      NM000R$  000000000006500000000000690000000000058000000000006600000000000580000000000000000000000006300011000000000000025400000000000001678600000000000204202016091900000010000000000000BRBVMFACNOR3137
012016072178BVMFI21     070BVMF        ON      NM000R$  000000000004600000000000460000000000037000000000003800000000000370000000000034000000000003700013000000000000027200000000000001040400000000000214202016091900000010000000000000BRBVMFACNOR3137
012016072178BVMFI46     070BVMF        ON      NM000R$  000000000029200000000002920000000000291000000000029100000000002910000000000000000000000000000002000000000000001000000000000000291500000000000169202016091900000010000000000000BRBVMFACNOR3137
012016072178BVMFI47     070BVMF        ON      NM000R$  000000000020800000000002080000000000195000000000019800000000001950000000000000000000000000000004000000000000003600000000000000715000000000000179202016091900000010000000000000BRBVMFACNOR3137
