00COTAHIST.2016BOVESPA 20160722                                                                                                                                                                                                                      
012016072202AAPL34      010APPLE       DRN          R$  000000000323000000000032300000000003226000000000322600000000032260000000003210000000000323000002000000000000010800000000000034844800000000000000009999123100000010000000000000BRAAPLBDR004117
012016072210ABCB2       010ABC BRASIL  DIR PRE N2   R$  000000000038500000000004290000000000385000000000039800000000003950000000000401000000000041900016000000000000037300000000000014850400000000000000009999123100000010000000000000BRABCBD09PR2125
012016072296ABCB2F      020ABC BRASIL  DIR PRE N2   R$  000000000038500000000004190000000000385000000000039900000000003950000000000390000000000041900013000000000000000315000000000000125990000000000000009999123100000010000000000000BRABCBD09PR2125
012016072202ABCB4       010ABC BRASIL  PN      N2   R$  000000000138000000000013960000000001366000000000138500000000013890000000001387000000000138900830000000000000132900000000000184140800000000000000009999123100000010000000000000BRABCBACNPR4126
012016072296ABCB4F      020ABC BRASIL  PN      N2   R$  000000000136700000000013960000000001367000000000137700000000013740000000001375000000000139200007000000000000000197000000000000271465000000000000009999123100000010000000000000BRABCBACNPR4126
012016072262ABCB4T      030ABC BRASIL  PN      N2031R$  000000000139900000000014000000000001399000000000139900000000014000000000000000000000000000000002000000000000000100000000000000139954000000000000009999123100000010000000000000BRABCBACNPR4126
012016072212ABCP11      010FII ABC IMOBCI           R$  000000000108600000000010870000000001050000000000106900000000010500000000001030000000000105000032000000000000001450000000000001550642000000000000009999123100000010000000000000BRABCPCTF000249
012016072202ABEV3       010AMBEV S/A   ON           R$  000000000192400000000019460000000001911000000000193100000000019390000000001935000000000193915380000000000008907900000000017204789000000000000000009999123100000010000000000000BRABEVACNOR1113
012016072296ABEV3F      020AMBEV S/A   ON           R$  000000000192400000000019450000000001901000000000193600000000019410000000001937000000000194100149000000000000003584000000000006941027000000000000009999123100000010000000000000BRABEVACNOR1113
012016072278ABEVH18     070ABEV  FM    ON        000R$  000000000006200000000000800000000000056000000000007500000000000800000000000000000000000000000014000000000000023400000000000001771800000000000188202016081500000010000000000000BRABEVACNOR1112
012016072278ABEVH19     070ABEV  FM    ON        000R$  000000000002700000000000440000000000027000000000003900000000000440000000000023000000000004500023000000000000065000000000000002560500000000000193202016081500000010000000000000BRABEVACNOR1112
012016072278ABEVH20     070ABEV        ON        000R$  000000000000600000000000080000000000006000000000000700000000000070000000000006000000000001000004000000000000024600000000000000190200000000000203202016081500000010000000000000BRABEVACNOR1112
012016072278ABEVH3      070ABEVE       ON        000R$  000000000007000000000000700000000000070000000000007000000000000700000000000000000000000000000002000000000000800000000000000056000000000000000231202017082100000010000000000000BRABEVACNOR1113
012016072278ABEVH49     070ABEV  FM    ON        000R$  000000000001400000000000180000000000014000000000001500000000000180000000000018000000000002800004000000000000011200000000000000168500000000000198202016081500000010000000000000BRABEVACNOR1112
012016072278ABEVH64     070ABEVE       ON        000R$  000000000004300000000000600000000000043000000000004800000000000600000000000031000000000000000007000000000000020400000000000000994000000000000190702016081500000010000000000000BRABEVACNOR1109
012016072278ABEVH79     070ABEVE       ON        000R$  000000000001600000000000250000000000016000000000001800000000000250000000000010000000000002900004000000000000021100000000000000385400000000000195702016081500000010000000000000BRABEVACNOR1111
012016072278ABEVH80     070ABEVE       ON        000R$  000000000000600000000000130000000000006000000000001200000000000130000000000000000000000003700026000000000000473400000000000005736100000000000200702016081500000010000000000000BRABEVACNOR1112
012016072278ABEVI19     070ABEV  FM    ON        000R$  000000000006000000000000710000000000060000000000006700000000000710000000000000000000000000000004000000000000000900000000000000061000000000000193202016091900000010000000000000BRABEVACNOR1112
012016072278ABEVI20     070ABEV        ON        000R$  000000000002400000000000240000000000024000000000002400000000000240000000000019000000000000000001000000000000005000000000000000120000000000000203202016091900000010000000000000BRABEVACNOR1112
012016072278ABEVI49     070ABEV  FM    ON        000R$  000000000004400000000000440000000000044000000000004400000000000440000000000008000000000000000001000000000000001600000000000000070400000000000198202016091900000010000000000000BRABEVACNOR1112
012016072278ABEVI60     070ABEVE       ON        000R$  000000000003200000000000320000000000032000000000003200000000000320000000000000000000000000000002000000000000300500000000000009616000000000000200702016091900000010000000000000BRABEVACNOR1112
012016072278ABEVI79     070ABEVE       ON        000R$  000000000005800000000000580000000000057000000000005700000000000570000000000000000000000000000002000000000000002500000000000000144500000000000195702016091900000010000000000000BRABEVACNOR1111
012016072278ABEVI83     070ABEVE       ON        000R$  000000000000300000000000030000000000002000000000000200000000000020000000000002000000000000400003000000000000028700000000000000058000000000000225702016091900000010000000000000BRABEVACNOR1108
012016072278ABEVI89     070ABEV  FM    ON        000R$  000000000009600000000001090000000000096000000000010400000000001080000000000004000000000000000005000000000000015300000000000001592700000000000188202016091900000010000000000000BRABEVACNOR1107
012016072278ABEVJ20     070ABEV        ON        000R$  000000000005000000000000550000000000050000000000005400000000000550000000000000000000000000000004000000000000010300000000000000565500000000000199802016101700000010000000000000BRABEVACNOR1112
012016072278ABEVJ22     070ABEV        ON        000R$  000000000000600000000000120000000000006000000000000600000000000120000000000003000000000001200004000000000000003300000000000000022200000000000219802016101700000010000000000000BRABEVACNOR1112
012016072278ABEVJ50     070ABEV        ON        000R$  000000000001400000000000140000000000014000000000001400000000000140000000000000000000000000000001000000000000008000000000000000112000000000000204802016101700000010000000000000BRABEVACNOR1113
012016072278ABEVK49     070ABEV        ON        000R$  000000000009600000000001030000000000095000000000009600000000001030000000000000000000000000000003000000000000058000000000000005598100000000000194802016112100000010000000000000BRABEVACNOR1113
012016072278ABEVK57     070ABEV        ON        000R$  000000000026400000000002650000000000264000000000026400000000002640000000000000000000000000000003000000000000058000000000000015358900000000000174802016112100000010000000000000BRABEVACNOR1113
012016072278ABEVK89     070ABEV        ON        000R$  000000000006600000000000710000000000066000000000007000000000000710000000000000000000000000000003000000000000058000000000000004117500000000000199802016112100000010000000000000BRABEVACNOR1113
012016072278ABEVK90     070ABEVE       ON        000R$  000000000005900000000000650000000000049000000000006100000000000650000000000000000000000000000005000000000000168000000000000010401000000000000202302016112100000010000000000000BRABEVACNOR1113
012016072278ABEVK95     070ABEV        ON        000R$  000000000019500000000001950000000000187000000000019300000000001870000000000000000000000000000002000000000000058000000000000011222000000000000179802016112100000010000000000000BRABEVACNOR1109
012016072278ABEVK97     070ABEVE       ON        000R$  000000000000800000000000080000000000008000000000000800000000000080000000000000000000000000000002000000000000058000000000000000464000000000000232302016112100000010000000000000BRABEVACNOR1109
012016072278ABEVL21     070ABEV        ON        000R$  000000000005500000000000550000000000055000000000005500000000000550000000000000000000000000000001000000000000300000000000000016500000000000000209802016121900000010000000000000BRABEVACNOR1112
012016072278ABEVL74     070ABEVE       ON        000R$  000000000009900000000000990000000000080000000000008000000000000800000000000000000000000000000002000000000000010000000000000000801900000000000241202017121800000010000000000000BRABEVACNOR1113
012016072278ABEVL92     070ABEVE       ON        000R$  000000000003000000000000300000000000030000000000003000000000000300000000000000000000000000000001000000000000002800000000000000084000000000000217302016121900000010000000000000BRABEVACNOR1110
012016072282ABEVT18     080ABEVE FM    ON        000R$  000000000001100000000000110000000000007000000000000900000000000090000000000000000000000000000003000000000000014000000000000000128000000000000188202016081500000010000000000000BRABEVACNOR1112
012016072282ABEVT19     080ABEVE FM    ON        000R$  000000000002700000000000310000000000015000000000002200000000000190000000000018000000000000000008000000000000006200000000000000140800000000000193202016081500000010000000000000BRABEVACNOR1112
012016072282ABEVT49     080ABEVE       ON        000R$  000000000004800000000000480000000000048000000000004800000000000480000000000000000000000004800001000000000000005000000000000000240000000000000198202016081500000010000000000000BRABEVACNOR1112
012016072282ABEVT79     080ABEVE       ON        000R$  000000000004500000000000450000000000026000000000003500000000000260000000000026000000000000000002000000000000002000000000000000071000000000000195702016081500000010000000000000BRABEVACNOR1111
012016072282ABEVT89     080ABEVE       ON        000R$  000000000006600000000000660000000000066000000000006600000000000660000000000000000000000000000001000000000000800000000000000052800000000000000191202017082100000010000000000000BRABEVACNOR1112
012016072282ABEVU19     080ABEVE FM    ON        000R$  000000000003100000000000310000000000031000000000003100000000000310000000000000000000000003600001000000000000006000000000000000186000000000000193202016091900000010000000000000BRABEVACNOR1112
012016072282ABEVU57     080ABEVE       ON        000R$  000000000001000000000000100000000000010000000000001000000000000100000000000000000000000000000001000000000000002000000000000000020000000000000170702016091900000010000000000000BRABEVACNOR1109
012016072282ABEVU69     080ABEVE FM    ON        000R$  000000000000800000000000080000000000008000000000000800000000000080000000000000000000000001500001000000000000002000000000000000016000000000000183202016091900000010000000000000BRABEVACNOR1107
012016072282ABEVW64     080ABEVE       ON        000R$  000000000000200000000000020000000000002000000000000200000000000020000000000000000000000000000003000000000000058000000000000000116000000000000142302016112100000010000000000000BRABEVACNOR1113
012016072282ABEVW67     080ABEVE       ON        000R$  000000000000400000000000040000000000004000000000000400000000000040000000000000000000000000000003000000000000058000000000000000232000000000000172302016112100000010000000000000BRABEVACNOR1113
012016072282ABEVX49     080ABEVE       ON        000R$  000000000004700000000000480000000000047000000000004700000000000480000000000000000000000000000002000000000001000000000000000047500000000000000192302016121900000010000000000000BRABEVACNOR1111
012016072282ABEVX69     080ABEVE       ON        000R$  000000000007600000000000790000000000076000000000007800000000000780000000000000000000000000000003000000000000010000000000000000787100000000000196202017121800000010000000000000BRABEVACNOR1113
012016072282ABEVX73     080ABEVE       ON        000R$  000000000001000000000000100000000000010000000000001000000000000100000000000000000000000000000001000000000000002800000000000000028000000000000127302016121900000010000000000000BRABEVACNOR1110
012016072282ABEVX77     080ABEVE       ON        000R$  000000000000500000000000050000000000005000000000000500000000000050000000000000000000000000000001000000000000002800000000000000014000000000000172302016121900000010000000000000BRABEVACNOR1110
012016072212AEFI11      010FII AESAPAR CI           R$  000000001298900000000130190000000012905000000001298700000000129950000000012920000000001299500014000000000000000472000000000006129915000000000000009999123100000010000000000000BRAEFICTF002155
012016072202AELP3       010AES ELPA    ON           R$  000000000136800000000014390000000001368000000000139400000000014010000000001200000000000139900006000000000000000900000000000001254700000000000000009999123100000010000000000000BRAELPACNOR2123
012016072296AELP3F      020AES ELPA    ON           R$  000000000145000000000016000000000001450000000000150300000000016000000000000000000000000160000002000000000000000093000000000000139800000000000000009999123100000010000000000000BRAELPACNOR2123
012016072212AGCX11      010FII AG CAIXACI           R$  000000011160000000001140000000000110600000000011304300000001135000000000113400000000011350000041000000000000000260000000000029391357000000000000009999123100000010000000000000BRAGCXCTF003144
012016072202AGRO3       010BRASILAGRO  ON      NM   R$  000000000127900000000012790000000001267000000000127400000000012700000000001270000000000127500697000000000000163800000000000208719100000000000000009999123100000010000000000000BRAGROACNOR7104
012016072296AGRO3F      020BRASILAGRO  ON      NM   R$  000000000127600000000013490000000001272000000000129700000000012760000000001277000000000134900011000000000000000257000000000000333430000000000000009999123100000010000000000000BRAGROACNOR7104
012016072262AGRO3T      030BRASILAGRO  ON      NM031R$  000000000129400000000012950000000001294000000000129400000000012950000000000000000000000000000002000000000000000800000000000001035282000000000000009999123100000010000000000000BRAGROACNOR7104
012016072212ALMI11B     010FII TORRE ALCI      MB   R$  000000018149900000001816000000000180001000000018142400000001816000000000180105000000018160000008000000000000000016000000000002902799000000000000009999123100000010000000000000BRALMICTF003239
012016072296ALPA3F      020ALPARGATAS  ON      N1   R$  000000000113800000000011380000000001138000000000113800000000011380000000001055000000000113800001000000000000000005000000000000005690000000000000009999123100000010000000000000BRALPAACNOR0217
012016072202ALPA4       010ALPARGATAS  PN      N1   R$  000000000110000000000011240000000001093000000000110900000000011200000000001117000000000112001813000000000000402000000000000445969300000000000000009999123100000010000000000000BRALPAACNPR7217
012016072296ALPA4F      020ALPARGATAS  PN      N1   R$  000000000110000000000011230000000001091000000000110600000000011220000000001090000000000112200022000000000000000682000000000000754447000000000000009999123100000010000000000000BRALPAACNPR7217
012016072202ALSC3       010ALIANSCE    ON      NM   R$  000000000150600000000015240000000001497000000000151400000000015060000000001506000000000150900798000000000000291900000000000442012300000000000000009999123100000010000000000000BRALSCACNOR0109
012016072296ALSC3F      020ALIANSCE    ON      NM   R$  000000000151600000000015890000000001513000000000152100000000015200000000001471000000000158800010000000000000000298000000000000453479000000000000009999123100000010000000000000BRALSCACNOR0109
012016072202ALUP11      010ALUPAR      UNT     N2   R$  000000000159900000000016170000000001588000000000160400000000016070000000001607000000000161101603000000000000483400000000000775587600000000000000009999123100000010000000000000BRALUPCDAM15105
012016072296ALUP11F     020ALUPAR      UNT     N2   R$  000000000161800000000016200000000001590000000000160400000000016200000000001590000000000161000058000000000000001225000000000001966025000000000000009999123100000010000000000000BRALUPCDAM15105
012016072210ALUP13      010ALUPAR      REC     N2   R$  000000000155000000000016120000000001550000000000157000000000015990000000001599000000000160900016000000000000003700000000000005809500000000000000009999123100000010000000000000BRALUPR01M14105
012016072296ALUP13F     020ALUPAR      REC     N2   R$  000000000155000000000015950000000001550000000000156000000000015500000000001555000000000157000017000000000000000539000000000000840895000000000000009999123100000010000000000000BRALUPR01M14105
012016072202AMAR3       010LOJAS MARISAON      NM   R$  000000000080700000000008470000000000795000000000082300000000008200000000000815000000000082200233000000000000084800000000000069801200000000000000009999123100000010000000000000BRAMARACNOR4112
012016072296AMAR3F      020LOJAS MARISAON      NM   R$  000000000083400000000008340000000000834000000000083400000000008340000000000820000000000086400001000000000000000024000000000000020016000000000000009999123100000010000000000000BRAMARACNOR4112
012016072262AMAR3T      030LOJAS MARISAON      NM017R$  000000000081400000000008420000000000814000000000082300000000008420000000000000000000000000000004000000000000006000000000000004941630000000000000009999123100000010000000000000BRAMARACNOR4112
012016072202AMGN34      010AMGEN       DRN          R$  000000005416000000000541600000000054160000000005416000000000541600000000053411000000005425600001000000000000000200000000000010832000000000000000009999123100000010000000000000BRAMGNBDR004118
012016072202AMZO34      010AMAZON      DRN          R$  000000012198500000001219850000000121985000000012198500000001219850000000120076000000012195100001000000000000000200000000000024397000000000000000009999123100000010000000000000BRAMZOBDR002101
012016072202ANIM3       010ANIMA       ON      NM   R$  000000000154200000000015450000000001512000000000152900000000015450000000001510000000000154500325000000000000067500000000000103274200000000000000009999123100000010000000000000BRANIMACNOR6103
012016072296ANIM3F      020ANIMA       ON      NM   R$  000000000147700000000014770000000001477000000000147700000000014770000000001480000000000153400001000000000000000014000000000000020678000000000000009999123100000010000000000000BRANIMACNOR6103
012016072202ARZZ3       010AREZZO CO   ON      NM   R$  000000000283300000000029080000000002760000000000281300000000028000000000002795000000000282600319000000000000048200000000000135623200000000000000009999123100000010000000000000BRARZZACNOR3121
012016072296ARZZ3F      020AREZZO CO   ON      NM   R$  000000000280000000000028500000000002769000000000280200000000028150000000002701000000000290000010000000000000000174000000000000487642000000000000009999123100000010000000000000BRARZZACNOR3121
012016072278ARZZI80     070ARZZE       ON      NM000R$  000000000006800000000000680000000000068000000000006800000000000680000000000000000000000000000002000000000000035000000000000002380000000000000308302016091900000010000000000000BRARZZACNOR3121
012016072278ARZZJ56     070ARZZ        ON      NM000R$  000000000029000000000002900000000000290000000000029000000000002900000000000000000000000000000001000000000000001900000000000000551000000000000265002016101700000010000000000000BRARZZACNOR3121
012016072278ARZZJ92     070ARZZE       ON      NM000R$  000000000005800000000000580000000000058000000000005800000000000580000000000000000000000000000002000000000000035000000000000002030000000000000322502016101700000010000000000000BRARZZACNOR3121
012016072282ARZZU26     080ARZZE       ON      NM000R$  000000000003400000000000340000000000034000000000003400000000000340000000000000000000000000000002000000000000035000000000000001190000000000000255802016091900000010000000000000BRARZZACNOR3119
012016072282ARZZU77     080ARZZE       ON      NM000R$  000000000010000000000001000000000000100000000000010000000000001000000000000000000000000000000002000000000000035000000000000003500000000000000273302016091900000010000000000000BRARZZACNOR3121
012016072282ARZZV57     080ARZZE       ON      NM000R$  000000000011000000000001100000000000110000000000011000000000001100000000000000000000000000000002000000000000035000000000000003850000000000000275002016101700000010000000000000BRARZZACNOR3121
012016072282ARZZV85     080ARZZE       ON      NM000R$  000000000005400000000000540000000000054000000000005400000000000540000000000000000000000000000002000000000000035000000000000001890000000000000257502016101700000010000000000000BRARZZACNOR3121
012016072208ATOM3       010ATOMPAR     ON           R$  000000000007800000000000780000000000073000000000007500000000000730000000000073000000000007400213000000000000627100000000000047518900000000000000009999123100000010000000000000BRATOMACNOR1101
012016072296ATOM3F      020ATOMPAR     ON           R$  000000000007400000000000890000000000074000000000007400000000000800000000000072000000000008000011000000000000000247000000000000018451000000000000009999123100000010000000000000BRATOMACNOR1101
012016072202AXPB34      010AMERICAN EXPDRN          R$  000000002095500000000209550000000020955000000002095500000000209550000000000000000000000000000001000000000000000200000000000004191000000000000000009999123100000010000000000000BRAXPBBDR007117
012016072202AZEV4       010AZEVEDO     PN           R$  000000000015600000000001810000000000156000000000015800000000001800000000000145000000000018200010000000000000005600000000000000888100000000000000009999123100000010000000000000BRAZEVACNPR7116
012016072202BALM4       010BAUMER      PN           R$  000000000080000000000008000000000000800000000000080000000000008000000000000798000000000080000003000000000000001100000000000000880000000000000000009999123100000010000000000000BRBALMACNPR2047
012016072202BAUH4       010EXCELSIOR   PN           R$  000000000066500000000006650000000000665000000000066500000000006650000000000630000000000066900001000000000000000700000000000000465500000000000000009999123100000010000000000000BRBAUHACNPR3111
012016072202BAZA3       010AMAZONIA    ON           R$  000000000003300000000000340000000000033000000000003300000000000340000000000033000000000003400010000000000000067000000000000002226000000000000000009999123100000010000000000000BRBAZAACNOR0168
012016072296BAZA3F      020AMAZONIA    ON           R$  000000000003200000000000330000000000032000000000003200000000000330000000000032000000000003300006000000000000000803000000000000025996000000000000009999123100000010000000000000BRBAZAACNOR0168
012016072202BBAS3       010BRASIL      ON      NM   R$  000000000209000000000021260000000002061000000000208300000000020610000000002061000000000206719865000000000008093800000000016864884000000000000000009999123100000010000000000000BRBBASACNOR3261
012016072296BBAS3F      020BRASIL      ON      NM   R$  000000000209500000000021250000000002065000000000208600000000020660000000002065000000000206600447000000000000012109000000000025262673000000000000009999123100000010000000000000BRBBASACNOR3261
012016072262BBAS3T      030BRASIL      ON      NM031R$  000000000210400000000021050000000002093000000000210200000000020940000000000000000000000000000006000000000000000800000000000001681673000000000000009999123100000010000000000000BRBBASACNOR3261
012016072262BBAS3T      030BRASIL      ON      NM060R$  000000000212800000000021290000000002128000000000212800000000021290000000000000000000000000000002000000000000001200000000000002554042000000000000009999123100000010000000000000BRBBASACNOR3261
012016072262BBAS3T      030BRASIL      ON      NM180R$  000000000222700000000022280000000002227000000000222700000000022280000000000000000000000000000002000000000000000200000000000000445595000000000000009999123100000010000000000000BRBBASACNOR3261
012016072278BBASA84     070BBASE       ON      NM000R$  000000000037000000000003700000000000370000000000037000000000003700000000000000000000000000000001000000000000000100000000000000037000000000000247502018011500000010000000000000BRBBASACNOR3261
012016072278BBASH16     070BBAS        ON      NM000R$  000000000050000000000005000000000000499000000000049900000000004990000000000456000000000065500002000000000000001200000000000000599600000000000158802016081500000010000000000000BRBBASACNOR3259
012016072278BBASH17     070BBAS        ON      NM000R$  000000000044000000000004400000000000400000000000040300000000004000000000000300000000000000000008000000000000002200000000000000888000000000000168802016081500000010000000000000BRBBASACNOR3259
012016072278BBASH18     070BBAS        ON      NM000R$  000000000031800000000003530000000000300000000000032700000000003000000000000280000000000030500072000000000000065600000000000021454400000000000178802016081500000010000000000000BRBBASACNOR3259
012016072278BBASH19     070BBAS        ON      NM000R$  000000000024000000000002520000000000201000000000023100000000002200000000000205000000000025000032000000000000030200000000000007002600000000000188802016081500000010000000000000BRBBASACNOR3259
012016072278BBASH20     070BBAS  FM    ON      NM000R$  000000000016600000000001830000000000145000000000016500000000001450000000000144000000000016500097000000000000143300000000000023709000000000000198802016081500000010000000000000BRBBASACNOR3259
012016072278BBASH21     070BBAS  FM    ON      NM000R$  000000000011200000000001240000000000090000000000010100000000000910000000000090000000000009100139000000000000289500000000000029262700000000000208802016081500000010000000000000BRBBASACNOR3259
012016072278BBASH22     070BBAS        ON      NM000R$  000000000004900000000000570000000000041000000000004700000000000420000000000041000000000004200284000000000000802800000000000038030700000000000223802016081500000010000000000000BRBBASACNOR3259
012016072278BBASH23     070BBASE       ON      NM000R$  000000000002400000000000280000000000023000000000002500000000000260000000000023000000000002600021000000000000079400000000000002011000000000000236302016081500000010000000000000BRBBASACNOR3259
012016072278BBASH24     070BBAS  FM    ON      NM000R$  000000000002300000000000270000000000020000000000002300000000000200000000000019000000000002000168000000000000267200000000000006213000000000000238802016081500000010000000000000BRBBASACNOR3259
012016072278BBASH25     070BBAS        ON      NM000R$  000000000001500000000000150000000000012000000000001300000000000130000000000013000000000001400069000000000000259800000000000003618000000000000248802016081500000010000000000000BRBBASACNOR3259
012016072278BBASH26     070BBAS        ON      NM000R$  000000000001000000000000100000000000008000000000000900000000000080000000000008000000000000900018000000000000028400000000000000261400000000000258802016081500000010000000000000BRBBASACNOR3259
012016072278BBASH27     070BBAS        ON      NM000R$  000000000000600000000000070000000000004000000000000600000000000070000000000005000000000000600007000000000000027300000000000000178400000000000268802016081500000010000000000000BRBBASACNOR3259
012016072278BBASH28     070BBAS        ON      NM000R$  000000000000500000000000060000000000003000000000000500000000000030000000000003000000000000400025000000000000227400000000000001292700000000000278802016081500000010000000000000BRBBASACNOR3259
012016072278BBASH29     070BBAS        ON      NM000R$  000000000000200000000000020000000000002000000000000200000000000020000000000002000000000000300001000000000000000100000000000000000200000000000288802016081500000010000000000000BRBBASACNOR3259
012016072278BBASH43     070BBAS        ON      NM000R$  000000000075000000000007500000000000750000000000075000000000007500000000000000000000000000000002000000000000001500000000000001125000000000000133802016081500000010000000000000BRBBASACNOR3257
012016072278BBASH47     070BBAS        ON      NM000R$  000000000038100000000003850000000000351000000000036800000000003560000000000321000000000000000028000000000000012500000000000004603500000000000173802016081500000010000000000000BRBBASACNOR3259
012016072278BBASH48     070BBAS        ON      NM000R$  000000000026900000000002790000000000269000000000027300000000002750000000000251000000000030000028000000000000013900000000000003799800000000000183802016081500000010000000000000BRBBASACNOR3259
012016072278BBASH49     070BBAS        ON      NM000R$  000000000020000000000002150000000000185000000000020100000000001850000000000110000000000022000015000000000000018800000000000003788500000000000193802016081500000010000000000000BRBBASACNOR3259
012016072278BBASH50     070BBAS        ON      NM000R$  000000000013800000000001520000000000117000000000013600000000001170000000000100000000000012900023000000000000040600000000000005556200000000000203802016081500000010000000000000BRBBASACNOR3259
012016072278BBASH51     070BBASE       ON      NM000R$  000000000008800000000000900000000000079000000000008100000000000790000000000046000000000010000004000000000000013000000000000001053900000000000211302016081500000010000000000000BRBBASACNOR3259
012016072278BBASH55     070BBAS        ON      NM000R$  000000000001000000000000100000000000010000000000001000000000000100000000000006000000000000000001000000000000006300000000000000063000000000000253802016081500000010000000000000BRBBASACNOR3259
012016072278BBASH56     070BBAS        ON      NM000R$  000000000000600000000000060000000000006000000000000600000000000060000000000002000000000000000004000000000000063800000000000000382800000000000263802016081500000010000000000000BRBBASACNOR3259
012016072278BBASH60     070BBASE       ON      NM000R$  000000000016400000000001640000000000140000000000014300000000001460000000000000000000000000000007000000000000009100000000000001305800000000000201302016081500000010000000000000BRBBASACNOR3259
012016072278BBASH77     070BBASE       ON      NM000R$  000000000035800000000003580000000000324000000000033400000000003350000000000005000000000000000031000000000000010000000000000003346100000000000176302016081500000010000000000000BRBBASACNOR3259
012016072278BBASH79     070BBASE       ON      NM000R$  000000000025000000000002500000000000250000000000025000000000002500000000000216000000000000000001000000000000000400000000000000100000000000000186302016081500000010000000000000BRBBASACNOR3253
012016072278BBASH80     070BBASE       ON      NM000R$  000000000011100000000001120000000000111000000000011100000000001120000000000000000000000000000002000000000000002000000000000000223000000000000206302016081500000010000000000000BRBBASACNOR3259
012016072278BBASH89     070BBASE       ON      NM000R$  000000000017400000000001810000000000142000000000017000000000001800000000000150000000000021000012000000000000019000000000000003242500000000000196302016081500000010000000000000BRBBASACNOR3259
012016072278BBASH91     070BBASE       ON      NM000R$  000000000006900000000000690000000000064000000000006500000000000640000000000000000000000006900006000000000000013100000000000000853900000000000216302016081500000010000000000000BRBBASACNOR3259
012016072278BBASH94     070BBAS        ON      NM000R$  000000000009300000000000930000000000071000000000008200000000000710000000000065000000000008200032000000000000048700000000000004018500000000000213802016081500000010000000000000BRBBASACNOR3253
012016072278BBASH95     070BBAS  FM    ON      NM000R$  000000000006800000000000680000000000057000000000006000000000000570000000000001000000000008200021000000000000025200000000000001518900000000000218802016081500000010000000000000BRBBASACNOR3253
012016072278BBASH97     070BBAS  FM    ON      NM000R$  000000000004200000000000420000000000034000000000003700000000000350000000000029000000000003800033000000000000029700000000000001112000000000000228802016081500000010000000000000BRBBASACNOR3253
012016072278BBASH98     070BBAS        ON      NM000R$  000000000002400000000000290000000000024000000000002600000000000250000000000025000000000002900030000000000000032400000000000000874200000000000233802016081500000010000000000000BRBBASACNOR3253
012016072278BBASI19     070BBAS        ON      NM000R$  000000000026400000000002640000000000231000000000025100000000002310000000000231000000000031000036000000000000007400000000000001861900000000000192702016091900000010000000000000BRBBASACNOR3260
012016072278BBASI20     070BBAS  FM    ON      NM000R$  000000000024400000000002440000000000214000000000022300000000002160000000000008000000000000000036000000000000041300000000000009244000000000000197702016091900000010000000000000BRBBASACNOR3259
012016072278BBASI22     070BBAS  FM    ON      NM000R$  000000000014400000000001440000000000123000000000013200000000001340000000000101000000000014500021000000000000033800000000000004494800000000000217702016091900000010000000000000BRBBASACNOR3259
012016072278BBASI23     070BBAS        ON      NM000R$  000000000008600000000000920000000000080000000000008300000000000830000000000082000000000008300363000000000000544600000000000045526700000000000232702016091900000010000000000000BRBBASACNOR3260
012016072278BBASI24     070BBAS        ON      NM000R$  000000000006300000000000630000000000063000000000006300000000000630000000000000000000000000000002000000000000000700000000000000044100000000000242702016091900000010000000000000BRBBASACNOR3261
012016072278BBASI27     070BBAS        ON      NM000R$  000000000003500000000000350000000000030000000000003200000000000300000000000004000000000000000007000000000000020000000000000000650000000000000267702016091900000010000000000000BRBBASACNOR3259
012016072278BBASI50     070BBAS        ON      NM000R$  000000000020200000000002020000000000190000000000019800000000001960000000000003000000000000000006000000000000005900000000000001172000000000000202702016091900000010000000000000BRBBASACNOR3259
012016072278BBASI52     070BBAS  FM    ON      NM000R$  000000000009600000000000980000000000092000000000009300000000000930000000000093000000000011200050000000000000079300000000000007428300000000000227702016091900000010000000000000BRBBASACNOR3260
012016072278BBASI53     070BBAS  FM    ON      NM000R$  000000000007400000000000750000000000069000000000007100000000000730000000000069000000000000000015000000000000015200000000000001083000000000000237702016091900000010000000000000BRBBASACNOR3260
012016072278BBASI55     070BBAS        ON      NM000R$  000000000005000000000000500000000000044000000000004800000000000480000000000045000000000005000022000000000000026400000000000001283900000000000252702016091900000010000000000000BRBBASACNOR3259
012016072278BBASI66     070BBASE       ON      NM000R$  000000000003700000000000420000000000034000000000003900000000000420000000000003000000000000000007000000000000008100000000000000319200000000000260202016091900000010000000000000BRBBASACNOR3259
012016072278BBASI72     070BBASE       ON      NM000R$  000000000010300000000001050000000000103000000000010400000000001050000000000073000000000000000003000000000000002800000000000000292000000000000225202016091900000010000000000000BRBBASACNOR3259
012016072278BBASI79     070BBASE       ON      NM000R$  000000000024300000000002430000000000243000000000024300000000002430000000000000000000000000000001000000000000001000000000000000243000000000000195202016091900000010000000000000BRBBASACNOR3259
012016072278BBASI80     070BBASE       ON      NM000R$  000000000021000000000002120000000000210000000000021000000000002120000000000180000000000000000008000000000000004300000000000000903600000000000200202016091900000010000000000000BRBBASACNOR3259
012016072278BBASI82     070BBAS        ON      NM000R$  000000000011200000000001120000000000109000000000010900000000001090000000000001000000000000000003000000000000005100000000000000556200000000000222702016091900000010000000000000BRBBASACNOR3260
012016072278BBASI90     070BBAS  FM    ON      NM000R$  000000000016400000000001720000000000164000000000016400000000001710000000000000000000000021300004000000000000010700000000000001759900000000000207702016091900000010000000000000BRBBASACNOR3260
012016072278BBASI94     070BBASE       ON      NM000R$  000000000006300000000000630000000000063000000000006300000000000630000000000005000000000000000001000000000000002000000000000000126000000000000240202016091900000010000000000000BRBBASACNOR3259
012016072278BBASJ21     070BBAS        ON      NM000R$  000000000019000000000001930000000000186000000000018900000000001860000000000168000000000000000003000000000000004800000000000000907900000000000210002016101700000010000000000000BRBBASACNOR3261
012016072278BBASJ53     070BBAS        ON      NM000R$  000000000010500000000001050000000000105000000000010500000000001050000000000000000000000000000002000000000000023000000000000002415000000000000235002016101700000010000000000000BRBBASACNOR3261
012016072278BBASJ73     070BBASE       ON      NM000R$  000000000008900000000000890000000000072000000000007200000000000720000000000000000000000000000002000000000000005000000000000000361700000000000237502016101700000010000000000000BRBBASACNOR3261
012016072278BBASJ95     070BBAS        ON      NM000R$  000000000008500000000000850000000000085000000000008500000000000850000000000080000000000000000002000000000000020000000000000001700000000000000240002016101700000010000000000000BRBBASACNOR3254
012016072278BBASK77     070BBASE       ON      NM000R$  000000000040500000000004050000000000405000000000040500000000004050000000000000000000000000000001000000000000003000000000000001215000000000000179802016112100000010000000000000BRBBASACNOR3261
012016072278BBASK91     070BBASE       ON      NM000R$  000000000020500000000002050000000000205000000000020500000000002050000000000000000000000000000001000000000000003000000000000000615000000000000214802016112100000010000000000000BRBBASACNOR3261
012016072278BBASL24     070BBAS        ON      NM000R$  000000000014700000000001470000000000145000000000014600000000001450000000000140000000000000000002000000000000000200000000000000029200000000000238802016121900000010000000000000BRBBASACNOR3260
012016072282BBAST16     080BBASE       ON      NM000R$  000000000000400000000000040000000000002000000000000300000000000020000000000002000000000000500003000000000000001700000000000000005600000000000158802016081500000010000000000000BRBBASACNOR3259
012016072282BBAST17     080BBASE       ON      NM000R$  000000000000500000000000050000000000005000000000000500000000000050000000000005000000000000700002000000000000030000000000000000150000000000000168802016081500000010000000000000BRBBASACNOR3259
012016072282BBAST18     080BBASE       ON      NM000R$  000000000001200000000000130000000000009000000000001000000000000120000000000006000000000001300064000000000000131400000000000001444100000000000178802016081500000010000000000000BRBBASACNOR3259
012016072282BBAST19     080BBASE       ON      NM000R$  000000000002500000000000270000000000021000000000002400000000000240000000000024000000000002500070000000000000187200000000000004522600000000000188802016081500000010000000000000BRBBASACNOR3259
012016072282BBAST20     080BBASE FM    ON      NM000R$  000000000005100000000000510000000000043000000000004700000000000500000000000040000000000006000026000000000000071100000000000003406100000000000198802016081500000010000000000000BRBBASACNOR3259
012016072282BBAST21     080BBASE FM    ON      NM000R$  000000000007500000000000990000000000075000000000008900000000000990000000000089000000000009900021000000000000031700000000000002837400000000000208802016081500000010000000000000BRBBASACNOR3259
012016072282BBAST44     080BBASE       ON      NM000R$  000000000000100000000000010000000000001000000000000100000000000010000000000000000000000000300001000000000000009800000000000000009800000000000143802016081500000010000000000000BRBBASACNOR3261
012016072282BBAST45     080BBASE       ON      NM000R$  000000000000400000000000040000000000001000000000000200000000000020000000000001000000000000400006000000000000026000000000000000059800000000000153802016081500000010000000000000BRBBASACNOR3259
012016072282BBAST48     080BBASE       ON      NM000R$  000000000001800000000000180000000000015000000000001600000000000170000000000007000000000002400008000000000000028600000000000000462000000000000183802016081500000010000000000000BRBBASACNOR3259
012016072282BBAST49     080BBASE FM    ON      NM000R$  000000000003300000000000330000000000033000000000003300000000000330000000000000000000000008000002000000000000005000000000000000165000000000000193802016081500000010000000000000BRBBASACNOR3259
012016072282BBAST50     080BBASE       ON      NM000R$  000000000006300000000000670000000000058000000000006500000000000660000000000000000000000010000010000000000000013200000000000000858800000000000203802016081500000010000000000000BRBBASACNOR3259
012016072282BBAST51     080BBASE       ON      NM000R$  000000000010900000000001090000000000104000000000010600000000001050000000000078000000000000000008000000000000011200000000000001197300000000000211302016081500000010000000000000BRBBASACNOR3259
012016072282BBAST62     080BBASE       ON      NM000R$  000000000017000000000001700000000000170000000000017000000000001700000000000000000000000000000002000000000000001200000000000000204000000000000221302016081500000010000000000000BRBBASACNOR3259
012016072282BBAST69     080BBASE       ON      NM000R$  000000000003100000000000310000000000027000000000002900000000000300000000000000000000000003800015000000000000015100000000000000444500000000000191302016081500000010000000000000BRBBASACNOR3259
012016072282BBAST79     080BBASE       ON      NM000R$  000000000001900000000000190000000000019000000000001900000000000190000000000000000000000015000008000000000000012500000000000000237500000000000186302016081500000010000000000000BRBBASACNOR3253
012016072282BBAST80     080BBASE       ON      NM000R$  000000000008000000000000840000000000080000000000008200000000000840000000000065000000000000000004000000000000004600000000000000380300000000000206302016081500000010000000000000BRBBASACNOR3259
012016072282BBAST95     080BBASE FM    ON      NM000R$  000000000015800000000001580000000000158000000000015800000000001580000000000001000000000000000001000000000000005300000000000000837400000000000218802016081500000010000000000000BRBBASACNOR3253
012016072282BBASU19     080BBASE FM    ON      NM000R$  000000000007200000000000730000000000069000000000007100000000000730000000000000000000000019900004000000000000005900000000000000423600000000000192702016091900000010000000000000BRBBASACNOR3260
012016072282BBASU20     080BBASE FM    ON      NM000R$  000000000008400000000000900000000000084000000000008600000000000900000000000000000000000000000002000000000000007500000000000000645000000000000197702016091900000010000000000000BRBBASACNOR3259
012016072282BBASU22     080BBASE FM    ON      NM000R$  000000000018300000000001860000000000181000000000018300000000001820000000000000000000000000000012000000000000002200000000000000404500000000000217702016091900000010000000000000BRBBASACNOR3259
012016072282BBASU48     080BBASE       ON      NM000R$  000000000004400000000000440000000000042000000000004300000000000420000000000000000000000009000008000000000000041000000000000001777800000000000182702016091900000010000000000000BRBBASACNOR3259
012016072282BBASU51     080BBASE       ON      NM000R$  000000000015600000000001560000000000152000000000015300000000001520000000000000000000000000000003000000000000002800000000000000429600000000000212702016091900000010000000000000BRBBASACNOR3259
012016072282BBASU68     080BBASE       ON      NM000R$  000000000005400000000000550000000000053000000000005300000000000530000000000000000000000000000023000000000000103000000000000005553000000000000187702016091900000010000000000000BRBBASACNOR3260
012016072282BBASU69     080BBASE       ON      NM000R$  000000000006400000000000640000000000064000000000006400000000000640000000000000000000000000000001000000000000002000000000000000128000000000000190202016091900000010000000000000BRBBASACNOR3260
012016072282BBASU79     080BBASE       ON      NM000R$  000000000008300000000000830000000000077000000000008100000000000770000000000011000000000000000003000000000000001500000000000000121500000000000195202016091900000010000000000000BRBBASACNOR3259
012016072282BBASU90     080BBASE FM    ON      NM000R$  000000000013100000000001310000000000131000000000013100000000001310000000000000000000000018000001000000000000000200000000000000026200000000000207702016091900000010000000000000BRBBASACNOR3260
012016072282BBASV18     080BBASE       ON      NM000R$  000000000004900000000000490000000000049000000000004900000000000490000000000000000000000000000001000000000000002000000000000000098000000000000180002016101700000010000000000000BRBBASACNOR3261
012016072202BBDC3       010BRADESCO    ON      N1   R$  000000000295900000000029880000000002944000000000297100000000029700000000002967000000000297506105000000000001086800000000003229025300000000000000009999123100000010000000000000BRBBDCACNOR1651
012016072296BBDC3F      020BRADESCO    ON      N1   R$  000000000295000000000029820000000002950000000000296800000000029700000000002960000000000297000080000000000000001206000000000003580719000000000000009999123100000010000000000000BRBBDCACNOR1651
012016072202BBDC4       010BRADESCO    PN      N1   R$  000000000288100000000029200000000002857000000000289500000000029000000000002900000000000290518976000000000006896000000000019966455700000000000000009999123100000010000000000000BRBBDCACNPR8651
012016072296BBDC4F      020BRADESCO    PN      N1   R$  000000000285700000000029160000000002852000000000289200000000029100000000002905000000000291000246000000000000006331000000000018311955000000000000009999123100000010000000000000BRBBDCACNPR8651
012016072262BBDC4T      030BRADESCO    PN      N1031R$  000000000289300000000028940000000002893000000000289300000000028940000000000000000000000000000006000000000000030000000000000086791845000000000000009999123100000010000000000000BRBBDCACNPR8651
012016072278BBDCA91     070BBDCE       PN      N1000R$  000000000048300000000004830000000000443000000000044300000000004430000000000000000000000000000002000000000000220100000000000097508300000000000317502018011500000010000000000000BRBBDCACNPR8651
012016072278BBDCG98     070BBDCE       PN      N1000R$  000000000022900000000002290000000000228000000000022800000000002280000000000000000000000000000002000000000000019000000000000004332100000000000345302017071700000010000000000000BRBBDCACNPR8645
012016072278BBDCH10     070BBDC        PN      N1000R$  000000000024800000000002480000000000248000000000024800000000002480000000000215000000000025400001000000000000002000000000000000496000000000000269202016081500000010000000000000BRBBDCACNPR8631
012016072278BBDCH11     070BBDC        PN      N1000R$  000000000020500000000002250000000000200000000000020300000000002250000000000205000000000000000007000000000000008300000000000001686000000000000273702016081500000010000000000000BRBBDCACNPR8631
012016072278BBDCH17     070BBDC        PN      N1000R$  000000000030000000000003400000000000300000000000031500000000003400000000000315000000000000000003000000000000000800000000000000252000000000000260102016081500000010000000000000BRBBDCACNPR8620
012016072278BBDCH31     070BBDC  FM    PN      N1000R$  000000000002000000000000220000000000017000000000001800000000000190000000000016000000000002400070000000000000069700000000000001313700000000000315802016081500000010000000000000BRBBDCACNPR8648
012016072278BBDCH33     070BBDC  FM    PN      N1000R$  000000000015500000000001800000000000151000000000015500000000001800000000000161000000000021200009000000000000020900000000000003242300000000000278702016081500000010000000000000BRBBDCACNPR8649
012016072278BBDCH70     070BBDCE       PN      N1000R$  000000000103400000000010340000000001034000000000103400000000010340000000000000000000000000000001000000000000086900000000000089854600000000000188102016081500000010000000000000BRBBDCACNPR8645
012016072278BBDCH73     070BBDCE       PN      N1000R$  000000000004600000000000500000000000037000000000004300000000000500000000000040000000000000000065000000000000061900000000000002717200000000000303302016081500000010000000000000BRBBDCACNPR8646
012016072278BBDCH88     070BBDCE       PN      N1000R$  000000000010500000000001330000000000105000000000011600000000001230000000000100000000000000000011000000000000029100000000000003391300000000000286202016081500000010000000000000BRBBDCACNPR8648
012016072278BBDCH89     070BBDC  FM    PN      N1000R$  000000000010800000000001190000000000096000000000010700000000001120000000000076000000000000000071000000000000055500000000000005969200000000000288702016081500000010000000000000BRBBDCACNPR8651
012016072278BBDCH90     070BBDC  FM    PN      N1000R$  000000000005300000000000660000000000053000000000006100000000000650000000000051000000000007200009000000000000014200000000000000871800000000000298702016081500000010000000000000BRBBDCACNPR8651
012016072278BBDCH91     070BBDCE       PN      N1000R$  000000000002200000000000240000000000022000000000002300000000000240000000000021000000000002500006000000000000022600000000000000530900000000000313302016081500000010000000000000BRBBDCACNPR8647
012016072278BBDCH97     070BBDC        PN      N1000R$  000000000008600000000000860000000000080000000000008400000000000810000000000000000000000010000005000000000000008000000000000000672000000000000293702016081500000010000000000000BRBBDCACNPR8651
012016072278BBDCI1      070BBDC  FM    PN      N1000R$  000000000024700000000002520000000000247000000000024900000000002520000000000000000000000000000004000000000000000800000000000000199200000000000277402016091900000010000000000000BRBBDCACNPR8637
012016072278BBDCI32     070BBDC        PN      N1000R$  000000000015000000000001660000000000150000000000015100000000001660000000000000000000000000000004000000000000004300000000000000649800000000000291102016091900000010000000000000BRBBDCACNPR8646
012016072278BBDCI46     070BBDC  FM    PN      N1000R$  000000000010700000000001250000000000107000000000011000000000001240000000000000000000000013500051000000000000006800000000000000752500000000000301102016091900000010000000000000BRBBDCACNPR8651
012016072278BBDCI52     070BBDC  FM    PN      N1000R$  000000000008600000000000870000000000082000000000008500000000000820000000000082000000000000000007000000000000001500000000000000127600000000000311102016091900000010000000000000BRBBDCACNPR8651
012016072278BBDCI53     070BBDCE       PN      N1000R$  000000000087500000000008800000000000875000000000087800000000008800000000000000000000000000000003000000000000001000000000000000878300000000000207002016091900000010000000000000BRBBDCACNPR8645
012016072278BBDCI67     070BBDCE       PN      N1000R$  000000000004000000000000470000000000038000000000004100000000000470000000000010000000000004700004000000000000013200000000000000547600000000000329702016091900000010000000000000BRBBDCACNPR8632
012016072278BBDCI70     070BBDCE       PN      N1000R$  000000000053000000000005300000000000530000000000053000000000005300000000000000000000000000000001000000000000110000000000000058300000000000000243302016091900000010000000000000BRBBDCACNPR8632
012016072278BBDCJ78     070BBDC        PN      N1000R$  000000000042200000000004220000000000422000000000042200000000004220000000000000000000000000000001000000000000012900000000000005443800000000000257202016101700000010000000000000BRBBDCACNPR8638
012016072278BBDCK14     070BBDCE       PN      N1000R$  000000000042900000000004290000000000308000000000030800000000003180000000000000000000000000000003000000000000028200000000000008698700000000000347502017112100000010000000000000BRBBDCACNPR8651
012016072278BBDCK29     070BBDCE       PN      N1000R$  000000000014600000000001460000000000145000000000014500000000001450000000000000000000000000000002000000000000150000000000000021843100000000000392502017112100000010000000000000BRBBDCACNPR8651
012016072278BBDCK4      070BBDCE       PN      N1000R$  000000000018500000000001860000000000185000000000018500000000001860000000000000000000000000000004000000000000015500000000000002874800000000000387502017112100000010000000000000BRBBDCACNPR8651
012016072278BBDCK8      070BBDCE       PN      N1000R$  000000000018600000000001860000000000185000000000018500000000001850000000000000000000000000000002000000000000050000000000000009295800000000000377502017112100000010000000000000BRBBDCACNPR8651
012016072278BBDCK82     070BBDCE       PN      N1000R$  000000000106400000000010640000000001064000000000106400000000010640000000000000000000000000000001000000000000086900000000000092461600000000000191402016112100000010000000000000BRBBDCACNPR8638
012016072278BBDCK89     070BBDCE       ON      N1000R$  000000000020000000000002000000000000165000000000016600000000001650000000000000000000000000000002000000000000003400000000000000564500000000000392502017112100000010000000000000BRBBDCACNOR1651
012016072278BBDCL62     070BBDCE       PN      N1000R$  000000000010400000000001040000000000104000000000010400000000001040000000000000000000000000000002000000000000001300000000000000135200000000000322802016121900000010000000000000BRBBDCACNPR8651
012016072282BBDCM54     080BBDCE       PN      N1000R$  000000000009300000000000930000000000093000000000009300000000000930000000000000000000000000000002000000000000220100000000000020469300000000000245002018011500000010000000000000BRBBDCACNPR8651
012016072282BBDCM88     080BBDCE       PN      N1000R$  000000000020100000000002010000000000201000000000020100000000002010000000000000000000000000000002000000000000220100000000000044240100000000000287502018011500000010000000000000BRBBDCACNPR8651
012016072282BBDCS42     080BBDCE       PN      N1000R$  000000000022500000000002250000000000225000000000022500000000002250000000000000000000000000000001000000000000019000000000000004275000000000000295302017071700000010000000000000BRBBDCACNPR8645
012016072282BBDCT10     080BBDCE FM    PN      N1000R$  000000000002100000000000210000000000021000000000002100000000000210000000000000000000000005000001000000000000001500000000000000031500000000000269202016081500000010000000000000BRBBDCACNPR8631
012016072282BBDCT11     080BBDCE       PN      N1000R$  000000000004200000000000420000000000022000000000002600000000000220000000000000000000000000000012000000000000071000000000000001893800000000000273702016081500000010000000000000BRBBDCACNPR8631
012016072282BBDCT16     080BBDCE       PN      N1000R$  000000000001100000000000110000000000011000000000001100000000000110000000000000000000000000000001000000000000003000000000000000033000000000000252402016081500000010000000000000BRBBDCACNPR8620
012016072282BBDCT17     080BBDCE       PN      N1000R$  000000000001200000000000120000000000010000000000001000000000000120000000000010000000000002700005000000000000035850000000000000393700000000000260102016081500000010000000000000BRBBDCACNPR8620
012016072282BBDCT30     080BBDCE       PN      N1000R$  000000000003400000000000340000000000024000000000002800000000000240000000000000000000000003400010000000000000025750000000000000728000000000000271402016081500000010000000000000BRBBDCACNPR8646
012016072282BBDCT33     080BBDCE FM    PN      N1000R$  000000000004400000000000440000000000035000000000004000000000000370000000000035000000000003700014000000000000055000000000000002202000000000000278702016081500000010000000000000BRBBDCACNPR8649
012016072282BBDCT79     080BBDCE       PN      N1000R$  000000000002500000000000250000000000017000000000002000000000000180000000000000000000000002000022000000000000037900000000000000787080000000000266902016081500000010000000000000BRBBDCACNPR8645
012016072282BBDCT88     080BBDCE       PN      N1000R$  000000000008200000000000820000000000060000000000008000000000000600000000000000000000000008000005000000000000012200000000000000977000000000000286202016081500000010000000000000BRBBDCACNPR8648
012016072282BBDCT89     080BBDCE FM    PN      N1000R$  000000000007400000000000740000000000074000000000007400000000000740000000000000000000000000000002000000000000006500000000000000481000000000000288702016081500000010000000000000BRBBDCACNPR8651
012016072282BBDCT97     080BBDCE       PN      N1000R$  000000000008800000000000880000000000088000000000008800000000000880000000000000000000000011300002000000000000003000000000000000264000000000000293702016081500000010000000000000BRBBDCACNPR8651
012016072282BBDCU20     080BBDCE       PN      N1000R$  000000000000100000000000010000000000001000000000000100000000000010000000000000000000000000000001000000000000110000000000000000110000000000000177402016091900000010000000000000BRBBDCACNPR8645
012016072282BBDCU53     080BBDCE       PN      N1000R$  000000000000100000000000010000000000001000000000000100000000000010000000000000000000000000000001000000000000110000000000000000110000000000000207002016091900000010000000000000BRBBDCACNPR8645
012016072282BBDCU68     080BBDCE FM    PN      N1000R$  000000000012200000000001220000000000122000000000012200000000001220000000000000000000000000000001000000000000000100000000000000012200000000000287002016091900000010000000000000BRBBDCACNPR8651
012016072282BBDCW11     080BBDCE       PN      N1000R$  000000000006300000000000630000000000063000000000006300000000000630000000000000000000000000000002000000000000015500000000000000976500000000000230002017112100000010000000000000BRBBDCACNPR8651
012016072282BBDCW12     080BBDCE       PN      N1000R$  000000000024500000000002450000000000245000000000024500000000002450000000000000000000000000000002000000000000015500000000000003797500000000000290002017112100000010000000000000BRBBDCACNPR8651
012016072282BBDCW31     080BBDCE       PN      N1000R$  000000000037700000000003770000000000298000000000030400000000002980000000000000000000000000000003000000000000028200000000000008579500000000000310002017112100000010000000000000BRBBDCACNPR8651
012016072282BBDCW53     080BBDCE       ON      N1000R$  000000000004000000000000400000000000031000000000003100000000000310000000000000000000000000000002000000000000003400000000000000106300000000000237502017112100000010000000000000BRBBDCACNOR1651
012016072282BBDCW6      080BBDCE       PN      N1000R$  000000000006100000000000610000000000061000000000006100000000000610000000000000000000000000000001000000000000050000000000000003050000000000000227502017112100000010000000000000BRBBDCACNPR8651
012016072282BBDCW69     080BBDCE       ON      N1000R$  000000000016600000000001910000000000166000000000019000000000001910000000000000000000000000000002000000000000003400000000000000646900000000000297502017112100000010000000000000BRBBDCACNOR1651
012016072282BBDCW7      080BBDCE       PN      N1000R$  000000000024500000000002450000000000204000000000021400000000002040000000000000000000000000000002000000000000200000000000000042850000000000000287502017112100000010000000000000BRBBDCACNPR8651
012016072282BBDCW85     080BBDCE       PN      N1000R$  000000000007500000000000750000000000061000000000006100000000000610000000000000000000000012500002000000000000150100000000000009157500000000000250002017112100000010000000000000BRBBDCACNPR8651
012016072282BBDCX55     080BBDCE       PN      N1000R$  000000000005800000000000580000000000058000000000005800000000000580000000000000000000000000000001000000000000001300000000000000075400000000000255102016121900000010000000000000BRBBDCACNPR8647
012016072282BBDCX98     080BBDCE       PN      N1000R$  000000000016200000000001620000000000162000000000016200000000001620000000000000000000000000000002000000000000001300000000000000210600000000000286302016121900000010000000000000BRBBDCACNPR8651
012016072212BBFI11B     010FII BB PROGRCI      MB   R$  000000023900000000002390000000000238505000000023895800000002390000000000238501000000023900000005000000000000000012000000000002867505000000000000009999123100000010000000000000BRBBFICTF006232
012016072212BBPO11      010FII BB PRGIICI           R$  000000001179800000000119500000000011606000000001171000000000119500000000011685000000001180000356000000000000035613000000000417031275000000000000009999123100000010000000000000BRBBPOCTF003144
012016072212BBRC11      010FII BB CORP CI           R$  000000001060100000000106890000000010500000000001059200000000105000000000010500000000001059900009000000000000000300000000000003177780000000000000009999123100000010000000000000BRBBRCCTF004158
012016072202BBRK3       010BR BROKERS  ON      NM   R$  000000000017900000000001860000000000175000000000017700000000001760000000000175000000000018100211000000000000073300000000000013018400000000000000009999123100000010000000000000BRBBRKACNOR4110
012016072296BBRK3F      020BR BROKERS  ON      NM   R$  000000000018000000000001800000000000180000000000018000000000001800000000000141000000000018100001000000000000000030000000000000005400000000000000009999123100000010000000000000BRBBRKACNOR4110
012016072214BBSD11      010BB ETF SP DVCI           R$  000000000408100000000041060000000004081000000000409800000000041050000000000000000000000000000004000000000000000050000000000000204920000000000000009999123100000010000000000000BRBBSDCTF000100
012016072202BBSE3       010BBSEGURIDADEON      NM   R$  000000000295600000000029980000000002956000000000297600000000029700000000002967000000000297107569000000000001985000000000005909168100000000000000009999123100000010000000000000BRBBSEACNOR5106
012016072296BBSE3F      020BBSEGURIDADEON      NM   R$  000000000296900000000030000000000002951000000000297500000000029790000000002971000000000297900133000000000000003169000000000009430446000000000000009999123100000010000000000000BRBBSEACNOR5106
012016072262BBSE3T      030BBSEGURIDADEON      NM060R$  000000000303800000000030400000000003036000000000303700000000030370000000000000000000000000000006000000000000004500000000000013670860000000000000009999123100000010000000000000BRBBSEACNOR5106
012016072278BBSEH29     070BBSE        ON      NM000R$  000000000011800000000001280000000000118000000000012200000000001200000000000000000000000017800003000000000000002500000000000000307000000000000292902016081500000010000000000000BRBBSEACNOR5106
012016072278BBSEH30     070BBSE        ON      NM000R$  000000000006800000000000730000000000060000000000006500000000000600000000000000000000000009000013000000000000022600000000000001488800000000000302902016081500000010000000000000BRBBSEACNOR5106
012016072278BBSEH31     070BBSE        ON      NM000R$  000000000003600000000000360000000000036000000000003600000000000360000000000000000000000003700004000000000000015000000000000000540000000000000312902016081500000010000000000000BRBBSEACNOR5106
012016072278BBSEH32     070BBSE        ON      NM000R$  000000000001800000000000180000000000018000000000001800000000000180000000000000000000000002300001000000000000000300000000000000005400000000000322902016081500000010000000000000BRBBSEACNOR5106
012016072278BBSEH56     070BBSE        ON      NM000R$  000000000032000000000003200000000000320000000000032000000000003200000000000000000000000000000007000000000000012000000000000003840000000000000267902016081500000010000000000000BRBBSEACNOR5106
012016072278BBSEH58     070BBSE  FM    ON      NM000R$  000000000014800000000001480000000000148000000000014800000000001480000000000000000000000000000001000000000000000100000000000000014800000000000287902016081500000010000000000000BRBBSEACNOR5106
012016072278BBSEH62     070BBSE  FM    ON      NM000R$  000000000001400000000000140000000000014000000000001400000000000140000000000000000000000000000001000000000000001000000000000000014000000000000327902016081500000010000000000000BRBBSEACNOR5106
012016072278BBSEI31     070BBSE        ON      NM000R$  000000000009400000000000940000000000094000000000009400000000000940000000000000000000000000000001000000000000000300000000000000028200000000000312902016091900000010000000000000BRBBSEACNOR5106
012016072278BBSEI80     070BBSE  FM    ON      NM000R$  000000000010200000000001020000000000102000000000010200000000001020000000000005000000000000000001000000000000000400000000000000040800000000000307902016091900000010000000000000BRBBSEACNOR5106
012016072278BBSEJ32     070BBSE        ON      NM000R$  000000000009700000000000970000000000097000000000009700000000000970000000000080000000000000000001000000000000000300000000000000029100000000000320002016101700000010000000000000BRBBSEACNOR5106
012016072278BBSEJ77     070BBSEE       ON      NM000R$  000000000032700000000003270000000000327000000000032700000000003270000000000000000000000000000002000000000000018000000000000005886000000000000277502016101700000010000000000000BRBBSEACNOR5106
012016072202BBTG11      010BTG PACTUAL UNT          R$  000000000166700000000017230000000001667000000000170500000000017230000000001707000000000172300650000000000001069500000000001824179900000000000000009999123100000010000000000000BRBBTGUNT007114
012016072296BBTG11F     020BTG PACTUAL UNT          R$  000000000167000000000017220000000001670000000000170300000000017220000000001651000000000172200011000000000000000428000000000000729174000000000000009999123100000010000000000000BRBBTGUNT007114
012016072262BBTG11T     030BTG PACTUAL UNT       180R$  000000000182300000000018240000000001823000000000182300000000018240000000000000000000000000000002000000000000880000000000001604377720000000000000009999123100000010000000000000BRBBTGUNT007114
012016072212BBVJ11      010FII C JARDIMCI           R$  000000000535000000000053530000000005300000000000532000000000053030000000005350000000000539000023000000000000003114000000000016568501000000000000009999123100000010000000000000BRBBVJCTF001167
012016072212BCFF11B     010FII BC FFII CI      MB   R$  000000000698100000000070100000000006950000000000698500000000070000000000006984000000000700000055000000000000004334000000000030276606000000000000009999123100000010000000000000BRBCFFCTF000176
012016072212BCRI11      010FII BEES CRICI           R$  000000001028000000000102800000000010280000000001028000000000102800000000010200000000001028000008000000000000000332000000000003412960000000000000009999123100000010000000000000BRBCRICTF009112
012016072202BEEF3       010MINERVA     ON      NM   R$  000000000096400000000009760000000000940000000000095100000000009470000000000945000000000094704274000000000001651400000000001570707600000000000000009999123100000010000000000000BRBEEFACNOR6106
012016072296BEEF3F      020MINERVA     ON      NM   R$  000000000096600000000009660000000000938000000000095400000000009440000000000920000000000095700018000000000000000576000000000000550055000000000000009999123100000010000000000000BRBEEFACNOR6106
012016072262BEEF3T      030MINERVA     ON      NM031R$  000000000097000000000009710000000000962000000000096400000000009630000000000000000000000000000012000000000000037400000000000036087146000000000000009999123100000010000000000000BRBEEFACNOR6106
012016072262BEEF3T      030MINERVA     ON      NM060R$  000000000097000000000009710000000000970000000000097000000000009710000000000000000000000000000002000000000000001000000000000000970781000000000000009999123100000010000000000000BRBEEFACNOR6106
012016072262BEEF3T      030MINERVA     ON      NM180R$  000000000103100000000010320000000001031000000000103100000000010320000000000000000000000000000002000000000000000100000000000000103149000000000000009999123100000010000000000000BRBEEFACNOR6106
012016072202BEES3       010BANESTES    ON  EJ       R$  000000000023800000000002450000000000236000000000023900000000002420000000000242000000000024300024000000000000013000000000000003110300000000000000009999123100000010000000000000BRBEESACNOR9284
012016072296BEES3F      020BANESTES    ON  EJ       R$  000000000020700000000002070000000000207000000000020700000000002070000000000207000000000000000001000000000000000050000000000000010350000000000000009999123100000010000000000000BRBEESACNOR9284
012016072202BEES4       010BANESTES    PN  EJ       R$  000000000025900000000002600000000000250000000000025700000000002600000000000252000000000026000007000000000000001100000000000000283300000000000000009999123100000010000000000000BRBEESACNPR6209
012016072202BERK34      010BERKSHIRE   DRN          R$  000000004726400000000474560000000047264000000004736000000000474560000000042750000000005200000002000000000000000200000000000009472000000000000000009999123100000010000000000000BRBERKBDR002100
012016072202BGIP4       010BANESE      PN           R$  000000000130000000000013000000000001300000000000130000000000013000000000001260000000000137400001000000000000000100000000000000130000000000000000009999123100000010000000000000BRBGIPACNPR8186
012016072202BIIB34      010BIOGEN      DRN          R$  000000001583500000000158350000000015835000000001583500000000158350000000000000000000000000000001000000000000000100000000000001583500000000000000009999123100000010000000000000BRBIIBBDR001100
012016072202BMEB4       010MERC BRASIL PN           R$  000000000051000000000005100000000000510000000000051000000000005100000000000510000000000053000001000000000000000100000000000000051000000000000000009999123100000010000000000000BRBMEBACNPR5195
012016072202BMIN4       010MERC INVEST PN           R$  000000000003000000000000310000000000030000000000003000000000000310000000000030000000000003100004000000000000007000000000000000213000000000000000009999123100000010000000000000BRBMINACNPR1165
012016072296BMIN4F      020MERC INVEST PN           R$  000000000003200000000000320000000000032000000000003200000000000320000000000031000000000003200004000000000000000220000000000000007040000000000000009999123100000010000000000000BRBMINACNPR1165
012016072212BMLC11B     010FII BMBRC LCCI      MB   R$  000000000865100000000087000000000008650000000000867000000000087000000000008700000000000880000013000000000000000562000000000004872999000000000000009999123100000010000000000000BRBMLCCTF004153
012016072202BMTO4       010BRASMOTOR   PN           R$  000000000071100000000007110000000000711000000000071100000000007110000000000706000000000071100002000000000000000800000000000000568800000000000000009999123100000010000000000000BRBMTOACNPR6071
012016072202BMYB34      010BRISTOLMYERSDRN          R$  000000002483000000000248300000000024830000000002483000000000248300000000000000000000000000000001000000000000001900000000000047177000000000000000009999123100000010000000000000BRBMYBBDR000111
012016072202BNBR3       010NORD BRASIL ON           R$  000000000230000000000023000000000002300000000000230000000000023000000000002300000000000248000001000000000000000200000000000000460000000000000000009999123100000010000000000000BRBNBRACNOR8192
012016072212BNFS11      010FII BANRISULCI           R$  000000001068900000000106900000000010689000000001068900000000106900000000010501000000001069000002000000000000000002000000000000021379000000000000009999123100000010000000000000BRBNFSCTF000146
012016072202BOBR4       010BOMBRIL     PN           R$  000000000016000000000001600000000000160000000000016000000000001600000000000156000000000016000008000000000000004600000000000000736000000000000000009999123100000010000000000000BRBOBRACNPR3128
012016072296BOBR4F      020BOMBRIL     PN           R$  000000000016500000000001650000000000165000000000016500000000001650000000000165000000000017900004000000000000000110000000000000018150000000000000009999123100000010000000000000BRBOBRACNPR3128
012016072214BOVA11      010ISHARES BOVACI           R$  000000000550000000000055450000000005482000000000552300000000055050000000005504000000000553514599000000000001184200000000006540356330000000000000009999123100000010000000000000BRBOVACTF003102
012016072296BOVA11F     020ISHARES BOVACI           R$  000000000540000000000055480000000005400000000000549800000000055320000000005403000000000555300023000000000000000112000000000000615878000000000000009999123100000010000000000000BRBOVACTF003102
012016072278BOVAH50     070BOVA        CI        000R$  000000000056300000000005630000000000563000000000056300000000005630000000000000000000000000000001000000000000000200000000000000112600000000000500002016081500000010000000000000BRBOVACTF003102
012016072278BOVAH51     070BOVA        CI        000R$  000000000048100000000004810000000000481000000000048100000000004810000000000000000000000000000001000000000000005000000000000002405000000000000510002016081500000010000000000000BRBOVACTF003102
012016072278BOVAH53     070BOVA        CI        000R$  000000000029100000000002910000000000290000000000029000000000002900000000000000000000000000000002000000000000000500000000000000145200000000000530002016081500000010000000000000BRBOVACTF003102
012016072278BOVAH54     070BOVA  FM    CI        000R$  000000000020500000000002270000000000201000000000022200000000002230000000000224000000000000000011000000000000006900000000000001535200000000000540002016081500000010000000000000BRBOVACTF003102
012016072278BOVAH55     070BOVA  FM    CI        000R$  000000000015200000000001520000000000147000000000015000000000001500000000000000000000000000000005000000000000008250000000000001241050000000000550002016081500000010000000000000BRBOVACTF003102
012016072278BOVAH56     070BOVA  FM    CI        000R$  000000000008300000000000940000000000083000000000009200000000000920000000000000000000000009500020000000000000017100000000000001573500000000000560002016081500000010000000000000BRBOVACTF003102
012016072278BOVAH57     070BOVA  FM    CI        000R$  000000000005500000000000550000000000051000000000005300000000000510000000000000000000000000000003000000000000003100000000000000164300000000000570002016081500000010000000000000BRBOVACTF003102
012016072278BOVAH58     070BOVA  FM    CI        000R$  000000000002600000000000260000000000026000000000002600000000000260000000000000000000000000000002000000000000002700000000000000070200000000000580002016081500000010000000000000BRBOVACTF003102
012016072278BOVAI58     070BOVA  FM    CI        000R$  000000000009100000000001090000000000091000000000010200000000001060000000000000000000000010700014000000000000002300000000000000236600000000000580002016091900000010000000000000BRBOVACTF003102
012016072282BOVAT52     080BOVAE       CI        000R$  000000000001600000000000160000000000016000000000001600000000000160000000000015000000000000000002000000000000000330000000000000005280000000000520002016081500000010000000000000BRBOVACTF003102
012016072282BOVAT53     080BOVAE FM    CI        000R$  000000000003600000000000360000000000036000000000003600000000000360000000000000000000000000000001000000000000002500000000000000090000000000000530002016081500000010000000000000BRBOVACTF003102
012016072282BOVAT54     080BOVAE FM    CI        000R$  000000000004900000000000490000000000049000000000004900000000000490000000000000000000000000000001000000000000012000000000000000588000000000000540002016081500000010000000000000BRBOVACTF003102
012016072282BOVAT55     080BOVAE FM    CI        000R$  000000000008900000000000890000000000072000000000008200000000000720000000000000000000000007200008000000000000007700000000000000638400000000000550002016081500000010000000000000BRBOVACTF003102
012016072282BOVAT56     080BOVAE FM    CI        000R$  000000000012200000000001220000000000121000000000012100000000001210000000000000000000000012100003000000000000007600000000000000922200000000000560002016081500000010000000000000BRBOVACTF003102
012016072282BOVAU53     080BOVAE FM    CI        000R$  000000000007200000000000720000000000072000000000007200000000000720000000000000000000000000000001000000000000002500000000000000180000000000000530002016091900000010000000000000BRBOVACTF003102
012016072282BOVAU56     080BOVAE FM    CI        000R$  000000000016400000000001640000000000164000000000016400000000001640000000000000000000000000000001000000000000002500000000000000410000000000000560002016091900000010000000000000BRBOVACTF003102
012016072202BPAN4       010BANCO PAN   PN      N1   R$  000000000015000000000001550000000000147000000000015200000000001530000000000153000000000015400035000000000000052400000000000007976700000000000000009999123100000010000000000000BRBPANACNPR1104
012016072212BPFF11      010FII ABSOLUTOCI           R$  000000000801300000000083000000000008013000000000825400000000083000000000008210000000000830000023000000000000001614000000000013322276000000000000009999123100000010000000000000BRBPFFCTF002139
012016072202BPHA3       010BR PHARMA   ON      NM   R$  000000000057900000000005930000000000560000000000057700000000005730000000000573000000000057400123000000000000061800000000000035689600000000000000009999123100000010000000000000BRBPHAACNOR6104
012016072296BPHA3F      020BR PHARMA   ON      NM   R$  000000000058500000000005850000000000574000000000058100000000005740000000000572000000000059000003000000000000000091000000000000052924000000000000009999123100000010000000000000BRBPHAACNOR6104
012016072202BRAP3       010BRADESPAR   ON      N1   R$  000000000087000000000008800000000000850000000000086200000000008700000000000862000000000087000034000000000000018800000000000016210800000000000000009999123100000010000000000000BRBRAPACNOR5129
012016072296BRAP3F      020BRADESPAR   ON      N1   R$  000000000086400000000008650000000000864000000000086400000000008650000000000863000000000086500002000000000000000005000000000000004323000000000000009999123100000010000000000000BRBRAPACNOR5129
012016072202BRAP4       010BRADESPAR   PN      N1   R$  000000000103900000000010390000000001004000000000101800000000010190000000001019000000000102105146000000000001745900000000001778432900000000000000009999123100000010000000000000BRBRAPACNPR2129
012016072296BRAP4F      020BRADESPAR   PN      N1   R$  000000000100800000000010210000000001003000000000101500000000010200000000001020000000000104000025000000000000000757000000000000768974000000000000009999123100000010000000000000BRBRAPACNPR2129
012016072214BRAX11      010ISHARES BRAXCI           R$  000000000465800000000046740000000004658000000000466300000000046740000000000000000000000000000003000000000000000220000000000001025880000000000000009999123100000010000000000000BRBRAXCTF002100
012016072212BRCR11      010FII BC FUND CI           R$  000000000964000000000096980000000009600000000000962500000000096040000000009604000000000965000556000000000000026523000000000255296807000000000000009999123100000010000000000000BRBRCRCTF000167
012016072202BRFS3       010BRF SA      ON  EJ  NM   R$  000000000527000000000053460000000005135000000000518800000000051650000000005162000000000516609839000000000002225700000000011546778200000000000000009999123100000010000000000000BRBRFSACNOR8117
012016072296BRFS3F      020BRF SA      ON  EJ  NM   R$  000000000508000000000053240000000005080000000000518800000000051670000000005150000000000516700187000000000000004348000000000022558783000000000000009999123100000010000000000000BRBRFSACNOR8117
012016072278BRFSH18     070BRFS    /EJ ON      NM000R$  000000000040000000000004000000000000400000000000040000000000004000000000000400000000000000000002000000000000000300000000000000120000000000000479702016081500000010000000000000BRBRFSACNOR8116
012016072278BRFSH22     070BRFSE   /EJ ON      NM000R$  000000000014100000000001500000000000134000000000013800000000001340000000000000000000000000000010000000000000017000000000000002347000000000000522202016081500000010000000000000BRBRFSACNOR8116
012016072278BRFSH4      070BRFS  FM/EJ ON      NM000R$  000000000011600000000001240000000000116000000000011800000000001240000000000000000000000000000003000000000000000400000000000000047200000000000537202016081500000010000000000000BRBRFSACNOR8116
012016072278BRFSH51     070BRFS  FM/EJ ON      NM000R$  000000000022000000000002440000000000220000000000022100000000002440000000000000000000000000000002000000000000001300000000000000288400000000000507202016081500000010000000000000BRBRFSACNOR8116
012016072278BRFSH52     070BRFS  FM/EJ ON      NM000R$  000000000019500000000001950000000000162000000000016900000000001670000000000000000000000000000008000000000000007500000000000001274900000000000517202016081500000010000000000000BRBRFSACNOR8115
012016072278BRFSH53     070BRFS  FM/EJ ON      NM000R$  000000000019000000000001900000000000110000000000012100000000001320000000000000000000000012900043000000000000056500000000000006868000000000000527202016081500000010000000000000BRBRFSACNOR8116
012016072278BRFSH54     070BRFSE   /EJ ON      NM000R$  000000000014600000000001460000000000101000000000013300000000001070000000000000000000000010300010000000000000010000000000000001332300000000000532202016081500000010000000000000BRBRFSACNOR8116
012016072278BRFSH55     070BRFS    /EJ ON      NM000R$  000000000007800000000000780000000000060000000000006500000000000600000000000000000000000006200005000000000000002300000000000000150100000000000547202016081500000010000000000000BRBRFSACNOR8116
012016072278BRFSH56     070BRFS    /EJ ON      NM000R$  000000000005600000000000560000000000036000000000004300000000000450000000000000000000000005500021000000000000035200000000000001527700000000000557202016081500000010000000000000BRBRFSACNOR8116
012016072278BRFSJ56     070BRFS    /EJ ON      NM000R$  000000000016500000000001650000000000165000000000016500000000001650000000000165000000000000000002000000000000018500000000000003052500000000000557202016101700000010000000000000BRBRFSACNOR8116
012016072278BRFSK34     070BRFSE       ON      NM000R$  000000000043000000000004300000000000382000000000038300000000003860000000000000000000000000000005000000000000049800000000000019096200000000000649502017112100000010000000000000BRBRFSACNOR8117
012016072282BRFSO98     080BRFSE   /EJ ON      NM000R$  000000000020000000000002000000000000133000000000016300000000001330000000000000000000000000000004000000000000025000000000000004080000000000000474502018031900000010000000000000BRBRFSACNOR8116
012016072282BRFST18     080BRFSE   /EJ ON      NM000R$  000000000004200000000000420000000000042000000000004200000000000420000000000000000000000014000001000000000000001000000000000000042000000000000479702016081500000010000000000000BRBRFSACNOR8116
012016072282BRFST46     080BRFSE   /EJ ON      NM000R$  000000000002800000000000280000000000012000000000001900000000000200000000000005000000000002100015000000000000003800000000000000074700000000000454702016081500000010000000000000BRBRFSACNOR8116
012016072282BRFST48     080BRFSE   /EJ ON      NM000R$  000000000002000000000000310000000000020000000000002300000000000310000000000017000000000000000003000000000000008000000000000000189400000000000472202016081500000010000000000000BRBRFSACNOR8116
012016072282BRFST49     080BRFSE   /EJ ON      NM000R$  000000000002600000000000260000000000026000000000002600000000000260000000000000000000000005600001000000000000001200000000000000031200000000000484702016081500000010000000000000BRBRFSACNOR8116
012016072282BRFST50     080BRFSE FM/EJ ON      NM000R$  000000000004300000000000630000000000043000000000004800000000000630000000000064000000000014300012000000000000015000000000000000724200000000000497202016081500000010000000000000BRBRFSACNOR8116
012016072282BRFST51     080BRFSE FM/EJ ON      NM000R$  000000000011000000000001100000000000110000000000011000000000001100000000000010000000000000000001000000000000000500000000000000055000000000000507202016081500000010000000000000BRBRFSACNOR8116
012016072282BRFSU15     080BRFSE   /EJ ON      NM000R$  000000000004600000000000600000000000046000000000005200000000000570000000000052000000000000000012000000000000022000000000000001151500000000000452902016091900000010000000000000BRBRFSACNOR8116
012016072282BRFSU49     080BRFSE FM/EJ ON      NM000R$  000000000011000000000001100000000000110000000000011000000000001100000000000000000000000000000001000000000000000900000000000000099000000000000487902016091900000010000000000000BRBRFSACNOR8116
012016072282BRFSW13     080BRFSE       ON      NM000R$  000000000012000000000001200000000000100000000000010000000000001000000000000000000000000000000004000000000000049800000000000004982000000000000434502017112100000010000000000000BRBRFSACNOR8117
012016072282BRFSW21     080BRFSE       ON      NM000R$  000000000040000000000004790000000000400000000000047800000000004790000000000000000000000000000004000000000000049800000000000023846300000000000519502017112100000010000000000000BRBRFSACNOR8117
012016072202BRIN3       010BR INSURANCEON      NM   R$  000000000222100000000022220000000001891000000000205300000000020500000000002046000000000205001258000000000000427300000000000877352500000000000000009999123100000010000000000000BRBRINACNOR3111
012016072296BRIN3F      020BR INSURANCEON      NM   R$  000000000220000000000022000000000001900000000000201300000000020600000000002036000000000215000036000000000000000633000000000001274514000000000000009999123100000010000000000000BRBRINACNOR3111
012016072262BRIN3T      030BR INSURANCEON      NM031R$  000000000217400000000021750000000002073000000000209800000000020740000000000000000000000000000010000000000000091000000000000190974563000000000000009999123100000010000000000000BRBRINACNOR3111
012016072262BRIN3T      030BR INSURANCEON      NM060R$  000000000219700000000021980000000002197000000000219700000000021980000000000000000000000000000004000000000000023000000000000050552735000000000000009999123100000010000000000000BRBRINACNOR3111
012016072262BRIN3T      030BR INSURANCEON      NM090R$  000000000222300000000022240000000002223000000000222300000000022240000000000000000000000000000004000000000000024000000000000053364720000000000000009999123100000010000000000000BRBRINACNOR3111
012016072278BRINI64     070BRINE       ON      NM000R$  000000000002100000000000210000000000021000000000002100000000000210000000000000000000000000000001000000000000035000000000000000735000000000000242502016091900000010000000000000BRBRINACNOR3111
012016072282BRINU64     080BRINE       ON      NM000R$  000000000033600000000003360000000000336000000000033600000000003360000000000000000000000000000001000000000000035000000000000011760000000000000242502016091900000010000000000000BRBRINACNOR3111
012016072296BRIV3F      020ALFA INVEST ON           R$  000000000048000000000004800000000000480000000000048000000000004800000000000481000000000055000001000000000000000012000000000000005760000000000000009999123100000010000000000000BRBRIVACNOR6202
012016072202BRIV4       010ALFA INVEST PN           R$  000000000066800000000006700000000000668000000000066900000000006700000000000661000000000067000004000000000000001100000000000000736800000000000000009999123100000010000000000000BRBRIVACNPR3202
012016072202BRKM3       010BRASKEM     ON      N1   R$  000000000144000000000014550000000001440000000000145100000000014550000000001415000000000167900003000000000000001300000000000001887000000000000000009999123100000010000000000000BRBRKMACNOR1113
012016072202BRKM5       010BRASKEM     PNA     N1   R$  000000000186100000000019430000000001847000000000191900000000019310000000001931000000000193405712000000000001154400000000002215632900000000000000009999123100000010000000000000BRBRKMACNPA4113
012016072296BRKM5F      020BRASKEM     PNA     N1   R$  000000000186500000000019450000000001865000000000192000000000019450000000001930000000000194700046000000000000000961000000000001845539000000000000009999123100000010000000000000BRBRKMACNPA4113
012016072262BRKM5T      030BRASKEM     PNA     N1090R$  000000000199100000000019920000000001991000000000199100000000019920000000000000000000000000000004000000000000011500000000000022906272000000000000009999123100000010000000000000BRBRKMACNPA4113
012016072202BRKM6       010BRASKEM     PNB     N1   R$  000000000130000000000013000000000001300000000000130000000000013000000000001002000000000000000003000000000000000300000000000000390000000000000000009999123100000010000000000000BRBRKMACNPB2111
012016072278BRKMI21     070BRKM        PNA     N1000R$  000000000003700000000000380000000000037000000000003700000000000380000000000000000000000000000003000000000000200100000000000007453700000000000212402016091900000010000000000000BRBRKMACNPA4113
012016072278BRKMI50     070BRKM        PNA     N1000R$  000000000007300000000000740000000000045000000000005000000000000550000000000000000000000000000023000000000000147200000000000007449900000000000207402016091900000010000000000000BRBRKMACNPA4113
012016072202BRML3       010BR MALLS PARON      NM   R$  000000000140600000000014130000000001393000000000140100000000014050000000001398000000000140507751000000000004412500000000006185148100000000000000009999123100000010000000000000BRBRMLACNOR9109
012016072296BRML3F      020BR MALLS PARON      NM   R$  000000000142300000000014230000000001397000000000140600000000014100000000001395000000000141000036000000000000000861000000000001210833000000000000009999123100000010000000000000BRBRMLACNOR9109
012016072282BRMLT13     080BRMLE FM    ON      NM000R$  000000000001200000000000120000000000012000000000001200000000000120000000000012000000000000000001000000000000008100000000000000097200000000000131902016081500000010000000000000BRBRMLACNOR9109
012016072202BRPR3       010BR PROPERT  ON      NM   R$  000000000086100000000009350000000000861000000000090500000000009100000000000910000000000091203922000000000001831100000000001657965700000000000000009999123100000010000000000000BRBRPRACNOR9116
012016072296BRPR3F      020BR PROPERT  ON      NM   R$  000000000087000000000009310000000000870000000000090700000000009260000000000886000000000091000033000000000000000721000000000000654245000000000000009999123100000010000000000000BRBRPRACNOR9116
012016072296BRSR3F      020BANRISUL    ON      N1   R$  000000000110200000000011020000000001102000000000110200000000011020000000001151000000000130000003000000000000000090000000000000099180000000000000009999123100000010000000000000BRBRSRACNOR3144
012016072202BRSR6       010BANRISUL    PNB     N1   R$  000000000105900000000010780000000001034000000000104500000000010550000000001054000000000105504468000000000001282700000000001340481400000000000000009999123100000010000000000000BRBRSRACNPB4147
012016072296BRSR6F      020BANRISUL    PNB     N1   R$  000000000104200000000010580000000001036000000000104300000000010420000000001042000000000107000026000000000000000689000000000000718984000000000000009999123100000010000000000000BRBRSRACNPB4147
012016072296BSAN33F     020BANSANTANDERDR3          R$  000000000120100000000012010000000001201000000000120100000000012010000000001210000000000000000001000000000000000004000000000000004804000000000000009999123100000010000000000000BRBSANBDR002106
012016072202BSEV3       010BIOSEV      ON      NM   R$  000000000119500000000011950000000001195000000000119500000000011950000000001000000000000119500001000000000000000100000000000000119500000000000000009999123100000010000000000000BRBSEVACNOR3101
012016072202BTOW3       010B2W DIGITAL ON      NM   R$  000000000137900000000013940000000001340000000000134900000000013400000000001339000000000134001591000000000000723700000000000976901100000000000000009999123100000010000000000000BRBTOWACNOR8108
012016072296BTOW3F      020B2W DIGITAL ON      NM   R$  000000000138500000000013850000000001344000000000135900000000013570000000001345000000000139900015000000000000000582000000000000791410000000000000009999123100000010000000000000BRBTOWACNOR8108
012016072202BTTL4       010BATTISTELLA PN           R$  000000000123900000000012390000000001210000000000121900000000012100000000001155000000000121500003000000000000000300000000000000365900000000000000009999123100000010000000000000BRBTTLACNPR7106
012016072296BTTL4F      020BATTISTELLA PN           R$  000000000112200000000011220000000001122000000000112200000000011220000000000770000000000112200001000000000000000007000000000000007854000000000000009999123100000010000000000000BRBTTLACNPR7106
012016072202BVMF3       010BMFBOVESPA  ON      NM   R$  000000000195400000000019650000000001929000000000193900000000019320000000001931000000000193219956000000000010345800000000020061295700000000000000009999123100000010000000000000BRBVMFACNOR3137
012016072296BVMF3F      020BMFBOVESPA  ON      NM   R$  000000000194000000000019990000000001932000000000194100000000019330000000001932000000000193300175000000000000005040000000000009783064000000000000009999123100000010000000000000BRBVMFACNOR3137
012016072262BVMF3T      030BMFBOVESPA  ON      NM017R$  000000000194700000000019480000000001947000000000194700000000019480000000000000000000000000000002000000000000001000000000000001947771000000000000009999123100000010000000000000BRBVMFACNOR3137
012016072262BVMF3T      030BMFBOVESPA  ON      NM031R$  000000000198000000000019810000000001980000000000198000000000019810000000000000000000000000000002000000000000000600000000000001188387000000000000009999123100000010000000000000BRBVMFACNOR3137
012016072278BVMFH16     070BVMF        ON      NM000R$  000000000036200000000003620000000000361000000000036100000000003610000000000000000000000000000002000000000000000200000000000000072300000000000159202016081500000010000000000000BRBVMFACNOR3136
012016072278BVMFH17     070BVMF        ON      NM000R$  000000000026500000000002650000000000265000000000026500000000002650000000000255000000000000000004000000000000006000000000000001590000000000000169202016081500000010000000000000BRBVMFACNOR3136
012016072278BVMFH19     070BVMF  FM    ON      NM000R$  000000000010400000000001040000000000091000000000009600000000000910000000000090000000000009800040000000000000091800000000000008832100000000000189202016081500000010000000000000BRBVMFACNOR3136
012016072278BVMFH20     070BVMF  FM    ON      NM000R$  000000000005600000000000560000000000040000000000004500000000000400000000000035000000000005300043000000000000048900000000000002248900000000000199202016081500000010000000000000BRBVMFACNOR3136
012016072278BVMFH21     070BVMF  FM    ON      NM000R$  000000000002400000000000240000000000015000000000001700000000000150000000000015000000000002500033000000000000042900000000000000760900000000000209202016081500000010000000000000BRBVMFACNOR3136
012016072278BVMFH22     070BVMF  FM    ON      NM000R$  000000000001300000000000130000000000004000000000000700000000000040000000000004000000000000600051000000000000114000000000000000847700000000000219202016081500000010000000000000BRBVMFACNOR3136
012016072278BVMFH23     070BVMF        ON      NM000R$  000000000000700000000000070000000000003000000000000500000000000030000000000003000000000000400005000000000000014600000000000000084800000000000229202016081500000010000000000000BRBVMFACNOR3136
012016072278BVMFH24     070BVMF        ON      NM000R$  000000000000300000000000030000000000002000000000000200000000000020000000000002000000000000300007000000000000019100000000000000051200000000000239202016081500000010000000000000BRBVMFACNOR3136
012016072278BVMFH25     070BVMF        ON      NM000R$  000000000000100000000000010000000000001000000000000100000000000010000000000001000000000000200001000000000000000100000000000000000100000000000249202016081500000010000000000000BRBVMFACNOR3136
012016072278BVMFH48     070BVMF        ON      NM000R$  000000000013000000000001300000000000128000000000012900000000001290000000000009000000000000000003000000000000003100000000000000401900000000000184202016081500000010000000000000BRBVMFACNOR3136
012016072278BVMFH49     070BVMF  FM    ON      NM000R$  000000000007400000000000740000000000061000000000006400000000000610000000000052000000000006600103000000000000203200000000000013188900000000000194202016081500000010000000000000BRBVMFACNOR3136
012016072278BVMFH50     070BVMF        ON      NM000R$  000000000003600000000000360000000000025000000000002800000000000250000000000001000000000003800019000000000000020400000000000000590700000000000204202016081500000010000000000000BRBVMFACNOR3136
012016072278BVMFH51     070BVMF        ON      NM000R$  000000000001500000000000150000000000006000000000000900000000000060000000000003000000000001300056000000000000104400000000000001016300000000000214202016081500000010000000000000BRBVMFACNOR3136
012016072278BVMFH52     070BVMF        ON      NM000R$  000000000001000000000000100000000000004000000000000600000000000040000000000004000000000000500023000000000000039000000000000000251900000000000224202016081500000010000000000000BRBVMFACNOR3136
012016072278BVMFH53     070BVMF        ON      NM000R$  000000000000400000000000040000000000003000000000000300000000000030000000000002000000000000300005000000000000014300000000000000047200000000000234202016081500000010000000000000BRBVMFACNOR3136
012016072278BVMFH63     070BVMFE       ON      NM000R$  000000000063000000000006300000000000630000000000063000000000006300000000000000000000000000000001000000000000000100000000000000063000000000000131702016081500000010000000000000BRBVMFACNOR3136
012016072278BVMFH79     070BVMFE       ON      NM000R$  000000000005900000000000590000000000051000000000005500000000000510000000000048000000000005200010000000000000063600000000000003505400000000000196702016081500000010000000000000BRBVMFACNOR3137
012016072278BVMFI19     070BVMF  FM    ON      NM000R$  000000000011000000000001100000000000107000000000010900000000001070000000000000000000000012800009000000000000024100000000000002633200000000000194202016091900000010000000000000BRBVMFACNOR3137
012016072278BVMFI20     070BVMF        ON      NM000R$  000000000006500000000000650000000000061000000000006400000000000620000000000000000000000006500005000000000000005300000000000000341700000000000204202016091900000010000000000000BRBVMFACNOR3137
012016072278BVMFI22     070BVMF        ON      NM000R$  000000000002200000000000220000000000022000000000002200000000000220000000000017000000000000000001000000000000004200000000000000092400000000000224202016091900000010000000000000BRBVMFACNOR3137
012016072278BVMFI49     070BVMF  FM    ON      NM000R$  000000000008600000000000860000000000086000000000008600000000000860000000000020000000000000000001000000000000001000000000000000086000000000000199202016091900000010000000000000BRBVMFACNOR3137
012016072278BVMFJ18     070BVMF        ON      NM000R$  000000000020800000000002080000000000208000000000020800000000002080000000000000000000000000000001000000000000012700000000000002641600000000000180602016101700000010000000000000BRBVMFACNOR3137
012016072278BVMFK17     070BVMF        ON      NM000R$  000000000032900000000003290000000000311000000000031100000000003110000000000000000000000000000002000000000000206000000000000064067800000000000171902016112100000010000000000000BRBVMFACNOR3137
012016072282BVMFR41     080BVMFE       ON      NM000R$  000000000001300000000000130000000000013000000000001300000000000130000000000000000000000000000001000000000000000100000000000000001300000000000119202017061900000010000000000000BRBVMFACNOR3137
012016072282BVMFT18     080BVMFE       ON      NM000R$  000000000001200000000000150000000000012000000000001300000000000140000000000012000000000001500008000000000000026500000000000000347500000000000179202016081500000010000000000000BRBVMFACNOR3136
012016072282BVMFT19     080BVMFE FM    ON      NM000R$  000000000003000000000000370000000000030000000000003500000000000320000000000003000000000005400042000000000000160300000000000005660400000000000189202016081500000010000000000000BRBVMFACNOR3136
012016072282BVMFT20     080BVMFE FM    ON      NM000R$  000000000007000000000000850000000000070000000000007900000000000850000000000002000000000014900003000000000000003000000000000000238000000000000199202016081500000010000000000000BRBVMFACNOR3136
012016072282BVMFT21     080BVMFE       ON      NM000R$  000000000015700000000001570000000000156000000000015600000000001560000000000001000000000000000006000000000000048500000000000007576000000000000209202016081500000010000000000000BRBVMFACNOR3136
012016072282BVMFT47     080BVMFE       ON      NM000R$  000000000000800000000000080000000000008000000000000800000000000080000000000001000000000000000003000000000000030000000000000000240000000000000174202016081500000010000000000000BRBVMFACNOR3136
012016072282BVMFT48     080BVMFE FM    ON      NM000R$  000000000002300000000000230000000000022000000000002200000000000220000000000008000000000003000002000000000000001200000000000000027500000000000184202016081500000010000000000000BRBVMFACNOR3136
