00COTAHIST.2016BOVESPA 20160725                                                                                                                                                                                                                      
012016072502AAPL34      010APPLE       DRN          R$  000000000324000000000032400000000003178000000000320100000000031780000000003170000000000322000047000000000000051200000000000163932000000000000000009999123100000010000000000000BRAAPLBDR004117
012016072596AAPL34F     020APPLE       DRN          R$  000000000322600000000032260000000003182000000000318300000000031820000000000000000000000000000002000000000000000071000000000000226010000000000000009999123100000010000000000000BRAAPLBDR004117
012016072502ABBV34      010ABBVIE      DRN          R$  000000002125100000000212510000000021251000000002125100000000212510000000000000000000000000000002000000000000001900000000000040376900000000000000009999123100000010000000000000BRABBVBDR001102
012016072510ABCB2       010ABC BRASIL  DIR PRE N2   R$  000000000039700000000004250000000000390000000000040300000000004030000000000403000000000042000018000000000000006400000000000002580500000000000000009999123100000010000000000000BRABCBD09PR2125
012016072596ABCB2F      020ABC BRASIL  DIR PRE N2   R$  000000000041000000000004100000000000391000000000039700000000003940000000000391000000000040900022000000000000000489000000000000194448000000000000009999123100000010000000000000BRABCBD09PR2125
012016072502ABCB4       010ABC BRASIL  PN      N2   R$  000000000138900000000014050000000001381000000000139600000000014000000000001396000000000140001166000000000000235500000000000328760100000000000000009999123100000010000000000000BRABCBACNPR4126
012016072596ABCB4F      020ABC BRASIL  PN      N2   R$  000000000139600000000014040000000001369000000000139100000000014040000000001388000000000139500009000000000000000245000000000000341015000000000000009999123100000010000000000000BRABCBACNPR4126
012016072512ABCP11      010FII ABC IMOBCI           R$  000000000107000000000010700000000001030000000000106600000000010700000000001070000000000107600009000000000000001109000000000001182820000000000000009999123100000010000000000000BRABCPCTF000249
012016072502ABEV3       010AMBEV S/A   ON           R$  000000000193200000000019420000000001919000000000193500000000019390000000001939000000000194010872000000000009501100000000018393811300000000000000009999123100000010000000000000BRABEVACNOR1113
012016072596ABEV3F      020AMBEV S/A   ON           R$  000000000193900000000019550000000001919000000000193200000000019380000000001932000000000193800128000000000000003322000000000006419974000000000000009999123100000010000000000000BRABEVACNOR1113
012016072562ABEV3T      030AMBEV S/A   ON        060R$  000000000197100000000019740000000001971000000000197200000000019740000000000000000000000000000006000000000000099000000000000195300230000000000000009999123100000010000000000000BRABEVACNOR1113
012016072562ABEV3T      030AMBEV S/A   ON        120R$  000000000201500000000020160000000002015000000000201500000000020160000000000000000000000000000002000000000000000100000000000000201566000000000000009999123100000010000000000000BRABEVACNOR1113
012016072578ABEVA50     070ABEV        ON        000R$  000000000007100000000000710000000000071000000000007100000000000710000000000000000000000000000001000000000000000100000000000000007100000000000207602017011600000010000000000000BRABEVACNOR1112
012016072578ABEVA79     070ABEVE       ON        000R$  000000000011000000000001100000000000093000000000010100000000000930000000000000000000000000000003000000000000297200000000000030143500000000000195102017011600000010000000000000BRABEVACNOR1113
012016072578ABEVD78     070ABEV        ON        000R$  000000000032100000000003210000000000321000000000032100000000003210000000000000000000000000000001000000000000042000000000000013482000000000000178702017041700000010000000000000BRABEVACNOR1112
012016072578ABEVD80     070ABEVE       ON        000R$  000000000015000000000001500000000000150000000000015000000000001500000000000000000000000000000001000000000000084000000000000012600000000000000206202017041700000010000000000000BRABEVACNOR1112
012016072578ABEVH18     070ABEV  FM    ON        000R$  000000000006200000000000730000000000062000000000006600000000000670000000000000000000000000000005000000000000002700000000000000179700000000000188202016081500000010000000000000BRABEVACNOR1112
012016072578ABEVH19     070ABEV  FM    ON        000R$  000000000004000000000000400000000000031000000000003400000000000320000000000032000000000004000009000000000000016400000000000000573600000000000193202016081500000010000000000000BRABEVACNOR1112
012016072578ABEVH20     070ABEV        ON        000R$  000000000000700000000000070000000000005000000000000500000000000050000000000001000000000000900007000000000000040900000000000000240300000000000203202016081500000010000000000000BRABEVACNOR1112
012016072578ABEVH21     070ABEV  FM    ON        000R$  000000000000500000000000050000000000004000000000000400000000000040000000000003000000000000500002000000000000015000000000000000070000000000000208202016081500000010000000000000BRABEVACNOR1112
012016072578ABEVH49     070ABEV  FM    ON        000R$  000000000001700000000000170000000000012000000000001600000000000120000000000000000000000002800007000000000000017700000000000000295400000000000198202016081500000010000000000000BRABEVACNOR1112
012016072578ABEVH79     070ABEVE       ON        000R$  000000000002000000000000200000000000020000000000002000000000000200000000000010000000000003700001000000000000005000000000000000100000000000000195702016081500000010000000000000BRABEVACNOR1111
012016072578ABEVI19     070ABEV  FM    ON        000R$  000000000006300000000000630000000000062000000000006200000000000620000000000000000000000000000003000000000000158000000000000009946000000000000193202016091900000010000000000000BRABEVACNOR1112
012016072578ABEVI59     070ABEVE       ON        000R$  000000000008000000000000800000000000080000000000008000000000000800000000000000000000000000000001000000000000147200000000000011776000000000000190702016091900000010000000000000BRABEVACNOR1112
012016072578ABEVJ82     070ABEVE       ON        000R$  000000000001000000000000100000000000010000000000001000000000000100000000000000000000000001000003000000000000003400000000000000034000000000000222302016101700000010000000000000BRABEVACNOR1109
012016072578ABEVK49     070ABEV        ON        000R$  000000000010000000000001000000000000100000000000010000000000001000000000000000000000000000000001000000000000010000000000000001000000000000000194802016112100000010000000000000BRABEVACNOR1113
012016072578ABEVK57     070ABEV        ON        000R$  000000000029000000000002900000000000290000000000029000000000002900000000000000000000000000000001000000000000010000000000000002900000000000000174802016112100000010000000000000BRABEVACNOR1113
012016072578ABEVK89     070ABEV        ON        000R$  000000000008000000000000800000000000080000000000008000000000000800000000000000000000000000000001000000000000010000000000000000800000000000000199802016112100000010000000000000BRABEVACNOR1113
012016072578ABEVK90     070ABEVE       ON        000R$  000000000006000000000000600000000000060000000000006000000000000600000000000000000000000000000001000000000000010000000000000000600000000000000202302016112100000010000000000000BRABEVACNOR1113
012016072578ABEVK95     070ABEV        ON        000R$  000000000021400000000002140000000000214000000000021400000000002140000000000000000000000000000001000000000000010000000000000002140000000000000179802016112100000010000000000000BRABEVACNOR1109
012016072578ABEVK97     070ABEVE       ON        000R$  000000000000100000000000010000000000001000000000000100000000000010000000000001000000000000000001000000000000010000000000000000010000000000000232302016112100000010000000000000BRABEVACNOR1109
012016072578ABEVL63     070ABEVE       ON        000R$  000000000011400000000001150000000000114000000000011400000000001140000000000000000000000000000003000000000000101400000000000011606400000000000231202017121800000010000000000000BRABEVACNOR1112
012016072582ABEVT18     080ABEVE FM    ON        000R$  000000000000800000000000080000000000008000000000000800000000000080000000000005000000000000000002000000000000001400000000000000011200000000000188202016081500000010000000000000BRABEVACNOR1112
012016072582ABEVT19     080ABEVE FM    ON        000R$  000000000002600000000000260000000000022000000000002500000000000230000000000000000000000002700003000000000000003200000000000000082500000000000193202016081500000010000000000000BRABEVACNOR1112
012016072582ABEVT49     080ABEVE FM    ON        000R$  000000000005400000000000550000000000046000000000005200000000000460000000000044000000000006000004000000000000008000000000000000419000000000000198202016081500000010000000000000BRABEVACNOR1112
012016072582ABEVT69     080ABEVE FM    ON        000R$  000000000000400000000000040000000000004000000000000400000000000040000000000000000000000000000001000000000000002500000000000000010000000000000183202016081500000010000000000000BRABEVACNOR1107
012016072582ABEVU89     080ABEVE FM    ON        000R$  000000000001800000000000180000000000018000000000001800000000000180000000000000000000000000000008000000000000034900000000000000628200000000000188202016091900000010000000000000BRABEVACNOR1107
012016072582ABEVW64     080ABEVE       ON        000R$  000000000000100000000000010000000000001000000000000100000000000010000000000000000000000000000001000000000000010000000000000000010000000000000142302016112100000010000000000000BRABEVACNOR1113
012016072582ABEVW67     080ABEVE       ON        000R$  000000000000500000000000050000000000005000000000000500000000000050000000000000000000000000000001000000000000010000000000000000050000000000000172302016112100000010000000000000BRABEVACNOR1113
012016072582ABEVX79     080ABEVE       ON        000R$  000000000009600000000001130000000000095000000000011200000000001130000000000000000000000000000003000000000000100200000000000011319100000000000191202017121800000010000000000000BRABEVACNOR1113
012016072502ABTT34      010ABBOTT      DRN          R$  000000000354000000000035400000000003540000000000354000000000035400000000003528000000000360300001000000000000012900000000000045666000000000000000009999123100000010000000000000BRABTTBDR007119
012016072512AEFI11      010FII AESAPAR CI           R$  000000001297300000000130190000000012970000000001298600000000130000000000013000000000001301900027000000000000000693000000000008999661000000000000009999123100000010000000000000BRAEFICTF002155
012016072502AELP3       010AES ELPA    ON           R$  000000000139800000000014010000000001398000000000139800000000014010000000000822000000000138100004000000000000001100000000000001538200000000000000009999123100000010000000000000BRAELPACNOR2123
012016072512AGCX11      010FII AG CAIXACI           R$  000000011300000000001145000000000112399000000011288200000001145000000000112200000000011450000067000000000000000472000000000053280345000000000000009999123100000010000000000000BRAGCXCTF003144
012016072502AGRO3       010BRASILAGRO  ON      NM   R$  000000000128500000000013060000000001275000000000128700000000013030000000001300000000000130300982000000000000162400000000000209091700000000000000009999123100000010000000000000BRAGROACNOR7104
012016072596AGRO3F      020BRASILAGRO  ON      NM   R$  000000000128000000000013500000000001280000000000130200000000013500000000001301000000000142400017000000000000000453000000000000589865000000000000009999123100000010000000000000BRAGROACNOR7104
012016072512ALMI11B     010FII TORRE ALCI      MB   R$  000000018384900000001850000000000183849000000018417400000001850000000000184000000000018500000015000000000000000055000000000010129597000000000000009999123100000010000000000000BRALMICTF003239
012016072502ALPA3       010ALPARGATAS  ON      N1   R$  000000000105500000000011090000000001055000000000107300000000010870000000001051000000000108700012000000000000004600000000000004937100000000000000009999123100000010000000000000BRALPAACNOR0217
012016072596ALPA3F      020ALPARGATAS  ON      N1   R$  000000000106900000000010690000000001069000000000106900000000010690000000001017000000000111000002000000000000000029000000000000031001000000000000009999123100000010000000000000BRALPAACNOR0217
012016072502ALPA4       010ALPARGATAS  PN      N1   R$  000000000112000000000011500000000001101000000000112700000000011500000000001134000000000115002294000000000000413100000000000465740000000000000000009999123100000010000000000000BRALPAACNPR7217
012016072596ALPA4F      020ALPARGATAS  PN      N1   R$  000000000112000000000011450000000001114000000000112600000000011450000000001145000000000115000033000000000000000886000000000000997858000000000000009999123100000010000000000000BRALPAACNPR7217
012016072502ALSC3       010ALIANSCE    ON      NM   R$  000000000150600000000015200000000001472000000000149200000000015010000000001485000000000150101688000000000000277000000000000413317400000000000000009999123100000010000000000000BRALSCACNOR0109
012016072596ALSC3F      020ALIANSCE    ON      NM   R$  000000000150600000000015060000000001483000000000149500000000015010000000001481000000000158800016000000000000000347000000000000518999000000000000009999123100000010000000000000BRALSCACNOR0109
012016072502ALUP11      010ALUPAR      UNT     N2   R$  000000000160700000000016150000000001593000000000160400000000016010000000001596000000000160102358000000000000480600000000000770945900000000000000009999123100000010000000000000BRALUPCDAM15105
012016072596ALUP11F     020ALUPAR      UNT     N2   R$  000000000161800000000016180000000001596000000000160500000000016010000000001511000000000160200036000000000000000982000000000001576740000000000000009999123100000010000000000000BRALUPCDAM15105
012016072510ALUP13      010ALUPAR      REC     N2   R$  000000000159900000000016430000000001571000000000159600000000016050000000001585000000000160500009000000000000001100000000000001756000000000000000009999123100000010000000000000BRALUPR01M14105
012016072596ALUP13F     020ALUPAR      REC     N2   R$  000000000155500000000015910000000001555000000000156400000000015910000000001575000000000159100010000000000000000249000000000000389666000000000000009999123100000010000000000000BRALUPR01M14105
012016072502AMAR3       010LOJAS MARISAON      NM   R$  000000000082600000000008300000000000808000000000081900000000008080000000000808000000000081800101000000000000042700000000000034982000000000000000009999123100000010000000000000BRAMARACNOR4112
012016072596AMAR3F      020LOJAS MARISAON      NM   R$  000000000082500000000008250000000000814000000000082200000000008200000000000809000000000086400006000000000000000135000000000000110998000000000000009999123100000010000000000000BRAMARACNOR4112
012016072596AMGN34F     020AMGEN       DRN          R$  000000005484000000000548400000000054777000000005483500000000547770000000000000000000000000000002000000000000000054000000000002961108000000000000009999123100000010000000000000BRAMGNBDR004118
012016072502AMZO34      010AMAZON      DRN          R$  000000012185000000001218500000000121047000000012169200000001213900000000120462000000012231400003000000000000001600000000000194707400000000000000009999123100000010000000000000BRAMZOBDR002101
012016072596AMZO34F     020AMAZON      DRN          R$  000000012110400000001213030000000121104000000012110800000001213030000000000000000000000000000002000000000000000040000000000004844359000000000000009999123100000010000000000000BRAMZOBDR002101
012016072502ANIM3       010ANIMA       ON      NM   R$  000000000155700000000015860000000001515000000000155800000000015630000000001541000000000156300598000000000000085100000000000132644800000000000000009999123100000010000000000000BRANIMACNOR6103
012016072596ANIM3F      020ANIMA       ON      NM   R$  000000000155100000000015710000000001514000000000155000000000015610000000001500000000000156300007000000000000000189000000000000292969000000000000009999123100000010000000000000BRANIMACNOR6103
012016072502ARZZ3       010AREZZO CO   ON      NM   R$  000000000280100000000028200000000002682000000000278900000000028050000000002801000000000280500357000000000000062300000000000173814800000000000000009999123100000010000000000000BRARZZACNOR3121
012016072596ARZZ3F      020AREZZO CO   ON      NM   R$  000000000279800000000028030000000002747000000000278900000000028030000000002607000000000280500006000000000000000196000000000000546751000000000000009999123100000010000000000000BRARZZACNOR3121
012016072578ARZZJ56     070ARZZ        ON      NM000R$  000000000027300000000002730000000000273000000000027300000000002730000000000000000000000000000001000000000000000600000000000000163800000000000265002016101700000010000000000000BRARZZACNOR3121
012016072508ATOM3       010ATOMPAR     ON           R$  000000000007400000000000750000000000071000000000007200000000000720000000000072000000000007300156000000000000250700000000000018195300000000000000009999123100000010000000000000BRATOMACNOR1101
012016072596ATOM3F      020ATOMPAR     ON           R$  000000000007500000000000750000000000071000000000007300000000000720000000000072000000000007400008000000000000000014000000000000001030000000000000009999123100000010000000000000BRATOMACNOR1101
012016072502AVON34      010AVON        DRN          R$  000000000064000000000006440000000000640000000000064300000000006440000000000612000000000064400128000000000000013900000000000008947600000000000000009999123100000010000000000000BRAVONBDR009121
012016072596AVON34F     020AVON        DRN          R$  000000000064000000000006400000000000640000000000064000000000006400000000000000000000000000000001000000000000000039000000000000024960000000000000009999123100000010000000000000BRAVONBDR009121
012016072502AXPB34      010AMERICAN EXPDRN          R$  000000002115300000000211530000000021088000000002115100000000210880000000000000000000000000000002000000000000004100000000000086720800000000000000009999123100000010000000000000BRAXPBBDR007117
012016072596AXPB34F     020AMERICAN EXPDRN          R$  000000002110500000000211050000000021088000000002110300000000210880000000000000000000000000000002000000000000000009000000000000189928000000000000009999123100000010000000000000BRAXPBBDR007117
012016072502AZEV4       010AZEVEDO     PN           R$  000000000020000000000002130000000000200000000000020800000000002130000000000201000000000021300033000000000000019500000000000004058100000000000000009999123100000010000000000000BRAZEVACNPR7116
012016072502BAHI3       010BAHEMA      ON           R$  000000000025600000000002560000000000255000000000025500000000002550000000000250000000000027000003000000000000000400000000000000102100000000000000009999123100000010000000000000BRBAHIACNOR1068
012016072502BALM4       010BAUMER      PN           R$  000000000081000000000008150000000000805000000000080800000000008050000000000802000000000083000004000000000000001200000000000000970500000000000000009999123100000010000000000000BRBALMACNPR2047
012016072502BAZA3       010AMAZONIA    ON           R$  000000000003300000000000340000000000033000000000003300000000000330000000000033000000000003400024000000000000080000000000000002646000000000000000009999123100000010000000000000BRBAZAACNOR0168
012016072596BAZA3F      020AMAZONIA    ON           R$  000000000003300000000000340000000000033000000000003300000000000340000000000033000000000003400003000000000000000947000000000000032151000000000000009999123100000010000000000000BRBAZAACNOR0168
012016072502BBAS3       010BRASIL      ON      NM   R$  000000000206900000000021300000000002068000000000211100000000021300000000002129000000000213019559000000000011968000000000025274993800000000000000009999123100000010000000000000BRBBASACNOR3261
012016072596BBAS3F      020BRASIL      ON      NM   R$  000000000207100000000021300000000002070000000000210900000000021270000000002127000000000212900324000000000000010312000000000021756831000000000000009999123100000010000000000000BRBBASACNOR3261
012016072562BBAS3T      030BRASIL      ON      NM016R$  000000000214200000000021430000000002142000000000214200000000021430000000000000000000000000000002000000000000005000000000000010713900000000000000009999123100000010000000000000BRBBASACNOR3261
012016072562BBAS3T      030BRASIL      ON      NM030R$  000000000211200000000021130000000002112000000000211200000000021130000000000000000000000000000002000000000000001000000000000002112990000000000000009999123100000010000000000000BRBBASACNOR3261
012016072578BBASG81     070BBAS        ON      NM000R$  000000000045600000000004560000000000456000000000045600000000004560000000000000000000000000000001000000000000001000000000000000456000000000000207702017071700000010000000000000BRBBASACNOR3259
012016072578BBASH16     070BBAS        ON      NM000R$  000000000054000000000005400000000000540000000000054000000000005400000000000456000000000056000001000000000000000700000000000000378000000000000158802016081500000010000000000000BRBBASACNOR3259
012016072578BBASH17     070BBAS        ON      NM000R$  000000000041000000000004100000000000410000000000041000000000004100000000000300000000000000000002000000000000001000000000000000410000000000000168802016081500000010000000000000BRBBASACNOR3259
012016072578BBASH18     070BBAS        ON      NM000R$  000000000034500000000003590000000000321000000000033700000000003590000000000316000000000044900020000000000000009700000000000003271000000000000178802016081500000010000000000000BRBBASACNOR3259
012016072578BBASH19     070BBAS        ON      NM000R$  000000000021600000000002660000000000216000000000025000000000002640000000000264000000000027500071000000000000110200000000000027556200000000000188802016081500000010000000000000BRBBASACNOR3259
012016072578BBASH20     070BBAS  FM    ON      NM000R$  000000000016800000000001820000000000152000000000016800000000001820000000000182000000000018900105000000000000248300000000000041955400000000000198802016081500000010000000000000BRBBASACNOR3259
012016072578BBASH21     070BBAS  FM    ON      NM000R$  000000000010300000000001190000000000091000000000010800000000001190000000000115000000000011900283000000000000504700000000000054570900000000000208802016081500000010000000000000BRBBASACNOR3259
012016072578BBASH22     070BBAS        ON      NM000R$  000000000004500000000000510000000000040000000000004600000000000510000000000051000000000005200344000000000001043100000000000048410700000000000223802016081500000010000000000000BRBBASACNOR3259
012016072578BBASH23     070BBASE       ON      NM000R$  000000000002800000000000280000000000021000000000002500000000000260000000000025000000000002800043000000000000168300000000000004268100000000000236302016081500000010000000000000BRBBASACNOR3259
012016072578BBASH24     070BBAS  FM    ON      NM000R$  000000000002400000000000240000000000019000000000002100000000000240000000000021000000000002400180000000000000451900000000000009712500000000000238802016081500000010000000000000BRBBASACNOR3259
012016072578BBASH25     070BBAS        ON      NM000R$  000000000001500000000000150000000000011000000000001300000000000150000000000014000000000001500038000000000000127600000000000001755200000000000248802016081500000010000000000000BRBBASACNOR3259
012016072578BBASH26     070BBAS        ON      NM000R$  000000000000900000000000090000000000007000000000000800000000000080000000000008000000000001200021000000000000149200000000000001326100000000000258802016081500000010000000000000BRBBASACNOR3259
012016072578BBASH27     070BBAS        ON      NM000R$  000000000000500000000000070000000000004000000000000600000000000040000000000004000000000001100006000000000000017400000000000000112900000000000268802016081500000010000000000000BRBBASACNOR3259
012016072578BBASH28     070BBAS        ON      NM000R$  000000000000300000000000050000000000003000000000000400000000000040000000000003000000000000900007000000000000046500000000000000221800000000000278802016081500000010000000000000BRBBASACNOR3259
012016072578BBASH29     070BBAS        ON      NM000R$  000000000000200000000000020000000000002000000000000200000000000020000000000002000000000000400001000000000000000100000000000000000200000000000288802016081500000010000000000000BRBBASACNOR3259
012016072578BBASH30     070BBAS        ON      NM000R$  000000000000200000000000020000000000002000000000000200000000000020000000000001000000000000300002000000000000000500000000000000001000000000000298802016081500000010000000000000BRBBASACNOR3259
012016072578BBASH47     070BBAS        ON      NM000R$  000000000038300000000003830000000000383000000000038300000000003830000000000056000000000000000001000000000000000100000000000000038300000000000173802016081500000010000000000000BRBBASACNOR3259
012016072578BBASH48     070BBAS        ON      NM000R$  000000000028800000000003040000000000276000000000029400000000003030000000000032000000000032000126000000000000024300000000000007144300000000000183802016081500000010000000000000BRBBASACNOR3259
012016072578BBASH49     070BBAS        ON      NM000R$  000000000020000000000002200000000000200000000000021200000000002200000000000190000000000022400009000000000000008600000000000001826300000000000193802016081500000010000000000000BRBBASACNOR3259
012016072578BBASH50     070BBAS        ON      NM000R$  000000000013200000000001410000000000132000000000014000000000001410000000000070000000000015500006000000000000017000000000000002386200000000000203802016081500000010000000000000BRBBASACNOR3259
012016072578BBASH51     070BBASE       ON      NM000R$  000000000009700000000001020000000000080000000000009700000000000990000000000080000000000013000009000000000000028300000000000002762100000000000211302016081500000010000000000000BRBBASACNOR3259
012016072578BBASH55     070BBAS        ON      NM000R$  000000000001200000000000120000000000012000000000001200000000000120000000000006000000000000000001000000000000010000000000000000120000000000000253802016081500000010000000000000BRBBASACNOR3259
012016072578BBASH60     070BBASE       ON      NM000R$  000000000016500000000001650000000000165000000000016500000000001650000000000000000000000000000001000000000000000800000000000000132000000000000201302016081500000010000000000000BRBBASACNOR3259
012016072578BBASH62     070BBASE       ON      NM000R$  000000000005700000000000570000000000047000000000005600000000000520000000000000000000000000000005000000000000016100000000000000907200000000000221302016081500000010000000000000BRBBASACNOR3259
012016072578BBASH64     070BBASE       ON      NM000R$  000000000001800000000000180000000000018000000000001800000000000180000000000001000000000000000003000000000000010000000000000000180000000000000241302016081500000010000000000000BRBBASACNOR3259
012016072578BBASH77     070BBASE       ON      NM000R$  000000000037000000000003750000000000370000000000037300000000003750000000000270000000000000000002000000000000000300000000000000112000000000000176302016081500000010000000000000BRBBASACNOR3259
012016072578BBASH79     070BBASE       ON      NM000R$  000000000025400000000002810000000000254000000000027200000000002810000000000251000000000000000004000000000000001900000000000000518100000000000186302016081500000010000000000000BRBBASACNOR3253
012016072578BBASH80     070BBASE       ON      NM000R$  000000000012300000000001230000000000123000000000012300000000001230000000000000000000000000000001000000000000001500000000000000184500000000000206302016081500000010000000000000BRBBASACNOR3259
012016072578BBASH89     070BBASE       ON      NM000R$  000000000019000000000001900000000000190000000000019000000000001900000000000140000000000000000001000000000000003500000000000000665000000000000196302016081500000010000000000000BRBBASACNOR3259
012016072578BBASH91     070BBASE       ON      NM000R$  000000000007200000000000770000000000066000000000007200000000000770000000000000000000000008000013000000000000033900000000000002463300000000000216302016081500000010000000000000BRBBASACNOR3259
012016072578BBASH94     070BBAS        ON      NM000R$  000000000007100000000000900000000000070000000000007400000000000850000000000069000000000009500019000000000000060800000000000004544100000000000213802016081500000010000000000000BRBBASACNOR3253
012016072578BBASH95     070BBAS  FM    ON      NM000R$  000000000006700000000000690000000000055000000000006000000000000610000000000050000000000006900027000000000000068100000000000004123400000000000218802016081500000010000000000000BRBBASACNOR3253
012016072578BBASH97     070BBAS  FM    ON      NM000R$  000000000003300000000000390000000000030000000000003400000000000390000000000039000000000004600049000000000000073200000000000002489900000000000228802016081500000010000000000000BRBBASACNOR3253
012016072578BBASH98     070BBAS        ON      NM000R$  000000000003000000000000310000000000021000000000002600000000000290000000000027000000000003000046000000000000115600000000000003013300000000000233802016081500000010000000000000BRBBASACNOR3253
012016072578BBASI19     070BBAS        ON      NM000R$  000000000025600000000002750000000000255000000000025800000000002750000000000000000000000031000103000000000000011500000000000002970000000000000192702016091900000010000000000000BRBBASACNOR3260
012016072578BBASI20     070BBAS  FM    ON      NM000R$  000000000024900000000002490000000000221000000000023200000000002450000000000215000000000000000057000000000000150600000000000035067500000000000197702016091900000010000000000000BRBBASACNOR3259
012016072578BBASI22     070BBAS  FM    ON      NM000R$  000000000013500000000001400000000000124000000000013200000000001340000000000100000000000013500031000000000000015700000000000002074100000000000217702016091900000010000000000000BRBBASACNOR3259
012016072578BBASI23     070BBAS        ON      NM000R$  000000000008500000000000900000000000079000000000008500000000000850000000000085000000000008600210000000000000254400000000000021729500000000000232702016091900000010000000000000BRBBASACNOR3260
012016072578BBASI24     070BBAS        ON      NM000R$  000000000006600000000000710000000000060000000000006800000000000710000000000020000000000000000025000000000000057200000000000003934100000000000242702016091900000010000000000000BRBBASACNOR3261
012016072578BBASI28     070BBAS        ON      NM000R$  000000000001200000000000120000000000012000000000001200000000000120000000000006000000000003600001000000000000000100000000000000001200000000000282702016091900000010000000000000BRBBASACNOR3261
012016072578BBASI29     070BBAS        ON      NM000R$  000000000000700000000000070000000000007000000000000700000000000070000000000006000000000003500001000000000000000200000000000000001400000000000292702016091900000010000000000000BRBBASACNOR3261
012016072578BBASI30     070BBAS        ON      NM000R$  000000000000200000000000020000000000002000000000000200000000000020000000000003000000000002700001000000000000000100000000000000000200000000000302702016091900000010000000000000BRBBASACNOR3261
012016072578BBASI51     070BBAS        ON      NM000R$  000000000015000000000001530000000000150000000000015000000000001530000000000001000000000000000004000000000000004500000000000000676500000000000212702016091900000010000000000000BRBBASACNOR3259
012016072578BBASI52     070BBAS  FM    ON      NM000R$  000000000010100000000001010000000000093000000000009600000000000990000000000095000000000010000027000000000000068700000000000006649800000000000227702016091900000010000000000000BRBBASACNOR3260
012016072578BBASI53     070BBAS  FM    ON      NM000R$  000000000006600000000000800000000000065000000000007200000000000750000000000065000000000007900033000000000000053200000000000003878300000000000237702016091900000010000000000000BRBBASACNOR3260
012016072578BBASI55     070BBAS        ON      NM000R$  000000000005000000000000510000000000044000000000004700000000000500000000000015000000000005000019000000000000038900000000000001866300000000000252702016091900000010000000000000BRBBASACNOR3259
012016072578BBASI57     070BBAS        ON      NM000R$  000000000003000000000000300000000000022000000000002400000000000250000000000011000000000003700011000000000000085200000000000002075200000000000272702016091900000010000000000000BRBBASACNOR3261
012016072578BBASI66     070BBASE       ON      NM000R$  000000000003900000000000390000000000039000000000003900000000000390000000000003000000000004500001000000000000000600000000000000023400000000000260202016091900000010000000000000BRBBASACNOR3259
012016072578BBASI72     070BBASE       ON      NM000R$  000000000010000000000001000000000000100000000000010000000000001000000000000000000000000011100001000000000000000100000000000000010000000000000225202016091900000010000000000000BRBBASACNOR3259
012016072578BBASI90     070BBAS  FM    ON      NM000R$  000000000018300000000001840000000000166000000000018000000000001800000000000000000000000055000009000000000000010500000000000001895300000000000207702016091900000010000000000000BRBBASACNOR3260
012016072578BBASJ21     070BBAS        ON      NM000R$  000000000019700000000001970000000000197000000000019700000000001970000000000101000000000000000001000000000000005000000000000000985000000000000210002016101700000010000000000000BRBBASACNOR3261
012016072578BBASJ23     070BBAS        ON      NM000R$  000000000012800000000001280000000000128000000000012800000000001280000000000116000000000014000001000000000000000100000000000000012800000000000230002016101700000010000000000000BRBBASACNOR3259
012016072578BBASJ52     070BBAS        ON      NM000R$  000000000013700000000001370000000000137000000000013700000000001370000000000000000000000000000001000000000000003700000000000000506900000000000225002016101700000010000000000000BRBBASACNOR3261
012016072578BBASL22     070BBAS        ON      NM000R$  000000000020800000000002080000000000208000000000020800000000002080000000000000000000000000000001000000000000005000000000000001040000000000000218802016121900000010000000000000BRBBASACNOR3260
012016072578BBASL24     070BBAS        ON      NM000R$  000000000016100000000001610000000000145000000000015300000000001460000000000144000000000000000005000000000000001500000000000000230300000000000238802016121900000010000000000000BRBBASACNOR3260
012016072578BBASL47     070BBAS        ON      NM000R$  000000000050000000000005000000000000500000000000050000000000005000000000000000000000000000000001000000000000005000000000000002500000000000000173802016121900000010000000000000BRBBASACNOR3260
012016072578BBASL94     070BBASE       ON      NM000R$  000000000013700000000001370000000000137000000000013700000000001370000000000130000000000000000001000000000000001000000000000000137000000000000241302016121900000010000000000000BRBBASACNOR3256
012016072582BBASN73     080BBASE       ON      NM000R$  000000000002500000000000250000000000023000000000002400000000000230000000000000000000000019500002000000000000004000000000000000096000000000000133602017022000000010000000000000BRBBASACNOR3257
012016072582BBAST16     080BBASE       ON      NM000R$  000000000000400000000000040000000000004000000000000400000000000040000000000001000000000000500001000000000000001000000000000000004000000000000158802016081500000010000000000000BRBBASACNOR3259
012016072582BBAST17     080BBASE       ON      NM000R$  000000000000500000000000060000000000005000000000000500000000000050000000000005000000000000600008000000000000061100000000000000325500000000000168802016081500000010000000000000BRBBASACNOR3259
012016072582BBAST18     080BBASE       ON      NM000R$  000000000000900000000000090000000000006000000000000700000000000060000000000006000000000001300014000000000000065200000000000000521300000000000178802016081500000010000000000000BRBBASACNOR3259
012016072582BBAST19     080BBASE       ON      NM000R$  000000000002700000000000270000000000014000000000001800000000000160000000000016000000000001700125000000000000541700000000000009869000000000000188802016081500000010000000000000BRBBASACNOR3259
012016072582BBAST20     080BBASE FM    ON      NM000R$  000000000004300000000000430000000000031000000000003500000000000310000000000030000000000003100074000000000000127200000000000004462200000000000198802016081500000010000000000000BRBBASACNOR3259
012016072582BBAST21     080BBASE FM    ON      NM000R$  000000000008000000000000810000000000061000000000006900000000000650000000000055000000000006700044000000000000068500000000000004786000000000000208802016081500000010000000000000BRBBASACNOR3259
012016072582BBAST48     080BBASE       ON      NM000R$  000000000001200000000000130000000000011000000000001200000000000130000000000010000000000001600005000000000000009600000000000000118600000000000183802016081500000010000000000000BRBBASACNOR3259
012016072582BBAST49     080BBASE FM    ON      NM000R$  000000000002500000000000250000000000025000000000002500000000000250000000000000000000000003000003000000000000005000000000000000125000000000000193802016081500000010000000000000BRBBASACNOR3259
012016072582BBAST50     080BBASE       ON      NM000R$  000000000004800000000000480000000000048000000000004800000000000480000000000000000000000000000001000000000000004000000000000000192000000000000203802016081500000010000000000000BRBBASACNOR3259
012016072582BBAST51     080BBASE       ON      NM000R$  000000000008000000000000860000000000073000000000007900000000000730000000000073000000000009500009000000000000028000000000000002221000000000000211302016081500000010000000000000BRBBASACNOR3259
012016072582BBAST60     080BBASE       ON      NM000R$  000000000004200000000000420000000000037000000000004100000000000370000000000000000000000011000011000000000000033400000000000001373800000000000201302016081500000010000000000000BRBBASACNOR3259
012016072582BBAST62     080BBASE       ON      NM000R$  000000000013900000000001390000000000139000000000013900000000001390000000000000000000000017500001000000000000002300000000000000319700000000000221302016081500000010000000000000BRBBASACNOR3259
012016072582BBAST69     080BBASE       ON      NM000R$  000000000001700000000000170000000000017000000000001700000000000170000000000000000000000001800001000000000000000500000000000000008500000000000191302016081500000010000000000000BRBBASACNOR3259
012016072582BBAST80     080BBASE       ON      NM000R$  000000000006700000000000670000000000055000000000006100000000000550000000000000000000000000000003000000000000000300000000000000018500000000000206302016081500000010000000000000BRBBASACNOR3259
012016072582BBAST89     080BBASE       ON      NM000R$  000000000003500000000000350000000000025000000000002900000000000250000000000000000000000005200009000000000000023200000000000000692800000000000196302016081500000010000000000000BRBBASACNOR3259
012016072582BBAST91     080BBASE       ON      NM000R$  000000000011600000000001160000000000096000000000010200000000000960000000000000000000000000000002000000000000006000000000000000616000000000000216302016081500000010000000000000BRBBASACNOR3259
012016072582BBAST94     080BBASE       ON      NM000R$  000000000009500000000000950000000000095000000000009500000000000950000000000000000000000016500001000000000000004000000000000000380000000000000213802016081500000010000000000000BRBBASACNOR3253
012016072582BBAST95     080BBASE FM    ON      NM000R$  000000000012700000000001270000000000115000000000011600000000001150000000000112000000000000000005000000000000011500000000000001344500000000000218802016081500000010000000000000BRBBASACNOR3253
012016072582BBASU18     080BBASE       ON      NM000R$  000000000002700000000000270000000000027000000000002700000000000270000000000008000000000000000001000000000000001000000000000000027000000000000177702016091900000010000000000000BRBBASACNOR3259
012016072582BBASU19     080BBASE FM    ON      NM000R$  000000000006400000000000640000000000064000000000006400000000000640000000000000000000000000000001000000000000002000000000000000128000000000000192702016091900000010000000000000BRBBASACNOR3260
012016072582BBASU20     080BBASE FM    ON      NM000R$  000000000007400000000000740000000000064000000000006900000000000640000000000000000000000000000003000000000000001700000000000000117300000000000197702016091900000010000000000000BRBBASACNOR3259
012016072582BBASU22     080BBASE FM    ON      NM000R$  000000000018600000000001860000000000157000000000016900000000001570000000000000000000000000000016000000000000005300000000000000895700000000000217702016091900000010000000000000BRBBASACNOR3259
012016072582BBASU45     080BBASE       ON      NM000R$  000000000001000000000000100000000000010000000000001000000000000100000000000000000000000000000001000000000000001000000000000000010000000000000152702016091900000010000000000000BRBBASACNOR3260
012016072582BBASU48     080BBASE       ON      NM000R$  000000000003600000000000360000000000029000000000002900000000000290000000000010000000000004100004000000000000013000000000000000384000000000000182702016091900000010000000000000BRBBASACNOR3259
012016072582BBASU80     080BBASE       ON      NM000R$  000000000008500000000000850000000000085000000000008500000000000850000000000000000000000000000001000000000000000200000000000000017000000000000200202016091900000010000000000000BRBBASACNOR3259
012016072502BBDC3       010BRADESCO    ON      N1   R$  000000000296500000000029860000000002908000000000295000000000029500000000002950000000000295303358000000000000969400000000002859844900000000000000009999123100000010000000000000BRBBDCACNOR1651
012016072596BBDC3F      020BRADESCO    ON      N1   R$  000000000296000000000029970000000002876000000000293400000000029010000000002901000000000295500046000000000000001377000000000004042254000000000000009999123100000010000000000000BRBBDCACNOR1651
012016072562BBDC3T      030BRADESCO    ON      N1091R$  000000000304900000000030500000000003049000000000304900000000030500000000000000000000000000000002000000000000000600000000000001829588000000000000009999123100000010000000000000BRBBDCACNOR1651
012016072502BBDC4       010BRADESCO    PN      N1   R$  000000000291400000000029260000000002861000000000288500000000028910000000002890000000000289112050000000000006384100000000018423822900000000000000009999123100000010000000000000BRBBDCACNPR8651
012016072596BBDC4F      020BRADESCO    PN      N1   R$  000000000290200000000029190000000002860000000000288600000000028650000000002865000000000288800219000000000000005105000000000014737238000000000000009999123100000010000000000000BRBBDCACNPR8651
012016072578BBDCG30     070BBDC        PN      N1000R$  000000000057800000000005780000000000578000000000057800000000005780000000000000000000000000000001000000000000000220000000000000127160000000000279402017071700000010000000000000BRBBDCACNPR8646
012016072578BBDCH11     070BBDC        PN      N1000R$  000000000019100000000001990000000000184000000000018800000000001990000000000193000000000000000003000000000000000210000000000000039490000000000273702016081500000010000000000000BRBBDCACNPR8631
012016072578BBDCH17     070BBDC        PN      N1000R$  000000000030700000000003070000000000299000000000030500000000002990000000000297000000000000000012000000000000002100000000000000640500000000000260102016081500000010000000000000BRBBDCACNPR8620
012016072578BBDCH30     070BBDCE       PN      N1000R$  000000000021200000000002120000000000212000000000021200000000002120000000000042000000000000000001000000000000000100000000000000021200000000000271402016081500000010000000000000BRBBDCACNPR8646
012016072578BBDCH31     070BBDC  FM    PN      N1000R$  000000000001900000000000190000000000014000000000001400000000000140000000000013000000000002700006000000000000012200000000000000180000000000000315802016081500000010000000000000BRBBDCACNPR8648
012016072578BBDCH33     070BBDC  FM    PN      N1000R$  000000000017100000000001710000000000140000000000014900000000001500000000000135000000000000000014000000000000015500000000000002317800000000000278702016081500000010000000000000BRBBDCACNPR8649
012016072578BBDCH73     070BBDCE       PN      N1000R$  000000000005100000000000510000000000032000000000003700000000000390000000000030000000000004200050000000000000119940000000000004489360000000000303302016081500000010000000000000BRBBDCACNPR8646
012016072578BBDCH84     070BBDC        PN      N1000R$  000000000000200000000000020000000000002000000000000200000000000020000000000001000000000000300001000000000000017900000000000000035800000000000373702016081500000010000000000000BRBBDCACNPR8620
012016072578BBDCH88     070BBDCE       PN      N1000R$  000000000012800000000001280000000000099000000000011700000000001020000000000097000000000000000035000000000000071400000000000008368500000000000286202016081500000010000000000000BRBBDCACNPR8648
012016072578BBDCH89     070BBDC  FM    PN      N1000R$  000000000011500000000001150000000000080000000000009500000000000960000000000080000000000000000026000000000000047400000000000004506500000000000288702016081500000010000000000000BRBBDCACNPR8651
012016072578BBDCH90     070BBDC  FM    PN      N1000R$  000000000006600000000000660000000000046000000000005000000000000520000000000040000000000006000211000000000000241400000000000012147700000000000298702016081500000010000000000000BRBBDCACNPR8651
012016072578BBDCH91     070BBDCE       PN      N1000R$  000000000002600000000000260000000000017000000000001700000000000170000000000015000000000004500010000000000000035900000000000000634600000000000313302016081500000010000000000000BRBBDCACNPR8647
012016072578BBDCH94     070BBDCE       PN      N1000R$  000000000024500000000002450000000000244000000000024400000000002440000000000014000000000000000002000000000000000900000000000000220300000000000340302017082100000010000000000000BRBBDCACNPR8647
012016072578BBDCH97     070BBDC        PN      N1000R$  000000000008700000000000870000000000064000000000006900000000000650000000000002000000000008300009000000000000038100000000000002657100000000000293702016081500000010000000000000BRBBDCACNPR8651
012016072578BBDCI1      070BBDC  FM    PN      N1000R$  000000000022600000000002330000000000226000000000023000000000002330000000000000000000000000000010000000000000002700000000000000621900000000000277402016091900000010000000000000BRBBDCACNPR8637
012016072578BBDCI32     070BBDC        PN      N1000R$  000000000014800000000001480000000000148000000000014800000000001480000000000135000000000000000001000000000000002000000000000000296000000000000291102016091900000010000000000000BRBBDCACNPR8646
012016072578BBDCI46     070BBDC  FM    PN      N1000R$  000000000009500000000000990000000000095000000000009700000000000990000000000000000000000010500003000000000000001500000000000000146500000000000301102016091900000010000000000000BRBBDCACNPR8651
012016072578BBDCI55     070BBDC  FM    PN      N1000R$  000000000006900000000000690000000000052000000000006400000000000550000000000000000000000000000032000000000000095100000000000006121800000000000316102016091900000010000000000000BRBBDCACNPR8651
012016072578BBDCI80     070BBDCE       PN      N1000R$  000000000004300000000000430000000000043000000000004300000000000430000000000000000000000005000005000000000000030000000000000001290000000000000320602016091900000010000000000000BRBBDCACNPR8632
012016072578BBDCJ58     070BBDCE       PN      N1000R$  000000000042200000000005490000000000422000000000048500000000005490000000000000000000000000000002000000000000000200000000000000097100000000000282902017101600000010000000000000BRBBDCACNPR8651
012016072578BBDCK13     070BBDCE       PN      N1000R$  000000000009900000000001000000000000099000000000009900000000001000000000000000000000000000000002000000000000050100000000000005009900000000000325502016112100000010000000000000BRBBDCACNPR8651
012016072578BBDCK29     070BBDCE       PN      N1000R$  000000000014400000000001440000000000130000000000013100000000001300000000000000000000000000000002000000000000040000000000000005270000000000000392502017112100000010000000000000BRBBDCACNPR8651
012016072578BBDCL8      070BBDCE       PN      N1000R$  000000000023500000000002350000000000235000000000023500000000002350000000000000000000000000000001000000000000038300000000000009000500000000000355902017121800000010000000000000BRBBDCACNPR8651
012016072582BBDCT17     080BBDCE       PN      N1000R$  000000000001400000000000140000000000011000000000001100000000000110000000000003000000000002700002000000000000014950000000000000165050000000000260102016081500000010000000000000BRBBDCACNPR8620
012016072582BBDCT30     080BBDCE       PN      N1000R$  000000000002500000000000250000000000021000000000002200000000000220000000000000000000000005000006000000000000026000000000000000595000000000000271402016081500000010000000000000BRBBDCACNPR8646
012016072582BBDCT33     080BBDCE FM    PN      N1000R$  000000000003000000000000430000000000030000000000003500000000000380000000000000000000000004100014000000000000009300000000000000330900000000000278702016081500000010000000000000BRBBDCACNPR8649
012016072582BBDCT6      080BBDCE       PN      N1000R$  000000000000900000000000090000000000009000000000000900000000000090000000000000000000000000000001000000000000000100000000000000000900000000000258202016081500000010000000000000BRBBDCACNPR8620
012016072582BBDCT73     080BBDCE       PN      N1000R$  000000000014400000000001780000000000144000000000016100000000001780000000000000000000000000000002000000000000000200000000000000032200000000000303302016081500000010000000000000BRBBDCACNPR8646
012016072582BBDCT88     080BBDCE       PN      N1000R$  000000000004800000000000740000000000048000000000006300000000000610000000000000000000000008000003000000000000019000000000000001211000000000000286202016081500000010000000000000BRBBDCACNPR8648
012016072582BBDCT90     080BBDCE FM    PN      N1000R$  000000000013400000000001410000000000134000000000013700000000001410000000000000000000000000000002000000000000004400000000000000606400000000000298702016081500000010000000000000BRBBDCACNPR8651
012016072582BBDCT97     080BBDCE       PN      N1000R$  000000000010300000000001030000000000103000000000010300000000001030000000000000000000000000000002000000000000003000000000000000309000000000000293702016081500000010000000000000BRBBDCACNPR8651
012016072582BBDCW56     080BBDCE       PN      N1000R$  000000000006600000000000660000000000066000000000006600000000000660000000000000000000000000000001000000000000050000000000000003300000000000000263002016112100000010000000000000BRBBDCACNPR8648
012016072582BBDCW58     080BBDCE       PN      N1000R$  000000000014000000000001600000000000140000000000015900000000001600000000000000000000000000000002000000000000050100000000000008014000000000000288002016112100000010000000000000BRBBDCACNPR8651
012016072582BBDCW7      080BBDCE       PN      N1000R$  000000000021000000000002100000000000210000000000021000000000002100000000000000000000000000000001000000000000040000000000000008400000000000000287502017112100000010000000000000BRBBDCACNPR8651
012016072582BBDCW74     080BBDCE       PN      N1000R$  000000000007600000000000900000000000076000000000008100000000000900000000000000000000000000000003000000000000040200000000000003256600000000000247502017112100000010000000000000BRBBDCACNPR8651
012016072582BBDCX9      080BBDCE       PN      N1000R$  000000000019600000000002320000000000196000000000023100000000002320000000000000000000000000000002000000000000038400000000000008905200000000000290902017121800000010000000000000BRBBDCACNPR8651
012016072512BBFI11B     010FII BB PROGRCI      MB   R$  000000023899900000002390000000000238800000000023897900000002390000000000238800000000023900000009000000000000000020000000000004779597000000000000009999123100000010000000000000BRBBFICTF006232
012016072512BBPO11      010FII BB PRGIICI           R$  000000001194900000000119490000000011660000000001172000000000117800000000011715000000001178000730000000000000021471000000000251657686000000000000009999123100000010000000000000BRBBPOCTF003144
012016072512BBRC11      010FII BB CORP CI           R$  000000001050100000000105990000000010455000000001059300000000105990000000010460000000001059900020000000000000001123000000000011896037000000000000009999123100000010000000000000BRBBRCCTF004158
012016072502BBRK3       010BR BROKERS  ON      NM   R$  000000000017900000000002050000000000179000000000019600000000002020000000000200000000000020200314000000000000246800000000000048556600000000000000009999123100000010000000000000BRBBRKACNOR4110
012016072596BBRK3F      020BR BROKERS  ON      NM   R$  000000000018900000000002020000000000189000000000019200000000002020000000000199000000000021000002000000000000000085000000000000016325000000000000009999123100000010000000000000BRBBRKACNOR4110
012016072514BBSD11      010BB ETF SP DVCI           R$  000000000410800000000041270000000004108000000000411100000000041270000000000000000000000000000003000000000000000080000000000000328890000000000000009999123100000010000000000000BRBBSDCTF000100
012016072502BBSE3       010BBSEGURIDADEON      NM   R$  000000000298700000000029870000000002903000000000293000000000029350000000002934000000000293508630000000000004393900000000012875005800000000000000009999123100000010000000000000BRBBSEACNOR5106
012016072596BBSE3F      020BBSEGURIDADEON      NM   R$  000000000299400000000029950000000002902000000000293500000000029480000000002934000000000294800179000000000000004220000000000012389668000000000000009999123100000010000000000000BRBBSEACNOR5106
012016072562BBSE3T      030BBSEGURIDADEON      NM030R$  000000000299100000000029920000000002968000000000298300000000029690000000000000000000000000000006000000000000001500000000000004475697000000000000009999123100000010000000000000BRBBSEACNOR5106
012016072562BBSE3T      030BBSEGURIDADEON      NM091R$  000000000300900000000030360000000003009000000000302000000000030340000000000000000000000000000018000000000000300000000000000906162165000000000000009999123100000010000000000000BRBBSEACNOR5106
012016072578BBSEH25     070BBSE        ON      NM000R$  000000000042500000000004250000000000425000000000042500000000004250000000000000000000000000000001000000000000000100000000000000042500000000000252902016081500000010000000000000BRBBSEACNOR5106
012016072578BBSEH29     070BBSE        ON      NM000R$  000000000008900000000000890000000000089000000000008900000000000890000000000000000000000017800001000000000000001000000000000000089000000000000292902016081500000010000000000000BRBBSEACNOR5106
012016072578BBSEH30     070BBSE        ON      NM000R$  000000000005200000000000520000000000040000000000004600000000000490000000000039000000000009000014000000000000052600000000000002457000000000000302902016081500000010000000000000BRBBSEACNOR5106
012016072578BBSEH31     070BBSE        ON      NM000R$  000000000002000000000000210000000000018000000000001900000000000210000000000010000000000000000003000000000000015400000000000000296400000000000312902016081500000010000000000000BRBBSEACNOR5106
012016072578BBSEH58     070BBSE  FM    ON      NM000R$  000000000011200000000001130000000000112000000000011200000000001130000000000000000000000000000002000000000000001100000000000000123300000000000287902016081500000010000000000000BRBBSEACNOR5106
012016072578BBSEH59     070BBSE  FM    ON      NM000R$  000000000005500000000000660000000000055000000000005900000000000630000000000000000000000000000004000000000000009800000000000000581600000000000297902016081500000010000000000000BRBBSEACNOR5106
012016072578BBSEI30     070BBSE        ON      NM000R$  000000000008900000000000890000000000089000000000008900000000000890000000000000000000000000000001000000000000000900000000000000080100000000000302902016091900000010000000000000BRBBSEACNOR5106
012016072578BBSEI53     070BBSE        ON      NM000R$  000000000002300000000000250000000000023000000000002400000000000250000000000019000000000000000006000000000000020000000000000000484000000000000337902016091900000010000000000000BRBBSEACNOR5106
012016072578BBSEI80     070BBSE  FM    ON      NM000R$  000000000007600000000000760000000000076000000000007600000000000760000000000005000000000000000001000000000000003000000000000000228000000000000307902016091900000010000000000000BRBBSEACNOR5106
012016072578BBSEJ77     070BBSEE       ON      NM000R$  000000000028100000000002810000000000281000000000028100000000002810000000000000000000000000000001000000000000004500000000000001264500000000000277502016101700000010000000000000BRBBSEACNOR5106
012016072582BBSET25     080BBSEE       ON      NM000R$  000000000000600000000000060000000000006000000000000600000000000060000000000000000000000000000001000000000000001000000000000000006000000000000252902016081500000010000000000000BRBBSEACNOR5106
012016072582BBSET26     080BBSEE       ON      NM000R$  000000000001000000000000100000000000010000000000001000000000000100000000000006000000000000000001000000000000001000000000000000010000000000000262902016081500000010000000000000BRBBSEACNOR5106
012016072582BBSET27     080BBSEE       ON      NM000R$  000000000001000000000000100000000000010000000000001000000000000100000000000000000000000001000001000000000000000300000000000000003000000000000272902016081500000010000000000000BRBBSEACNOR5106
012016072582BBSET79     080BBSEE       ON      NM000R$  000000000006100000000000630000000000061000000000006100000000000630000000000000000000000000000002000000000000006000000000000000369800000000000295402016081500000010000000000000BRBBSEACNOR5106
012016072582BBSEU28     080BBSEE       ON      NM000R$  000000000006800000000000680000000000068000000000006800000000000680000000000000000000000000000001000000000000001000000000000000068000000000000282902016091900000010000000000000BRBBSEACNOR5106
012016072502BBTG11      010BTG PACTUAL UNT          R$  000000000170900000000017310000000001690000000000170700000000017180000000001702000000000171800394000000000000106500000000000181814900000000000000009999123100000010000000000000BRBBTGUNT007114
012016072596BBTG11F     020BTG PACTUAL UNT          R$  000000000172300000000018080000000001694000000000171200000000017020000000001694000000000179000009000000000000000393000000000000672938000000000000009999123100000010000000000000BRBBTGUNT007114
012016072512BBVJ11      010FII C JARDIMCI           R$  000000000540000000000055340000000005400000000000549000000000055340000000005480000000000553400031000000000000002518000000000013824707000000000000009999123100000010000000000000BRBBVJCTF001167
012016072512BCFF11B     010FII BC FFII CI      MB   R$  000000000700200000000070150000000006978000000000700500000000070150000000007000000000000703500028000000000000002982000000000020890603000000000000009999123100000010000000000000BRBCFFCTF000176
012016072512BCIA11      010FII BCIA    CI           R$  000000001020000000000102000000000010200000000001020000000000102000000000010000000000001020000003000000000000000004000000000000040800000000000000009999123100000010000000000000BRBCIACTF005113
012016072512BCRI11      010FII BEES CRICI           R$  000000001028000000000102800000000010280000000001028000000000102800000000010220000000001028000008000000000000000691000000000007103480000000000000009999123100000010000000000000BRBCRICTF009112
012016072502BDLL4       010BARDELLA    PN           R$  000000000334500000000033450000000003345000000000334500000000033450000000003000000000000334500001000000000000000100000000000000334500000000000000009999123100000010000000000000BRBDLLACNPR8151
012016072502BEEF3       010MINERVA     ON      NM   R$  000000000094000000000009590000000000917000000000093100000000009380000000000927000000000093903751000000000001135700000000001057425900000000000000009999123100000010000000000000BRBEEFACNOR6106
012016072596BEEF3F      020MINERVA     ON      NM   R$  000000000096000000000009600000000000920000000000092800000000009260000000000924000000000095500012000000000000000291000000000000270243000000000000009999123100000010000000000000BRBEEFACNOR6106
012016072562BEEF3T      030MINERVA     ON      NM030R$  000000000093500000000009360000000000935000000000093500000000009360000000000000000000000000000002000000000000000300000000000000280552000000000000009999123100000010000000000000BRBEEFACNOR6106
012016072562BEEF3T      030MINERVA     ON      NM060R$  000000000094400000000009450000000000944000000000094400000000009450000000000000000000000000000002000000000000010000000000000009446444000000000000009999123100000010000000000000BRBEEFACNOR6106
012016072502BEES3       010BANESTES    ON  EJ       R$  000000000023900000000002420000000000239000000000024100000000002410000000000240000000000024100013000000000000013100000000000003160100000000000000009999123100000010000000000000BRBEESACNOR9284
012016072502BEES4       010BANESTES    PN  EJ       R$  000000000025000000000002600000000000250000000000025900000000002600000000000245000000000026000006000000000000001500000000000000388900000000000000009999123100000010000000000000BRBEESACNPR6209
012016072502BERK34      010BERKSHIRE   DRN          R$  000000004721800000000476520000000047218000000004737000000000472980000000042750000000005200000005000000000000001100000000000052107800000000000000009999123100000010000000000000BRBERKBDR002100
012016072596BERK34F     020BERKSHIRE   DRN          R$  000000004743300000000474330000000047433000000004743300000000474330000000000100000000000000000001000000000000000081000000000003842073000000000000009999123100000010000000000000BRBERKBDR002100
012016072502BGIP4       010BANESE      PN           R$  000000000130000000000013000000000001300000000000130000000000013000000000001260000000000137600001000000000000000100000000000000130000000000000000009999123100000010000000000000BRBGIPACNPR8186
012016072502BIIB34      010BIOGEN      DRN          R$  000000001585100000000158510000000015725000000001583900000000157250000000000000000000000000000003000000000000006600000000000104541000000000000000009999123100000010000000000000BRBIIBBDR001100
012016072596BIIB34F     020BIOGEN      DRN          R$  000000001581500000000158150000000015815000000001581500000000158150000000000000000000000000000001000000000000000067000000000001059605000000000000009999123100000010000000000000BRBIIBBDR001100
012016072502BLAK34      010BLACKROCK   DRN          R$  000000001984400000000198440000000019844000000001984400000000198440000000000000000000002267000001000000000000003100000000000061516400000000000000009999123100000010000000000000BRBLAKBDR003101
012016072502BMEB4       010MERC BRASIL PN           R$  000000000052100000000005210000000000513000000000051400000000005150000000000511000000000051700010000000000000009100000000000004684700000000000000009999123100000010000000000000BRBMEBACNPR5195
012016072502BMIN4       010MERC INVEST PN           R$  000000000003000000000000310000000000030000000000003000000000000310000000000029000000000003100006000000000000009000000000000000272000000000000000009999123100000010000000000000BRBMINACNPR1165
012016072596BMIN4F      020MERC INVEST PN           R$  000000000003100000000000310000000000029000000000003000000000000290000000000030000000000003300004000000000000000279000000000000008533000000000000009999123100000010000000000000BRBMINACNPR1165
012016072502BMKS3       010BIC MONARK  ON           R$  000000002866600000000286660000000028666000000002866600000000286660000000028600000000002866500001000000000000000001000000000000028666000000000000009999123100000010000000000000BRBMKSACNOR9158
012016072512BMLC11B     010FII BMBRC LCCI      MB   R$  000000000885000000000088500000000008560000000000867200000000088000000000008601000000000870000013000000000000000552000000000004787169000000000000009999123100000010000000000000BRBMLCCTF004153
012016072502BMTO4       010BRASMOTOR   PN           R$  000000000071100000000007150000000000711000000000071100000000007150000000000710000000000071500005000000000000000700000000000000498300000000000000009999123100000010000000000000BRBMTOACNPR6071
012016072596BMTO4F      020BRASMOTOR   PN           R$  000000000071200000000007120000000000712000000000071200000000007120000000000701000000000071200001000000000000000050000000000000035600000000000000009999123100000010000000000000BRBMTOACNPR6071
012016072502BMYB34      010BRISTOLMYERSDRN          R$  000000002482900000000248290000000024829000000002482900000000248290000000000000000000000000000001000000000000003900000000000096833100000000000000009999123100000010000000000000BRBMYBBDR000111
012016072502BOAC34      010BANK AMERICADRN          R$  000000000470400000000047040000000004704000000000470400000000047040000000004670000000000476700005000000000000003600000000000016934400000000000000009999123100000010000000000000BRBOACBDR004123
012016072596BOAC34F     020BANK AMERICADRN          R$  000000000470300000000047030000000004703000000000470300000000047030000000004400000000000000000001000000000000000058000000000000272774000000000000009999123100000010000000000000BRBOACBDR004123
012016072514BOVA11      010ISHARES BOVACI           R$  000000000553500000000055460000000005469000000000550500000000055100000000005510000000000551405824000000000001712980000000009430133930000000000000009999123100000010000000000000BRBOVACTF003102
012016072596BOVA11F     020ISHARES BOVACI           R$  000000000550500000000055460000000005480000000000550700000000054990000000005509000000000553000013000000000000000043000000000000236805000000000000009999123100000010000000000000BRBOVACTF003102
012016072562BOVA11T     030ISHARES BOVACI        016R$  000000000556500000000055660000000005565000000000556500000000055660000000000000000000000000000002000000000000000020000000000000111304000000000000009999123100000010000000000000BRBOVACTF003102
012016072578BOVAH50     070BOVA        CI        000R$  000000000054600000000005460000000000546000000000054600000000005460000000000000000000000000000001000000000000000900000000000000491400000000000500002016081500000010000000000000BRBOVACTF003102
012016072578BOVAH52     070BOVA        CI        000R$  000000000032400000000003240000000000324000000000032400000000003240000000000000000000000000000005000000000000000500000000000000162000000000000520002016081500000010000000000000BRBOVACTF003102
012016072578BOVAH53     070BOVA        CI        000R$  000000000027500000000002750000000000251000000000025900000000002510000000000246000000000000000009000000000000000900000000000000233400000000000530002016081500000010000000000000BRBOVACTF003102
012016072578BOVAH54     070BOVA  FM    CI        000R$  000000000021000000000002130000000000172000000000019800000000001920000000000174000000000000000017000000000000001840000000000000364900000000000540002016081500000010000000000000BRBOVACTF003102
012016072578BOVAH55     070BOVA  FM    CI        000R$  000000000014700000000001470000000000108000000000013300000000001270000000000115000000000013600010000000000000021240000000000002845370000000000550002016081500000010000000000000BRBOVACTF003102
012016072578BOVAH56     070BOVA  FM    CI        000R$  000000000009000000000000900000000000062000000000006700000000000760000000000000000000000008000008000000000000004000000000000000270800000000000560002016081500000010000000000000BRBOVACTF003102
012016072578BOVAH57     070BOVA  FM    CI        000R$  000000000003300000000000410000000000033000000000003300000000000410000000000000000000000000000003000000000000003050000000000000102050000000000570002016081500000010000000000000BRBOVACTF003102
012016072578BOVAI55     070BOVA  FM    CI        000R$  000000000025800000000002580000000000224000000000023900000000002340000000000000000000000000000004000000000000006400000000000001531100000000000550002016091900000010000000000000BRBOVACTF003102
012016072578BOVAI56     070BOVA  FM    CI        000R$  000000000019800000000001980000000000180000000000019700000000001800000000000178000000000000000003000000000000005100000000000001008000000000000560002016091900000010000000000000BRBOVACTF003102
012016072578BOVAI58     070BOVA  FM    CI        000R$  000000000010300000000001070000000000082000000000008700000000000940000000000000000000000009100013000000000000003800000000000000331200000000000580002016091900000010000000000000BRBOVACTF003102
012016072582BOVAT51     080BOVAE       CI        000R$  000000000000900000000000090000000000009000000000000900000000000090000000000000000000000000000001000000000000000200000000000000001800000000000510002016081500000010000000000000BRBOVACTF003102
012016072582BOVAT52     080BOVAE       CI        000R$  000000000001600000000000160000000000016000000000001600000000000160000000000016000000000000000001000000000000000200000000000000003200000000000520002016081500000010000000000000BRBOVACTF003102
012016072582BOVAT53     080BOVAE FM    CI        000R$  000000000002700000000000280000000000025000000000002600000000000280000000000025000000000000000003000000000000007500000000000000200000000000000530002016081500000010000000000000BRBOVACTF003102
012016072582BOVAT55     080BOVAE FM    CI        000R$  000000000007400000000000940000000000068000000000007400000000000820000000000000000000000009200022000000000000011200000000000000830300000000000550002016081500000010000000000000BRBOVACTF003102
012016072582BOVAT56     080BOVAE FM    CI        000R$  000000000012500000000001440000000000125000000000013500000000001440000000000000000000000014700004000000000000000400000000000000054000000000000560002016081500000010000000000000BRBOVACTF003102
012016072582BOVAU53     080BOVAE FM    CI        000R$  000000000007100000000000710000000000071000000000007100000000000710000000000000000000000000000002000000000000005000000000000000355000000000000530002016091900000010000000000000BRBOVACTF003102
012016072582BOVAU54     080BOVAE FM    CI        000R$  000000000009800000000000980000000000098000000000009800000000000980000000000000000000000009600001000000000000000100000000000000009800000000000540002016091900000010000000000000BRBOVACTF003102
012016072582BOVAU55     080BOVAE FM    CI        000R$  000000000011700000000001280000000000117000000000011900000000001280000000000000000000000000000002000000000000003400000000000000407700000000000550002016091900000010000000000000BRBOVACTF003102
012016072502BOXP34      010BOSTON PROP DRN          R$  000000000452500000000045550000000004525000000000454000000000045550000000004519000000000460800002000000000000001200000000000005448000000000000000009999123100000010000000000000BRBOXPBDR008104
012016072596BOXP34F     020BOSTON PROP DRN          R$  000000000452500000000045550000000004525000000000454000000000045550000000000000000000000000000002000000000000000116000000000000526640000000000000009999123100000010000000000000BRBOXPBDR008104
012016072502BPAN4       010BANCO PAN   PN      N1   R$  000000000015300000000001540000000000150000000000015100000000001530000000000152000000000015300017000000000000024600000000000003719100000000000000009999123100000010000000000000BRBPANACNPR1104
012016072512BPFF11      010FII ABSOLUTOCI           R$  000000000829900000000083000000000008100000000000823700000000083000000000008230000000000830000037000000000000001637000000000013485052000000000000009999123100000010000000000000BRBPFFCTF002139
012016072502BPHA3       010BR PHARMA   ON      NM   R$  000000000057000000000005890000000000553000000000056400000000005720000000000561000000000057200126000000000000055600000000000031398800000000000000009999123100000010000000000000BRBPHAACNOR6104
012016072596BPHA3F      020BR PHARMA   ON      NM   R$  000000000057100000000005750000000000554000000000055600000000005540000000000554000000000058000004000000000000000070000000000000038930000000000000009999123100000010000000000000BRBPHAACNOR6104
012016072502BRAP3       010BRADESPAR   ON      N1   R$  000000000088000000000008880000000000850000000000086400000000008560000000000856000000000088800067000000000000063100000000000054548500000000000000009999123100000010000000000000BRBRAPACNOR5129
012016072596BRAP3F      020BRADESPAR   ON      N1   R$  000000000088000000000008800000000000880000000000088000000000008800000000000862000000000088400004000000000000000027000000000000023760000000000000009999123100000010000000000000BRBRAPACNOR5129
012016072502BRAP4       010BRADESPAR   PN      N1   R$  000000000102800000000010380000000001012000000000102200000000010310000000001027000000000103104983000000000001263800000000001292432200000000000000009999123100000010000000000000BRBRAPACNPR2129
012016072596BRAP4F      020BRADESPAR   PN      N1   R$  000000000103100000000010360000000001003000000000102000000000010030000000001003000000000103200036000000000000001123000000000001146427000000000000009999123100000010000000000000BRBRAPACNPR2129
012016072562BRAP4T      030BRADESPAR   PN      N1016R$  000000000103800000000010390000000001038000000000103800000000010390000000000000000000000000000002000000000000003000000000000003114886000000000000009999123100000010000000000000BRBRAPACNPR2129
012016072514BRAX11      010ISHARES BRAXCI           R$  000000000464300000000046430000000004641000000000464200000000046410000000000000000000000000000002000000000000000120000000000000557080000000000000009999123100000010000000000000BRBRAXCTF002100
012016072512BRCR11      010FII BC FUND CI           R$  000000000961100000000096750000000009560000000000964600000000096350000000009635000000000966200768000000000000026688000000000257433503000000000000009999123100000010000000000000BRBRCRCTF000167
012016072502BRFS3       010BRF SA      ON      NM   R$  000000000517500000000051940000000005047000000000515000000000051550000000005155000000000515804290000000000000934400000000004812746100000000000000009999123100000010000000000000BRBRFSACNOR8117
012016072596BRFS3F      020BRF SA      ON      NM   R$  000000000520000000000052000000000005060000000000514800000000051510000000005140000000000515100130000000000000003275000000000016860009000000000000009999123100000010000000000000BRBRFSACNOR8117
012016072578BRFSH18     070BRFS        ON      NM000R$  000000000039000000000004000000000000390000000000039100000000004000000000000400000000000000000006000000000000001600000000000000626000000000000479702016081500000010000000000000BRBRFSACNOR8116
012016072578BRFSH22     070BRFSE       ON      NM000R$  000000000012300000000001410000000000123000000000013300000000001410000000000000000000000000000005000000000000007300000000000000973400000000000522202016081500000010000000000000BRBRFSACNOR8116
012016072578BRFSH4      070BRFS  FM    ON      NM000R$  000000000007500000000000760000000000075000000000007500000000000760000000000000000000000000000007000000000000008000000000000000603000000000000537202016081500000010000000000000BRBRFSACNOR8116
012016072578BRFSH50     070BRFS  FM    ON      NM000R$  000000000030100000000003020000000000301000000000030100000000003020000000000041000000000000000002000000000000000200000000000000060300000000000497202016081500000010000000000000BRBRFSACNOR8116
012016072578BRFSH51     070BRFS  FM    ON      NM000R$  000000000022700000000002270000000000227000000000022700000000002270000000000000000000000000000001000000000000000200000000000000045400000000000507202016081500000010000000000000BRBRFSACNOR8116
012016072578BRFSH52     070BRFS  FM    ON      NM000R$  000000000015500000000001550000000000155000000000015500000000001550000000000000000000000019500001000000000000002600000000000000403000000000000517202016081500000010000000000000BRBRFSACNOR8115
012016072578BRFSH53     070BRFS  FM    ON      NM000R$  000000000008200000000000860000000000071000000000007900000000000850000000000000000000000000000007000000000000009400000000000000749200000000000527202016081500000010000000000000BRBRFSACNOR8116
012016072578BRFSH55     070BRFS        ON      NM000R$  000000000006000000000000600000000000053000000000005300000000000530000000000000000000000014000003000000000000001000000000000000053700000000000547202016081500000010000000000000BRBRFSACNOR8116
012016072578BRFSH56     070BRFS        ON      NM000R$  000000000004500000000000450000000000045000000000004500000000000450000000000000000000000004500001000000000000000100000000000000004500000000000557202016081500000010000000000000BRBRFSACNOR8116
012016072578BRFSH6      070BRFSE       ON      NM000R$  000000000038000000000003800000000000311000000000031700000000003110000000000000000000000000000002000000000000001000000000000000317900000000000639502017082100000010000000000000BRBRFSACNOR8117
012016072578BRFSI50     070BRFS  FM    ON      NM000R$  000000000037400000000003740000000000374000000000037400000000003740000000000000000000000000000001000000000000000100000000000000037400000000000502902016091900000010000000000000BRBRFSACNOR8116
012016072578BRFSI51     070BRFS  FM    ON      NM000R$  000000000031300000000003130000000000313000000000031300000000003130000000000000000000000000000001000000000000000200000000000000062600000000000512902016091900000010000000000000BRBRFSACNOR8116
012016072578BRFSJ52     070BRFS        ON      NM000R$  000000000034200000000003420000000000342000000000034200000000003420000000000000000000000000000001000000000000000100000000000000034200000000000517202016101700000010000000000000BRBRFSACNOR8116
012016072578BRFSJ56     070BRFS        ON      NM000R$  000000000010400000000001040000000000084000000000008400000000000840000000000000000000000000000002000000000000018500000000000001556000000000000557202016101700000010000000000000BRBRFSACNOR8116
012016072582BRFST2      080BRFSE       ON      NM000R$  000000000013500000000001350000000000114000000000011600000000001140000000000000000000000000000002000000000000001000000000000000116100000000000439502017082100000010000000000000BRBRFSACNOR8117
012016072582BRFST3      080BRFSE       ON      NM000R$  000000000037000000000004250000000000370000000000041900000000004250000000000000000000000000000002000000000000001000000000000000419500000000000519502017082100000010000000000000BRBRFSACNOR8117
012016072582BRFST46     080BRFSE       ON      NM000R$  000000000002000000000000200000000000018000000000001900000000000180000000000000000000000002000002000000000000001000000000000000019000000000000454702016081500000010000000000000BRBRFSACNOR8116
012016072582BRFST48     080BRFSE       ON      NM000R$  000000000004400000000000440000000000034000000000004300000000000340000000000000000000000003000003000000000000004400000000000000189600000000000472202016081500000010000000000000BRBRFSACNOR8116
012016072582BRFST50     080BRFSE FM    ON      NM000R$  000000000010300000000001040000000000067000000000008100000000000720000000000051000000000010000005000000000000006300000000000000511200000000000497202016081500000010000000000000BRBRFSACNOR8116
012016072582BRFSU15     080BRFSE       ON      NM000R$  000000000006400000000000640000000000059000000000006200000000000590000000000000000000000000000008000000000000016000000000000000996000000000000452902016091900000010000000000000BRBRFSACNOR8116
012016072582BRFSU19     080BRFSE       ON      NM000R$  000000000013300000000001330000000000133000000000013300000000001330000000000000000000000000000001000000000000000500000000000000066500000000000492902016091900000010000000000000BRBRFSACNOR8116
012016072502BRIN3       010BR INSURANCEON      NM   R$  000000000200900000000020500000000001986000000000204000000000020390000000002013000000000203900098000000000000048400000000000098778000000000000000009999123100000010000000000000BRBRINACNOR3111
012016072596BRIN3F      020BR INSURANCEON      NM   R$  000000000203500000000020350000000002001000000000201400000000020010000000002001000000000202000003000000000000000145000000000000292055000000000000009999123100000010000000000000BRBRINACNOR3111
012016072562BRIN3T      030BR INSURANCEON      NM030R$  000000000207200000000020730000000002072000000000207200000000020730000000000000000000000000000004000000000000031000000000000064237158000000000000009999123100000010000000000000BRBRINACNOR3111
012016072502BRIV4       010ALFA INVEST PN           R$  000000000065700000000006570000000000657000000000065700000000006570000000000656000000000065700001000000000000000200000000000000131400000000000000009999123100000010000000000000BRBRIVACNPR3202
012016072502BRKM3       010BRASKEM     ON      N1   R$  000000000143000000000014300000000001430000000000143000000000014300000000001403000000000143700002000000000000001200000000000001716000000000000000009999123100000010000000000000BRBRKMACNOR1113
012016072502BRKM5       010BRASKEM     PNA     N1   R$  000000000193200000000019400000000001884000000000191100000000019240000000001923000000000192404348000000000000832800000000001592248500000000000000009999123100000010000000000000BRBRKMACNPA4113
012016072596BRKM5F      020BRASKEM     PNA     N1   R$  000000000195000000000019500000000001890000000000190900000000019100000000001910000000000192900021000000000000000597000000000001140192000000000000009999123100000010000000000000BRBRKMACNPA4113
012016072562BRKM5T      030BRASKEM     PNA     N1024R$  000000000193300000000019340000000001933000000000193300000000019340000000000000000000000000000002000000000000000600000000000001160375000000000000009999123100000010000000000000BRBRKMACNPA4113
012016072502BRKM6       010BRASKEM     PNB     N1   R$  000000000150000000000015000000000001500000000000150000000000015000000000001002000000000146900001000000000000000100000000000000150000000000000000009999123100000010000000000000BRBRKMACNPB2111
012016072578BRKMI21     070BRKM        PNA     N1000R$  000000000003500000000000350000000000035000000000003500000000000350000000000000000000000000000002000000000000030000000000000001050000000000000212402016091900000010000000000000BRBRKMACNPA4113
012016072502BRML3       010BR MALLS PARON      NM   R$  000000000140600000000014140000000001365000000000138600000000013920000000001386000000000139210510000000000004186400000000005804808600000000000000009999123100000010000000000000BRBRMLACNOR9109
012016072596BRML3F      020BR MALLS PARON      NM   R$  000000000142300000000014240000000001365000000000139400000000014000000000001382000000000140000062000000000000001788000000000002492765000000000000009999123100000010000000000000BRBRMLACNOR9109
012016072578BRMLH14     070BRML  FM    ON      NM000R$  000000000002700000000000270000000000027000000000002700000000000270000000000000000000000000000001000000000000150000000000000004050000000000000141902016081500000010000000000000BRBRMLACNOR9109
012016072582BRMLT13     080BRMLE FM    ON      NM000R$  000000000001000000000000100000000000010000000000001000000000000100000000000000000000000003200001000000000000150000000000000001500000000000000131902016081500000010000000000000BRBRMLACNOR9109
012016072502BRPR3       010BR PROPERT  ON      NM   R$  000000000092000000000009230000000000887000000000090800000000009090000000000904000000000091003424000000000000957500000000000869895600000000000000009999123100000010000000000000BRBRPRACNOR9116
012016072596BRPR3F      020BR PROPERT  ON      NM   R$  000000000091500000000009190000000000890000000000090600000000009070000000000736000000000092100027000000000000000775000000000000702183000000000000009999123100000010000000000000BRBRPRACNOR9116
012016072596BRSR3F      020BANRISUL    ON      N1   R$  000000000130000000000013000000000001300000000000130000000000013000000000001300000000000139300002000000000000000056000000000000072800000000000000009999123100000010000000000000BRBRSRACNOR3144
012016072502BRSR5       010BANRISUL    PNA     N1   R$  000000000250000000000025000000000001580000000000196000000000015800000000001580000000000220000005000000000000000600000000000001176000000000000000009999123100000010000000000000BRBRSRACNPA6148
012016072502BRSR6       010BANRISUL    PNB     N1   R$  000000000105400000000010890000000001052000000000107400000000010800000000001078000000000108004214000000000000809100000000000869183900000000000000009999123100000010000000000000BRBRSRACNPB4147
012016072596BRSR6F      020BANRISUL    PNB     N1   R$  000000000106300000000010800000000001055000000000106900000000010750000000001074000000000108800050000000000000001729000000000001848343000000000000009999123100000010000000000000BRBRSRACNPB4147
012016072502BSAN33      010BANSANTANDERDR3          R$  000000000128900000000012890000000001289000000000128900000000012890000000001190000000000128900002000000000000001100000000000001417900000000000000009999123100000010000000000000BRBSANBDR002106
012016072502BSEV3       010BIOSEV      ON      NM   R$  000000000119500000000012100000000001177000000000119900000000012050000000001000000000000121000012000000000000003300000000000003958600000000000000009999123100000010000000000000BRBSEVACNOR3101
012016072502BTOW3       010B2W DIGITAL ON      NM   R$  000000000136300000000013630000000001280000000000130100000000012900000000001289000000000129002171000000000000557600000000000725832000000000000000009999123100000010000000000000BRBTOWACNOR8108
012016072596BTOW3F      020B2W DIGITAL ON      NM   R$  000000000131000000000013190000000001291000000000130500000000012980000000001251000000000132900012000000000000000283000000000000369401000000000000009999123100000010000000000000BRBTOWACNOR8108
012016072502BTTL4       010BATTISTELLA PN           R$  000000000125000000000012500000000001250000000000125000000000012500000000001155000000000124900001000000000000000100000000000000125000000000000000009999123100000010000000000000BRBTTLACNPR7106
012016072596BTTL4F      020BATTISTELLA PN           R$  000000000118000000000011800000000001180000000000118000000000011800000000000770000000000118000001000000000000000002000000000000002360000000000000009999123100000010000000000000BRBTTLACNPR7106
012016072502BVMF3       010BMFBOVESPA  ON      NM   R$  000000000193500000000019520000000001896000000000191500000000019200000000001917000000000192013334000000000005375000000000010296199200000000000000009999123100000010000000000000BRBVMFACNOR3137
012016072596BVMF3F      020BMFBOVESPA  ON      NM   R$  000000000193300000000019490000000001898000000000191700000000019100000000001910000000000192000138000000000000004475000000000008578900000000000000009999123100000010000000000000BRBVMFACNOR3137
012016072562BVMF3T      030BMFBOVESPA  ON      NM060R$  000000000195200000000019530000000001952000000000195200000000019530000000000000000000000000000002000000000000001000000000000001952859000000000000009999123100000010000000000000BRBVMFACNOR3137
012016072578BVMFC22     070BVMF        ON      NM000R$  000000000013500000000001350000000000135000000000013500000000001350000000000000000000000000000001000000000000001800000000000000243000000000000219202017032000000010000000000000BRBVMFACNOR3136
012016072578BVMFH16     070BVMF        ON      NM000R$  000000000033300000000003330000000000333000000000033300000000003330000000000000000000000000000001000000000000000100000000000000033300000000000159202016081500000010000000000000BRBVMFACNOR3136
012016072578BVMFH17     070BVMF        ON      NM000R$  000000000021700000000002260000000000217000000000022100000000002260000000000001000000000000000006000000000000001000000000000000221500000000000169202016081500000010000000000000BRBVMFACNOR3136
012016072578BVMFH18     070BVMF        ON      NM000R$  000000000014000000000001400000000000135000000000013700000000001400000000000100000000000000000008000000000000004500000000000000618500000000000179202016081500000010000000000000BRBVMFACNOR3136
012016072578BVMFH19     070BVMF  FM    ON      NM000R$  000000000009600000000000960000000000062000000000007500000000000700000000000059000000000007600060000000000000065600000000000004929500000000000189202016081500000010000000000000BRBVMFACNOR3136
012016072578BVMFH20     070BVMF  FM    ON      NM000R$  000000000003800000000000380000000000023000000000002700000000000270000000000028000000000003500078000000000000140300000000000003922900000000000199202016081500000010000000000000BRBVMFACNOR3136
012016072578BVMFH21     070BVMF  FM    ON      NM000R$  000000000001500000000000150000000000008000000000001000000000000120000000000011000000000001600057000000000000149000000000000001636800000000000209202016081500000010000000000000BRBVMFACNOR3136
012016072578BVMFH22     070BVMF  FM    ON      NM000R$  000000000000600000000000060000000000004000000000000500000000000060000000000004000000000000600034000000000000126700000000000000638900000000000219202016081500000010000000000000BRBVMFACNOR3136
012016072578BVMFH23     070BVMF        ON      NM000R$  000000000000400000000000040000000000002000000000000300000000000030000000000003000000000000500006000000000000012100000000000000037700000000000229202016081500000010000000000000BRBVMFACNOR3136
012016072578BVMFH24     070BVMF        ON      NM000R$  000000000000200000000000020000000000001000000000000100000000000020000000000002000000000000300010000000000000047800000000000000095500000000000239202016081500000010000000000000BRBVMFACNOR3136
012016072578BVMFH25     070BVMF        ON      NM000R$  000000000000100000000000010000000000001000000000000100000000000010000000000000000000000000200003000000000000010100000000000000010100000000000249202016081500000010000000000000BRBVMFACNOR3136
012016072578BVMFH48     070BVMF        ON      NM000R$  000000000010700000000001070000000000094000000000010300000000001000000000000009000000000000000008000000000000005100000000000000527600000000000184202016081500000010000000000000BRBVMFACNOR3136
012016072578BVMFH49     070BVMF  FM    ON      NM000R$  000000000005600000000000560000000000039000000000004700000000000460000000000044000000000004700028000000000000036600000000000001755800000000000194202016081500000010000000000000BRBVMFACNOR3136
012016072578BVMFH50     070BVMF        ON      NM000R$  000000000001700000000000170000000000011000000000001500000000000160000000000011000000000001700045000000000000063800000000000000981400000000000204202016081500000010000000000000BRBVMFACNOR3136
012016072578BVMFH51     070BVMF        ON      NM000R$  000000000000500000000000060000000000005000000000000500000000000060000000000005000000000000900023000000000000020200000000000000101100000000000214202016081500000010000000000000BRBVMFACNOR3136
012016072578BVMFH52     070BVMF        ON      NM000R$  000000000000500000000000050000000000003000000000000400000000000030000000000004000000000000800010000000000000036900000000000000160200000000000224202016081500000010000000000000BRBVMFACNOR3136
012016072578BVMFH53     070BVMF        ON      NM000R$  000000000000100000000000010000000000001000000000000100000000000010000000000001000000000000300001000000000000000100000000000000000100000000000234202016081500000010000000000000BRBVMFACNOR3136
012016072578BVMFH54     070BVMF        ON      NM000R$  000000000000100000000000010000000000001000000000000100000000000010000000000000000000000000200003000000000000013300000000000000013300000000000244202016081500000010000000000000BRBVMFACNOR3136
012016072578BVMFH55     070BVMF        ON      NM000R$  000000000000100000000000010000000000001000000000000100000000000010000000000000000000000000100001000000000000001000000000000000001000000000000254202016081500000010000000000000BRBVMFACNOR3136
012016072578BVMFH63     070BVMFE       ON      NM000R$  000000000061200000000006120000000000595000000000060300000000005950000000000590000000000000000002000000000000000200000000000000120700000000000131702016081500000010000000000000BRBVMFACNOR3136
012016072578BVMFH79     070BVMFE       ON      NM000R$  000000000005900000000000590000000000032000000000003500000000000340000000000030000000000005000007000000000000025000000000000000888500000000000196702016081500000010000000000000BRBVMFACNOR3137
012016072578BVMFI18     070BVMF        ON      NM000R$  000000000014000000000001400000000000140000000000014000000000001400000000000000000000000000000001000000000000002600000000000000364000000000000184202016091900000010000000000000BRBVMFACNOR3137
012016072578BVMFI19     070BVMF  FM    ON      NM000R$  000000000008000000000000810000000000080000000000008000000000000810000000000081000000000026700002000000000000001600000000000000128400000000000194202016091900000010000000000000BRBVMFACNOR3137
012016072578BVMFI20     070BVMF        ON      NM000R$  000000000004700000000000470000000000047000000000004700000000000470000000000043000000000008500001000000000000000200000000000000009400000000000204202016091900000010000000000000BRBVMFACNOR3137
012016072578BVMFI21     070BVMF        ON      NM000R$  000000000002800000000000280000000000025000000000002700000000000250000000000023000000000003100002000000000000002700000000000000075300000000000214202016091900000010000000000000BRBVMFACNOR3137
012016072578BVMFI48     070BVMF  FM    ON      NM000R$  000000000011700000000001170000000000117000000000011700000000001170000000000071000000000000000003000000000000008500000000000000994500000000000189202016091900000010000000000000BRBVMFACNOR3137
012016072578BVMFI49     070BVMF  FM    ON      NM000R$  000000000006700000000000670000000000067000000000006700000000000670000000000020000000000000000001000000000000004500000000000000301500000000000199202016091900000010000000000000BRBVMFACNOR3137
012016072578BVMFI50     070BVMF  FM    ON      NM000R$  000000000003700000000000380000000000036000000000003700000000000370000000000000000000000006000012000000000000037500000000000001397000000000000209202016091900000010000000000000BRBVMFACNOR3137
012016072578BVMFI51     070BVMF  FM    ON      NM000R$  000000000001900000000000190000000000018000000000001800000000000190000000000000000000000000000006000000000000030000000000000000554000000000000219202016091900000010000000000000BRBVMFACNOR3137
012016072578BVMFJ49     070BVMF        ON      NM000R$  000000000011400000000001160000000000114000000000011500000000001150000000000000000000000000000006000000000000400000000000000046080000000000000195602016101700000010000000000000BRBVMFACNOR3137
012016072578BVMFJ79     070BVMFE       ON      NM000R$  000000000010200000000001020000000000102000000000010200000000001020000000000000000000000000000002000000000000010000000000000001020000000000000198102016101700000010000000000000BRBVMFACNOR3137
012016072578BVMFK17     070BVMF        ON      NM000R$  000000000028100000000002810000000000281000000000028100000000002810000000000000000000000000000001000000000000009200000000000002585200000000000171902016112100000010000000000000BRBVMFACNOR3137
012016072582BVMFT15     080BVMFE       ON      NM000R$  000000000000100000000000010000000000001000000000000100000000000010000000000000000000000000100001000000000000000500000000000000000500000000000149202016081500000010000000000000BRBVMFACNOR3136
012016072582BVMFT16     080BVMFE       ON      NM000R$  000000000000100000000000020000000000001000000000000100000000000010000000000002000000000003300003000000000000015000000000000000015100000000000159202016081500000010000000000000BRBVMFACNOR3136
012016072582BVMFT17     080BVMFE       ON      NM000R$  000000000000300000000000060000000000002000000000000300000000000060000000000002000000000000800007000000000000001300000000000000004600000000000169202016081500000010000000000000BRBVMFACNOR3136
012016072582BVMFT18     080BVMFE       ON      NM000R$  000000000001300000000000130000000000013000000000001300000000000130000000000002000000000002000001000000000000001000000000000000013000000000000179202016081500000010000000000000BRBVMFACNOR3136
012016072582BVMFT19     080BVMFE FM    ON      NM000R$  000000000003100000000000430000000000031000000000003700000000000390000000000001000000000004500033000000000000123800000000000004605000000000000189202016081500000010000000000000BRBVMFACNOR3136
012016072582BVMFT20     080BVMFE FM    ON      NM000R$  000000000008400000000001010000000000084000000000009800000000000860000000000001000000000010100037000000000000119300000000000011740500000000000199202016081500000010000000000000BRBVMFACNOR3136
012016072582BVMFT45     080BVMFE       ON      NM000R$  000000000000100000000000010000000000001000000000000100000000000010000000000000000000000000000001000000000000010000000000000000010000000000000154202016081500000010000000000000BRBVMFACNOR3136
012016072582BVMFT46     080BVMFE       ON      NM000R$  000000000000400000000000040000000000004000000000000400000000000040000000000000000000000000000001000000000000000500000000000000002000000000000164202016081500000010000000000000BRBVMFACNOR3136
012016072582BVMFT47     080BVMFE       ON      NM000R$  000000000000500000000000050000000000005000000000000500000000000050000000000005000000000000900002000000000000013000000000000000065000000000000174202016081500000010000000000000BRBVMFACNOR3136
012016072582BVMFT48     080BVMFE FM    ON      NM000R$  000000000002400000000000250000000000022000000000002400000000000230000000000001000000000002800018000000000000061200000000000001475000000000000184202016081500000010000000000000BRBVMFACNOR3136
012016072582BVMFT49     080BVMFE FM    ON      NM000R$  000000000006400000000000700000000000064000000000006500000000000640000000000050000000000000000014000000000000016100000000000001052200000000000194202016081500000010000000000000BRBVMFACNOR3136
012016072582BVMFT50     080BVMFE       ON      NM000R$  000000000013100000000001310000000000131000000000013100000000001310000000000001000000000000000011000000000000010000000000000001310000000000000204202016081500000010000000000000BRBVMFACNOR3136
012016072582BVMFT79     080BVMFE       ON      NM000R$  000000000006300000000000700000000000063000000000006500000000000680000000000000000000000008500003000000000000004800000000000000314400000000000196702016081500000010000000000000BRBVMFACNOR3137
012016072582BVMFU18     080BVMFE FM    ON      NM000R$  000000000004300000000000460000000000043000000000004400000000000460000000000006000000000000000004000000000000006200000000000000278900000000000184202016091900000010000000000000BRBVMFACNOR3137
012016072582BVMFU47     080BVMFE       ON      NM000R$  000000000003200000000000320000000000031000000000003100000000000310000000000000000000000000000002000000000000001100000000000000034200000000000179202016091900000010000000000000BRBVMFACNOR3137
012016072582BVMFU48     080BVMFE FM    ON      NM000R$  000000000005700000000000570000000000057000000000005700000000000570000000000000000000000000000001000000000000000500000000000000028500000000000189202016091900000010000000000000BRBVMFACNOR3137
012016072502CAMB4       010CAMBUCI     PN           R$  000000000053900000000005390000000000539000000000053900000000005390000000000500000000000053900001000000000000000100000000000000053900000000000000009999123100000010000000000000BRCAMBACNPR1118
012016072596CAMB4F      020CAMBUCI     PN           R$  000000000046000000000005200000000000460000000000049200000000005000000000000470000000000052000007000000000000000225000000000000110780000000000000009999123100000010000000000000BRCAMBACNPR1118
012016072502CARD3       010CSU CARDSYSTON      NM   R$  000000000050600000000005200000000000502000000000051400000000005080000000000508000000000051800292000000000000211800000000000108881100000000000000009999123100000010000000000000BRCARDACNOR9108
012016072596CARD3F      020CSU CARDSYSTON      NM   R$  000000000051000000000005200000000000510000000000051500000000005160000000000511000000000053000009000000000000000309000000000000159351000000000000009999123100000010000000000000BRCARDACNOR9108
012016072502CASN4       010CASAN       PN           R$  000000000179800000000017980000000001798000000000179800000000017980000000001798000000000000000001000000000000000100000000000000179800000000000000009999123100000010000000000000BRCASNACNPR3112
012016072502CATP34      010CATERPILLAR DRN ED       R$  000000002594800000000259480000000025948000000002594800000000259480000000025655000000002605100001000000000000003000000000000077844000000000000000009999123100000010000000000000BRCATPBDR003120
012016072596CATP34F     020CATERPILLAR DRN ED       R$  000000002598700000000259870000000025987000000002598700000000259870000000000000000000000000000001000000000000000093000000000002416791000000000000009999123100000010000000000000BRCATPBDR003120
012016072596CBEE3F      020AMPLA ENERG ON           R$  000000000342100000000034210000000003421000000000342100000000034210000000002000000000000342100001000000000000000003000000000000010263000000000000009999123100000010000000000000BRCBEEACNOR3152
012016072512CBOP11      010FII C BRANCOCI           R$  000000006498800000000649900000000064000000000006429000000000649900000000064000000000006499000006000000000000000058000000000003728826000000000000009999123100000010000000000000BRCBOPCTF001134
