00COTAHIST.2016BOVESPA 20160720                                                                                                                                                                                                                      
012016072002AAPL34      010APPLE       DRN          R$  000000000322700000000032270000000003227000000000322700000000032270000000003213000000000326300002000000000000016000000000000051632000000000000000009999123100000010000000000000BRAAPLBDR004117
012016072010ABCB2       010ABC BRASIL  DIR PRE N2   R$  000000000040500000000004400000000000405000000000042100000000004100000000000410000000000043800043000000000000014700000000000006191900000000000000009999123100000010000000000000BRABCBD09PR2125
012016072096ABCB2F      020ABC BRASIL  DIR PRE N2   R$  000000000040900000000004260000000000300000000000039000000000004000000000000357000000000040000066000000000000001535000000000000599299000000000000009999123100000010000000000000BRABCBD09PR2125
012016072002ABCB4       010ABC BRASIL  PN      N2   R$  000000000142000000000014380000000001381000000000141000000000014050000000001405000000000140601476000000000000544300000000000767956200000000000000009999123100000010000000000000BRABCBACNPR4126
012016072096ABCB4F      020ABC BRASIL  PN      N2   R$  000000000140200000000014200000000001370000000000140000000000014060000000001403000000000141000041000000000000000951000000000001332339000000000000009999123100000010000000000000BRABCBACNPR4126
012016072012ABCP11      010FII ABC IMOBCI           R$  000000000110000000000011000000000001071000000000107600000000010870000000001056000000000108800010000000000000000310000000000000333853000000000000009999123100000010000000000000BRABCPCTF000249
012016072002ABEV3       010AMBEV S/A   ON  ED       R$  000000000191200000000019260000000001901000000000191200000000019120000000001909000000000191227080000000000009986500000000019095774200000000000000009999123100000010000000000000BRABEVACNOR1113
012016072096ABEV3F      020AMBEV S/A   ON  ED       R$  000000000190900000000019400000000001902000000000191500000000019400000000001909000000000194000267000000000000005104000000000009779495000000000000009999123100000010000000000000BRABEVACNOR1113
012016072078ABEVA79     070ABEVE       ON        000R$  000000000012400000000001240000000000100000000000010000000000001000000000000000000000000000000002000000000000021000000000000002102400000000000195102017011600000010000000000000BRABEVACNOR1113
012016072078ABEVH12     070ABEVE       ON        000R$  000000000009000000000000900000000000073000000000007300000000000730000000000000000000000000000002000000000000005100000000000000374000000000000221202017082100000010000000000000BRABEVACNOR1113
012016072078ABEVH18     070ABEV  FM/ED ON        000R$  000000000006200000000000620000000000053000000000005700000000000590000000000052000000000006600012000000000000030200000000000001736600000000000188202016081500000010000000000000BRABEVACNOR1112
012016072078ABEVH19     070ABEV  FM/ED ON        000R$  000000000003100000000000330000000000025000000000002800000000000250000000000026000000000003000016000000000000072200000000000002046600000000000193202016081500000010000000000000BRABEVACNOR1112
012016072078ABEVH20     070ABEV    /ED ON        000R$  000000000000500000000000050000000000005000000000000500000000000050000000000003000000000001000001000000000000001000000000000000005000000000000203202016081500000010000000000000BRABEVACNOR1112
012016072078ABEVH49     070ABEV  FM/ED ON        000R$  000000000001300000000000130000000000011000000000001100000000000130000000000003000000000001900005000000000000016200000000000000186400000000000198202016081500000010000000000000BRABEVACNOR1112
012016072078ABEVH64     070ABEVE   /ED ON        000R$  000000000004500000000000450000000000037000000000003900000000000390000000000034000000000000000004000000000000006100000000000000242500000000000190702016081500000010000000000000BRABEVACNOR1109
012016072078ABEVH69     070ABEV  FM/ED ON        000R$  000000000009200000000000920000000000092000000000009200000000000920000000000000000000000000000001000000000000001500000000000000138000000000000183202016081500000010000000000000BRABEVACNOR1107
012016072078ABEVH70     070ABEVE   /ED ON        000R$  000000000000400000000000040000000000004000000000000400000000000040000000000000000000000002500001000000000000001200000000000000004800000000000205702016081500000010000000000000BRABEVACNOR1112
012016072078ABEVH79     070ABEVE   /ED ON        000R$  000000000002000000000000200000000000015000000000001700000000000150000000000010000000000001900004000000000000020800000000000000370500000000000195702016081500000010000000000000BRABEVACNOR1111
012016072078ABEVH82     070ABEVE   /ED ON        000R$  000000000008400000000000840000000000075000000000007500000000000750000000000000000000000000000003000000000000813500000000000061156100000000000226202017082100000010000000000000BRABEVACNOR1112
012016072078ABEVH88     070ABEV    /ED ON        000R$  000000000015000000000001500000000000150000000000015000000000001500000000000000000000000000000001000000000000000500000000000000075000000000000178202016081500000010000000000000BRABEVACNOR1107
012016072078ABEVI19     070ABEV  FM/ED ON        000R$  000000000005400000000000550000000000054000000000005400000000000550000000000000000000000000000007000000000000045000000000000002474000000000000193202016091900000010000000000000BRABEVACNOR1112
012016072078ABEVI49     070ABEV  FM/ED ON        000R$  000000000003700000000000370000000000030000000000003300000000000340000000000008000000000000000020000000000000125000000000000004125600000000000198202016091900000010000000000000BRABEVACNOR1112
012016072078ABEVI79     070ABEVE   /ED ON        000R$  000000000004000000000000400000000000040000000000004000000000000400000000000038000000000000000001000000000000050000000000000002000000000000000195702016091900000010000000000000BRABEVACNOR1111
012016072078ABEVI89     070ABEV  FM/ED ON        000R$  000000000008700000000000870000000000087000000000008700000000000870000000000004000000000000000001000000000000003000000000000000261000000000000188202016091900000010000000000000BRABEVACNOR1107
012016072078ABEVK73     070ABEVE   /ED ON        000R$  000000000007500000000000750000000000072000000000007200000000000720000000000000000000000000000003000000000000005100000000000000370700000000000237502017112100000010000000000000BRABEVACNOR1113
012016072078ABEVK90     070ABEVE       ON        000R$  000000000004100000000000410000000000041000000000004100000000000410000000000000000000000000000002000000000000010000000000000000410000000000000202302016112100000010000000000000BRABEVACNOR1113
012016072078ABEVL56     070ABEV    /ED ON        000R$  000000000005300000000000530000000000053000000000005300000000000530000000000000000000000000000001000000000000000500000000000000026500000000000263702017121800000010000000000000BRABEVACNOR1112
012016072082ABEVT18     080ABEVE FM/ED ON        000R$  000000000001300000000000150000000000013000000000001400000000000150000000000014000000000000000002000000000000004800000000000000068000000000000188202016081500000010000000000000BRABEVACNOR1112
012016072082ABEVT19     080ABEVE FM/ED ON        000R$  000000000003100000000000310000000000031000000000003100000000000310000000000000000000000000000001000000000000000100000000000000003100000000000193202016081500000010000000000000BRABEVACNOR1112
012016072082ABEVT89     080ABEVE   /ED ON        000R$  000000000007100000000000720000000000071000000000007100000000000720000000000000000000000000000002000000000000005000000000000000357800000000000191202017082100000010000000000000BRABEVACNOR1112
012016072082ABEVT9      080ABEVE   /ED ON        000R$  000000000007200000000000720000000000072000000000007200000000000720000000000000000000000000000002000000000000796600000000000057355200000000000188702017082100000010000000000000BRABEVACNOR1112
012016072082ABEVU19     080ABEVE FM/ED ON        000R$  000000000004200000000000450000000000039000000000004100000000000450000000000000000000000005000006000000000000040000000000000001666000000000000193202016091900000010000000000000BRABEVACNOR1112
012016072082ABEVU59     080ABEVE   /ED ON        000R$  000000000003100000000000360000000000031000000000003300000000000360000000000000000000000000000004000000000000040000000000000001350000000000000190702016091900000010000000000000BRABEVACNOR1112
012016072082ABEVW17     080ABEVE   /ED ON        000R$  000000000002600000000000260000000000017000000000001700000000000170000000000000000000000000000002000000000000005100000000000000087600000000000170002017112100000010000000000000BRABEVACNOR1113
012016072082ABEVW69     080ABEVE   /ED ON        000R$  000000000008800000000000880000000000088000000000008800000000000880000000000000000000000000000001000000000000005000000000000000440000000000000192502017112100000010000000000000BRABEVACNOR1113
012016072012AEFI11      010FII AESAPAR CI           R$  000000001290100000000129010000000012865000000001288500000000129000000000012902000000001297000013000000000000000744000000000009586875000000000000009999123100000010000000000000BRAEFICTF002155
012016072002AELP3       010AES ELPA    ON           R$  000000000102900000000010300000000001002000000000100800000000010300000000001100000000000130000009000000000000013500000000000013617500000000000000009999123100000010000000000000BRAELPACNOR2123
012016072012AGCX11      010FII AG CAIXACI           R$  000000010830000000001092000000000108000000000010876100000001092000000000108900000000010920000067000000000000000716000000000077873081000000000000009999123100000010000000000000BRAGCXCTF003144
012016072002AGRO3       010BRASILAGRO  ON      NM   R$  000000000127000000000012800000000001260000000000127000000000012790000000001270000000000127900427000000000000117600000000000149465400000000000000009999123100000010000000000000BRAGROACNOR7104
012016072096AGRO3F      020BRASILAGRO  ON      NM   R$  000000000134800000000013480000000001267000000000128700000000012800000000001282000000000134900019000000000000000376000000000000484185000000000000009999123100000010000000000000BRAGROACNOR7104
012016072012ALMI11B     010FII TORRE ALCI      MB   R$  000000018000000000001801010000000178000000000017893200000001800000000000179100000000018000000009000000000000000024000000000004294386000000000000009999123100000010000000000000BRALMICTF003239
012016072002ALPA3       010ALPARGATAS  ON      N1   R$  000000000104500000000010750000000001045000000000106600000000010580000000001051000000000107200010000000000000001500000000000001600400000000000000009999123100000010000000000000BRALPAACNOR0217
012016072096ALPA3F      020ALPARGATAS  ON      N1   R$  000000000104500000000010940000000001025000000000103500000000010940000000001016000000000109000006000000000000000128000000000000132563000000000000009999123100000010000000000000BRALPAACNOR0217
012016072002ALPA4       010ALPARGATAS  PN      N1   R$  000000000108700000000011000000000001066000000000108000000000010780000000001073000000000107801434000000000000398400000000000430670100000000000000009999123100000010000000000000BRALPAACNPR7217
012016072096ALPA4F      020ALPARGATAS  PN      N1   R$  000000000109100000000010910000000001065000000000108100000000010650000000001065000000000108300015000000000000000505000000000000546400000000000000009999123100000010000000000000BRALPAACNPR7217
012016072002ALSC3       010ALIANSCE    ON      NM   R$  000000000149700000000015090000000001476000000000149100000000014940000000001492000000000149401450000000000000850000000000001268097000000000000000009999123100000010000000000000BRALSCACNOR0109
012016072096ALSC3F      020ALIANSCE    ON      NM   R$  000000000149500000000015130000000001488000000000149400000000014880000000001300000000000156000005000000000000000065000000000000097152000000000000009999123100000010000000000000BRALSCACNOR0109
012016072062ALSC3T      030ALIANSCE    ON      NM030R$  000000000150700000000015080000000001499000000000150500000000015000000000000000000000000000000004000000000000005000000000000007528852000000000000009999123100000010000000000000BRALSCACNOR0109
012016072002ALUP11      010ALUPAR      UNT     N2   R$  000000000159200000000015980000000001571000000000158400000000015850000000001582000000000158501197000000000000369700000000000585928800000000000000009999123100000010000000000000BRALUPCDAM15105
012016072096ALUP11F     020ALUPAR      UNT     N2   R$  000000000157700000000015920000000001574000000000158400000000015790000000001520000000000158400040000000000000000991000000000001570604000000000000009999123100000010000000000000BRALUPCDAM15105
012016072062ALUP11T     030ALUPAR      UNT     N2030R$  000000000160600000000016070000000001606000000000160600000000016070000000000000000000000000000002000000000000000500000000000000803341000000000000009999123100000010000000000000BRALUPCDAM15105
012016072002AMAR3       010LOJAS MARISAON      NM   R$  000000000080000000000008150000000000784000000000080100000000007900000000000786000000000079000177000000000000058300000000000046712800000000000000009999123100000010000000000000BRAMARACNOR4112
012016072096AMAR3F      020LOJAS MARISAON      NM   R$  000000000079800000000008140000000000796000000000080300000000008000000000000785000000000087000006000000000000000122000000000000097988000000000000009999123100000010000000000000BRAMARACNOR4112
012016072062AMAR3T      030LOJAS MARISAON      NM016R$  000000000081800000000008190000000000817000000000081800000000008180000000000000000000000000000004000000000000005000000000000004091402000000000000009999123100000010000000000000BRAMARACNOR4112
012016072002ANIM3       010ANIMA       ON      NM   R$  000000000148200000000015130000000001471000000000149000000000014730000000001472000000000147400202000000000000039700000000000059173600000000000000009999123100000010000000000000BRANIMACNOR6103
012016072096ANIM3F      020ANIMA       ON      NM   R$  000000000149600000000015150000000001482000000000149400000000015120000000001470000000000148500006000000000000000201000000000000300432000000000000009999123100000010000000000000BRANIMACNOR6103
012016072002ARZZ3       010AREZZO CO   ON      NM   R$  000000000276700000000027860000000002728000000000276100000000027700000000002760000000000277000662000000000000277200000000000765456200000000000000009999123100000010000000000000BRARZZACNOR3121
012016072096ARZZ3F      020AREZZO CO   ON      NM   R$  000000000274500000000027700000000002743000000000275300000000027700000000002757000000000280000009000000000000000276000000000000760003000000000000009999123100000010000000000000BRARZZACNOR3121
012016072008ATOM3       010ATOMPAR     ON           R$  000000000007400000000000740000000000069000000000007000000000000710000000000070000000000007100162000000000000460100000000000032411600000000000000009999123100000010000000000000BRATOMACNOR1101
012016072096ATOM3F      020ATOMPAR     ON           R$  000000000007300000000000780000000000073000000000007500000000000780000000000069000000000008300003000000000000000131000000000000009863000000000000009999123100000010000000000000BRATOMACNOR1101
012016072002AZEV4       010AZEVEDO     PN           R$  000000000014400000000001440000000000144000000000014400000000001440000000000120000000000014400001000000000000000100000000000000014400000000000000009999123100000010000000000000BRAZEVACNPR7116
012016072002BALM4       010BAUMER      PN           R$  000000000080100000000008200000000000801000000000081300000000008200000000000810000000000084900003000000000000000300000000000000244100000000000000009999123100000010000000000000BRBALMACNPR2047
012016072002BAZA3       010AMAZONIA    ON           R$  000000000003400000000000350000000000033000000000003300000000000330000000000033000000000003400055000000000000388000000000000013062000000000000000009999123100000010000000000000BRBAZAACNOR0168
012016072096BAZA3F      020AMAZONIA    ON           R$  000000000003300000000000330000000000033000000000003300000000000330000000000033000000000003400001000000000000000500000000000000016500000000000000009999123100000010000000000000BRBAZAACNOR0168
012016072062BAZA3T      030AMAZONIA    ON        090R$  000000000003500000000000360000000000035000000000003500000000000360000000000000000000000000000002000000000000050000000000000001757460000000000000009999123100000010000000000000BRBAZAACNOR0168
012016072002BBAS3       010BRASIL      ON      NM   R$  000000000210000000000021510000000002075000000000212400000000021350000000002135000000000213630951000000000016536100000000035128526300000000000000009999123100000010000000000000BRBBASACNOR3261
012016072096BBAS3F      020BRASIL      ON      NM   R$  000000000209500000000021490000000002081000000000212600000000021350000000002135000000000214900531000000000000013800000000000029344738000000000000009999123100000010000000000000BRBBASACNOR3261
012016072062BBAS3T      030BRASIL      ON      NM016R$  000000000213400000000021350000000002134000000000213400000000021350000000000000000000000000000002000000000000005000000000000010673660000000000000009999123100000010000000000000BRBBASACNOR3261
012016072062BBAS3T      030BRASIL      ON      NM029R$  000000000215500000000021670000000002155000000000216100000000021670000000000000000000000000000004000000000000002300000000000004971014000000000000009999123100000010000000000000BRBBASACNOR3261
012016072062BBAS3T      030BRASIL      ON      NM030R$  000000000212400000000021650000000002121000000000214000000000021650000000000000000000000000000008000000000000026500000000000056718763000000000000009999123100000010000000000000BRBBASACNOR3261
012016072062BBAS3T      030BRASIL      ON      NM061R$  000000000218400000000021930000000002184000000000219100000000021930000000000000000000000000000004000000000000135000000000000295896143000000000000009999123100000010000000000000BRBBASACNOR3261
012016072062BBAS3T      030BRASIL      ON      NM090R$  000000000220500000000022060000000002205000000000220500000000022060000000000000000000000000000002000000000000000200000000000000441034000000000000009999123100000010000000000000BRBBASACNOR3261
012016072078BBASD52     070BBAS        ON      NM000R$  000000000029100000000002910000000000291000000000029100000000002910000000000000000000000000000001000000000000002000000000000000582000000000000222702017041700000010000000000000BRBBASACNOR3259
012016072078BBASG75     070BBASE       ON      NM000R$  000000000020700000000002070000000000202000000000020200000000002020000000000000000000000000000002000000000000016000000000000003232500000000000255202017071700000010000000000000BRBBASACNOR3261
012016072078BBASG83     070BBAS        ON      NM000R$  000000000031400000000003140000000000314000000000031400000000003140000000000008000000000000000001000000000000010000000000000003140000000000000227702017071700000010000000000000BRBBASACNOR3259
012016072078BBASH16     070BBAS        ON      NM000R$  000000000050000000000005660000000000500000000000055700000000005550000000000500000000000000000006000000000000002200000000000001225900000000000158802016081500000010000000000000BRBBASACNOR3259
012016072078BBASH17     070BBAS        ON      NM000R$  000000000043500000000004730000000000435000000000045700000000004730000000000350000000000047500043000000000000068200000000000031174900000000000168802016081500000010000000000000BRBBASACNOR3259
012016072038BBASH17E    012BBAS        ON      NM000R$  000000000168800000000016880000000001688000000000168800000000016880000000000000000000000000000002000000000000009000000000000015192000000000000168802016081500000010000000000000BRBBASACNOR3261
012016072078BBASH18     070BBAS        ON      NM000R$  000000000035000000000003780000000000320000000000034200000000003650000000000356000000000040000063000000000000065800000000000022569200000000000178802016081500000010000000000000BRBBASACNOR3259
012016072078BBASH19     070BBAS        ON      NM000R$  000000000024100000000002900000000000221000000000026300000000002900000000000264000000000029000221000000000000329500000000000086938400000000000188802016081500000010000000000000BRBBASACNOR3259
012016072078BBASH20     070BBAS  FM    ON      NM000R$  000000000015800000000002050000000000151000000000017900000000002010000000000186000000000020400142000000000000244700000000000043895000000000000198802016081500000010000000000000BRBBASACNOR3259
012016072078BBASH21     070BBAS  FM    ON      NM000R$  000000000008700000000001300000000000081000000000010500000000001300000000000109000000000012900287000000000000621000000000000065699800000000000208802016081500000010000000000000BRBBASACNOR3259
012016072078BBASH22     070BBAS        ON      NM000R$  000000000003500000000000620000000000032000000000004900000000000570000000000051000000000005700566000000000001607300000000000079269200000000000223802016081500000010000000000000BRBBASACNOR3259
012016072078BBASH23     070BBASE       ON      NM000R$  000000000002000000000000310000000000019000000000002700000000000310000000000025000000000003200114000000000000330500000000000009185700000000000236302016081500000010000000000000BRBBASACNOR3259
012016072078BBASH24     070BBAS  FM    ON      NM000R$  000000000001700000000000280000000000016000000000002200000000000250000000000025000000000002700403000000000001008200000000000022393300000000000238802016081500000010000000000000BRBBASACNOR3259
012016072078BBASH25     070BBAS        ON      NM000R$  000000000000900000000000160000000000009000000000001200000000000150000000000015000000000001600147000000000000360100000000000004658300000000000248802016081500000010000000000000BRBBASACNOR3259
012016072078BBASH26     070BBAS        ON      NM000R$  000000000000900000000000110000000000006000000000000800000000000090000000000006000000000000900040000000000000149000000000000001300500000000000258802016081500000010000000000000BRBBASACNOR3259
012016072078BBASH27     070BBAS        ON      NM000R$  000000000000500000000000090000000000003000000000000500000000000050000000000005000000000000600009000000000000020400000000000000116600000000000268802016081500000010000000000000BRBBASACNOR3259
012016072078BBASH28     070BBAS        ON      NM000R$  000000000000200000000000050000000000002000000000000400000000000040000000000003000000000000400005000000000000022200000000000000091700000000000278802016081500000010000000000000BRBBASACNOR3259
012016072078BBASH29     070BBAS        ON      NM000R$  000000000000200000000000020000000000002000000000000200000000000020000000000001000000000000700002000000000000003400000000000000006800000000000288802016081500000010000000000000BRBBASACNOR3259
012016072078BBASH30     070BBAS        ON      NM000R$  000000000000200000000000020000000000002000000000000200000000000020000000000001000000000000200001000000000000000100000000000000000200000000000298802016081500000010000000000000BRBBASACNOR3259
012016072078BBASH31     070BBAS        ON      NM000R$  000000000000200000000000060000000000002000000000000500000000000060000000000001000000000000500004000000000000010100000000000000052000000000000308802016081500000010000000000000BRBBASACNOR3259
012016072078BBASH47     070BBAS        ON      NM000R$  000000000040000000000004250000000000400000000000041000000000004160000000000390000000000000000009000000000000015100000000000006205700000000000173802016081500000010000000000000BRBBASACNOR3259
012016072078BBASH48     070BBAS        ON      NM000R$  000000000029000000000003450000000000290000000000030700000000003230000000000290000000000000000018000000000000030600000000000009394900000000000183802016081500000010000000000000BRBBASACNOR3259
012016072078BBASH49     070BBAS        ON      NM000R$  000000000020500000000002400000000000205000000000021100000000002310000000000007000000000024500021000000000000043200000000000009136100000000000193802016081500000010000000000000BRBBASACNOR3259
012016072078BBASH50     070BBAS        ON      NM000R$  000000000011300000000001650000000000113000000000015900000000001610000000000090000000000018000308000000000000489200000000000078008500000000000203802016081500000010000000000000BRBBASACNOR3259
012016072078BBASH51     070BBASE       ON      NM000R$  000000000008900000000001140000000000083000000000010000000000001100000000000106000000000011000012000000000000009200000000000000921900000000000211302016081500000010000000000000BRBBASACNOR3259
012016072078BBASH55     070BBAS        ON      NM000R$  000000000001200000000000130000000000011000000000001200000000000110000000000000000000000000000039000000000000030000000000000000361700000000000253802016081500000010000000000000BRBBASACNOR3259
012016072078BBASH56     070BBAS        ON      NM000R$  000000000000900000000000090000000000009000000000000900000000000090000000000007000000000000000001000000000000002500000000000000022500000000000263802016081500000010000000000000BRBBASACNOR3259
012016072078BBASH60     070BBASE       ON      NM000R$  000000000015400000000001840000000000146000000000015900000000001840000000000000000000000019000014000000000000014000000000000002236500000000000201302016081500000010000000000000BRBBASACNOR3259
012016072078BBASH62     070BBASE       ON      NM000R$  000000000005000000000000650000000000050000000000005100000000000650000000000000000000000008000014000000000000038000000000000001972000000000000221302016081500000010000000000000BRBBASACNOR3259
012016072078BBASH69     070BBASE       ON      NM000R$  000000000022000000000002350000000000220000000000022400000000002300000000000230000000000000000021000000000000161200000000000036260200000000000191302016081500000010000000000000BRBBASACNOR3259
012016072078BBASH77     070BBASE       ON      NM000R$  000000000037500000000003800000000000375000000000037700000000003800000000000005000000000000000012000000000000030000000000000011338500000000000176302016081500000010000000000000BRBBASACNOR3259
012016072078BBASH80     070BBASE       ON      NM000R$  000000000010900000000001420000000000109000000000011800000000001420000000000000000000000000000005000000000000007500000000000000888300000000000206302016081500000010000000000000BRBBASACNOR3259
012016072078BBASH89     070BBASE       ON      NM000R$  000000000018100000000002200000000000179000000000020500000000002150000000000170000000000021500032000000000000020200000000000004153700000000000196302016081500000010000000000000BRBBASACNOR3259
012016072078BBASH91     070BBASE       ON      NM000R$  000000000006800000000000940000000000066000000000008700000000000850000000000000000000000000000283000000000000594000000000000051964300000000000216302016081500000010000000000000BRBBASACNOR3259
012016072078BBASH94     070BBAS        ON      NM000R$  000000000007400000000001030000000000073000000000009600000000001000000000000000000000000010200301000000000000550200000000000053155400000000000213802016081500000010000000000000BRBBASACNOR3253
012016072078BBASH95     070BBAS  FM    ON      NM000R$  000000000004700000000000800000000000047000000000006600000000000760000000000072000000000007900060000000000000165700000000000011035500000000000218802016081500000010000000000000BRBBASACNOR3253
012016072078BBASH97     070BBAS  FM    ON      NM000R$  000000000003200000000000460000000000031000000000003800000000000440000000000025000000000004600079000000000000140200000000000005390500000000000228802016081500000010000000000000BRBBASACNOR3253
012016072078BBASH98     070BBAS        ON      NM000R$  000000000002000000000000350000000000020000000000002800000000000350000000000024000000000003500200000000000000233400000000000006636800000000000233802016081500000010000000000000BRBBASACNOR3253
012016072078BBASI19     070BBAS        ON      NM000R$  000000000024000000000002830000000000240000000000025400000000002830000000000000000000000031000016000000000000019500000000000004961000000000000192702016091900000010000000000000BRBBASACNOR3260
012016072078BBASI20     070BBAS  FM    ON      NM000R$  000000000020300000000002470000000000202000000000023300000000002450000000000201000000000000000027000000000000025500000000000005944600000000000197702016091900000010000000000000BRBBASACNOR3259
012016072078BBASI22     070BBAS  FM    ON      NM000R$  000000000010500000000001360000000000097000000000011100000000001330000000000000000000000013300031000000000000029400000000000003266800000000000217702016091900000010000000000000BRBBASACNOR3259
012016072078BBASI23     070BBAS        ON      NM000R$  000000000004800000000000770000000000048000000000006800000000000710000000000066000000000000000095000000000000101100000000000006906300000000000232702016091900000010000000000000BRBBASACNOR3260
012016072078BBASI48     070BBAS        ON      NM000R$  000000000034800000000003480000000000348000000000034800000000003480000000000300000000000000000001000000000000022900000000000007969200000000000182702016091900000010000000000000BRBBASACNOR3259
012016072078BBASI50     070BBAS        ON      NM000R$  000000000016400000000001910000000000164000000000017700000000001910000000000003000000000000000003000000000000023300000000000004135300000000000202702016091900000010000000000000BRBBASACNOR3259
012016072078BBASI51     070BBAS        ON      NM000R$  000000000014500000000001500000000000145000000000014700000000001500000000000006000000000030000003000000000000001700000000000000250500000000000212702016091900000010000000000000BRBBASACNOR3259
012016072078BBASI52     070BBAS  FM    ON      NM000R$  000000000008300000000000910000000000083000000000008700000000000890000000000060000000000012300009000000000000007600000000000000662000000000000227702016091900000010000000000000BRBBASACNOR3260
012016072078BBASI53     070BBAS  FM    ON      NM000R$  000000000004500000000000590000000000045000000000005100000000000580000000000000000000000006500027000000000000081900000000000004219800000000000237702016091900000010000000000000BRBBASACNOR3260
012016072078BBASI55     070BBAS        ON      NM000R$  000000000003300000000000370000000000030000000000003300000000000370000000000003000000000000000022000000000000025800000000000000869200000000000252702016091900000010000000000000BRBBASACNOR3259
012016072078BBASI68     070BBAS        ON      NM000R$  000000000026000000000002600000000000260000000000026000000000002600000000000000000000000000000001000000000000000200000000000000052000000000000187702016091900000010000000000000BRBBASACNOR3260
012016072078BBASI69     070BBASE       ON      NM000R$  000000000030000000000003000000000000300000000000030000000000003000000000000250000000000000000002000000000000004000000000000001200000000000000190202016091900000010000000000000BRBBASACNOR3260
012016072078BBASI72     070BBASE       ON      NM000R$  000000000008000000000000800000000000080000000000008000000000000800000000000090000000000000000001000000000000001000000000000000080000000000000225202016091900000010000000000000BRBBASACNOR3259
012016072078BBASI80     070BBASE       ON      NM000R$  000000000022500000000002250000000000211000000000022000000000002200000000000180000000000000000004000000000000025400000000000005593500000000000200202016091900000010000000000000BRBBASACNOR3259
012016072078BBASI82     070BBAS        ON      NM000R$  000000000010000000000001090000000000100000000000010600000000001090000000000076000000000017300008000000000000005200000000000000556000000000000222702016091900000010000000000000BRBBASACNOR3260
012016072078BBASI89     070BBASE       ON      NM000R$  000000000050000000000005000000000000500000000000050000000000005000000000000000000000000000000001000000000000001000000000000000500000000000000197502017091800000010000000000000BRBBASACNOR3261
012016072078BBASI90     070BBAS  FM    ON      NM000R$  000000000015400000000001780000000000145000000000015800000000001780000000000000000000000055000009000000000000012700000000000002009100000000000207702016091900000010000000000000BRBBASACNOR3260
012016072078BBASI92     070BBASE       ON      NM000R$  000000000010500000000001050000000000105000000000010500000000001050000000000000000000000000000001000000000000000500000000000000052500000000000220202016091900000010000000000000BRBBASACNOR3259
012016072078BBASI94     070BBASE       ON      NM000R$  000000000005000000000000500000000000047000000000004800000000000500000000000004000000000000000003000000000000003300000000000000159000000000000240202016091900000010000000000000BRBBASACNOR3259
012016072078BBASJ22     070BBAS        ON      NM000R$  000000000014100000000001470000000000141000000000014600000000001470000000000030000000000000000003000000000000003200000000000000467200000000000220002016101700000010000000000000BRBBASACNOR3261
012016072078BBASJ23     070BBAS        ON      NM000R$  000000000009000000000001100000000000087000000000009400000000001060000000000000000000000000000006000000000000012900000000000001220100000000000230002016101700000010000000000000BRBBASACNOR3259
012016072078BBASJ25     070BBAS        ON      NM000R$  000000000005400000000000540000000000054000000000005400000000000540000000000040000000000000000001000000000000002000000000000000108000000000000250002016101700000010000000000000BRBBASACNOR3261
012016072078BBASJ78     070BBASE       ON      NM000R$  000000000038900000000003900000000000389000000000038900000000003900000000000000000000000000000002000000000000050000000000000019475000000000000182502016101700000010000000000000BRBBASACNOR3259
012016072078BBASJ95     070BBAS        ON      NM000R$  000000000006500000000000790000000000065000000000007700000000000770000000000000000000000000000003000000000000021000000000000001625000000000000240002016101700000010000000000000BRBBASACNOR3254
012016072078BBASK77     070BBASE       ON      NM000R$  000000000044000000000004400000000000440000000000044000000000004400000000000000000000000000000001000000000000003000000000000001320000000000000179802016112100000010000000000000BRBBASACNOR3261
012016072078BBASK81     070BBAS        ON      NM000R$  000000000025000000000002500000000000250000000000025000000000002500000000000000000000000000000002000000000000010000000000000002500000000000000207302016112100000010000000000000BRBBASACNOR3255
012016072078BBASK84     070BBASE       ON      NM000R$  000000000009400000000000940000000000090000000000009000000000000900000000000000000000000000000002000000000000016700000000000001503400000000000244802016112100000010000000000000BRBBASACNOR3261
012016072078BBASK85     070BBASE       ON      NM000R$  000000000027100000000002830000000000271000000000027800000000002830000000000225000000000000000003000000000000005400000000000001503400000000000257502017112100000010000000000000BRBBASACNOR3261
012016072078BBASK91     070BBASE       ON      NM000R$  000000000021500000000002150000000000215000000000021500000000002150000000000000000000000000000001000000000000003000000000000000645000000000000214802016112100000010000000000000BRBBASACNOR3261
012016072078BBASL24     070BBAS        ON      NM000R$  000000000012200000000001280000000000122000000000012300000000001280000000000065000000000000000002000000000000250000000000000030800000000000000238802016121900000010000000000000BRBBASACNOR3260
012016072078BBASL27     070BBAS        ON      NM000R$  000000000005900000000000700000000000058000000000005800000000000700000000000000000000000000000015000000000000008200000000000000483300000000000268802016121900000010000000000000BRBBASACNOR3259
012016072078BBASL30     070BBAS        ON      NM000R$  000000000030200000000003420000000000302000000000033100000000003420000000000000000000000000000005000000000000002800000000000000929200000000000198802016121900000010000000000000BRBBASACNOR3256
012016072078BBASL32     070BBAS        ON      NM000R$  000000000003000000000000400000000000029000000000003000000000000400000000000000000000000008000003000000000000011500000000000000354500000000000318802016121900000010000000000000BRBBASACNOR3259
012016072078BBASL69     070BBASE       ON      NM000R$  000000000034000000000003450000000000340000000000034200000000003450000000000000000000000000000015000000000000049000000000000016785000000000000191302016121900000010000000000000BRBBASACNOR3260
012016072078BBASL92     070BBASE       ON      NM000R$  000000000018200000000001820000000000182000000000018200000000001820000000000000000000000000000001000000000000002000000000000000364000000000000226302016121900000010000000000000BRBBASACNOR3259
012016072082BBASS20     080BBASE       ON      NM000R$  000000000019400000000001950000000000194000000000019400000000001950000000000000000000000000000002000000000000016000000000000003119900000000000202702017071700000010000000000000BRBBASACNOR3261
012016072082BBASS83     080BBASE       ON      NM000R$  000000000027500000000002750000000000275000000000027500000000002750000000000000000000000000000001000000000000000100000000000000027500000000000227702017071700000010000000000000BRBBASACNOR3259
012016072082BBAST15     080BBASE       ON      NM000R$  000000000000300000000000030000000000002000000000000200000000000020000000000000000000000000300002000000000000020100000000000000060200000000000151302016081500000010000000000000BRBBASACNOR3259
012016072082BBAST16     080BBASE       ON      NM000R$  000000000000200000000000030000000000002000000000000200000000000030000000000003000000000000400006000000000000004600000000000000013700000000000158802016081500000010000000000000BRBBASACNOR3259
012016072082BBAST17     080BBASE       ON      NM000R$  000000000000600000000000070000000000004000000000000500000000000050000000000004000000000000500015000000000000079000000000000000452200000000000168802016081500000010000000000000BRBBASACNOR3259
012016072082BBAST18     080BBASE       ON      NM000R$  000000000001100000000000110000000000009000000000001000000000000100000000000009000000000001000024000000000000067100000000000000671900000000000178802016081500000010000000000000BRBBASACNOR3259
012016072082BBAST19     080BBASE       ON      NM000R$  000000000001800000000000260000000000016000000000001900000000000210000000000017000000000002300231000000000000682200000000000013464100000000000188802016081500000010000000000000BRBBASACNOR3259
012016072082BBAST20     080BBASE FM    ON      NM000R$  000000000003000000000000420000000000030000000000003500000000000340000000000034000000000003600065000000000000156700000000000005527900000000000198802016081500000010000000000000BRBBASACNOR3259
012016072082BBAST21     080BBASE FM    ON      NM000R$  000000000007200000000000820000000000059000000000006400000000000610000000000058000000000006800065000000000000129300000000000008278400000000000208802016081500000010000000000000BRBBASACNOR3259
012016072082BBAST22     080BBASE       ON      NM000R$  000000000014000000000001500000000000140000000000014100000000001400000000000130000000000000000006000000000000002700000000000000381000000000000223802016081500000010000000000000BRBBASACNOR3259
012016072082BBAST25     080BBASE       ON      NM000R$  000000000035600000000003560000000000338000000000033900000000003380000000000000000000000000000005000000000000002000000000000000679600000000000248802016081500000010000000000000BRBBASACNOR3259
012016072082BBAST43     080BBASE       ON      NM000R$  000000000000100000000000010000000000001000000000000100000000000010000000000000000000000000100003000000000000008900000000000000008900000000000133802016081500000010000000000000BRBBASACNOR3257
012016072082BBAST44     080BBASE       ON      NM000R$  000000000000200000000000020000000000001000000000000100000000000010000000000001000000000000200002000000000000013200000000000000026300000000000143802016081500000010000000000000BRBBASACNOR3261
012016072082BBAST45     080BBASE       ON      NM000R$  000000000000900000000000090000000000001000000000000500000000000020000000000001000000000000400008000000000000009600000000000000051100000000000153802016081500000010000000000000BRBBASACNOR3259
012016072082BBAST46     080BBASE       ON      NM000R$  000000000000400000000000050000000000004000000000000400000000000040000000000003000000000000400006000000000000024400000000000000099800000000000163802016081500000010000000000000BRBBASACNOR3259
012016072082BBAST48     080BBASE       ON      NM000R$  000000000001500000000000150000000000011000000000001300000000000150000000000007000000000002500010000000000000021900000000000000296500000000000183802016081500000010000000000000BRBBASACNOR3259
012016072082BBAST49     080BBASE FM    ON      NM000R$  000000000003000000000000300000000000023000000000002700000000000240000000000000000000000005000021000000000000028600000000000000779700000000000193802016081500000010000000000000BRBBASACNOR3259
012016072082BBAST50     080BBASE       ON      NM000R$  000000000004900000000000510000000000042000000000004600000000000460000000000035000000000007500014000000000000025400000000000001183900000000000203802016081500000010000000000000BRBBASACNOR3259
012016072082BBAST51     080BBASE       ON      NM000R$  000000000008200000000000950000000000065000000000008400000000000770000000000050000000000000000023000000000000059600000000000005052700000000000211302016081500000010000000000000BRBBASACNOR3259
012016072082BBAST60     080BBASE       ON      NM000R$  000000000005300000000000530000000000038000000000004100000000000380000000000036000000000000000014000000000000096200000000000003966800000000000201302016081500000010000000000000BRBBASACNOR3259
012016072082BBAST69     080BBASE       ON      NM000R$  000000000002000000000000240000000000020000000000002200000000000200000000000000000000000000000021000000000000051700000000000001155500000000000191302016081500000010000000000000BRBBASACNOR3259
012016072082BBAST77     080BBASE       ON      NM000R$  000000000000800000000000080000000000007000000000000700000000000070000000000007000000000002300004000000000000045300000000000000347100000000000176302016081500000010000000000000BRBBASACNOR3259
012016072082BBAST79     080BBASE       ON      NM000R$  000000000001500000000000180000000000015000000000001600000000000160000000000000000000000015000006000000000000027500000000000000459000000000000186302016081500000010000000000000BRBBASACNOR3253
012016072082BBAST80     080BBASE       ON      NM000R$  000000000005600000000000570000000000049000000000005600000000000530000000000050000000000000000021000000000000066400000000000003739600000000000206302016081500000010000000000000BRBBASACNOR3259
012016072082BBAST89     080BBASE       ON      NM000R$  000000000002700000000000350000000000026000000000002800000000000350000000000000000000000003500014000000000000054100000000000001514800000000000196302016081500000010000000000000BRBBASACNOR3259
012016072082BBAST91     080BBASE       ON      NM000R$  000000000012000000000001200000000000092000000000010100000000000920000000000091000000000000000006000000000000034000000000000003436800000000000216302016081500000010000000000000BRBBASACNOR3259
012016072082BBAST94     080BBASE       ON      NM000R$  000000000010300000000001030000000000082000000000008300000000000830000000000000000000000000000004000000000000008700000000000000730100000000000213802016081500000010000000000000BRBBASACNOR3253
012016072082BBAST95     080BBASE FM    ON      NM000R$  000000000013300000000001330000000000106000000000011300000000001090000000000048000000000018800014000000000000023100000000000002616600000000000218802016081500000010000000000000BRBBASACNOR3253
012016072082BBAST97     080BBASE       ON      NM000R$  000000000018000000000001850000000000175000000000017900000000001750000000000088000000000028800019000000000000023300000000000004193300000000000228802016081500000010000000000000BRBBASACNOR3253
012016072082BBASU18     080BBASE       ON      NM000R$  000000000002700000000000270000000000027000000000002700000000000270000000000008000000000003500001000000000000003000000000000000081000000000000177702016091900000010000000000000BRBBASACNOR3259
012016072082BBASU48     080BBASE       ON      NM000R$  000000000002900000000000300000000000029000000000002900000000000300000000000000000000000009000004000000000000051000000000000001480000000000000182702016091900000010000000000000BRBBASACNOR3259
012016072082BBASU50     080BBASE       ON      NM000R$  000000000007700000000000770000000000066000000000007000000000000720000000000000000000000000000005000000000000004000000000000000280600000000000202702016091900000010000000000000BRBBASACNOR3259
012016072082BBASU51     080BBASE       ON      NM000R$  000000000012000000000001200000000000105000000000011300000000001190000000000107000000000000000007000000000000010100000000000001145500000000000212702016091900000010000000000000BRBBASACNOR3259
012016072082BBASU68     080BBASE       ON      NM000R$  000000000003500000000000350000000000035000000000003500000000000350000000000000000000000000000004000000000000001800000000000000063000000000000187702016091900000010000000000000BRBBASACNOR3260
012016072082BBASU79     080BBASE       ON      NM000R$  000000000005500000000000550000000000054000000000005400000000000540000000000000000000000000000002000000000000003200000000000000175800000000000195202016091900000010000000000000BRBBASACNOR3259
012016072082BBASU82     080BBASE       ON      NM000R$  000000000018400000000001840000000000184000000000018400000000001840000000000000000000000000000001000000000000000300000000000000055200000000000222702016091900000010000000000000BRBBASACNOR3260
012016072082BBASV20     080BBASE       ON      NM000R$  000000000007400000000000740000000000074000000000007400000000000740000000000000000000000000000001000000000000005000000000000000370000000000000200002016101700000010000000000000BRBBASACNOR3261
012016072082BBASV78     080BBASE       ON      NM000R$  000000000004000000000000400000000000040000000000004000000000000400000000000000000000000000000002000000000000006000000000000000240000000000000182502016101700000010000000000000BRBBASACNOR3259
012016072082BBASW80     080BBASE       ON      NM000R$  000000000012600000000001350000000000126000000000013400000000001350000000000000000000000014200002000000000000016700000000000002253600000000000209802016112100000010000000000000BRBBASACNOR3261
012016072082BBASW88     080BBASE       ON      NM000R$  000000000005500000000000550000000000045000000000004700000000000500000000000000000000000000000003000000000000033300000000000001582500000000000184802016112100000010000000000000BRBBASACNOR3261
012016072082BBASX52     080BBASE       ON      NM000R$  000000000022500000000002250000000000225000000000022500000000002250000000000000000000000000000002000000000000250000000000000056250000000000000221302016121900000010000000000000BRBBASACNOR3258
012016072002BBDC3       010BRADESCO    ON      N1   R$  000000000295500000000029910000000002923000000000296400000000029800000000002977000000000298005030000000000001339700000000003971288800000000000000009999123100000010000000000000BRBBDCACNOR1651
012016072096BBDC3F      020BRADESCO    ON      N1   R$  000000000297200000000029920000000002928000000000297200000000029920000000002949000000000299200067000000000000001360000000000004042175000000000000009999123100000010000000000000BRBBDCACNOR1651
012016072002BBDC4       010BRADESCO    PN      N1   R$  000000000289000000000029150000000002846000000000289100000000029030000000002900000000000290320795000000000009375800000000027114214500000000000000009999123100000010000000000000BRBBDCACNPR8651
012016072096BBDC4F      020BRADESCO    PN      N1   R$  000000000288800000000029120000000002848000000000288700000000029000000000002897000000000290000309000000000000008146000000000023522020000000000000009999123100000010000000000000BRBBDCACNPR8651
012016072062BBDC4T      030BRADESCO    PN      N1029R$  000000000293100000000029320000000002931000000000293100000000029320000000000000000000000000000002000000000000032000000000000093811520000000000000009999123100000010000000000000BRBBDCACNPR8651
012016072062BBDC4T      030BRADESCO    PN      N1030R$  000000000291100000000029120000000002911000000000291100000000029120000000000000000000000000000002000000000000000500000000000001455840000000000000009999123100000010000000000000BRBBDCACNPR8651
012016072078BBDCA85     070BBDCE       PN      N1000R$  000000000013000000000001830000000000130000000000017700000000001730000000000000000000000000000009000000000000025100000000000004459500000000000317502017011600000010000000000000BRBBDCACNPR8645
012016072078BBDCH10     070BBDC        PN      N1000R$  000000000025500000000002550000000000250000000000025100000000002500000000000185000000000000000002000000000000005000000000000001255000000000000269202016081500000010000000000000BRBBDCACNPR8631
012016072078BBDCH11     070BBDC        PN      N1000R$  000000000019900000000001990000000000199000000000019900000000001990000000000120000000000000000001000000000000001000000000000000199000000000000273702016081500000010000000000000BRBBDCACNPR8631
012016072078BBDCH31     070BBDC  FM    PN      N1000R$  000000000001400000000000220000000000014000000000001900000000000220000000000019000000000002300031000000000000054600000000000001050300000000000315802016081500000010000000000000BRBBDCACNPR8648
012016072078BBDCH33     070BBDC  FM    PN      N1000R$  000000000015700000000001800000000000139000000000016800000000001680000000000095000000000000000040000000000000043900000000000007383200000000000278702016081500000010000000000000BRBBDCACNPR8649
012016072078BBDCH73     070BBDCE       PN      N1000R$  000000000003000000000000450000000000030000000000003700000000000450000000000030000000000008000029000000000000064300000000000002436700000000000303302016081500000010000000000000BRBBDCACNPR8646
012016072078BBDCH88     070BBDCE       PN      N1000R$  000000000009000000000001270000000000089000000000011500000000001270000000000127000000000012900046000000000000090900000000000010458500000000000286202016081500000010000000000000BRBBDCACNPR8648
012016072078BBDCH89     070BBDC  FM    PN      N1000R$  000000000009100000000001100000000000077000000000010400000000001060000000000076000000000011600185000000000000102700000000000010716800000000000288702016081500000010000000000000BRBBDCACNPR8651
012016072078BBDCH90     070BBDC  FM    PN      N1000R$  000000000004600000000000670000000000041000000000006100000000000670000000000045000000000006800128000000000000244100000000000014944800000000000298702016081500000010000000000000BRBBDCACNPR8651
012016072078BBDCH91     070BBDCE       PN      N1000R$  000000000002300000000000240000000000023000000000002300000000000240000000000022000000000003000004000000000000006500000000000000152000000000000313302016081500000010000000000000BRBBDCACNPR8647
012016072078BBDCH97     070BBDC        PN      N1000R$  000000000006500000000000850000000000065000000000007900000000000850000000000000000000000000000019000000000000049200000000000003907400000000000293702016081500000010000000000000BRBBDCACNPR8651
012016072078BBDCI1      070BBDC  FM    PN      N1000R$  000000000024500000000002520000000000237000000000024400000000002500000000000000000000000000000027000000000000034750000000000008503420000000000277402016091900000010000000000000BRBBDCACNPR8637
012016072078BBDCI32     070BBDC        PN      N1000R$  000000000014400000000001660000000000144000000000015500000000001600000000000000000000000000000051000000000000103880000000000016155240000000000291102016091900000010000000000000BRBBDCACNPR8646
012016072078BBDCI36     070BBDC        PN      N1000R$  000000000021500000000002200000000000206000000000021300000000002140000000000103000000000000000031000000000000035540000000000007586240000000000282002016091900000010000000000000BRBBDCACNPR8637
012016072078BBDCI46     070BBDC  FM    PN      N1000R$  000000000010300000000001160000000000101000000000011000000000001160000000000000000000000000000051000000000000125000000000000013762700000000000301102016091900000010000000000000BRBBDCACNPR8651
012016072078BBDCI52     070BBDC  FM    PN      N1000R$  000000000007100000000000810000000000071000000000007400000000000810000000000069000000000008400007000000000000005000000000000000372000000000000311102016091900000010000000000000BRBBDCACNPR8651
012016072078BBDCI67     070BBDCE       PN      N1000R$  000000000003600000000000400000000000036000000000003900000000000390000000000000000000000000000005000000000000023000000000000000900000000000000329702016091900000010000000000000BRBBDCACNPR8632
012016072078BBDCI68     070BBDC  FM    PN      N1000R$  000000000018300000000001890000000000176000000000018300000000001890000000000000000000000000000032000000000000028500000000000005231000000000000287002016091900000010000000000000BRBBDCACNPR8651
012016072078BBDCI80     070BBDCE       PN      N1000R$  000000000005100000000000510000000000048000000000004900000000000480000000000000000000000005700006000000000000025000000000000001249950000000000320602016091900000010000000000000BRBBDCACNPR8632
012016072078BBDCI99     070BBDCE       ON      N1000R$  000000000009100000000000910000000000091000000000009100000000000910000000000091000000000009300009000000000000000090000000000000008190000000000299902016091900000010000000000000BRBBDCACNOR1637
012016072078BBDCJ3      070BBDC        PN      N1000R$  000000000014300000000001460000000000143000000000014500000000001460000000000000000000000015700002000000000001000010000000000146001430000000000302602016101700000010000000000000BRBBDCACNPR8645
012016072078BBDCJ34     070BBDC        PN      N1000R$  000000000012300000000001230000000000113000000000011300000000001130000000000000000000000000000002000000000000010700000000000001210100000000000294002016101700000010000000000000BRBBDCACNPR8651
012016072078BBDCK8      070BBDCE       PN      N1000R$  000000000019100000000002040000000000191000000000019500000000002040000000000000000000000000000002000000000000012600000000000002466400000000000377502017112100000010000000000000BRBBDCACNPR8651
012016072078BBDCK98     070BBDCE       PN      N1000R$  000000000018000000000001800000000000144000000000014900000000001440000000000000000000000000000003000000000000009600000000000001431000000000000382502017112100000010000000000000BRBBDCACNPR8651
012016072078BBDCL8      070BBDCE       PN      N1000R$  000000000025800000000002580000000000258000000000025800000000002580000000000000000000000000000001000000000000000100000000000000025800000000000355902017121800000010000000000000BRBBDCACNPR8651
012016072082BBDCT10     080BBDCE FM    PN      N1000R$  000000000002400000000000240000000000018000000000002000000000000210000000000000000000000004000007000000000000010600000000000000218400000000000269202016081500000010000000000000BRBBDCACNPR8631
012016072082BBDCT11     080BBDCE       PN      N1000R$  000000000002700000000000300000000000027000000000002900000000000280000000000000000000000000000016000000000000135400000000000003973370000000000273702016081500000010000000000000BRBBDCACNPR8631
012016072082BBDCT16     080BBDCE       PN      N1000R$  000000000001000000000000100000000000007000000000000800000000000070000000000006000000000000700003000000000000004500000000000000036000000000000252402016081500000010000000000000BRBBDCACNPR8620
012016072082BBDCT30     080BBDCE       PN      N1000R$  000000000003100000000000310000000000020000000000002200000000000230000000000020000000000005000005000000000000015260000000000000349680000000000271402016081500000010000000000000BRBBDCACNPR8646
012016072082BBDCT33     080BBDCE FM    PN      N1000R$  000000000004900000000000500000000000036000000000004000000000000400000000000039000000000005200036000000000000065000000000000002632200000000000278702016081500000010000000000000BRBBDCACNPR8649
012016072082BBDCT79     080BBDCE       PN      N1000R$  000000000002100000000000210000000000017000000000001700000000000180000000000000000000000002000012000000000000035500000000000000617500000000000266902016081500000010000000000000BRBBDCACNPR8645
012016072082BBDCT88     080BBDCE       PN      N1000R$  000000000006700000000000690000000000063000000000006500000000000640000000000000000000000000000008000000000000008500000000000000559800000000000286202016081500000010000000000000BRBBDCACNPR8648
012016072082BBDCT89     080BBDCE FM    PN      N1000R$  000000000009200000000000920000000000065000000000008300000000000740000000000000000000000000000010000000000000019100000000000001586500000000000288702016081500000010000000000000BRBBDCACNPR8651
012016072082BBDCT97     080BBDCE       PN      N1000R$  000000000009900000000000990000000000099000000000009900000000000990000000000090000000000000000001000000000000002000000000000000198000000000000293702016081500000010000000000000BRBBDCACNPR8651
012016072082BBDCU1      080BBDCE FM    PN      N1000R$  000000000007000000000000700000000000069000000000006900000000000690000000000000000000000000000002000000000000000650000000000000045350000000000277402016091900000010000000000000BRBBDCACNPR8637
012016072082BBDCU45     080BBDCE       PN      N1000R$  000000000002800000000000280000000000028000000000002800000000000280000000000000000000000000000001000000000000001200000000000000033600000000000259502016091900000010000000000000BRBBDCACNPR8651
012016072082BBDCU68     080BBDCE FM    PN      N1000R$  000000000010500000000001050000000000105000000000010500000000001050000000000000000000000000000001000000000000000100000000000000010500000000000287002016091900000010000000000000BRBBDCACNPR8651
012016072082BBDCU77     080BBDCE FM    PN      N1000R$  000000000005900000000000600000000000059000000000005900000000000600000000000000000000000000000002000000000000001000000000000000059500000000000272002016091900000010000000000000BRBBDCACNPR8649
012016072082BBDCW11     080BBDCE       PN      N1000R$  000000000002900000000000290000000000012000000000001700000000000120000000000000000000000000000004000000000000012800000000000000228200000000000230002017112100000010000000000000BRBBDCACNPR8651
012016072082BBDCW6      080BBDCE       PN      N1000R$  000000000007000000000000720000000000070000000000007000000000000720000000000000000000000000000002000000000000008100000000000000567200000000000227502017112100000010000000000000BRBBDCACNPR8651
012016072082BBDCW7      080BBDCE       PN      N1000R$  000000000021100000000002110000000000200000000000020700000000002020000000000000000000000000000005000000000000020700000000000004300100000000000287502017112100000010000000000000BRBBDCACNPR8651
012016072012BBFI11B     010FII BB PROGRCI      MB   R$  000000024000000000002400000000000237000000000023873200000002385000000000238000000000024000000037000000000000000368000000000087853728000000000000009999123100000010000000000000BRBBFICTF006232
012016072012BBPO11      010FII BB PRGIICI           R$  000000001145600000000115300000000011456000000001149000000000115300000000011499000000001153000304000000000000024821000000000285203013000000000000009999123100000010000000000000BRBBPOCTF003144
012016072012BBRC11      010FII BB CORP CI           R$  000000001069000000000107620000000010410000000001052300000000105510000000010450000000001055100028000000000000001346000000000014164442000000000000009999123100000010000000000000BRBBRCCTF004158
012016072002BBRK3       010BR BROKERS  ON      NM   R$  000000000016400000000001710000000000159000000000016600000000001710000000000167000000000017100169000000000000130000000000000021634800000000000000009999123100000010000000000000BRBBRKACNOR4110
012016072014BBSD11      010BB ETF SP DVCI           R$  000000000405300000000040600000000004049000000000405900000000040600000000000000000000000000000003000000000000001030000000000004181550000000000000009999123100000010000000000000BRBBSDCTF000100
012016072002BBSE3       010BBSEGURIDADEON      NM   R$  000000000297000000000030270000000002958000000000299600000000030070000000003001000000000300713313000000000005327500000000015963535500000000000000009999123100000010000000000000BRBBSEACNOR5106
012016072096BBSE3F      020BBSEGURIDADEON      NM   R$  000000000296000000000030260000000002955000000000299500000000030090000000003004000000000300900207000000000000005189000000000015544457000000000000009999123100000010000000000000BRBBSEACNOR5106
012016072062BBSE3T      030BBSEGURIDADEON      NM029R$  000000000302900000000030410000000003029000000000303600000000030410000000000000000000000000000004000000000000001600000000000004858587000000000000009999123100000010000000000000BRBBSEACNOR5106
012016072062BBSE3T      030BBSEGURIDADEON      NM030R$  000000000301900000000030570000000003013000000000303100000000030380000000000000000000000000000010000000000000003700000000000011215405000000000000009999123100000010000000000000BRBBSEACNOR5106
012016072062BBSE3T      030BBSEGURIDADEON      NM061R$  000000000304300000000030440000000003043000000000304300000000030440000000000000000000000000000002000000000000003000000000000009130161000000000000009999123100000010000000000000BRBBSEACNOR5106
012016072062BBSE3T      030BBSEGURIDADEON      NM153R$  000000000315300000000031540000000003153000000000315300000000031540000000000000000000000000000002000000000000010000000000000031531380000000000000009999123100000010000000000000BRBBSEACNOR5106
012016072078BBSEH29     070BBSE        ON      NM000R$  000000000014200000000001460000000000142000000000014400000000001450000000000135000000000014500004000000000000005600000000000000810200000000000292902016081500000010000000000000BRBBSEACNOR5106
012016072078BBSEH30     070BBSE        ON      NM000R$  000000000008200000000000900000000000071000000000008000000000000750000000000076000000000008900046000000000000060100000000000004814600000000000302902016081500000010000000000000BRBBSEACNOR5106
012016072078BBSEH31     070BBSE        ON      NM000R$  000000000004100000000000410000000000039000000000004000000000000390000000000000000000000004500002000000000000005300000000000000216700000000000312902016081500000010000000000000BRBBSEACNOR5106
012016072078BBSEH59     070BBSE  FM    ON      NM000R$  000000000011200000000001120000000000101000000000010400000000001010000000000000000000000000000015000000000000024400000000000002550200000000000297902016081500000010000000000000BRBBSEACNOR5106
012016072078BBSEH60     070BBSE  FM    ON      NM000R$  000000000006000000000000620000000000049000000000005800000000000620000000000000000000000000000008000000000000130500000000000007697200000000000307902016081500000010000000000000BRBBSEACNOR5106
012016072078BBSEH62     070BBSE  FM    ON      NM000R$  000000000001800000000000180000000000018000000000001800000000000180000000000000000000000000000002000000000000001000000000000000018000000000000327902016081500000010000000000000BRBBSEACNOR5106
012016072078BBSEH70     070BBSEE       ON      NM000R$  000000000006500000000000650000000000065000000000006500000000000650000000000000000000000000000002000000000000002800000000000000182000000000000305402016081500000010000000000000BRBBSEACNOR5106
012016072078BBSEH89     070BBSEE       ON      NM000R$  000000000015000000000001680000000000150000000000015500000000001660000000000000000000000000000004000000000000001500000000000000233400000000000290402016081500000010000000000000BRBBSEACNOR5106
012016072082BBSET24     080BBSEE       ON      NM000R$  000000000000900000000000090000000000008000000000000800000000000080000000000000000000000002500002000000000000120000000000000001020000000000000242902016081500000010000000000000BRBBSEACNOR5106
012016072082BBSET26     080BBSEE       ON      NM000R$  000000000001000000000000100000000000010000000000001000000000000100000000000006000000000000000001000000000000005000000000000000050000000000000262902016081500000010000000000000BRBBSEACNOR5106
012016072082BBSET27     080BBSEE       ON      NM000R$  000000000001100000000000110000000000011000000000001100000000000110000000000000000000000000000001000000000000120000000000000001320000000000000272902016081500000010000000000000BRBBSEACNOR5106
012016072082BBSET28     080BBSEE       ON      NM000R$  000000000003000000000000300000000000030000000000003000000000000300000000000000000000000000000001000000000000000400000000000000012000000000000282902016081500000010000000000000BRBBSEACNOR5106
012016072082BBSET89     080BBSEE       ON      NM000R$  000000000004100000000000410000000000037000000000003800000000000370000000000000000000000000000002000000000000001700000000000000065700000000000290402016081500000010000000000000BRBBSEACNOR5106
012016072082BBSEU59     080BBSEE FM    ON      NM000R$  000000000010000000000001000000000000100000000000010000000000001000000000000000000000000000000001000000000000001000000000000000100000000000000297902016091900000010000000000000BRBBSEACNOR5106
012016072082BBSEV31     080BBSEE       ON      NM000R$  000000000015300000000001530000000000152000000000015200000000001520000000000000000000000000000002000000000000050000000000000007638500000000000310002016101700000010000000000000BRBBSEACNOR5106
012016072002BBTG11      010BTG PACTUAL UNT          R$  000000000170900000000017140000000001689000000000169900000000016920000000001692000000000169601336000000000000270100000000000458990200000000000000009999123100000010000000000000BRBBTGUNT007114
012016072096BBTG11F     020BTG PACTUAL UNT          R$  000000000169700000000017040000000001654000000000168300000000016540000000001653000000000180800007000000000000000242000000000000407409000000000000009999123100000010000000000000BRBBTGUNT007114
012016072012BBVJ11      010FII C JARDIMCI           R$  000000000534400000000055000000000005344000000000547100000000054800000000005412000000000550000040000000000000007278000000000039819263000000000000009999123100000010000000000000BRBBVJCTF001167
012016072012BCFF11B     010FII BC FFII CI      MB   R$  000000000691700000000070090000000006917000000000699600000000070090000000006990000000000700900037000000000000002716000000000019002978000000000000009999123100000010000000000000BRBCFFCTF000176
012016072012BCIA11      010FII BCIA    CI           R$  000000001020000000000102000000000010200000000001020000000000102000000000010000000000001020000003000000000000000007000000000000071400000000000000009999123100000010000000000000BRBCIACTF005113
012016072012BCRI11      010FII BEES CRICI           R$  000000001028900000000102890000000010170000000001026000000000102800000000010255000000001028000013000000000000000414000000000004247945000000000000009999123100000010000000000000BRBCRICTF009112
012016072002BEEF3       010MINERVA     ON      NM   R$  000000000088500000000008950000000000883000000000088800000000008900000000000884000000000089002027000000000000640900000000000569397800000000000000009999123100000010000000000000BRBEEFACNOR6106
012016072096BEEF3F      020MINERVA     ON      NM   R$  000000000087200000000008930000000000872000000000088500000000008860000000000885000000000088800014000000000000000456000000000000403743000000000000009999123100000010000000000000BRBEEFACNOR6106
012016072062BEEF3T      030MINERVA     ON      NM030R$  000000000089700000000008980000000000894000000000089500000000008950000000000000000000000000000006000000000000025000000000000022392114000000000000009999123100000010000000000000BRBEEFACNOR6106
012016072002BEES3       010BANESTES    ON  EJ       R$  000000000025200000000002530000000000235000000000024600000000002350000000000235000000000024400043000000000000065300000000000016082300000000000000009999123100000010000000000000BRBEESACNOR9284
012016072096BEES3F      020BANESTES    ON  EJ       R$  000000000024200000000002420000000000242000000000024200000000002420000000000000000000000024000001000000000000000025000000000000006050000000000000009999123100000010000000000000BRBEESACNOR9284
012016072002BEES4       010BANESTES    PN  EJ       R$  000000000026000000000002600000000000260000000000026000000000002600000000000244000000000026000001000000000000000500000000000000130000000000000000009999123100000010000000000000BRBEESACNPR6209
012016072002BERK34      010BERKSHIRE   DRN          R$  000000004752100000000475210000000047521000000004752100000000475210000000047375000000004799600001000000000000000100000000000004752100000000000000009999123100000010000000000000BRBERKBDR002100
012016072002BGIP4       010BANESE      PN           R$  000000000129000000000013100000000001290000000000130100000000013000000000001260000000000138300005000000000000000500000000000000650500000000000000009999123100000010000000000000BRBGIPACNPR8186
012016072002BIOM3       010BIOMM       ON      MA   R$  000000000071200000000007120000000000712000000000071200000000007120000000000712000000000073000002000000000000000200000000000000142400000000000000009999123100000010000000000000BRBIOMACNOR2104
012016072096BIOM3F      020BIOMM       ON      MA   R$  000000000075000000000007500000000000750000000000075000000000007500000000000712000000000082000002000000000000000020000000000000015000000000000000009999123100000010000000000000BRBIOMACNOR2104
012016072002BMEB4       010MERC BRASIL PN           R$  000000000052800000000005280000000000528000000000052800000000005280000000000518000000000052900001000000000000000100000000000000052800000000000000009999123100000010000000000000BRBMEBACNPR5195
012016072002BMIN4       010MERC INVEST PN           R$  000000000003100000000000310000000000031000000000003100000000000310000000000030000000000003200008000000000000034000000000000001054000000000000000009999123100000010000000000000BRBMINACNPR1165
012016072096BMIN4F      020MERC INVEST PN           R$  000000000003200000000000320000000000027000000000003000000000000280000000000031000000000003300010000000000000001301000000000000040227000000000000009999123100000010000000000000BRBMINACNPR1165
012016072002BMKS3       010BIC MONARK  ON           R$  000000002685000000000268500000000026850000000002685000000000268500000000026850000000002869700002000000000000000002000000000000053700000000000000009999123100000010000000000000BRBMKSACNOR9158
012016072012BMLC11B     010FII BMBRC LCCI      MB   R$  000000000873900000000087500000000008620000000000872200000000087500000000008750000000000880000014000000000000000540000000000004710369000000000000009999123100000010000000000000BRBMLCCTF004153
012016072002BMTO4       010BRASMOTOR   PN           R$  000000000070900000000007120000000000706000000000070700000000007120000000000706000000000071200017000000000000016400000000000011597600000000000000009999123100000010000000000000BRBMTOACNPR6071
012016072002BNBR3       010NORD BRASIL ON           R$  000000000220000000000022000000000002200000000000220000000000022000000000002201000000000249000002000000000000001500000000000003300000000000000000009999123100000010000000000000BRBNBRACNOR8192
012016072096BNBR3F      020NORD BRASIL ON           R$  000000000218400000000021840000000002184000000000218400000000021840000000002200000000000250000001000000000000000020000000000000043680000000000000009999123100000010000000000000BRBNBRACNOR8192
012016072002BOAC34      010BANK AMERICADRN          R$  000000000462500000000046250000000004625000000000462500000000046250000000004624000000000470000001000000000000000200000000000000925000000000000000009999123100000010000000000000BRBOACBDR004123
012016072002BOEI34      010BOEING      DRN          R$  000000004371300000000437130000000043713000000004371300000000437130000000000000000000000000000001000000000000000400000000000017485200000000000000009999123100000010000000000000BRBOEIBDR003117
012016072014BOVA11      010ISHARES BOVACI           R$  000000000550000000000055220000000005456000000000549100000000054970000000005496000000000549704469000000000002164210000000011884268920000000000000009999123100000010000000000000BRBOVACTF003102
012016072096BOVA11F     020ISHARES BOVACI           R$  000000000556000000000055600000000005462000000000550400000000055200000000005400000000000565400029000000000000000099000000000000544900000000000000009999123100000010000000000000BRBOVACTF003102
012016072078BOVAH50     070BOVA        CI        000R$  000000000054200000000005440000000000542000000000054300000000005440000000000000000000000000000002000000000000000320000000000000173840000000000500002016081500000010000000000000BRBOVACTF003102
012016072078BOVAH54     070BOVA  FM    CI        000R$  000000000021500000000002150000000000187000000000020000000000002000000000000000000000000022000004000000000000008300000000000001660000000000000540002016081500000010000000000000BRBOVACTF003102
012016072078BOVAH55     070BOVA  FM    CI        000R$  000000000014900000000001550000000000135000000000014200000000001490000000000000000000000000000005000000000000005300000000000000755170000000000550002016081500000010000000000000BRBOVACTF003102
012016072078BOVAH56     070BOVA  FM    CI        000R$  000000000009300000000000980000000000082000000000008800000000000860000000000000000000000008900010000000000000020500000000000001822500000000000560002016081500000010000000000000BRBOVACTF003102
012016072078BOVAH57     070BOVA  FM    CI        000R$  000000000004900000000000510000000000049000000000004900000000000510000000000000000000000009000002000000000000002800000000000000137800000000000570002016081500000010000000000000BRBOVACTF003102
012016072078BOVAI54     070BOVA  FM    CI        000R$  000000000031000000000003130000000000301000000000030700000000003070000000000000000000000000000007000000000000007200000000000002212600000000000540002016091900000010000000000000BRBOVACTF003102
012016072078BOVAI55     070BOVA  FM    CI        000R$  000000000023600000000002410000000000236000000000024000000000002410000000000000000000000000000002000000000000002600000000000000626100000000000550002016091900000010000000000000BRBOVACTF003102
012016072078BOVAI56     070BOVA  FM    CI        000R$  000000000019800000000001980000000000184000000000019000000000001840000000000000000000000000000003000000000000006000000000000001140500000000000560002016091900000010000000000000BRBOVACTF003102
012016072078BOVAI57     070BOVA  FM    CI        000R$  000000000013900000000001420000000000135000000000013700000000001350000000000000000000000014900004000000000000003700000000000000507600000000000570002016091900000010000000000000BRBOVACTF003102
012016072078BOVAI58     070BOVA  FM    CI        000R$  000000000010000000000001070000000000100000000000010500000000001070000000000000000000000010900005000000000000001600000000000000168600000000000580002016091900000010000000000000BRBOVACTF003102
012016072082BOVAT48     080BOVAE       CI        000R$  000000000000400000000000040000000000004000000000000400000000000040000000000000000000000000000002000000000000000220000000000000000880000000000480002016081500000010000000000000BRBOVACTF003102
012016072082BOVAT49     080BOVAE       CI        000R$  000000000000600000000000060000000000006000000000000600000000000060000000000002000000000000000002000000000000001200000000000000007200000000000490002016081500000010000000000000BRBOVACTF003102
012016072082BOVAT51     080BOVAE       CI        000R$  000000000000800000000000080000000000008000000000000800000000000080000000000000000000000000000001000000000000000100000000000000000800000000000510002016081500000010000000000000BRBOVACTF003102
012016072082BOVAT53     080BOVAE FM    CI        000R$  000000000003700000000000370000000000037000000000003700000000000370000000000000000000000000000002000000000000001600000000000000059200000000000530002016081500000010000000000000BRBOVACTF003102
012016072082BOVAT54     080BOVAE FM    CI        000R$  000000000007000000000000710000000000070000000000007000000000000710000000000000000000000006900002000000000000005000000000000000352500000000000540002016081500000010000000000000BRBOVACTF003102
012016072082BOVAT55     080BOVAE FM    CI        000R$  000000000009600000000001060000000000091000000000009900000000000990000000000088000000000010600005000000000000009600000000000000951900000000000550002016081500000010000000000000BRBOVACTF003102
012016072082BOVAT56     080BOVAE FM    CI        000R$  000000000013800000000001520000000000138000000000014400000000001520000000000000000000000000000006000000000000015000000000000002162500000000000560002016081500000010000000000000BRBOVACTF003102
012016072082BOVAU53     080BOVAE FM    CI        000R$  000000000007900000000000900000000000079000000000008400000000000900000000000000000000000000000003000000000000007500000000000000630000000000000530002016091900000010000000000000BRBOVACTF003102
012016072082BOVAU54     080BOVAE FM    CI        000R$  000000000010400000000001040000000000104000000000010400000000001040000000000000000000000000000001000000000000002500000000000000260000000000000540002016091900000010000000000000BRBOVACTF003102
012016072082BOVAU55     080BOVAE FM    CI        000R$  000000000013600000000001360000000000136000000000013600000000001360000000000000000000000000000001000000000000002500000000000000340000000000000550002016091900000010000000000000BRBOVACTF003102
012016072082BOVAU56     080BOVAE FM    CI        000R$  000000000018100000000001810000000000177000000000017900000000001770000000000000000000000000000002000000000000005000000000000000895000000000000560002016091900000010000000000000BRBOVACTF003102
012016072002BPAN4       010BANCO PAN   PN      N1   R$  000000000014200000000001430000000000140000000000014000000000001400000000000140000000000014200039000000000000123200000000000017322200000000000000009999123100000010000000000000BRBPANACNPR1104
012016072096BPAN4F      020BANCO PAN   PN      N1   R$  000000000014200000000001420000000000140000000000014000000000001400000000000142000000000014500002000000000000000025000000000000003520000000000000009999123100000010000000000000BRBPANACNPR1104
012016072012BPFF11      010FII ABSOLUTOCI           R$  000000000807000000000081000000000007955000000000805400000000081000000000008100000000000823000029000000000000002630000000000021183394000000000000009999123100000010000000000000BRBPFFCTF002139
012016072002BPHA3       010BR PHARMA   ON      NM   R$  000000000058000000000005880000000000552000000000056300000000005590000000000558000000000055900145000000000000070600000000000039817500000000000000009999123100000010000000000000BRBPHAACNOR6104
012016072096BPHA3F      020BR PHARMA   ON      NM   R$  000000000056600000000005710000000000539000000000056500000000005390000000000539000000000056000005000000000000000138000000000000078060000000000000009999123100000010000000000000BRBPHAACNOR6104
012016072002BRAP3       010BRADESPAR   ON      N1   R$  000000000085800000000008750000000000837000000000084900000000008370000000000837000000000085000049000000000000017300000000000014691400000000000000009999123100000010000000000000BRBRAPACNOR5129
012016072096BRAP3F      020BRADESPAR   ON      N1   R$  000000000086000000000008600000000000846000000000085000000000008460000000000835000000000086000006000000000000000067000000000000056983000000000000009999123100000010000000000000BRBRAPACNOR5129
012016072002BRAP4       010BRADESPAR   PN      N1   R$  000000000100700000000010180000000000977000000000099600000000009950000000000995000000000099704502000000000002294400000000002286864300000000000000009999123100000010000000000000BRBRAPACNPR2129
012016072096BRAP4F      020BRADESPAR   PN      N1   R$  000000000100400000000010060000000000990000000000099700000000010030000000000987000000000100300032000000000000000741000000000000739053000000000000009999123100000010000000000000BRBRAPACNPR2129
012016072062BRAP4T      030BRADESPAR   PN      N1016R$  000000000101300000000010140000000001013000000000101300000000010140000000000000000000000000000002000000000000025600000000000025941609000000000000009999123100000010000000000000BRBRAPACNPR2129
012016072062BRAP4T      030BRADESPAR   PN      N1061R$  000000000102000000000010210000000001020000000000102000000000010210000000000000000000000000000002000000000000028000000000000028567804000000000000009999123100000010000000000000BRBRAPACNPR2129
012016072014BRAX11      010ISHARES BRAXCI           R$  000000000464200000000046420000000004642000000000464200000000046420000000000000000000000000000001000000000000000110000000000000510620000000000000009999123100000010000000000000BRBRAXCTF002100
012016072012BRCR11      010FII BC FUND CI           R$  000000000947800000000095360000000009330000000000946200000000095170000000009500000000000951700743000000000000049220000000000465744792000000000000009999123100000010000000000000BRBRCRCTF000167
012016072002BRFS3       010BRF SA      ON  EJ  NM   R$  000000000509800000000051300000000005040000000000508800000000050700000000005070000000000507108018000000000002169800000000011040780300000000000000009999123100000010000000000000BRBRFSACNOR8117
012016072096BRFS3F      020BRF SA      ON  EJ  NM   R$  000000000510500000000051240000000005036000000000508300000000050650000000005065000000000507100092000000000000002350000000000011946418000000000000009999123100000010000000000000BRBRFSACNOR8117
012016072078BRFSB55     070BRFS        ON      NM000R$  000000000038000000000003800000000000306000000000030900000000003060000000000000000000000000000003000000000000002100000000000000650300000000000557202017022000000010000000000000BRBRFSACNOR8117
012016072078BRFSH18     070BRFS    /EJ ON      NM000R$  000000000036000000000003700000000000355000000000035600000000003550000000000300000000000000000008000000000000001900000000000000677500000000000479702016081500000010000000000000BRBRFSACNOR8116
012016072078BRFSH22     070BRFSE   /EJ ON      NM000R$  000000000011200000000001220000000000112000000000011600000000001200000000000000000000000000000005000000000000009000000000000001052600000000000522202016081500000010000000000000BRBRFSACNOR8116
012016072078BRFSH49     070BRFS    /EJ ON      NM000R$  000000000036500000000003650000000000365000000000036500000000003650000000000000000000000000000001000000000000001000000000000000365000000000000484702016081500000010000000000000BRBRFSACNOR8116
012016072078BRFSH50     070BRFS  FM/EJ ON      NM000R$  000000000022000000000002200000000000220000000000022000000000002200000000000041000000000000000001000000000000000800000000000000176000000000000497202016081500000010000000000000BRBRFSACNOR8116
012016072078BRFSH51     070BRFS  FM/EJ ON      NM000R$  000000000018200000000001820000000000182000000000018200000000001820000000000000000000000000000002000000000000000600000000000000109200000000000507202016081500000010000000000000BRBRFSACNOR8116
012016072078BRFSH52     070BRFS  FM/EJ ON      NM000R$  000000000013700000000001370000000000137000000000013700000000001370000000000000000000000014200002000000000000002000000000000000274000000000000517202016081500000010000000000000BRBRFSACNOR8115
012016072078BRFSH53     070BRFS  FM/EJ ON      NM000R$  000000000007600000000000950000000000076000000000009300000000000950000000000000000000000009500009000000000000023100000000000002163500000000000527202016081500000010000000000000BRBRFSACNOR8116
012016072078BRFSH55     070BRFS    /EJ ON      NM000R$  000000000003900000000000390000000000039000000000003900000000000390000000000000000000000000000001000000000000000600000000000000023400000000000547202016081500000010000000000000BRBRFSACNOR8116
012016072078BRFSI19     070BRFS  FM/EJ ON      NM000R$  000000000034800000000003480000000000348000000000034800000000003480000000000000000000000000000001000000000000000800000000000000278400000000000492902016091900000010000000000000BRBRFSACNOR8116
012016072078BRFSI51     070BRFS  FM/EJ ON      NM000R$  000000000024500000000002790000000000245000000000027700000000002790000000000000000000000000000017000000000000192300000000000053277300000000000512902016091900000010000000000000BRBRFSACNOR8116
012016072078BRFSJ58     070BRFS    /EJ ON      NM000R$  000000000010000000000001000000000000100000000000010000000000001000000000000000000000000000000001000000000000000100000000000000010000000000000577202016101700000010000000000000BRBRFSACNOR8116
012016072082BRFSN51     080BRFSE   /EJ ON      NM000R$  000000000030100000000003010000000000301000000000030100000000003010000000000000000000000000000001000000000000002000000000000000602000000000000507202017022000000010000000000000BRBRFSACNOR8116
012016072082BRFST18     080BRFSE   /EJ ON      NM000R$  000000000005400000000000570000000000053000000000005400000000000570000000000000000000000014000008000000000000010100000000000000547300000000000479702016081500000010000000000000BRBRFSACNOR8116
012016072082BRFST19     080BRFSE FM/EJ ON      NM000R$  000000000008400000000000840000000000075000000000007900000000000750000000000000000000000000000002000000000000002400000000000000190800000000000489702016081500000010000000000000BRBRFSACNOR8116
012016072082BRFST28     080BRFSE   /EJ ON      NM000R$  000000000004700000000000480000000000047000000000004700000000000480000000000000000000000000000003000000000000217600000000000010442200000000000474702016081500000010000000000000BRBRFSACNOR8116
012016072082BRFST46     080BRFSE   /EJ ON      NM000R$  000000000003400000000000360000000000026000000000003100000000000360000000000000000000000003600011000000000000007200000000000000224400000000000454702016081500000010000000000000BRBRFSACNOR8116
012016072082BRFST48     080BRFSE   /EJ ON      NM000R$  000000000004400000000000450000000000044000000000004400000000000450000000000000000000000000000002000000000000004000000000000000177500000000000472202016081500000010000000000000BRBRFSACNOR8116
012016072082BRFST49     080BRFSE   /EJ ON      NM000R$  000000000007000000000000700000000000053000000000005800000000000530000000000000000000000000000002000000000000003000000000000000176000000000000484702016081500000010000000000000BRBRFSACNOR8116
012016072082BRFST50     080BRFSE FM/EJ ON      NM000R$  000000000009800000000001070000000000095000000000009800000000001070000000000000000000000013500005000000000000007600000000000000752000000000000497202016081500000010000000000000BRBRFSACNOR8116
012016072082BRFSU23     080BRFSE   /EJ ON      NM000R$  000000000029000000000002900000000000290000000000029000000000002900000000000000000000000000000001000000000000100000000000000029000000000000000527902016091900000010000000000000BRBRFSACNOR8116
012016072082BRFSU46     080BRFSE   /EJ ON      NM000R$  000000000005700000000000570000000000057000000000005700000000000570000000000000000000000000000001000000000000000600000000000000034200000000000457902016091900000010000000000000BRBRFSACNOR8116
012016072082BRFSV49     080BRFSE   /EJ ON      NM000R$  000000000014500000000001450000000000145000000000014500000000001450000000000000000000000000000001000000000000050000000000000007250000000000000484702016101700000010000000000000BRBRFSACNOR8116
012016072082BRFSV63     080BRFSE   /EJ ON      NM000R$  000000000004600000000000470000000000046000000000004600000000000470000000000000000000000000000002000000000000050000000000000002330000000000000432202016101700000010000000000000BRBRFSACNOR8116
012016072002BRIN3       010BR INSURANCEON      NM   R$  000000000214900000000021850000000002091000000000216300000000021850000000002130000000000218500089000000000000083100000000000179794900000000000000009999123100000010000000000000BRBRINACNOR3111
012016072096BRIN3F      020BR INSURANCEON      NM   R$  000000000212000000000021200000000002120000000000212000000000021200000000002121000000000213300002000000000000000032000000000000067840000000000000009999123100000010000000000000BRBRINACNOR3111
012016072062BRIN3T      030BR INSURANCEON      NM030R$  000000000218000000000022110000000002180000000000219400000000022110000000000000000000000000000006000000000000071500000000000156932710000000000000009999123100000010000000000000BRBRINACNOR3111
012016072002BRIV3       010ALFA INVEST ON           R$  000000000052900000000005290000000000529000000000052900000000005290000000000476000000000067100001000000000000000500000000000000264500000000000000009999123100000010000000000000BRBRIVACNOR6202
012016072002BRIV4       010ALFA INVEST PN           R$  000000000063200000000006690000000000625000000000063300000000006500000000000631000000000065000018000000000000014600000000000009247700000000000000009999123100000010000000000000BRBRIVACNPR3202
012016072002BRKM3       010BRASKEM     ON      N1   R$  000000000145000000000014500000000001450000000000145000000000014500000000001426000000000147000008000000000000001700000000000002465000000000000000009999123100000010000000000000BRBRKMACNOR1113
012016072096BRKM3F      020BRASKEM     ON      N1   R$  000000000163200000000016320000000001632000000000163200000000016320000000001450000000000159900001000000000000000010000000000000016320000000000000009999123100000010000000000000BRBRKMACNOR1113
012016072002BRKM5       010BRASKEM     PNA     N1   R$  000000000190000000000019130000000001820000000000187500000000018880000000001888000000000189106409000000000001642200000000003080767700000000000000009999123100000010000000000000BRBRKMACNPA4113
012016072096BRKM5F      020BRASKEM     PNA     N1   R$  000000000187500000000019060000000001825000000000186900000000018850000000001885000000000190300040000000000000001133000000000002117737000000000000009999123100000010000000000000BRBRKMACNPA4113
012016072062BRKM5T      030BRASKEM     PNA     N1030R$  000000000184500000000018460000000001845000000000184500000000018460000000000000000000000000000002000000000000000500000000000000922629000000000000009999123100000010000000000000BRBRKMACNPA4113
012016072062BRKM5T      030BRASKEM     PNA     N1061R$  000000000192800000000019290000000001928000000000192800000000019290000000000000000000000000000002000000000000000100000000000000192821000000000000009999123100000010000000000000BRBRKMACNPA4113
012016072062BRKM5T      030BRASKEM     PNA     N1090R$  000000000195700000000019580000000001957000000000195700000000019580000000000000000000000000000002000000000000002000000000000003914724000000000000009999123100000010000000000000BRBRKMACNPA4113
012016072002BRKM6       010BRASKEM     PNB     N1   R$  000000000112000000000011200000000001120000000000112000000000011200000000001002000000000113000001000000000000000100000000000000112000000000000000009999123100000010000000000000BRBRKMACNPB2111
012016072002BRML3       010BR MALLS PARON      NM   R$  000000000137900000000014250000000001367000000000140400000000014150000000001410000000000141512263000000000007434600000000010439627300000000000000009999123100000010000000000000BRBRMLACNOR9109
012016072096BRML3F      020BR MALLS PARON      NM   R$  000000000137900000000014220000000001379000000000140600000000014070000000001407000000000141100084000000000000002029000000000002853064000000000000009999123100000010000000000000BRBRMLACNOR9109
012016072062BRML3T      030BR MALLS PARON      NM030R$  000000000142400000000014250000000001424000000000142400000000014250000000000000000000000000000002000000000000007000000000000009971493000000000000009999123100000010000000000000BRBRMLACNOR9109
012016072078BRMLH13     070BRML  FM    ON      NM000R$  000000000010000000000001250000000000100000000000010800000000001220000000000000000000000000000013000000000000016300000000000001761900000000000131902016081500000010000000000000BRBRMLACNOR9109
012016072078BRMLH14     070BRML  FM    ON      NM000R$  000000000003500000000000450000000000035000000000003800000000000450000000000000000000000005000007000000000000012500000000000000485000000000000141902016081500000010000000000000BRBRMLACNOR9109
012016072078BRMLI13     070BRML  FM    ON      NM000R$  000000000014200000000001420000000000142000000000014200000000001420000000000000000000000000000001000000000000000100000000000000014200000000000132702016091900000010000000000000BRBRMLACNOR9109
012016072078BRMLI44     070BRML  FM    ON      NM000R$  000000000005300000000000530000000000053000000000005300000000000530000000000000000000000000000001000000000000000100000000000000005300000000000147702016091900000010000000000000BRBRMLACNOR9109
012016072078BRMLK65     070BRMLE       ON      NM000R$  000000000004800000000000480000000000044000000000004400000000000440000000000000000000000000000002000000000000027400000000000001206000000000000151002016112100000010000000000000BRBRMLACNOR9109
012016072002BRPR3       010BR PROPERT  ON      NM   R$  000000000080000000000008420000000000795000000000082800000000008420000000000834000000000084202249000000000000645000000000000534291100000000000000009999123100000010000000000000BRBRPRACNOR9116
012016072096BRPR3F      020BR PROPERT  ON      NM   R$  000000000080400000000008390000000000799000000000082800000000008370000000000736000000000084000032000000000000000959000000000000794269000000000000009999123100000010000000000000BRBRPRACNOR9116
012016072002BRSR3       010BANRISUL    ON      N1   R$  000000000111000000000011230000000001110000000000111600000000011230000000001123000000000140000002000000000000000200000000000000223300000000000000009999123100000010000000000000BRBRSRACNOR3144
012016072002BRSR5       010BANRISUL    PNA     N1   R$  000000000200000000000020000000000002000000000000200000000000020000000000001500000000000200000001000000000000000100000000000000200000000000000000009999123100000010000000000000BRBRSRACNPA6148
012016072002BRSR6       010BANRISUL    PNB     N1   R$  000000000105000000000010700000000001031000000000104400000000010450000000001045000000000104904191000000000002795300000000002919406200000000000000009999123100000010000000000000BRBRSRACNPB4147
012016072096BRSR6F      020BANRISUL    PNB     N1   R$  000000000103700000000010650000000001036000000000104400000000010400000000001040000000000104900059000000000000001737000000000001814487000000000000009999123100000010000000000000BRBRSRACNPB4147
012016072062BRSR6T      030BANRISUL    PNB     N1047R$  000000000107600000000010770000000001076000000000107600000000010770000000000000000000000000000002000000000000001800000000000001938567000000000000009999123100000010000000000000BRBRSRACNPB4147
012016072002BTOW3       010B2W DIGITAL ON      NM   R$  000000000139900000000014130000000001361000000000139200000000014100000000001410000000000141102190000000000000806800000000001123552800000000000000009999123100000010000000000000BRBTOWACNOR8108
012016072096BTOW3F      020B2W DIGITAL ON      NM   R$  000000000139100000000014000000000001375000000000138800000000013980000000001360000000000139800020000000000000000787000000000001093072000000000000009999123100000010000000000000BRBTOWACNOR8108
012016072002BTTL4       010BATTISTELLA PN           R$  000000000105000000000011000000000001050000000000108000000000011000000000001050000000000110000011000000000000004200000000000004537100000000000000009999123100000010000000000000BRBTTLACNPR7106
012016072002BVMF3       010BMFBOVESPA  ON      NM   R$  000000000202500000000020300000000001930000000000196600000000019350000000001935000000000193929876000000000014922900000000029345839400000000000000009999123100000010000000000000BRBVMFACNOR3137
012016072096BVMF3F      020BMFBOVESPA  ON      NM   R$  000000000202000000000020200000000001934000000000197000000000019380000000001937000000000193800211000000000000004943000000000009737830000000000000009999123100000010000000000000BRBVMFACNOR3137
012016072062BVMF3T      030BMFBOVESPA  ON      NM029R$  000000000198500000000019860000000001985000000000198500000000019860000000000000000000000000000002000000000000002000000000000003970815000000000000009999123100000010000000000000BRBVMFACNOR3137
012016072062BVMF3T      030BMFBOVESPA  ON      NM030R$  000000000198400000000019850000000001962000000000197600000000019630000000000000000000000000000004000000000000001600000000000003161966000000000000009999123100000010000000000000BRBVMFACNOR3137
012016072062BVMF3T      030BMFBOVESPA  ON      NM061R$  000000000202700000000020280000000001985000000000200800000000019860000000000000000000000000000004000000000000011000000000000022094702000000000000009999123100000010000000000000BRBVMFACNOR3137
012016072078BVMFH16     070BVMF        ON      NM000R$  000000000037200000000003720000000000372000000000037200000000003720000000000000000000000000000001000000000000000100000000000000037200000000000159202016081500000010000000000000BRBVMFACNOR3136
012016072078BVMFH18     070BVMF        ON      NM000R$  000000000020400000000002200000000000180000000000020200000000001800000000000100000000000000000007000000000000024800000000000005027000000000000179202016081500000010000000000000BRBVMFACNOR3136
012016072078BVMFH19     070BVMF        ON      NM000R$  000000000011900000000001190000000000094000000000011100000000000940000000000075000000000009500006000000000000065000000000000007257000000000000189202016081500000010000000000000BRBVMFACNOR3136
012016072078BVMFH20     070BVMF  FM    ON      NM000R$  000000000006900000000000690000000000044000000000005700000000000450000000000045000000000005000125000000000000172800000000000009974000000000000199202016081500000010000000000000BRBVMFACNOR3136
012016072078BVMFH21     070BVMF  FM    ON      NM000R$  000000000003500000000000350000000000019000000000002500000000000250000000000020000000000002500093000000000000205600000000000005227000000000000209202016081500000010000000000000BRBVMFACNOR3136
012016072078BVMFH22     070BVMF  FM    ON      NM000R$  000000000001200000000000140000000000009000000000001200000000000090000000000009000000000001300051000000000000191700000000000002415300000000000219202016081500000010000000000000BRBVMFACNOR3136
012016072078BVMFH23     070BVMF  FM    ON      NM000R$  000000000000600000000000070000000000005000000000000600000000000050000000000005000000000000600020000000000000050100000000000000310000000000000229202016081500000010000000000000BRBVMFACNOR3136
012016072078BVMFH24     070BVMF        ON      NM000R$  000000000000300000000000050000000000003000000000000400000000000030000000000003000000000000400009000000000000028700000000000000117500000000000239202016081500000010000000000000BRBVMFACNOR3136
012016072078BVMFH25     070BVMF        ON      NM000R$  000000000000200000000000020000000000001000000000000100000000000010000000000001000000000000200002000000000000000200000000000000000300000000000249202016081500000010000000000000BRBVMFACNOR3136
012016072078BVMFH41     070BVMF        ON      NM000R$  000000000085000000000008500000000000850000000000085000000000008500000000000000000000000000000001000000000000000100000000000000085000000000000114202016081500000010000000000000BRBVMFACNOR3136
012016072078BVMFH48     070BVMF        ON      NM000R$  000000000016800000000001680000000000145000000000015400000000001450000000000088000000000028800005000000000000002400000000000000371700000000000184202016081500000010000000000000BRBVMFACNOR3136
012016072078BVMFH49     070BVMF  FM    ON      NM000R$  000000000010200000000001020000000000064000000000008100000000000640000000000059000000000000000036000000000000028400000000000002306800000000000194202016081500000010000000000000BRBVMFACNOR3136
012016072078BVMFH50     070BVMF        ON      NM000R$  000000000004000000000000460000000000030000000000003600000000000320000000000000000000000010000022000000000000058300000000000002154800000000000204202016081500000010000000000000BRBVMFACNOR3136
012016072078BVMFH51     070BVMF        ON      NM000R$  000000000001700000000000190000000000013000000000001700000000000130000000000013000000000001900022000000000000009500000000000000167700000000000214202016081500000010000000000000BRBVMFACNOR3136
012016072078BVMFH52     070BVMF        ON      NM000R$  000000000000300000000000100000000000002000000000000700000000000080000000000008000000000001000053000000000000029700000000000000231600000000000224202016081500000010000000000000BRBVMFACNOR3136
012016072078BVMFH53     070BVMF        ON      NM000R$  000000000000400000000000040000000000004000000000000400000000000040000000000004000000000000500001000000000000000100000000000000000400000000000234202016081500000010000000000000BRBVMFACNOR3136
012016072078BVMFH55     070BVMF        ON      NM000R$  000000000000200000000000020000000000002000000000000200000000000020000000000001000000000000200001000000000000000100000000000000000200000000000254202016081500000010000000000000BRBVMFACNOR3136
012016072078BVMFH63     070BVMFE       ON      NM000R$  000000000068600000000006860000000000655000000000067000000000006550000000000000000000000000000004000000000000000400000000000000268100000000000131702016081500000010000000000000BRBVMFACNOR3136
012016072078BVMFH79     070BVMFE       ON      NM000R$  000000000006100000000000620000000000061000000000006100000000000610000000000000000000000000000003000000000000002400000000000000146500000000000196702016081500000010000000000000BRBVMFACNOR3137
012016072078BVMFH83     070BVMFE       ON      NM000R$  000000000017500000000001750000000000175000000000017500000000001750000000000000000000000000000001000000000000000300000000000000052500000000000237502017082100000010000000000000BRBVMFACNOR3137
