00COTAHIST.2016BOVESPA 20160712                                                                                                                                                                                                                      
012016071202AAPL34      010APPLE       DRN          R$  000000000319500000000032010000000003193000000000319700000000031930000000003177000000000322100003000000000000003700000000000011830900000000000000009999123100000010000000000000BRAAPLBDR004117
012016071210ABCB2       010ABC BRASIL  DIR PRE N2   R$  000000000040000000000004050000000000380000000000039000000000003900000000000390000000000044100027000000000000005300000000000002070400000000000000009999123100000010000000000000BRABCBD09PR2125
012016071296ABCB2F      020ABC BRASIL  DIR PRE N2   R$  000000000038600000000004050000000000370000000000038400000000003760000000000376000000000040500040000000000000001020000000000000391751000000000000009999123100000010000000000000BRABCBD09PR2125
012016071202ABCB4       010ABC BRASIL  PN  EJS N2   R$  000000000135000000000013850000000001345000000000136200000000013690000000001357000000000136900858000000000000176200000000000240035700000000000000009999123100000010000000000000BRABCBACNPR4126
012016071296ABCB4F      020ABC BRASIL  PN  EJS N2   R$  000000000135300000000013840000000001347000000000136100000000013630000000001349000000000136300023000000000000000540000000000000735443000000000000009999123100000010000000000000BRABCBACNPR4126
012016071212ABCP11      010FII ABC IMOBCI  ER       R$  000000000108700000000010880000000001010000000000104400000000010100000000001007000000000108800003000000000000000009000000000000009400000000000000009999123100000010000000000000BRABCPCTF000249
012016071202ABEV3       010AMBEV S/A   ON  ED       R$  000000000193600000000019390000000001921000000000192900000000019300000000001929000000000193018623000000000007635600000000014734150700000000000000009999123100000010000000000000BRABEVACNOR1113
012016071296ABEV3F      020AMBEV S/A   ON  ED       R$  000000000193700000000019390000000001923000000000193000000000019290000000001922000000000192900124000000000000002408000000000004649088000000000000009999123100000010000000000000BRABEVACNOR1113
012016071278ABEVB2      070ABEVE   /ED ON        000R$  000000000006900000000000790000000000058000000000006000000000000790000000000000000000000008000097000000000000310500000000000018896400000000000210102017022000000010000000000000BRABEVACNOR1111
012016071278ABEVG18     070ABEV    /ED ON        000R$  000000000019600000000001960000000000196000000000019600000000001960000000000196000000000021500001000000000000001100000000000000215600000000000173202016071800000010000000000000BRABEVACNOR1107
012016071278ABEVG20     070ABEV    /ED ON        000R$  000000000001300000000000170000000000013000000000001400000000000150000000000007000000000001600014000000000000117200000000000001659600000000000193202016071800000010000000000000BRABEVACNOR1107
012016071278ABEVG38     070ABEV    /ED ON        000R$  000000000005000000000000600000000000050000000000005300000000000600000000000026000000000007500007000000000000009200000000000000491200000000000188202016071800000010000000000000BRABEVACNOR1112
012016071278ABEVG50     070ABEV    /ED ON        000R$  000000000000200000000000020000000000002000000000000200000000000020000000000001000000000002500003000000000000010000000000000000020000000000000198202016071800000010000000000000BRABEVACNOR1107
012016071278ABEVG68     070ABEV    /ED ON        000R$  000000000009700000000000970000000000097000000000009700000000000970000000000021000000000012700001000000000000000100000000000000009700000000000183202016071800000010000000000000BRABEVACNOR1109
012016071278ABEVG78     070ABEVE   /ED ON        000R$  000000000007900000000000810000000000079000000000008000000000000810000000000070000000000008100010000000000000002800000000000000225300000000000185702016071800000010000000000000BRABEVACNOR1112
012016071278ABEVG92     070ABEVE   /ED ON        000R$  000000000003300000000000340000000000028000000000002800000000000280000000000000000000000000000007000000000000015800000000000000455100000000000190702016071800000010000000000000BRABEVACNOR1112
012016071278ABEVG99     070ABEVE   /ED ON        000R$  000000000000800000000000090000000000008000000000000800000000000090000000000002000000000000000003000000000000293000000000000002636900000000000195702016071800000010000000000000BRABEVACNOR1112
012016071278ABEVH18     070ABEV  FM/ED ON        000R$  000000000007600000000000760000000000076000000000007600000000000760000000000000000000000000000001000000000000001800000000000000136800000000000188202016081500000010000000000000BRABEVACNOR1112
012016071278ABEVH19     070ABEV  FM/ED ON        000R$  000000000005800000000000580000000000048000000000005700000000000520000000000022000000000005500010000000000000220800000000000012737800000000000193202016081500000010000000000000BRABEVACNOR1112
012016071278ABEVH20     070ABEV    /ED ON        000R$  000000000001000000000000120000000000010000000000001000000000000120000000000000000000000000000002000000000000010100000000000000102800000000000203202016081500000010000000000000BRABEVACNOR1112
012016071278ABEVH21     070ABEV  FM/ED ON        000R$  000000000000500000000000050000000000005000000000000500000000000050000000000001000000000000500002000000000000000300000000000000001500000000000208202016081500000010000000000000BRABEVACNOR1112
012016071278ABEVH49     070ABEV  FM/ED ON        000R$  000000000002700000000000270000000000022000000000002500000000000220000000000021000000000003000002000000000000002800000000000000071600000000000198202016081500000010000000000000BRABEVACNOR1112
012016071278ABEVH62     070ABEVE   /ED ON        000R$  000000000033000000000003300000000000330000000000033000000000003300000000000000000000000000000001000000000000001100000000000000363000000000000160702016081500000010000000000000BRABEVACNOR1109
012016071278ABEVH64     070ABEVE   /ED ON        000R$  000000000007600000000000760000000000058000000000007500000000000580000000000010000000000000000006000000000001103800000000000083855400000000000190702016081500000010000000000000BRABEVACNOR1109
012016071278ABEVH69     070ABEV  FM/ED ON        000R$  000000000012700000000001270000000000124000000000012600000000001270000000000000000000000000000012000000000000010000000000000001265200000000000183202016081500000010000000000000BRABEVACNOR1107
012016071278ABEVH70     070ABEVE   /ED ON        000R$  000000000001000000000000100000000000010000000000001000000000000100000000000001000000000000000001000000000000006000000000000000060000000000000205702016081500000010000000000000BRABEVACNOR1112
012016071278ABEVH79     070ABEVE   /ED ON        000R$  000000000003500000000000410000000000032000000000003600000000000320000000000000000000000000000016000000000000041300000000000001509900000000000195702016081500000010000000000000BRABEVACNOR1111
012016071278ABEVH93     070ABEVE   /ED ON        000R$  000000000000100000000000010000000000001000000000000100000000000010000000000000000000000000000001000000000000020000000000000000020000000000000230702016081500000010000000000000BRABEVACNOR1109
012016071278ABEVI49     070ABEV  FM/ED ON        000R$  000000000005100000000000510000000000050000000000005000000000000500000000000008000000000000000002000000000000001800000000000000091000000000000198202016091900000010000000000000BRABEVACNOR1112
012016071278ABEVI60     070ABEVE   /ED ON        000R$  000000000004200000000000420000000000042000000000004200000000000420000000000000000000000000000001000000000000001000000000000000042000000000000200702016091900000010000000000000BRABEVACNOR1112
012016071278ABEVJ20     070ABEV    /ED ON        000R$  000000000005100000000000700000000000045000000000004700000000000650000000000000000000000000000005000000000000318000000000000015130600000000000199802016101700000010000000000000BRABEVACNOR1112
012016071278ABEVJ49     070ABEV    /ED ON        000R$  000000000009500000000000950000000000095000000000009500000000000950000000000000000000000000000003000000000000035000000000000003325000000000000194802016101700000010000000000000BRABEVACNOR1112
012016071278ABEVJ57     070ABEV    /ED ON        000R$  000000000027700000000002800000000000277000000000027700000000002800000000000000000000000000000003000000000000035000000000000009728000000000000174802016101700000010000000000000BRABEVACNOR1112
012016071278ABEVJ60     070ABEVE   /ED ON        000R$  000000000004500000000000550000000000045000000000004800000000000550000000000000000000000000000003000000000000035000000000000001685000000000000202302016101700000010000000000000BRABEVACNOR1112
012016071278ABEVJ68     070ABEV    /ED ON        000R$  000000000021000000000002100000000000205000000000020800000000002050000000000000000000000000000003000000000000035000000000000007295000000000000179802016101700000010000000000000BRABEVACNOR1109
012016071278ABEVJ82     070ABEVE   /ED ON        000R$  000000000000800000000000100000000000008000000000000800000000000100000000000000000000000000000003000000000000035000000000000000302000000000000222302016101700000010000000000000BRABEVACNOR1109
012016071278ABEVK79     070ABEVE   /ED ON        000R$  000000000008300000000000850000000000079000000000008300000000000790000000000000000000000000000003000000000001312900000000000109666700000000000197302016112100000010000000000000BRABEVACNOR1113
012016071282ABEVS10     080ABEVE   /ED ON        000R$  000000000009600000000000960000000000093000000000009400000000000930000000000088000000000000000002000000000000010000000000000000945000000000000203202016071800000010000000000000BRABEVACNOR1112
012016071282ABEVS38     080ABEVE   /ED ON        000R$  000000000000400000000000040000000000004000000000000400000000000040000000000000000000000000600001000000000000000100000000000000000400000000000188202016071800000010000000000000BRABEVACNOR1112
012016071282ABEVS92     080ABEVE   /ED ON        000R$  000000000000700000000000070000000000007000000000000700000000000070000000000000000000000000000001000000000000001900000000000000013300000000000190702016071800000010000000000000BRABEVACNOR1112
012016071282ABEVT18     080ABEVE FM/ED ON        000R$  000000000001600000000000160000000000014000000000001500000000000140000000000000000000000002200027000000000000180000000000000002760000000000000188202016081500000010000000000000BRABEVACNOR1112
012016071282ABEVT19     080ABEVE FM/ED ON        000R$  000000000002900000000000290000000000029000000000002900000000000290000000000020000000000000000002000000000000002300000000000000066700000000000193202016081500000010000000000000BRABEVACNOR1112
012016071282ABEVT69     080ABEVE FM/ED ON        000R$  000000000000900000000000090000000000009000000000000900000000000090000000000000000000000000000001000000000000002500000000000000022500000000000183202016081500000010000000000000BRABEVACNOR1107
012016071282ABEVT78     080ABEVE   /ED ON        000R$  000000000001100000000000120000000000011000000000001100000000000120000000000009000000000002500002000000000000010400000000000000124400000000000185702016081500000010000000000000BRABEVACNOR1112
012016071282ABEVU19     080ABEVE FM/ED ON        000R$  000000000003800000000000380000000000038000000000003800000000000380000000000000000000000009800001000000000000001000000000000000038000000000000193202016091900000010000000000000BRABEVACNOR1112
012016071282ABEVV67     080ABEVE   /ED ON        000R$  000000000001000000000000100000000000005000000000000800000000000050000000000000000000000000000003000000000000035000000000000000295000000000000172302016101700000010000000000000BRABEVACNOR1112
012016071282ABEVV75     080ABEVE   /ED ON        000R$  000000000000100000000000010000000000001000000000000100000000000010000000000000000000000000000003000000000000035000000000000000035000000000000152302016101700000010000000000000BRABEVACNOR1112
012016071212AEFI11      010FII AESAPAR CI  ER       R$  000000001250200000000125590000000012451000000001250600000000124510000000012450000000001255000016000000000000000380000000000004752500000000000000009999123100000010000000000000BRAEFICTF002155
012016071296AELP3F      020AES ELPA    ON           R$  000000000090100000000009010000000000901000000000090100000000009010000000000901000000000000000002000000000000000032000000000000028832000000000000009999123100000010000000000000BRAELPACNOR2123
012016071212AGCX11      010FII AG CAIXACI  ER       R$  000000010379900000001038000000000103506000000010375300000001038000000000103520000000010380000042000000000000000418000000000043368985000000000000009999123100000010000000000000BRAGCXCTF003144
012016071202AGRO3       010BRASILAGRO  ON      NM   R$  000000000127000000000012750000000001239000000000125700000000012610000000001261000000000126500262000000000000128400000000000161412100000000000000009999123100000010000000000000BRAGROACNOR7104
012016071296AGRO3F      020BRASILAGRO  ON      NM   R$  000000000127000000000012900000000001250000000000127000000000012550000000001250000000000134900011000000000000000305000000000000387488000000000000009999123100000010000000000000BRAGROACNOR7104
012016071262AGRO3T      030BRASILAGRO  ON      NM062R$  000000000128800000000012890000000001288000000000128800000000012890000000000000000000000000000002000000000000002500000000000003221224000000000000009999123100000010000000000000BRAGROACNOR7104
012016071212ALMI11B     010FII TORRE ALCI  ER  MB   R$  000000018249900000001825000000000180650000000018205200000001815000000000180650000000018150000012000000000000000089000000000016202673000000000000009999123100000010000000000000BRALMICTF003239
012016071202ALPA4       010ALPARGATAS  PN      N1   R$  000000000104600000000010500000000001005000000000102600000000010080000000001008000000000100901907000000000000365700000000000375391700000000000000009999123100000010000000000000BRALPAACNPR7217
012016071296ALPA4F      020ALPARGATAS  PN      N1   R$  000000000104100000000010480000000001009000000000103100000000010090000000001009000000000103900018000000000000000622000000000000641810000000000000009999123100000010000000000000BRALPAACNPR7217
012016071202ALSC3       010ALIANSCE    ON      NM   R$  000000000144100000000014530000000001409000000000142100000000014320000000001423000000000143201273000000000000242200000000000344397400000000000000009999123100000010000000000000BRALSCACNOR0109
012016071296ALSC3F      020ALIANSCE    ON      NM   R$  000000000141500000000014300000000001415000000000142000000000014240000000001424000000000148000013000000000000000480000000000000681771000000000000009999123100000010000000000000BRALSCACNOR0109
012016071202ALUP11      010ALUPAR      UNT     N2   R$  000000000149400000000015110000000001477000000000149200000000014910000000001488000000000149101182000000000000287800000000000429528800000000000000009999123100000010000000000000BRALUPCDAM15105
012016071296ALUP11F     020ALUPAR      UNT     N2   R$  000000000148600000000015100000000001484000000000149100000000014970000000001480000000000149700052000000000000001346000000000002007898000000000000009999123100000010000000000000BRALUPCDAM15105
012016071210ALUP12      010ALUPAR      DIR UNT N2   R$  000000000024000000000002630000000000240000000000025200000000002550000000000253000000000025500071000000000000092800000000000023433500000000000000009999123100000010000000000000BRALUPD01M10104
012016071296ALUP12F     020ALUPAR      DIR UNT N2   R$  000000000023900000000002600000000000230000000000024300000000002540000000000232000000000025400058000000000000001851000000000000450254000000000000009999123100000010000000000000BRALUPD01M10104
012016071278ALUPI74     070ALUPE       UNT     N2000R$  000000000008400000000000840000000000084000000000008400000000000840000000000000000000000000000001000000000000055000000000000004620000000000000146502016091900000010000000000000BRALUPCDAM15105
012016071282ALUPU74     080ALUPE       UNT     N2000R$  000000000004700000000000470000000000047000000000004700000000000470000000000000000000000000000001000000000000055000000000000002585000000000000146502016091900000010000000000000BRALUPCDAM15105
012016071202AMAR3       010LOJAS MARISAON      NM   R$  000000000080500000000008230000000000792000000000081100000000008000000000000792000000000080000602000000000000247400000000000200725600000000000000009999123100000010000000000000BRAMARACNOR4112
012016071296AMAR3F      020LOJAS MARISAON      NM   R$  000000000080600000000008080000000000806000000000080600000000008060000000000805000000000082900005000000000000000161000000000000129818000000000000009999123100000010000000000000BRAMARACNOR4112
012016071262AMAR3T      030LOJAS MARISAON      NM062R$  000000000082400000000008250000000000824000000000082400000000008250000000000000000000000000000002000000000000001000000000000000824480000000000000009999123100000010000000000000BRAMARACNOR4112
012016071202AMZO34      010AMAZON      DRN          R$  000000012229000000001222900000000122290000000012229000000001222900000000121965000000012383300001000000000000000100000000000012229000000000000000009999123100000010000000000000BRAMZOBDR002101
012016071202ANIM3       010ANIMA       ON      NM   R$  000000000135000000000013580000000001298000000000133400000000013300000000001329000000000134100586000000000000276300000000000368859400000000000000009999123100000010000000000000BRANIMACNOR6103
012016071296ANIM3F      020ANIMA       ON      NM   R$  000000000135200000000013520000000001310000000000133200000000013100000000001330000000000133900012000000000000000330000000000000439935000000000000009999123100000010000000000000BRANIMACNOR6103
012016071212ARFI11B     010FII AQUIL RDCI      MB   R$  000000009313300000000931330000000093133000000009313300000000931330000000000000000000000000000001000000000000000718000000000066869494000000000000009999123100000010000000000000BRARFICTF004100
012016071202ARZZ3       010AREZZO CO   ON      NM   R$  000000000276400000000028730000000002730000000000278400000000028260000000002820000000000282600778000000000000211800000000000589814100000000000000009999123100000010000000000000BRARZZACNOR3121
012016071296ARZZ3F      020AREZZO CO   ON      NM   R$  000000000277000000000028550000000002749000000000278800000000028550000000002790000000000284600012000000000000000199000000000000554983000000000000009999123100000010000000000000BRARZZACNOR3121
012016071278ARZZJ56     070ARZZ        ON      NM000R$  000000000035100000000003510000000000351000000000035100000000003510000000000000000000000000000001000000000000001800000000000000631800000000000265002016101700000010000000000000BRARZZACNOR3121
012016071208ATOM3       010ATOMPAR     ON           R$  000000000006300000000000780000000000063000000000007200000000000750000000000075000000000007600760000000000001610800000000000117115800000000000000009999123100000010000000000000BRATOMACNOR1101
012016071296ATOM3F      020ATOMPAR     ON           R$  000000000006500000000000770000000000065000000000007200000000000760000000000073000000000007900011000000000000000515000000000000037282000000000000009999123100000010000000000000BRATOMACNOR1101
012016071202AVON34      010AVON        DRN          R$  000000000065700000000006570000000000657000000000065700000000006570000000000672000000000069500001000000000000000900000000000000591300000000000000009999123100000010000000000000BRAVONBDR009121
012016071202AXPB34      010AMERICAN EXPDRN          R$  000000002084500000000208450000000020845000000002084500000000208450000000000000000000000000000001000000000000000300000000000006253500000000000000009999123100000010000000000000BRAXPBBDR007117
012016071296AXPB34F     020AMERICAN EXPDRN          R$  000000002084500000000208450000000020845000000002084500000000208450000000000000000000000000000001000000000000000050000000000001042250000000000000009999123100000010000000000000BRAXPBBDR007117
012016071202AZEV4       010AZEVEDO     PN           R$  000000000013200000000001320000000000132000000000013200000000001320000000000130000000000013500001000000000000000200000000000000026400000000000000009999123100000010000000000000BRAZEVACNPR7116
012016071202BAUH4       010EXCELSIOR   PN           R$  000000000060000000000006400000000000600000000000061000000000006400000000000605000000000064000006000000000000002300000000000001405000000000000000009999123100000010000000000000BRBAUHACNPR3111
012016071202BAZA3       010AMAZONIA    ON           R$  000000000003400000000000350000000000033000000000003300000000000330000000000033000000000003400064000000000000403000000000000013621000000000000000009999123100000010000000000000BRBAZAACNOR0168
012016071296BAZA3F      020AMAZONIA    ON           R$  000000000003600000000000360000000000033000000000003400000000000330000000000033000000000003500005000000000000001815000000000000062295000000000000009999123100000010000000000000BRBAZAACNOR0168
012016071202BBAS3       010BRASIL      ON      NM   R$  000000000183200000000018530000000001776000000000181300000000017790000000001778000000000177923474000000000010549800000000019133287200000000000000009999123100000010000000000000BRBBASACNOR3261
012016071296BBAS3F      020BRASIL      ON      NM   R$  000000000182000000000018500000000001777000000000181700000000017770000000001777000000000178100437000000000000012497000000000022708531000000000000009999123100000010000000000000BRBBASACNOR3261
012016071262BBAS3T      030BRASIL      ON      NM030R$  000000000183000000000018310000000001798000000000182300000000017990000000000000000000000000000016000000000000016400000000000029909347000000000000009999123100000010000000000000BRBBASACNOR3261
012016071262BBAS3T      030BRASIL      ON      NM090R$  000000000190400000000019050000000001904000000000190400000000019050000000000000000000000000000004000000000000050000000000000095246576000000000000009999123100000010000000000000BRBBASACNOR3261
012016071262BBAS3T      030BRASIL      ON      NM181R$  000000000195700000000019580000000001957000000000195700000000019580000000000000000000000000000002000000000000002000000000000003914060000000000000009999123100000010000000000000BRBBASACNOR3261
012016071278BBASG15     070BBAS        ON      NM000R$  000000000030100000000003010000000000301000000000030100000000003010000000000056000000000036000001000000000000000300000000000000090300000000000150502016071800000010000000000000BRBBASACNOR3259
012016071278BBASG16     070BBAS        ON      NM000R$  000000000021500000000002220000000000176000000000019700000000001760000000000171000000000019000032000000000000013900000000000002747400000000000160502016071800000010000000000000BRBBASACNOR3259
012016071278BBASG17     070BBAS        ON      NM000R$  000000000014200000000001480000000000083000000000012300000000000830000000000025000000000009800381000000000000725400000000000089513900000000000170502016071800000010000000000000BRBBASACNOR3259
012016071278BBASG18     070BBAS        ON      NM000R$  000000000004000000000000630000000000018000000000004000000000000180000000000018000000000001900484000000000001812400000000000072835000000000000180502016071800000010000000000000BRBBASACNOR3259
012016071278BBASG19     070BBAS        ON      NM000R$  000000000001200000000000170000000000005000000000001100000000000050000000000005000000000000600318000000000001174200000000000013451800000000000190502016071800000010000000000000BRBBASACNOR3259
012016071278BBASG20     070BBAS        ON      NM000R$  000000000000500000000000050000000000002000000000000200000000000020000000000001000000000000200060000000000000494300000000000001481900000000000200502016071800000010000000000000BRBBASACNOR3259
012016071278BBASG21     070BBAS        ON      NM000R$  000000000000300000000000030000000000001000000000000100000000000010000000000000000000000000200006000000000000041700000000000000077700000000000210502016071800000010000000000000BRBBASACNOR3259
012016071278BBASG22     070BBAS        ON      NM000R$  000000000000100000000000010000000000001000000000000100000000000010000000000000000000000000100007000000000000020200000000000000020200000000000220502016071800000010000000000000BRBBASACNOR3259
012016071278BBASG45     070BBAS        ON      NM000R$  000000000023600000000002360000000000236000000000023600000000002360000000000075000000000000000001000000000000001500000000000000354000000000000155502016071800000010000000000000BRBBASACNOR3259
012016071278BBASG46     070BBAS        ON      NM000R$  000000000017500000000001750000000000130000000000016800000000001300000000000000000000000000000017000000000000127400000000000021520700000000000165502016071800000010000000000000BRBBASACNOR3259
012016071278BBASG47     070BBAS        ON      NM000R$  000000000006500000000000950000000000051000000000008300000000000510000000000042000000000006300035000000000000245600000000000020525200000000000175502016071800000010000000000000BRBBASACNOR3259
012016071278BBASG48     070BBAS        ON      NM000R$  000000000001900000000000310000000000009000000000002200000000000090000000000001000000000000900091000000000000502600000000000011287800000000000185502016071800000010000000000000BRBBASACNOR3259
012016071278BBASG49     070BBAS        ON      NM000R$  000000000000600000000000080000000000006000000000000600000000000060000000000002000000000000600022000000000000021200000000000000134500000000000195502016071800000010000000000000BRBBASACNOR3259
012016071278BBASG50     070BBAS        ON      NM000R$  000000000000200000000000020000000000002000000000000200000000000020000000000000000000000000000004000000000000011600000000000000023200000000000205502016071800000010000000000000BRBBASACNOR3259
012016071278BBASG51     070BBAS        ON      NM000R$  000000000000100000000000010000000000001000000000000100000000000010000000000000000000000000300002000000000000001000000000000000001000000000000215502016071800000010000000000000BRBBASACNOR3259
012016071278BBASG60     070BBASE       ON      NM000R$  000000000000600000000000060000000000006000000000000600000000000060000000000003000000000000900001000000000000000500000000000000003000000000000198002016071800000010000000000000BRBBASACNOR3259
012016071278BBASG80     070BBASE       ON      NM000R$  000000000029100000000002910000000000291000000000029100000000002910000000000000000000000000000001000000000000000500000000000000145500000000000200202017071700000010000000000000BRBBASACNOR3261
012016071278BBASG83     070BBAS        ON      NM000R$  000000000019800000000001980000000000198000000000019800000000001980000000000008000000000000000001000000000000003500000000000000693000000000000227702017071700000010000000000000BRBBASACNOR3259
012016071278BBASH16     070BBAS        ON      NM000R$  000000000026000000000002600000000000230000000000024200000000002300000000000200000000000039800004000000000000004000000000000000969000000000000158802016081500000010000000000000BRBBASACNOR3259
012016071278BBASH17     070BBAS        ON      NM000R$  000000000019000000000001950000000000150000000000016200000000001550000000000137000000000019300016000000000000017500000000000002835400000000000168802016081500000010000000000000BRBBASACNOR3259
012016071278BBASH18     070BBAS  FM    ON      NM000R$  000000000010000000000001300000000000086000000000011400000000000860000000000086000000000010500174000000000000205900000000000023602100000000000178802016081500000010000000000000BRBBASACNOR3259
012016071278BBASH19     070BBAS  FM    ON      NM000R$  000000000005700000000000790000000000045000000000006600000000000450000000000044000000000004501417000000000003277700000000000217404900000000000188802016081500000010000000000000BRBBASACNOR3259
012016071278BBASH20     070BBAS        ON      NM000R$  000000000003300000000000440000000000027000000000003800000000000340000000000030000000000003500153000000000000665200000000000025603300000000000198802016081500000010000000000000BRBBASACNOR3259
012016071278BBASH21     070BBAS        ON      NM000R$  000000000001800000000000260000000000015000000000002000000000000150000000000014000000000001900083000000000000143600000000000003003500000000000208802016081500000010000000000000BRBBASACNOR3259
012016071278BBASH22     070BBAS        ON      NM000R$  000000000001000000000000100000000000007000000000000900000000000070000000000007000000000001200007000000000000045100000000000000430700000000000223802016081500000010000000000000BRBBASACNOR3259
012016071278BBASH46     070BBAS        ON      NM000R$  000000000019000000000001900000000000190000000000019000000000001900000000000020000000000000000002000000000000003700000000000000703000000000000163802016081500000010000000000000BRBBASACNOR3259
012016071278BBASH47     070BBAS  FM    ON      NM000R$  000000000015000000000001600000000000120000000000013500000000001200000000000000000000000012600040000000000000040300000000000005467600000000000173802016081500000010000000000000BRBBASACNOR3259
012016071278BBASH48     070BBAS  FM    ON      NM000R$  000000000007500000000001030000000000068000000000009300000000000720000000000065000000000007500394000000000000768800000000000072081400000000000183802016081500000010000000000000BRBBASACNOR3259
012016071278BBASH49     070BBAS  FM    ON      NM000R$  000000000004200000000000580000000000038000000000005400000000000380000000000037000000000004300046000000000000149200000000000008189500000000000193802016081500000010000000000000BRBBASACNOR3259
012016071278BBASH50     070BBAS        ON      NM000R$  000000000003000000000000320000000000019000000000002400000000000190000000000015000000000001900037000000000000080600000000000001967400000000000203802016081500000010000000000000BRBBASACNOR3259
012016071278BBASH60     070BBASE       ON      NM000R$  000000000003500000000000360000000000027000000000003400000000000270000000000018000000000002500085000000000000092000000000000003134600000000000201302016081500000010000000000000BRBBASACNOR3259
012016071278BBASH66     070BBASE       ON      NM000R$  000000000023500000000002350000000000235000000000023500000000002350000000000197000000000000000001000000000000000400000000000000094000000000000161302016081500000010000000000000BRBBASACNOR3259
012016071278BBASH69     070BBASE       ON      NM000R$  000000000006000000000000650000000000052000000000006200000000000520000000000005000000000004800024000000000000126800000000000007946100000000000191302016081500000010000000000000BRBBASACNOR3259
012016071278BBASH77     070BBASE       ON      NM000R$  000000000014200000000001420000000000102000000000013300000000001020000000000095000000000014200078000000000000147300000000000019604600000000000176302016081500000010000000000000BRBBASACNOR3259
012016071278BBASH80     070BBASE       ON      NM000R$  000000000002500000000000260000000000024000000000002400000000000240000000000000000000000005000012000000000000023500000000000000579600000000000206302016081500000010000000000000BRBBASACNOR3259
012016071278BBASH89     070BBASE       ON      NM000R$  000000000004200000000000470000000000030000000000004200000000000300000000000000000000000000000004000000000000023300000000000000984100000000000196302016081500000010000000000000BRBBASACNOR3259
012016071278BBASH95     070BBAS        ON      NM000R$  000000000001500000000000150000000000015000000000001500000000000150000000000007000000000001000002000000000000003000000000000000045000000000000218802016081500000010000000000000BRBBASACNOR3253
012016071278BBASI18     070BBAS  FM    ON      NM000R$  000000000017700000000001830000000000166000000000017800000000001660000000000000000000000016700007000000000000013700000000000002448700000000000177702016091900000010000000000000BRBBASACNOR3259
012016071278BBASI19     070BBAS  FM    ON      NM000R$  000000000010700000000001070000000000084000000000008600000000000850000000000000000000000010100008000000000000014600000000000001266600000000000192702016091900000010000000000000BRBBASACNOR3260
012016071278BBASI20     070BBAS        ON      NM000R$  000000000008700000000000880000000000082000000000008600000000000840000000000065000000000000000005000000000000004700000000000000406200000000000197702016091900000010000000000000BRBBASACNOR3259
012016071278BBASI47     070BBAS  FM    ON      NM000R$  000000000020300000000002030000000000203000000000020300000000002030000000000032000000000000000001000000000000000500000000000000101500000000000172702016091900000010000000000000BRBBASACNOR3259
012016071278BBASI48     070BBAS  FM    ON      NM000R$  000000000014500000000001530000000000135000000000014300000000001350000000000015000000000000000009000000000000011300000000000001618500000000000182702016091900000010000000000000BRBBASACNOR3259
012016071278BBASI50     070BBAS        ON      NM000R$  000000000007100000000000710000000000055000000000006500000000000550000000000051000000000000000011000000000000066800000000000004342600000000000202702016091900000010000000000000BRBBASACNOR3259
012016071278BBASI68     070BBAS  FM    ON      NM000R$  000000000012100000000001250000000000101000000000011300000000001030000000000000000000000030000007000000000000013900000000000001584100000000000187702016091900000010000000000000BRBBASACNOR3260
012016071278BBASI79     070BBASE       ON      NM000R$  000000000009500000000000950000000000076000000000008700000000000760000000000008000000000000000004000000000000002300000000000000200800000000000195202016091900000010000000000000BRBBASACNOR3259
012016071278BBASI80     070BBASE       ON      NM000R$  000000000008000000000000800000000000074000000000007600000000000800000000000000000000000000000005000000000000005100000000000000390000000000000200202016091900000010000000000000BRBBASACNOR3259
012016071278BBASI90     070BBAS        ON      NM000R$  000000000005800000000000580000000000055000000000005700000000000550000000000000000000000006000003000000000000000700000000000000040000000000000207702016091900000010000000000000BRBBASACNOR3260
012016071278BBASJ21     070BBAS        ON      NM000R$  000000000006500000000000650000000000065000000000006500000000000650000000000000000000000000000001000000000000010100000000000000656500000000000210002016101700000010000000000000BRBBASACNOR3261
012016071278BBASJ23     070BBAS        ON      NM000R$  000000000004000000000000400000000000035000000000003700000000000350000000000013000000000000000002000000000000002000000000000000075000000000000230002016101700000010000000000000BRBBASACNOR3259
012016071278BBASJ48     070BBAS        ON      NM000R$  000000000014500000000001450000000000145000000000014500000000001450000000000000000000000000000001000000000000019000000000000002755000000000000185002016101700000010000000000000BRBBASACNOR3261
012016071278BBASJ49     070BBAS        ON      NM000R$  000000000008500000000000850000000000085000000000008500000000000850000000000000000000000000000001000000000000038000000000000003230000000000000195002016101700000010000000000000BRBBASACNOR3261
012016071278BBASJ78     070BBASE       ON      NM000R$  000000000018200000000001820000000000182000000000018200000000001820000000000000000000000000000001000000000000007500000000000001365000000000000182502016101700000010000000000000BRBBASACNOR3259
012016071278BBASK65     070BBASE       ON      NM000R$  000000000020200000000002020000000000164000000000016400000000001640000000000000000000000000000002000000000000015100000000000002480200000000000252502017112100000010000000000000BRBBASACNOR3261
012016071278BBASK85     070BBASE       ON      NM000R$  000000000020400000000002040000000000204000000000020400000000002040000000000000000000000000000001000000000000000100000000000000020400000000000257502017112100000010000000000000BRBBASACNOR3261
012016071282BBASS15     080BBASE       ON      NM000R$  000000000000100000000000010000000000001000000000000100000000000010000000000000000000000000200002000000000000010000000000000000010000000000000150502016071800000010000000000000BRBBASACNOR3259
012016071282BBASS16     080BBASE       ON      NM000R$  000000000000100000000000030000000000001000000000000200000000000010000000000001000000000000200010000000000000109500000000000000318800000000000160502016071800000010000000000000BRBBASACNOR3259
012016071282BBASS17     080BBASE       ON      NM000R$  000000000000500000000000090000000000003000000000000600000000000070000000000005000000000000900018000000000000043400000000000000286700000000000170502016071800000010000000000000BRBBASACNOR3259
012016071282BBASS18     080BBASE       ON      NM000R$  000000000002000000000000450000000000018000000000003300000000000450000000000021000000000000000033000000000000113100000000000003805300000000000180502016071800000010000000000000BRBBASACNOR3259
012016071282BBASS19     080BBASE       ON      NM000R$  000000000008300000000000900000000000083000000000008300000000000900000000000078000000000000000003000000000000011100000000000000928000000000000190502016071800000010000000000000BRBBASACNOR3259
012016071282BBASS45     080BBASE       ON      NM000R$  000000000000100000000000020000000000001000000000000100000000000010000000000001000000000000200017000000000000174300000000000000208200000000000155502016071800000010000000000000BRBBASACNOR3259
012016071282BBASS46     080BBASE       ON      NM000R$  000000000000100000000000040000000000001000000000000200000000000040000000000002000000000015500009000000000000033200000000000000074400000000000165502016071800000010000000000000BRBBASACNOR3259
012016071282BBASS47     080BBASE       ON      NM000R$  000000000000900000000000170000000000009000000000001500000000000110000000000014000000000000000008000000000000118600000000000001815900000000000175502016071800000010000000000000BRBBASACNOR3259
012016071282BBASS48     080BBASE       ON      NM000R$  000000000005600000000000700000000000056000000000006400000000000690000000000001000000000000000007000000000000014400000000000000933600000000000185502016071800000010000000000000BRBBASACNOR3259
012016071282BBAST15     080BBASE       ON      NM000R$  000000000000900000000000140000000000008000000000001000000000000090000000000008000000000002500004000000000000002700000000000000027300000000000151302016081500000010000000000000BRBBASACNOR3259
012016071282BBAST16     080BBASE       ON      NM000R$  000000000001400000000000200000000000014000000000001700000000000200000000000019000000000003300020000000000000040200000000000000716200000000000158802016081500000010000000000000BRBBASACNOR3259
012016071282BBAST17     080BBASE FM    ON      NM000R$  000000000003500000000000400000000000033000000000003600000000000400000000000038000000000004500017000000000000024300000000000000875900000000000168802016081500000010000000000000BRBBASACNOR3259
012016071282BBAST18     080BBASE FM    ON      NM000R$  000000000005200000000000770000000000050000000000006500000000000770000000000055000000000008800018000000000000018000000000000001178000000000000178802016081500000010000000000000BRBBASACNOR3259
012016071282BBAST19     080BBASE       ON      NM000R$  000000000009700000000001350000000000097000000000011300000000001350000000000000000000000000000003000000000000001500000000000000169500000000000188802016081500000010000000000000BRBBASACNOR3259
012016071282BBAST45     080BBASE       ON      NM000R$  000000000000800000000000120000000000008000000000001100000000000120000000000010000000000005500004000000000000013100000000000000156800000000000153802016081500000010000000000000BRBBASACNOR3259
012016071282BBAST46     080BBASE       ON      NM000R$  000000000002700000000000270000000000025000000000002500000000000250000000000000000000000000000006000000000000008700000000000000221500000000000163802016081500000010000000000000BRBBASACNOR3259
012016071282BBAST47     080BBASE FM    ON      NM000R$  000000000004500000000000450000000000045000000000004500000000000450000000000000000000000000000001000000000000001000000000000000045000000000000173802016081500000010000000000000BRBBASACNOR3259
012016071282BBAST48     080BBASE FM    ON      NM000R$  000000000008800000000000880000000000087000000000008700000000000870000000000064000000000000000002000000000000007600000000000000663200000000000183802016081500000010000000000000BRBBASACNOR3259
012016071282BBAST66     080BBASE       ON      NM000R$  000000000002200000000000220000000000022000000000002200000000000220000000000000000000000000000002000000000000001300000000000000028600000000000161302016081500000010000000000000BRBBASACNOR3259
012016071282BBAST69     080BBASE       ON      NM000R$  000000000012100000000001300000000000121000000000012100000000001300000000000000000000000000000002000000000000010100000000000001223000000000000191302016081500000010000000000000BRBBASACNOR3259
012016071282BBAST79     080BBASE       ON      NM000R$  000000000008100000000001040000000000081000000000009500000000001040000000000000000000000000000002000000000000001600000000000000152600000000000186302016081500000010000000000000BRBBASACNOR3253
012016071282BBASU18     080BBASE FM    ON      NM000R$  000000000009500000000001010000000000091000000000009600000000001010000000000000000000000000000014000000000000011600000000000001114200000000000177702016091900000010000000000000BRBBASACNOR3259
012016071282BBASU45     080BBASE       ON      NM000R$  000000000002500000000000250000000000025000000000002500000000000250000000000000000000000000000001000000000000003000000000000000075000000000000152702016091900000010000000000000BRBBASACNOR3260
012016071282BBASU48     080BBASE FM    ON      NM000R$  000000000011200000000001240000000000112000000000011600000000001240000000000000000000000000000004000000000000003600000000000000420000000000000182702016091900000010000000000000BRBBASACNOR3259
012016071282BBASU77     080BBASE       ON      NM000R$  000000000006800000000000680000000000068000000000006800000000000680000000000000000000000000000001000000000000002000000000000000136000000000000170202016091900000010000000000000BRBBASACNOR3260
012016071282BBASU86     080BBASE       ON      NM000R$  000000000004600000000000490000000000046000000000004600000000000490000000000000000000000000000012000000000000009100000000000000426000000000000162702016091900000010000000000000BRBBASACNOR3260
012016071282BBASV66     080BBASE       ON      NM000R$  000000000004500000000000450000000000045000000000004500000000000450000000000000000000000000000002000000000000010100000000000000454500000000000162502016101700000010000000000000BRBBASACNOR3261
012016071282BBASV97     080BBASE       ON      NM000R$  000000000011000000000001100000000000110000000000011000000000001100000000000000000000000000000001000000000000010100000000000001111000000000000177502016101700000010000000000000BRBBASACNOR3261
012016071282BBASW13     080BBASE       ON      NM000R$  000000000010000000000001000000000000088000000000008800000000000880000000000000000000000000000002000000000000006300000000000000555600000000000130002017112100000010000000000000BRBBASACNOR3261
012016071282BBASW42     080BBASE       ON      NM000R$  000000000004900000000000490000000000047000000000004700000000000470000000000000000000000000000002000000000000015100000000000000709900000000000125002017112100000010000000000000BRBBASACNOR3261
012016071282BBASW68     080BBASE       ON      NM000R$  000000000025000000000002500000000000250000000000025000000000002500000000000000000000000000000001000000000000000100000000000000025000000000000182502017112100000010000000000000BRBBASACNOR3261
012016071282BBASW78     080BBASE       ON      NM000R$  000000000020300000000002150000000000203000000000021000000000002150000000000000000000000000000003000000000000015200000000000003206800000000000180002017112100000010000000000000BRBBASACNOR3261
012016071202BBDC3       010BRADESCO    ON  EJ  N1   R$  000000000279600000000028050000000002744000000000276900000000027640000000002749000000000276406372000000000001655000000000004583511200000000000000009999123100000010000000000000BRBBDCACNOR1651
012016071296BBDC3F      020BRADESCO    ON  EJ  N1   R$  000000000280200000000028020000000002740000000000276800000000027400000000002740000000000276200072000000000000001673000000000004631295000000000000009999123100000010000000000000BRBBDCACNOR1651
012016071202BBDC4       010BRADESCO    PN  EJ  N1   R$  000000000270000000000027150000000002648000000000267300000000026590000000002659000000000266024983000000000011862800000000031714106100000000000000009999123100000010000000000000BRBBDCACNPR8651
012016071296BBDC4F      020BRADESCO    PN  EJ  N1   R$  000000000269200000000027140000000002646000000000268400000000026670000000002662000000000266700299000000000000007879000000000021148685000000000000009999123100000010000000000000BRBBDCACNPR8651
012016071262BBDC4T      030BRADESCO    PN  EJ  N1030R$  000000000268300000000026880000000002683000000000268400000000026880000000000000000000000000000006000000000000000800000000000002147801000000000000009999123100000010000000000000BRBBDCACNPR8651
012016071278BBDCG15     070BBDCE   /EJ PN      N1000R$  000000000022000000000002200000000000219000000000021900000000002190000000000000000000000000000003000000000000065600000000000014411500000000000322602017071700000010000000000000BRBBDCACNPR8645
012016071278BBDCG17     070BBDC    /EJ PN      N1000R$  000000000024500000000002500000000000192000000000023900000000001920000000000047000000000025000006000000000000004300000000000001030300000000000246802016071800000010000000000000BRBBDCACNPR8633
012016071278BBDCG2      070BBDC    /EJ PN      N1000R$  000000000000600000000000060000000000003000000000000400000000000030000000000000000000000000400012000000000000053370000000000000237340000000000283202016071800000010000000000000BRBBDCACNPR8635
012016071278BBDCG24     070BBDCE   /EJ PN      N1000R$  000000000060900000000006090000000000609000000000060900000000006090000000000485000000000000000001000000000000004000000000000002436000000000000208202016071800000010000000000000BRBBDCACNPR8633
012016071278BBDCG30     070BBDC    /EJ PN      N1000R$  000000000035700000000003570000000000357000000000035700000000003570000000000000000000000000000002000000000000001020000000000000364140000000000279402017071700000010000000000000BRBBDCACNPR8646
012016071278BBDCG33     070BBDC    /EJ PN      N1000R$  000000000014800000000001480000000000105000000000013100000000001230000000000104000000000016000016000000000000020300000000000002659600000000000256102016071800000010000000000000BRBBDCACNPR8648
012016071278BBDCG36     070BBDC    /EJ PN      N1000R$  000000000001800000000000240000000000008000000000001300000000000100000000000008000000000001100037000000000000113300000000000001481100000000000275002016071800000010000000000000BRBBDCACNPR8648
012016071278BBDCG38     070BBDCE   /EJ PN      N1000R$  000000000044900000000004490000000000434000000000044700000000004340000000000000000000000000000002000000000000001100000000000000492400000000000226602016071800000010000000000000BRBBDCACNPR8647
012016071278BBDCG43     070BBDCE   /EJ PN      N1000R$  000000000019000000000001900000000000150000000000017200000000001500000000000050000000000000000004000000000000000500000000000000086400000000000252102016071800000010000000000000BRBBDCACNPR8646
012016071278BBDCG50     070BBDC    /EJ PN      N1000R$  000000000052000000000005200000000000505000000000050500000000005050000000000000000000000000000003000000000000002600000000000001314050000000000219502016071800000010000000000000BRBBDCACNPR8635
012016071278BBDCG55     070BBDCE   /EJ PN      N1000R$  000000000016500000000001650000000000127000000000014200000000001380000000000125000000000000000023000000000000004300000000000000611800000000000253602016071800000010000000000000BRBBDCACNPR8636
012016071278BBDCG56     070BBDCE   /EJ PN      N1000R$  000000000037200000000003790000000000350000000000037400000000003500000000000000000000000000000021000000000000043190000000000016177280000000000230902016071800000010000000000000BRBBDCACNPR8636
012016071278BBDCG64     070BBDC    /EJ PN      N1000R$  000000000028000000000002800000000000247000000000025200000000002470000000000000000000000000000009000000000000011500000000000002901900000000000242302016071800000010000000000000BRBBDCACNPR8626
012016071278BBDCG65     070BBDC    /EJ PN      N1000R$  000000000020500000000002220000000000205000000000021000000000002100000000000000000000000021000005000000000000000510000000000000107320000000000249802016071800000010000000000000BRBBDCACNPR8626
012016071278BBDCG67     070BBDC    /EJ PN      N1000R$  000000000007100000000000800000000000039000000000006000000000000440000000000041000000000004400152000000000000166200000000000010086600000000000265002016071800000010000000000000BRBBDCACNPR8626
012016071278BBDCG72     070BBDC    /EJ PN      N1000R$  000000000000200000000000030000000000002000000000000200000000000030000000000000000000000001800010000000000000054000000000000000112000000000000292302016071800000010000000000000BRBBDCACNPR8645
012016071278BBDCH10     070BBDC  FM/EJ PN      N1000R$  000000000012000000000001260000000000096000000000010900000000000960000000000012000000000015000013000000000000021000000000000002308100000000000269202016081500000010000000000000BRBBDCACNPR8631
012016071278BBDCH11     070BBDC    /EJ PN      N1000R$  000000000010000000000001000000000000074000000000008200000000000810000000000078000000000012000031000000000000035600000000000002932600000000000273702016081500000010000000000000BRBBDCACNPR8631
012016071278BBDCH16     070BBDC  FM/EJ PN      N1000R$  000000000023100000000002310000000000212000000000022500000000002120000000000000000000000000000011000000000000009700000000000002190300000000000252402016081500000010000000000000BRBBDCACNPR8620
012016071278BBDCH17     070BBDC  FM/EJ PN      N1000R$  000000000018200000000001820000000000140000000000015400000000001580000000000138000000000016000020000000000000031000000000000004783400000000000260102016081500000010000000000000BRBBDCACNPR8620
012016071278BBDCH18     070BBDC    /EJ PN      N1000R$  000000000054500000000005450000000000545000000000054500000000005450000000000000000000000000000001000000000000000100000000000000054500000000000218102016081500000010000000000000BRBBDCACNPR8649
012016071278BBDCH30     070BBDCE   /EJ PN      N1000R$  000000000011000000000001100000000000093000000000010400000000000930000000000007000000000010500105000000000000017960000000000001872780000000000271402016081500000010000000000000BRBBDCACNPR8646
012016071278BBDCH33     070BBDC  FM/EJ PN      N1000R$  000000000007000000000000750000000000059000000000006500000000000610000000000058000000000007200032000000000000082000000000000005383100000000000278702016081500000010000000000000BRBBDCACNPR8649
012016071278BBDCH53     070BBDC    /EJ PN      N1000R$  000000000057900000000005790000000000579000000000057900000000005790000000000000000000000000000003000000000000004000000000000002316000000000000213102016081500000010000000000000BRBBDCACNPR8644
012016071278BBDCH6      070BBDCE   /EJ PN      N1000R$  000000000017400000000001740000000000174000000000017400000000001740000000000120000000000000000001000000000000000100000000000000017400000000000258202016081500000010000000000000BRBBDCACNPR8620
012016071278BBDCH63     070BBDCE   /EJ PN      N1000R$  000000000070800000000007080000000000708000000000070800000000007080000000000000000000000000000001000000000000000500000000000000354000000000000201702016081500000010000000000000BRBBDCACNPR8639
012016071278BBDCH73     070BBDCE   /EJ PN      N1000R$  000000000001400000000000140000000000013000000000001300000000000130000000000000000000000000000003000000000000019900000000000000263700000000000303302016081500000010000000000000BRBBDCACNPR8646
012016071278BBDCH79     070BBDCE   /EJ PN      N1000R$  000000000013200000000001420000000000107000000000012400000000001070000000000090000000000000000006000000000000007200000000000000895700000000000266902016081500000010000000000000BRBBDCACNPR8645
012016071278BBDCH84     070BBDC    /EJ PN      N1000R$  000000000000300000000000030000000000003000000000000300000000000030000000000000000000000000000001000000000000000100000000000000000300000000000373702016081500000010000000000000BRBBDCACNPR8620
012016071278BBDCH85     070BBDCE   /EJ PN      N1000R$  000000000037200000000003810000000000372000000000037700000000003740000000000000000000000045000014000000000000042990000000000016220630000000000233502016081500000010000000000000BRBBDCACNPR8646
012016071278BBDCH88     070BBDCE   /EJ PN      N1000R$  000000000004500000000000500000000000040000000000004600000000000420000000000000000000000005000012000000000000027000000000000001248600000000000286202016081500000010000000000000BRBBDCACNPR8648
012016071278BBDCH89     070BBDC  FM/EJ PN      N1000R$  000000000003800000000000440000000000033000000000003500000000000390000000000000000000000000000015000000000000337200000000000011946700000000000288702016081500000010000000000000BRBBDCACNPR8651
012016071278BBDCI27     070BBDC  FM/EJ PN      N1000R$  000000000014000000000001400000000000140000000000014000000000001400000000000024000000000000000001000000000000003000000000000000420000000000000274502016091900000010000000000000BRBBDCACNPR8649
012016071278BBDCI36     070BBDC    /EJ PN      N1000R$  000000000011100000000001130000000000102000000000010400000000001020000000000000000000000000000004000000000000005800000000000000607400000000000282002016091900000010000000000000BRBBDCACNPR8637
012016071278BBDCI45     070BBDC  FM/EJ PN      N1000R$  000000000021900000000002190000000000219000000000021900000000002190000000000000000000000000000001000000000000000600000000000000131400000000000259502016091900000010000000000000BRBBDCACNPR8651
012016071278BBDCJ1      070BBDC    /EJ PN      N1000R$  000000000013000000000001300000000000130000000000013000000000001300000000000000000000000000000002000000000008750090000000001137511700000000000284402016101700000010000000000000BRBBDCACNPR8646
012016071278BBDCJ28     070BBDC    /EJ PN      N1000R$  000000000029000000000002910000000000290000000000029000000000002910000000000000000000000000000004000000000005800000000000001684781400000000000252602016101700000010000000000000BRBBDCACNPR8645
012016071278BBDCJ29     070BBDCE       PN      N1000R$  000000000020000000000002000000000000196000000000019600000000001960000000000000000000000000000008000000000000590100000000000115948600000000000352902017101600000010000000000000BRBBDCACNPR8651
012016071278BBDCJ74     070BBDCE   /EJ PN      N1000R$  000000000019400000000001940000000000192000000000019300000000001930000000000000000000000000000009000000000000301500000000000058269300000000000347902017101600000010000000000000BRBBDCACNPR8651
012016071278BBDCJ85     070BBDCE   /EJ ON      N1000R$  000000000019000000000001900000000000153000000000015300000000001530000000000000000000000000000003000000000000200100000000000030671000000000000357502017101600000010000000000000BRBBDCACNOR1651
012016071278BBDCJ86     070BBDCE   /EJ ON      N1000R$  000000000019700000000001970000000000197000000000019700000000001970000000000000000000000000000001000000000000069900000000000013770300000000000362502017101600000010000000000000BRBBDCACNOR1651
012016071278BBDCL27     070BBDCE   /EJ PN      N1000R$  000000000022900000000002290000000000229000000000022900000000002290000000000000000000000000000002000000000005800000000000001328200000000000000276302016121900000010000000000000BRBBDCACNPR8649
012016071278BBDCL60     070BBDCE   /EJ PN      N1000R$  000000000012500000000001250000000000125000000000012500000000001250000000000000000000000000000002000000000008750000000000001093750000000000000302802016121900000010000000000000BRBBDCACNPR8648
012016071282BBDCS33     080BBDCE   /EJ PN      N1000R$  000000000001100000000000110000000000011000000000001100000000000110000000000007000000000000000001000000000000010000000000000000110000000000000256102016071800000010000000000000BRBBDCACNPR8648
012016071282BBDCS55     080BBDCE   /EJ PN      N1000R$  000000000000600000000000080000000000006000000000000600000000000060000000000000000000000000000023000000000000025500000000000000157000000000000253602016071800000010000000000000BRBBDCACNPR8626
012016071282BBDCS67     080BBDCE   /EJ PN      N1000R$  000000000002700000000000310000000000021000000000002600000000000310000000000000000000000000000017000000000000127500000000000003426400000000000265002016071800000010000000000000BRBBDCACNPR8626
012016071282BBDCS9      080BBDCE   /EJ PN      N1000R$  000000000020000000000002100000000000200000000000020600000000002100000000000000000000000000000004000000000000065600000000000013525000000000000263502017071700000010000000000000BRBBDCACNPR8646
012016071282BBDCT1      080BBDCE FM/EJ PN      N1000R$  000000000002300000000000240000000000023000000000002300000000000240000000000020000000000000000003000000000000002000000000000000047000000000000246802016081500000010000000000000BRBBDCACNPR8620
012016071282BBDCT15     080BBDCE   /EJ PN      N1000R$  000000000002000000000000200000000000020000000000002000000000000200000000000000000000000000000001000000000000002000000000000000040000000000000244902016081500000010000000000000BRBBDCACNPR8620
012016071282BBDCT16     080BBDCE   /EJ PN      N1000R$  000000000003700000000000400000000000037000000000003900000000000400000000000000000000000000000002000000000000001000000000000000039100000000000252402016081500000010000000000000BRBBDCACNPR8620
012016071282BBDCT17     080BBDCE   /EJ PN      N1000R$  000000000005700000000000650000000000057000000000006100000000000640000000000000000000000007000005000000000000004900000000000000299000000000000260102016081500000010000000000000BRBBDCACNPR8620
012016071282BBDCT33     080BBDCE   /EJ PN      N1000R$  000000000013000000000001300000000000130000000000013000000000001300000000000000000000000000000001000000000000006900000000000000897000000000000278702016081500000010000000000000BRBBDCACNPR8649
012016071282BBDCT4      080BBDCE   /EJ PN      N1000R$  000000000003900000000000410000000000038000000000003900000000000410000000000000000000000000000003000000000000003000000000000000118000000000000254302016081500000010000000000000BRBBDCACNPR8620
012016071282BBDCT59     080BBDCE FM/EJ PN      N1000R$  000000000001800000000000180000000000016000000000001600000000000160000000000000000000000000000006000000000000025500000000000000428000000000000236002016081500000010000000000000BRBBDCACNPR8649
012016071282BBDCT6      080BBDCE FM/EJ PN      N1000R$  000000000005200000000000520000000000050000000000005000000000000500000000000000000000000000000012000000000000040000000000000002028300000000000258202016081500000010000000000000BRBBDCACNPR8620
012016071282BBDCT85     080BBDCE   /EJ PN      N1000R$  000000000001200000000000120000000000011000000000001100000000000110000000000000000000000000000006000000000000001000000000000000011500000000000233502016081500000010000000000000BRBBDCACNPR8646
012016071282BBDCU70     080BBDCE   /EJ PN      N1000R$  000000000004100000000000410000000000041000000000004100000000000410000000000000000000000000000001000000000000001000000000000000041000000000000243302016091900000010000000000000BRBBDCACNPR8632
012016071282BBDCV15     080BBDCE   /EJ ON      N1000R$  000000000018300000000002070000000000183000000000020600000000002070000000000000000000000000000003000000000000070000000000000014440800000000000277502017101600000010000000000000BRBBDCACNOR1651
012016071282BBDCV25     080BBDCE       PN      N1000R$  000000000009500000000000950000000000087000000000008700000000000870000000000000000000000000000007000000000000590200000000000051408200000000000215402017101600000010000000000000BRBBDCACNPR8651
012016071282BBDCV31     080BBDCE   /EJ PN      N1000R$  000000000009000000000000910000000000090000000000009000000000000910000000000000000000000000000005000000000000301500000000000027241000000000000212902017101600000010000000000000BRBBDCACNPR8651
012016071282BBDCV37     080BBDCE       PN      N1000R$  000000000025000000000002800000000000250000000000027900000000002800000000000000000000000000000005000000000000590100000000000165225000000000000270402017101600000010000000000000BRBBDCACNPR8651
012016071282BBDCV40     080BBDCE   /EJ PN      N1000R$  000000000012500000000001250000000000124000000000012400000000001240000000000000000000000000000002000000000000300000000000000037263000000000000264002016101700000010000000000000BRBBDCACNPR8637
012016071282BBDCV46     080BBDCE   /EJ PN      N1000R$  000000000028000000000002800000000000280000000000028000000000002800000000000000000000000000000005000000000000301500000000000084420000000000000267902017101600000010000000000000BRBBDCACNPR8651
012016071282BBDCV82     080BBDCE       ON      N1000R$  000000000002100000000000210000000000012000000000001200000000000200000000000000000000000000000003000000000000070100000000000000842900000000000220002017101600000010000000000000BRBBDCACNOR1651
012016071282BBDCV91     080BBDCE   /EJ ON      N1000R$  000000000002500000000000250000000000025000000000002500000000000250000000000000000000000000000001000000000000200000000000000005000000000000000217502017101600000010000000000000BRBBDCACNOR1651
012016071282BBDCV97     080BBDCE   /EJ ON      N1000R$  000000000017600000000001760000000000176000000000017600000000001760000000000000000000000000000001000000000000200000000000000035200000000000000275002017101600000010000000000000BRBBDCACNOR1651
012016071212BBFI11B     010FII BB PROGRCI  ER  MB   R$  000000024010000000002401000000000240000000000024002000000002400000000000240103000000024399900002000000000000000010000000000002400200000000000000009999123100000010000000000000BRBBFICTF006232
012016071212BBPO11      010FII BB PRGIICI  ER       R$  000000001127200000000113270000000011210000000001125100000000112500000000011250000000001131000170000000000000018119000000000203862111000000000000009999123100000010000000000000BRBBPOCTF003144
012016071212BBRC11      010FII BB CORP CI  ER       R$  000000000970000000000099790000000009700000000000986500000000098900000000009762000000000988000024000000000000001963000000000019365967000000000000009999123100000010000000000000BRBBRCCTF004158
012016071202BBRK3       010BR BROKERS  ON      NM   R$  000000000016100000000001620000000000155000000000015600000000001560000000000156000000000015900247000000000000411100000000000064187300000000000000009999123100000010000000000000BRBBRKACNOR4110
012016071296BBRK3F      020BR BROKERS  ON      NM   R$  000000000015700000000001570000000000157000000000015700000000001570000000000142000000000015800001000000000000000099000000000000015543000000000000009999123100000010000000000000BRBBRKACNOR4110
012016071214BBSD11      010BB ETF SP DVCI           R$  000000000385200000000038520000000003841000000000384100000000038420000000000000000000000000000003000000000000000330000000000001267660000000000000009999123100000010000000000000BRBBSDCTF000100
012016071202BBSE3       010BBSEGURIDADEON      NM   R$  000000000278900000000028280000000002765000000000280000000000028100000000002809000000000281016291000000000005529900000000015484378800000000000000009999123100000010000000000000BRBBSEACNOR5106
012016071296BBSE3F      020BBSEGURIDADEON      NM   R$  000000000277700000000028250000000002769000000000279800000000028160000000002811000000000281600196000000000000005170000000000014470112000000000000009999123100000010000000000000BRBBSEACNOR5106
012016071262BBSE3T      030BBSEGURIDADEON      NM030R$  000000000283800000000028520000000002815000000000283600000000028520000000000000000000000000000006000000000000001100000000000003120316000000000000009999123100000010000000000000BRBBSEACNOR5106
012016071278BBSEG28     070BBSE        ON      NM000R$  000000000003500000000000400000000000030000000000003600000000000360000000000003000000000004500006000000000000002500000000000000092000000000000281702016071800000010000000000000BRBBSEACNOR5106
012016071278BBSEG29     070BBSEE       ON      NM000R$  000000000001400000000000140000000000010000000000001200000000000120000000000000000000000001400008000000000000015000000000000000190800000000000289202016071800000010000000000000BRBBSEACNOR5106
012016071278BBSEG57     070BBSE        ON      NM000R$  000000000009000000000000900000000000090000000000009000000000000900000000000000000000000000000001000000000000000100000000000000009000000000000271702016071800000010000000000000BRBBSEACNOR5106
012016071278BBSEG87     070BBSE        ON      NM000R$  000000000006600000000000660000000000066000000000006600000000000660000000000000000000000007000001000000000000001000000000000000066000000000000276702016071800000010000000000000BRBBSEACNOR5106
012016071278BBSEH27     070BBSE        ON      NM000R$  000000000015200000000001520000000000147000000000015000000000001520000000000000000000000017500005000000000000002800000000000000420400000000000272902016081500000010000000000000BRBBSEACNOR5106
012016071278BBSEH28     070BBSE        ON      NM000R$  000000000010000000000001000000000000100000000000010000000000001000000000000000000000000000000001000000000000001000000000000000100000000000000282902016081500000010000000000000BRBBSEACNOR5106
012016071278BBSEH29     070BBSE        ON      NM000R$  000000000006400000000000690000000000064000000000006700000000000690000000000000000000000008000009000000000000029200000000000001963800000000000292902016081500000010000000000000BRBBSEACNOR5106
012016071278BBSEH30     070BBSE        ON      NM000R$  000000000003900000000000420000000000039000000000003900000000000420000000000000000000000000000009000000000000035100000000000001392100000000000302902016081500000010000000000000BRBBSEACNOR5106
012016071278BBSEH31     070BBSE        ON      NM000R$  000000000002600000000000260000000000026000000000002600000000000260000000000000000000000000000002000000000000005000000000000000130000000000000312902016081500000010000000000000BRBBSEACNOR5106
012016071278BBSEH59     070BBSE  FM    ON      NM000R$  000000000004700000000000470000000000047000000000004700000000000470000000000000000000000000000001000000000000002000000000000000094000000000000297902016081500000010000000000000BRBBSEACNOR5106
012016071278BBSEH79     070BBSEE       ON      NM000R$  000000000005400000000000540000000000054000000000005400000000000540000000000000000000000000000001000000000000003600000000000000194400000000000295402016081500000010000000000000BRBBSEACNOR5106
012016071278BBSEH89     070BBSEE       ON      NM000R$  000000000006500000000000650000000000065000000000006500000000000650000000000005000000000000000001000000000000001900000000000000123500000000000290402016081500000010000000000000BRBBSEACNOR5106
012016071278BBSEI57     070BBSE  FM    ON      NM000R$  000000000018400000000001840000000000184000000000018400000000001840000000000000000000000000000018000000000000001800000000000000331200000000000277902016091900000010000000000000BRBBSEACNOR5106
012016071278BBSEI59     070BBSE  FM    ON      NM000R$  000000000009700000000000980000000000097000000000009700000000000980000000000000000000000000000019000000000000003000000000000000292200000000000297902016091900000010000000000000BRBBSEACNOR5106
012016071278BBSEJ28     070BBSE        ON      NM000R$  000000000025500000000002550000000000255000000000025500000000002550000000000000000000000000000001000000000000001800000000000000459000000000000280002016101700000010000000000000BRBBSEACNOR5106
012016071278BBSEJ89     070BBSEE       ON      NM000R$  000000000012900000000001290000000000129000000000012900000000001290000000000000000000000000000001000000000000003600000000000000464400000000000292502016101700000010000000000000BRBBSEACNOR5106
012016071282BBSES57     080BBSEE       ON      NM000R$  000000000001500000000000150000000000012000000000001300000000000120000000000000000000000000000002000000000000000400000000000000005400000000000271702016071800000010000000000000BRBBSEACNOR5106
012016071282BBSET26     080BBSEE       ON      NM000R$  000000000003800000000000380000000000038000000000003800000000000380000000000000000000000000000001000000000000002000000000000000076000000000000262902016081500000010000000000000BRBBSEACNOR5106
012016071282BBSET57     080BBSEE FM    ON      NM000R$  000000000007700000000000770000000000077000000000007700000000000770000000000000000000000000000001000000000000002000000000000000154000000000000277902016081500000010000000000000BRBBSEACNOR5106
012016071282BBSEU28     080BBSEE       ON      NM000R$  000000000012600000000001260000000000126000000000012600000000001260000000000000000000000000000001000000000000000400000000000000050400000000000282902016091900000010000000000000BRBBSEACNOR5106
012016071282BBSEU65     080BBSEE FM    ON      NM000R$  000000000004600000000000460000000000046000000000004600000000000460000000000000000000000060000001000000000000003000000000000000138000000000000257902016091900000010000000000000BRBBSEACNOR5106
012016071282BBSEU78     080BBSEE FM    ON      NM000R$  000000000007100000000000800000000000071000000000007400000000000800000000000000000000000000000019000000000000004800000000000000357000000000000267902016091900000010000000000000BRBBSEACNOR5104
012016071202BBTG11      010BTG PACTUAL UNT EJ       R$  000000000173300000000017330000000001710000000000171700000000017110000000001711000000000171900929000000000000286000000000000491193300000000000000009999123100000010000000000000BRBBTGUNT007114
012016071296BBTG11F     020BTG PACTUAL UNT EJ       R$  000000000172600000000017260000000001717000000000172200000000017170000000001715000000000172500003000000000000000071000000000000122273000000000000009999123100000010000000000000BRBBTGUNT007114
012016071212BBVJ11      010FII C JARDIMCI  ER       R$  000000000530000000000054000000000005300000000000533500000000053990000000005300000000000539900034000000000000002244000000000011973537000000000000009999123100000010000000000000BRBBVJCTF001167
012016071212BCFF11B     010FII BC FFII CI  ER  MB   R$  000000000698100000000069990000000006960000000000697800000000069600000000006960000000000697700032000000000000002481000000000017313145000000000000009999123100000010000000000000BRBCFFCTF000176
012016071212BCIA11      010FII BCIA    CI  ER       R$  000000001000000000000100000000000009850000000000994000000000098500000000010000000000001100000005000000000000000021000000000000208750000000000000009999123100000010000000000000BRBCIACTF005113
012016071212BCRI11      010FII BEES CRICI  ER       R$  000000001028200000000102890000000010200000000001021300000000102000000000010150000000001027900013000000000000000234000000000002389857000000000000009999123100000010000000000000BRBCRICTF009112
012016071202BDLL4       010BARDELLA    PN           R$  000000000317500000000031750000000003175000000000317500000000031750000000003108000000000317500001000000000000000100000000000000317500000000000000009999123100000010000000000000BRBDLLACNPR8151
012016071202BEEF3       010MINERVA     ON      NM   R$  000000000090000000000009150000000000873000000000089300000000009150000000000891000000000091504788000000000001912000000000001708693200000000000000009999123100000010000000000000BRBEEFACNOR6106
012016071296BEEF3F      020MINERVA     ON      NM   R$  000000000089200000000008940000000000875000000000088700000000008810000000000881000000000091700038000000000000001188000000000001053894000000000000009999123100000010000000000000BRBEEFACNOR6106
012016071262BEEF3T      030MINERVA     ON      NM060R$  000000000089500000000008960000000000895000000000089500000000008960000000000000000000000000000002000000000000003000000000000002685553000000000000009999123100000010000000000000BRBEEFACNOR6106
012016071262BEEF3T      030MINERVA     ON      NM062R$  000000000089500000000008960000000000895000000000089500000000008960000000000000000000000000000002000000000000002000000000000001791011000000000000009999123100000010000000000000BRBEEFACNOR6106
012016071262BEEF3T      030MINERVA     ON      NM090R$  000000000090400000000009050000000000904000000000090400000000009050000000000000000000000000000002000000000000002000000000000001808940000000000000009999123100000010000000000000BRBEEFACNOR6106
012016071202BEES3       010BANESTES    ON  EJ       R$  000000000022700000000002390000000000227000000000023400000000002370000000000227000000000023400013000000000000017900000000000004194100000000000000009999123100000010000000000000BRBEESACNOR9283
012016071296BEES3F      020BANESTES    ON  EJ       R$  000000000025500000000002550000000000237000000000023700000000002370000000000230000000000023700002000000000000000063000000000000014985000000000000009999123100000010000000000000BRBEESACNOR9283
012016071202BEES4       010BANESTES    PN  EJ       R$  000000000024500000000002490000000000245000000000024700000000002490000000000230000000000024900002000000000000000400000000000000098800000000000000009999123100000010000000000000BRBEESACNPR6208
012016071202BGIP3       010BANESE      ON           R$  000000000193600000000019360000000001936000000000193600000000019360000000001880000000000199400001000000000000000100000000000000193600000000000000009999123100000010000000000000BRBGIPACNOR1186
012016071202BGIP4       010BANESE      PN           R$  000000000110500000000011400000000001105000000000112600000000011350000000001111000000000115000003000000000000000300000000000000338000000000000000009999123100000010000000000000BRBGIPACNPR8186
012016071202BMEB3       010MERC BRASIL ON           R$  000000000061300000000006130000000000602000000000060700000000006020000000000610000000000082000003000000000000001200000000000000729000000000000000009999123100000010000000000000BRBMEBACNOR8192
012016071202BMEB4       010MERC BRASIL PN           R$  000000000055000000000005500000000000530000000000054000000000005300000000000500000000000053000003000000000000000400000000000000216000000000000000009999123100000010000000000000BRBMEBACNPR5195
012016071296BMEB4F      020MERC BRASIL PN           R$  000000000053000000000005300000000000530000000000053000000000005300000000000530000000000054500001000000000000000021000000000000011130000000000000009999123100000010000000000000BRBMEBACNPR5195
012016071202BMIN4       010MERC INVEST PN           R$  000000000002900000000000300000000000028000000000002900000000000300000000000028000000000003000011000000000000038000000000000001114000000000000000009999123100000010000000000000BRBMINACNPR1165
012016071296BMIN4F      020MERC INVEST PN           R$  000000000002900000000000330000000000029000000000003000000000000300000000000024000000000003100004000000000000000181000000000000005497000000000000009999123100000010000000000000BRBMINACNPR1165
012016071202BMKS3       010BIC MONARK  ON           R$  000000002660100000000284000000000026600000000002678000000000284000000000026651000000002840000003000000000000000010000000000000267805000000000000009999123100000010000000000000BRBMKSACNOR9158
012016071212BMLC11B     010FII BMBRC LCCI  ER  MB   R$  000000000861100000000087000000000008610000000000862100000000087000000000008640000000000870000010000000000000000454000000000003914110000000000000009999123100000010000000000000BRBMLCCTF004153
012016071202BMTO3       010BRASMOTOR   ON           R$  000000000072300000000007230000000000695000000000072000000000006950000000000695000000000074900009000000000000002300000000000001657400000000000000009999123100000010000000000000BRBMTOACNOR9186
012016071296BMTO3F      020BRASMOTOR   ON           R$  000000000046000000000004600000000000460000000000046000000000004600000000000460000000000000000001000000000000000009000000000000004140000000000000009999123100000010000000000000BRBMTOACNOR9186
012016071202BMTO4       010BRASMOTOR   PN           R$  000000000073500000000007510000000000701000000000072300000000007010000000000701000000000072400053000000000000035100000000000025391900000000000000009999123100000010000000000000BRBMTOACNPR6071
012016071202BMYB34      010BRISTOLMYERSDRN          R$  000000002523000000000252300000000025230000000002523000000000252300000000000000000000000000000001000000000000000600000000000015138000000000000000009999123100000010000000000000BRBMYBBDR000111
012016071296BMYB34F     020BRISTOLMYERSDRN          R$  000000002523000000000252300000000025230000000002523000000000252300000000000000000000000000000001000000000000000090000000000002270700000000000000009999123100000010000000000000BRBMYBBDR000111
012016071212BNFS11      010FII BANRISULCI  ER       R$  000000001040000000000106940000000010400000000001040200000000106940000000010380000000001069400002000000000000000101000000000001050694000000000000009999123100000010000000000000BRBNFSCTF000146
012016071214BOVA11      010ISHARES BOVACI           R$  000000000525600000000053100000000005245000000000527900000000052560000000005250000000000525608825000000000002561940000000013526270040000000000000009999123100000010000000000000BRBOVACTF003102
012016071296BOVA11F     020ISHARES BOVACI           R$  000000000529300000000053000000000004811000000000525600000000048110000000004811000000000526200019000000000000000088000000000000462610000000000000009999123100000010000000000000BRBOVACTF003102
012016071278BOVAG49     070BOVA        CI        000R$  000000000040500000000004050000000000375000000000039900000000003750000000000000000000000000000002000000000000001000000000000000399000000000000490002016071800000010000000000000BRBOVACTF003102
012016071278BOVAG50     070BOVA        CI        000R$  000000000030400000000003040000000000260000000000029200000000002600000000000260000000000000000004000000000000000700000000000000205000000000000500002016071800000010000000000000BRBOVACTF003102
012016071278BOVAG51     070BOVA        CI        000R$  000000000022000000000002200000000000167000000000020400000000001690000000000010000000000000000063000000000000006010000000000001227200000000000510002016071800000010000000000000BRBOVACTF003102
012016071278BOVAG52     070BOVA        CI        000R$  000000000013400000000001390000000000091000000000011100000000000910000000000000000000000000000004000000000000001500000000000000167600000000000520002016071800000010000000000000BRBOVACTF003102
012016071278BOVAG53     070BOVA        CI        000R$  000000000006300000000000630000000000054000000000005700000000000600000000000000000000000006300005000000000000003300000000000000188500000000000530002016071800000010000000000000BRBOVACTF003102
012016071278BOVAH49     070BOVA        CI        000R$  000000000048600000000004860000000000486000000000048600000000004860000000000000000000000000000001000000000000000500000000000000243000000000000490002016081500000010000000000000BRBOVACTF003102
012016071278BOVAH51     070BOVA  FM    CI        000R$  000000000030500000000003140000000000281000000000030200000000002810000000000000000000000000000007000000000000019100000000000005784200000000000510002016081500000010000000000000BRBOVACTF003102
012016071278BOVAH52     070BOVA  FM    CI        000R$  000000000023500000000002450000000000203000000000023800000000002070000000000050000000000029000014000000000000018150000000000004332800000000000520002016081500000010000000000000BRBOVACTF003102
012016071278BOVAH53     070BOVA  FM    CI        000R$  000000000016800000000001810000000000152000000000017000000000001570000000000000000000000016000217000000000000036160000000000006182070000000000530002016081500000010000000000000BRBOVACTF003102
012016071278BOVAH54     070BOVA  FM    CI        000R$  000000000012200000000001300000000000104000000000012400000000001100000000000000000000000011500031000000000000050500000000000006264300000000000540002016081500000010000000000000BRBOVACTF003102
012016071278BOVAH55     070BOVA  FM    CI        000R$  000000000008200000000000870000000000068000000000008200000000000730000000000000000000000000000013000000000000029250000000000002398900000000000550002016081500000010000000000000BRBOVACTF003102
012016071278BOVAI51     070BOVA  FM    CI        000R$  000000000039800000000004090000000000398000000000040500000000004090000000000000000000000000000006000000000000015000000000000006077500000000000510002016091900000010000000000000BRBOVACTF003102
012016071278BOVAI52     070BOVA  FM    CI        000R$  000000000033000000000003390000000000330000000000033400000000003390000000000000000000000000000006000000000000012800000000000004280500000000000520002016091900000010000000000000BRBOVACTF003102
012016071278BOVAI53     070BOVA  FM    CI        000R$  000000000026800000000002750000000000254000000000026800000000002540000000000000000000000000000007000000000000015700000000000004219300000000000530002016091900000010000000000000BRBOVACTF003102
012016071278BOVAI54     070BOVA  FM    CI        000R$  000000000021300000000002180000000000213000000000021500000000002170000000000000000000000000000007000000000000016800000000000003625600000000000540002016091900000010000000000000BRBOVACTF003102
012016071278BOVAI55     070BOVA  FM    CI        000R$  000000000016600000000001690000000000166000000000016700000000001690000000000000000000000000000005000000000000012400000000000002080600000000000550002016091900000010000000000000BRBOVACTF003102
012016071278BOVAL58     070BOVA        CI        000R$  000000000015900000000001590000000000159000000000015900000000001590000000000000000000000000000002000000000000008000000000000001272000000000000580002016121900000010000000000000BRBOVACTF003102
012016071282BOVAS48     080BOVAE       CI        000R$  000000000000200000000000020000000000002000000000000200000000000020000000000000000000000002000001000000000000001500000000000000003000000000000480002016071800000010000000000000BRBOVACTF003102
012016071282BOVAS51     080BOVAE       CI        000R$  000000000000700000000000150000000000007000000000000900000000000130000000000012000000000000000005000000000000005040000000000000047880000000000510002016071800000010000000000000BRBOVACTF003102
012016071282BOVAT51     080BOVAE FM    CI        000R$  000000000005400000000000610000000000054000000000005700000000000610000000000000000000000006900003000000000000005100000000000000293600000000000510002016081500000010000000000000BRBOVACTF003102
012016071282BOVAT52     080BOVAE FM    CI        000R$  000000000008100000000000960000000000081000000000008100000000000960000000000000000000000000000005000000000000007700000000000000631000000000000520002016081500000010000000000000BRBOVACTF003102
012016071282BOVAT53     080BOVAE FM    CI        000R$  000000000012600000000001260000000000117000000000012200000000001210000000000000000000000000000005000000000000012100000000000001477900000000000530002016081500000010000000000000BRBOVACTF003102
012016071282BOVAU50     080BOVAE FM    CI        000R$  000000000006900000000000690000000000069000000000006900000000000690000000000000000000000000000001000000000000002500000000000000172500000000000500002016091900000010000000000000BRBOVACTF003102
012016071282BOVAU51     080BOVAE FM    CI        000R$  000000000009200000000000920000000000092000000000009200000000000920000000000000000000000000000001000000000000002500000000000000230000000000000510002016091900000010000000000000BRBOVACTF003102
012016071282BOVAU52     080BOVAE FM    CI        000R$  000000000012100000000001210000000000121000000000012100000000001210000000000000000000000000000001000000000000002500000000000000302500000000000520002016091900000010000000000000BRBOVACTF003102
012016071282BOVAU53     080BOVAE FM    CI        000R$  000000000015900000000001750000000000155000000000016900000000001710000000000000000000000000000016000000000000039700000000000006747900000000000530002016091900000010000000000000BRBOVACTF003102
012016071282BOVAX48     080BOVAE       CI        000R$  000000000005500000000000550000000000055000000000005500000000000550000000000000000000000000000002000000000000008000000000000000440000000000000480002016121900000010000000000000BRBOVACTF003102
012016071282BOVAX52     080BOVAE       CI        000R$  000000000018500000000001850000000000185000000000018500000000001850000000000000000000000000000002000000000000008000000000000001480000000000000520002016121900000010000000000000BRBOVACTF003102
012016071202BPAN4       010BANCO PAN   PN      N1   R$  000000000015200000000001520000000000145000000000014800000000001450000000000145000000000014900045000000000000129900000000000019227500000000000000009999123100000010000000000000BRBPANACNPR1104
012016071212BPFF11      010FII ABSOLUTOCI  ER       R$  000000000792000000000079490000000007892000000000793600000000079490000000007900000000000794900018000000000000001613000000000012801734000000000000009999123100000010000000000000BRBPFFCTF002139
012016071202BPHA3       010BR PHARMA   ON      NM   R$  000000000049600000000005010000000000486000000000049200000000004870000000000487000000000049000041000000000000017200000000000008472500000000000000009999123100000010000000000000BRBPHAACNOR6104
012016071296BPHA3F      020BR PHARMA   ON      NM   R$  000000000049000000000004900000000000490000000000049000000000004900000000000450000000000049000001000000000000000072000000000000035280000000000000009999123100000010000000000000BRBPHAACNOR6104
012016071262BPHA3T      030BR PHARMA   ON      NM030R$  000000000050100000000005020000000000501000000000050100000000005020000000000000000000000000000002000000000000001000000000000000501456000000000000009999123100000010000000000000BRBPHAACNOR6104
012016071202BRAP3       010BRADESPAR   ON      N1   R$  000000000085400000000008680000000000848000000000085300000000008520000000000848000000000085200038000000000000026700000000000022790100000000000000009999123100000010000000000000BRBRAPACNOR5129
012016071296BRAP3F      020BRADESPAR   ON      N1   R$  000000000083000000000008590000000000830000000000084000000000008590000000000834000000000085200012000000000000000186000000000000156392000000000000009999123100000010000000000000BRBRAPACNOR5129
012016071202BRAP4       010BRADESPAR   PN      N1   R$  000000000099500000000010230000000000995000000000101100000000010070000000001007000000000100906733000000000002667100000000002698008700000000000000009999123100000010000000000000BRBRAPACNPR2129
012016071296BRAP4F      020BRADESPAR   PN      N1   R$  000000000096700000000010210000000000967000000000100700000000010030000000000970000000000100300076000000000000001699000000000001711680000000000000009999123100000010000000000000BRBRAPACNPR2129
012016071214BRAX11      010ISHARES BRAXCI           R$  000000000447300000000044730000000004470000000000447100000000044700000000004415000000000000000002000000000000000070000000000000313020000000000000009999123100000010000000000000BRBRAXCTF002100
012016071296BRAX11F     020ISHARES BRAXCI           R$  000000000441500000000044150000000004415000000000441500000000044150000000004415000000000000000001000000000000000002000000000000008830000000000000009999123100000010000000000000BRBRAXCTF002100
012016071212BRCR11      010FII BC FUND CI  ER       R$  000000000878800000000088370000000008788000000000881000000000087980000000008798000000000882300375000000000000018252000000000160808494000000000000009999123100000010000000000000BRBRCRCTF000167
012016071202BRFS3       010BRF SA      ON      NM   R$  000000000513000000000051500000000005069000000000511700000000051200000000005120000000000512511850000000000002461700000000012597710200000000000000009999123100000010000000000000BRBRFSACNOR8116
012016071296BRFS3F      020BRF SA      ON      NM   R$  000000000506800000000051530000000005068000000000511600000000051530000000005103000000000515300118000000000000002793000000000014290968000000000000009999123100000010000000000000BRBRFSACNOR8116
012016071262BRFS3T      030BRF SA      ON      NM030R$  000000000518500000000051860000000005167000000000517600000000051680000000000000000000000000000004000000000000002000000000000010353138000000000000009999123100000010000000000000BRBRFSACNOR8116
012016071262BRFS3T      030BRF SA      ON      NM062R$  000000000525200000000052530000000005252000000000525200000000052530000000000000000000000000000002000000000000000400000000000002100821000000000000009999123100000010000000000000BRBRFSACNOR8116
012016071278BRFSG17     070BRFS        ON      NM000R$  000000000034900000000003490000000000347000000000034800000000003480000000000000000000000000000003000000000000001200000000000000417600000000000478402016071800000010000000000000BRBRFSACNOR8116
012016071278BRFSG30     070BRFSE       ON      NM000R$  000000000038300000000003870000000000380000000000038100000000003800000000000000000000000000000003000000000000118300000000000045159200000000000605002017071700000010000000000000BRBRFSACNOR8116
012016071278BRFSG44     070BRFS        ON      NM000R$  000000000069700000000006970000000000697000000000069700000000006970000000000000000000000069800001000000000000132100000000000092073700000000000443402016071800000010000000000000BRBRFSACNOR8116
012016071278BRFSG48     070BRFS        ON      NM000R$  000000000029500000000003010000000000295000000000029800000000003010000000000250000000000000000006000000000000001900000000000000567600000000000483402016071800000010000000000000BRBRFSACNOR8116
012016071278BRFSG49     070BRFS        ON      NM000R$  000000000015600000000001750000000000145000000000016100000000001630000000000000000000000000000007000000000000001600000000000000258400000000000498402016071800000010000000000000BRBRFSACNOR8116
012016071278BRFSG50     070BRFS        ON      NM000R$  000000000009300000000000930000000000093000000000009300000000000930000000000006000000000010000001000000000000000700000000000000065100000000000508402016071800000010000000000000BRBRFSACNOR8116
012016071278BRFSG52     070BRFS        ON      NM000R$  000000000003600000000000500000000000036000000000004200000000000390000000000000000000000000000005000000000000004500000000000000193000000000000518402016071800000010000000000000BRBRFSACNOR8115
012016071278BRFSG72     070BRFSE       ON      NM000R$  000000000035000000000003500000000000286000000000028700000000002860000000000000000000000000000002000000000000004400000000000001264800000000000625002017071700000010000000000000BRBRFSACNOR8116
012016071278BRFSG81     070BRFSE       ON      NM000R$  000000000054000000000005400000000000433000000000043800000000004330000000000000000000000000000002000000000000002100000000000000920000000000000615002017071700000010000000000000BRBRFSACNOR8116
012016071278BRFSH18     070BRFS  FM    ON      NM000R$  000000000035000000000003960000000000350000000000038200000000003610000000000360000000000000000012000000000000007900000000000003020800000000000485202016081500000010000000000000BRBRFSACNOR8116
012016071278BRFSH19     070BRFS  FM    ON      NM000R$  000000000029000000000002900000000000290000000000029000000000002900000000000000000000000000000002000000000000000600000000000000174000000000000495202016081500000010000000000000BRBRFSACNOR8116
012016071278BRFSH22     070BRFSE       ON      NM000R$  000000000012100000000001280000000000119000000000012100000000001280000000000000000000000000000010000000000000014600000000000001780800000000000527702016081500000010000000000000BRBRFSACNOR8116
012016071278BRFSH50     070BRFS        ON      NM000R$  000000000026200000000002620000000000262000000000026200000000002620000000000031000000000000000001000000000000000300000000000000078600000000000502702016081500000010000000000000BRBRFSACNOR8116
012016071278BRFSH51     070BRFS  FM    ON      NM000R$  000000000018900000000002020000000000184000000000018800000000001840000000000000000000000000000006000000000000002800000000000000528100000000000512702016081500000010000000000000BRBRFSACNOR8116
012016071278BRFSH52     070BRFS  FM    ON      NM000R$  000000000013400000000001340000000000134000000000013400000000001340000000000000000000000000000001000000000000000500000000000000067000000000000522702016081500000010000000000000BRBRFSACNOR8115
012016071278BRFSH53     070BRFS  FM    ON      NM000R$  000000000010800000000001100000000000100000000000010200000000001000000000000000000000000010500035000000000000040800000000000004170600000000000532702016081500000010000000000000BRBRFSACNOR8116
012016071278BRFSH55     070BRFS        ON      NM000R$  000000000005500000000000600000000000055000000000005600000000000600000000000000000000000005500002000000000000000900000000000000050500000000000552702016081500000010000000000000BRBRFSACNOR8116
012016071278BRFSH56     070BRFS        ON      NM000R$  000000000003800000000000380000000000038000000000003800000000000380000000000000000000000000000001000000000000000100000000000000003800000000000562702016081500000010000000000000BRBRFSACNOR8116
012016071278BRFSI19     070BRFS  FM    ON      NM000R$  000000000036000000000003600000000000358000000000035800000000003580000000000000000000000000000002000000000000000600000000000000215000000000000498402016091900000010000000000000BRBRFSACNOR8116
012016071278BRFSI54     070BRFS        ON      NM000R$  000000000012000000000001200000000000120000000000012000000000001200000000000000000000000000000002000000000000250000000000000030000000000000000548402016091900000010000000000000BRBRFSACNOR8116
012016071282BRFSS16     080BRFSE       ON      NM000R$  000000000001000000000000100000000000006000000000000600000000000060000000000000000000000000000002000000000000000600000000000000004000000000000468402016071800000010000000000000BRBRFSACNOR8116
012016071282BRFSS44     080BRFSE       ON      NM000R$  000000000000100000000000010000000000001000000000000100000000000010000000000000000000000000400001000000000000002000000000000000002000000000000443402016071800000010000000000000BRBRFSACNOR8116
012016071282BRFSS49     080BRFSE       ON      NM000R$  000000000003200000000000320000000000018000000000002800000000000180000000000003000000000000000003000000000000001300000000000000037400000000000498402016071800000010000000000000BRBRFSACNOR8116
012016071282BRFSS50     080BRFSE       ON      NM000R$  000000000005600000000000560000000000050000000000005100000000000510000000000000000000000000000004000000000000000400000000000000020700000000000508402016071800000010000000000000BRBRFSACNOR8116
012016071282BRFSS51     080BRFSE       ON      NM000R$  000000000036000000000004260000000000360000000000040400000000003950000000000000000000000000000004000000000000006400000000000002588000000000000510002017071700000010000000000000BRBRFSACNOR8116
012016071282BRFSS55     080BRFSE       ON      NM000R$  000000000039700000000003970000000000397000000000039700000000003970000000000000000000000000000002000000000000054700000000000021715900000000000500002017071700000010000000000000BRBRFSACNOR8116
012016071282BRFSS63     080BRFSE       ON      NM000R$  000000000012000000000001200000000000115000000000011900000000001150000000000000000000000000000002000000000000059000000000000007058500000000000430002017071700000010000000000000BRBRFSACNOR8116
012016071282BRFSS69     080BRFSE       ON      NM000R$  000000000038000000000003800000000000380000000000038000000000003800000000000000000000000000000003000000000000063600000000000024168000000000000495002017071700000010000000000000BRBRFSACNOR8116
012016071282BRFST16     080BRFSE       ON      NM000R$  000000000005200000000000520000000000042000000000004700000000000420000000000000000000000000000002000000000000002000000000000000094000000000000465202016081500000010000000000000BRBRFSACNOR8116
012016071282BRFST18     080BRFSE FM    ON      NM000R$  000000000008200000000000820000000000071000000000007600000000000710000000000000000000000000000004000000000000003000000000000000230800000000000485202016081500000010000000000000BRBRFSACNOR8116
012016071282BRFST46     080BRFSE       ON      NM000R$  000000000004600000000000480000000000035000000000004100000000000400000000000040000000000005000035000000000000056900000000000002369600000000000460202016081500000010000000000000BRBRFSACNOR8116
012016071282BRFST48     080BRFSE FM    ON      NM000R$  000000000005900000000000590000000000059000000000005900000000000590000000000000000000000022900001000000000000001000000000000000059000000000000477702016081500000010000000000000BRBRFSACNOR8116
012016071282BRFST50     080BRFSE       ON      NM000R$  000000000013400000000001340000000000125000000000012700000000001250000000000000000000000000000003000000000000004000000000000000509000000000000502702016081500000010000000000000BRBRFSACNOR8116
012016071282BRFSU54     080BRFSE       ON      NM000R$  000000000041100000000004110000000000391000000000039800000000003910000000000321000000000000000003000000000000001000000000000000398000000000000548402016091900000010000000000000BRBRFSACNOR8116
012016071202BRGE12      010ALFA CONSORCPNF          R$  000000000030400000000003040000000000304000000000030400000000003040000000000304000000000032400001000000000000000100000000000000030400000000000000009999123100000010000000000000BRBRGEACNPF8093
012016071202BRIN3       010BR INSURANCEON      NM   R$  000000000198100000000021240000000001981000000000204600000000020790000000002070000000000207900203000000000000030700000000000062823100000000000000009999123100000010000000000000BRBRINACNOR3111
012016071296BRIN3F      020BR INSURANCEON      NM   R$  000000000200300000000021250000000002003000000000205200000000021250000000002076000000000211700013000000000000000230000000000000472121000000000000009999123100000010000000000000BRBRINACNOR3111
012016071202BRIV3       010ALFA INVEST ON           R$  000000000048000000000004800000000000471000000000047700000000004710000000000471000000000051900003000000000000003100000000000001479900000000000000009999123100000010000000000000BRBRIVACNOR6202
012016071202BRKM3       010BRASKEM     ON      N1   R$  000000000142100000000014280000000001420000000000142300000000014280000000001411000000000143800008000000000000002500000000000003559600000000000000009999123100000010000000000000BRBRKMACNOR1113
012016071296BRKM3F      020BRASKEM     ON      N1   R$  000000000138100000000013810000000001381000000000138100000000013810000000001381000000000142000001000000000000000050000000000000069050000000000000009999123100000010000000000000BRBRKMACNOR1113
012016071202BRKM5       010BRASKEM     PNA     N1   R$  000000000184200000000018720000000001813000000000184700000000018560000000001852000000000185612324000000000002070400000000003824407900000000000000009999123100000010000000000000BRBRKMACNPA4113
012016071296BRKM5F      020BRASKEM     PNA     N1   R$  000000000183600000000018670000000001816000000000184100000000018550000000001838000000000185500050000000000000001322000000000002434038000000000000009999123100000010000000000000BRBRKMACNPA4113
012016071262BRKM5T      030BRASKEM     PNA     N1030R$  000000000188800000000018890000000001888000000000188800000000018890000000000000000000000000000004000000000000002000000000000003777096000000000000009999123100000010000000000000BRBRKMACNPA4113
012016071202BRKM6       010BRASKEM     PNB     N1   R$  000000000105000000000010500000000001050000000000105000000000010500000000001050000000000112000001000000000000000100000000000000105000000000000000009999123100000010000000000000BRBRKMACNPB2111
012016071202BRML3       010BR MALLS PARON      NM   R$  000000000126000000000012730000000001231000000000124900000000012480000000001242000000000124822039000000000009279600000000011598679800000000000000009999123100000010000000000000BRBRMLACNOR9109
012016071296BRML3F      020BR MALLS PARON      NM   R$  000000000126500000000012720000000001231000000000125100000000012470000000001235000000000124700084000000000000002436000000000003049496000000000000009999123100000010000000000000BRBRMLACNOR9109
012016071278BRMLG16     070BRML        ON      NM000R$  000000000003300000000000420000000000033000000000003300000000000420000000000000000000000000000002000000000000003100000000000000103200000000000123102016071800000010000000000000BRBRMLACNOR9108
012016071278BRMLH13     070BRML  FM    ON      NM000R$  000000000003600000000000360000000000031000000000003300000000000310000000000000000000000000000005000000000000010000000000000000335000000000000131902016081500000010000000000000BRBRMLACNOR9109
012016071278BRMLH83     070BRMLE       ON      NM000R$  000000000001000000000000120000000000010000000000001100000000000110000000000000000000000000000004000000000001042100000000000011556400000000000139402016081500000010000000000000BRBRMLACNOR9109
012016071278BRMLJ84     070BRMLE       ON      NM000R$  000000000004100000000000410000000000040000000000004000000000000400000000000000000000000000000002000000000002000000000000000080000100000000000140502016101700000010000000000000BRBRMLACNOR9109
012016071282BRMLS46     080BRMLE       ON      NM000R$  000000000001700000000000170000000000017000000000001700000000000170000000000000000000000000000015000000000000060000000000000001020000000000000126902016071800000010000000000000BRBRMLACNOR9108
